{
	"task/task01/6.BinarySearch.sol": {
		"BinarySearch": {
			"abi": [
				{
					"inputs": [
						{
							"internalType": "int256[]",
							"name": "arr",
							"type": "int256[]"
						},
						{
							"internalType": "int256",
							"name": "p",
							"type": "int256"
						},
						{
							"internalType": "int256",
							"name": "q",
							"type": "int256"
						},
						{
							"internalType": "int256",
							"name": "ele",
							"type": "int256"
						}
					],
					"name": "binarySearch",
					"outputs": [
						{
							"internalType": "int256",
							"name": "",
							"type": "int256"
						}
					],
					"stateMutability": "nonpayable",
					"type": "function"
				},
				{
					"inputs": [],
					"name": "index",
					"outputs": [
						{
							"internalType": "int256",
							"name": "",
							"type": "int256"
						}
					],
					"stateMutability": "view",
					"type": "function"
				}
			],
			"devdoc": {
				"kind": "dev",
				"methods": {},
				"version": 1
			},
			"evm": {
				"assembly": "    /* \"task/task01/6.BinarySearch.sol\":55:621  contract BinarySearch {... */\n  mstore(0x40, 0x80)\n  callvalue\n  dup1\n  iszero\n  tag_1\n  jumpi\n  revert(0x00, 0x00)\ntag_1:\n  pop\n  dataSize(sub_0)\n  dup1\n  dataOffset(sub_0)\n  0x00\n  codecopy\n  0x00\n  return\nstop\n\nsub_0: assembly {\n        /* \"task/task01/6.BinarySearch.sol\":55:621  contract BinarySearch {... */\n      mstore(0x40, 0x80)\n      callvalue\n      dup1\n      iszero\n      tag_1\n      jumpi\n      revert(0x00, 0x00)\n    tag_1:\n      pop\n      jumpi(tag_2, lt(calldatasize, 0x04))\n      shr(0xe0, calldataload(0x00))\n      dup1\n      0x019a4e6c\n      eq\n      tag_3\n      jumpi\n      dup1\n      0x2986c0e5\n      eq\n      tag_4\n      jumpi\n    tag_2:\n      revert(0x00, 0x00)\n        /* \"task/task01/6.BinarySearch.sol\":106:619  function binarySearch(... */\n    tag_3:\n      tag_5\n      0x04\n      dup1\n      calldatasize\n      sub\n      dup2\n      add\n      swap1\n      tag_6\n      swap2\n      swap1\n      tag_7\n      jump\t// in\n    tag_6:\n      tag_8\n      jump\t// in\n    tag_5:\n      mload(0x40)\n      tag_9\n      swap2\n      swap1\n      tag_10\n      jump\t// in\n    tag_9:\n      mload(0x40)\n      dup1\n      swap2\n      sub\n      swap1\n      return\n        /* \"task/task01/6.BinarySearch.sol\":83:99  int public index */\n    tag_4:\n      tag_11\n      tag_12\n      jump\t// in\n    tag_11:\n      mload(0x40)\n      tag_13\n      swap2\n      swap1\n      tag_10\n      jump\t// in\n    tag_13:\n      mload(0x40)\n      dup1\n      swap2\n      sub\n      swap1\n      return\n        /* \"task/task01/6.BinarySearch.sol\":106:619  function binarySearch(... */\n    tag_8:\n        /* \"task/task01/6.BinarySearch.sol\":223:226  int */\n      0x00\n        /* \"task/task01/6.BinarySearch.sol\":246:247  q */\n      dup3\n        /* \"task/task01/6.BinarySearch.sol\":242:243  p */\n      dup5\n        /* \"task/task01/6.BinarySearch.sol\":242:247  p > q */\n      sgt\n        /* \"task/task01/6.BinarySearch.sol\":238:307  if (p > q) {... */\n      iszero\n      tag_15\n      jumpi\n        /* \"task/task01/6.BinarySearch.sol\":271:273  -1 */\n      0xffffffffffffffffffffffffffffffffffffffffffffffffffffffffffffffff\n        /* \"task/task01/6.BinarySearch.sol\":263:268  index */\n      0x00\n        /* \"task/task01/6.BinarySearch.sol\":263:273  index = -1 */\n      dup2\n      swap1\n      sstore\n      pop\n        /* \"task/task01/6.BinarySearch.sol\":294:296  -1 */\n      0xffffffffffffffffffffffffffffffffffffffffffffffffffffffffffffffff\n        /* \"task/task01/6.BinarySearch.sol\":287:296  return -1 */\n      swap1\n      pop\n      jump(tag_14)\n        /* \"task/task01/6.BinarySearch.sol\":238:307  if (p > q) {... */\n    tag_15:\n        /* \"task/task01/6.BinarySearch.sol\":317:324  int mid */\n      0x00\n        /* \"task/task01/6.BinarySearch.sol\":341:342  2 */\n      0x02\n        /* \"task/task01/6.BinarySearch.sol\":336:337  p */\n      dup6\n        /* \"task/task01/6.BinarySearch.sol\":332:333  q */\n      dup6\n        /* \"task/task01/6.BinarySearch.sol\":332:337  q - p */\n      tag_16\n      swap2\n      swap1\n      tag_17\n      jump\t// in\n    tag_16:\n        /* \"task/task01/6.BinarySearch.sol\":331:342  (q - p) / 2 */\n      tag_18\n      swap2\n      swap1\n      tag_19\n      jump\t// in\n    tag_18:\n        /* \"task/task01/6.BinarySearch.sol\":327:328  p */\n      dup6\n        /* \"task/task01/6.BinarySearch.sol\":327:342  p + (q - p) / 2 */\n      tag_20\n      swap2\n      swap1\n      tag_21\n      jump\t// in\n    tag_20:\n        /* \"task/task01/6.BinarySearch.sol\":317:342  int mid = p + (q - p) / 2 */\n      swap1\n      pop\n        /* \"task/task01/6.BinarySearch.sol\":363:366  arr */\n      dup6\n        /* \"task/task01/6.BinarySearch.sol\":372:375  mid */\n      dup2\n        /* \"task/task01/6.BinarySearch.sol\":363:377  arr[uint(mid)] */\n      dup2\n      mload\n      dup2\n      lt\n      tag_22\n      jumpi\n      tag_23\n      tag_24\n      jump\t// in\n    tag_23:\n    tag_22:\n      0x20\n      mul\n      0x20\n      add\n      add\n      mload\n        /* \"task/task01/6.BinarySearch.sol\":356:359  ele */\n      dup4\n        /* \"task/task01/6.BinarySearch.sol\":356:377  ele == arr[uint(mid)] */\n      sub\n        /* \"task/task01/6.BinarySearch.sol\":352:439  if (ele == arr[uint(mid)]) {... */\n      tag_25\n      jumpi\n        /* \"task/task01/6.BinarySearch.sol\":401:404  mid */\n      dup1\n        /* \"task/task01/6.BinarySearch.sol\":393:398  index */\n      0x00\n        /* \"task/task01/6.BinarySearch.sol\":393:404  index = mid */\n      dup2\n      swap1\n      sstore\n      pop\n        /* \"task/task01/6.BinarySearch.sol\":425:428  mid */\n      dup1\n        /* \"task/task01/6.BinarySearch.sol\":418:428  return mid */\n      swap2\n      pop\n      pop\n      jump(tag_14)\n        /* \"task/task01/6.BinarySearch.sol\":352:439  if (ele == arr[uint(mid)]) {... */\n    tag_25:\n        /* \"task/task01/6.BinarySearch.sol\":459:462  arr */\n      dup6\n        /* \"task/task01/6.BinarySearch.sol\":468:471  mid */\n      dup2\n        /* \"task/task01/6.BinarySearch.sol\":459:473  arr[uint(mid)] */\n      dup2\n      mload\n      dup2\n      lt\n      tag_26\n      jumpi\n      tag_27\n      tag_24\n      jump\t// in\n    tag_27:\n    tag_26:\n      0x20\n      mul\n      0x20\n      add\n      add\n      mload\n        /* \"task/task01/6.BinarySearch.sol\":453:456  ele */\n      dup4\n        /* \"task/task01/6.BinarySearch.sol\":453:473  ele < arr[uint(mid)] */\n      slt\n        /* \"task/task01/6.BinarySearch.sol\":449:613  if (ele < arr[uint(mid)]) {... */\n      iszero\n      tag_28\n      jumpi\n        /* \"task/task01/6.BinarySearch.sol\":496:530  binarySearch(arr, p, mid - 1, ele) */\n      tag_29\n        /* \"task/task01/6.BinarySearch.sol\":509:512  arr */\n      dup7\n        /* \"task/task01/6.BinarySearch.sol\":514:515  p */\n      dup7\n        /* \"task/task01/6.BinarySearch.sol\":523:524  1 */\n      0x01\n        /* \"task/task01/6.BinarySearch.sol\":517:520  mid */\n      dup5\n        /* \"task/task01/6.BinarySearch.sol\":517:524  mid - 1 */\n      tag_30\n      swap2\n      swap1\n      tag_17\n      jump\t// in\n    tag_30:\n        /* \"task/task01/6.BinarySearch.sol\":526:529  ele */\n      dup7\n        /* \"task/task01/6.BinarySearch.sol\":496:508  binarySearch */\n      tag_8\n        /* \"task/task01/6.BinarySearch.sol\":496:530  binarySearch(arr, p, mid - 1, ele) */\n      jump\t// in\n    tag_29:\n        /* \"task/task01/6.BinarySearch.sol\":489:530  return binarySearch(arr, p, mid - 1, ele) */\n      swap2\n      pop\n      pop\n      jump(tag_14)\n        /* \"task/task01/6.BinarySearch.sol\":449:613  if (ele < arr[uint(mid)]) {... */\n    tag_28:\n        /* \"task/task01/6.BinarySearch.sol\":568:602  binarySearch(arr, mid + 1, q, ele) */\n      tag_32\n        /* \"task/task01/6.BinarySearch.sol\":581:584  arr */\n      dup7\n        /* \"task/task01/6.BinarySearch.sol\":592:593  1 */\n      0x01\n        /* \"task/task01/6.BinarySearch.sol\":586:589  mid */\n      dup4\n        /* \"task/task01/6.BinarySearch.sol\":586:593  mid + 1 */\n      tag_33\n      swap2\n      swap1\n      tag_21\n      jump\t// in\n    tag_33:\n        /* \"task/task01/6.BinarySearch.sol\":595:596  q */\n      dup7\n        /* \"task/task01/6.BinarySearch.sol\":598:601  ele */\n      dup7\n        /* \"task/task01/6.BinarySearch.sol\":568:580  binarySearch */\n      tag_8\n        /* \"task/task01/6.BinarySearch.sol\":568:602  binarySearch(arr, mid + 1, q, ele) */\n      jump\t// in\n    tag_32:\n        /* \"task/task01/6.BinarySearch.sol\":561:602  return binarySearch(arr, mid + 1, q, ele) */\n      swap2\n      pop\n      pop\n        /* \"task/task01/6.BinarySearch.sol\":106:619  function binarySearch(... */\n    tag_14:\n      swap5\n      swap4\n      pop\n      pop\n      pop\n      pop\n      jump\t// out\n        /* \"task/task01/6.BinarySearch.sol\":83:99  int public index */\n    tag_12:\n      sload(0x00)\n      dup2\n      jump\t// out\n        /* \"#utility.yul\":7:82   */\n    tag_34:\n        /* \"#utility.yul\":40:46   */\n      0x00\n        /* \"#utility.yul\":73:75   */\n      0x40\n        /* \"#utility.yul\":67:76   */\n      mload\n        /* \"#utility.yul\":57:76   */\n      swap1\n      pop\n        /* \"#utility.yul\":7:82   */\n      swap1\n      jump\t// out\n        /* \"#utility.yul\":88:205   */\n    tag_35:\n        /* \"#utility.yul\":197:198   */\n      0x00\n        /* \"#utility.yul\":194:195   */\n      0x00\n        /* \"#utility.yul\":187:199   */\n      revert\n        /* \"#utility.yul\":211:328   */\n    tag_36:\n        /* \"#utility.yul\":320:321   */\n      0x00\n        /* \"#utility.yul\":317:318   */\n      0x00\n        /* \"#utility.yul\":310:322   */\n      revert\n        /* \"#utility.yul\":334:451   */\n    tag_37:\n        /* \"#utility.yul\":443:444   */\n      0x00\n        /* \"#utility.yul\":440:441   */\n      0x00\n        /* \"#utility.yul\":433:445   */\n      revert\n        /* \"#utility.yul\":457:559   */\n    tag_38:\n        /* \"#utility.yul\":498:504   */\n      0x00\n        /* \"#utility.yul\":549:551   */\n      0x1f\n        /* \"#utility.yul\":545:552   */\n      not\n        /* \"#utility.yul\":540:542   */\n      0x1f\n        /* \"#utility.yul\":533:538   */\n      dup4\n        /* \"#utility.yul\":529:543   */\n      add\n        /* \"#utility.yul\":525:553   */\n      and\n        /* \"#utility.yul\":515:553   */\n      swap1\n      pop\n        /* \"#utility.yul\":457:559   */\n      swap2\n      swap1\n      pop\n      jump\t// out\n        /* \"#utility.yul\":565:745   */\n    tag_39:\n        /* \"#utility.yul\":613:690   */\n      0x4e487b7100000000000000000000000000000000000000000000000000000000\n        /* \"#utility.yul\":610:611   */\n      0x00\n        /* \"#utility.yul\":603:691   */\n      mstore\n        /* \"#utility.yul\":710:714   */\n      0x41\n        /* \"#utility.yul\":707:708   */\n      0x04\n        /* \"#utility.yul\":700:715   */\n      mstore\n        /* \"#utility.yul\":734:738   */\n      0x24\n        /* \"#utility.yul\":731:732   */\n      0x00\n        /* \"#utility.yul\":724:739   */\n      revert\n        /* \"#utility.yul\":751:1032   */\n    tag_40:\n        /* \"#utility.yul\":834:861   */\n      tag_60\n        /* \"#utility.yul\":856:860   */\n      dup3\n        /* \"#utility.yul\":834:861   */\n      tag_38\n      jump\t// in\n    tag_60:\n        /* \"#utility.yul\":826:832   */\n      dup2\n        /* \"#utility.yul\":822:862   */\n      add\n        /* \"#utility.yul\":964:970   */\n      dup2\n        /* \"#utility.yul\":952:962   */\n      dup2\n        /* \"#utility.yul\":949:971   */\n      lt\n        /* \"#utility.yul\":928:946   */\n      0xffffffffffffffff\n        /* \"#utility.yul\":916:926   */\n      dup3\n        /* \"#utility.yul\":913:947   */\n      gt\n        /* \"#utility.yul\":910:972   */\n      or\n        /* \"#utility.yul\":907:995   */\n      iszero\n      tag_61\n      jumpi\n        /* \"#utility.yul\":975:993   */\n      tag_62\n      tag_39\n      jump\t// in\n    tag_62:\n        /* \"#utility.yul\":907:995   */\n    tag_61:\n        /* \"#utility.yul\":1015:1025   */\n      dup1\n        /* \"#utility.yul\":1011:1013   */\n      0x40\n        /* \"#utility.yul\":1004:1026   */\n      mstore\n        /* \"#utility.yul\":794:1032   */\n      pop\n        /* \"#utility.yul\":751:1032   */\n      pop\n      pop\n      jump\t// out\n        /* \"#utility.yul\":1038:1167   */\n    tag_41:\n        /* \"#utility.yul\":1072:1078   */\n      0x00\n        /* \"#utility.yul\":1099:1119   */\n      tag_64\n      tag_34\n      jump\t// in\n    tag_64:\n        /* \"#utility.yul\":1089:1119   */\n      swap1\n      pop\n        /* \"#utility.yul\":1128:1161   */\n      tag_65\n        /* \"#utility.yul\":1156:1160   */\n      dup3\n        /* \"#utility.yul\":1148:1154   */\n      dup3\n        /* \"#utility.yul\":1128:1161   */\n      tag_40\n      jump\t// in\n    tag_65:\n        /* \"#utility.yul\":1038:1167   */\n      swap2\n      swap1\n      pop\n      jump\t// out\n        /* \"#utility.yul\":1173:1483   */\n    tag_42:\n        /* \"#utility.yul\":1249:1253   */\n      0x00\n        /* \"#utility.yul\":1339:1357   */\n      0xffffffffffffffff\n        /* \"#utility.yul\":1331:1337   */\n      dup3\n        /* \"#utility.yul\":1328:1358   */\n      gt\n        /* \"#utility.yul\":1325:1381   */\n      iszero\n      tag_67\n      jumpi\n        /* \"#utility.yul\":1361:1379   */\n      tag_68\n      tag_39\n      jump\t// in\n    tag_68:\n        /* \"#utility.yul\":1325:1381   */\n    tag_67:\n        /* \"#utility.yul\":1411:1415   */\n      0x20\n        /* \"#utility.yul\":1403:1409   */\n      dup3\n        /* \"#utility.yul\":1399:1416   */\n      mul\n        /* \"#utility.yul\":1391:1416   */\n      swap1\n      pop\n        /* \"#utility.yul\":1471:1475   */\n      0x20\n        /* \"#utility.yul\":1465:1469   */\n      dup2\n        /* \"#utility.yul\":1461:1476   */\n      add\n        /* \"#utility.yul\":1453:1476   */\n      swap1\n      pop\n        /* \"#utility.yul\":1173:1483   */\n      swap2\n      swap1\n      pop\n      jump\t// out\n        /* \"#utility.yul\":1489:1606   */\n    tag_43:\n        /* \"#utility.yul\":1598:1599   */\n      0x00\n        /* \"#utility.yul\":1595:1596   */\n      0x00\n        /* \"#utility.yul\":1588:1600   */\n      revert\n        /* \"#utility.yul\":1612:1688   */\n    tag_44:\n        /* \"#utility.yul\":1648:1655   */\n      0x00\n        /* \"#utility.yul\":1677:1682   */\n      dup2\n        /* \"#utility.yul\":1666:1682   */\n      swap1\n      pop\n        /* \"#utility.yul\":1612:1688   */\n      swap2\n      swap1\n      pop\n      jump\t// out\n        /* \"#utility.yul\":1694:1814   */\n    tag_45:\n        /* \"#utility.yul\":1766:1789   */\n      tag_72\n        /* \"#utility.yul\":1783:1788   */\n      dup2\n        /* \"#utility.yul\":1766:1789   */\n      tag_44\n      jump\t// in\n    tag_72:\n        /* \"#utility.yul\":1759:1764   */\n      dup2\n        /* \"#utility.yul\":1756:1790   */\n      eq\n        /* \"#utility.yul\":1746:1808   */\n      tag_73\n      jumpi\n        /* \"#utility.yul\":1804:1805   */\n      0x00\n        /* \"#utility.yul\":1801:1802   */\n      0x00\n        /* \"#utility.yul\":1794:1806   */\n      revert\n        /* \"#utility.yul\":1746:1808   */\n    tag_73:\n        /* \"#utility.yul\":1694:1814   */\n      pop\n      jump\t// out\n        /* \"#utility.yul\":1820:1957   */\n    tag_46:\n        /* \"#utility.yul\":1865:1870   */\n      0x00\n        /* \"#utility.yul\":1903:1909   */\n      dup2\n        /* \"#utility.yul\":1890:1910   */\n      calldataload\n        /* \"#utility.yul\":1881:1910   */\n      swap1\n      pop\n        /* \"#utility.yul\":1919:1951   */\n      tag_75\n        /* \"#utility.yul\":1945:1950   */\n      dup2\n        /* \"#utility.yul\":1919:1951   */\n      tag_45\n      jump\t// in\n    tag_75:\n        /* \"#utility.yul\":1820:1957   */\n      swap3\n      swap2\n      pop\n      pop\n      jump\t// out\n        /* \"#utility.yul\":1979:2686   */\n    tag_47:\n        /* \"#utility.yul\":2074:2079   */\n      0x00\n        /* \"#utility.yul\":2099:2179   */\n      tag_77\n        /* \"#utility.yul\":2115:2178   */\n      tag_78\n        /* \"#utility.yul\":2171:2177   */\n      dup5\n        /* \"#utility.yul\":2115:2178   */\n      tag_42\n      jump\t// in\n    tag_78:\n        /* \"#utility.yul\":2099:2179   */\n      tag_41\n      jump\t// in\n    tag_77:\n        /* \"#utility.yul\":2090:2179   */\n      swap1\n      pop\n        /* \"#utility.yul\":2199:2204   */\n      dup1\n        /* \"#utility.yul\":2228:2234   */\n      dup4\n        /* \"#utility.yul\":2221:2226   */\n      dup3\n        /* \"#utility.yul\":2214:2235   */\n      mstore\n        /* \"#utility.yul\":2262:2266   */\n      0x20\n        /* \"#utility.yul\":2255:2260   */\n      dup3\n        /* \"#utility.yul\":2251:2267   */\n      add\n        /* \"#utility.yul\":2244:2267   */\n      swap1\n      pop\n        /* \"#utility.yul\":2315:2319   */\n      0x20\n        /* \"#utility.yul\":2307:2313   */\n      dup5\n        /* \"#utility.yul\":2303:2320   */\n      mul\n        /* \"#utility.yul\":2295:2301   */\n      dup4\n        /* \"#utility.yul\":2291:2321   */\n      add\n        /* \"#utility.yul\":2344:2347   */\n      dup6\n        /* \"#utility.yul\":2336:2342   */\n      dup2\n        /* \"#utility.yul\":2333:2348   */\n      gt\n        /* \"#utility.yul\":2330:2452   */\n      iszero\n      tag_79\n      jumpi\n        /* \"#utility.yul\":2363:2442   */\n      tag_80\n      tag_43\n      jump\t// in\n    tag_80:\n        /* \"#utility.yul\":2330:2452   */\n    tag_79:\n        /* \"#utility.yul\":2478:2484   */\n      dup4\n        /* \"#utility.yul\":2461:2680   */\n    tag_81:\n        /* \"#utility.yul\":2495:2501   */\n      dup2\n        /* \"#utility.yul\":2490:2493   */\n      dup2\n        /* \"#utility.yul\":2487:2502   */\n      lt\n        /* \"#utility.yul\":2461:2680   */\n      iszero\n      tag_83\n      jumpi\n        /* \"#utility.yul\":2570:2573   */\n      dup1\n        /* \"#utility.yul\":2599:2635   */\n      tag_84\n        /* \"#utility.yul\":2631:2634   */\n      dup9\n        /* \"#utility.yul\":2619:2629   */\n      dup3\n        /* \"#utility.yul\":2599:2635   */\n      tag_46\n      jump\t// in\n    tag_84:\n        /* \"#utility.yul\":2594:2597   */\n      dup5\n        /* \"#utility.yul\":2587:2636   */\n      mstore\n        /* \"#utility.yul\":2665:2669   */\n      0x20\n        /* \"#utility.yul\":2660:2663   */\n      dup5\n        /* \"#utility.yul\":2656:2670   */\n      add\n        /* \"#utility.yul\":2649:2670   */\n      swap4\n      pop\n        /* \"#utility.yul\":2537:2680   */\n      pop\n        /* \"#utility.yul\":2521:2525   */\n      0x20\n        /* \"#utility.yul\":2516:2519   */\n      dup2\n        /* \"#utility.yul\":2512:2526   */\n      add\n        /* \"#utility.yul\":2505:2526   */\n      swap1\n      pop\n        /* \"#utility.yul\":2461:2680   */\n      jump(tag_81)\n    tag_83:\n        /* \"#utility.yul\":2465:2486   */\n      pop\n        /* \"#utility.yul\":2080:2686   */\n      pop\n      pop\n        /* \"#utility.yul\":1979:2686   */\n      swap4\n      swap3\n      pop\n      pop\n      pop\n      jump\t// out\n        /* \"#utility.yul\":2708:3076   */\n    tag_48:\n        /* \"#utility.yul\":2778:2783   */\n      0x00\n        /* \"#utility.yul\":2827:2830   */\n      dup3\n        /* \"#utility.yul\":2820:2824   */\n      0x1f\n        /* \"#utility.yul\":2812:2818   */\n      dup4\n        /* \"#utility.yul\":2808:2825   */\n      add\n        /* \"#utility.yul\":2804:2831   */\n      slt\n        /* \"#utility.yul\":2794:2916   */\n      tag_86\n      jumpi\n        /* \"#utility.yul\":2835:2914   */\n      tag_87\n      tag_37\n      jump\t// in\n    tag_87:\n        /* \"#utility.yul\":2794:2916   */\n    tag_86:\n        /* \"#utility.yul\":2952:2958   */\n      dup2\n        /* \"#utility.yul\":2939:2959   */\n      calldataload\n        /* \"#utility.yul\":2977:3070   */\n      tag_88\n        /* \"#utility.yul\":3066:3069   */\n      dup5\n        /* \"#utility.yul\":3058:3064   */\n      dup3\n        /* \"#utility.yul\":3051:3055   */\n      0x20\n        /* \"#utility.yul\":3043:3049   */\n      dup7\n        /* \"#utility.yul\":3039:3056   */\n      add\n        /* \"#utility.yul\":2977:3070   */\n      tag_47\n      jump\t// in\n    tag_88:\n        /* \"#utility.yul\":2968:3070   */\n      swap2\n      pop\n        /* \"#utility.yul\":2784:3076   */\n      pop\n        /* \"#utility.yul\":2708:3076   */\n      swap3\n      swap2\n      pop\n      pop\n      jump\t// out\n        /* \"#utility.yul\":3082:4049   */\n    tag_7:\n        /* \"#utility.yul\":3189:3195   */\n      0x00\n        /* \"#utility.yul\":3197:3203   */\n      0x00\n        /* \"#utility.yul\":3205:3211   */\n      0x00\n        /* \"#utility.yul\":3213:3219   */\n      0x00\n        /* \"#utility.yul\":3262:3265   */\n      0x80\n        /* \"#utility.yul\":3250:3259   */\n      dup6\n        /* \"#utility.yul\":3241:3248   */\n      dup8\n        /* \"#utility.yul\":3237:3260   */\n      sub\n        /* \"#utility.yul\":3233:3266   */\n      slt\n        /* \"#utility.yul\":3230:3350   */\n      iszero\n      tag_90\n      jumpi\n        /* \"#utility.yul\":3269:3348   */\n      tag_91\n      tag_35\n      jump\t// in\n    tag_91:\n        /* \"#utility.yul\":3230:3350   */\n    tag_90:\n        /* \"#utility.yul\":3417:3418   */\n      0x00\n        /* \"#utility.yul\":3406:3415   */\n      dup6\n        /* \"#utility.yul\":3402:3419   */\n      add\n        /* \"#utility.yul\":3389:3420   */\n      calldataload\n        /* \"#utility.yul\":3447:3465   */\n      0xffffffffffffffff\n        /* \"#utility.yul\":3439:3445   */\n      dup2\n        /* \"#utility.yul\":3436:3466   */\n      gt\n        /* \"#utility.yul\":3433:3550   */\n      iszero\n      tag_92\n      jumpi\n        /* \"#utility.yul\":3469:3548   */\n      tag_93\n      tag_36\n      jump\t// in\n    tag_93:\n        /* \"#utility.yul\":3433:3550   */\n    tag_92:\n        /* \"#utility.yul\":3574:3651   */\n      tag_94\n        /* \"#utility.yul\":3643:3650   */\n      dup8\n        /* \"#utility.yul\":3634:3640   */\n      dup3\n        /* \"#utility.yul\":3623:3632   */\n      dup9\n        /* \"#utility.yul\":3619:3641   */\n      add\n        /* \"#utility.yul\":3574:3651   */\n      tag_48\n      jump\t// in\n    tag_94:\n        /* \"#utility.yul\":3564:3651   */\n      swap5\n      pop\n        /* \"#utility.yul\":3360:3661   */\n      pop\n        /* \"#utility.yul\":3700:3702   */\n      0x20\n        /* \"#utility.yul\":3726:3778   */\n      tag_95\n        /* \"#utility.yul\":3770:3777   */\n      dup8\n        /* \"#utility.yul\":3761:3767   */\n      dup3\n        /* \"#utility.yul\":3750:3759   */\n      dup9\n        /* \"#utility.yul\":3746:3768   */\n      add\n        /* \"#utility.yul\":3726:3778   */\n      tag_46\n      jump\t// in\n    tag_95:\n        /* \"#utility.yul\":3716:3778   */\n      swap4\n      pop\n        /* \"#utility.yul\":3671:3788   */\n      pop\n        /* \"#utility.yul\":3827:3829   */\n      0x40\n        /* \"#utility.yul\":3853:3905   */\n      tag_96\n        /* \"#utility.yul\":3897:3904   */\n      dup8\n        /* \"#utility.yul\":3888:3894   */\n      dup3\n        /* \"#utility.yul\":3877:3886   */\n      dup9\n        /* \"#utility.yul\":3873:3895   */\n      add\n        /* \"#utility.yul\":3853:3905   */\n      tag_46\n      jump\t// in\n    tag_96:\n        /* \"#utility.yul\":3843:3905   */\n      swap3\n      pop\n        /* \"#utility.yul\":3798:3915   */\n      pop\n        /* \"#utility.yul\":3954:3956   */\n      0x60\n        /* \"#utility.yul\":3980:4032   */\n      tag_97\n        /* \"#utility.yul\":4024:4031   */\n      dup8\n        /* \"#utility.yul\":4015:4021   */\n      dup3\n        /* \"#utility.yul\":4004:4013   */\n      dup9\n        /* \"#utility.yul\":4000:4022   */\n      add\n        /* \"#utility.yul\":3980:4032   */\n      tag_46\n      jump\t// in\n    tag_97:\n        /* \"#utility.yul\":3970:4032   */\n      swap2\n      pop\n        /* \"#utility.yul\":3925:4042   */\n      pop\n        /* \"#utility.yul\":3082:4049   */\n      swap3\n      swap6\n      swap2\n      swap5\n      pop\n      swap3\n      pop\n      jump\t// out\n        /* \"#utility.yul\":4055:4170   */\n    tag_49:\n        /* \"#utility.yul\":4140:4163   */\n      tag_99\n        /* \"#utility.yul\":4157:4162   */\n      dup2\n        /* \"#utility.yul\":4140:4163   */\n      tag_44\n      jump\t// in\n    tag_99:\n        /* \"#utility.yul\":4135:4138   */\n      dup3\n        /* \"#utility.yul\":4128:4164   */\n      mstore\n        /* \"#utility.yul\":4055:4170   */\n      pop\n      pop\n      jump\t// out\n        /* \"#utility.yul\":4176:4394   */\n    tag_10:\n        /* \"#utility.yul\":4267:4271   */\n      0x00\n        /* \"#utility.yul\":4305:4307   */\n      0x20\n        /* \"#utility.yul\":4294:4303   */\n      dup3\n        /* \"#utility.yul\":4290:4308   */\n      add\n        /* \"#utility.yul\":4282:4308   */\n      swap1\n      pop\n        /* \"#utility.yul\":4318:4387   */\n      tag_101\n        /* \"#utility.yul\":4384:4385   */\n      0x00\n        /* \"#utility.yul\":4373:4382   */\n      dup4\n        /* \"#utility.yul\":4369:4386   */\n      add\n        /* \"#utility.yul\":4360:4366   */\n      dup5\n        /* \"#utility.yul\":4318:4387   */\n      tag_49\n      jump\t// in\n    tag_101:\n        /* \"#utility.yul\":4176:4394   */\n      swap3\n      swap2\n      pop\n      pop\n      jump\t// out\n        /* \"#utility.yul\":4400:4580   */\n    tag_50:\n        /* \"#utility.yul\":4448:4525   */\n      0x4e487b7100000000000000000000000000000000000000000000000000000000\n        /* \"#utility.yul\":4445:4446   */\n      0x00\n        /* \"#utility.yul\":4438:4526   */\n      mstore\n        /* \"#utility.yul\":4545:4549   */\n      0x11\n        /* \"#utility.yul\":4542:4543   */\n      0x04\n        /* \"#utility.yul\":4535:4550   */\n      mstore\n        /* \"#utility.yul\":4569:4573   */\n      0x24\n        /* \"#utility.yul\":4566:4567   */\n      0x00\n        /* \"#utility.yul\":4559:4574   */\n      revert\n        /* \"#utility.yul\":4586:4958   */\n    tag_17:\n        /* \"#utility.yul\":4625:4629   */\n      0x00\n        /* \"#utility.yul\":4645:4664   */\n      tag_104\n        /* \"#utility.yul\":4662:4663   */\n      dup3\n        /* \"#utility.yul\":4645:4664   */\n      tag_44\n      jump\t// in\n    tag_104:\n        /* \"#utility.yul\":4640:4664   */\n      swap2\n      pop\n        /* \"#utility.yul\":4678:4697   */\n      tag_105\n        /* \"#utility.yul\":4695:4696   */\n      dup4\n        /* \"#utility.yul\":4678:4697   */\n      tag_44\n      jump\t// in\n    tag_105:\n        /* \"#utility.yul\":4673:4697   */\n      swap3\n      pop\n        /* \"#utility.yul\":4721:4722   */\n      dup3\n        /* \"#utility.yul\":4718:4719   */\n      dup3\n        /* \"#utility.yul\":4714:4723   */\n      sub\n        /* \"#utility.yul\":4706:4723   */\n      swap1\n      pop\n        /* \"#utility.yul\":4915:4916   */\n      dup2\n        /* \"#utility.yul\":4909:4913   */\n      dup2\n        /* \"#utility.yul\":4905:4917   */\n      slt\n        /* \"#utility.yul\":4901:4902   */\n      0x00\n        /* \"#utility.yul\":4898:4899   */\n      dup5\n        /* \"#utility.yul\":4894:4903   */\n      slt\n        /* \"#utility.yul\":4890:4918   */\n      and\n        /* \"#utility.yul\":4873:4874   */\n      dup3\n        /* \"#utility.yul\":4867:4871   */\n      dup3\n        /* \"#utility.yul\":4863:4875   */\n      sgt\n        /* \"#utility.yul\":4858:4859   */\n      0x00\n        /* \"#utility.yul\":4855:4856   */\n      dup6\n        /* \"#utility.yul\":4851:4860   */\n      slt\n        /* \"#utility.yul\":4844:4861   */\n      iszero\n        /* \"#utility.yul\":4840:4876   */\n      and\n        /* \"#utility.yul\":4824:4928   */\n      or\n        /* \"#utility.yul\":4821:4951   */\n      iszero\n      tag_106\n      jumpi\n        /* \"#utility.yul\":4931:4949   */\n      tag_107\n      tag_50\n      jump\t// in\n    tag_107:\n        /* \"#utility.yul\":4821:4951   */\n    tag_106:\n        /* \"#utility.yul\":4586:4958   */\n      swap3\n      swap2\n      pop\n      pop\n      jump\t// out\n        /* \"#utility.yul\":4964:5144   */\n    tag_51:\n        /* \"#utility.yul\":5012:5089   */\n      0x4e487b7100000000000000000000000000000000000000000000000000000000\n        /* \"#utility.yul\":5009:5010   */\n      0x00\n        /* \"#utility.yul\":5002:5090   */\n      mstore\n        /* \"#utility.yul\":5109:5113   */\n      0x12\n        /* \"#utility.yul\":5106:5107   */\n      0x04\n        /* \"#utility.yul\":5099:5114   */\n      mstore\n        /* \"#utility.yul\":5133:5137   */\n      0x24\n        /* \"#utility.yul\":5130:5131   */\n      0x00\n        /* \"#utility.yul\":5123:5138   */\n      revert\n        /* \"#utility.yul\":5150:5535   */\n    tag_19:\n        /* \"#utility.yul\":5189:5190   */\n      0x00\n        /* \"#utility.yul\":5206:5225   */\n      tag_110\n        /* \"#utility.yul\":5223:5224   */\n      dup3\n        /* \"#utility.yul\":5206:5225   */\n      tag_44\n      jump\t// in\n    tag_110:\n        /* \"#utility.yul\":5201:5225   */\n      swap2\n      pop\n        /* \"#utility.yul\":5239:5258   */\n      tag_111\n        /* \"#utility.yul\":5256:5257   */\n      dup4\n        /* \"#utility.yul\":5239:5258   */\n      tag_44\n      jump\t// in\n    tag_111:\n        /* \"#utility.yul\":5234:5258   */\n      swap3\n      pop\n        /* \"#utility.yul\":5277:5278   */\n      dup3\n        /* \"#utility.yul\":5267:5302   */\n      tag_112\n      jumpi\n        /* \"#utility.yul\":5282:5300   */\n      tag_113\n      tag_51\n      jump\t// in\n    tag_113:\n        /* \"#utility.yul\":5267:5302   */\n    tag_112:\n        /* \"#utility.yul\":5468:5469   */\n      0x01\n        /* \"#utility.yul\":5465:5466   */\n      0x00\n        /* \"#utility.yul\":5461:5470   */\n      sub\n        /* \"#utility.yul\":5458:5459   */\n      dup4\n        /* \"#utility.yul\":5455:5471   */\n      eq\n        /* \"#utility.yul\":5374:5440   */\n      0x8000000000000000000000000000000000000000000000000000000000000000\n        /* \"#utility.yul\":5371:5372   */\n      dup4\n        /* \"#utility.yul\":5368:5441   */\n      eq\n        /* \"#utility.yul\":5351:5481   */\n      and\n        /* \"#utility.yul\":5348:5504   */\n      iszero\n      tag_114\n      jumpi\n        /* \"#utility.yul\":5484:5502   */\n      tag_115\n      tag_50\n      jump\t// in\n    tag_115:\n        /* \"#utility.yul\":5348:5504   */\n    tag_114:\n        /* \"#utility.yul\":5527:5528   */\n      dup3\n        /* \"#utility.yul\":5524:5525   */\n      dup3\n        /* \"#utility.yul\":5519:5529   */\n      sdiv\n        /* \"#utility.yul\":5514:5529   */\n      swap1\n      pop\n        /* \"#utility.yul\":5150:5535   */\n      swap3\n      swap2\n      pop\n      pop\n      jump\t// out\n        /* \"#utility.yul\":5541:5916   */\n    tag_21:\n        /* \"#utility.yul\":5580:5583   */\n      0x00\n        /* \"#utility.yul\":5599:5618   */\n      tag_117\n        /* \"#utility.yul\":5616:5617   */\n      dup3\n        /* \"#utility.yul\":5599:5618   */\n      tag_44\n      jump\t// in\n    tag_117:\n        /* \"#utility.yul\":5594:5618   */\n      swap2\n      pop\n        /* \"#utility.yul\":5632:5651   */\n      tag_118\n        /* \"#utility.yul\":5649:5650   */\n      dup4\n        /* \"#utility.yul\":5632:5651   */\n      tag_44\n      jump\t// in\n    tag_118:\n        /* \"#utility.yul\":5627:5651   */\n      swap3\n      pop\n        /* \"#utility.yul\":5674:5675   */\n      dup3\n        /* \"#utility.yul\":5671:5672   */\n      dup3\n        /* \"#utility.yul\":5667:5676   */\n      add\n        /* \"#utility.yul\":5660:5676   */\n      swap1\n      pop\n        /* \"#utility.yul\":5872:5873   */\n      dup3\n        /* \"#utility.yul\":5867:5870   */\n      dup2\n        /* \"#utility.yul\":5863:5874   */\n      slt\n        /* \"#utility.yul\":5856:5875   */\n      iszero\n        /* \"#utility.yul\":5852:5853   */\n      0x00\n        /* \"#utility.yul\":5849:5850   */\n      dup4\n        /* \"#utility.yul\":5845:5854   */\n      slt\n        /* \"#utility.yul\":5841:5876   */\n      and\n        /* \"#utility.yul\":5824:5825   */\n      dup4\n        /* \"#utility.yul\":5819:5822   */\n      dup3\n        /* \"#utility.yul\":5815:5826   */\n      slt\n        /* \"#utility.yul\":5810:5811   */\n      0x00\n        /* \"#utility.yul\":5807:5808   */\n      dup5\n        /* \"#utility.yul\":5803:5812   */\n      slt\n        /* \"#utility.yul\":5796:5813   */\n      iszero\n        /* \"#utility.yul\":5792:5827   */\n      and\n        /* \"#utility.yul\":5776:5886   */\n      or\n        /* \"#utility.yul\":5773:5909   */\n      iszero\n      tag_119\n      jumpi\n        /* \"#utility.yul\":5889:5907   */\n      tag_120\n      tag_50\n      jump\t// in\n    tag_120:\n        /* \"#utility.yul\":5773:5909   */\n    tag_119:\n        /* \"#utility.yul\":5541:5916   */\n      swap3\n      swap2\n      pop\n      pop\n      jump\t// out\n        /* \"#utility.yul\":5922:6102   */\n    tag_24:\n        /* \"#utility.yul\":5970:6047   */\n      0x4e487b7100000000000000000000000000000000000000000000000000000000\n        /* \"#utility.yul\":5967:5968   */\n      0x00\n        /* \"#utility.yul\":5960:6048   */\n      mstore\n        /* \"#utility.yul\":6067:6071   */\n      0x32\n        /* \"#utility.yul\":6064:6065   */\n      0x04\n        /* \"#utility.yul\":6057:6072   */\n      mstore\n        /* \"#utility.yul\":6091:6095   */\n      0x24\n        /* \"#utility.yul\":6088:6089   */\n      0x00\n        /* \"#utility.yul\":6081:6096   */\n      revert\n\n    auxdata: 0xa26469706673582212207c4eeef9678ae952f2df05f9ce93e9e8f4c3fa44c5c2c1ffd7289e166ef08d3464736f6c634300081e0033\n}\n",
				"bytecode": {
					"linkReferences": {},
					"object": "6080604052348015600e575f5ffd5b506105808061001c5f395ff3fe608060405234801561000f575f5ffd5b5060043610610034575f3560e01c8063019a4e6c146100385780632986c0e514610068575b5f5ffd5b610052600480360381019061004d9190610332565b610086565b60405161005f91906103c1565b60405180910390f35b610070610199565b60405161007d91906103c1565b60405180910390f35b5f828413156100dd577fffffffffffffffffffffffffffffffffffffffffffffffffffffffffffffffff5f819055507fffffffffffffffffffffffffffffffffffffffffffffffffffffffffffffffff9050610191565b5f600285856100ec9190610407565b6100f69190610474565b8561010191906104dc565b90508581815181106101165761011561051d565b5b6020026020010151830361013357805f8190555080915050610191565b8581815181106101465761014561051d565b5b60200260200101518312156101755761016d86866001846101679190610407565b86610086565b915050610191565b61018d8660018361018691906104dc565b8686610086565b9150505b949350505050565b5f5481565b5f604051905090565b5f5ffd5b5f5ffd5b5f5ffd5b5f601f19601f8301169050919050565b7f4e487b71000000000000000000000000000000000000000000000000000000005f52604160045260245ffd5b6101f9826101b3565b810181811067ffffffffffffffff82111715610218576102176101c3565b5b80604052505050565b5f61022a61019e565b905061023682826101f0565b919050565b5f67ffffffffffffffff821115610255576102546101c3565b5b602082029050602081019050919050565b5f5ffd5b5f819050919050565b61027c8161026a565b8114610286575f5ffd5b50565b5f8135905061029781610273565b92915050565b5f6102af6102aa8461023b565b610221565b905080838252602082019050602084028301858111156102d2576102d1610266565b5b835b818110156102fb57806102e78882610289565b8452602084019350506020810190506102d4565b5050509392505050565b5f82601f830112610319576103186101af565b5b813561032984826020860161029d565b91505092915050565b5f5f5f5f6080858703121561034a576103496101a7565b5b5f85013567ffffffffffffffff811115610367576103666101ab565b5b61037387828801610305565b945050602061038487828801610289565b935050604061039587828801610289565b92505060606103a687828801610289565b91505092959194509250565b6103bb8161026a565b82525050565b5f6020820190506103d45f8301846103b2565b92915050565b7f4e487b71000000000000000000000000000000000000000000000000000000005f52601160045260245ffd5b5f6104118261026a565b915061041c8361026a565b925082820390508181125f8412168282135f851215161715610441576104406103da565b5b92915050565b7f4e487b71000000000000000000000000000000000000000000000000000000005f52601260045260245ffd5b5f61047e8261026a565b91506104898361026a565b92508261049957610498610447565b5b60015f0383147f8000000000000000000000000000000000000000000000000000000000000000831416156104d1576104d06103da565b5b828205905092915050565b5f6104e68261026a565b91506104f18361026a565b92508282019050828112155f8312168382125f841215161715610517576105166103da565b5b92915050565b7f4e487b71000000000000000000000000000000000000000000000000000000005f52603260045260245ffdfea26469706673582212207c4eeef9678ae952f2df05f9ce93e9e8f4c3fa44c5c2c1ffd7289e166ef08d3464736f6c634300081e0033",
					"opcodes": "PUSH1 0x80 PUSH1 0x40 MSTORE CALLVALUE DUP1 ISZERO PUSH1 0xE JUMPI PUSH0 PUSH0 REVERT JUMPDEST POP PUSH2 0x580 DUP1 PUSH2 0x1C PUSH0 CODECOPY PUSH0 RETURN INVALID PUSH1 0x80 PUSH1 0x40 MSTORE CALLVALUE DUP1 ISZERO PUSH2 0xF JUMPI PUSH0 PUSH0 REVERT JUMPDEST POP PUSH1 0x4 CALLDATASIZE LT PUSH2 0x34 JUMPI PUSH0 CALLDATALOAD PUSH1 0xE0 SHR DUP1 PUSH4 0x19A4E6C EQ PUSH2 0x38 JUMPI DUP1 PUSH4 0x2986C0E5 EQ PUSH2 0x68 JUMPI JUMPDEST PUSH0 PUSH0 REVERT JUMPDEST PUSH2 0x52 PUSH1 0x4 DUP1 CALLDATASIZE SUB DUP2 ADD SWAP1 PUSH2 0x4D SWAP2 SWAP1 PUSH2 0x332 JUMP JUMPDEST PUSH2 0x86 JUMP JUMPDEST PUSH1 0x40 MLOAD PUSH2 0x5F SWAP2 SWAP1 PUSH2 0x3C1 JUMP JUMPDEST PUSH1 0x40 MLOAD DUP1 SWAP2 SUB SWAP1 RETURN JUMPDEST PUSH2 0x70 PUSH2 0x199 JUMP JUMPDEST PUSH1 0x40 MLOAD PUSH2 0x7D SWAP2 SWAP1 PUSH2 0x3C1 JUMP JUMPDEST PUSH1 0x40 MLOAD DUP1 SWAP2 SUB SWAP1 RETURN JUMPDEST PUSH0 DUP3 DUP5 SGT ISZERO PUSH2 0xDD JUMPI PUSH32 0xFFFFFFFFFFFFFFFFFFFFFFFFFFFFFFFFFFFFFFFFFFFFFFFFFFFFFFFFFFFFFFFF PUSH0 DUP2 SWAP1 SSTORE POP PUSH32 0xFFFFFFFFFFFFFFFFFFFFFFFFFFFFFFFFFFFFFFFFFFFFFFFFFFFFFFFFFFFFFFFF SWAP1 POP PUSH2 0x191 JUMP JUMPDEST PUSH0 PUSH1 0x2 DUP6 DUP6 PUSH2 0xEC SWAP2 SWAP1 PUSH2 0x407 JUMP JUMPDEST PUSH2 0xF6 SWAP2 SWAP1 PUSH2 0x474 JUMP JUMPDEST DUP6 PUSH2 0x101 SWAP2 SWAP1 PUSH2 0x4DC JUMP JUMPDEST SWAP1 POP DUP6 DUP2 DUP2 MLOAD DUP2 LT PUSH2 0x116 JUMPI PUSH2 0x115 PUSH2 0x51D JUMP JUMPDEST JUMPDEST PUSH1 0x20 MUL PUSH1 0x20 ADD ADD MLOAD DUP4 SUB PUSH2 0x133 JUMPI DUP1 PUSH0 DUP2 SWAP1 SSTORE POP DUP1 SWAP2 POP POP PUSH2 0x191 JUMP JUMPDEST DUP6 DUP2 DUP2 MLOAD DUP2 LT PUSH2 0x146 JUMPI PUSH2 0x145 PUSH2 0x51D JUMP JUMPDEST JUMPDEST PUSH1 0x20 MUL PUSH1 0x20 ADD ADD MLOAD DUP4 SLT ISZERO PUSH2 0x175 JUMPI PUSH2 0x16D DUP7 DUP7 PUSH1 0x1 DUP5 PUSH2 0x167 SWAP2 SWAP1 PUSH2 0x407 JUMP JUMPDEST DUP7 PUSH2 0x86 JUMP JUMPDEST SWAP2 POP POP PUSH2 0x191 JUMP JUMPDEST PUSH2 0x18D DUP7 PUSH1 0x1 DUP4 PUSH2 0x186 SWAP2 SWAP1 PUSH2 0x4DC JUMP JUMPDEST DUP7 DUP7 PUSH2 0x86 JUMP JUMPDEST SWAP2 POP POP JUMPDEST SWAP5 SWAP4 POP POP POP POP JUMP JUMPDEST PUSH0 SLOAD DUP2 JUMP JUMPDEST PUSH0 PUSH1 0x40 MLOAD SWAP1 POP SWAP1 JUMP JUMPDEST PUSH0 PUSH0 REVERT JUMPDEST PUSH0 PUSH0 REVERT JUMPDEST PUSH0 PUSH0 REVERT JUMPDEST PUSH0 PUSH1 0x1F NOT PUSH1 0x1F DUP4 ADD AND SWAP1 POP SWAP2 SWAP1 POP JUMP JUMPDEST PUSH32 0x4E487B7100000000000000000000000000000000000000000000000000000000 PUSH0 MSTORE PUSH1 0x41 PUSH1 0x4 MSTORE PUSH1 0x24 PUSH0 REVERT JUMPDEST PUSH2 0x1F9 DUP3 PUSH2 0x1B3 JUMP JUMPDEST DUP2 ADD DUP2 DUP2 LT PUSH8 0xFFFFFFFFFFFFFFFF DUP3 GT OR ISZERO PUSH2 0x218 JUMPI PUSH2 0x217 PUSH2 0x1C3 JUMP JUMPDEST JUMPDEST DUP1 PUSH1 0x40 MSTORE POP POP POP JUMP JUMPDEST PUSH0 PUSH2 0x22A PUSH2 0x19E JUMP JUMPDEST SWAP1 POP PUSH2 0x236 DUP3 DUP3 PUSH2 0x1F0 JUMP JUMPDEST SWAP2 SWAP1 POP JUMP JUMPDEST PUSH0 PUSH8 0xFFFFFFFFFFFFFFFF DUP3 GT ISZERO PUSH2 0x255 JUMPI PUSH2 0x254 PUSH2 0x1C3 JUMP JUMPDEST JUMPDEST PUSH1 0x20 DUP3 MUL SWAP1 POP PUSH1 0x20 DUP2 ADD SWAP1 POP SWAP2 SWAP1 POP JUMP JUMPDEST PUSH0 PUSH0 REVERT JUMPDEST PUSH0 DUP2 SWAP1 POP SWAP2 SWAP1 POP JUMP JUMPDEST PUSH2 0x27C DUP2 PUSH2 0x26A JUMP JUMPDEST DUP2 EQ PUSH2 0x286 JUMPI PUSH0 PUSH0 REVERT JUMPDEST POP JUMP JUMPDEST PUSH0 DUP2 CALLDATALOAD SWAP1 POP PUSH2 0x297 DUP2 PUSH2 0x273 JUMP JUMPDEST SWAP3 SWAP2 POP POP JUMP JUMPDEST PUSH0 PUSH2 0x2AF PUSH2 0x2AA DUP5 PUSH2 0x23B JUMP JUMPDEST PUSH2 0x221 JUMP JUMPDEST SWAP1 POP DUP1 DUP4 DUP3 MSTORE PUSH1 0x20 DUP3 ADD SWAP1 POP PUSH1 0x20 DUP5 MUL DUP4 ADD DUP6 DUP2 GT ISZERO PUSH2 0x2D2 JUMPI PUSH2 0x2D1 PUSH2 0x266 JUMP JUMPDEST JUMPDEST DUP4 JUMPDEST DUP2 DUP2 LT ISZERO PUSH2 0x2FB JUMPI DUP1 PUSH2 0x2E7 DUP9 DUP3 PUSH2 0x289 JUMP JUMPDEST DUP5 MSTORE PUSH1 0x20 DUP5 ADD SWAP4 POP POP PUSH1 0x20 DUP2 ADD SWAP1 POP PUSH2 0x2D4 JUMP JUMPDEST POP POP POP SWAP4 SWAP3 POP POP POP JUMP JUMPDEST PUSH0 DUP3 PUSH1 0x1F DUP4 ADD SLT PUSH2 0x319 JUMPI PUSH2 0x318 PUSH2 0x1AF JUMP JUMPDEST JUMPDEST DUP2 CALLDATALOAD PUSH2 0x329 DUP5 DUP3 PUSH1 0x20 DUP7 ADD PUSH2 0x29D JUMP JUMPDEST SWAP2 POP POP SWAP3 SWAP2 POP POP JUMP JUMPDEST PUSH0 PUSH0 PUSH0 PUSH0 PUSH1 0x80 DUP6 DUP8 SUB SLT ISZERO PUSH2 0x34A JUMPI PUSH2 0x349 PUSH2 0x1A7 JUMP JUMPDEST JUMPDEST PUSH0 DUP6 ADD CALLDATALOAD PUSH8 0xFFFFFFFFFFFFFFFF DUP2 GT ISZERO PUSH2 0x367 JUMPI PUSH2 0x366 PUSH2 0x1AB JUMP JUMPDEST JUMPDEST PUSH2 0x373 DUP8 DUP3 DUP9 ADD PUSH2 0x305 JUMP JUMPDEST SWAP5 POP POP PUSH1 0x20 PUSH2 0x384 DUP8 DUP3 DUP9 ADD PUSH2 0x289 JUMP JUMPDEST SWAP4 POP POP PUSH1 0x40 PUSH2 0x395 DUP8 DUP3 DUP9 ADD PUSH2 0x289 JUMP JUMPDEST SWAP3 POP POP PUSH1 0x60 PUSH2 0x3A6 DUP8 DUP3 DUP9 ADD PUSH2 0x289 JUMP JUMPDEST SWAP2 POP POP SWAP3 SWAP6 SWAP2 SWAP5 POP SWAP3 POP JUMP JUMPDEST PUSH2 0x3BB DUP2 PUSH2 0x26A JUMP JUMPDEST DUP3 MSTORE POP POP JUMP JUMPDEST PUSH0 PUSH1 0x20 DUP3 ADD SWAP1 POP PUSH2 0x3D4 PUSH0 DUP4 ADD DUP5 PUSH2 0x3B2 JUMP JUMPDEST SWAP3 SWAP2 POP POP JUMP JUMPDEST PUSH32 0x4E487B7100000000000000000000000000000000000000000000000000000000 PUSH0 MSTORE PUSH1 0x11 PUSH1 0x4 MSTORE PUSH1 0x24 PUSH0 REVERT JUMPDEST PUSH0 PUSH2 0x411 DUP3 PUSH2 0x26A JUMP JUMPDEST SWAP2 POP PUSH2 0x41C DUP4 PUSH2 0x26A JUMP JUMPDEST SWAP3 POP DUP3 DUP3 SUB SWAP1 POP DUP2 DUP2 SLT PUSH0 DUP5 SLT AND DUP3 DUP3 SGT PUSH0 DUP6 SLT ISZERO AND OR ISZERO PUSH2 0x441 JUMPI PUSH2 0x440 PUSH2 0x3DA JUMP JUMPDEST JUMPDEST SWAP3 SWAP2 POP POP JUMP JUMPDEST PUSH32 0x4E487B7100000000000000000000000000000000000000000000000000000000 PUSH0 MSTORE PUSH1 0x12 PUSH1 0x4 MSTORE PUSH1 0x24 PUSH0 REVERT JUMPDEST PUSH0 PUSH2 0x47E DUP3 PUSH2 0x26A JUMP JUMPDEST SWAP2 POP PUSH2 0x489 DUP4 PUSH2 0x26A JUMP JUMPDEST SWAP3 POP DUP3 PUSH2 0x499 JUMPI PUSH2 0x498 PUSH2 0x447 JUMP JUMPDEST JUMPDEST PUSH1 0x1 PUSH0 SUB DUP4 EQ PUSH32 0x8000000000000000000000000000000000000000000000000000000000000000 DUP4 EQ AND ISZERO PUSH2 0x4D1 JUMPI PUSH2 0x4D0 PUSH2 0x3DA JUMP JUMPDEST JUMPDEST DUP3 DUP3 SDIV SWAP1 POP SWAP3 SWAP2 POP POP JUMP JUMPDEST PUSH0 PUSH2 0x4E6 DUP3 PUSH2 0x26A JUMP JUMPDEST SWAP2 POP PUSH2 0x4F1 DUP4 PUSH2 0x26A JUMP JUMPDEST SWAP3 POP DUP3 DUP3 ADD SWAP1 POP DUP3 DUP2 SLT ISZERO PUSH0 DUP4 SLT AND DUP4 DUP3 SLT PUSH0 DUP5 SLT ISZERO AND OR ISZERO PUSH2 0x517 JUMPI PUSH2 0x516 PUSH2 0x3DA JUMP JUMPDEST JUMPDEST SWAP3 SWAP2 POP POP JUMP JUMPDEST PUSH32 0x4E487B7100000000000000000000000000000000000000000000000000000000 PUSH0 MSTORE PUSH1 0x32 PUSH1 0x4 MSTORE PUSH1 0x24 PUSH0 REVERT INVALID LOG2 PUSH5 0x6970667358 0x22 SLT KECCAK256 PUSH29 0x4EEEF9678AE952F2DF05F9CE93E9E8F4C3FA44C5C2C1FFD7289E166EF0 DUP14 CALLVALUE PUSH5 0x736F6C6343 STOP ADDMOD 0x1E STOP CALLER "
				},
				"gasEstimates": {
					"creation": {
						"codeDepositCost": "281600",
						"executionCost": "316",
						"totalCost": "281916"
					},
					"external": {
						"binarySearch(int256[],int256,int256,int256)": "infinite",
						"index()": "2424"
					}
				},
				"methodIdentifiers": {
					"binarySearch(int256[],int256,int256,int256)": "019a4e6c",
					"index()": "2986c0e5"
				}
			},
			"storageLayout": {
				"storage": [
					{
						"astId": 3,
						"contract": "task/task01/6.BinarySearch.sol:BinarySearch",
						"label": "index",
						"offset": 0,
						"slot": "0",
						"type": "t_int256"
					}
				],
				"types": {
					"t_int256": {
						"encoding": "inplace",
						"label": "int256",
						"numberOfBytes": "32"
					}
				}
			},
			"userdoc": {
				"kind": "user",
				"methods": {},
				"version": 1
			}
		}
	}
}