{
	"task/task02/task2.1/ERC20.sol": {
		"ERC20": {
			"abi": [
				{
					"inputs": [
						{
							"internalType": "string",
							"name": "name_",
							"type": "string"
						},
						{
							"internalType": "string",
							"name": "symbol_",
							"type": "string"
						}
					],
					"stateMutability": "nonpayable",
					"type": "constructor"
				},
				{
					"anonymous": false,
					"inputs": [
						{
							"indexed": true,
							"internalType": "address",
							"name": "owner",
							"type": "address"
						},
						{
							"indexed": true,
							"internalType": "address",
							"name": "spender",
							"type": "address"
						},
						{
							"indexed": false,
							"internalType": "uint256",
							"name": "value",
							"type": "uint256"
						}
					],
					"name": "Approval",
					"type": "event"
				},
				{
					"anonymous": false,
					"inputs": [
						{
							"indexed": true,
							"internalType": "address",
							"name": "from",
							"type": "address"
						},
						{
							"indexed": true,
							"internalType": "address",
							"name": "to",
							"type": "address"
						},
						{
							"indexed": false,
							"internalType": "uint256",
							"name": "value",
							"type": "uint256"
						}
					],
					"name": "Transfer",
					"type": "event"
				},
				{
					"inputs": [
						{
							"internalType": "address",
							"name": "",
							"type": "address"
						},
						{
							"internalType": "address",
							"name": "",
							"type": "address"
						}
					],
					"name": "allowance",
					"outputs": [
						{
							"internalType": "uint256",
							"name": "",
							"type": "uint256"
						}
					],
					"stateMutability": "view",
					"type": "function"
				},
				{
					"inputs": [
						{
							"internalType": "address",
							"name": "spender",
							"type": "address"
						},
						{
							"internalType": "uint256",
							"name": "amount",
							"type": "uint256"
						}
					],
					"name": "approve",
					"outputs": [
						{
							"internalType": "bool",
							"name": "",
							"type": "bool"
						}
					],
					"stateMutability": "nonpayable",
					"type": "function"
				},
				{
					"inputs": [
						{
							"internalType": "address",
							"name": "account",
							"type": "address"
						}
					],
					"name": "balanceOf",
					"outputs": [
						{
							"internalType": "uint256",
							"name": "",
							"type": "uint256"
						}
					],
					"stateMutability": "view",
					"type": "function"
				},
				{
					"inputs": [
						{
							"internalType": "address",
							"name": "",
							"type": "address"
						}
					],
					"name": "balances",
					"outputs": [
						{
							"internalType": "uint256",
							"name": "",
							"type": "uint256"
						}
					],
					"stateMutability": "view",
					"type": "function"
				},
				{
					"inputs": [
						{
							"internalType": "uint256",
							"name": "amount",
							"type": "uint256"
						}
					],
					"name": "burn",
					"outputs": [],
					"stateMutability": "nonpayable",
					"type": "function"
				},
				{
					"inputs": [],
					"name": "decimals",
					"outputs": [
						{
							"internalType": "uint8",
							"name": "",
							"type": "uint8"
						}
					],
					"stateMutability": "view",
					"type": "function"
				},
				{
					"inputs": [
						{
							"internalType": "uint256",
							"name": "amount",
							"type": "uint256"
						}
					],
					"name": "mint",
					"outputs": [],
					"stateMutability": "nonpayable",
					"type": "function"
				},
				{
					"inputs": [],
					"name": "name",
					"outputs": [
						{
							"internalType": "string",
							"name": "",
							"type": "string"
						}
					],
					"stateMutability": "view",
					"type": "function"
				},
				{
					"inputs": [],
					"name": "symbol",
					"outputs": [
						{
							"internalType": "string",
							"name": "",
							"type": "string"
						}
					],
					"stateMutability": "view",
					"type": "function"
				},
				{
					"inputs": [],
					"name": "totalSupply",
					"outputs": [
						{
							"internalType": "uint256",
							"name": "",
							"type": "uint256"
						}
					],
					"stateMutability": "view",
					"type": "function"
				},
				{
					"inputs": [
						{
							"internalType": "address",
							"name": "to",
							"type": "address"
						},
						{
							"internalType": "uint256",
							"name": "value",
							"type": "uint256"
						}
					],
					"name": "transfer",
					"outputs": [
						{
							"internalType": "bool",
							"name": "",
							"type": "bool"
						}
					],
					"stateMutability": "nonpayable",
					"type": "function"
				},
				{
					"inputs": [
						{
							"internalType": "address",
							"name": "from",
							"type": "address"
						},
						{
							"internalType": "address",
							"name": "to",
							"type": "address"
						},
						{
							"internalType": "uint256",
							"name": "value",
							"type": "uint256"
						}
					],
					"name": "transferFrom",
					"outputs": [
						{
							"internalType": "bool",
							"name": "",
							"type": "bool"
						}
					],
					"stateMutability": "nonpayable",
					"type": "function"
				}
			],
			"devdoc": {
				"events": {
					"Approval(address,address,uint256)": {
						"details": "释放条件：当 `value` 单位的货币从账户 (`owner`) 授权给另一账户 (`spender`)时."
					},
					"Transfer(address,address,uint256)": {
						"details": "释放条件：当 `value` 单位的货币从账户 (`from`) 转账到另一账户 (`to`)时."
					}
				},
				"kind": "dev",
				"methods": {
					"approve(address,uint256)": {
						"details": "调用者账户给`spender`账户授权 `amount`数量代币。 如果成功，返回 `true`. 释放 {Approval} 事件."
					},
					"balanceOf(address)": {
						"details": "返回账户`account`所持有的代币数."
					},
					"transfer(address,uint256)": {
						"details": "转账 `amount` 单位代币，从调用者账户到另一账户 `to`. 如果成功，返回 `true`. 释放 {Transfer} 事件."
					},
					"transferFrom(address,address,uint256)": {
						"details": "通过授权机制，从`from`账户向`to`账户转账`amount`数量代币。转账的部分会从调用者的`allowance`中扣除。 如果成功，返回 `true`. 释放 {Transfer} 事件."
					}
				},
				"stateVariables": {
					"allowance": {
						"details": "返回`owner`账户授权给`spender`账户的额度，默认为0。 当{approve} 或 {transferFrom} 被调用时，`allowance`会改变."
					},
					"totalSupply": {
						"details": "返回代币总供给."
					}
				},
				"version": 1
			},
			"evm": {
				"assembly": "    /* \"task/task02/task2.1/ERC20.sol\":79:1900  contract ERC20 is IERC20 {... */\n  mstore(0x40, 0x80)\n    /* \"task/task02/task2.1/ERC20.sol\":250:252  18 */\n  0x12\n    /* \"task/task02/task2.1/ERC20.sol\":226:252  uint8 public decimals = 18 */\n  0x03\n  exp(0x0100, 0x00)\n  dup2\n  sload\n  dup2\n  0xff\n  mul\n  not\n  and\n  swap1\n  dup4\n  0xff\n  and\n  mul\n  or\n  swap1\n  sstore\n  pop\n    /* \"task/task02/task2.1/ERC20.sol\":397:508  constructor(string memory name_, string memory symbol_) {... */\n  callvalue\n  dup1\n  iszero\n  tag_1\n  jumpi\n  revert(0x00, 0x00)\ntag_1:\n  pop\n  mload(0x40)\n  sub(codesize, bytecodeSize)\n  dup1\n  bytecodeSize\n  dup4\n  codecopy\n  dup2\n  dup2\n  add\n  0x40\n  mstore\n  dup2\n  add\n  swap1\n  tag_2\n  swap2\n  swap1\n  tag_3\n  jump\t// in\ntag_2:\n    /* \"task/task02/task2.1/ERC20.sol\":470:475  name_ */\n  dup2\n    /* \"task/task02/task2.1/ERC20.sol\":463:467  name */\n  0x01\n    /* \"task/task02/task2.1/ERC20.sol\":463:475  name = name_ */\n  swap1\n  dup2\n  tag_6\n  swap2\n  swap1\n  tag_7\n  jump\t// in\ntag_6:\n  pop\n    /* \"task/task02/task2.1/ERC20.sol\":494:501  symbol_ */\n  dup1\n    /* \"task/task02/task2.1/ERC20.sol\":485:491  symbol */\n  0x02\n    /* \"task/task02/task2.1/ERC20.sol\":485:501  symbol = symbol_ */\n  swap1\n  dup2\n  tag_8\n  swap2\n  swap1\n  tag_7\n  jump\t// in\ntag_8:\n  pop\n    /* \"task/task02/task2.1/ERC20.sol\":397:508  constructor(string memory name_, string memory symbol_) {... */\n  pop\n  pop\n    /* \"task/task02/task2.1/ERC20.sol\":79:1900  contract ERC20 is IERC20 {... */\n  jump(tag_9)\n    /* \"#utility.yul\":7:82   */\ntag_10:\n    /* \"#utility.yul\":40:46   */\n  0x00\n    /* \"#utility.yul\":73:75   */\n  0x40\n    /* \"#utility.yul\":67:76   */\n  mload\n    /* \"#utility.yul\":57:76   */\n  swap1\n  pop\n    /* \"#utility.yul\":7:82   */\n  swap1\n  jump\t// out\n    /* \"#utility.yul\":88:205   */\ntag_11:\n    /* \"#utility.yul\":197:198   */\n  0x00\n    /* \"#utility.yul\":194:195   */\n  0x00\n    /* \"#utility.yul\":187:199   */\n  revert\n    /* \"#utility.yul\":211:328   */\ntag_12:\n    /* \"#utility.yul\":320:321   */\n  0x00\n    /* \"#utility.yul\":317:318   */\n  0x00\n    /* \"#utility.yul\":310:322   */\n  revert\n    /* \"#utility.yul\":334:451   */\ntag_13:\n    /* \"#utility.yul\":443:444   */\n  0x00\n    /* \"#utility.yul\":440:441   */\n  0x00\n    /* \"#utility.yul\":433:445   */\n  revert\n    /* \"#utility.yul\":457:574   */\ntag_14:\n    /* \"#utility.yul\":566:567   */\n  0x00\n    /* \"#utility.yul\":563:564   */\n  0x00\n    /* \"#utility.yul\":556:568   */\n  revert\n    /* \"#utility.yul\":580:682   */\ntag_15:\n    /* \"#utility.yul\":621:627   */\n  0x00\n    /* \"#utility.yul\":672:674   */\n  0x1f\n    /* \"#utility.yul\":668:675   */\n  not\n    /* \"#utility.yul\":663:665   */\n  0x1f\n    /* \"#utility.yul\":656:661   */\n  dup4\n    /* \"#utility.yul\":652:666   */\n  add\n    /* \"#utility.yul\":648:676   */\n  and\n    /* \"#utility.yul\":638:676   */\n  swap1\n  pop\n    /* \"#utility.yul\":580:682   */\n  swap2\n  swap1\n  pop\n  jump\t// out\n    /* \"#utility.yul\":688:868   */\ntag_16:\n    /* \"#utility.yul\":736:813   */\n  0x4e487b7100000000000000000000000000000000000000000000000000000000\n    /* \"#utility.yul\":733:734   */\n  0x00\n    /* \"#utility.yul\":726:814   */\n  mstore\n    /* \"#utility.yul\":833:837   */\n  0x41\n    /* \"#utility.yul\":830:831   */\n  0x04\n    /* \"#utility.yul\":823:838   */\n  mstore\n    /* \"#utility.yul\":857:861   */\n  0x24\n    /* \"#utility.yul\":854:855   */\n  0x00\n    /* \"#utility.yul\":847:862   */\n  revert\n    /* \"#utility.yul\":874:1155   */\ntag_17:\n    /* \"#utility.yul\":957:984   */\n  tag_51\n    /* \"#utility.yul\":979:983   */\n  dup3\n    /* \"#utility.yul\":957:984   */\n  tag_15\n  jump\t// in\ntag_51:\n    /* \"#utility.yul\":949:955   */\n  dup2\n    /* \"#utility.yul\":945:985   */\n  add\n    /* \"#utility.yul\":1087:1093   */\n  dup2\n    /* \"#utility.yul\":1075:1085   */\n  dup2\n    /* \"#utility.yul\":1072:1094   */\n  lt\n    /* \"#utility.yul\":1051:1069   */\n  0xffffffffffffffff\n    /* \"#utility.yul\":1039:1049   */\n  dup3\n    /* \"#utility.yul\":1036:1070   */\n  gt\n    /* \"#utility.yul\":1033:1095   */\n  or\n    /* \"#utility.yul\":1030:1118   */\n  iszero\n  tag_52\n  jumpi\n    /* \"#utility.yul\":1098:1116   */\n  tag_53\n  tag_16\n  jump\t// in\ntag_53:\n    /* \"#utility.yul\":1030:1118   */\ntag_52:\n    /* \"#utility.yul\":1138:1148   */\n  dup1\n    /* \"#utility.yul\":1134:1136   */\n  0x40\n    /* \"#utility.yul\":1127:1149   */\n  mstore\n    /* \"#utility.yul\":917:1155   */\n  pop\n    /* \"#utility.yul\":874:1155   */\n  pop\n  pop\n  jump\t// out\n    /* \"#utility.yul\":1161:1290   */\ntag_18:\n    /* \"#utility.yul\":1195:1201   */\n  0x00\n    /* \"#utility.yul\":1222:1242   */\n  tag_55\n  tag_10\n  jump\t// in\ntag_55:\n    /* \"#utility.yul\":1212:1242   */\n  swap1\n  pop\n    /* \"#utility.yul\":1251:1284   */\n  tag_56\n    /* \"#utility.yul\":1279:1283   */\n  dup3\n    /* \"#utility.yul\":1271:1277   */\n  dup3\n    /* \"#utility.yul\":1251:1284   */\n  tag_17\n  jump\t// in\ntag_56:\n    /* \"#utility.yul\":1161:1290   */\n  swap2\n  swap1\n  pop\n  jump\t// out\n    /* \"#utility.yul\":1296:1604   */\ntag_19:\n    /* \"#utility.yul\":1358:1362   */\n  0x00\n    /* \"#utility.yul\":1448:1466   */\n  0xffffffffffffffff\n    /* \"#utility.yul\":1440:1446   */\n  dup3\n    /* \"#utility.yul\":1437:1467   */\n  gt\n    /* \"#utility.yul\":1434:1490   */\n  iszero\n  tag_58\n  jumpi\n    /* \"#utility.yul\":1470:1488   */\n  tag_59\n  tag_16\n  jump\t// in\ntag_59:\n    /* \"#utility.yul\":1434:1490   */\ntag_58:\n    /* \"#utility.yul\":1508:1537   */\n  tag_60\n    /* \"#utility.yul\":1530:1536   */\n  dup3\n    /* \"#utility.yul\":1508:1537   */\n  tag_15\n  jump\t// in\ntag_60:\n    /* \"#utility.yul\":1500:1537   */\n  swap1\n  pop\n    /* \"#utility.yul\":1592:1596   */\n  0x20\n    /* \"#utility.yul\":1586:1590   */\n  dup2\n    /* \"#utility.yul\":1582:1597   */\n  add\n    /* \"#utility.yul\":1574:1597   */\n  swap1\n  pop\n    /* \"#utility.yul\":1296:1604   */\n  swap2\n  swap1\n  pop\n  jump\t// out\n    /* \"#utility.yul\":1610:1749   */\ntag_20:\n    /* \"#utility.yul\":1699:1705   */\n  dup3\n    /* \"#utility.yul\":1694:1697   */\n  dup2\n    /* \"#utility.yul\":1689:1692   */\n  dup4\n    /* \"#utility.yul\":1683:1706   */\n  mcopy\n    /* \"#utility.yul\":1740:1741   */\n  0x00\n    /* \"#utility.yul\":1731:1737   */\n  dup4\n    /* \"#utility.yul\":1726:1729   */\n  dup4\n    /* \"#utility.yul\":1722:1738   */\n  add\n    /* \"#utility.yul\":1715:1742   */\n  mstore\n    /* \"#utility.yul\":1610:1749   */\n  pop\n  pop\n  pop\n  jump\t// out\n    /* \"#utility.yul\":1755:2189   */\ntag_21:\n    /* \"#utility.yul\":1844:1849   */\n  0x00\n    /* \"#utility.yul\":1869:1935   */\n  tag_63\n    /* \"#utility.yul\":1885:1934   */\n  tag_64\n    /* \"#utility.yul\":1927:1933   */\n  dup5\n    /* \"#utility.yul\":1885:1934   */\n  tag_19\n  jump\t// in\ntag_64:\n    /* \"#utility.yul\":1869:1935   */\n  tag_18\n  jump\t// in\ntag_63:\n    /* \"#utility.yul\":1860:1935   */\n  swap1\n  pop\n    /* \"#utility.yul\":1958:1964   */\n  dup3\n    /* \"#utility.yul\":1951:1956   */\n  dup2\n    /* \"#utility.yul\":1944:1965   */\n  mstore\n    /* \"#utility.yul\":1996:2000   */\n  0x20\n    /* \"#utility.yul\":1989:1994   */\n  dup2\n    /* \"#utility.yul\":1985:2001   */\n  add\n    /* \"#utility.yul\":2034:2037   */\n  dup5\n    /* \"#utility.yul\":2025:2031   */\n  dup5\n    /* \"#utility.yul\":2020:2023   */\n  dup5\n    /* \"#utility.yul\":2016:2032   */\n  add\n    /* \"#utility.yul\":2013:2038   */\n  gt\n    /* \"#utility.yul\":2010:2122   */\n  iszero\n  tag_65\n  jumpi\n    /* \"#utility.yul\":2041:2120   */\n  tag_66\n  tag_14\n  jump\t// in\ntag_66:\n    /* \"#utility.yul\":2010:2122   */\ntag_65:\n    /* \"#utility.yul\":2131:2183   */\n  tag_67\n    /* \"#utility.yul\":2176:2182   */\n  dup5\n    /* \"#utility.yul\":2171:2174   */\n  dup3\n    /* \"#utility.yul\":2166:2169   */\n  dup6\n    /* \"#utility.yul\":2131:2183   */\n  tag_20\n  jump\t// in\ntag_67:\n    /* \"#utility.yul\":1850:2189   */\n  pop\n    /* \"#utility.yul\":1755:2189   */\n  swap4\n  swap3\n  pop\n  pop\n  pop\n  jump\t// out\n    /* \"#utility.yul\":2209:2564   */\ntag_22:\n    /* \"#utility.yul\":2276:2281   */\n  0x00\n    /* \"#utility.yul\":2325:2328   */\n  dup3\n    /* \"#utility.yul\":2318:2322   */\n  0x1f\n    /* \"#utility.yul\":2310:2316   */\n  dup4\n    /* \"#utility.yul\":2306:2323   */\n  add\n    /* \"#utility.yul\":2302:2329   */\n  slt\n    /* \"#utility.yul\":2292:2414   */\n  tag_69\n  jumpi\n    /* \"#utility.yul\":2333:2412   */\n  tag_70\n  tag_13\n  jump\t// in\ntag_70:\n    /* \"#utility.yul\":2292:2414   */\ntag_69:\n    /* \"#utility.yul\":2443:2449   */\n  dup2\n    /* \"#utility.yul\":2437:2450   */\n  mload\n    /* \"#utility.yul\":2468:2558   */\n  tag_71\n    /* \"#utility.yul\":2554:2557   */\n  dup5\n    /* \"#utility.yul\":2546:2552   */\n  dup3\n    /* \"#utility.yul\":2539:2543   */\n  0x20\n    /* \"#utility.yul\":2531:2537   */\n  dup7\n    /* \"#utility.yul\":2527:2544   */\n  add\n    /* \"#utility.yul\":2468:2558   */\n  tag_21\n  jump\t// in\ntag_71:\n    /* \"#utility.yul\":2459:2558   */\n  swap2\n  pop\n    /* \"#utility.yul\":2282:2564   */\n  pop\n    /* \"#utility.yul\":2209:2564   */\n  swap3\n  swap2\n  pop\n  pop\n  jump\t// out\n    /* \"#utility.yul\":2570:3423   */\ntag_3:\n    /* \"#utility.yul\":2669:2675   */\n  0x00\n    /* \"#utility.yul\":2677:2683   */\n  0x00\n    /* \"#utility.yul\":2726:2728   */\n  0x40\n    /* \"#utility.yul\":2714:2723   */\n  dup4\n    /* \"#utility.yul\":2705:2712   */\n  dup6\n    /* \"#utility.yul\":2701:2724   */\n  sub\n    /* \"#utility.yul\":2697:2729   */\n  slt\n    /* \"#utility.yul\":2694:2813   */\n  iszero\n  tag_73\n  jumpi\n    /* \"#utility.yul\":2732:2811   */\n  tag_74\n  tag_11\n  jump\t// in\ntag_74:\n    /* \"#utility.yul\":2694:2813   */\ntag_73:\n    /* \"#utility.yul\":2873:2874   */\n  0x00\n    /* \"#utility.yul\":2862:2871   */\n  dup4\n    /* \"#utility.yul\":2858:2875   */\n  add\n    /* \"#utility.yul\":2852:2876   */\n  mload\n    /* \"#utility.yul\":2903:2921   */\n  0xffffffffffffffff\n    /* \"#utility.yul\":2895:2901   */\n  dup2\n    /* \"#utility.yul\":2892:2922   */\n  gt\n    /* \"#utility.yul\":2889:3006   */\n  iszero\n  tag_75\n  jumpi\n    /* \"#utility.yul\":2925:3004   */\n  tag_76\n  tag_12\n  jump\t// in\ntag_76:\n    /* \"#utility.yul\":2889:3006   */\ntag_75:\n    /* \"#utility.yul\":3030:3104   */\n  tag_77\n    /* \"#utility.yul\":3096:3103   */\n  dup6\n    /* \"#utility.yul\":3087:3093   */\n  dup3\n    /* \"#utility.yul\":3076:3085   */\n  dup7\n    /* \"#utility.yul\":3072:3094   */\n  add\n    /* \"#utility.yul\":3030:3104   */\n  tag_22\n  jump\t// in\ntag_77:\n    /* \"#utility.yul\":3020:3104   */\n  swap3\n  pop\n    /* \"#utility.yul\":2823:3114   */\n  pop\n    /* \"#utility.yul\":3174:3176   */\n  0x20\n    /* \"#utility.yul\":3163:3172   */\n  dup4\n    /* \"#utility.yul\":3159:3177   */\n  add\n    /* \"#utility.yul\":3153:3178   */\n  mload\n    /* \"#utility.yul\":3205:3223   */\n  0xffffffffffffffff\n    /* \"#utility.yul\":3197:3203   */\n  dup2\n    /* \"#utility.yul\":3194:3224   */\n  gt\n    /* \"#utility.yul\":3191:3308   */\n  iszero\n  tag_78\n  jumpi\n    /* \"#utility.yul\":3227:3306   */\n  tag_79\n  tag_12\n  jump\t// in\ntag_79:\n    /* \"#utility.yul\":3191:3308   */\ntag_78:\n    /* \"#utility.yul\":3332:3406   */\n  tag_80\n    /* \"#utility.yul\":3398:3405   */\n  dup6\n    /* \"#utility.yul\":3389:3395   */\n  dup3\n    /* \"#utility.yul\":3378:3387   */\n  dup7\n    /* \"#utility.yul\":3374:3396   */\n  add\n    /* \"#utility.yul\":3332:3406   */\n  tag_22\n  jump\t// in\ntag_80:\n    /* \"#utility.yul\":3322:3406   */\n  swap2\n  pop\n    /* \"#utility.yul\":3124:3416   */\n  pop\n    /* \"#utility.yul\":2570:3423   */\n  swap3\n  pop\n  swap3\n  swap1\n  pop\n  jump\t// out\n    /* \"#utility.yul\":3429:3528   */\ntag_23:\n    /* \"#utility.yul\":3481:3487   */\n  0x00\n    /* \"#utility.yul\":3515:3520   */\n  dup2\n    /* \"#utility.yul\":3509:3521   */\n  mload\n    /* \"#utility.yul\":3499:3521   */\n  swap1\n  pop\n    /* \"#utility.yul\":3429:3528   */\n  swap2\n  swap1\n  pop\n  jump\t// out\n    /* \"#utility.yul\":3534:3714   */\ntag_24:\n    /* \"#utility.yul\":3582:3659   */\n  0x4e487b7100000000000000000000000000000000000000000000000000000000\n    /* \"#utility.yul\":3579:3580   */\n  0x00\n    /* \"#utility.yul\":3572:3660   */\n  mstore\n    /* \"#utility.yul\":3679:3683   */\n  0x22\n    /* \"#utility.yul\":3676:3677   */\n  0x04\n    /* \"#utility.yul\":3669:3684   */\n  mstore\n    /* \"#utility.yul\":3703:3707   */\n  0x24\n    /* \"#utility.yul\":3700:3701   */\n  0x00\n    /* \"#utility.yul\":3693:3708   */\n  revert\n    /* \"#utility.yul\":3720:4040   */\ntag_25:\n    /* \"#utility.yul\":3764:3770   */\n  0x00\n    /* \"#utility.yul\":3801:3802   */\n  0x02\n    /* \"#utility.yul\":3795:3799   */\n  dup3\n    /* \"#utility.yul\":3791:3803   */\n  div\n    /* \"#utility.yul\":3781:3803   */\n  swap1\n  pop\n    /* \"#utility.yul\":3848:3849   */\n  0x01\n    /* \"#utility.yul\":3842:3846   */\n  dup3\n    /* \"#utility.yul\":3838:3850   */\n  and\n    /* \"#utility.yul\":3869:3887   */\n  dup1\n    /* \"#utility.yul\":3859:3940   */\n  tag_84\n  jumpi\n    /* \"#utility.yul\":3925:3929   */\n  0x7f\n    /* \"#utility.yul\":3917:3923   */\n  dup3\n    /* \"#utility.yul\":3913:3930   */\n  and\n    /* \"#utility.yul\":3903:3930   */\n  swap2\n  pop\n    /* \"#utility.yul\":3859:3940   */\ntag_84:\n    /* \"#utility.yul\":3987:3989   */\n  0x20\n    /* \"#utility.yul\":3979:3985   */\n  dup3\n    /* \"#utility.yul\":3976:3990   */\n  lt\n    /* \"#utility.yul\":3956:3974   */\n  dup2\n    /* \"#utility.yul\":3953:3991   */\n  sub\n    /* \"#utility.yul\":3950:4034   */\n  tag_85\n  jumpi\n    /* \"#utility.yul\":4006:4024   */\n  tag_86\n  tag_24\n  jump\t// in\ntag_86:\n    /* \"#utility.yul\":3950:4034   */\ntag_85:\n    /* \"#utility.yul\":3771:4040   */\n  pop\n    /* \"#utility.yul\":3720:4040   */\n  swap2\n  swap1\n  pop\n  jump\t// out\n    /* \"#utility.yul\":4046:4187   */\ntag_26:\n    /* \"#utility.yul\":4095:4099   */\n  0x00\n    /* \"#utility.yul\":4118:4121   */\n  dup2\n    /* \"#utility.yul\":4110:4121   */\n  swap1\n  pop\n    /* \"#utility.yul\":4141:4144   */\n  dup2\n    /* \"#utility.yul\":4138:4139   */\n  0x00\n    /* \"#utility.yul\":4131:4145   */\n  mstore\n    /* \"#utility.yul\":4175:4179   */\n  0x20\n    /* \"#utility.yul\":4172:4173   */\n  0x00\n    /* \"#utility.yul\":4162:4180   */\n  keccak256\n    /* \"#utility.yul\":4154:4180   */\n  swap1\n  pop\n    /* \"#utility.yul\":4046:4187   */\n  swap2\n  swap1\n  pop\n  jump\t// out\n    /* \"#utility.yul\":4193:4286   */\ntag_27:\n    /* \"#utility.yul\":4230:4236   */\n  0x00\n    /* \"#utility.yul\":4277:4279   */\n  0x20\n    /* \"#utility.yul\":4272:4274   */\n  0x1f\n    /* \"#utility.yul\":4265:4270   */\n  dup4\n    /* \"#utility.yul\":4261:4275   */\n  add\n    /* \"#utility.yul\":4257:4280   */\n  div\n    /* \"#utility.yul\":4247:4280   */\n  swap1\n  pop\n    /* \"#utility.yul\":4193:4286   */\n  swap2\n  swap1\n  pop\n  jump\t// out\n    /* \"#utility.yul\":4292:4399   */\ntag_28:\n    /* \"#utility.yul\":4336:4344   */\n  0x00\n    /* \"#utility.yul\":4386:4391   */\n  dup3\n    /* \"#utility.yul\":4380:4384   */\n  dup3\n    /* \"#utility.yul\":4376:4392   */\n  shl\n    /* \"#utility.yul\":4355:4392   */\n  swap1\n  pop\n    /* \"#utility.yul\":4292:4399   */\n  swap3\n  swap2\n  pop\n  pop\n  jump\t// out\n    /* \"#utility.yul\":4405:4798   */\ntag_29:\n    /* \"#utility.yul\":4474:4480   */\n  0x00\n    /* \"#utility.yul\":4524:4525   */\n  0x08\n    /* \"#utility.yul\":4512:4522   */\n  dup4\n    /* \"#utility.yul\":4508:4526   */\n  mul\n    /* \"#utility.yul\":4547:4644   */\n  tag_91\n    /* \"#utility.yul\":4577:4643   */\n  0xffffffffffffffffffffffffffffffffffffffffffffffffffffffffffffffff\n    /* \"#utility.yul\":4566:4575   */\n  dup3\n    /* \"#utility.yul\":4547:4644   */\n  tag_28\n  jump\t// in\ntag_91:\n    /* \"#utility.yul\":4665:4704   */\n  tag_92\n    /* \"#utility.yul\":4695:4703   */\n  dup7\n    /* \"#utility.yul\":4684:4693   */\n  dup4\n    /* \"#utility.yul\":4665:4704   */\n  tag_28\n  jump\t// in\ntag_92:\n    /* \"#utility.yul\":4653:4704   */\n  swap6\n  pop\n    /* \"#utility.yul\":4737:4741   */\n  dup1\n    /* \"#utility.yul\":4733:4742   */\n  not\n    /* \"#utility.yul\":4726:4731   */\n  dup5\n    /* \"#utility.yul\":4722:4743   */\n  and\n    /* \"#utility.yul\":4713:4743   */\n  swap4\n  pop\n    /* \"#utility.yul\":4786:4790   */\n  dup1\n    /* \"#utility.yul\":4776:4784   */\n  dup7\n    /* \"#utility.yul\":4772:4791   */\n  and\n    /* \"#utility.yul\":4765:4770   */\n  dup5\n    /* \"#utility.yul\":4762:4792   */\n  or\n    /* \"#utility.yul\":4752:4792   */\n  swap3\n  pop\n    /* \"#utility.yul\":4481:4798   */\n  pop\n  pop\n    /* \"#utility.yul\":4405:4798   */\n  swap4\n  swap3\n  pop\n  pop\n  pop\n  jump\t// out\n    /* \"#utility.yul\":4804:4881   */\ntag_30:\n    /* \"#utility.yul\":4841:4848   */\n  0x00\n    /* \"#utility.yul\":4870:4875   */\n  dup2\n    /* \"#utility.yul\":4859:4875   */\n  swap1\n  pop\n    /* \"#utility.yul\":4804:4881   */\n  swap2\n  swap1\n  pop\n  jump\t// out\n    /* \"#utility.yul\":4887:4947   */\ntag_31:\n    /* \"#utility.yul\":4915:4918   */\n  0x00\n    /* \"#utility.yul\":4936:4941   */\n  dup2\n    /* \"#utility.yul\":4929:4941   */\n  swap1\n  pop\n    /* \"#utility.yul\":4887:4947   */\n  swap2\n  swap1\n  pop\n  jump\t// out\n    /* \"#utility.yul\":4953:5095   */\ntag_32:\n    /* \"#utility.yul\":5003:5012   */\n  0x00\n    /* \"#utility.yul\":5036:5089   */\n  tag_96\n    /* \"#utility.yul\":5054:5088   */\n  tag_97\n    /* \"#utility.yul\":5063:5087   */\n  tag_98\n    /* \"#utility.yul\":5081:5086   */\n  dup5\n    /* \"#utility.yul\":5063:5087   */\n  tag_30\n  jump\t// in\ntag_98:\n    /* \"#utility.yul\":5054:5088   */\n  tag_31\n  jump\t// in\ntag_97:\n    /* \"#utility.yul\":5036:5089   */\n  tag_30\n  jump\t// in\ntag_96:\n    /* \"#utility.yul\":5023:5089   */\n  swap1\n  pop\n    /* \"#utility.yul\":4953:5095   */\n  swap2\n  swap1\n  pop\n  jump\t// out\n    /* \"#utility.yul\":5101:5176   */\ntag_33:\n    /* \"#utility.yul\":5144:5147   */\n  0x00\n    /* \"#utility.yul\":5165:5170   */\n  dup2\n    /* \"#utility.yul\":5158:5170   */\n  swap1\n  pop\n    /* \"#utility.yul\":5101:5176   */\n  swap2\n  swap1\n  pop\n  jump\t// out\n    /* \"#utility.yul\":5182:5451   */\ntag_34:\n    /* \"#utility.yul\":5292:5331   */\n  tag_101\n    /* \"#utility.yul\":5323:5330   */\n  dup4\n    /* \"#utility.yul\":5292:5331   */\n  tag_32\n  jump\t// in\ntag_101:\n    /* \"#utility.yul\":5353:5444   */\n  tag_102\n    /* \"#utility.yul\":5402:5443   */\n  tag_103\n    /* \"#utility.yul\":5426:5442   */\n  dup3\n    /* \"#utility.yul\":5402:5443   */\n  tag_33\n  jump\t// in\ntag_103:\n    /* \"#utility.yul\":5394:5400   */\n  dup5\n    /* \"#utility.yul\":5387:5391   */\n  dup5\n    /* \"#utility.yul\":5381:5392   */\n  sload\n    /* \"#utility.yul\":5353:5444   */\n  tag_29\n  jump\t// in\ntag_102:\n    /* \"#utility.yul\":5347:5351   */\n  dup3\n    /* \"#utility.yul\":5340:5445   */\n  sstore\n    /* \"#utility.yul\":5258:5451   */\n  pop\n    /* \"#utility.yul\":5182:5451   */\n  pop\n  pop\n  pop\n  jump\t// out\n    /* \"#utility.yul\":5457:5530   */\ntag_35:\n    /* \"#utility.yul\":5502:5505   */\n  0x00\n    /* \"#utility.yul\":5523:5524   */\n  0x00\n    /* \"#utility.yul\":5516:5524   */\n  swap1\n  pop\n    /* \"#utility.yul\":5457:5530   */\n  swap1\n  jump\t// out\n    /* \"#utility.yul\":5536:5725   */\ntag_36:\n    /* \"#utility.yul\":5613:5645   */\n  tag_106\n  tag_35\n  jump\t// in\ntag_106:\n    /* \"#utility.yul\":5654:5719   */\n  tag_107\n    /* \"#utility.yul\":5712:5718   */\n  dup2\n    /* \"#utility.yul\":5704:5710   */\n  dup5\n    /* \"#utility.yul\":5698:5702   */\n  dup5\n    /* \"#utility.yul\":5654:5719   */\n  tag_34\n  jump\t// in\ntag_107:\n    /* \"#utility.yul\":5589:5725   */\n  pop\n    /* \"#utility.yul\":5536:5725   */\n  pop\n  pop\n  jump\t// out\n    /* \"#utility.yul\":5731:5917   */\ntag_37:\n    /* \"#utility.yul\":5791:5911   */\ntag_109:\n    /* \"#utility.yul\":5808:5811   */\n  dup2\n    /* \"#utility.yul\":5801:5806   */\n  dup2\n    /* \"#utility.yul\":5798:5812   */\n  lt\n    /* \"#utility.yul\":5791:5911   */\n  iszero\n  tag_111\n  jumpi\n    /* \"#utility.yul\":5862:5901   */\n  tag_112\n    /* \"#utility.yul\":5899:5900   */\n  0x00\n    /* \"#utility.yul\":5892:5897   */\n  dup3\n    /* \"#utility.yul\":5862:5901   */\n  tag_36\n  jump\t// in\ntag_112:\n    /* \"#utility.yul\":5835:5836   */\n  0x01\n    /* \"#utility.yul\":5828:5833   */\n  dup2\n    /* \"#utility.yul\":5824:5837   */\n  add\n    /* \"#utility.yul\":5815:5837   */\n  swap1\n  pop\n    /* \"#utility.yul\":5791:5911   */\n  jump(tag_109)\ntag_111:\n    /* \"#utility.yul\":5731:5917   */\n  pop\n  pop\n  jump\t// out\n    /* \"#utility.yul\":5923:6466   */\ntag_38:\n    /* \"#utility.yul\":6024:6026   */\n  0x1f\n    /* \"#utility.yul\":6019:6022   */\n  dup3\n    /* \"#utility.yul\":6016:6027   */\n  gt\n    /* \"#utility.yul\":6013:6459   */\n  iszero\n  tag_114\n  jumpi\n    /* \"#utility.yul\":6058:6096   */\n  tag_115\n    /* \"#utility.yul\":6090:6095   */\n  dup2\n    /* \"#utility.yul\":6058:6096   */\n  tag_26\n  jump\t// in\ntag_115:\n    /* \"#utility.yul\":6142:6171   */\n  tag_116\n    /* \"#utility.yul\":6160:6170   */\n  dup5\n    /* \"#utility.yul\":6142:6171   */\n  tag_27\n  jump\t// in\ntag_116:\n    /* \"#utility.yul\":6132:6140   */\n  dup2\n    /* \"#utility.yul\":6128:6172   */\n  add\n    /* \"#utility.yul\":6325:6327   */\n  0x20\n    /* \"#utility.yul\":6313:6323   */\n  dup6\n    /* \"#utility.yul\":6310:6328   */\n  lt\n    /* \"#utility.yul\":6307:6356   */\n  iszero\n  tag_117\n  jumpi\n    /* \"#utility.yul\":6346:6354   */\n  dup2\n    /* \"#utility.yul\":6331:6354   */\n  swap1\n  pop\n    /* \"#utility.yul\":6307:6356   */\ntag_117:\n    /* \"#utility.yul\":6369:6449   */\n  tag_118\n    /* \"#utility.yul\":6425:6447   */\n  tag_119\n    /* \"#utility.yul\":6443:6446   */\n  dup6\n    /* \"#utility.yul\":6425:6447   */\n  tag_27\n  jump\t// in\ntag_119:\n    /* \"#utility.yul\":6415:6423   */\n  dup4\n    /* \"#utility.yul\":6411:6448   */\n  add\n    /* \"#utility.yul\":6398:6409   */\n  dup3\n    /* \"#utility.yul\":6369:6449   */\n  tag_37\n  jump\t// in\ntag_118:\n    /* \"#utility.yul\":6028:6459   */\n  pop\n  pop\n    /* \"#utility.yul\":6013:6459   */\ntag_114:\n    /* \"#utility.yul\":5923:6466   */\n  pop\n  pop\n  pop\n  jump\t// out\n    /* \"#utility.yul\":6472:6589   */\ntag_39:\n    /* \"#utility.yul\":6526:6534   */\n  0x00\n    /* \"#utility.yul\":6576:6581   */\n  dup3\n    /* \"#utility.yul\":6570:6574   */\n  dup3\n    /* \"#utility.yul\":6566:6582   */\n  shr\n    /* \"#utility.yul\":6545:6582   */\n  swap1\n  pop\n    /* \"#utility.yul\":6472:6589   */\n  swap3\n  swap2\n  pop\n  pop\n  jump\t// out\n    /* \"#utility.yul\":6595:6764   */\ntag_40:\n    /* \"#utility.yul\":6639:6645   */\n  0x00\n    /* \"#utility.yul\":6672:6723   */\n  tag_122\n    /* \"#utility.yul\":6720:6721   */\n  0x00\n    /* \"#utility.yul\":6716:6722   */\n  not\n    /* \"#utility.yul\":6708:6713   */\n  dup5\n    /* \"#utility.yul\":6705:6706   */\n  0x08\n    /* \"#utility.yul\":6701:6714   */\n  mul\n    /* \"#utility.yul\":6672:6723   */\n  tag_39\n  jump\t// in\ntag_122:\n    /* \"#utility.yul\":6668:6724   */\n  not\n    /* \"#utility.yul\":6753:6757   */\n  dup1\n    /* \"#utility.yul\":6747:6751   */\n  dup4\n    /* \"#utility.yul\":6743:6758   */\n  and\n    /* \"#utility.yul\":6733:6758   */\n  swap2\n  pop\n    /* \"#utility.yul\":6646:6764   */\n  pop\n    /* \"#utility.yul\":6595:6764   */\n  swap3\n  swap2\n  pop\n  pop\n  jump\t// out\n    /* \"#utility.yul\":6769:7064   */\ntag_41:\n    /* \"#utility.yul\":6845:6849   */\n  0x00\n    /* \"#utility.yul\":6991:7020   */\n  tag_124\n    /* \"#utility.yul\":7016:7019   */\n  dup4\n    /* \"#utility.yul\":7010:7014   */\n  dup4\n    /* \"#utility.yul\":6991:7020   */\n  tag_40\n  jump\t// in\ntag_124:\n    /* \"#utility.yul\":6983:7020   */\n  swap2\n  pop\n    /* \"#utility.yul\":7053:7056   */\n  dup3\n    /* \"#utility.yul\":7050:7051   */\n  0x02\n    /* \"#utility.yul\":7046:7057   */\n  mul\n    /* \"#utility.yul\":7040:7044   */\n  dup3\n    /* \"#utility.yul\":7037:7058   */\n  or\n    /* \"#utility.yul\":7029:7058   */\n  swap1\n  pop\n    /* \"#utility.yul\":6769:7064   */\n  swap3\n  swap2\n  pop\n  pop\n  jump\t// out\n    /* \"#utility.yul\":7069:8464   */\ntag_7:\n    /* \"#utility.yul\":7186:7223   */\n  tag_126\n    /* \"#utility.yul\":7219:7222   */\n  dup3\n    /* \"#utility.yul\":7186:7223   */\n  tag_23\n  jump\t// in\ntag_126:\n    /* \"#utility.yul\":7288:7306   */\n  0xffffffffffffffff\n    /* \"#utility.yul\":7280:7286   */\n  dup2\n    /* \"#utility.yul\":7277:7307   */\n  gt\n    /* \"#utility.yul\":7274:7330   */\n  iszero\n  tag_127\n  jumpi\n    /* \"#utility.yul\":7310:7328   */\n  tag_128\n  tag_16\n  jump\t// in\ntag_128:\n    /* \"#utility.yul\":7274:7330   */\ntag_127:\n    /* \"#utility.yul\":7354:7392   */\n  tag_129\n    /* \"#utility.yul\":7386:7390   */\n  dup3\n    /* \"#utility.yul\":7380:7391   */\n  sload\n    /* \"#utility.yul\":7354:7392   */\n  tag_25\n  jump\t// in\ntag_129:\n    /* \"#utility.yul\":7439:7506   */\n  tag_130\n    /* \"#utility.yul\":7499:7505   */\n  dup3\n    /* \"#utility.yul\":7491:7497   */\n  dup3\n    /* \"#utility.yul\":7485:7489   */\n  dup6\n    /* \"#utility.yul\":7439:7506   */\n  tag_38\n  jump\t// in\ntag_130:\n    /* \"#utility.yul\":7533:7534   */\n  0x00\n    /* \"#utility.yul\":7557:7561   */\n  0x20\n    /* \"#utility.yul\":7544:7561   */\n  swap1\n  pop\n    /* \"#utility.yul\":7589:7591   */\n  0x1f\n    /* \"#utility.yul\":7581:7587   */\n  dup4\n    /* \"#utility.yul\":7578:7592   */\n  gt\n    /* \"#utility.yul\":7606:7607   */\n  0x01\n    /* \"#utility.yul\":7601:8219   */\n  dup2\n  eq\n  tag_132\n  jumpi\n    /* \"#utility.yul\":8263:8264   */\n  0x00\n    /* \"#utility.yul\":8280:8286   */\n  dup5\n    /* \"#utility.yul\":8277:8354   */\n  iszero\n  tag_133\n  jumpi\n    /* \"#utility.yul\":8329:8338   */\n  dup3\n    /* \"#utility.yul\":8324:8327   */\n  dup8\n    /* \"#utility.yul\":8320:8339   */\n  add\n    /* \"#utility.yul\":8314:8340   */\n  mload\n    /* \"#utility.yul\":8305:8340   */\n  swap1\n  pop\n    /* \"#utility.yul\":8277:8354   */\ntag_133:\n    /* \"#utility.yul\":8380:8447   */\n  tag_134\n    /* \"#utility.yul\":8440:8446   */\n  dup6\n    /* \"#utility.yul\":8433:8438   */\n  dup3\n    /* \"#utility.yul\":8380:8447   */\n  tag_41\n  jump\t// in\ntag_134:\n    /* \"#utility.yul\":8374:8378   */\n  dup7\n    /* \"#utility.yul\":8367:8448   */\n  sstore\n    /* \"#utility.yul\":8236:8458   */\n  pop\n    /* \"#utility.yul\":7571:8458   */\n  jump(tag_131)\n    /* \"#utility.yul\":7601:8219   */\ntag_132:\n    /* \"#utility.yul\":7653:7657   */\n  0x1f\n    /* \"#utility.yul\":7649:7658   */\n  not\n    /* \"#utility.yul\":7641:7647   */\n  dup5\n    /* \"#utility.yul\":7637:7659   */\n  and\n    /* \"#utility.yul\":7687:7724   */\n  tag_135\n    /* \"#utility.yul\":7719:7723   */\n  dup7\n    /* \"#utility.yul\":7687:7724   */\n  tag_26\n  jump\t// in\ntag_135:\n    /* \"#utility.yul\":7746:7747   */\n  0x00\n    /* \"#utility.yul\":7760:7968   */\ntag_136:\n    /* \"#utility.yul\":7774:7781   */\n  dup3\n    /* \"#utility.yul\":7771:7772   */\n  dup2\n    /* \"#utility.yul\":7768:7782   */\n  lt\n    /* \"#utility.yul\":7760:7968   */\n  iszero\n  tag_138\n  jumpi\n    /* \"#utility.yul\":7853:7862   */\n  dup5\n    /* \"#utility.yul\":7848:7851   */\n  dup10\n    /* \"#utility.yul\":7844:7863   */\n  add\n    /* \"#utility.yul\":7838:7864   */\n  mload\n    /* \"#utility.yul\":7830:7836   */\n  dup3\n    /* \"#utility.yul\":7823:7865   */\n  sstore\n    /* \"#utility.yul\":7904:7905   */\n  0x01\n    /* \"#utility.yul\":7896:7902   */\n  dup3\n    /* \"#utility.yul\":7892:7906   */\n  add\n    /* \"#utility.yul\":7882:7906   */\n  swap2\n  pop\n    /* \"#utility.yul\":7951:7953   */\n  0x20\n    /* \"#utility.yul\":7940:7949   */\n  dup6\n    /* \"#utility.yul\":7936:7954   */\n  add\n    /* \"#utility.yul\":7923:7954   */\n  swap5\n  pop\n    /* \"#utility.yul\":7797:7801   */\n  0x20\n    /* \"#utility.yul\":7794:7795   */\n  dup2\n    /* \"#utility.yul\":7790:7802   */\n  add\n    /* \"#utility.yul\":7785:7802   */\n  swap1\n  pop\n    /* \"#utility.yul\":7760:7968   */\n  jump(tag_136)\ntag_138:\n    /* \"#utility.yul\":7996:8002   */\n  dup7\n    /* \"#utility.yul\":7987:7994   */\n  dup4\n    /* \"#utility.yul\":7984:8003   */\n  lt\n    /* \"#utility.yul\":7981:8160   */\n  iszero\n  tag_139\n  jumpi\n    /* \"#utility.yul\":8054:8063   */\n  dup5\n    /* \"#utility.yul\":8049:8052   */\n  dup10\n    /* \"#utility.yul\":8045:8064   */\n  add\n    /* \"#utility.yul\":8039:8065   */\n  mload\n    /* \"#utility.yul\":8097:8145   */\n  tag_140\n    /* \"#utility.yul\":8139:8143   */\n  0x1f\n    /* \"#utility.yul\":8131:8137   */\n  dup10\n    /* \"#utility.yul\":8127:8144   */\n  and\n    /* \"#utility.yul\":8116:8125   */\n  dup3\n    /* \"#utility.yul\":8097:8145   */\n  tag_40\n  jump\t// in\ntag_140:\n    /* \"#utility.yul\":8089:8095   */\n  dup4\n    /* \"#utility.yul\":8082:8146   */\n  sstore\n    /* \"#utility.yul\":8004:8160   */\n  pop\n    /* \"#utility.yul\":7981:8160   */\ntag_139:\n    /* \"#utility.yul\":8206:8207   */\n  0x01\n    /* \"#utility.yul\":8202:8203   */\n  0x02\n    /* \"#utility.yul\":8194:8200   */\n  dup9\n    /* \"#utility.yul\":8190:8204   */\n  mul\n    /* \"#utility.yul\":8186:8208   */\n  add\n    /* \"#utility.yul\":8180:8184   */\n  dup9\n    /* \"#utility.yul\":8173:8209   */\n  sstore\n    /* \"#utility.yul\":7608:8219   */\n  pop\n  pop\n  pop\n    /* \"#utility.yul\":7571:8458   */\ntag_131:\n  pop\n    /* \"#utility.yul\":7161:8464   */\n  pop\n  pop\n  pop\n    /* \"#utility.yul\":7069:8464   */\n  pop\n  pop\n  jump\t// out\n    /* \"task/task02/task2.1/ERC20.sol\":79:1900  contract ERC20 is IERC20 {... */\ntag_9:\n  dataSize(sub_0)\n  dup1\n  dataOffset(sub_0)\n  0x00\n  codecopy\n  0x00\n  return\nstop\n\nsub_0: assembly {\n        /* \"task/task02/task2.1/ERC20.sol\":79:1900  contract ERC20 is IERC20 {... */\n      mstore(0x40, 0x80)\n      callvalue\n      dup1\n      iszero\n      tag_1\n      jumpi\n      revert(0x00, 0x00)\n    tag_1:\n      pop\n      jumpi(tag_2, lt(calldatasize, 0x04))\n      shr(0xe0, calldataload(0x00))\n      dup1\n      0x42966c68\n      gt\n      tag_15\n      jumpi\n      dup1\n      0x42966c68\n      eq\n      tag_9\n      jumpi\n      dup1\n      0x70a08231\n      eq\n      tag_10\n      jumpi\n      dup1\n      0x95d89b41\n      eq\n      tag_11\n      jumpi\n      dup1\n      0xa0712d68\n      eq\n      tag_12\n      jumpi\n      dup1\n      0xa9059cbb\n      eq\n      tag_13\n      jumpi\n      dup1\n      0xdd62ed3e\n      eq\n      tag_14\n      jumpi\n      jump(tag_2)\n    tag_15:\n      dup1\n      0x06fdde03\n      eq\n      tag_3\n      jumpi\n      dup1\n      0x095ea7b3\n      eq\n      tag_4\n      jumpi\n      dup1\n      0x18160ddd\n      eq\n      tag_5\n      jumpi\n      dup1\n      0x23b872dd\n      eq\n      tag_6\n      jumpi\n      dup1\n      0x27e235e3\n      eq\n      tag_7\n      jumpi\n      dup1\n      0x313ce567\n      eq\n      tag_8\n      jumpi\n    tag_2:\n      revert(0x00, 0x00)\n        /* \"task/task02/task2.1/ERC20.sol\":156:174  string public name */\n    tag_3:\n      tag_16\n      tag_17\n      jump\t// in\n    tag_16:\n      mload(0x40)\n      tag_18\n      swap2\n      swap1\n      tag_19\n      jump\t// in\n    tag_18:\n      mload(0x40)\n      dup1\n      swap2\n      sub\n      swap1\n      return\n        /* \"task/task02/task2.1/ERC20.sol\":1467:1698  function approve(... */\n    tag_4:\n      tag_20\n      0x04\n      dup1\n      calldatasize\n      sub\n      dup2\n      add\n      swap1\n      tag_21\n      swap2\n      swap1\n      tag_22\n      jump\t// in\n    tag_21:\n      tag_23\n      jump\t// in\n    tag_20:\n      mload(0x40)\n      tag_24\n      swap2\n      swap1\n      tag_25\n      jump\t// in\n    tag_24:\n      mload(0x40)\n      dup1\n      swap2\n      sub\n      swap1\n      return\n        /* \"task/task02/task2.1/ERC20.sol\":345:371  uint256 public totalSupply */\n    tag_5:\n      tag_26\n      tag_27\n      jump\t// in\n    tag_26:\n      mload(0x40)\n      tag_28\n      swap2\n      swap1\n      tag_29\n      jump\t// in\n    tag_28:\n      mload(0x40)\n      dup1\n      swap2\n      sub\n      swap1\n      return\n        /* \"task/task02/task2.1/ERC20.sol\":935:1236  function transferFrom(... */\n    tag_6:\n      tag_30\n      0x04\n      dup1\n      calldatasize\n      sub\n      dup2\n      add\n      swap1\n      tag_31\n      swap2\n      swap1\n      tag_32\n      jump\t// in\n    tag_31:\n      tag_33\n      jump\t// in\n    tag_30:\n      mload(0x40)\n      tag_34\n      swap2\n      swap1\n      tag_25\n      jump\t// in\n    tag_34:\n      mload(0x40)\n      dup1\n      swap2\n      sub\n      swap1\n      return\n        /* \"task/task02/task2.1/ERC20.sol\":110:150  mapping(address => uint) public balances */\n    tag_7:\n      tag_35\n      0x04\n      dup1\n      calldatasize\n      sub\n      dup2\n      add\n      swap1\n      tag_36\n      swap2\n      swap1\n      tag_37\n      jump\t// in\n    tag_36:\n      tag_38\n      jump\t// in\n    tag_35:\n      mload(0x40)\n      tag_39\n      swap2\n      swap1\n      tag_29\n      jump\t// in\n    tag_39:\n      mload(0x40)\n      dup1\n      swap2\n      sub\n      swap1\n      return\n        /* \"task/task02/task2.1/ERC20.sol\":226:252  uint8 public decimals = 18 */\n    tag_8:\n      tag_40\n      tag_41\n      jump\t// in\n    tag_40:\n      mload(0x40)\n      tag_42\n      swap2\n      swap1\n      tag_43\n      jump\t// in\n    tag_42:\n      mload(0x40)\n      dup1\n      swap2\n      sub\n      swap1\n      return\n        /* \"task/task02/task2.1/ERC20.sol\":1729:1898  function burn(uint amount) external {... */\n    tag_9:\n      tag_44\n      0x04\n      dup1\n      calldatasize\n      sub\n      dup2\n      add\n      swap1\n      tag_45\n      swap2\n      swap1\n      tag_46\n      jump\t// in\n    tag_45:\n      tag_47\n      jump\t// in\n    tag_44:\n      stop\n        /* \"task/task02/task2.1/ERC20.sol\":554:663  function balanceOf(address account) external view returns (uint256) {... */\n    tag_10:\n      tag_48\n      0x04\n      dup1\n      calldatasize\n      sub\n      dup2\n      add\n      swap1\n      tag_49\n      swap2\n      swap1\n      tag_37\n      jump\t// in\n    tag_49:\n      tag_50\n      jump\t// in\n    tag_48:\n      mload(0x40)\n      tag_51\n      swap2\n      swap1\n      tag_29\n      jump\t// in\n    tag_51:\n      mload(0x40)\n      dup1\n      swap2\n      sub\n      swap1\n      return\n        /* \"task/task02/task2.1/ERC20.sol\":190:210  string public symbol */\n    tag_11:\n      tag_52\n      tag_53\n      jump\t// in\n    tag_52:\n      mload(0x40)\n      tag_54\n      swap2\n      swap1\n      tag_19\n      jump\t// in\n    tag_54:\n      mload(0x40)\n      dup1\n      swap2\n      sub\n      swap1\n      return\n        /* \"task/task02/task2.1/ERC20.sol\":1267:1436  function mint(uint amount) external {... */\n    tag_12:\n      tag_55\n      0x04\n      dup1\n      calldatasize\n      sub\n      dup2\n      add\n      swap1\n      tag_56\n      swap2\n      swap1\n      tag_46\n      jump\t// in\n    tag_56:\n      tag_57\n      jump\t// in\n    tag_55:\n      stop\n        /* \"task/task02/task2.1/ERC20.sol\":694:904  function transfer(address to, uint value) external returns (bool) {... */\n    tag_13:\n      tag_58\n      0x04\n      dup1\n      calldatasize\n      sub\n      dup2\n      add\n      swap1\n      tag_59\n      swap2\n      swap1\n      tag_22\n      jump\t// in\n    tag_59:\n      tag_60\n      jump\t// in\n    tag_58:\n      mload(0x40)\n      tag_61\n      swap2\n      swap1\n      tag_25\n      jump\t// in\n    tag_61:\n      mload(0x40)\n      dup1\n      swap2\n      sub\n      swap1\n      return\n        /* \"task/task02/task2.1/ERC20.sol\":275:339  mapping(address => mapping(address => uint256)) public allowance */\n    tag_14:\n      tag_62\n      0x04\n      dup1\n      calldatasize\n      sub\n      dup2\n      add\n      swap1\n      tag_63\n      swap2\n      swap1\n      tag_64\n      jump\t// in\n    tag_63:\n      tag_65\n      jump\t// in\n    tag_62:\n      mload(0x40)\n      tag_66\n      swap2\n      swap1\n      tag_29\n      jump\t// in\n    tag_66:\n      mload(0x40)\n      dup1\n      swap2\n      sub\n      swap1\n      return\n        /* \"task/task02/task2.1/ERC20.sol\":156:174  string public name */\n    tag_17:\n      0x01\n      dup1\n      sload\n      tag_67\n      swap1\n      tag_68\n      jump\t// in\n    tag_67:\n      dup1\n      0x1f\n      add\n      0x20\n      dup1\n      swap2\n      div\n      mul\n      0x20\n      add\n      mload(0x40)\n      swap1\n      dup2\n      add\n      0x40\n      mstore\n      dup1\n      swap3\n      swap2\n      swap1\n      dup2\n      dup2\n      mstore\n      0x20\n      add\n      dup3\n      dup1\n      sload\n      tag_69\n      swap1\n      tag_68\n      jump\t// in\n    tag_69:\n      dup1\n      iszero\n      tag_70\n      jumpi\n      dup1\n      0x1f\n      lt\n      tag_71\n      jumpi\n      0x0100\n      dup1\n      dup4\n      sload\n      div\n      mul\n      dup4\n      mstore\n      swap2\n      0x20\n      add\n      swap2\n      jump(tag_70)\n    tag_71:\n      dup3\n      add\n      swap2\n      swap1\n      0x00\n      mstore\n      keccak256(0x00, 0x20)\n      swap1\n    tag_72:\n      dup2\n      sload\n      dup2\n      mstore\n      swap1\n      0x01\n      add\n      swap1\n      0x20\n      add\n      dup1\n      dup4\n      gt\n      tag_72\n      jumpi\n      dup3\n      swap1\n      sub\n      0x1f\n      and\n      dup3\n      add\n      swap2\n    tag_70:\n      pop\n      pop\n      pop\n      pop\n      pop\n      dup2\n      jump\t// out\n        /* \"task/task02/task2.1/ERC20.sol\":1467:1698  function approve(... */\n    tag_23:\n        /* \"task/task02/task2.1/ERC20.sol\":1563:1567  bool */\n      0x00\n        /* \"task/task02/task2.1/ERC20.sol\":1612:1618  amount */\n      dup2\n        /* \"task/task02/task2.1/ERC20.sol\":1579:1588  allowance */\n      0x04\n        /* \"task/task02/task2.1/ERC20.sol\":1579:1600  allowance[msg.sender] */\n      0x00\n        /* \"task/task02/task2.1/ERC20.sol\":1589:1599  msg.sender */\n      caller\n        /* \"task/task02/task2.1/ERC20.sol\":1579:1600  allowance[msg.sender] */\n      0xffffffffffffffffffffffffffffffffffffffff\n      and\n      0xffffffffffffffffffffffffffffffffffffffff\n      and\n      dup2\n      mstore\n      0x20\n      add\n      swap1\n      dup2\n      mstore\n      0x20\n      add\n      0x00\n      keccak256\n        /* \"task/task02/task2.1/ERC20.sol\":1579:1609  allowance[msg.sender][spender] */\n      0x00\n        /* \"task/task02/task2.1/ERC20.sol\":1601:1608  spender */\n      dup6\n        /* \"task/task02/task2.1/ERC20.sol\":1579:1609  allowance[msg.sender][spender] */\n      0xffffffffffffffffffffffffffffffffffffffff\n      and\n      0xffffffffffffffffffffffffffffffffffffffff\n      and\n      dup2\n      mstore\n      0x20\n      add\n      swap1\n      dup2\n      mstore\n      0x20\n      add\n      0x00\n      keccak256\n        /* \"task/task02/task2.1/ERC20.sol\":1579:1618  allowance[msg.sender][spender] = amount */\n      dup2\n      swap1\n      sstore\n      pop\n        /* \"task/task02/task2.1/ERC20.sol\":1654:1661  spender */\n      dup3\n        /* \"task/task02/task2.1/ERC20.sol\":1633:1670  Approval(msg.sender, spender, amount) */\n      0xffffffffffffffffffffffffffffffffffffffff\n      and\n        /* \"task/task02/task2.1/ERC20.sol\":1642:1652  msg.sender */\n      caller\n        /* \"task/task02/task2.1/ERC20.sol\":1633:1670  Approval(msg.sender, spender, amount) */\n      0xffffffffffffffffffffffffffffffffffffffff\n      and\n      0x8c5be1e5ebec7d5bd14f71427d1e84f3dd0314c0f7b2291e5b200ac8c7c3b925\n        /* \"task/task02/task2.1/ERC20.sol\":1663:1669  amount */\n      dup5\n        /* \"task/task02/task2.1/ERC20.sol\":1633:1670  Approval(msg.sender, spender, amount) */\n      mload(0x40)\n      tag_74\n      swap2\n      swap1\n      tag_29\n      jump\t// in\n    tag_74:\n      mload(0x40)\n      dup1\n      swap2\n      sub\n      swap1\n      log3\n        /* \"task/task02/task2.1/ERC20.sol\":1687:1691  true */\n      0x01\n        /* \"task/task02/task2.1/ERC20.sol\":1680:1691  return true */\n      swap1\n      pop\n        /* \"task/task02/task2.1/ERC20.sol\":1467:1698  function approve(... */\n      swap3\n      swap2\n      pop\n      pop\n      jump\t// out\n        /* \"task/task02/task2.1/ERC20.sol\":345:371  uint256 public totalSupply */\n    tag_27:\n      sload(0x05)\n      dup2\n      jump\t// out\n        /* \"task/task02/task2.1/ERC20.sol\":935:1236  function transferFrom(... */\n    tag_33:\n        /* \"task/task02/task2.1/ERC20.sol\":1046:1050  bool */\n      0x00\n        /* \"task/task02/task2.1/ERC20.sol\":1132:1137  value */\n      dup2\n        /* \"task/task02/task2.1/ERC20.sol\":1114:1122  balances */\n      0x00\n        /* \"task/task02/task2.1/ERC20.sol\":1114:1128  balances[from] */\n      0x00\n        /* \"task/task02/task2.1/ERC20.sol\":1123:1127  from */\n      dup7\n        /* \"task/task02/task2.1/ERC20.sol\":1114:1128  balances[from] */\n      0xffffffffffffffffffffffffffffffffffffffff\n      and\n      0xffffffffffffffffffffffffffffffffffffffff\n      and\n      dup2\n      mstore\n      0x20\n      add\n      swap1\n      dup2\n      mstore\n      0x20\n      add\n      0x00\n      keccak256\n      0x00\n        /* \"task/task02/task2.1/ERC20.sol\":1114:1137  balances[from] -= value */\n      dup3\n      dup3\n      sload\n      tag_76\n      swap2\n      swap1\n      tag_77\n      jump\t// in\n    tag_76:\n      swap3\n      pop\n      pop\n      dup2\n      swap1\n      sstore\n      pop\n        /* \"task/task02/task2.1/ERC20.sol\":1163:1168  value */\n      dup2\n        /* \"task/task02/task2.1/ERC20.sol\":1147:1155  balances */\n      0x00\n        /* \"task/task02/task2.1/ERC20.sol\":1147:1159  balances[to] */\n      0x00\n        /* \"task/task02/task2.1/ERC20.sol\":1156:1158  to */\n      dup6\n        /* \"task/task02/task2.1/ERC20.sol\":1147:1159  balances[to] */\n      0xffffffffffffffffffffffffffffffffffffffff\n      and\n      0xffffffffffffffffffffffffffffffffffffffff\n      and\n      dup2\n      mstore\n      0x20\n      add\n      swap1\n      dup2\n      mstore\n      0x20\n      add\n      0x00\n      keccak256\n      0x00\n        /* \"task/task02/task2.1/ERC20.sol\":1147:1168  balances[to] += value */\n      dup3\n      dup3\n      sload\n      tag_78\n      swap2\n      swap1\n      tag_79\n      jump\t// in\n    tag_78:\n      swap3\n      pop\n      pop\n      dup2\n      swap1\n      sstore\n      pop\n        /* \"task/task02/task2.1/ERC20.sol\":1198:1200  to */\n      dup3\n        /* \"task/task02/task2.1/ERC20.sol\":1183:1208  Transfer(from, to, value) */\n      0xffffffffffffffffffffffffffffffffffffffff\n      and\n        /* \"task/task02/task2.1/ERC20.sol\":1192:1196  from */\n      dup5\n        /* \"task/task02/task2.1/ERC20.sol\":1183:1208  Transfer(from, to, value) */\n      0xffffffffffffffffffffffffffffffffffffffff\n      and\n      0xddf252ad1be2c89b69c2b068fc378daa952ba7f163c4a11628f55a4df523b3ef\n        /* \"task/task02/task2.1/ERC20.sol\":1202:1207  value */\n      dup5\n        /* \"task/task02/task2.1/ERC20.sol\":1183:1208  Transfer(from, to, value) */\n      mload(0x40)\n      tag_80\n      swap2\n      swap1\n      tag_29\n      jump\t// in\n    tag_80:\n      mload(0x40)\n      dup1\n      swap2\n      sub\n      swap1\n      log3\n        /* \"task/task02/task2.1/ERC20.sol\":1225:1229  true */\n      0x01\n        /* \"task/task02/task2.1/ERC20.sol\":1218:1229  return true */\n      swap1\n      pop\n        /* \"task/task02/task2.1/ERC20.sol\":935:1236  function transferFrom(... */\n      swap4\n      swap3\n      pop\n      pop\n      pop\n      jump\t// out\n        /* \"task/task02/task2.1/ERC20.sol\":110:150  mapping(address => uint) public balances */\n    tag_38:\n      mstore(0x20, 0x00)\n      dup1\n      0x00\n      mstore\n      keccak256(0x00, 0x40)\n      0x00\n      swap2\n      pop\n      swap1\n      pop\n      sload\n      dup2\n      jump\t// out\n        /* \"task/task02/task2.1/ERC20.sol\":226:252  uint8 public decimals = 18 */\n    tag_41:\n      0x03\n      0x00\n      swap1\n      sload\n      swap1\n      0x0100\n      exp\n      swap1\n      div\n      0xff\n      and\n      dup2\n      jump\t// out\n        /* \"task/task02/task2.1/ERC20.sol\":1729:1898  function burn(uint amount) external {... */\n    tag_47:\n        /* \"task/task02/task2.1/ERC20.sol\":1799:1805  amount */\n      dup1\n        /* \"task/task02/task2.1/ERC20.sol\":1775:1783  balances */\n      0x00\n        /* \"task/task02/task2.1/ERC20.sol\":1775:1795  balances[msg.sender] */\n      0x00\n        /* \"task/task02/task2.1/ERC20.sol\":1784:1794  msg.sender */\n      caller\n        /* \"task/task02/task2.1/ERC20.sol\":1775:1795  balances[msg.sender] */\n      0xffffffffffffffffffffffffffffffffffffffff\n      and\n      0xffffffffffffffffffffffffffffffffffffffff\n      and\n      dup2\n      mstore\n      0x20\n      add\n      swap1\n      dup2\n      mstore\n      0x20\n      add\n      0x00\n      keccak256\n      0x00\n        /* \"task/task02/task2.1/ERC20.sol\":1775:1805  balances[msg.sender] -= amount */\n      dup3\n      dup3\n      sload\n      tag_82\n      swap2\n      swap1\n      tag_77\n      jump\t// in\n    tag_82:\n      swap3\n      pop\n      pop\n      dup2\n      swap1\n      sstore\n      pop\n        /* \"task/task02/task2.1/ERC20.sol\":1830:1836  amount */\n      dup1\n        /* \"task/task02/task2.1/ERC20.sol\":1815:1826  totalSupply */\n      0x05\n      0x00\n        /* \"task/task02/task2.1/ERC20.sol\":1815:1836  totalSupply -= amount */\n      dup3\n      dup3\n      sload\n      tag_83\n      swap2\n      swap1\n      tag_77\n      jump\t// in\n    tag_83:\n      swap3\n      pop\n      pop\n      dup2\n      swap1\n      sstore\n      pop\n        /* \"task/task02/task2.1/ERC20.sol\":1880:1881  0 */\n      0x00\n        /* \"task/task02/task2.1/ERC20.sol\":1851:1891  Transfer(msg.sender, address(0), amount) */\n      0xffffffffffffffffffffffffffffffffffffffff\n      and\n        /* \"task/task02/task2.1/ERC20.sol\":1860:1870  msg.sender */\n      caller\n        /* \"task/task02/task2.1/ERC20.sol\":1851:1891  Transfer(msg.sender, address(0), amount) */\n      0xffffffffffffffffffffffffffffffffffffffff\n      and\n      0xddf252ad1be2c89b69c2b068fc378daa952ba7f163c4a11628f55a4df523b3ef\n        /* \"task/task02/task2.1/ERC20.sol\":1884:1890  amount */\n      dup4\n        /* \"task/task02/task2.1/ERC20.sol\":1851:1891  Transfer(msg.sender, address(0), amount) */\n      mload(0x40)\n      tag_84\n      swap2\n      swap1\n      tag_29\n      jump\t// in\n    tag_84:\n      mload(0x40)\n      dup1\n      swap2\n      sub\n      swap1\n      log3\n        /* \"task/task02/task2.1/ERC20.sol\":1729:1898  function burn(uint amount) external {... */\n      pop\n      jump\t// out\n        /* \"task/task02/task2.1/ERC20.sol\":554:663  function balanceOf(address account) external view returns (uint256) {... */\n    tag_50:\n        /* \"task/task02/task2.1/ERC20.sol\":613:620  uint256 */\n      0x00\n        /* \"task/task02/task2.1/ERC20.sol\":639:647  balances */\n      0x00\n        /* \"task/task02/task2.1/ERC20.sol\":639:656  balances[account] */\n      0x00\n        /* \"task/task02/task2.1/ERC20.sol\":648:655  account */\n      dup4\n        /* \"task/task02/task2.1/ERC20.sol\":639:656  balances[account] */\n      0xffffffffffffffffffffffffffffffffffffffff\n      and\n      0xffffffffffffffffffffffffffffffffffffffff\n      and\n      dup2\n      mstore\n      0x20\n      add\n      swap1\n      dup2\n      mstore\n      0x20\n      add\n      0x00\n      keccak256\n      sload\n        /* \"task/task02/task2.1/ERC20.sol\":632:656  return balances[account] */\n      swap1\n      pop\n        /* \"task/task02/task2.1/ERC20.sol\":554:663  function balanceOf(address account) external view returns (uint256) {... */\n      swap2\n      swap1\n      pop\n      jump\t// out\n        /* \"task/task02/task2.1/ERC20.sol\":190:210  string public symbol */\n    tag_53:\n      0x02\n      dup1\n      sload\n      tag_86\n      swap1\n      tag_68\n      jump\t// in\n    tag_86:\n      dup1\n      0x1f\n      add\n      0x20\n      dup1\n      swap2\n      div\n      mul\n      0x20\n      add\n      mload(0x40)\n      swap1\n      dup2\n      add\n      0x40\n      mstore\n      dup1\n      swap3\n      swap2\n      swap1\n      dup2\n      dup2\n      mstore\n      0x20\n      add\n      dup3\n      dup1\n      sload\n      tag_87\n      swap1\n      tag_68\n      jump\t// in\n    tag_87:\n      dup1\n      iszero\n      tag_88\n      jumpi\n      dup1\n      0x1f\n      lt\n      tag_89\n      jumpi\n      0x0100\n      dup1\n      dup4\n      sload\n      div\n      mul\n      dup4\n      mstore\n      swap2\n      0x20\n      add\n      swap2\n      jump(tag_88)\n    tag_89:\n      dup3\n      add\n      swap2\n      swap1\n      0x00\n      mstore\n      keccak256(0x00, 0x20)\n      swap1\n    tag_90:\n      dup2\n      sload\n      dup2\n      mstore\n      swap1\n      0x01\n      add\n      swap1\n      0x20\n      add\n      dup1\n      dup4\n      gt\n      tag_90\n      jumpi\n      dup3\n      swap1\n      sub\n      0x1f\n      and\n      dup3\n      add\n      swap2\n    tag_88:\n      pop\n      pop\n      pop\n      pop\n      pop\n      dup2\n      jump\t// out\n        /* \"task/task02/task2.1/ERC20.sol\":1267:1436  function mint(uint amount) external {... */\n    tag_57:\n        /* \"task/task02/task2.1/ERC20.sol\":1337:1343  amount */\n      dup1\n        /* \"task/task02/task2.1/ERC20.sol\":1313:1321  balances */\n      0x00\n        /* \"task/task02/task2.1/ERC20.sol\":1313:1333  balances[msg.sender] */\n      0x00\n        /* \"task/task02/task2.1/ERC20.sol\":1322:1332  msg.sender */\n      caller\n        /* \"task/task02/task2.1/ERC20.sol\":1313:1333  balances[msg.sender] */\n      0xffffffffffffffffffffffffffffffffffffffff\n      and\n      0xffffffffffffffffffffffffffffffffffffffff\n      and\n      dup2\n      mstore\n      0x20\n      add\n      swap1\n      dup2\n      mstore\n      0x20\n      add\n      0x00\n      keccak256\n      0x00\n        /* \"task/task02/task2.1/ERC20.sol\":1313:1343  balances[msg.sender] += amount */\n      dup3\n      dup3\n      sload\n      tag_92\n      swap2\n      swap1\n      tag_79\n      jump\t// in\n    tag_92:\n      swap3\n      pop\n      pop\n      dup2\n      swap1\n      sstore\n      pop\n        /* \"task/task02/task2.1/ERC20.sol\":1368:1374  amount */\n      dup1\n        /* \"task/task02/task2.1/ERC20.sol\":1353:1364  totalSupply */\n      0x05\n      0x00\n        /* \"task/task02/task2.1/ERC20.sol\":1353:1374  totalSupply += amount */\n      dup3\n      dup3\n      sload\n      tag_93\n      swap2\n      swap1\n      tag_79\n      jump\t// in\n    tag_93:\n      swap3\n      pop\n      pop\n      dup2\n      swap1\n      sstore\n      pop\n        /* \"task/task02/task2.1/ERC20.sol\":1410:1420  msg.sender */\n      caller\n        /* \"task/task02/task2.1/ERC20.sol\":1389:1429  Transfer(address(0), msg.sender, amount) */\n      0xffffffffffffffffffffffffffffffffffffffff\n      and\n        /* \"task/task02/task2.1/ERC20.sol\":1406:1407  0 */\n      0x00\n        /* \"task/task02/task2.1/ERC20.sol\":1389:1429  Transfer(address(0), msg.sender, amount) */\n      0xffffffffffffffffffffffffffffffffffffffff\n      and\n      0xddf252ad1be2c89b69c2b068fc378daa952ba7f163c4a11628f55a4df523b3ef\n        /* \"task/task02/task2.1/ERC20.sol\":1422:1428  amount */\n      dup4\n        /* \"task/task02/task2.1/ERC20.sol\":1389:1429  Transfer(address(0), msg.sender, amount) */\n      mload(0x40)\n      tag_94\n      swap2\n      swap1\n      tag_29\n      jump\t// in\n    tag_94:\n      mload(0x40)\n      dup1\n      swap2\n      sub\n      swap1\n      log3\n        /* \"task/task02/task2.1/ERC20.sol\":1267:1436  function mint(uint amount) external {... */\n      pop\n      jump\t// out\n        /* \"task/task02/task2.1/ERC20.sol\":694:904  function transfer(address to, uint value) external returns (bool) {... */\n    tag_60:\n        /* \"task/task02/task2.1/ERC20.sol\":754:758  bool */\n      0x00\n        /* \"task/task02/task2.1/ERC20.sol\":794:799  value */\n      dup2\n        /* \"task/task02/task2.1/ERC20.sol\":770:778  balances */\n      0x00\n        /* \"task/task02/task2.1/ERC20.sol\":770:790  balances[msg.sender] */\n      0x00\n        /* \"task/task02/task2.1/ERC20.sol\":779:789  msg.sender */\n      caller\n        /* \"task/task02/task2.1/ERC20.sol\":770:790  balances[msg.sender] */\n      0xffffffffffffffffffffffffffffffffffffffff\n      and\n      0xffffffffffffffffffffffffffffffffffffffff\n      and\n      dup2\n      mstore\n      0x20\n      add\n      swap1\n      dup2\n      mstore\n      0x20\n      add\n      0x00\n      keccak256\n      0x00\n        /* \"task/task02/task2.1/ERC20.sol\":770:799  balances[msg.sender] -= value */\n      dup3\n      dup3\n      sload\n      tag_96\n      swap2\n      swap1\n      tag_77\n      jump\t// in\n    tag_96:\n      swap3\n      pop\n      pop\n      dup2\n      swap1\n      sstore\n      pop\n        /* \"task/task02/task2.1/ERC20.sol\":825:830  value */\n      dup2\n        /* \"task/task02/task2.1/ERC20.sol\":809:817  balances */\n      0x00\n        /* \"task/task02/task2.1/ERC20.sol\":809:821  balances[to] */\n      0x00\n        /* \"task/task02/task2.1/ERC20.sol\":818:820  to */\n      dup6\n        /* \"task/task02/task2.1/ERC20.sol\":809:821  balances[to] */\n      0xffffffffffffffffffffffffffffffffffffffff\n      and\n      0xffffffffffffffffffffffffffffffffffffffff\n      and\n      dup2\n      mstore\n      0x20\n      add\n      swap1\n      dup2\n      mstore\n      0x20\n      add\n      0x00\n      keccak256\n      0x00\n        /* \"task/task02/task2.1/ERC20.sol\":809:830  balances[to] += value */\n      dup3\n      dup3\n      sload\n      tag_97\n      swap2\n      swap1\n      tag_79\n      jump\t// in\n    tag_97:\n      swap3\n      pop\n      pop\n      dup2\n      swap1\n      sstore\n      pop\n        /* \"task/task02/task2.1/ERC20.sol\":866:868  to */\n      dup3\n        /* \"task/task02/task2.1/ERC20.sol\":845:876  Transfer(msg.sender, to, value) */\n      0xffffffffffffffffffffffffffffffffffffffff\n      and\n        /* \"task/task02/task2.1/ERC20.sol\":854:864  msg.sender */\n      caller\n        /* \"task/task02/task2.1/ERC20.sol\":845:876  Transfer(msg.sender, to, value) */\n      0xffffffffffffffffffffffffffffffffffffffff\n      and\n      0xddf252ad1be2c89b69c2b068fc378daa952ba7f163c4a11628f55a4df523b3ef\n        /* \"task/task02/task2.1/ERC20.sol\":870:875  value */\n      dup5\n        /* \"task/task02/task2.1/ERC20.sol\":845:876  Transfer(msg.sender, to, value) */\n      mload(0x40)\n      tag_98\n      swap2\n      swap1\n      tag_29\n      jump\t// in\n    tag_98:\n      mload(0x40)\n      dup1\n      swap2\n      sub\n      swap1\n      log3\n        /* \"task/task02/task2.1/ERC20.sol\":893:897  true */\n      0x01\n        /* \"task/task02/task2.1/ERC20.sol\":886:897  return true */\n      swap1\n      pop\n        /* \"task/task02/task2.1/ERC20.sol\":694:904  function transfer(address to, uint value) external returns (bool) {... */\n      swap3\n      swap2\n      pop\n      pop\n      jump\t// out\n        /* \"task/task02/task2.1/ERC20.sol\":275:339  mapping(address => mapping(address => uint256)) public allowance */\n    tag_65:\n      mstore(0x20, 0x04)\n      dup2\n      0x00\n      mstore\n      mstore(0x20, keccak256(0x00, 0x40))\n      dup1\n      0x00\n      mstore\n      keccak256(0x00, 0x40)\n      0x00\n      swap2\n      pop\n      swap2\n      pop\n      pop\n      sload\n      dup2\n      jump\t// out\n        /* \"#utility.yul\":7:106   */\n    tag_99:\n        /* \"#utility.yul\":59:65   */\n      0x00\n        /* \"#utility.yul\":93:98   */\n      dup2\n        /* \"#utility.yul\":87:99   */\n      mload\n        /* \"#utility.yul\":77:99   */\n      swap1\n      pop\n        /* \"#utility.yul\":7:106   */\n      swap2\n      swap1\n      pop\n      jump\t// out\n        /* \"#utility.yul\":112:281   */\n    tag_100:\n        /* \"#utility.yul\":196:207   */\n      0x00\n        /* \"#utility.yul\":230:236   */\n      dup3\n        /* \"#utility.yul\":225:228   */\n      dup3\n        /* \"#utility.yul\":218:237   */\n      mstore\n        /* \"#utility.yul\":270:274   */\n      0x20\n        /* \"#utility.yul\":265:268   */\n      dup3\n        /* \"#utility.yul\":261:275   */\n      add\n        /* \"#utility.yul\":246:275   */\n      swap1\n      pop\n        /* \"#utility.yul\":112:281   */\n      swap3\n      swap2\n      pop\n      pop\n      jump\t// out\n        /* \"#utility.yul\":287:426   */\n    tag_101:\n        /* \"#utility.yul\":376:382   */\n      dup3\n        /* \"#utility.yul\":371:374   */\n      dup2\n        /* \"#utility.yul\":366:369   */\n      dup4\n        /* \"#utility.yul\":360:383   */\n      mcopy\n        /* \"#utility.yul\":417:418   */\n      0x00\n        /* \"#utility.yul\":408:414   */\n      dup4\n        /* \"#utility.yul\":403:406   */\n      dup4\n        /* \"#utility.yul\":399:415   */\n      add\n        /* \"#utility.yul\":392:419   */\n      mstore\n        /* \"#utility.yul\":287:426   */\n      pop\n      pop\n      pop\n      jump\t// out\n        /* \"#utility.yul\":432:534   */\n    tag_102:\n        /* \"#utility.yul\":473:479   */\n      0x00\n        /* \"#utility.yul\":524:526   */\n      0x1f\n        /* \"#utility.yul\":520:527   */\n      not\n        /* \"#utility.yul\":515:517   */\n      0x1f\n        /* \"#utility.yul\":508:513   */\n      dup4\n        /* \"#utility.yul\":504:518   */\n      add\n        /* \"#utility.yul\":500:528   */\n      and\n        /* \"#utility.yul\":490:528   */\n      swap1\n      pop\n        /* \"#utility.yul\":432:534   */\n      swap2\n      swap1\n      pop\n      jump\t// out\n        /* \"#utility.yul\":540:917   */\n    tag_103:\n        /* \"#utility.yul\":628:631   */\n      0x00\n        /* \"#utility.yul\":656:695   */\n      tag_127\n        /* \"#utility.yul\":689:694   */\n      dup3\n        /* \"#utility.yul\":656:695   */\n      tag_99\n      jump\t// in\n    tag_127:\n        /* \"#utility.yul\":711:782   */\n      tag_128\n        /* \"#utility.yul\":775:781   */\n      dup2\n        /* \"#utility.yul\":770:773   */\n      dup6\n        /* \"#utility.yul\":711:782   */\n      tag_100\n      jump\t// in\n    tag_128:\n        /* \"#utility.yul\":704:782   */\n      swap4\n      pop\n        /* \"#utility.yul\":791:856   */\n      tag_129\n        /* \"#utility.yul\":849:855   */\n      dup2\n        /* \"#utility.yul\":844:847   */\n      dup6\n        /* \"#utility.yul\":837:841   */\n      0x20\n        /* \"#utility.yul\":830:835   */\n      dup7\n        /* \"#utility.yul\":826:842   */\n      add\n        /* \"#utility.yul\":791:856   */\n      tag_101\n      jump\t// in\n    tag_129:\n        /* \"#utility.yul\":881:910   */\n      tag_130\n        /* \"#utility.yul\":903:909   */\n      dup2\n        /* \"#utility.yul\":881:910   */\n      tag_102\n      jump\t// in\n    tag_130:\n        /* \"#utility.yul\":876:879   */\n      dup5\n        /* \"#utility.yul\":872:911   */\n      add\n        /* \"#utility.yul\":865:911   */\n      swap2\n      pop\n        /* \"#utility.yul\":632:917   */\n      pop\n        /* \"#utility.yul\":540:917   */\n      swap3\n      swap2\n      pop\n      pop\n      jump\t// out\n        /* \"#utility.yul\":923:1236   */\n    tag_19:\n        /* \"#utility.yul\":1036:1040   */\n      0x00\n        /* \"#utility.yul\":1074:1076   */\n      0x20\n        /* \"#utility.yul\":1063:1072   */\n      dup3\n        /* \"#utility.yul\":1059:1077   */\n      add\n        /* \"#utility.yul\":1051:1077   */\n      swap1\n      pop\n        /* \"#utility.yul\":1123:1132   */\n      dup2\n        /* \"#utility.yul\":1117:1121   */\n      dup2\n        /* \"#utility.yul\":1113:1133   */\n      sub\n        /* \"#utility.yul\":1109:1110   */\n      0x00\n        /* \"#utility.yul\":1098:1107   */\n      dup4\n        /* \"#utility.yul\":1094:1111   */\n      add\n        /* \"#utility.yul\":1087:1134   */\n      mstore\n        /* \"#utility.yul\":1151:1229   */\n      tag_132\n        /* \"#utility.yul\":1224:1228   */\n      dup2\n        /* \"#utility.yul\":1215:1221   */\n      dup5\n        /* \"#utility.yul\":1151:1229   */\n      tag_103\n      jump\t// in\n    tag_132:\n        /* \"#utility.yul\":1143:1229   */\n      swap1\n      pop\n        /* \"#utility.yul\":923:1236   */\n      swap3\n      swap2\n      pop\n      pop\n      jump\t// out\n        /* \"#utility.yul\":1323:1440   */\n    tag_105:\n        /* \"#utility.yul\":1432:1433   */\n      0x00\n        /* \"#utility.yul\":1429:1430   */\n      0x00\n        /* \"#utility.yul\":1422:1434   */\n      revert\n        /* \"#utility.yul\":1569:1695   */\n    tag_107:\n        /* \"#utility.yul\":1606:1613   */\n      0x00\n        /* \"#utility.yul\":1646:1688   */\n      0xffffffffffffffffffffffffffffffffffffffff\n        /* \"#utility.yul\":1639:1644   */\n      dup3\n        /* \"#utility.yul\":1635:1689   */\n      and\n        /* \"#utility.yul\":1624:1689   */\n      swap1\n      pop\n        /* \"#utility.yul\":1569:1695   */\n      swap2\n      swap1\n      pop\n      jump\t// out\n        /* \"#utility.yul\":1701:1797   */\n    tag_108:\n        /* \"#utility.yul\":1738:1745   */\n      0x00\n        /* \"#utility.yul\":1767:1791   */\n      tag_138\n        /* \"#utility.yul\":1785:1790   */\n      dup3\n        /* \"#utility.yul\":1767:1791   */\n      tag_107\n      jump\t// in\n    tag_138:\n        /* \"#utility.yul\":1756:1791   */\n      swap1\n      pop\n        /* \"#utility.yul\":1701:1797   */\n      swap2\n      swap1\n      pop\n      jump\t// out\n        /* \"#utility.yul\":1803:1925   */\n    tag_109:\n        /* \"#utility.yul\":1876:1900   */\n      tag_140\n        /* \"#utility.yul\":1894:1899   */\n      dup2\n        /* \"#utility.yul\":1876:1900   */\n      tag_108\n      jump\t// in\n    tag_140:\n        /* \"#utility.yul\":1869:1874   */\n      dup2\n        /* \"#utility.yul\":1866:1901   */\n      eq\n        /* \"#utility.yul\":1856:1919   */\n      tag_141\n      jumpi\n        /* \"#utility.yul\":1915:1916   */\n      0x00\n        /* \"#utility.yul\":1912:1913   */\n      0x00\n        /* \"#utility.yul\":1905:1917   */\n      revert\n        /* \"#utility.yul\":1856:1919   */\n    tag_141:\n        /* \"#utility.yul\":1803:1925   */\n      pop\n      jump\t// out\n        /* \"#utility.yul\":1931:2070   */\n    tag_110:\n        /* \"#utility.yul\":1977:1982   */\n      0x00\n        /* \"#utility.yul\":2015:2021   */\n      dup2\n        /* \"#utility.yul\":2002:2022   */\n      calldataload\n        /* \"#utility.yul\":1993:2022   */\n      swap1\n      pop\n        /* \"#utility.yul\":2031:2064   */\n      tag_143\n        /* \"#utility.yul\":2058:2063   */\n      dup2\n        /* \"#utility.yul\":2031:2064   */\n      tag_109\n      jump\t// in\n    tag_143:\n        /* \"#utility.yul\":1931:2070   */\n      swap3\n      swap2\n      pop\n      pop\n      jump\t// out\n        /* \"#utility.yul\":2076:2153   */\n    tag_111:\n        /* \"#utility.yul\":2113:2120   */\n      0x00\n        /* \"#utility.yul\":2142:2147   */\n      dup2\n        /* \"#utility.yul\":2131:2147   */\n      swap1\n      pop\n        /* \"#utility.yul\":2076:2153   */\n      swap2\n      swap1\n      pop\n      jump\t// out\n        /* \"#utility.yul\":2159:2281   */\n    tag_112:\n        /* \"#utility.yul\":2232:2256   */\n      tag_146\n        /* \"#utility.yul\":2250:2255   */\n      dup2\n        /* \"#utility.yul\":2232:2256   */\n      tag_111\n      jump\t// in\n    tag_146:\n        /* \"#utility.yul\":2225:2230   */\n      dup2\n        /* \"#utility.yul\":2222:2257   */\n      eq\n        /* \"#utility.yul\":2212:2275   */\n      tag_147\n      jumpi\n        /* \"#utility.yul\":2271:2272   */\n      0x00\n        /* \"#utility.yul\":2268:2269   */\n      0x00\n        /* \"#utility.yul\":2261:2273   */\n      revert\n        /* \"#utility.yul\":2212:2275   */\n    tag_147:\n        /* \"#utility.yul\":2159:2281   */\n      pop\n      jump\t// out\n        /* \"#utility.yul\":2287:2426   */\n    tag_113:\n        /* \"#utility.yul\":2333:2338   */\n      0x00\n        /* \"#utility.yul\":2371:2377   */\n      dup2\n        /* \"#utility.yul\":2358:2378   */\n      calldataload\n        /* \"#utility.yul\":2349:2378   */\n      swap1\n      pop\n        /* \"#utility.yul\":2387:2420   */\n      tag_149\n        /* \"#utility.yul\":2414:2419   */\n      dup2\n        /* \"#utility.yul\":2387:2420   */\n      tag_112\n      jump\t// in\n    tag_149:\n        /* \"#utility.yul\":2287:2426   */\n      swap3\n      swap2\n      pop\n      pop\n      jump\t// out\n        /* \"#utility.yul\":2432:2906   */\n    tag_22:\n        /* \"#utility.yul\":2500:2506   */\n      0x00\n        /* \"#utility.yul\":2508:2514   */\n      0x00\n        /* \"#utility.yul\":2557:2559   */\n      0x40\n        /* \"#utility.yul\":2545:2554   */\n      dup4\n        /* \"#utility.yul\":2536:2543   */\n      dup6\n        /* \"#utility.yul\":2532:2555   */\n      sub\n        /* \"#utility.yul\":2528:2560   */\n      slt\n        /* \"#utility.yul\":2525:2644   */\n      iszero\n      tag_151\n      jumpi\n        /* \"#utility.yul\":2563:2642   */\n      tag_152\n      tag_105\n      jump\t// in\n    tag_152:\n        /* \"#utility.yul\":2525:2644   */\n    tag_151:\n        /* \"#utility.yul\":2683:2684   */\n      0x00\n        /* \"#utility.yul\":2708:2761   */\n      tag_153\n        /* \"#utility.yul\":2753:2760   */\n      dup6\n        /* \"#utility.yul\":2744:2750   */\n      dup3\n        /* \"#utility.yul\":2733:2742   */\n      dup7\n        /* \"#utility.yul\":2729:2751   */\n      add\n        /* \"#utility.yul\":2708:2761   */\n      tag_110\n      jump\t// in\n    tag_153:\n        /* \"#utility.yul\":2698:2761   */\n      swap3\n      pop\n        /* \"#utility.yul\":2654:2771   */\n      pop\n        /* \"#utility.yul\":2810:2812   */\n      0x20\n        /* \"#utility.yul\":2836:2889   */\n      tag_154\n        /* \"#utility.yul\":2881:2888   */\n      dup6\n        /* \"#utility.yul\":2872:2878   */\n      dup3\n        /* \"#utility.yul\":2861:2870   */\n      dup7\n        /* \"#utility.yul\":2857:2879   */\n      add\n        /* \"#utility.yul\":2836:2889   */\n      tag_113\n      jump\t// in\n    tag_154:\n        /* \"#utility.yul\":2826:2889   */\n      swap2\n      pop\n        /* \"#utility.yul\":2781:2899   */\n      pop\n        /* \"#utility.yul\":2432:2906   */\n      swap3\n      pop\n      swap3\n      swap1\n      pop\n      jump\t// out\n        /* \"#utility.yul\":2912:3002   */\n    tag_114:\n        /* \"#utility.yul\":2946:2953   */\n      0x00\n        /* \"#utility.yul\":2989:2994   */\n      dup2\n        /* \"#utility.yul\":2982:2995   */\n      iszero\n        /* \"#utility.yul\":2975:2996   */\n      iszero\n        /* \"#utility.yul\":2964:2996   */\n      swap1\n      pop\n        /* \"#utility.yul\":2912:3002   */\n      swap2\n      swap1\n      pop\n      jump\t// out\n        /* \"#utility.yul\":3008:3117   */\n    tag_115:\n        /* \"#utility.yul\":3089:3110   */\n      tag_157\n        /* \"#utility.yul\":3104:3109   */\n      dup2\n        /* \"#utility.yul\":3089:3110   */\n      tag_114\n      jump\t// in\n    tag_157:\n        /* \"#utility.yul\":3084:3087   */\n      dup3\n        /* \"#utility.yul\":3077:3111   */\n      mstore\n        /* \"#utility.yul\":3008:3117   */\n      pop\n      pop\n      jump\t// out\n        /* \"#utility.yul\":3123:3333   */\n    tag_25:\n        /* \"#utility.yul\":3210:3214   */\n      0x00\n        /* \"#utility.yul\":3248:3250   */\n      0x20\n        /* \"#utility.yul\":3237:3246   */\n      dup3\n        /* \"#utility.yul\":3233:3251   */\n      add\n        /* \"#utility.yul\":3225:3251   */\n      swap1\n      pop\n        /* \"#utility.yul\":3261:3326   */\n      tag_159\n        /* \"#utility.yul\":3323:3324   */\n      0x00\n        /* \"#utility.yul\":3312:3321   */\n      dup4\n        /* \"#utility.yul\":3308:3325   */\n      add\n        /* \"#utility.yul\":3299:3305   */\n      dup5\n        /* \"#utility.yul\":3261:3326   */\n      tag_115\n      jump\t// in\n    tag_159:\n        /* \"#utility.yul\":3123:3333   */\n      swap3\n      swap2\n      pop\n      pop\n      jump\t// out\n        /* \"#utility.yul\":3339:3457   */\n    tag_116:\n        /* \"#utility.yul\":3426:3450   */\n      tag_161\n        /* \"#utility.yul\":3444:3449   */\n      dup2\n        /* \"#utility.yul\":3426:3450   */\n      tag_111\n      jump\t// in\n    tag_161:\n        /* \"#utility.yul\":3421:3424   */\n      dup3\n        /* \"#utility.yul\":3414:3451   */\n      mstore\n        /* \"#utility.yul\":3339:3457   */\n      pop\n      pop\n      jump\t// out\n        /* \"#utility.yul\":3463:3685   */\n    tag_29:\n        /* \"#utility.yul\":3556:3560   */\n      0x00\n        /* \"#utility.yul\":3594:3596   */\n      0x20\n        /* \"#utility.yul\":3583:3592   */\n      dup3\n        /* \"#utility.yul\":3579:3597   */\n      add\n        /* \"#utility.yul\":3571:3597   */\n      swap1\n      pop\n        /* \"#utility.yul\":3607:3678   */\n      tag_163\n        /* \"#utility.yul\":3675:3676   */\n      0x00\n        /* \"#utility.yul\":3664:3673   */\n      dup4\n        /* \"#utility.yul\":3660:3677   */\n      add\n        /* \"#utility.yul\":3651:3657   */\n      dup5\n        /* \"#utility.yul\":3607:3678   */\n      tag_116\n      jump\t// in\n    tag_163:\n        /* \"#utility.yul\":3463:3685   */\n      swap3\n      swap2\n      pop\n      pop\n      jump\t// out\n        /* \"#utility.yul\":3691:4310   */\n    tag_32:\n        /* \"#utility.yul\":3768:3774   */\n      0x00\n        /* \"#utility.yul\":3776:3782   */\n      0x00\n        /* \"#utility.yul\":3784:3790   */\n      0x00\n        /* \"#utility.yul\":3833:3835   */\n      0x60\n        /* \"#utility.yul\":3821:3830   */\n      dup5\n        /* \"#utility.yul\":3812:3819   */\n      dup7\n        /* \"#utility.yul\":3808:3831   */\n      sub\n        /* \"#utility.yul\":3804:3836   */\n      slt\n        /* \"#utility.yul\":3801:3920   */\n      iszero\n      tag_165\n      jumpi\n        /* \"#utility.yul\":3839:3918   */\n      tag_166\n      tag_105\n      jump\t// in\n    tag_166:\n        /* \"#utility.yul\":3801:3920   */\n    tag_165:\n        /* \"#utility.yul\":3959:3960   */\n      0x00\n        /* \"#utility.yul\":3984:4037   */\n      tag_167\n        /* \"#utility.yul\":4029:4036   */\n      dup7\n        /* \"#utility.yul\":4020:4026   */\n      dup3\n        /* \"#utility.yul\":4009:4018   */\n      dup8\n        /* \"#utility.yul\":4005:4027   */\n      add\n        /* \"#utility.yul\":3984:4037   */\n      tag_110\n      jump\t// in\n    tag_167:\n        /* \"#utility.yul\":3974:4037   */\n      swap4\n      pop\n        /* \"#utility.yul\":3930:4047   */\n      pop\n        /* \"#utility.yul\":4086:4088   */\n      0x20\n        /* \"#utility.yul\":4112:4165   */\n      tag_168\n        /* \"#utility.yul\":4157:4164   */\n      dup7\n        /* \"#utility.yul\":4148:4154   */\n      dup3\n        /* \"#utility.yul\":4137:4146   */\n      dup8\n        /* \"#utility.yul\":4133:4155   */\n      add\n        /* \"#utility.yul\":4112:4165   */\n      tag_110\n      jump\t// in\n    tag_168:\n        /* \"#utility.yul\":4102:4165   */\n      swap3\n      pop\n        /* \"#utility.yul\":4057:4175   */\n      pop\n        /* \"#utility.yul\":4214:4216   */\n      0x40\n        /* \"#utility.yul\":4240:4293   */\n      tag_169\n        /* \"#utility.yul\":4285:4292   */\n      dup7\n        /* \"#utility.yul\":4276:4282   */\n      dup3\n        /* \"#utility.yul\":4265:4274   */\n      dup8\n        /* \"#utility.yul\":4261:4283   */\n      add\n        /* \"#utility.yul\":4240:4293   */\n      tag_113\n      jump\t// in\n    tag_169:\n        /* \"#utility.yul\":4230:4293   */\n      swap2\n      pop\n        /* \"#utility.yul\":4185:4303   */\n      pop\n        /* \"#utility.yul\":3691:4310   */\n      swap3\n      pop\n      swap3\n      pop\n      swap3\n      jump\t// out\n        /* \"#utility.yul\":4316:4645   */\n    tag_37:\n        /* \"#utility.yul\":4375:4381   */\n      0x00\n        /* \"#utility.yul\":4424:4426   */\n      0x20\n        /* \"#utility.yul\":4412:4421   */\n      dup3\n        /* \"#utility.yul\":4403:4410   */\n      dup5\n        /* \"#utility.yul\":4399:4422   */\n      sub\n        /* \"#utility.yul\":4395:4427   */\n      slt\n        /* \"#utility.yul\":4392:4511   */\n      iszero\n      tag_171\n      jumpi\n        /* \"#utility.yul\":4430:4509   */\n      tag_172\n      tag_105\n      jump\t// in\n    tag_172:\n        /* \"#utility.yul\":4392:4511   */\n    tag_171:\n        /* \"#utility.yul\":4550:4551   */\n      0x00\n        /* \"#utility.yul\":4575:4628   */\n      tag_173\n        /* \"#utility.yul\":4620:4627   */\n      dup5\n        /* \"#utility.yul\":4611:4617   */\n      dup3\n        /* \"#utility.yul\":4600:4609   */\n      dup6\n        /* \"#utility.yul\":4596:4618   */\n      add\n        /* \"#utility.yul\":4575:4628   */\n      tag_110\n      jump\t// in\n    tag_173:\n        /* \"#utility.yul\":4565:4628   */\n      swap2\n      pop\n        /* \"#utility.yul\":4521:4638   */\n      pop\n        /* \"#utility.yul\":4316:4645   */\n      swap3\n      swap2\n      pop\n      pop\n      jump\t// out\n        /* \"#utility.yul\":4651:4737   */\n    tag_117:\n        /* \"#utility.yul\":4686:4693   */\n      0x00\n        /* \"#utility.yul\":4726:4730   */\n      0xff\n        /* \"#utility.yul\":4719:4724   */\n      dup3\n        /* \"#utility.yul\":4715:4731   */\n      and\n        /* \"#utility.yul\":4704:4731   */\n      swap1\n      pop\n        /* \"#utility.yul\":4651:4737   */\n      swap2\n      swap1\n      pop\n      jump\t// out\n        /* \"#utility.yul\":4743:4855   */\n    tag_118:\n        /* \"#utility.yul\":4826:4848   */\n      tag_176\n        /* \"#utility.yul\":4842:4847   */\n      dup2\n        /* \"#utility.yul\":4826:4848   */\n      tag_117\n      jump\t// in\n    tag_176:\n        /* \"#utility.yul\":4821:4824   */\n      dup3\n        /* \"#utility.yul\":4814:4849   */\n      mstore\n        /* \"#utility.yul\":4743:4855   */\n      pop\n      pop\n      jump\t// out\n        /* \"#utility.yul\":4861:5075   */\n    tag_43:\n        /* \"#utility.yul\":4950:4954   */\n      0x00\n        /* \"#utility.yul\":4988:4990   */\n      0x20\n        /* \"#utility.yul\":4977:4986   */\n      dup3\n        /* \"#utility.yul\":4973:4991   */\n      add\n        /* \"#utility.yul\":4965:4991   */\n      swap1\n      pop\n        /* \"#utility.yul\":5001:5068   */\n      tag_178\n        /* \"#utility.yul\":5065:5066   */\n      0x00\n        /* \"#utility.yul\":5054:5063   */\n      dup4\n        /* \"#utility.yul\":5050:5067   */\n      add\n        /* \"#utility.yul\":5041:5047   */\n      dup5\n        /* \"#utility.yul\":5001:5068   */\n      tag_118\n      jump\t// in\n    tag_178:\n        /* \"#utility.yul\":4861:5075   */\n      swap3\n      swap2\n      pop\n      pop\n      jump\t// out\n        /* \"#utility.yul\":5081:5410   */\n    tag_46:\n        /* \"#utility.yul\":5140:5146   */\n      0x00\n        /* \"#utility.yul\":5189:5191   */\n      0x20\n        /* \"#utility.yul\":5177:5186   */\n      dup3\n        /* \"#utility.yul\":5168:5175   */\n      dup5\n        /* \"#utility.yul\":5164:5187   */\n      sub\n        /* \"#utility.yul\":5160:5192   */\n      slt\n        /* \"#utility.yul\":5157:5276   */\n      iszero\n      tag_180\n      jumpi\n        /* \"#utility.yul\":5195:5274   */\n      tag_181\n      tag_105\n      jump\t// in\n    tag_181:\n        /* \"#utility.yul\":5157:5276   */\n    tag_180:\n        /* \"#utility.yul\":5315:5316   */\n      0x00\n        /* \"#utility.yul\":5340:5393   */\n      tag_182\n        /* \"#utility.yul\":5385:5392   */\n      dup5\n        /* \"#utility.yul\":5376:5382   */\n      dup3\n        /* \"#utility.yul\":5365:5374   */\n      dup6\n        /* \"#utility.yul\":5361:5383   */\n      add\n        /* \"#utility.yul\":5340:5393   */\n      tag_113\n      jump\t// in\n    tag_182:\n        /* \"#utility.yul\":5330:5393   */\n      swap2\n      pop\n        /* \"#utility.yul\":5286:5403   */\n      pop\n        /* \"#utility.yul\":5081:5410   */\n      swap3\n      swap2\n      pop\n      pop\n      jump\t// out\n        /* \"#utility.yul\":5416:5890   */\n    tag_64:\n        /* \"#utility.yul\":5484:5490   */\n      0x00\n        /* \"#utility.yul\":5492:5498   */\n      0x00\n        /* \"#utility.yul\":5541:5543   */\n      0x40\n        /* \"#utility.yul\":5529:5538   */\n      dup4\n        /* \"#utility.yul\":5520:5527   */\n      dup6\n        /* \"#utility.yul\":5516:5539   */\n      sub\n        /* \"#utility.yul\":5512:5544   */\n      slt\n        /* \"#utility.yul\":5509:5628   */\n      iszero\n      tag_184\n      jumpi\n        /* \"#utility.yul\":5547:5626   */\n      tag_185\n      tag_105\n      jump\t// in\n    tag_185:\n        /* \"#utility.yul\":5509:5628   */\n    tag_184:\n        /* \"#utility.yul\":5667:5668   */\n      0x00\n        /* \"#utility.yul\":5692:5745   */\n      tag_186\n        /* \"#utility.yul\":5737:5744   */\n      dup6\n        /* \"#utility.yul\":5728:5734   */\n      dup3\n        /* \"#utility.yul\":5717:5726   */\n      dup7\n        /* \"#utility.yul\":5713:5735   */\n      add\n        /* \"#utility.yul\":5692:5745   */\n      tag_110\n      jump\t// in\n    tag_186:\n        /* \"#utility.yul\":5682:5745   */\n      swap3\n      pop\n        /* \"#utility.yul\":5638:5755   */\n      pop\n        /* \"#utility.yul\":5794:5796   */\n      0x20\n        /* \"#utility.yul\":5820:5873   */\n      tag_187\n        /* \"#utility.yul\":5865:5872   */\n      dup6\n        /* \"#utility.yul\":5856:5862   */\n      dup3\n        /* \"#utility.yul\":5845:5854   */\n      dup7\n        /* \"#utility.yul\":5841:5863   */\n      add\n        /* \"#utility.yul\":5820:5873   */\n      tag_110\n      jump\t// in\n    tag_187:\n        /* \"#utility.yul\":5810:5873   */\n      swap2\n      pop\n        /* \"#utility.yul\":5765:5883   */\n      pop\n        /* \"#utility.yul\":5416:5890   */\n      swap3\n      pop\n      swap3\n      swap1\n      pop\n      jump\t// out\n        /* \"#utility.yul\":5896:6076   */\n    tag_119:\n        /* \"#utility.yul\":5944:6021   */\n      0x4e487b7100000000000000000000000000000000000000000000000000000000\n        /* \"#utility.yul\":5941:5942   */\n      0x00\n        /* \"#utility.yul\":5934:6022   */\n      mstore\n        /* \"#utility.yul\":6041:6045   */\n      0x22\n        /* \"#utility.yul\":6038:6039   */\n      0x04\n        /* \"#utility.yul\":6031:6046   */\n      mstore\n        /* \"#utility.yul\":6065:6069   */\n      0x24\n        /* \"#utility.yul\":6062:6063   */\n      0x00\n        /* \"#utility.yul\":6055:6070   */\n      revert\n        /* \"#utility.yul\":6082:6402   */\n    tag_68:\n        /* \"#utility.yul\":6126:6132   */\n      0x00\n        /* \"#utility.yul\":6163:6164   */\n      0x02\n        /* \"#utility.yul\":6157:6161   */\n      dup3\n        /* \"#utility.yul\":6153:6165   */\n      div\n        /* \"#utility.yul\":6143:6165   */\n      swap1\n      pop\n        /* \"#utility.yul\":6210:6211   */\n      0x01\n        /* \"#utility.yul\":6204:6208   */\n      dup3\n        /* \"#utility.yul\":6200:6212   */\n      and\n        /* \"#utility.yul\":6231:6249   */\n      dup1\n        /* \"#utility.yul\":6221:6302   */\n      tag_190\n      jumpi\n        /* \"#utility.yul\":6287:6291   */\n      0x7f\n        /* \"#utility.yul\":6279:6285   */\n      dup3\n        /* \"#utility.yul\":6275:6292   */\n      and\n        /* \"#utility.yul\":6265:6292   */\n      swap2\n      pop\n        /* \"#utility.yul\":6221:6302   */\n    tag_190:\n        /* \"#utility.yul\":6349:6351   */\n      0x20\n        /* \"#utility.yul\":6341:6347   */\n      dup3\n        /* \"#utility.yul\":6338:6352   */\n      lt\n        /* \"#utility.yul\":6318:6336   */\n      dup2\n        /* \"#utility.yul\":6315:6353   */\n      sub\n        /* \"#utility.yul\":6312:6396   */\n      tag_191\n      jumpi\n        /* \"#utility.yul\":6368:6386   */\n      tag_192\n      tag_119\n      jump\t// in\n    tag_192:\n        /* \"#utility.yul\":6312:6396   */\n    tag_191:\n        /* \"#utility.yul\":6133:6402   */\n      pop\n        /* \"#utility.yul\":6082:6402   */\n      swap2\n      swap1\n      pop\n      jump\t// out\n        /* \"#utility.yul\":6408:6588   */\n    tag_120:\n        /* \"#utility.yul\":6456:6533   */\n      0x4e487b7100000000000000000000000000000000000000000000000000000000\n        /* \"#utility.yul\":6453:6454   */\n      0x00\n        /* \"#utility.yul\":6446:6534   */\n      mstore\n        /* \"#utility.yul\":6553:6557   */\n      0x11\n        /* \"#utility.yul\":6550:6551   */\n      0x04\n        /* \"#utility.yul\":6543:6558   */\n      mstore\n        /* \"#utility.yul\":6577:6581   */\n      0x24\n        /* \"#utility.yul\":6574:6575   */\n      0x00\n        /* \"#utility.yul\":6567:6582   */\n      revert\n        /* \"#utility.yul\":6594:6788   */\n    tag_77:\n        /* \"#utility.yul\":6634:6638   */\n      0x00\n        /* \"#utility.yul\":6654:6674   */\n      tag_195\n        /* \"#utility.yul\":6672:6673   */\n      dup3\n        /* \"#utility.yul\":6654:6674   */\n      tag_111\n      jump\t// in\n    tag_195:\n        /* \"#utility.yul\":6649:6674   */\n      swap2\n      pop\n        /* \"#utility.yul\":6688:6708   */\n      tag_196\n        /* \"#utility.yul\":6706:6707   */\n      dup4\n        /* \"#utility.yul\":6688:6708   */\n      tag_111\n      jump\t// in\n    tag_196:\n        /* \"#utility.yul\":6683:6708   */\n      swap3\n      pop\n        /* \"#utility.yul\":6732:6733   */\n      dup3\n        /* \"#utility.yul\":6729:6730   */\n      dup3\n        /* \"#utility.yul\":6725:6734   */\n      sub\n        /* \"#utility.yul\":6717:6734   */\n      swap1\n      pop\n        /* \"#utility.yul\":6756:6757   */\n      dup2\n        /* \"#utility.yul\":6750:6754   */\n      dup2\n        /* \"#utility.yul\":6747:6758   */\n      gt\n        /* \"#utility.yul\":6744:6781   */\n      iszero\n      tag_197\n      jumpi\n        /* \"#utility.yul\":6761:6779   */\n      tag_198\n      tag_120\n      jump\t// in\n    tag_198:\n        /* \"#utility.yul\":6744:6781   */\n    tag_197:\n        /* \"#utility.yul\":6594:6788   */\n      swap3\n      swap2\n      pop\n      pop\n      jump\t// out\n        /* \"#utility.yul\":6794:6985   */\n    tag_79:\n        /* \"#utility.yul\":6834:6837   */\n      0x00\n        /* \"#utility.yul\":6853:6873   */\n      tag_200\n        /* \"#utility.yul\":6871:6872   */\n      dup3\n        /* \"#utility.yul\":6853:6873   */\n      tag_111\n      jump\t// in\n    tag_200:\n        /* \"#utility.yul\":6848:6873   */\n      swap2\n      pop\n        /* \"#utility.yul\":6887:6907   */\n      tag_201\n        /* \"#utility.yul\":6905:6906   */\n      dup4\n        /* \"#utility.yul\":6887:6907   */\n      tag_111\n      jump\t// in\n    tag_201:\n        /* \"#utility.yul\":6882:6907   */\n      swap3\n      pop\n        /* \"#utility.yul\":6930:6931   */\n      dup3\n        /* \"#utility.yul\":6927:6928   */\n      dup3\n        /* \"#utility.yul\":6923:6932   */\n      add\n        /* \"#utility.yul\":6916:6932   */\n      swap1\n      pop\n        /* \"#utility.yul\":6951:6954   */\n      dup1\n        /* \"#utility.yul\":6948:6949   */\n      dup3\n        /* \"#utility.yul\":6945:6955   */\n      gt\n        /* \"#utility.yul\":6942:6978   */\n      iszero\n      tag_202\n      jumpi\n        /* \"#utility.yul\":6958:6976   */\n      tag_203\n      tag_120\n      jump\t// in\n    tag_203:\n        /* \"#utility.yul\":6942:6978   */\n    tag_202:\n        /* \"#utility.yul\":6794:6985   */\n      swap3\n      swap2\n      pop\n      pop\n      jump\t// out\n\n    auxdata: 0xa26469706673582212207c99ce94c3597b26542f69a5e3f8625f83f143f9e1c15512ce1b97cd6453d5d464736f6c634300081e0033\n}\n",
				"bytecode": {
					"linkReferences": {},
					"object": "6080604052601260035f6101000a81548160ff021916908360ff16021790555034801561002a575f5ffd5b50604051611203380380611203833981810160405281019061004c91906101c0565b816001908161005b9190610446565b50806002908161006b9190610446565b505050610515565b5f604051905090565b5f5ffd5b5f5ffd5b5f5ffd5b5f5ffd5b5f601f19601f8301169050919050565b7f4e487b71000000000000000000000000000000000000000000000000000000005f52604160045260245ffd5b6100d28261008c565b810181811067ffffffffffffffff821117156100f1576100f061009c565b5b80604052505050565b5f610103610073565b905061010f82826100c9565b919050565b5f67ffffffffffffffff82111561012e5761012d61009c565b5b6101378261008c565b9050602081019050919050565b8281835e5f83830152505050565b5f61016461015f84610114565b6100fa565b9050828152602081018484840111156101805761017f610088565b5b61018b848285610144565b509392505050565b5f82601f8301126101a7576101a6610084565b5b81516101b7848260208601610152565b91505092915050565b5f5f604083850312156101d6576101d561007c565b5b5f83015167ffffffffffffffff8111156101f3576101f2610080565b5b6101ff85828601610193565b925050602083015167ffffffffffffffff8111156102205761021f610080565b5b61022c85828601610193565b9150509250929050565b5f81519050919050565b7f4e487b71000000000000000000000000000000000000000000000000000000005f52602260045260245ffd5b5f600282049050600182168061028457607f821691505b60208210810361029757610296610240565b5b50919050565b5f819050815f5260205f209050919050565b5f6020601f8301049050919050565b5f82821b905092915050565b5f600883026102f97fffffffffffffffffffffffffffffffffffffffffffffffffffffffffffffffff826102be565b61030386836102be565b95508019841693508086168417925050509392505050565b5f819050919050565b5f819050919050565b5f61034761034261033d8461031b565b610324565b61031b565b9050919050565b5f819050919050565b6103608361032d565b61037461036c8261034e565b8484546102ca565b825550505050565b5f5f905090565b61038b61037c565b610396818484610357565b505050565b5b818110156103b9576103ae5f82610383565b60018101905061039c565b5050565b601f8211156103fe576103cf8161029d565b6103d8846102af565b810160208510156103e7578190505b6103fb6103f3856102af565b83018261039b565b50505b505050565b5f82821c905092915050565b5f61041e5f1984600802610403565b1980831691505092915050565b5f610436838361040f565b9150826002028217905092915050565b61044f82610236565b67ffffffffffffffff8111156104685761046761009c565b5b610472825461026d565b61047d8282856103bd565b5f60209050601f8311600181146104ae575f841561049c578287015190505b6104a6858261042b565b86555061050d565b601f1984166104bc8661029d565b5f5b828110156104e3578489015182556001820191506020850194506020810190506104be565b8683101561050057848901516104fc601f89168261040f565b8355505b6001600288020188555050505b505050505050565b610ce1806105225f395ff3fe608060405234801561000f575f5ffd5b50600436106100b2575f3560e01c806342966c681161006f57806342966c68146101a057806370a08231146101bc57806395d89b41146101ec578063a0712d681461020a578063a9059cbb14610226578063dd62ed3e14610256576100b2565b806306fdde03146100b6578063095ea7b3146100d457806318160ddd1461010457806323b872dd1461012257806327e235e314610152578063313ce56714610182575b5f5ffd5b6100be610286565b6040516100cb9190610959565b60405180910390f35b6100ee60048036038101906100e99190610a0a565b610312565b6040516100fb9190610a62565b60405180910390f35b61010c6103ff565b6040516101199190610a8a565b60405180910390f35b61013c60048036038101906101379190610aa3565b610405565b6040516101499190610a62565b60405180910390f35b61016c60048036038101906101679190610af3565b61051a565b6040516101799190610a8a565b60405180910390f35b61018a61052e565b6040516101979190610b39565b60405180910390f35b6101ba60048036038101906101b59190610b52565b610540565b005b6101d660048036038101906101d19190610af3565b610612565b6040516101e39190610a8a565b60405180910390f35b6101f4610657565b6040516102019190610959565b60405180910390f35b610224600480360381019061021f9190610b52565b6106e3565b005b610240600480360381019061023b9190610a0a565b6107b5565b60405161024d9190610a62565b60405180910390f35b610270600480360381019061026b9190610b7d565b6108c9565b60405161027d9190610a8a565b60405180910390f35b6001805461029390610be8565b80601f01602080910402602001604051908101604052809291908181526020018280546102bf90610be8565b801561030a5780601f106102e15761010080835404028352916020019161030a565b820191905f5260205f20905b8154815290600101906020018083116102ed57829003601f168201915b505050505081565b5f8160045f3373ffffffffffffffffffffffffffffffffffffffff1673ffffffffffffffffffffffffffffffffffffffff1681526020019081526020015f205f8573ffffffffffffffffffffffffffffffffffffffff1673ffffffffffffffffffffffffffffffffffffffff1681526020019081526020015f20819055508273ffffffffffffffffffffffffffffffffffffffff163373ffffffffffffffffffffffffffffffffffffffff167f8c5be1e5ebec7d5bd14f71427d1e84f3dd0314c0f7b2291e5b200ac8c7c3b925846040516103ed9190610a8a565b60405180910390a36001905092915050565b60055481565b5f815f5f8673ffffffffffffffffffffffffffffffffffffffff1673ffffffffffffffffffffffffffffffffffffffff1681526020019081526020015f205f8282546104519190610c45565b92505081905550815f5f8573ffffffffffffffffffffffffffffffffffffffff1673ffffffffffffffffffffffffffffffffffffffff1681526020019081526020015f205f8282546104a39190610c78565b925050819055508273ffffffffffffffffffffffffffffffffffffffff168473ffffffffffffffffffffffffffffffffffffffff167fddf252ad1be2c89b69c2b068fc378daa952ba7f163c4a11628f55a4df523b3ef846040516105079190610a8a565b60405180910390a3600190509392505050565b5f602052805f5260405f205f915090505481565b60035f9054906101000a900460ff1681565b805f5f3373ffffffffffffffffffffffffffffffffffffffff1673ffffffffffffffffffffffffffffffffffffffff1681526020019081526020015f205f82825461058b9190610c45565b925050819055508060055f8282546105a39190610c45565b925050819055505f73ffffffffffffffffffffffffffffffffffffffff163373ffffffffffffffffffffffffffffffffffffffff167fddf252ad1be2c89b69c2b068fc378daa952ba7f163c4a11628f55a4df523b3ef836040516106079190610a8a565b60405180910390a350565b5f5f5f8373ffffffffffffffffffffffffffffffffffffffff1673ffffffffffffffffffffffffffffffffffffffff1681526020019081526020015f20549050919050565b6002805461066490610be8565b80601f016020809104026020016040519081016040528092919081815260200182805461069090610be8565b80156106db5780601f106106b2576101008083540402835291602001916106db565b820191905f5260205f20905b8154815290600101906020018083116106be57829003601f168201915b505050505081565b805f5f3373ffffffffffffffffffffffffffffffffffffffff1673ffffffffffffffffffffffffffffffffffffffff1681526020019081526020015f205f82825461072e9190610c78565b925050819055508060055f8282546107469190610c78565b925050819055503373ffffffffffffffffffffffffffffffffffffffff165f73ffffffffffffffffffffffffffffffffffffffff167fddf252ad1be2c89b69c2b068fc378daa952ba7f163c4a11628f55a4df523b3ef836040516107aa9190610a8a565b60405180910390a350565b5f815f5f3373ffffffffffffffffffffffffffffffffffffffff1673ffffffffffffffffffffffffffffffffffffffff1681526020019081526020015f205f8282546108019190610c45565b92505081905550815f5f8573ffffffffffffffffffffffffffffffffffffffff1673ffffffffffffffffffffffffffffffffffffffff1681526020019081526020015f205f8282546108539190610c78565b925050819055508273ffffffffffffffffffffffffffffffffffffffff163373ffffffffffffffffffffffffffffffffffffffff167fddf252ad1be2c89b69c2b068fc378daa952ba7f163c4a11628f55a4df523b3ef846040516108b79190610a8a565b60405180910390a36001905092915050565b6004602052815f5260405f20602052805f5260405f205f91509150505481565b5f81519050919050565b5f82825260208201905092915050565b8281835e5f83830152505050565b5f601f19601f8301169050919050565b5f61092b826108e9565b61093581856108f3565b9350610945818560208601610903565b61094e81610911565b840191505092915050565b5f6020820190508181035f8301526109718184610921565b905092915050565b5f5ffd5b5f73ffffffffffffffffffffffffffffffffffffffff82169050919050565b5f6109a68261097d565b9050919050565b6109b68161099c565b81146109c0575f5ffd5b50565b5f813590506109d1816109ad565b92915050565b5f819050919050565b6109e9816109d7565b81146109f3575f5ffd5b50565b5f81359050610a04816109e0565b92915050565b5f5f60408385031215610a2057610a1f610979565b5b5f610a2d858286016109c3565b9250506020610a3e858286016109f6565b9150509250929050565b5f8115159050919050565b610a5c81610a48565b82525050565b5f602082019050610a755f830184610a53565b92915050565b610a84816109d7565b82525050565b5f602082019050610a9d5f830184610a7b565b92915050565b5f5f5f60608486031215610aba57610ab9610979565b5b5f610ac7868287016109c3565b9350506020610ad8868287016109c3565b9250506040610ae9868287016109f6565b9150509250925092565b5f60208284031215610b0857610b07610979565b5b5f610b15848285016109c3565b91505092915050565b5f60ff82169050919050565b610b3381610b1e565b82525050565b5f602082019050610b4c5f830184610b2a565b92915050565b5f60208284031215610b6757610b66610979565b5b5f610b74848285016109f6565b91505092915050565b5f5f60408385031215610b9357610b92610979565b5b5f610ba0858286016109c3565b9250506020610bb1858286016109c3565b9150509250929050565b7f4e487b71000000000000000000000000000000000000000000000000000000005f52602260045260245ffd5b5f6002820490506001821680610bff57607f821691505b602082108103610c1257610c11610bbb565b5b50919050565b7f4e487b71000000000000000000000000000000000000000000000000000000005f52601160045260245ffd5b5f610c4f826109d7565b9150610c5a836109d7565b9250828203905081811115610c7257610c71610c18565b5b92915050565b5f610c82826109d7565b9150610c8d836109d7565b9250828201905080821115610ca557610ca4610c18565b5b9291505056fea26469706673582212207c99ce94c3597b26542f69a5e3f8625f83f143f9e1c15512ce1b97cd6453d5d464736f6c634300081e0033",
					"opcodes": "PUSH1 0x80 PUSH1 0x40 MSTORE PUSH1 0x12 PUSH1 0x3 PUSH0 PUSH2 0x100 EXP DUP2 SLOAD DUP2 PUSH1 0xFF MUL NOT AND SWAP1 DUP4 PUSH1 0xFF AND MUL OR SWAP1 SSTORE POP CALLVALUE DUP1 ISZERO PUSH2 0x2A JUMPI PUSH0 PUSH0 REVERT JUMPDEST POP PUSH1 0x40 MLOAD PUSH2 0x1203 CODESIZE SUB DUP1 PUSH2 0x1203 DUP4 CODECOPY DUP2 DUP2 ADD PUSH1 0x40 MSTORE DUP2 ADD SWAP1 PUSH2 0x4C SWAP2 SWAP1 PUSH2 0x1C0 JUMP JUMPDEST DUP2 PUSH1 0x1 SWAP1 DUP2 PUSH2 0x5B SWAP2 SWAP1 PUSH2 0x446 JUMP JUMPDEST POP DUP1 PUSH1 0x2 SWAP1 DUP2 PUSH2 0x6B SWAP2 SWAP1 PUSH2 0x446 JUMP JUMPDEST POP POP POP PUSH2 0x515 JUMP JUMPDEST PUSH0 PUSH1 0x40 MLOAD SWAP1 POP SWAP1 JUMP JUMPDEST PUSH0 PUSH0 REVERT JUMPDEST PUSH0 PUSH0 REVERT JUMPDEST PUSH0 PUSH0 REVERT JUMPDEST PUSH0 PUSH0 REVERT JUMPDEST PUSH0 PUSH1 0x1F NOT PUSH1 0x1F DUP4 ADD AND SWAP1 POP SWAP2 SWAP1 POP JUMP JUMPDEST PUSH32 0x4E487B7100000000000000000000000000000000000000000000000000000000 PUSH0 MSTORE PUSH1 0x41 PUSH1 0x4 MSTORE PUSH1 0x24 PUSH0 REVERT JUMPDEST PUSH2 0xD2 DUP3 PUSH2 0x8C JUMP JUMPDEST DUP2 ADD DUP2 DUP2 LT PUSH8 0xFFFFFFFFFFFFFFFF DUP3 GT OR ISZERO PUSH2 0xF1 JUMPI PUSH2 0xF0 PUSH2 0x9C JUMP JUMPDEST JUMPDEST DUP1 PUSH1 0x40 MSTORE POP POP POP JUMP JUMPDEST PUSH0 PUSH2 0x103 PUSH2 0x73 JUMP JUMPDEST SWAP1 POP PUSH2 0x10F DUP3 DUP3 PUSH2 0xC9 JUMP JUMPDEST SWAP2 SWAP1 POP JUMP JUMPDEST PUSH0 PUSH8 0xFFFFFFFFFFFFFFFF DUP3 GT ISZERO PUSH2 0x12E JUMPI PUSH2 0x12D PUSH2 0x9C JUMP JUMPDEST JUMPDEST PUSH2 0x137 DUP3 PUSH2 0x8C JUMP JUMPDEST SWAP1 POP PUSH1 0x20 DUP2 ADD SWAP1 POP SWAP2 SWAP1 POP JUMP JUMPDEST DUP3 DUP2 DUP4 MCOPY PUSH0 DUP4 DUP4 ADD MSTORE POP POP POP JUMP JUMPDEST PUSH0 PUSH2 0x164 PUSH2 0x15F DUP5 PUSH2 0x114 JUMP JUMPDEST PUSH2 0xFA JUMP JUMPDEST SWAP1 POP DUP3 DUP2 MSTORE PUSH1 0x20 DUP2 ADD DUP5 DUP5 DUP5 ADD GT ISZERO PUSH2 0x180 JUMPI PUSH2 0x17F PUSH2 0x88 JUMP JUMPDEST JUMPDEST PUSH2 0x18B DUP5 DUP3 DUP6 PUSH2 0x144 JUMP JUMPDEST POP SWAP4 SWAP3 POP POP POP JUMP JUMPDEST PUSH0 DUP3 PUSH1 0x1F DUP4 ADD SLT PUSH2 0x1A7 JUMPI PUSH2 0x1A6 PUSH2 0x84 JUMP JUMPDEST JUMPDEST DUP2 MLOAD PUSH2 0x1B7 DUP5 DUP3 PUSH1 0x20 DUP7 ADD PUSH2 0x152 JUMP JUMPDEST SWAP2 POP POP SWAP3 SWAP2 POP POP JUMP JUMPDEST PUSH0 PUSH0 PUSH1 0x40 DUP4 DUP6 SUB SLT ISZERO PUSH2 0x1D6 JUMPI PUSH2 0x1D5 PUSH2 0x7C JUMP JUMPDEST JUMPDEST PUSH0 DUP4 ADD MLOAD PUSH8 0xFFFFFFFFFFFFFFFF DUP2 GT ISZERO PUSH2 0x1F3 JUMPI PUSH2 0x1F2 PUSH2 0x80 JUMP JUMPDEST JUMPDEST PUSH2 0x1FF DUP6 DUP3 DUP7 ADD PUSH2 0x193 JUMP JUMPDEST SWAP3 POP POP PUSH1 0x20 DUP4 ADD MLOAD PUSH8 0xFFFFFFFFFFFFFFFF DUP2 GT ISZERO PUSH2 0x220 JUMPI PUSH2 0x21F PUSH2 0x80 JUMP JUMPDEST JUMPDEST PUSH2 0x22C DUP6 DUP3 DUP7 ADD PUSH2 0x193 JUMP JUMPDEST SWAP2 POP POP SWAP3 POP SWAP3 SWAP1 POP JUMP JUMPDEST PUSH0 DUP2 MLOAD SWAP1 POP SWAP2 SWAP1 POP JUMP JUMPDEST PUSH32 0x4E487B7100000000000000000000000000000000000000000000000000000000 PUSH0 MSTORE PUSH1 0x22 PUSH1 0x4 MSTORE PUSH1 0x24 PUSH0 REVERT JUMPDEST PUSH0 PUSH1 0x2 DUP3 DIV SWAP1 POP PUSH1 0x1 DUP3 AND DUP1 PUSH2 0x284 JUMPI PUSH1 0x7F DUP3 AND SWAP2 POP JUMPDEST PUSH1 0x20 DUP3 LT DUP2 SUB PUSH2 0x297 JUMPI PUSH2 0x296 PUSH2 0x240 JUMP JUMPDEST JUMPDEST POP SWAP2 SWAP1 POP JUMP JUMPDEST PUSH0 DUP2 SWAP1 POP DUP2 PUSH0 MSTORE PUSH1 0x20 PUSH0 KECCAK256 SWAP1 POP SWAP2 SWAP1 POP JUMP JUMPDEST PUSH0 PUSH1 0x20 PUSH1 0x1F DUP4 ADD DIV SWAP1 POP SWAP2 SWAP1 POP JUMP JUMPDEST PUSH0 DUP3 DUP3 SHL SWAP1 POP SWAP3 SWAP2 POP POP JUMP JUMPDEST PUSH0 PUSH1 0x8 DUP4 MUL PUSH2 0x2F9 PUSH32 0xFFFFFFFFFFFFFFFFFFFFFFFFFFFFFFFFFFFFFFFFFFFFFFFFFFFFFFFFFFFFFFFF DUP3 PUSH2 0x2BE JUMP JUMPDEST PUSH2 0x303 DUP7 DUP4 PUSH2 0x2BE JUMP JUMPDEST SWAP6 POP DUP1 NOT DUP5 AND SWAP4 POP DUP1 DUP7 AND DUP5 OR SWAP3 POP POP POP SWAP4 SWAP3 POP POP POP JUMP JUMPDEST PUSH0 DUP2 SWAP1 POP SWAP2 SWAP1 POP JUMP JUMPDEST PUSH0 DUP2 SWAP1 POP SWAP2 SWAP1 POP JUMP JUMPDEST PUSH0 PUSH2 0x347 PUSH2 0x342 PUSH2 0x33D DUP5 PUSH2 0x31B JUMP JUMPDEST PUSH2 0x324 JUMP JUMPDEST PUSH2 0x31B JUMP JUMPDEST SWAP1 POP SWAP2 SWAP1 POP JUMP JUMPDEST PUSH0 DUP2 SWAP1 POP SWAP2 SWAP1 POP JUMP JUMPDEST PUSH2 0x360 DUP4 PUSH2 0x32D JUMP JUMPDEST PUSH2 0x374 PUSH2 0x36C DUP3 PUSH2 0x34E JUMP JUMPDEST DUP5 DUP5 SLOAD PUSH2 0x2CA JUMP JUMPDEST DUP3 SSTORE POP POP POP POP JUMP JUMPDEST PUSH0 PUSH0 SWAP1 POP SWAP1 JUMP JUMPDEST PUSH2 0x38B PUSH2 0x37C JUMP JUMPDEST PUSH2 0x396 DUP2 DUP5 DUP5 PUSH2 0x357 JUMP JUMPDEST POP POP POP JUMP JUMPDEST JUMPDEST DUP2 DUP2 LT ISZERO PUSH2 0x3B9 JUMPI PUSH2 0x3AE PUSH0 DUP3 PUSH2 0x383 JUMP JUMPDEST PUSH1 0x1 DUP2 ADD SWAP1 POP PUSH2 0x39C JUMP JUMPDEST POP POP JUMP JUMPDEST PUSH1 0x1F DUP3 GT ISZERO PUSH2 0x3FE JUMPI PUSH2 0x3CF DUP2 PUSH2 0x29D JUMP JUMPDEST PUSH2 0x3D8 DUP5 PUSH2 0x2AF JUMP JUMPDEST DUP2 ADD PUSH1 0x20 DUP6 LT ISZERO PUSH2 0x3E7 JUMPI DUP2 SWAP1 POP JUMPDEST PUSH2 0x3FB PUSH2 0x3F3 DUP6 PUSH2 0x2AF JUMP JUMPDEST DUP4 ADD DUP3 PUSH2 0x39B JUMP JUMPDEST POP POP JUMPDEST POP POP POP JUMP JUMPDEST PUSH0 DUP3 DUP3 SHR SWAP1 POP SWAP3 SWAP2 POP POP JUMP JUMPDEST PUSH0 PUSH2 0x41E PUSH0 NOT DUP5 PUSH1 0x8 MUL PUSH2 0x403 JUMP JUMPDEST NOT DUP1 DUP4 AND SWAP2 POP POP SWAP3 SWAP2 POP POP JUMP JUMPDEST PUSH0 PUSH2 0x436 DUP4 DUP4 PUSH2 0x40F JUMP JUMPDEST SWAP2 POP DUP3 PUSH1 0x2 MUL DUP3 OR SWAP1 POP SWAP3 SWAP2 POP POP JUMP JUMPDEST PUSH2 0x44F DUP3 PUSH2 0x236 JUMP JUMPDEST PUSH8 0xFFFFFFFFFFFFFFFF DUP2 GT ISZERO PUSH2 0x468 JUMPI PUSH2 0x467 PUSH2 0x9C JUMP JUMPDEST JUMPDEST PUSH2 0x472 DUP3 SLOAD PUSH2 0x26D JUMP JUMPDEST PUSH2 0x47D DUP3 DUP3 DUP6 PUSH2 0x3BD JUMP JUMPDEST PUSH0 PUSH1 0x20 SWAP1 POP PUSH1 0x1F DUP4 GT PUSH1 0x1 DUP2 EQ PUSH2 0x4AE JUMPI PUSH0 DUP5 ISZERO PUSH2 0x49C JUMPI DUP3 DUP8 ADD MLOAD SWAP1 POP JUMPDEST PUSH2 0x4A6 DUP6 DUP3 PUSH2 0x42B JUMP JUMPDEST DUP7 SSTORE POP PUSH2 0x50D JUMP JUMPDEST PUSH1 0x1F NOT DUP5 AND PUSH2 0x4BC DUP7 PUSH2 0x29D JUMP JUMPDEST PUSH0 JUMPDEST DUP3 DUP2 LT ISZERO PUSH2 0x4E3 JUMPI DUP5 DUP10 ADD MLOAD DUP3 SSTORE PUSH1 0x1 DUP3 ADD SWAP2 POP PUSH1 0x20 DUP6 ADD SWAP5 POP PUSH1 0x20 DUP2 ADD SWAP1 POP PUSH2 0x4BE JUMP JUMPDEST DUP7 DUP4 LT ISZERO PUSH2 0x500 JUMPI DUP5 DUP10 ADD MLOAD PUSH2 0x4FC PUSH1 0x1F DUP10 AND DUP3 PUSH2 0x40F JUMP JUMPDEST DUP4 SSTORE POP JUMPDEST PUSH1 0x1 PUSH1 0x2 DUP9 MUL ADD DUP9 SSTORE POP POP POP JUMPDEST POP POP POP POP POP POP JUMP JUMPDEST PUSH2 0xCE1 DUP1 PUSH2 0x522 PUSH0 CODECOPY PUSH0 RETURN INVALID PUSH1 0x80 PUSH1 0x40 MSTORE CALLVALUE DUP1 ISZERO PUSH2 0xF JUMPI PUSH0 PUSH0 REVERT JUMPDEST POP PUSH1 0x4 CALLDATASIZE LT PUSH2 0xB2 JUMPI PUSH0 CALLDATALOAD PUSH1 0xE0 SHR DUP1 PUSH4 0x42966C68 GT PUSH2 0x6F JUMPI DUP1 PUSH4 0x42966C68 EQ PUSH2 0x1A0 JUMPI DUP1 PUSH4 0x70A08231 EQ PUSH2 0x1BC JUMPI DUP1 PUSH4 0x95D89B41 EQ PUSH2 0x1EC JUMPI DUP1 PUSH4 0xA0712D68 EQ PUSH2 0x20A JUMPI DUP1 PUSH4 0xA9059CBB EQ PUSH2 0x226 JUMPI DUP1 PUSH4 0xDD62ED3E EQ PUSH2 0x256 JUMPI PUSH2 0xB2 JUMP JUMPDEST DUP1 PUSH4 0x6FDDE03 EQ PUSH2 0xB6 JUMPI DUP1 PUSH4 0x95EA7B3 EQ PUSH2 0xD4 JUMPI DUP1 PUSH4 0x18160DDD EQ PUSH2 0x104 JUMPI DUP1 PUSH4 0x23B872DD EQ PUSH2 0x122 JUMPI DUP1 PUSH4 0x27E235E3 EQ PUSH2 0x152 JUMPI DUP1 PUSH4 0x313CE567 EQ PUSH2 0x182 JUMPI JUMPDEST PUSH0 PUSH0 REVERT JUMPDEST PUSH2 0xBE PUSH2 0x286 JUMP JUMPDEST PUSH1 0x40 MLOAD PUSH2 0xCB SWAP2 SWAP1 PUSH2 0x959 JUMP JUMPDEST PUSH1 0x40 MLOAD DUP1 SWAP2 SUB SWAP1 RETURN JUMPDEST PUSH2 0xEE PUSH1 0x4 DUP1 CALLDATASIZE SUB DUP2 ADD SWAP1 PUSH2 0xE9 SWAP2 SWAP1 PUSH2 0xA0A JUMP JUMPDEST PUSH2 0x312 JUMP JUMPDEST PUSH1 0x40 MLOAD PUSH2 0xFB SWAP2 SWAP1 PUSH2 0xA62 JUMP JUMPDEST PUSH1 0x40 MLOAD DUP1 SWAP2 SUB SWAP1 RETURN JUMPDEST PUSH2 0x10C PUSH2 0x3FF JUMP JUMPDEST PUSH1 0x40 MLOAD PUSH2 0x119 SWAP2 SWAP1 PUSH2 0xA8A JUMP JUMPDEST PUSH1 0x40 MLOAD DUP1 SWAP2 SUB SWAP1 RETURN JUMPDEST PUSH2 0x13C PUSH1 0x4 DUP1 CALLDATASIZE SUB DUP2 ADD SWAP1 PUSH2 0x137 SWAP2 SWAP1 PUSH2 0xAA3 JUMP JUMPDEST PUSH2 0x405 JUMP JUMPDEST PUSH1 0x40 MLOAD PUSH2 0x149 SWAP2 SWAP1 PUSH2 0xA62 JUMP JUMPDEST PUSH1 0x40 MLOAD DUP1 SWAP2 SUB SWAP1 RETURN JUMPDEST PUSH2 0x16C PUSH1 0x4 DUP1 CALLDATASIZE SUB DUP2 ADD SWAP1 PUSH2 0x167 SWAP2 SWAP1 PUSH2 0xAF3 JUMP JUMPDEST PUSH2 0x51A JUMP JUMPDEST PUSH1 0x40 MLOAD PUSH2 0x179 SWAP2 SWAP1 PUSH2 0xA8A JUMP JUMPDEST PUSH1 0x40 MLOAD DUP1 SWAP2 SUB SWAP1 RETURN JUMPDEST PUSH2 0x18A PUSH2 0x52E JUMP JUMPDEST PUSH1 0x40 MLOAD PUSH2 0x197 SWAP2 SWAP1 PUSH2 0xB39 JUMP JUMPDEST PUSH1 0x40 MLOAD DUP1 SWAP2 SUB SWAP1 RETURN JUMPDEST PUSH2 0x1BA PUSH1 0x4 DUP1 CALLDATASIZE SUB DUP2 ADD SWAP1 PUSH2 0x1B5 SWAP2 SWAP1 PUSH2 0xB52 JUMP JUMPDEST PUSH2 0x540 JUMP JUMPDEST STOP JUMPDEST PUSH2 0x1D6 PUSH1 0x4 DUP1 CALLDATASIZE SUB DUP2 ADD SWAP1 PUSH2 0x1D1 SWAP2 SWAP1 PUSH2 0xAF3 JUMP JUMPDEST PUSH2 0x612 JUMP JUMPDEST PUSH1 0x40 MLOAD PUSH2 0x1E3 SWAP2 SWAP1 PUSH2 0xA8A JUMP JUMPDEST PUSH1 0x40 MLOAD DUP1 SWAP2 SUB SWAP1 RETURN JUMPDEST PUSH2 0x1F4 PUSH2 0x657 JUMP JUMPDEST PUSH1 0x40 MLOAD PUSH2 0x201 SWAP2 SWAP1 PUSH2 0x959 JUMP JUMPDEST PUSH1 0x40 MLOAD DUP1 SWAP2 SUB SWAP1 RETURN JUMPDEST PUSH2 0x224 PUSH1 0x4 DUP1 CALLDATASIZE SUB DUP2 ADD SWAP1 PUSH2 0x21F SWAP2 SWAP1 PUSH2 0xB52 JUMP JUMPDEST PUSH2 0x6E3 JUMP JUMPDEST STOP JUMPDEST PUSH2 0x240 PUSH1 0x4 DUP1 CALLDATASIZE SUB DUP2 ADD SWAP1 PUSH2 0x23B SWAP2 SWAP1 PUSH2 0xA0A JUMP JUMPDEST PUSH2 0x7B5 JUMP JUMPDEST PUSH1 0x40 MLOAD PUSH2 0x24D SWAP2 SWAP1 PUSH2 0xA62 JUMP JUMPDEST PUSH1 0x40 MLOAD DUP1 SWAP2 SUB SWAP1 RETURN JUMPDEST PUSH2 0x270 PUSH1 0x4 DUP1 CALLDATASIZE SUB DUP2 ADD SWAP1 PUSH2 0x26B SWAP2 SWAP1 PUSH2 0xB7D JUMP JUMPDEST PUSH2 0x8C9 JUMP JUMPDEST PUSH1 0x40 MLOAD PUSH2 0x27D SWAP2 SWAP1 PUSH2 0xA8A JUMP JUMPDEST PUSH1 0x40 MLOAD DUP1 SWAP2 SUB SWAP1 RETURN JUMPDEST PUSH1 0x1 DUP1 SLOAD PUSH2 0x293 SWAP1 PUSH2 0xBE8 JUMP JUMPDEST DUP1 PUSH1 0x1F ADD PUSH1 0x20 DUP1 SWAP2 DIV MUL PUSH1 0x20 ADD PUSH1 0x40 MLOAD SWAP1 DUP2 ADD PUSH1 0x40 MSTORE DUP1 SWAP3 SWAP2 SWAP1 DUP2 DUP2 MSTORE PUSH1 0x20 ADD DUP3 DUP1 SLOAD PUSH2 0x2BF SWAP1 PUSH2 0xBE8 JUMP JUMPDEST DUP1 ISZERO PUSH2 0x30A JUMPI DUP1 PUSH1 0x1F LT PUSH2 0x2E1 JUMPI PUSH2 0x100 DUP1 DUP4 SLOAD DIV MUL DUP4 MSTORE SWAP2 PUSH1 0x20 ADD SWAP2 PUSH2 0x30A JUMP JUMPDEST DUP3 ADD SWAP2 SWAP1 PUSH0 MSTORE PUSH1 0x20 PUSH0 KECCAK256 SWAP1 JUMPDEST DUP2 SLOAD DUP2 MSTORE SWAP1 PUSH1 0x1 ADD SWAP1 PUSH1 0x20 ADD DUP1 DUP4 GT PUSH2 0x2ED JUMPI DUP3 SWAP1 SUB PUSH1 0x1F AND DUP3 ADD SWAP2 JUMPDEST POP POP POP POP POP DUP2 JUMP JUMPDEST PUSH0 DUP2 PUSH1 0x4 PUSH0 CALLER PUSH20 0xFFFFFFFFFFFFFFFFFFFFFFFFFFFFFFFFFFFFFFFF AND PUSH20 0xFFFFFFFFFFFFFFFFFFFFFFFFFFFFFFFFFFFFFFFF AND DUP2 MSTORE PUSH1 0x20 ADD SWAP1 DUP2 MSTORE PUSH1 0x20 ADD PUSH0 KECCAK256 PUSH0 DUP6 PUSH20 0xFFFFFFFFFFFFFFFFFFFFFFFFFFFFFFFFFFFFFFFF AND PUSH20 0xFFFFFFFFFFFFFFFFFFFFFFFFFFFFFFFFFFFFFFFF AND DUP2 MSTORE PUSH1 0x20 ADD SWAP1 DUP2 MSTORE PUSH1 0x20 ADD PUSH0 KECCAK256 DUP2 SWAP1 SSTORE POP DUP3 PUSH20 0xFFFFFFFFFFFFFFFFFFFFFFFFFFFFFFFFFFFFFFFF AND CALLER PUSH20 0xFFFFFFFFFFFFFFFFFFFFFFFFFFFFFFFFFFFFFFFF AND PUSH32 0x8C5BE1E5EBEC7D5BD14F71427D1E84F3DD0314C0F7B2291E5B200AC8C7C3B925 DUP5 PUSH1 0x40 MLOAD PUSH2 0x3ED SWAP2 SWAP1 PUSH2 0xA8A JUMP JUMPDEST PUSH1 0x40 MLOAD DUP1 SWAP2 SUB SWAP1 LOG3 PUSH1 0x1 SWAP1 POP SWAP3 SWAP2 POP POP JUMP JUMPDEST PUSH1 0x5 SLOAD DUP2 JUMP JUMPDEST PUSH0 DUP2 PUSH0 PUSH0 DUP7 PUSH20 0xFFFFFFFFFFFFFFFFFFFFFFFFFFFFFFFFFFFFFFFF AND PUSH20 0xFFFFFFFFFFFFFFFFFFFFFFFFFFFFFFFFFFFFFFFF AND DUP2 MSTORE PUSH1 0x20 ADD SWAP1 DUP2 MSTORE PUSH1 0x20 ADD PUSH0 KECCAK256 PUSH0 DUP3 DUP3 SLOAD PUSH2 0x451 SWAP2 SWAP1 PUSH2 0xC45 JUMP JUMPDEST SWAP3 POP POP DUP2 SWAP1 SSTORE POP DUP2 PUSH0 PUSH0 DUP6 PUSH20 0xFFFFFFFFFFFFFFFFFFFFFFFFFFFFFFFFFFFFFFFF AND PUSH20 0xFFFFFFFFFFFFFFFFFFFFFFFFFFFFFFFFFFFFFFFF AND DUP2 MSTORE PUSH1 0x20 ADD SWAP1 DUP2 MSTORE PUSH1 0x20 ADD PUSH0 KECCAK256 PUSH0 DUP3 DUP3 SLOAD PUSH2 0x4A3 SWAP2 SWAP1 PUSH2 0xC78 JUMP JUMPDEST SWAP3 POP POP DUP2 SWAP1 SSTORE POP DUP3 PUSH20 0xFFFFFFFFFFFFFFFFFFFFFFFFFFFFFFFFFFFFFFFF AND DUP5 PUSH20 0xFFFFFFFFFFFFFFFFFFFFFFFFFFFFFFFFFFFFFFFF AND PUSH32 0xDDF252AD1BE2C89B69C2B068FC378DAA952BA7F163C4A11628F55A4DF523B3EF DUP5 PUSH1 0x40 MLOAD PUSH2 0x507 SWAP2 SWAP1 PUSH2 0xA8A JUMP JUMPDEST PUSH1 0x40 MLOAD DUP1 SWAP2 SUB SWAP1 LOG3 PUSH1 0x1 SWAP1 POP SWAP4 SWAP3 POP POP POP JUMP JUMPDEST PUSH0 PUSH1 0x20 MSTORE DUP1 PUSH0 MSTORE PUSH1 0x40 PUSH0 KECCAK256 PUSH0 SWAP2 POP SWAP1 POP SLOAD DUP2 JUMP JUMPDEST PUSH1 0x3 PUSH0 SWAP1 SLOAD SWAP1 PUSH2 0x100 EXP SWAP1 DIV PUSH1 0xFF AND DUP2 JUMP JUMPDEST DUP1 PUSH0 PUSH0 CALLER PUSH20 0xFFFFFFFFFFFFFFFFFFFFFFFFFFFFFFFFFFFFFFFF AND PUSH20 0xFFFFFFFFFFFFFFFFFFFFFFFFFFFFFFFFFFFFFFFF AND DUP2 MSTORE PUSH1 0x20 ADD SWAP1 DUP2 MSTORE PUSH1 0x20 ADD PUSH0 KECCAK256 PUSH0 DUP3 DUP3 SLOAD PUSH2 0x58B SWAP2 SWAP1 PUSH2 0xC45 JUMP JUMPDEST SWAP3 POP POP DUP2 SWAP1 SSTORE POP DUP1 PUSH1 0x5 PUSH0 DUP3 DUP3 SLOAD PUSH2 0x5A3 SWAP2 SWAP1 PUSH2 0xC45 JUMP JUMPDEST SWAP3 POP POP DUP2 SWAP1 SSTORE POP PUSH0 PUSH20 0xFFFFFFFFFFFFFFFFFFFFFFFFFFFFFFFFFFFFFFFF AND CALLER PUSH20 0xFFFFFFFFFFFFFFFFFFFFFFFFFFFFFFFFFFFFFFFF AND PUSH32 0xDDF252AD1BE2C89B69C2B068FC378DAA952BA7F163C4A11628F55A4DF523B3EF DUP4 PUSH1 0x40 MLOAD PUSH2 0x607 SWAP2 SWAP1 PUSH2 0xA8A JUMP JUMPDEST PUSH1 0x40 MLOAD DUP1 SWAP2 SUB SWAP1 LOG3 POP JUMP JUMPDEST PUSH0 PUSH0 PUSH0 DUP4 PUSH20 0xFFFFFFFFFFFFFFFFFFFFFFFFFFFFFFFFFFFFFFFF AND PUSH20 0xFFFFFFFFFFFFFFFFFFFFFFFFFFFFFFFFFFFFFFFF AND DUP2 MSTORE PUSH1 0x20 ADD SWAP1 DUP2 MSTORE PUSH1 0x20 ADD PUSH0 KECCAK256 SLOAD SWAP1 POP SWAP2 SWAP1 POP JUMP JUMPDEST PUSH1 0x2 DUP1 SLOAD PUSH2 0x664 SWAP1 PUSH2 0xBE8 JUMP JUMPDEST DUP1 PUSH1 0x1F ADD PUSH1 0x20 DUP1 SWAP2 DIV MUL PUSH1 0x20 ADD PUSH1 0x40 MLOAD SWAP1 DUP2 ADD PUSH1 0x40 MSTORE DUP1 SWAP3 SWAP2 SWAP1 DUP2 DUP2 MSTORE PUSH1 0x20 ADD DUP3 DUP1 SLOAD PUSH2 0x690 SWAP1 PUSH2 0xBE8 JUMP JUMPDEST DUP1 ISZERO PUSH2 0x6DB JUMPI DUP1 PUSH1 0x1F LT PUSH2 0x6B2 JUMPI PUSH2 0x100 DUP1 DUP4 SLOAD DIV MUL DUP4 MSTORE SWAP2 PUSH1 0x20 ADD SWAP2 PUSH2 0x6DB JUMP JUMPDEST DUP3 ADD SWAP2 SWAP1 PUSH0 MSTORE PUSH1 0x20 PUSH0 KECCAK256 SWAP1 JUMPDEST DUP2 SLOAD DUP2 MSTORE SWAP1 PUSH1 0x1 ADD SWAP1 PUSH1 0x20 ADD DUP1 DUP4 GT PUSH2 0x6BE JUMPI DUP3 SWAP1 SUB PUSH1 0x1F AND DUP3 ADD SWAP2 JUMPDEST POP POP POP POP POP DUP2 JUMP JUMPDEST DUP1 PUSH0 PUSH0 CALLER PUSH20 0xFFFFFFFFFFFFFFFFFFFFFFFFFFFFFFFFFFFFFFFF AND PUSH20 0xFFFFFFFFFFFFFFFFFFFFFFFFFFFFFFFFFFFFFFFF AND DUP2 MSTORE PUSH1 0x20 ADD SWAP1 DUP2 MSTORE PUSH1 0x20 ADD PUSH0 KECCAK256 PUSH0 DUP3 DUP3 SLOAD PUSH2 0x72E SWAP2 SWAP1 PUSH2 0xC78 JUMP JUMPDEST SWAP3 POP POP DUP2 SWAP1 SSTORE POP DUP1 PUSH1 0x5 PUSH0 DUP3 DUP3 SLOAD PUSH2 0x746 SWAP2 SWAP1 PUSH2 0xC78 JUMP JUMPDEST SWAP3 POP POP DUP2 SWAP1 SSTORE POP CALLER PUSH20 0xFFFFFFFFFFFFFFFFFFFFFFFFFFFFFFFFFFFFFFFF AND PUSH0 PUSH20 0xFFFFFFFFFFFFFFFFFFFFFFFFFFFFFFFFFFFFFFFF AND PUSH32 0xDDF252AD1BE2C89B69C2B068FC378DAA952BA7F163C4A11628F55A4DF523B3EF DUP4 PUSH1 0x40 MLOAD PUSH2 0x7AA SWAP2 SWAP1 PUSH2 0xA8A JUMP JUMPDEST PUSH1 0x40 MLOAD DUP1 SWAP2 SUB SWAP1 LOG3 POP JUMP JUMPDEST PUSH0 DUP2 PUSH0 PUSH0 CALLER PUSH20 0xFFFFFFFFFFFFFFFFFFFFFFFFFFFFFFFFFFFFFFFF AND PUSH20 0xFFFFFFFFFFFFFFFFFFFFFFFFFFFFFFFFFFFFFFFF AND DUP2 MSTORE PUSH1 0x20 ADD SWAP1 DUP2 MSTORE PUSH1 0x20 ADD PUSH0 KECCAK256 PUSH0 DUP3 DUP3 SLOAD PUSH2 0x801 SWAP2 SWAP1 PUSH2 0xC45 JUMP JUMPDEST SWAP3 POP POP DUP2 SWAP1 SSTORE POP DUP2 PUSH0 PUSH0 DUP6 PUSH20 0xFFFFFFFFFFFFFFFFFFFFFFFFFFFFFFFFFFFFFFFF AND PUSH20 0xFFFFFFFFFFFFFFFFFFFFFFFFFFFFFFFFFFFFFFFF AND DUP2 MSTORE PUSH1 0x20 ADD SWAP1 DUP2 MSTORE PUSH1 0x20 ADD PUSH0 KECCAK256 PUSH0 DUP3 DUP3 SLOAD PUSH2 0x853 SWAP2 SWAP1 PUSH2 0xC78 JUMP JUMPDEST SWAP3 POP POP DUP2 SWAP1 SSTORE POP DUP3 PUSH20 0xFFFFFFFFFFFFFFFFFFFFFFFFFFFFFFFFFFFFFFFF AND CALLER PUSH20 0xFFFFFFFFFFFFFFFFFFFFFFFFFFFFFFFFFFFFFFFF AND PUSH32 0xDDF252AD1BE2C89B69C2B068FC378DAA952BA7F163C4A11628F55A4DF523B3EF DUP5 PUSH1 0x40 MLOAD PUSH2 0x8B7 SWAP2 SWAP1 PUSH2 0xA8A JUMP JUMPDEST PUSH1 0x40 MLOAD DUP1 SWAP2 SUB SWAP1 LOG3 PUSH1 0x1 SWAP1 POP SWAP3 SWAP2 POP POP JUMP JUMPDEST PUSH1 0x4 PUSH1 0x20 MSTORE DUP2 PUSH0 MSTORE PUSH1 0x40 PUSH0 KECCAK256 PUSH1 0x20 MSTORE DUP1 PUSH0 MSTORE PUSH1 0x40 PUSH0 KECCAK256 PUSH0 SWAP2 POP SWAP2 POP POP SLOAD DUP2 JUMP JUMPDEST PUSH0 DUP2 MLOAD SWAP1 POP SWAP2 SWAP1 POP JUMP JUMPDEST PUSH0 DUP3 DUP3 MSTORE PUSH1 0x20 DUP3 ADD SWAP1 POP SWAP3 SWAP2 POP POP JUMP JUMPDEST DUP3 DUP2 DUP4 MCOPY PUSH0 DUP4 DUP4 ADD MSTORE POP POP POP JUMP JUMPDEST PUSH0 PUSH1 0x1F NOT PUSH1 0x1F DUP4 ADD AND SWAP1 POP SWAP2 SWAP1 POP JUMP JUMPDEST PUSH0 PUSH2 0x92B DUP3 PUSH2 0x8E9 JUMP JUMPDEST PUSH2 0x935 DUP2 DUP6 PUSH2 0x8F3 JUMP JUMPDEST SWAP4 POP PUSH2 0x945 DUP2 DUP6 PUSH1 0x20 DUP7 ADD PUSH2 0x903 JUMP JUMPDEST PUSH2 0x94E DUP2 PUSH2 0x911 JUMP JUMPDEST DUP5 ADD SWAP2 POP POP SWAP3 SWAP2 POP POP JUMP JUMPDEST PUSH0 PUSH1 0x20 DUP3 ADD SWAP1 POP DUP2 DUP2 SUB PUSH0 DUP4 ADD MSTORE PUSH2 0x971 DUP2 DUP5 PUSH2 0x921 JUMP JUMPDEST SWAP1 POP SWAP3 SWAP2 POP POP JUMP JUMPDEST PUSH0 PUSH0 REVERT JUMPDEST PUSH0 PUSH20 0xFFFFFFFFFFFFFFFFFFFFFFFFFFFFFFFFFFFFFFFF DUP3 AND SWAP1 POP SWAP2 SWAP1 POP JUMP JUMPDEST PUSH0 PUSH2 0x9A6 DUP3 PUSH2 0x97D JUMP JUMPDEST SWAP1 POP SWAP2 SWAP1 POP JUMP JUMPDEST PUSH2 0x9B6 DUP2 PUSH2 0x99C JUMP JUMPDEST DUP2 EQ PUSH2 0x9C0 JUMPI PUSH0 PUSH0 REVERT JUMPDEST POP JUMP JUMPDEST PUSH0 DUP2 CALLDATALOAD SWAP1 POP PUSH2 0x9D1 DUP2 PUSH2 0x9AD JUMP JUMPDEST SWAP3 SWAP2 POP POP JUMP JUMPDEST PUSH0 DUP2 SWAP1 POP SWAP2 SWAP1 POP JUMP JUMPDEST PUSH2 0x9E9 DUP2 PUSH2 0x9D7 JUMP JUMPDEST DUP2 EQ PUSH2 0x9F3 JUMPI PUSH0 PUSH0 REVERT JUMPDEST POP JUMP JUMPDEST PUSH0 DUP2 CALLDATALOAD SWAP1 POP PUSH2 0xA04 DUP2 PUSH2 0x9E0 JUMP JUMPDEST SWAP3 SWAP2 POP POP JUMP JUMPDEST PUSH0 PUSH0 PUSH1 0x40 DUP4 DUP6 SUB SLT ISZERO PUSH2 0xA20 JUMPI PUSH2 0xA1F PUSH2 0x979 JUMP JUMPDEST JUMPDEST PUSH0 PUSH2 0xA2D DUP6 DUP3 DUP7 ADD PUSH2 0x9C3 JUMP JUMPDEST SWAP3 POP POP PUSH1 0x20 PUSH2 0xA3E DUP6 DUP3 DUP7 ADD PUSH2 0x9F6 JUMP JUMPDEST SWAP2 POP POP SWAP3 POP SWAP3 SWAP1 POP JUMP JUMPDEST PUSH0 DUP2 ISZERO ISZERO SWAP1 POP SWAP2 SWAP1 POP JUMP JUMPDEST PUSH2 0xA5C DUP2 PUSH2 0xA48 JUMP JUMPDEST DUP3 MSTORE POP POP JUMP JUMPDEST PUSH0 PUSH1 0x20 DUP3 ADD SWAP1 POP PUSH2 0xA75 PUSH0 DUP4 ADD DUP5 PUSH2 0xA53 JUMP JUMPDEST SWAP3 SWAP2 POP POP JUMP JUMPDEST PUSH2 0xA84 DUP2 PUSH2 0x9D7 JUMP JUMPDEST DUP3 MSTORE POP POP JUMP JUMPDEST PUSH0 PUSH1 0x20 DUP3 ADD SWAP1 POP PUSH2 0xA9D PUSH0 DUP4 ADD DUP5 PUSH2 0xA7B JUMP JUMPDEST SWAP3 SWAP2 POP POP JUMP JUMPDEST PUSH0 PUSH0 PUSH0 PUSH1 0x60 DUP5 DUP7 SUB SLT ISZERO PUSH2 0xABA JUMPI PUSH2 0xAB9 PUSH2 0x979 JUMP JUMPDEST JUMPDEST PUSH0 PUSH2 0xAC7 DUP7 DUP3 DUP8 ADD PUSH2 0x9C3 JUMP JUMPDEST SWAP4 POP POP PUSH1 0x20 PUSH2 0xAD8 DUP7 DUP3 DUP8 ADD PUSH2 0x9C3 JUMP JUMPDEST SWAP3 POP POP PUSH1 0x40 PUSH2 0xAE9 DUP7 DUP3 DUP8 ADD PUSH2 0x9F6 JUMP JUMPDEST SWAP2 POP POP SWAP3 POP SWAP3 POP SWAP3 JUMP JUMPDEST PUSH0 PUSH1 0x20 DUP3 DUP5 SUB SLT ISZERO PUSH2 0xB08 JUMPI PUSH2 0xB07 PUSH2 0x979 JUMP JUMPDEST JUMPDEST PUSH0 PUSH2 0xB15 DUP5 DUP3 DUP6 ADD PUSH2 0x9C3 JUMP JUMPDEST SWAP2 POP POP SWAP3 SWAP2 POP POP JUMP JUMPDEST PUSH0 PUSH1 0xFF DUP3 AND SWAP1 POP SWAP2 SWAP1 POP JUMP JUMPDEST PUSH2 0xB33 DUP2 PUSH2 0xB1E JUMP JUMPDEST DUP3 MSTORE POP POP JUMP JUMPDEST PUSH0 PUSH1 0x20 DUP3 ADD SWAP1 POP PUSH2 0xB4C PUSH0 DUP4 ADD DUP5 PUSH2 0xB2A JUMP JUMPDEST SWAP3 SWAP2 POP POP JUMP JUMPDEST PUSH0 PUSH1 0x20 DUP3 DUP5 SUB SLT ISZERO PUSH2 0xB67 JUMPI PUSH2 0xB66 PUSH2 0x979 JUMP JUMPDEST JUMPDEST PUSH0 PUSH2 0xB74 DUP5 DUP3 DUP6 ADD PUSH2 0x9F6 JUMP JUMPDEST SWAP2 POP POP SWAP3 SWAP2 POP POP JUMP JUMPDEST PUSH0 PUSH0 PUSH1 0x40 DUP4 DUP6 SUB SLT ISZERO PUSH2 0xB93 JUMPI PUSH2 0xB92 PUSH2 0x979 JUMP JUMPDEST JUMPDEST PUSH0 PUSH2 0xBA0 DUP6 DUP3 DUP7 ADD PUSH2 0x9C3 JUMP JUMPDEST SWAP3 POP POP PUSH1 0x20 PUSH2 0xBB1 DUP6 DUP3 DUP7 ADD PUSH2 0x9C3 JUMP JUMPDEST SWAP2 POP POP SWAP3 POP SWAP3 SWAP1 POP JUMP JUMPDEST PUSH32 0x4E487B7100000000000000000000000000000000000000000000000000000000 PUSH0 MSTORE PUSH1 0x22 PUSH1 0x4 MSTORE PUSH1 0x24 PUSH0 REVERT JUMPDEST PUSH0 PUSH1 0x2 DUP3 DIV SWAP1 POP PUSH1 0x1 DUP3 AND DUP1 PUSH2 0xBFF JUMPI PUSH1 0x7F DUP3 AND SWAP2 POP JUMPDEST PUSH1 0x20 DUP3 LT DUP2 SUB PUSH2 0xC12 JUMPI PUSH2 0xC11 PUSH2 0xBBB JUMP JUMPDEST JUMPDEST POP SWAP2 SWAP1 POP JUMP JUMPDEST PUSH32 0x4E487B7100000000000000000000000000000000000000000000000000000000 PUSH0 MSTORE PUSH1 0x11 PUSH1 0x4 MSTORE PUSH1 0x24 PUSH0 REVERT JUMPDEST PUSH0 PUSH2 0xC4F DUP3 PUSH2 0x9D7 JUMP JUMPDEST SWAP2 POP PUSH2 0xC5A DUP4 PUSH2 0x9D7 JUMP JUMPDEST SWAP3 POP DUP3 DUP3 SUB SWAP1 POP DUP2 DUP2 GT ISZERO PUSH2 0xC72 JUMPI PUSH2 0xC71 PUSH2 0xC18 JUMP JUMPDEST JUMPDEST SWAP3 SWAP2 POP POP JUMP JUMPDEST PUSH0 PUSH2 0xC82 DUP3 PUSH2 0x9D7 JUMP JUMPDEST SWAP2 POP PUSH2 0xC8D DUP4 PUSH2 0x9D7 JUMP JUMPDEST SWAP3 POP DUP3 DUP3 ADD SWAP1 POP DUP1 DUP3 GT ISZERO PUSH2 0xCA5 JUMPI PUSH2 0xCA4 PUSH2 0xC18 JUMP JUMPDEST JUMPDEST SWAP3 SWAP2 POP POP JUMP INVALID LOG2 PUSH5 0x6970667358 0x22 SLT KECCAK256 PUSH29 0x99CE94C3597B26542F69A5E3F8625F83F143F9E1C15512CE1B97CD6453 0xD5 0xD4 PUSH5 0x736F6C6343 STOP ADDMOD 0x1E STOP CALLER "
				},
				"gasEstimates": {
					"creation": {
						"codeDepositCost": "659400",
						"executionCost": "infinite",
						"totalCost": "infinite"
					},
					"external": {
						"allowance(address,address)": "infinite",
						"approve(address,uint256)": "infinite",
						"balanceOf(address)": "2850",
						"balances(address)": "2890",
						"burn(uint256)": "infinite",
						"decimals()": "2577",
						"mint(uint256)": "infinite",
						"name()": "infinite",
						"symbol()": "infinite",
						"totalSupply()": "2470",
						"transfer(address,uint256)": "infinite",
						"transferFrom(address,address,uint256)": "infinite"
					}
				},
				"methodIdentifiers": {
					"allowance(address,address)": "dd62ed3e",
					"approve(address,uint256)": "095ea7b3",
					"balanceOf(address)": "70a08231",
					"balances(address)": "27e235e3",
					"burn(uint256)": "42966c68",
					"decimals()": "313ce567",
					"mint(uint256)": "a0712d68",
					"name()": "06fdde03",
					"symbol()": "95d89b41",
					"totalSupply()": "18160ddd",
					"transfer(address,uint256)": "a9059cbb",
					"transferFrom(address,address,uint256)": "23b872dd"
				}
			},
			"storageLayout": {
				"storage": [
					{
						"astId": 8,
						"contract": "task/task02/task2.1/ERC20.sol:ERC20",
						"label": "balances",
						"offset": 0,
						"slot": "0",
						"type": "t_mapping(t_address,t_uint256)"
					},
					{
						"astId": 10,
						"contract": "task/task02/task2.1/ERC20.sol:ERC20",
						"label": "name",
						"offset": 0,
						"slot": "1",
						"type": "t_string_storage"
					},
					{
						"astId": 12,
						"contract": "task/task02/task2.1/ERC20.sol:ERC20",
						"label": "symbol",
						"offset": 0,
						"slot": "2",
						"type": "t_string_storage"
					},
					{
						"astId": 15,
						"contract": "task/task02/task2.1/ERC20.sol:ERC20",
						"label": "decimals",
						"offset": 0,
						"slot": "3",
						"type": "t_uint8"
					},
					{
						"astId": 21,
						"contract": "task/task02/task2.1/ERC20.sol:ERC20",
						"label": "allowance",
						"offset": 0,
						"slot": "4",
						"type": "t_mapping(t_address,t_mapping(t_address,t_uint256))"
					},
					{
						"astId": 23,
						"contract": "task/task02/task2.1/ERC20.sol:ERC20",
						"label": "totalSupply",
						"offset": 0,
						"slot": "5",
						"type": "t_uint256"
					}
				],
				"types": {
					"t_address": {
						"encoding": "inplace",
						"label": "address",
						"numberOfBytes": "20"
					},
					"t_mapping(t_address,t_mapping(t_address,t_uint256))": {
						"encoding": "mapping",
						"key": "t_address",
						"label": "mapping(address => mapping(address => uint256))",
						"numberOfBytes": "32",
						"value": "t_mapping(t_address,t_uint256)"
					},
					"t_mapping(t_address,t_uint256)": {
						"encoding": "mapping",
						"key": "t_address",
						"label": "mapping(address => uint256)",
						"numberOfBytes": "32",
						"value": "t_uint256"
					},
					"t_string_storage": {
						"encoding": "bytes",
						"label": "string",
						"numberOfBytes": "32"
					},
					"t_uint256": {
						"encoding": "inplace",
						"label": "uint256",
						"numberOfBytes": "32"
					},
					"t_uint8": {
						"encoding": "inplace",
						"label": "uint8",
						"numberOfBytes": "1"
					}
				}
			},
			"userdoc": {
				"kind": "user",
				"methods": {},
				"version": 1
			}
		}
	}
}