{
	"StructExample.sol": {
		"StructExample": {
			"abi": [
				{
					"inputs": [
						{
							"components": [
								{
									"internalType": "uint8",
									"name": "age",
									"type": "uint8"
								},
								{
									"internalType": "string",
									"name": "name",
									"type": "string"
								}
							],
							"internalType": "struct StructExample.Person",
							"name": "p",
							"type": "tuple"
						}
					],
					"name": "addPerson",
					"outputs": [],
					"stateMutability": "nonpayable",
					"type": "function"
				},
				{
					"inputs": [],
					"name": "getMapping",
					"outputs": [
						{
							"components": [
								{
									"internalType": "uint8",
									"name": "age",
									"type": "uint8"
								},
								{
									"internalType": "string",
									"name": "name",
									"type": "string"
								}
							],
							"internalType": "struct StructExample.Person",
							"name": "",
							"type": "tuple"
						}
					],
					"stateMutability": "view",
					"type": "function"
				},
				{
					"inputs": [
						{
							"internalType": "address",
							"name": "",
							"type": "address"
						}
					],
					"name": "personMap",
					"outputs": [
						{
							"internalType": "uint8",
							"name": "age",
							"type": "uint8"
						},
						{
							"internalType": "string",
							"name": "name",
							"type": "string"
						}
					],
					"stateMutability": "view",
					"type": "function"
				},
				{
					"inputs": [
						{
							"internalType": "uint256",
							"name": "",
							"type": "uint256"
						}
					],
					"name": "persons",
					"outputs": [
						{
							"internalType": "uint8",
							"name": "age",
							"type": "uint8"
						},
						{
							"internalType": "string",
							"name": "name",
							"type": "string"
						}
					],
					"stateMutability": "view",
					"type": "function"
				},
				{
					"inputs": [
						{
							"components": [
								{
									"internalType": "uint8",
									"name": "age",
									"type": "uint8"
								},
								{
									"internalType": "string",
									"name": "name",
									"type": "string"
								}
							],
							"internalType": "struct StructExample.Person",
							"name": "p",
							"type": "tuple"
						},
						{
							"internalType": "address",
							"name": "addr",
							"type": "address"
						}
					],
					"name": "serPerson",
					"outputs": [],
					"stateMutability": "nonpayable",
					"type": "function"
				}
			],
			"devdoc": {
				"kind": "dev",
				"methods": {},
				"version": 1
			},
			"evm": {
				"assembly": "    /* \"StructExample.sol\":55:590  contract StructExample {... */\n  mstore(0x40, 0x80)\n  callvalue\n  dup1\n  iszero\n  tag_1\n  jumpi\n  revert(0x00, 0x00)\ntag_1:\n  pop\n  dataSize(sub_0)\n  dup1\n  dataOffset(sub_0)\n  0x00\n  codecopy\n  0x00\n  return\nstop\n\nsub_0: assembly {\n        /* \"StructExample.sol\":55:590  contract StructExample {... */\n      mstore(0x40, 0x80)\n      callvalue\n      dup1\n      iszero\n      tag_1\n      jumpi\n      revert(0x00, 0x00)\n    tag_1:\n      pop\n      jumpi(tag_2, lt(calldatasize, 0x04))\n      shr(0xe0, calldataload(0x00))\n      dup1\n      0x391475f4\n      eq\n      tag_3\n      jumpi\n      dup1\n      0x570b85a7\n      eq\n      tag_4\n      jumpi\n      dup1\n      0xa2f9eac6\n      eq\n      tag_5\n      jumpi\n      dup1\n      0xd5e350e3\n      eq\n      tag_6\n      jumpi\n      dup1\n      0xed3ac0de\n      eq\n      tag_7\n      jumpi\n    tag_2:\n      revert(0x00, 0x00)\n        /* \"StructExample.sol\":301:378  function addPerson(Person calldata p) public {... */\n    tag_3:\n      tag_8\n      0x04\n      dup1\n      calldatasize\n      sub\n      dup2\n      add\n      swap1\n      tag_9\n      swap2\n      swap1\n      tag_10\n      jump\t// in\n    tag_9:\n      tag_11\n      jump\t// in\n    tag_8:\n      stop\n        /* \"StructExample.sol\":384:479  function serPerson(Person calldata p, address addr) public {... */\n    tag_4:\n      tag_12\n      0x04\n      dup1\n      calldatasize\n      sub\n      dup2\n      add\n      swap1\n      tag_13\n      swap2\n      swap1\n      tag_14\n      jump\t// in\n    tag_13:\n      tag_15\n      jump\t// in\n    tag_12:\n      stop\n        /* \"StructExample.sol\":222:245  Person[] public persons */\n    tag_5:\n      tag_16\n      0x04\n      dup1\n      calldatasize\n      sub\n      dup2\n      add\n      swap1\n      tag_17\n      swap2\n      swap1\n      tag_18\n      jump\t// in\n    tag_17:\n      tag_19\n      jump\t// in\n    tag_16:\n      mload(0x40)\n      tag_20\n      swap3\n      swap2\n      swap1\n      tag_21\n      jump\t// in\n    tag_20:\n      mload(0x40)\n      dup1\n      swap2\n      sub\n      swap1\n      return\n        /* \"StructExample.sol\":485:588  function getMapping() public view returns (Person memory) {... */\n    tag_6:\n      tag_22\n      tag_23\n      jump\t// in\n    tag_22:\n      mload(0x40)\n      tag_24\n      swap2\n      swap1\n      tag_25\n      jump\t// in\n    tag_24:\n      mload(0x40)\n      dup1\n      swap2\n      sub\n      swap1\n      return\n        /* \"StructExample.sol\":251:294  mapping(address => Person) public personMap */\n    tag_7:\n      tag_26\n      0x04\n      dup1\n      calldatasize\n      sub\n      dup2\n      add\n      swap1\n      tag_27\n      swap2\n      swap1\n      tag_28\n      jump\t// in\n    tag_27:\n      tag_29\n      jump\t// in\n    tag_26:\n      mload(0x40)\n      tag_30\n      swap3\n      swap2\n      swap1\n      tag_21\n      jump\t// in\n    tag_30:\n      mload(0x40)\n      dup1\n      swap2\n      sub\n      swap1\n      return\n        /* \"StructExample.sol\":301:378  function addPerson(Person calldata p) public {... */\n    tag_11:\n        /* \"StructExample.sol\":356:363  persons */\n      0x00\n        /* \"StructExample.sol\":369:370  p */\n      dup2\n        /* \"StructExample.sol\":356:371  persons.push(p) */\n      swap1\n      dup1\n      0x01\n      dup2\n      sload\n      add\n      dup1\n      dup3\n      sstore\n      dup1\n      swap2\n      pop\n      pop\n      0x01\n      swap1\n      sub\n      swap1\n      0x00\n      mstore\n      keccak256(0x00, 0x20)\n      swap1\n      0x02\n      mul\n      add\n      0x00\n      swap1\n      swap2\n      swap1\n      swap2\n      swap1\n      swap2\n      pop\n      dup2\n      dup2\n      tag_33\n      swap2\n      swap1\n      tag_34\n      jump\t// in\n    tag_33:\n      pop\n      pop\n        /* \"StructExample.sol\":301:378  function addPerson(Person calldata p) public {... */\n      pop\n      jump\t// out\n        /* \"StructExample.sol\":384:479  function serPerson(Person calldata p, address addr) public {... */\n    tag_15:\n        /* \"StructExample.sol\":471:472  p */\n      dup2\n        /* \"StructExample.sol\":453:462  personMap */\n      0x01\n        /* \"StructExample.sol\":453:468  personMap[addr] */\n      0x00\n        /* \"StructExample.sol\":463:467  addr */\n      dup4\n        /* \"StructExample.sol\":453:468  personMap[addr] */\n      0xffffffffffffffffffffffffffffffffffffffff\n      and\n      0xffffffffffffffffffffffffffffffffffffffff\n      and\n      dup2\n      mstore\n      0x20\n      add\n      swap1\n      dup2\n      mstore\n      0x20\n      add\n      0x00\n      keccak256\n        /* \"StructExample.sol\":453:472  personMap[addr] = p */\n      dup2\n      dup2\n      tag_36\n      swap2\n      swap1\n      tag_34\n      jump\t// in\n    tag_36:\n      swap1\n      pop\n      pop\n        /* \"StructExample.sol\":384:479  function serPerson(Person calldata p, address addr) public {... */\n      pop\n      pop\n      jump\t// out\n        /* \"StructExample.sol\":222:245  Person[] public persons */\n    tag_19:\n      0x00\n      dup2\n      dup2\n      sload\n      dup2\n      lt\n      tag_37\n      jumpi\n      0x00\n      dup1\n      revert\n    tag_37:\n      swap1\n      0x00\n      mstore\n      keccak256(0x00, 0x20)\n      swap1\n      0x02\n      mul\n      add\n      0x00\n      swap2\n      pop\n      swap1\n      pop\n      dup1\n      0x00\n      add\n      0x00\n      swap1\n      sload\n      swap1\n      0x0100\n      exp\n      swap1\n      div\n      0xff\n      and\n      swap1\n      dup1\n      0x01\n      add\n      dup1\n      sload\n      tag_39\n      swap1\n      tag_40\n      jump\t// in\n    tag_39:\n      dup1\n      0x1f\n      add\n      0x20\n      dup1\n      swap2\n      div\n      mul\n      0x20\n      add\n      mload(0x40)\n      swap1\n      dup2\n      add\n      0x40\n      mstore\n      dup1\n      swap3\n      swap2\n      swap1\n      dup2\n      dup2\n      mstore\n      0x20\n      add\n      dup3\n      dup1\n      sload\n      tag_41\n      swap1\n      tag_40\n      jump\t// in\n    tag_41:\n      dup1\n      iszero\n      tag_42\n      jumpi\n      dup1\n      0x1f\n      lt\n      tag_43\n      jumpi\n      0x0100\n      dup1\n      dup4\n      sload\n      div\n      mul\n      dup4\n      mstore\n      swap2\n      0x20\n      add\n      swap2\n      jump(tag_42)\n    tag_43:\n      dup3\n      add\n      swap2\n      swap1\n      0x00\n      mstore\n      keccak256(0x00, 0x20)\n      swap1\n    tag_44:\n      dup2\n      sload\n      dup2\n      mstore\n      swap1\n      0x01\n      add\n      swap1\n      0x20\n      add\n      dup1\n      dup4\n      gt\n      tag_44\n      jumpi\n      dup3\n      swap1\n      sub\n      0x1f\n      and\n      dup3\n      add\n      swap2\n    tag_42:\n      pop\n      pop\n      pop\n      pop\n      pop\n      swap1\n      pop\n      dup3\n      jump\t// out\n        /* \"StructExample.sol\":485:588  function getMapping() public view returns (Person memory) {... */\n    tag_23:\n        /* \"StructExample.sol\":528:541  Person memory */\n      tag_45\n      tag_46\n      jump\t// in\n    tag_45:\n        /* \"StructExample.sol\":560:569  personMap */\n      0x01\n        /* \"StructExample.sol\":560:581  personMap[msg.sender] */\n      0x00\n        /* \"StructExample.sol\":570:580  msg.sender */\n      caller\n        /* \"StructExample.sol\":560:581  personMap[msg.sender] */\n      0xffffffffffffffffffffffffffffffffffffffff\n      and\n      0xffffffffffffffffffffffffffffffffffffffff\n      and\n      dup2\n      mstore\n      0x20\n      add\n      swap1\n      dup2\n      mstore\n      0x20\n      add\n      0x00\n      keccak256\n        /* \"StructExample.sol\":553:581  return personMap[msg.sender] */\n      mload(0x40)\n      dup1\n      0x40\n      add\n      0x40\n      mstore\n      swap1\n      dup2\n      0x00\n      dup3\n      add\n      0x00\n      swap1\n      sload\n      swap1\n      0x0100\n      exp\n      swap1\n      div\n      0xff\n      and\n      0xff\n      and\n      0xff\n      and\n      dup2\n      mstore\n      0x20\n      add\n      0x01\n      dup3\n      add\n      dup1\n      sload\n      tag_48\n      swap1\n      tag_40\n      jump\t// in\n    tag_48:\n      dup1\n      0x1f\n      add\n      0x20\n      dup1\n      swap2\n      div\n      mul\n      0x20\n      add\n      mload(0x40)\n      swap1\n      dup2\n      add\n      0x40\n      mstore\n      dup1\n      swap3\n      swap2\n      swap1\n      dup2\n      dup2\n      mstore\n      0x20\n      add\n      dup3\n      dup1\n      sload\n      tag_49\n      swap1\n      tag_40\n      jump\t// in\n    tag_49:\n      dup1\n      iszero\n      tag_50\n      jumpi\n      dup1\n      0x1f\n      lt\n      tag_51\n      jumpi\n      0x0100\n      dup1\n      dup4\n      sload\n      div\n      mul\n      dup4\n      mstore\n      swap2\n      0x20\n      add\n      swap2\n      jump(tag_50)\n    tag_51:\n      dup3\n      add\n      swap2\n      swap1\n      0x00\n      mstore\n      keccak256(0x00, 0x20)\n      swap1\n    tag_52:\n      dup2\n      sload\n      dup2\n      mstore\n      swap1\n      0x01\n      add\n      swap1\n      0x20\n      add\n      dup1\n      dup4\n      gt\n      tag_52\n      jumpi\n      dup3\n      swap1\n      sub\n      0x1f\n      and\n      dup3\n      add\n      swap2\n    tag_50:\n      pop\n      pop\n      pop\n      pop\n      pop\n      dup2\n      mstore\n      pop\n      pop\n      swap1\n      pop\n        /* \"StructExample.sol\":485:588  function getMapping() public view returns (Person memory) {... */\n      swap1\n      jump\t// out\n        /* \"StructExample.sol\":251:294  mapping(address => Person) public personMap */\n    tag_29:\n      mstore(0x20, 0x01)\n      dup1\n      0x00\n      mstore\n      keccak256(0x00, 0x40)\n      0x00\n      swap2\n      pop\n      swap1\n      pop\n      dup1\n      0x00\n      add\n      0x00\n      swap1\n      sload\n      swap1\n      0x0100\n      exp\n      swap1\n      div\n      0xff\n      and\n      swap1\n      dup1\n      0x01\n      add\n      dup1\n      sload\n      tag_53\n      swap1\n      tag_40\n      jump\t// in\n    tag_53:\n      dup1\n      0x1f\n      add\n      0x20\n      dup1\n      swap2\n      div\n      mul\n      0x20\n      add\n      mload(0x40)\n      swap1\n      dup2\n      add\n      0x40\n      mstore\n      dup1\n      swap3\n      swap2\n      swap1\n      dup2\n      dup2\n      mstore\n      0x20\n      add\n      dup3\n      dup1\n      sload\n      tag_54\n      swap1\n      tag_40\n      jump\t// in\n    tag_54:\n      dup1\n      iszero\n      tag_55\n      jumpi\n      dup1\n      0x1f\n      lt\n      tag_56\n      jumpi\n      0x0100\n      dup1\n      dup4\n      sload\n      div\n      mul\n      dup4\n      mstore\n      swap2\n      0x20\n      add\n      swap2\n      jump(tag_55)\n    tag_56:\n      dup3\n      add\n      swap2\n      swap1\n      0x00\n      mstore\n      keccak256(0x00, 0x20)\n      swap1\n    tag_57:\n      dup2\n      sload\n      dup2\n      mstore\n      swap1\n      0x01\n      add\n      swap1\n      0x20\n      add\n      dup1\n      dup4\n      gt\n      tag_57\n      jumpi\n      dup3\n      swap1\n      sub\n      0x1f\n      and\n      dup3\n      add\n      swap2\n    tag_55:\n      pop\n      pop\n      pop\n      pop\n      pop\n      swap1\n      pop\n      dup3\n      jump\t// out\n    tag_46:\n      mload(0x40)\n      dup1\n      0x40\n      add\n      0x40\n      mstore\n      dup1\n      and(0xff, 0x00)\n      dup2\n      mstore\n      0x20\n      add\n      0x60\n      dup2\n      mstore\n      pop\n      swap1\n      jump\t// out\n        /* \"#utility.yul\":88:205   */\n    tag_59:\n        /* \"#utility.yul\":197:198   */\n      0x00\n        /* \"#utility.yul\":194:195   */\n      0x00\n        /* \"#utility.yul\":187:199   */\n      revert\n        /* \"#utility.yul\":211:328   */\n    tag_60:\n        /* \"#utility.yul\":320:321   */\n      0x00\n        /* \"#utility.yul\":317:318   */\n      0x00\n        /* \"#utility.yul\":310:322   */\n      revert\n        /* \"#utility.yul\":334:451   */\n    tag_61:\n        /* \"#utility.yul\":443:444   */\n      0x00\n        /* \"#utility.yul\":440:441   */\n      0x00\n        /* \"#utility.yul\":433:445   */\n      revert\n        /* \"#utility.yul\":492:719   */\n    tag_62:\n        /* \"#utility.yul\":561:566   */\n      0x00\n        /* \"#utility.yul\":602:604   */\n      0x40\n        /* \"#utility.yul\":593:599   */\n      dup3\n        /* \"#utility.yul\":588:591   */\n      dup5\n        /* \"#utility.yul\":584:600   */\n      sub\n        /* \"#utility.yul\":580:605   */\n      slt\n        /* \"#utility.yul\":577:689   */\n      iszero\n      tag_120\n      jumpi\n        /* \"#utility.yul\":608:687   */\n      tag_121\n      tag_61\n      jump\t// in\n    tag_121:\n        /* \"#utility.yul\":577:689   */\n    tag_120:\n        /* \"#utility.yul\":707:713   */\n      dup2\n        /* \"#utility.yul\":698:713   */\n      swap1\n      pop\n        /* \"#utility.yul\":492:719   */\n      swap3\n      swap2\n      pop\n      pop\n      jump\t// out\n        /* \"#utility.yul\":725:1260   */\n    tag_10:\n        /* \"#utility.yul\":807:813   */\n      0x00\n        /* \"#utility.yul\":856:858   */\n      0x20\n        /* \"#utility.yul\":844:853   */\n      dup3\n        /* \"#utility.yul\":835:842   */\n      dup5\n        /* \"#utility.yul\":831:854   */\n      sub\n        /* \"#utility.yul\":827:859   */\n      slt\n        /* \"#utility.yul\":824:943   */\n      iszero\n      tag_123\n      jumpi\n        /* \"#utility.yul\":862:941   */\n      tag_124\n      tag_59\n      jump\t// in\n    tag_124:\n        /* \"#utility.yul\":824:943   */\n    tag_123:\n        /* \"#utility.yul\":1010:1011   */\n      0x00\n        /* \"#utility.yul\":999:1008   */\n      dup3\n        /* \"#utility.yul\":995:1012   */\n      add\n        /* \"#utility.yul\":982:1013   */\n      calldataload\n        /* \"#utility.yul\":1040:1058   */\n      0xffffffffffffffff\n        /* \"#utility.yul\":1032:1038   */\n      dup2\n        /* \"#utility.yul\":1029:1059   */\n      gt\n        /* \"#utility.yul\":1026:1143   */\n      iszero\n      tag_125\n      jumpi\n        /* \"#utility.yul\":1062:1141   */\n      tag_126\n      tag_60\n      jump\t// in\n    tag_126:\n        /* \"#utility.yul\":1026:1143   */\n    tag_125:\n        /* \"#utility.yul\":1167:1243   */\n      tag_127\n        /* \"#utility.yul\":1235:1242   */\n      dup5\n        /* \"#utility.yul\":1226:1232   */\n      dup3\n        /* \"#utility.yul\":1215:1224   */\n      dup6\n        /* \"#utility.yul\":1211:1233   */\n      add\n        /* \"#utility.yul\":1167:1243   */\n      tag_62\n      jump\t// in\n    tag_127:\n        /* \"#utility.yul\":1157:1243   */\n      swap2\n      pop\n        /* \"#utility.yul\":953:1253   */\n      pop\n        /* \"#utility.yul\":725:1260   */\n      swap3\n      swap2\n      pop\n      pop\n      jump\t// out\n        /* \"#utility.yul\":1266:1392   */\n    tag_63:\n        /* \"#utility.yul\":1303:1310   */\n      0x00\n        /* \"#utility.yul\":1343:1385   */\n      0xffffffffffffffffffffffffffffffffffffffff\n        /* \"#utility.yul\":1336:1341   */\n      dup3\n        /* \"#utility.yul\":1332:1386   */\n      and\n        /* \"#utility.yul\":1321:1386   */\n      swap1\n      pop\n        /* \"#utility.yul\":1266:1392   */\n      swap2\n      swap1\n      pop\n      jump\t// out\n        /* \"#utility.yul\":1398:1494   */\n    tag_64:\n        /* \"#utility.yul\":1435:1442   */\n      0x00\n        /* \"#utility.yul\":1464:1488   */\n      tag_130\n        /* \"#utility.yul\":1482:1487   */\n      dup3\n        /* \"#utility.yul\":1464:1488   */\n      tag_63\n      jump\t// in\n    tag_130:\n        /* \"#utility.yul\":1453:1488   */\n      swap1\n      pop\n        /* \"#utility.yul\":1398:1494   */\n      swap2\n      swap1\n      pop\n      jump\t// out\n        /* \"#utility.yul\":1500:1622   */\n    tag_65:\n        /* \"#utility.yul\":1573:1597   */\n      tag_132\n        /* \"#utility.yul\":1591:1596   */\n      dup2\n        /* \"#utility.yul\":1573:1597   */\n      tag_64\n      jump\t// in\n    tag_132:\n        /* \"#utility.yul\":1566:1571   */\n      dup2\n        /* \"#utility.yul\":1563:1598   */\n      eq\n        /* \"#utility.yul\":1553:1616   */\n      tag_133\n      jumpi\n        /* \"#utility.yul\":1612:1613   */\n      0x00\n        /* \"#utility.yul\":1609:1610   */\n      0x00\n        /* \"#utility.yul\":1602:1614   */\n      revert\n        /* \"#utility.yul\":1553:1616   */\n    tag_133:\n        /* \"#utility.yul\":1500:1622   */\n      pop\n      jump\t// out\n        /* \"#utility.yul\":1628:1767   */\n    tag_66:\n        /* \"#utility.yul\":1674:1679   */\n      0x00\n        /* \"#utility.yul\":1712:1718   */\n      dup2\n        /* \"#utility.yul\":1699:1719   */\n      calldataload\n        /* \"#utility.yul\":1690:1719   */\n      swap1\n      pop\n        /* \"#utility.yul\":1728:1761   */\n      tag_135\n        /* \"#utility.yul\":1755:1760   */\n      dup2\n        /* \"#utility.yul\":1728:1761   */\n      tag_65\n      jump\t// in\n    tag_135:\n        /* \"#utility.yul\":1628:1767   */\n      swap3\n      swap2\n      pop\n      pop\n      jump\t// out\n        /* \"#utility.yul\":1773:2453   */\n    tag_14:\n        /* \"#utility.yul\":1864:1870   */\n      0x00\n        /* \"#utility.yul\":1872:1878   */\n      0x00\n        /* \"#utility.yul\":1921:1923   */\n      0x40\n        /* \"#utility.yul\":1909:1918   */\n      dup4\n        /* \"#utility.yul\":1900:1907   */\n      dup6\n        /* \"#utility.yul\":1896:1919   */\n      sub\n        /* \"#utility.yul\":1892:1924   */\n      slt\n        /* \"#utility.yul\":1889:2008   */\n      iszero\n      tag_137\n      jumpi\n        /* \"#utility.yul\":1927:2006   */\n      tag_138\n      tag_59\n      jump\t// in\n    tag_138:\n        /* \"#utility.yul\":1889:2008   */\n    tag_137:\n        /* \"#utility.yul\":2075:2076   */\n      0x00\n        /* \"#utility.yul\":2064:2073   */\n      dup4\n        /* \"#utility.yul\":2060:2077   */\n      add\n        /* \"#utility.yul\":2047:2078   */\n      calldataload\n        /* \"#utility.yul\":2105:2123   */\n      0xffffffffffffffff\n        /* \"#utility.yul\":2097:2103   */\n      dup2\n        /* \"#utility.yul\":2094:2124   */\n      gt\n        /* \"#utility.yul\":2091:2208   */\n      iszero\n      tag_139\n      jumpi\n        /* \"#utility.yul\":2127:2206   */\n      tag_140\n      tag_60\n      jump\t// in\n    tag_140:\n        /* \"#utility.yul\":2091:2208   */\n    tag_139:\n        /* \"#utility.yul\":2232:2308   */\n      tag_141\n        /* \"#utility.yul\":2300:2307   */\n      dup6\n        /* \"#utility.yul\":2291:2297   */\n      dup3\n        /* \"#utility.yul\":2280:2289   */\n      dup7\n        /* \"#utility.yul\":2276:2298   */\n      add\n        /* \"#utility.yul\":2232:2308   */\n      tag_62\n      jump\t// in\n    tag_141:\n        /* \"#utility.yul\":2222:2308   */\n      swap3\n      pop\n        /* \"#utility.yul\":2018:2318   */\n      pop\n        /* \"#utility.yul\":2357:2359   */\n      0x20\n        /* \"#utility.yul\":2383:2436   */\n      tag_142\n        /* \"#utility.yul\":2428:2435   */\n      dup6\n        /* \"#utility.yul\":2419:2425   */\n      dup3\n        /* \"#utility.yul\":2408:2417   */\n      dup7\n        /* \"#utility.yul\":2404:2426   */\n      add\n        /* \"#utility.yul\":2383:2436   */\n      tag_66\n      jump\t// in\n    tag_142:\n        /* \"#utility.yul\":2373:2436   */\n      swap2\n      pop\n        /* \"#utility.yul\":2328:2446   */\n      pop\n        /* \"#utility.yul\":1773:2453   */\n      swap3\n      pop\n      swap3\n      swap1\n      pop\n      jump\t// out\n        /* \"#utility.yul\":2459:2536   */\n    tag_67:\n        /* \"#utility.yul\":2496:2503   */\n      0x00\n        /* \"#utility.yul\":2525:2530   */\n      dup2\n        /* \"#utility.yul\":2514:2530   */\n      swap1\n      pop\n        /* \"#utility.yul\":2459:2536   */\n      swap2\n      swap1\n      pop\n      jump\t// out\n        /* \"#utility.yul\":2542:2664   */\n    tag_68:\n        /* \"#utility.yul\":2615:2639   */\n      tag_145\n        /* \"#utility.yul\":2633:2638   */\n      dup2\n        /* \"#utility.yul\":2615:2639   */\n      tag_67\n      jump\t// in\n    tag_145:\n        /* \"#utility.yul\":2608:2613   */\n      dup2\n        /* \"#utility.yul\":2605:2640   */\n      eq\n        /* \"#utility.yul\":2595:2658   */\n      tag_146\n      jumpi\n        /* \"#utility.yul\":2654:2655   */\n      0x00\n        /* \"#utility.yul\":2651:2652   */\n      0x00\n        /* \"#utility.yul\":2644:2656   */\n      revert\n        /* \"#utility.yul\":2595:2658   */\n    tag_146:\n        /* \"#utility.yul\":2542:2664   */\n      pop\n      jump\t// out\n        /* \"#utility.yul\":2670:2809   */\n    tag_69:\n        /* \"#utility.yul\":2716:2721   */\n      0x00\n        /* \"#utility.yul\":2754:2760   */\n      dup2\n        /* \"#utility.yul\":2741:2761   */\n      calldataload\n        /* \"#utility.yul\":2732:2761   */\n      swap1\n      pop\n        /* \"#utility.yul\":2770:2803   */\n      tag_148\n        /* \"#utility.yul\":2797:2802   */\n      dup2\n        /* \"#utility.yul\":2770:2803   */\n      tag_68\n      jump\t// in\n    tag_148:\n        /* \"#utility.yul\":2670:2809   */\n      swap3\n      swap2\n      pop\n      pop\n      jump\t// out\n        /* \"#utility.yul\":2815:3144   */\n    tag_18:\n        /* \"#utility.yul\":2874:2880   */\n      0x00\n        /* \"#utility.yul\":2923:2925   */\n      0x20\n        /* \"#utility.yul\":2911:2920   */\n      dup3\n        /* \"#utility.yul\":2902:2909   */\n      dup5\n        /* \"#utility.yul\":2898:2921   */\n      sub\n        /* \"#utility.yul\":2894:2926   */\n      slt\n        /* \"#utility.yul\":2891:3010   */\n      iszero\n      tag_150\n      jumpi\n        /* \"#utility.yul\":2929:3008   */\n      tag_151\n      tag_59\n      jump\t// in\n    tag_151:\n        /* \"#utility.yul\":2891:3010   */\n    tag_150:\n        /* \"#utility.yul\":3049:3050   */\n      0x00\n        /* \"#utility.yul\":3074:3127   */\n      tag_152\n        /* \"#utility.yul\":3119:3126   */\n      dup5\n        /* \"#utility.yul\":3110:3116   */\n      dup3\n        /* \"#utility.yul\":3099:3108   */\n      dup6\n        /* \"#utility.yul\":3095:3117   */\n      add\n        /* \"#utility.yul\":3074:3127   */\n      tag_69\n      jump\t// in\n    tag_152:\n        /* \"#utility.yul\":3064:3127   */\n      swap2\n      pop\n        /* \"#utility.yul\":3020:3137   */\n      pop\n        /* \"#utility.yul\":2815:3144   */\n      swap3\n      swap2\n      pop\n      pop\n      jump\t// out\n        /* \"#utility.yul\":3150:3236   */\n    tag_70:\n        /* \"#utility.yul\":3185:3192   */\n      0x00\n        /* \"#utility.yul\":3225:3229   */\n      0xff\n        /* \"#utility.yul\":3218:3223   */\n      dup3\n        /* \"#utility.yul\":3214:3230   */\n      and\n        /* \"#utility.yul\":3203:3230   */\n      swap1\n      pop\n        /* \"#utility.yul\":3150:3236   */\n      swap2\n      swap1\n      pop\n      jump\t// out\n        /* \"#utility.yul\":3242:3354   */\n    tag_71:\n        /* \"#utility.yul\":3325:3347   */\n      tag_155\n        /* \"#utility.yul\":3341:3346   */\n      dup2\n        /* \"#utility.yul\":3325:3347   */\n      tag_70\n      jump\t// in\n    tag_155:\n        /* \"#utility.yul\":3320:3323   */\n      dup3\n        /* \"#utility.yul\":3313:3348   */\n      mstore\n        /* \"#utility.yul\":3242:3354   */\n      pop\n      pop\n      jump\t// out\n        /* \"#utility.yul\":3360:3459   */\n    tag_72:\n        /* \"#utility.yul\":3412:3418   */\n      0x00\n        /* \"#utility.yul\":3446:3451   */\n      dup2\n        /* \"#utility.yul\":3440:3452   */\n      mload\n        /* \"#utility.yul\":3430:3452   */\n      swap1\n      pop\n        /* \"#utility.yul\":3360:3459   */\n      swap2\n      swap1\n      pop\n      jump\t// out\n        /* \"#utility.yul\":3465:3634   */\n    tag_73:\n        /* \"#utility.yul\":3549:3560   */\n      0x00\n        /* \"#utility.yul\":3583:3589   */\n      dup3\n        /* \"#utility.yul\":3578:3581   */\n      dup3\n        /* \"#utility.yul\":3571:3590   */\n      mstore\n        /* \"#utility.yul\":3623:3627   */\n      0x20\n        /* \"#utility.yul\":3618:3621   */\n      dup3\n        /* \"#utility.yul\":3614:3628   */\n      add\n        /* \"#utility.yul\":3599:3628   */\n      swap1\n      pop\n        /* \"#utility.yul\":3465:3634   */\n      swap3\n      swap2\n      pop\n      pop\n      jump\t// out\n        /* \"#utility.yul\":3640:3779   */\n    tag_74:\n        /* \"#utility.yul\":3729:3735   */\n      dup3\n        /* \"#utility.yul\":3724:3727   */\n      dup2\n        /* \"#utility.yul\":3719:3722   */\n      dup4\n        /* \"#utility.yul\":3713:3736   */\n      mcopy\n        /* \"#utility.yul\":3770:3771   */\n      0x00\n        /* \"#utility.yul\":3761:3767   */\n      dup4\n        /* \"#utility.yul\":3756:3759   */\n      dup4\n        /* \"#utility.yul\":3752:3768   */\n      add\n        /* \"#utility.yul\":3745:3772   */\n      mstore\n        /* \"#utility.yul\":3640:3779   */\n      pop\n      pop\n      pop\n      jump\t// out\n        /* \"#utility.yul\":3785:3887   */\n    tag_75:\n        /* \"#utility.yul\":3826:3832   */\n      0x00\n        /* \"#utility.yul\":3877:3879   */\n      0x1f\n        /* \"#utility.yul\":3873:3880   */\n      not\n        /* \"#utility.yul\":3868:3870   */\n      0x1f\n        /* \"#utility.yul\":3861:3866   */\n      dup4\n        /* \"#utility.yul\":3857:3871   */\n      add\n        /* \"#utility.yul\":3853:3881   */\n      and\n        /* \"#utility.yul\":3843:3881   */\n      swap1\n      pop\n        /* \"#utility.yul\":3785:3887   */\n      swap2\n      swap1\n      pop\n      jump\t// out\n        /* \"#utility.yul\":3893:4270   */\n    tag_76:\n        /* \"#utility.yul\":3981:3984   */\n      0x00\n        /* \"#utility.yul\":4009:4048   */\n      tag_161\n        /* \"#utility.yul\":4042:4047   */\n      dup3\n        /* \"#utility.yul\":4009:4048   */\n      tag_72\n      jump\t// in\n    tag_161:\n        /* \"#utility.yul\":4064:4135   */\n      tag_162\n        /* \"#utility.yul\":4128:4134   */\n      dup2\n        /* \"#utility.yul\":4123:4126   */\n      dup6\n        /* \"#utility.yul\":4064:4135   */\n      tag_73\n      jump\t// in\n    tag_162:\n        /* \"#utility.yul\":4057:4135   */\n      swap4\n      pop\n        /* \"#utility.yul\":4144:4209   */\n      tag_163\n        /* \"#utility.yul\":4202:4208   */\n      dup2\n        /* \"#utility.yul\":4197:4200   */\n      dup6\n        /* \"#utility.yul\":4190:4194   */\n      0x20\n        /* \"#utility.yul\":4183:4188   */\n      dup7\n        /* \"#utility.yul\":4179:4195   */\n      add\n        /* \"#utility.yul\":4144:4209   */\n      tag_74\n      jump\t// in\n    tag_163:\n        /* \"#utility.yul\":4234:4263   */\n      tag_164\n        /* \"#utility.yul\":4256:4262   */\n      dup2\n        /* \"#utility.yul\":4234:4263   */\n      tag_75\n      jump\t// in\n    tag_164:\n        /* \"#utility.yul\":4229:4232   */\n      dup5\n        /* \"#utility.yul\":4225:4264   */\n      add\n        /* \"#utility.yul\":4218:4264   */\n      swap2\n      pop\n        /* \"#utility.yul\":3985:4270   */\n      pop\n        /* \"#utility.yul\":3893:4270   */\n      swap3\n      swap2\n      pop\n      pop\n      jump\t// out\n        /* \"#utility.yul\":4276:4691   */\n    tag_21:\n        /* \"#utility.yul\":4413:4417   */\n      0x00\n        /* \"#utility.yul\":4451:4453   */\n      0x40\n        /* \"#utility.yul\":4440:4449   */\n      dup3\n        /* \"#utility.yul\":4436:4454   */\n      add\n        /* \"#utility.yul\":4428:4454   */\n      swap1\n      pop\n        /* \"#utility.yul\":4464:4531   */\n      tag_166\n        /* \"#utility.yul\":4528:4529   */\n      0x00\n        /* \"#utility.yul\":4517:4526   */\n      dup4\n        /* \"#utility.yul\":4513:4530   */\n      add\n        /* \"#utility.yul\":4504:4510   */\n      dup6\n        /* \"#utility.yul\":4464:4531   */\n      tag_71\n      jump\t// in\n    tag_166:\n        /* \"#utility.yul\":4578:4587   */\n      dup2\n        /* \"#utility.yul\":4572:4576   */\n      dup2\n        /* \"#utility.yul\":4568:4588   */\n      sub\n        /* \"#utility.yul\":4563:4565   */\n      0x20\n        /* \"#utility.yul\":4552:4561   */\n      dup4\n        /* \"#utility.yul\":4548:4566   */\n      add\n        /* \"#utility.yul\":4541:4589   */\n      mstore\n        /* \"#utility.yul\":4606:4684   */\n      tag_167\n        /* \"#utility.yul\":4679:4683   */\n      dup2\n        /* \"#utility.yul\":4670:4676   */\n      dup5\n        /* \"#utility.yul\":4606:4684   */\n      tag_76\n      jump\t// in\n    tag_167:\n        /* \"#utility.yul\":4598:4684   */\n      swap1\n      pop\n        /* \"#utility.yul\":4276:4691   */\n      swap4\n      swap3\n      pop\n      pop\n      pop\n      jump\t// out\n        /* \"#utility.yul\":4697:4799   */\n    tag_77:\n        /* \"#utility.yul\":4770:4792   */\n      tag_169\n        /* \"#utility.yul\":4786:4791   */\n      dup2\n        /* \"#utility.yul\":4770:4792   */\n      tag_70\n      jump\t// in\n    tag_169:\n        /* \"#utility.yul\":4765:4768   */\n      dup3\n        /* \"#utility.yul\":4758:4793   */\n      mstore\n        /* \"#utility.yul\":4697:4799   */\n      pop\n      pop\n      jump\t// out\n        /* \"#utility.yul\":4805:4964   */\n    tag_78:\n        /* \"#utility.yul\":4879:4890   */\n      0x00\n        /* \"#utility.yul\":4913:4919   */\n      dup3\n        /* \"#utility.yul\":4908:4911   */\n      dup3\n        /* \"#utility.yul\":4901:4920   */\n      mstore\n        /* \"#utility.yul\":4953:4957   */\n      0x20\n        /* \"#utility.yul\":4948:4951   */\n      dup3\n        /* \"#utility.yul\":4944:4958   */\n      add\n        /* \"#utility.yul\":4929:4958   */\n      swap1\n      pop\n        /* \"#utility.yul\":4805:4964   */\n      swap3\n      swap2\n      pop\n      pop\n      jump\t// out\n        /* \"#utility.yul\":4970:5327   */\n    tag_79:\n        /* \"#utility.yul\":5048:5051   */\n      0x00\n        /* \"#utility.yul\":5076:5115   */\n      tag_172\n        /* \"#utility.yul\":5109:5114   */\n      dup3\n        /* \"#utility.yul\":5076:5115   */\n      tag_72\n      jump\t// in\n    tag_172:\n        /* \"#utility.yul\":5131:5192   */\n      tag_173\n        /* \"#utility.yul\":5185:5191   */\n      dup2\n        /* \"#utility.yul\":5180:5183   */\n      dup6\n        /* \"#utility.yul\":5131:5192   */\n      tag_78\n      jump\t// in\n    tag_173:\n        /* \"#utility.yul\":5124:5192   */\n      swap4\n      pop\n        /* \"#utility.yul\":5201:5266   */\n      tag_174\n        /* \"#utility.yul\":5259:5265   */\n      dup2\n        /* \"#utility.yul\":5254:5257   */\n      dup6\n        /* \"#utility.yul\":5247:5251   */\n      0x20\n        /* \"#utility.yul\":5240:5245   */\n      dup7\n        /* \"#utility.yul\":5236:5252   */\n      add\n        /* \"#utility.yul\":5201:5266   */\n      tag_74\n      jump\t// in\n    tag_174:\n        /* \"#utility.yul\":5291:5320   */\n      tag_175\n        /* \"#utility.yul\":5313:5319   */\n      dup2\n        /* \"#utility.yul\":5291:5320   */\n      tag_75\n      jump\t// in\n    tag_175:\n        /* \"#utility.yul\":5286:5289   */\n      dup5\n        /* \"#utility.yul\":5282:5321   */\n      add\n        /* \"#utility.yul\":5275:5321   */\n      swap2\n      pop\n        /* \"#utility.yul\":5052:5327   */\n      pop\n        /* \"#utility.yul\":4970:5327   */\n      swap3\n      swap2\n      pop\n      pop\n      jump\t// out\n        /* \"#utility.yul\":5399:5992   */\n    tag_80:\n        /* \"#utility.yul\":5510:5513   */\n      0x00\n        /* \"#utility.yul\":5546:5550   */\n      0x40\n        /* \"#utility.yul\":5541:5544   */\n      dup4\n        /* \"#utility.yul\":5537:5551   */\n      add\n        /* \"#utility.yul\":5632:5636   */\n      0x00\n        /* \"#utility.yul\":5625:5630   */\n      dup4\n        /* \"#utility.yul\":5621:5637   */\n      add\n        /* \"#utility.yul\":5615:5638   */\n      mload\n        /* \"#utility.yul\":5651:5710   */\n      tag_177\n        /* \"#utility.yul\":5704:5708   */\n      0x00\n        /* \"#utility.yul\":5699:5702   */\n      dup7\n        /* \"#utility.yul\":5695:5709   */\n      add\n        /* \"#utility.yul\":5681:5693   */\n      dup3\n        /* \"#utility.yul\":5651:5710   */\n      tag_77\n      jump\t// in\n    tag_177:\n        /* \"#utility.yul\":5561:5720   */\n      pop\n        /* \"#utility.yul\":5802:5806   */\n      0x20\n        /* \"#utility.yul\":5795:5800   */\n      dup4\n        /* \"#utility.yul\":5791:5807   */\n      add\n        /* \"#utility.yul\":5785:5808   */\n      mload\n        /* \"#utility.yul\":5855:5858   */\n      dup5\n        /* \"#utility.yul\":5849:5853   */\n      dup3\n        /* \"#utility.yul\":5845:5859   */\n      sub\n        /* \"#utility.yul\":5838:5842   */\n      0x20\n        /* \"#utility.yul\":5833:5836   */\n      dup7\n        /* \"#utility.yul\":5829:5843   */\n      add\n        /* \"#utility.yul\":5822:5860   */\n      mstore\n        /* \"#utility.yul\":5881:5954   */\n      tag_178\n        /* \"#utility.yul\":5949:5953   */\n      dup3\n        /* \"#utility.yul\":5935:5947   */\n      dup3\n        /* \"#utility.yul\":5881:5954   */\n      tag_79\n      jump\t// in\n    tag_178:\n        /* \"#utility.yul\":5873:5954   */\n      swap2\n      pop\n        /* \"#utility.yul\":5730:5965   */\n      pop\n        /* \"#utility.yul\":5982:5986   */\n      dup1\n        /* \"#utility.yul\":5975:5986   */\n      swap2\n      pop\n        /* \"#utility.yul\":5515:5992   */\n      pop\n        /* \"#utility.yul\":5399:5992   */\n      swap3\n      swap2\n      pop\n      pop\n      jump\t// out\n        /* \"#utility.yul\":5998:6355   */\n    tag_25:\n        /* \"#utility.yul\":6133:6137   */\n      0x00\n        /* \"#utility.yul\":6171:6173   */\n      0x20\n        /* \"#utility.yul\":6160:6169   */\n      dup3\n        /* \"#utility.yul\":6156:6174   */\n      add\n        /* \"#utility.yul\":6148:6174   */\n      swap1\n      pop\n        /* \"#utility.yul\":6220:6229   */\n      dup2\n        /* \"#utility.yul\":6214:6218   */\n      dup2\n        /* \"#utility.yul\":6210:6230   */\n      sub\n        /* \"#utility.yul\":6206:6207   */\n      0x00\n        /* \"#utility.yul\":6195:6204   */\n      dup4\n        /* \"#utility.yul\":6191:6208   */\n      add\n        /* \"#utility.yul\":6184:6231   */\n      mstore\n        /* \"#utility.yul\":6248:6348   */\n      tag_180\n        /* \"#utility.yul\":6343:6347   */\n      dup2\n        /* \"#utility.yul\":6334:6340   */\n      dup5\n        /* \"#utility.yul\":6248:6348   */\n      tag_80\n      jump\t// in\n    tag_180:\n        /* \"#utility.yul\":6240:6348   */\n      swap1\n      pop\n        /* \"#utility.yul\":5998:6355   */\n      swap3\n      swap2\n      pop\n      pop\n      jump\t// out\n        /* \"#utility.yul\":6361:6690   */\n    tag_28:\n        /* \"#utility.yul\":6420:6426   */\n      0x00\n        /* \"#utility.yul\":6469:6471   */\n      0x20\n        /* \"#utility.yul\":6457:6466   */\n      dup3\n        /* \"#utility.yul\":6448:6455   */\n      dup5\n        /* \"#utility.yul\":6444:6467   */\n      sub\n        /* \"#utility.yul\":6440:6472   */\n      slt\n        /* \"#utility.yul\":6437:6556   */\n      iszero\n      tag_182\n      jumpi\n        /* \"#utility.yul\":6475:6554   */\n      tag_183\n      tag_59\n      jump\t// in\n    tag_183:\n        /* \"#utility.yul\":6437:6556   */\n    tag_182:\n        /* \"#utility.yul\":6595:6596   */\n      0x00\n        /* \"#utility.yul\":6620:6673   */\n      tag_184\n        /* \"#utility.yul\":6665:6672   */\n      dup5\n        /* \"#utility.yul\":6656:6662   */\n      dup3\n        /* \"#utility.yul\":6645:6654   */\n      dup6\n        /* \"#utility.yul\":6641:6663   */\n      add\n        /* \"#utility.yul\":6620:6673   */\n      tag_66\n      jump\t// in\n    tag_184:\n        /* \"#utility.yul\":6610:6673   */\n      swap2\n      pop\n        /* \"#utility.yul\":6566:6683   */\n      pop\n        /* \"#utility.yul\":6361:6690   */\n      swap3\n      swap2\n      pop\n      pop\n      jump\t// out\n        /* \"#utility.yul\":6882:7000   */\n    tag_82:\n        /* \"#utility.yul\":6953:6975   */\n      tag_187\n        /* \"#utility.yul\":6969:6974   */\n      dup2\n        /* \"#utility.yul\":6953:6975   */\n      tag_70\n      jump\t// in\n    tag_187:\n        /* \"#utility.yul\":6946:6951   */\n      dup2\n        /* \"#utility.yul\":6943:6976   */\n      eq\n        /* \"#utility.yul\":6933:6994   */\n      tag_188\n      jumpi\n        /* \"#utility.yul\":6990:6991   */\n      0x00\n        /* \"#utility.yul\":6987:6988   */\n      0x00\n        /* \"#utility.yul\":6980:6992   */\n      revert\n        /* \"#utility.yul\":6933:6994   */\n    tag_188:\n        /* \"#utility.yul\":6882:7000   */\n      pop\n      jump\t// out\n        /* \"#utility.yul\":7006:7188   */\n    tag_83:\n        /* \"#utility.yul\":7049:7060   */\n      0x00\n        /* \"#utility.yul\":7098:7101   */\n      dup2\n        /* \"#utility.yul\":7085:7102   */\n      calldataload\n        /* \"#utility.yul\":7111:7142   */\n      tag_190\n        /* \"#utility.yul\":7136:7141   */\n      dup2\n        /* \"#utility.yul\":7111:7142   */\n      tag_82\n      jump\t// in\n    tag_190:\n        /* \"#utility.yul\":7176:7181   */\n      dup1\n        /* \"#utility.yul\":7152:7181   */\n      swap2\n      pop\n        /* \"#utility.yul\":7061:7188   */\n      pop\n        /* \"#utility.yul\":7006:7188   */\n      swap2\n      swap1\n      pop\n      jump\t// out\n        /* \"#utility.yul\":7194:7286   */\n    tag_84:\n        /* \"#utility.yul\":7226:7234   */\n      0x00\n        /* \"#utility.yul\":7273:7278   */\n      dup2\n        /* \"#utility.yul\":7270:7271   */\n      0x00\n        /* \"#utility.yul\":7266:7279   */\n      shl\n        /* \"#utility.yul\":7245:7279   */\n      swap1\n      pop\n        /* \"#utility.yul\":7194:7286   */\n      swap2\n      swap1\n      pop\n      jump\t// out\n        /* \"#utility.yul\":7292:7518   */\n    tag_85:\n        /* \"#utility.yul\":7349:7355   */\n      0x00\n        /* \"#utility.yul\":7378:7381   */\n      0xff\n        /* \"#utility.yul\":7402:7424   */\n      tag_193\n        /* \"#utility.yul\":7415:7423   */\n      dup5\n        /* \"#utility.yul\":7402:7424   */\n      tag_84\n      jump\t// in\n    tag_193:\n        /* \"#utility.yul\":7390:7424   */\n      swap4\n      pop\n        /* \"#utility.yul\":7457:7461   */\n      dup1\n        /* \"#utility.yul\":7453:7462   */\n      not\n        /* \"#utility.yul\":7446:7451   */\n      dup4\n        /* \"#utility.yul\":7442:7463   */\n      and\n        /* \"#utility.yul\":7433:7463   */\n      swap3\n      pop\n        /* \"#utility.yul\":7506:7510   */\n      dup1\n        /* \"#utility.yul\":7496:7504   */\n      dup5\n        /* \"#utility.yul\":7492:7511   */\n      and\n        /* \"#utility.yul\":7485:7490   */\n      dup4\n        /* \"#utility.yul\":7482:7512   */\n      or\n        /* \"#utility.yul\":7472:7512   */\n      swap2\n      pop\n        /* \"#utility.yul\":7356:7518   */\n      pop\n        /* \"#utility.yul\":7292:7518   */\n      swap3\n      swap2\n      pop\n      pop\n      jump\t// out\n        /* \"#utility.yul\":7524:7584   */\n    tag_86:\n        /* \"#utility.yul\":7552:7555   */\n      0x00\n        /* \"#utility.yul\":7573:7578   */\n      dup2\n        /* \"#utility.yul\":7566:7578   */\n      swap1\n      pop\n        /* \"#utility.yul\":7524:7584   */\n      swap2\n      swap1\n      pop\n      jump\t// out\n        /* \"#utility.yul\":7590:7724   */\n    tag_87:\n        /* \"#utility.yul\":7636:7645   */\n      0x00\n        /* \"#utility.yul\":7669:7718   */\n      tag_196\n        /* \"#utility.yul\":7685:7717   */\n      tag_197\n        /* \"#utility.yul\":7694:7716   */\n      tag_198\n        /* \"#utility.yul\":7710:7715   */\n      dup5\n        /* \"#utility.yul\":7694:7716   */\n      tag_70\n      jump\t// in\n    tag_198:\n        /* \"#utility.yul\":7685:7717   */\n      tag_86\n      jump\t// in\n    tag_197:\n        /* \"#utility.yul\":7669:7718   */\n      tag_70\n      jump\t// in\n    tag_196:\n        /* \"#utility.yul\":7656:7718   */\n      swap1\n      pop\n        /* \"#utility.yul\":7590:7724   */\n      swap2\n      swap1\n      pop\n      jump\t// out\n        /* \"#utility.yul\":7730:7803   */\n    tag_88:\n        /* \"#utility.yul\":7771:7774   */\n      0x00\n        /* \"#utility.yul\":7792:7797   */\n      dup2\n        /* \"#utility.yul\":7785:7797   */\n      swap1\n      pop\n        /* \"#utility.yul\":7730:7803   */\n      swap2\n      swap1\n      pop\n      jump\t// out\n        /* \"#utility.yul\":7809:8061   */\n    tag_89:\n        /* \"#utility.yul\":7916:7951   */\n      tag_201\n        /* \"#utility.yul\":7943:7950   */\n      dup3\n        /* \"#utility.yul\":7916:7951   */\n      tag_87\n      jump\t// in\n    tag_201:\n        /* \"#utility.yul\":7973:8054   */\n      tag_202\n        /* \"#utility.yul\":8014:8053   */\n      tag_203\n        /* \"#utility.yul\":8036:8052   */\n      dup3\n        /* \"#utility.yul\":8014:8053   */\n      tag_88\n      jump\t// in\n    tag_203:\n        /* \"#utility.yul\":8007:8011   */\n      dup4\n        /* \"#utility.yul\":8001:8012   */\n      sload\n        /* \"#utility.yul\":7973:8054   */\n      tag_85\n      jump\t// in\n    tag_202:\n        /* \"#utility.yul\":7967:7971   */\n      dup3\n        /* \"#utility.yul\":7960:8055   */\n      sstore\n        /* \"#utility.yul\":7882:8061   */\n      pop\n        /* \"#utility.yul\":7809:8061   */\n      pop\n      pop\n      jump\t// out\n        /* \"#utility.yul\":8067:8184   */\n    tag_90:\n        /* \"#utility.yul\":8176:8177   */\n      0x00\n        /* \"#utility.yul\":8173:8174   */\n      0x00\n        /* \"#utility.yul\":8166:8178   */\n      revert\n        /* \"#utility.yul\":8190:8307   */\n    tag_91:\n        /* \"#utility.yul\":8299:8300   */\n      0x00\n        /* \"#utility.yul\":8296:8297   */\n      0x00\n        /* \"#utility.yul\":8289:8301   */\n      revert\n        /* \"#utility.yul\":8313:8430   */\n    tag_92:\n        /* \"#utility.yul\":8422:8423   */\n      0x00\n        /* \"#utility.yul\":8419:8420   */\n      0x00\n        /* \"#utility.yul\":8412:8424   */\n      revert\n        /* \"#utility.yul\":8436:9161   */\n    tag_93:\n        /* \"#utility.yul\":8514:8518   */\n      0x00\n        /* \"#utility.yul\":8520:8526   */\n      0x00\n        /* \"#utility.yul\":8576:8587   */\n      dup4\n        /* \"#utility.yul\":8563:8588   */\n      calldataload\n        /* \"#utility.yul\":8676:8677   */\n      0x01\n        /* \"#utility.yul\":8670:8674   */\n      0x20\n        /* \"#utility.yul\":8666:8678   */\n      sub\n        /* \"#utility.yul\":8655:8663   */\n      dup5\n        /* \"#utility.yul\":8639:8653   */\n      calldatasize\n        /* \"#utility.yul\":8635:8664   */\n      sub\n        /* \"#utility.yul\":8631:8679   */\n      sub\n        /* \"#utility.yul\":8611:8629   */\n      dup2\n        /* \"#utility.yul\":8607:8680   */\n      slt\n        /* \"#utility.yul\":8597:8765   */\n      tag_208\n      jumpi\n        /* \"#utility.yul\":8684:8763   */\n      tag_209\n      tag_90\n      jump\t// in\n    tag_209:\n        /* \"#utility.yul\":8597:8765   */\n    tag_208:\n        /* \"#utility.yul\":8796:8814   */\n      dup1\n        /* \"#utility.yul\":8786:8794   */\n      dup5\n        /* \"#utility.yul\":8782:8815   */\n      add\n        /* \"#utility.yul\":8774:8815   */\n      swap3\n      pop\n        /* \"#utility.yul\":8848:8852   */\n      dup3\n        /* \"#utility.yul\":8835:8853   */\n      calldataload\n        /* \"#utility.yul\":8825:8853   */\n      swap2\n      pop\n        /* \"#utility.yul\":8876:8894   */\n      0xffffffffffffffff\n        /* \"#utility.yul\":8868:8874   */\n      dup3\n        /* \"#utility.yul\":8865:8895   */\n      gt\n        /* \"#utility.yul\":8862:8979   */\n      iszero\n      tag_210\n      jumpi\n        /* \"#utility.yul\":8898:8977   */\n      tag_211\n      tag_91\n      jump\t// in\n    tag_211:\n        /* \"#utility.yul\":8862:8979   */\n    tag_210:\n        /* \"#utility.yul\":9006:9008   */\n      0x20\n        /* \"#utility.yul\":9000:9004   */\n      dup4\n        /* \"#utility.yul\":8996:9009   */\n      add\n        /* \"#utility.yul\":8988:9009   */\n      swap3\n      pop\n        /* \"#utility.yul\":9063:9067   */\n      0x01\n        /* \"#utility.yul\":9055:9061   */\n      dup3\n        /* \"#utility.yul\":9051:9068   */\n      mul\n        /* \"#utility.yul\":9035:9049   */\n      calldatasize\n        /* \"#utility.yul\":9031:9069   */\n      sub\n        /* \"#utility.yul\":9025:9029   */\n      dup4\n        /* \"#utility.yul\":9021:9070   */\n      sgt\n        /* \"#utility.yul\":9018:9154   */\n      iszero\n      tag_212\n      jumpi\n        /* \"#utility.yul\":9073:9152   */\n      tag_213\n      tag_92\n      jump\t// in\n    tag_213:\n        /* \"#utility.yul\":9018:9154   */\n    tag_212:\n        /* \"#utility.yul\":8527:9161   */\n      pop\n        /* \"#utility.yul\":8436:9161   */\n      swap3\n      pop\n      swap3\n      swap1\n      pop\n      jump\t// out\n        /* \"#utility.yul\":9167:9264   */\n    tag_94:\n        /* \"#utility.yul\":9226:9232   */\n      0x00\n        /* \"#utility.yul\":9254:9257   */\n      dup3\n        /* \"#utility.yul\":9244:9257   */\n      swap1\n      pop\n        /* \"#utility.yul\":9167:9264   */\n      swap3\n      swap2\n      pop\n      pop\n      jump\t// out\n        /* \"#utility.yul\":9270:9450   */\n    tag_95:\n        /* \"#utility.yul\":9318:9395   */\n      0x4e487b7100000000000000000000000000000000000000000000000000000000\n        /* \"#utility.yul\":9315:9316   */\n      0x00\n        /* \"#utility.yul\":9308:9396   */\n      mstore\n        /* \"#utility.yul\":9415:9419   */\n      0x41\n        /* \"#utility.yul\":9412:9413   */\n      0x04\n        /* \"#utility.yul\":9405:9420   */\n      mstore\n        /* \"#utility.yul\":9439:9443   */\n      0x24\n        /* \"#utility.yul\":9436:9437   */\n      0x00\n        /* \"#utility.yul\":9429:9444   */\n      revert\n        /* \"#utility.yul\":9456:9636   */\n    tag_96:\n        /* \"#utility.yul\":9504:9581   */\n      0x4e487b7100000000000000000000000000000000000000000000000000000000\n        /* \"#utility.yul\":9501:9502   */\n      0x00\n        /* \"#utility.yul\":9494:9582   */\n      mstore\n        /* \"#utility.yul\":9601:9605   */\n      0x22\n        /* \"#utility.yul\":9598:9599   */\n      0x04\n        /* \"#utility.yul\":9591:9606   */\n      mstore\n        /* \"#utility.yul\":9625:9629   */\n      0x24\n        /* \"#utility.yul\":9622:9623   */\n      0x00\n        /* \"#utility.yul\":9615:9630   */\n      revert\n        /* \"#utility.yul\":9642:9962   */\n    tag_40:\n        /* \"#utility.yul\":9686:9692   */\n      0x00\n        /* \"#utility.yul\":9723:9724   */\n      0x02\n        /* \"#utility.yul\":9717:9721   */\n      dup3\n        /* \"#utility.yul\":9713:9725   */\n      div\n        /* \"#utility.yul\":9703:9725   */\n      swap1\n      pop\n        /* \"#utility.yul\":9770:9771   */\n      0x01\n        /* \"#utility.yul\":9764:9768   */\n      dup3\n        /* \"#utility.yul\":9760:9772   */\n      and\n        /* \"#utility.yul\":9791:9809   */\n      dup1\n        /* \"#utility.yul\":9781:9862   */\n      tag_218\n      jumpi\n        /* \"#utility.yul\":9847:9851   */\n      0x7f\n        /* \"#utility.yul\":9839:9845   */\n      dup3\n        /* \"#utility.yul\":9835:9852   */\n      and\n        /* \"#utility.yul\":9825:9852   */\n      swap2\n      pop\n        /* \"#utility.yul\":9781:9862   */\n    tag_218:\n        /* \"#utility.yul\":9909:9911   */\n      0x20\n        /* \"#utility.yul\":9901:9907   */\n      dup3\n        /* \"#utility.yul\":9898:9912   */\n      lt\n        /* \"#utility.yul\":9878:9896   */\n      dup2\n        /* \"#utility.yul\":9875:9913   */\n      sub\n        /* \"#utility.yul\":9872:9956   */\n      tag_219\n      jumpi\n        /* \"#utility.yul\":9928:9946   */\n      tag_220\n      tag_96\n      jump\t// in\n    tag_220:\n        /* \"#utility.yul\":9872:9956   */\n    tag_219:\n        /* \"#utility.yul\":9693:9962   */\n      pop\n        /* \"#utility.yul\":9642:9962   */\n      swap2\n      swap1\n      pop\n      jump\t// out\n        /* \"#utility.yul\":9968:10109   */\n    tag_97:\n        /* \"#utility.yul\":10017:10021   */\n      0x00\n        /* \"#utility.yul\":10040:10043   */\n      dup2\n        /* \"#utility.yul\":10032:10043   */\n      swap1\n      pop\n        /* \"#utility.yul\":10063:10066   */\n      dup2\n        /* \"#utility.yul\":10060:10061   */\n      0x00\n        /* \"#utility.yul\":10053:10067   */\n      mstore\n        /* \"#utility.yul\":10097:10101   */\n      0x20\n        /* \"#utility.yul\":10094:10095   */\n      0x00\n        /* \"#utility.yul\":10084:10102   */\n      keccak256\n        /* \"#utility.yul\":10076:10102   */\n      swap1\n      pop\n        /* \"#utility.yul\":9968:10109   */\n      swap2\n      swap1\n      pop\n      jump\t// out\n        /* \"#utility.yul\":10115:10208   */\n    tag_98:\n        /* \"#utility.yul\":10152:10158   */\n      0x00\n        /* \"#utility.yul\":10199:10201   */\n      0x20\n        /* \"#utility.yul\":10194:10196   */\n      0x1f\n        /* \"#utility.yul\":10187:10192   */\n      dup4\n        /* \"#utility.yul\":10183:10197   */\n      add\n        /* \"#utility.yul\":10179:10202   */\n      div\n        /* \"#utility.yul\":10169:10202   */\n      swap1\n      pop\n        /* \"#utility.yul\":10115:10208   */\n      swap2\n      swap1\n      pop\n      jump\t// out\n        /* \"#utility.yul\":10214:10321   */\n    tag_99:\n        /* \"#utility.yul\":10258:10266   */\n      0x00\n        /* \"#utility.yul\":10308:10313   */\n      dup3\n        /* \"#utility.yul\":10302:10306   */\n      dup3\n        /* \"#utility.yul\":10298:10314   */\n      shl\n        /* \"#utility.yul\":10277:10314   */\n      swap1\n      pop\n        /* \"#utility.yul\":10214:10321   */\n      swap3\n      swap2\n      pop\n      pop\n      jump\t// out\n        /* \"#utility.yul\":10327:10720   */\n    tag_100:\n        /* \"#utility.yul\":10396:10402   */\n      0x00\n        /* \"#utility.yul\":10446:10447   */\n      0x08\n        /* \"#utility.yul\":10434:10444   */\n      dup4\n        /* \"#utility.yul\":10430:10448   */\n      mul\n        /* \"#utility.yul\":10469:10566   */\n      tag_225\n        /* \"#utility.yul\":10499:10565   */\n      0xffffffffffffffffffffffffffffffffffffffffffffffffffffffffffffffff\n        /* \"#utility.yul\":10488:10497   */\n      dup3\n        /* \"#utility.yul\":10469:10566   */\n      tag_99\n      jump\t// in\n    tag_225:\n        /* \"#utility.yul\":10587:10626   */\n      tag_226\n        /* \"#utility.yul\":10617:10625   */\n      dup7\n        /* \"#utility.yul\":10606:10615   */\n      dup4\n        /* \"#utility.yul\":10587:10626   */\n      tag_99\n      jump\t// in\n    tag_226:\n        /* \"#utility.yul\":10575:10626   */\n      swap6\n      pop\n        /* \"#utility.yul\":10659:10663   */\n      dup1\n        /* \"#utility.yul\":10655:10664   */\n      not\n        /* \"#utility.yul\":10648:10653   */\n      dup5\n        /* \"#utility.yul\":10644:10665   */\n      and\n        /* \"#utility.yul\":10635:10665   */\n      swap4\n      pop\n        /* \"#utility.yul\":10708:10712   */\n      dup1\n        /* \"#utility.yul\":10698:10706   */\n      dup7\n        /* \"#utility.yul\":10694:10713   */\n      and\n        /* \"#utility.yul\":10687:10692   */\n      dup5\n        /* \"#utility.yul\":10684:10714   */\n      or\n        /* \"#utility.yul\":10674:10714   */\n      swap3\n      pop\n        /* \"#utility.yul\":10403:10720   */\n      pop\n      pop\n        /* \"#utility.yul\":10327:10720   */\n      swap4\n      swap3\n      pop\n      pop\n      pop\n      jump\t// out\n        /* \"#utility.yul\":10726:10868   */\n    tag_101:\n        /* \"#utility.yul\":10776:10785   */\n      0x00\n        /* \"#utility.yul\":10809:10862   */\n      tag_228\n        /* \"#utility.yul\":10827:10861   */\n      tag_229\n        /* \"#utility.yul\":10836:10860   */\n      tag_230\n        /* \"#utility.yul\":10854:10859   */\n      dup5\n        /* \"#utility.yul\":10836:10860   */\n      tag_67\n      jump\t// in\n    tag_230:\n        /* \"#utility.yul\":10827:10861   */\n      tag_86\n      jump\t// in\n    tag_229:\n        /* \"#utility.yul\":10809:10862   */\n      tag_67\n      jump\t// in\n    tag_228:\n        /* \"#utility.yul\":10796:10862   */\n      swap1\n      pop\n        /* \"#utility.yul\":10726:10868   */\n      swap2\n      swap1\n      pop\n      jump\t// out\n        /* \"#utility.yul\":10874:10949   */\n    tag_102:\n        /* \"#utility.yul\":10917:10920   */\n      0x00\n        /* \"#utility.yul\":10938:10943   */\n      dup2\n        /* \"#utility.yul\":10931:10943   */\n      swap1\n      pop\n        /* \"#utility.yul\":10874:10949   */\n      swap2\n      swap1\n      pop\n      jump\t// out\n        /* \"#utility.yul\":10955:11224   */\n    tag_103:\n        /* \"#utility.yul\":11065:11104   */\n      tag_233\n        /* \"#utility.yul\":11096:11103   */\n      dup4\n        /* \"#utility.yul\":11065:11104   */\n      tag_101\n      jump\t// in\n    tag_233:\n        /* \"#utility.yul\":11126:11217   */\n      tag_234\n        /* \"#utility.yul\":11175:11216   */\n      tag_235\n        /* \"#utility.yul\":11199:11215   */\n      dup3\n        /* \"#utility.yul\":11175:11216   */\n      tag_102\n      jump\t// in\n    tag_235:\n        /* \"#utility.yul\":11167:11173   */\n      dup5\n        /* \"#utility.yul\":11160:11164   */\n      dup5\n        /* \"#utility.yul\":11154:11165   */\n      sload\n        /* \"#utility.yul\":11126:11217   */\n      tag_100\n      jump\t// in\n    tag_234:\n        /* \"#utility.yul\":11120:11124   */\n      dup3\n        /* \"#utility.yul\":11113:11218   */\n      sstore\n        /* \"#utility.yul\":11031:11224   */\n      pop\n        /* \"#utility.yul\":10955:11224   */\n      pop\n      pop\n      pop\n      jump\t// out\n        /* \"#utility.yul\":11230:11303   */\n    tag_104:\n        /* \"#utility.yul\":11275:11278   */\n      0x00\n        /* \"#utility.yul\":11296:11297   */\n      0x00\n        /* \"#utility.yul\":11289:11297   */\n      swap1\n      pop\n        /* \"#utility.yul\":11230:11303   */\n      swap1\n      jump\t// out\n        /* \"#utility.yul\":11309:11498   */\n    tag_105:\n        /* \"#utility.yul\":11386:11418   */\n      tag_238\n      tag_104\n      jump\t// in\n    tag_238:\n        /* \"#utility.yul\":11427:11492   */\n      tag_239\n        /* \"#utility.yul\":11485:11491   */\n      dup2\n        /* \"#utility.yul\":11477:11483   */\n      dup5\n        /* \"#utility.yul\":11471:11475   */\n      dup5\n        /* \"#utility.yul\":11427:11492   */\n      tag_103\n      jump\t// in\n    tag_239:\n        /* \"#utility.yul\":11362:11498   */\n      pop\n        /* \"#utility.yul\":11309:11498   */\n      pop\n      pop\n      jump\t// out\n        /* \"#utility.yul\":11504:11690   */\n    tag_106:\n        /* \"#utility.yul\":11564:11684   */\n    tag_241:\n        /* \"#utility.yul\":11581:11584   */\n      dup2\n        /* \"#utility.yul\":11574:11579   */\n      dup2\n        /* \"#utility.yul\":11571:11585   */\n      lt\n        /* \"#utility.yul\":11564:11684   */\n      iszero\n      tag_243\n      jumpi\n        /* \"#utility.yul\":11635:11674   */\n      tag_244\n        /* \"#utility.yul\":11672:11673   */\n      0x00\n        /* \"#utility.yul\":11665:11670   */\n      dup3\n        /* \"#utility.yul\":11635:11674   */\n      tag_105\n      jump\t// in\n    tag_244:\n        /* \"#utility.yul\":11608:11609   */\n      0x01\n        /* \"#utility.yul\":11601:11606   */\n      dup2\n        /* \"#utility.yul\":11597:11610   */\n      add\n        /* \"#utility.yul\":11588:11610   */\n      swap1\n      pop\n        /* \"#utility.yul\":11564:11684   */\n      jump(tag_241)\n    tag_243:\n        /* \"#utility.yul\":11504:11690   */\n      pop\n      pop\n      jump\t// out\n        /* \"#utility.yul\":11696:12239   */\n    tag_107:\n        /* \"#utility.yul\":11797:11799   */\n      0x1f\n        /* \"#utility.yul\":11792:11795   */\n      dup3\n        /* \"#utility.yul\":11789:11800   */\n      gt\n        /* \"#utility.yul\":11786:12232   */\n      iszero\n      tag_246\n      jumpi\n        /* \"#utility.yul\":11831:11869   */\n      tag_247\n        /* \"#utility.yul\":11863:11868   */\n      dup2\n        /* \"#utility.yul\":11831:11869   */\n      tag_97\n      jump\t// in\n    tag_247:\n        /* \"#utility.yul\":11915:11944   */\n      tag_248\n        /* \"#utility.yul\":11933:11943   */\n      dup5\n        /* \"#utility.yul\":11915:11944   */\n      tag_98\n      jump\t// in\n    tag_248:\n        /* \"#utility.yul\":11905:11913   */\n      dup2\n        /* \"#utility.yul\":11901:11945   */\n      add\n        /* \"#utility.yul\":12098:12100   */\n      0x20\n        /* \"#utility.yul\":12086:12096   */\n      dup6\n        /* \"#utility.yul\":12083:12101   */\n      lt\n        /* \"#utility.yul\":12080:12129   */\n      iszero\n      tag_249\n      jumpi\n        /* \"#utility.yul\":12119:12127   */\n      dup2\n        /* \"#utility.yul\":12104:12127   */\n      swap1\n      pop\n        /* \"#utility.yul\":12080:12129   */\n    tag_249:\n        /* \"#utility.yul\":12142:12222   */\n      tag_250\n        /* \"#utility.yul\":12198:12220   */\n      tag_251\n        /* \"#utility.yul\":12216:12219   */\n      dup6\n        /* \"#utility.yul\":12198:12220   */\n      tag_98\n      jump\t// in\n    tag_251:\n        /* \"#utility.yul\":12188:12196   */\n      dup4\n        /* \"#utility.yul\":12184:12221   */\n      add\n        /* \"#utility.yul\":12171:12182   */\n      dup3\n        /* \"#utility.yul\":12142:12222   */\n      tag_106\n      jump\t// in\n    tag_250:\n        /* \"#utility.yul\":11801:12232   */\n      pop\n      pop\n        /* \"#utility.yul\":11786:12232   */\n    tag_246:\n        /* \"#utility.yul\":11696:12239   */\n      pop\n      pop\n      pop\n      jump\t// out\n        /* \"#utility.yul\":12245:12362   */\n    tag_108:\n        /* \"#utility.yul\":12299:12307   */\n      0x00\n        /* \"#utility.yul\":12349:12354   */\n      dup3\n        /* \"#utility.yul\":12343:12347   */\n      dup3\n        /* \"#utility.yul\":12339:12355   */\n      shr\n        /* \"#utility.yul\":12318:12355   */\n      swap1\n      pop\n        /* \"#utility.yul\":12245:12362   */\n      swap3\n      swap2\n      pop\n      pop\n      jump\t// out\n        /* \"#utility.yul\":12368:12537   */\n    tag_109:\n        /* \"#utility.yul\":12412:12418   */\n      0x00\n        /* \"#utility.yul\":12445:12496   */\n      tag_254\n        /* \"#utility.yul\":12493:12494   */\n      0x00\n        /* \"#utility.yul\":12489:12495   */\n      not\n        /* \"#utility.yul\":12481:12486   */\n      dup5\n        /* \"#utility.yul\":12478:12479   */\n      0x08\n        /* \"#utility.yul\":12474:12487   */\n      mul\n        /* \"#utility.yul\":12445:12496   */\n      tag_108\n      jump\t// in\n    tag_254:\n        /* \"#utility.yul\":12441:12497   */\n      not\n        /* \"#utility.yul\":12526:12530   */\n      dup1\n        /* \"#utility.yul\":12520:12524   */\n      dup4\n        /* \"#utility.yul\":12516:12531   */\n      and\n        /* \"#utility.yul\":12506:12531   */\n      swap2\n      pop\n        /* \"#utility.yul\":12419:12537   */\n      pop\n        /* \"#utility.yul\":12368:12537   */\n      swap3\n      swap2\n      pop\n      pop\n      jump\t// out\n        /* \"#utility.yul\":12542:12837   */\n    tag_110:\n        /* \"#utility.yul\":12618:12622   */\n      0x00\n        /* \"#utility.yul\":12764:12793   */\n      tag_256\n        /* \"#utility.yul\":12789:12792   */\n      dup4\n        /* \"#utility.yul\":12783:12787   */\n      dup4\n        /* \"#utility.yul\":12764:12793   */\n      tag_109\n      jump\t// in\n    tag_256:\n        /* \"#utility.yul\":12756:12793   */\n      swap2\n      pop\n        /* \"#utility.yul\":12826:12829   */\n      dup3\n        /* \"#utility.yul\":12823:12824   */\n      0x02\n        /* \"#utility.yul\":12819:12830   */\n      mul\n        /* \"#utility.yul\":12813:12817   */\n      dup3\n        /* \"#utility.yul\":12810:12831   */\n      or\n        /* \"#utility.yul\":12802:12831   */\n      swap1\n      pop\n        /* \"#utility.yul\":12542:12837   */\n      swap3\n      swap2\n      pop\n      pop\n      jump\t// out\n        /* \"#utility.yul\":12842:14245   */\n    tag_111:\n        /* \"#utility.yul\":12966:13010   */\n      tag_258\n        /* \"#utility.yul\":13006:13009   */\n      dup4\n        /* \"#utility.yul\":13001:13004   */\n      dup4\n        /* \"#utility.yul\":12966:13010   */\n      tag_94\n      jump\t// in\n    tag_258:\n        /* \"#utility.yul\":13075:13093   */\n      0xffffffffffffffff\n        /* \"#utility.yul\":13067:13073   */\n      dup2\n        /* \"#utility.yul\":13064:13094   */\n      gt\n        /* \"#utility.yul\":13061:13117   */\n      iszero\n      tag_259\n      jumpi\n        /* \"#utility.yul\":13097:13115   */\n      tag_260\n      tag_95\n      jump\t// in\n    tag_260:\n        /* \"#utility.yul\":13061:13117   */\n    tag_259:\n        /* \"#utility.yul\":13141:13179   */\n      tag_261\n        /* \"#utility.yul\":13173:13177   */\n      dup3\n        /* \"#utility.yul\":13167:13178   */\n      sload\n        /* \"#utility.yul\":13141:13179   */\n      tag_40\n      jump\t// in\n    tag_261:\n        /* \"#utility.yul\":13226:13293   */\n      tag_262\n        /* \"#utility.yul\":13286:13292   */\n      dup3\n        /* \"#utility.yul\":13278:13284   */\n      dup3\n        /* \"#utility.yul\":13272:13276   */\n      dup6\n        /* \"#utility.yul\":13226:13293   */\n      tag_107\n      jump\t// in\n    tag_262:\n        /* \"#utility.yul\":13320:13321   */\n      0x00\n        /* \"#utility.yul\":13349:13351   */\n      0x1f\n        /* \"#utility.yul\":13341:13347   */\n      dup4\n        /* \"#utility.yul\":13338:13352   */\n      gt\n        /* \"#utility.yul\":13366:13367   */\n      0x01\n        /* \"#utility.yul\":13361:13993   */\n      dup2\n      eq\n      tag_264\n      jumpi\n        /* \"#utility.yul\":14037:14038   */\n      0x00\n        /* \"#utility.yul\":14054:14060   */\n      dup5\n        /* \"#utility.yul\":14051:14135   */\n      iszero\n      tag_265\n      jumpi\n        /* \"#utility.yul\":14110:14119   */\n      dup3\n        /* \"#utility.yul\":14105:14108   */\n      dup8\n        /* \"#utility.yul\":14101:14120   */\n      add\n        /* \"#utility.yul\":14088:14121   */\n      calldataload\n        /* \"#utility.yul\":14079:14121   */\n      swap1\n      pop\n        /* \"#utility.yul\":14051:14135   */\n    tag_265:\n        /* \"#utility.yul\":14161:14228   */\n      tag_266\n        /* \"#utility.yul\":14221:14227   */\n      dup6\n        /* \"#utility.yul\":14214:14219   */\n      dup3\n        /* \"#utility.yul\":14161:14228   */\n      tag_110\n      jump\t// in\n    tag_266:\n        /* \"#utility.yul\":14155:14159   */\n      dup7\n        /* \"#utility.yul\":14148:14229   */\n      sstore\n        /* \"#utility.yul\":14010:14239   */\n      pop\n        /* \"#utility.yul\":13331:14239   */\n      jump(tag_263)\n        /* \"#utility.yul\":13361:13993   */\n    tag_264:\n        /* \"#utility.yul\":13413:13417   */\n      0x1f\n        /* \"#utility.yul\":13409:13418   */\n      not\n        /* \"#utility.yul\":13401:13407   */\n      dup5\n        /* \"#utility.yul\":13397:13419   */\n      and\n        /* \"#utility.yul\":13447:13484   */\n      tag_267\n        /* \"#utility.yul\":13479:13483   */\n      dup7\n        /* \"#utility.yul\":13447:13484   */\n      tag_97\n      jump\t// in\n    tag_267:\n        /* \"#utility.yul\":13506:13507   */\n      0x00\n        /* \"#utility.yul\":13520:13735   */\n    tag_268:\n        /* \"#utility.yul\":13534:13541   */\n      dup3\n        /* \"#utility.yul\":13531:13532   */\n      dup2\n        /* \"#utility.yul\":13528:13542   */\n      lt\n        /* \"#utility.yul\":13520:13735   */\n      iszero\n      tag_270\n      jumpi\n        /* \"#utility.yul\":13620:13629   */\n      dup5\n        /* \"#utility.yul\":13615:13618   */\n      dup10\n        /* \"#utility.yul\":13611:13630   */\n      add\n        /* \"#utility.yul\":13598:13631   */\n      calldataload\n        /* \"#utility.yul\":13590:13596   */\n      dup3\n        /* \"#utility.yul\":13583:13632   */\n      sstore\n        /* \"#utility.yul\":13671:13672   */\n      0x01\n        /* \"#utility.yul\":13663:13669   */\n      dup3\n        /* \"#utility.yul\":13659:13673   */\n      add\n        /* \"#utility.yul\":13649:13673   */\n      swap2\n      pop\n        /* \"#utility.yul\":13718:13720   */\n      0x20\n        /* \"#utility.yul\":13707:13716   */\n      dup6\n        /* \"#utility.yul\":13703:13721   */\n      add\n        /* \"#utility.yul\":13690:13721   */\n      swap5\n      pop\n        /* \"#utility.yul\":13557:13561   */\n      0x20\n        /* \"#utility.yul\":13554:13555   */\n      dup2\n        /* \"#utility.yul\":13550:13562   */\n      add\n        /* \"#utility.yul\":13545:13562   */\n      swap1\n      pop\n        /* \"#utility.yul\":13520:13735   */\n      jump(tag_268)\n    tag_270:\n        /* \"#utility.yul\":13763:13769   */\n      dup7\n        /* \"#utility.yul\":13754:13761   */\n      dup4\n        /* \"#utility.yul\":13751:13770   */\n      lt\n        /* \"#utility.yul\":13748:13934   */\n      iszero\n      tag_271\n      jumpi\n        /* \"#utility.yul\":13828:13837   */\n      dup5\n        /* \"#utility.yul\":13823:13826   */\n      dup10\n        /* \"#utility.yul\":13819:13838   */\n      add\n        /* \"#utility.yul\":13806:13839   */\n      calldataload\n        /* \"#utility.yul\":13871:13919   */\n      tag_272\n        /* \"#utility.yul\":13913:13917   */\n      0x1f\n        /* \"#utility.yul\":13905:13911   */\n      dup10\n        /* \"#utility.yul\":13901:13918   */\n      and\n        /* \"#utility.yul\":13890:13899   */\n      dup3\n        /* \"#utility.yul\":13871:13919   */\n      tag_109\n      jump\t// in\n    tag_272:\n        /* \"#utility.yul\":13863:13869   */\n      dup4\n        /* \"#utility.yul\":13856:13920   */\n      sstore\n        /* \"#utility.yul\":13771:13934   */\n      pop\n        /* \"#utility.yul\":13748:13934   */\n    tag_271:\n        /* \"#utility.yul\":13980:13981   */\n      0x01\n        /* \"#utility.yul\":13976:13977   */\n      0x02\n        /* \"#utility.yul\":13968:13974   */\n      dup9\n        /* \"#utility.yul\":13964:13978   */\n      mul\n        /* \"#utility.yul\":13960:13982   */\n      add\n        /* \"#utility.yul\":13954:13958   */\n      dup9\n        /* \"#utility.yul\":13947:13983   */\n      sstore\n        /* \"#utility.yul\":13368:13993   */\n      pop\n      pop\n      pop\n        /* \"#utility.yul\":13331:14239   */\n    tag_263:\n      pop\n        /* \"#utility.yul\":12941:14245   */\n      pop\n      pop\n      pop\n        /* \"#utility.yul\":12842:14245   */\n      pop\n      pop\n      pop\n      jump\t// out\n        /* \"#utility.yul\":14251:14470   */\n    tag_112:\n        /* \"#utility.yul\":14367:14464   */\n      tag_274\n        /* \"#utility.yul\":14456:14463   */\n      dup4\n        /* \"#utility.yul\":14447:14454   */\n      dup4\n        /* \"#utility.yul\":14441:14445   */\n      dup4\n        /* \"#utility.yul\":14367:14464   */\n      tag_111\n      jump\t// in\n    tag_274:\n        /* \"#utility.yul\":14251:14470   */\n      pop\n      pop\n      pop\n      jump\t// out\n        /* \"#utility.yul\":14476:15296   */\n    tag_113:\n        /* \"#utility.yul\":14644:14645   */\n      0x00\n        /* \"#utility.yul\":14638:14642   */\n      dup2\n        /* \"#utility.yul\":14634:14646   */\n      add\n        /* \"#utility.yul\":14690:14691   */\n      0x00\n        /* \"#utility.yul\":14683:14688   */\n      dup4\n        /* \"#utility.yul\":14679:14692   */\n      add\n        /* \"#utility.yul\":14740:14752   */\n      dup1\n        /* \"#utility.yul\":14783:14823   */\n      tag_276\n        /* \"#utility.yul\":14809:14822   */\n      dup2\n        /* \"#utility.yul\":14783:14823   */\n      tag_83\n      jump\t// in\n    tag_276:\n        /* \"#utility.yul\":14766:14823   */\n      swap1\n      pop\n        /* \"#utility.yul\":14837:14912   */\n      tag_277\n        /* \"#utility.yul\":14898:14911   */\n      dup2\n        /* \"#utility.yul\":14886:14896   */\n      dup5\n        /* \"#utility.yul\":14837:14912   */\n      tag_89\n      jump\t// in\n    tag_277:\n        /* \"#utility.yul\":14601:14923   */\n      pop\n      pop\n      pop\n        /* \"#utility.yul\":14976:14977   */\n      0x01\n        /* \"#utility.yul\":14970:14974   */\n      dup2\n        /* \"#utility.yul\":14966:14978   */\n      add\n        /* \"#utility.yul\":15022:15024   */\n      0x20\n        /* \"#utility.yul\":15015:15020   */\n      dup4\n        /* \"#utility.yul\":15011:15025   */\n      add\n        /* \"#utility.yul\":15088:15151   */\n      tag_278\n        /* \"#utility.yul\":15138:15150   */\n      dup2\n        /* \"#utility.yul\":15131:15136   */\n      dup6\n        /* \"#utility.yul\":15088:15151   */\n      tag_93\n      jump\t// in\n    tag_278:\n        /* \"#utility.yul\":15165:15278   */\n      tag_279\n        /* \"#utility.yul\":15264:15277   */\n      dup2\n        /* \"#utility.yul\":15249:15262   */\n      dup4\n        /* \"#utility.yul\":15237:15247   */\n      dup7\n        /* \"#utility.yul\":15165:15278   */\n      tag_112\n      jump\t// in\n    tag_279:\n        /* \"#utility.yul\":14933:15289   */\n      pop\n      pop\n      pop\n      pop\n        /* \"#utility.yul\":14476:15296   */\n      pop\n      pop\n      jump\t// out\n        /* \"#utility.yul\":15302:15543   */\n    tag_34:\n        /* \"#utility.yul\":15431:15537   */\n      tag_281\n        /* \"#utility.yul\":15529:15536   */\n      dup3\n        /* \"#utility.yul\":15523:15527   */\n      dup3\n        /* \"#utility.yul\":15431:15537   */\n      tag_113\n      jump\t// in\n    tag_281:\n        /* \"#utility.yul\":15302:15543   */\n      pop\n      pop\n      jump\t// out\n\n    auxdata: 0xa26469706673582212200926edc6bd3d49a52cf23f3b286fb03c89bb085311d24147ec8f83b43a2f972564736f6c634300081e0033\n}\n",
				"bytecode": {
					"linkReferences": {},
					"object": "6080604052348015600e575f5ffd5b50610bed8061001c5f395ff3fe608060405234801561000f575f5ffd5b5060043610610055575f3560e01c8063391475f414610059578063570b85a714610075578063a2f9eac614610091578063d5e350e3146100c2578063ed3ac0de146100e0575b5f5ffd5b610073600480360381019061006e9190610453565b610111565b005b61008f600480360381019061008a91906104f4565b61014a565b005b6100ab60048036038101906100a69190610581565b61019b565b6040516100b9929190610637565b60405180910390f35b6100ca61025b565b6040516100d791906106f6565b60405180910390f35b6100fa60048036038101906100f59190610716565b61035b565b604051610108929190610637565b60405180910390f35b5f81908060018154018082558091505060019003905f5260205f2090600202015f9091909190915081816101459190610ba9565b505050565b8160015f8373ffffffffffffffffffffffffffffffffffffffff1673ffffffffffffffffffffffffffffffffffffffff1681526020019081526020015f2081816101949190610ba9565b9050505050565b5f81815481106101a9575f80fd5b905f5260205f2090600202015f91509050805f015f9054906101000a900460ff16908060010180546101da906108c1565b80601f0160208091040260200160405190810160405280929190818152602001828054610206906108c1565b80156102515780601f1061022857610100808354040283529160200191610251565b820191905f5260205f20905b81548152906001019060200180831161023457829003601f168201915b5050505050905082565b61026361040d565b60015f3373ffffffffffffffffffffffffffffffffffffffff1673ffffffffffffffffffffffffffffffffffffffff1681526020019081526020015f206040518060400160405290815f82015f9054906101000a900460ff1660ff1660ff1681526020016001820180546102d6906108c1565b80601f0160208091040260200160405190810160405280929190818152602001828054610302906108c1565b801561034d5780601f106103245761010080835404028352916020019161034d565b820191905f5260205f20905b81548152906001019060200180831161033057829003601f168201915b505050505081525050905090565b6001602052805f5260405f205f91509050805f015f9054906101000a900460ff169080600101805461038c906108c1565b80601f01602080910402602001604051908101604052809291908181526020018280546103b8906108c1565b80156104035780601f106103da57610100808354040283529160200191610403565b820191905f5260205f20905b8154815290600101906020018083116103e657829003601f168201915b5050505050905082565b60405180604001604052805f60ff168152602001606081525090565b5f5ffd5b5f5ffd5b5f5ffd5b5f6040828403121561044a57610449610431565b5b81905092915050565b5f6020828403121561046857610467610429565b5b5f82013567ffffffffffffffff8111156104855761048461042d565b5b61049184828501610435565b91505092915050565b5f73ffffffffffffffffffffffffffffffffffffffff82169050919050565b5f6104c38261049a565b9050919050565b6104d3816104b9565b81146104dd575f5ffd5b50565b5f813590506104ee816104ca565b92915050565b5f5f6040838503121561050a57610509610429565b5b5f83013567ffffffffffffffff8111156105275761052661042d565b5b61053385828601610435565b9250506020610544858286016104e0565b9150509250929050565b5f819050919050565b6105608161054e565b811461056a575f5ffd5b50565b5f8135905061057b81610557565b92915050565b5f6020828403121561059657610595610429565b5b5f6105a38482850161056d565b91505092915050565b5f60ff82169050919050565b6105c1816105ac565b82525050565b5f81519050919050565b5f82825260208201905092915050565b8281835e5f83830152505050565b5f601f19601f8301169050919050565b5f610609826105c7565b61061381856105d1565b93506106238185602086016105e1565b61062c816105ef565b840191505092915050565b5f60408201905061064a5f8301856105b8565b818103602083015261065c81846105ff565b90509392505050565b61066e816105ac565b82525050565b5f82825260208201905092915050565b5f61068e826105c7565b6106988185610674565b93506106a88185602086016105e1565b6106b1816105ef565b840191505092915050565b5f604083015f8301516106d15f860182610665565b50602083015184820360208601526106e98282610684565b9150508091505092915050565b5f6020820190508181035f83015261070e81846106bc565b905092915050565b5f6020828403121561072b5761072a610429565b5b5f610738848285016104e0565b91505092915050565b61074a816105ac565b8114610754575f5ffd5b50565b5f813561076381610741565b80915050919050565b5f815f1b9050919050565b5f60ff6107838461076c565b9350801983169250808416831791505092915050565b5f819050919050565b5f6107bc6107b76107b2846105ac565b610799565b6105ac565b9050919050565b5f819050919050565b6107d5826107a2565b6107e86107e1826107c3565b8354610777565b8255505050565b5f5ffd5b5f5ffd5b5f5ffd5b5f5f83356001602003843603038112610817576108166107ef565b5b80840192508235915067ffffffffffffffff821115610839576108386107f3565b5b602083019250600182023603831315610855576108546107f7565b5b509250929050565b5f82905092915050565b7f4e487b71000000000000000000000000000000000000000000000000000000005f52604160045260245ffd5b7f4e487b71000000000000000000000000000000000000000000000000000000005f52602260045260245ffd5b5f60028204905060018216806108d857607f821691505b6020821081036108eb576108ea610894565b5b50919050565b5f819050815f5260205f209050919050565b5f6020601f8301049050919050565b5f82821b905092915050565b5f6008830261094d7fffffffffffffffffffffffffffffffffffffffffffffffffffffffffffffffff82610912565b6109578683610912565b95508019841693508086168417925050509392505050565b5f61098961098461097f8461054e565b610799565b61054e565b9050919050565b5f819050919050565b6109a28361096f565b6109b66109ae82610990565b84845461091e565b825550505050565b5f5f905090565b6109cd6109be565b6109d8818484610999565b505050565b5b818110156109fb576109f05f826109c5565b6001810190506109de565b5050565b601f821115610a4057610a11816108f1565b610a1a84610903565b81016020851015610a29578190505b610a3d610a3585610903565b8301826109dd565b50505b505050565b5f82821c905092915050565b5f610a605f1984600802610a45565b1980831691505092915050565b5f610a788383610a51565b9150826002028217905092915050565b610a92838361085d565b67ffffffffffffffff811115610aab57610aaa610867565b5b610ab582546108c1565b610ac08282856109ff565b5f601f831160018114610aed575f8415610adb578287013590505b610ae58582610a6d565b865550610b4c565b601f198416610afb866108f1565b5f5b82811015610b2257848901358255600182019150602085019450602081019050610afd565b86831015610b3f5784890135610b3b601f891682610a51565b8355505b6001600288020188555050505b50505050505050565b610b60838383610a88565b505050565b5f81015f830180610b7581610757565b9050610b8181846107cc565b5050506001810160208301610b9681856107fb565b610ba1818386610b55565b505050505050565b610bb38282610b65565b505056fea26469706673582212200926edc6bd3d49a52cf23f3b286fb03c89bb085311d24147ec8f83b43a2f972564736f6c634300081e0033",
					"opcodes": "PUSH1 0x80 PUSH1 0x40 MSTORE CALLVALUE DUP1 ISZERO PUSH1 0xE JUMPI PUSH0 PUSH0 REVERT JUMPDEST POP PUSH2 0xBED DUP1 PUSH2 0x1C PUSH0 CODECOPY PUSH0 RETURN INVALID PUSH1 0x80 PUSH1 0x40 MSTORE CALLVALUE DUP1 ISZERO PUSH2 0xF JUMPI PUSH0 PUSH0 REVERT JUMPDEST POP PUSH1 0x4 CALLDATASIZE LT PUSH2 0x55 JUMPI PUSH0 CALLDATALOAD PUSH1 0xE0 SHR DUP1 PUSH4 0x391475F4 EQ PUSH2 0x59 JUMPI DUP1 PUSH4 0x570B85A7 EQ PUSH2 0x75 JUMPI DUP1 PUSH4 0xA2F9EAC6 EQ PUSH2 0x91 JUMPI DUP1 PUSH4 0xD5E350E3 EQ PUSH2 0xC2 JUMPI DUP1 PUSH4 0xED3AC0DE EQ PUSH2 0xE0 JUMPI JUMPDEST PUSH0 PUSH0 REVERT JUMPDEST PUSH2 0x73 PUSH1 0x4 DUP1 CALLDATASIZE SUB DUP2 ADD SWAP1 PUSH2 0x6E SWAP2 SWAP1 PUSH2 0x453 JUMP JUMPDEST PUSH2 0x111 JUMP JUMPDEST STOP JUMPDEST PUSH2 0x8F PUSH1 0x4 DUP1 CALLDATASIZE SUB DUP2 ADD SWAP1 PUSH2 0x8A SWAP2 SWAP1 PUSH2 0x4F4 JUMP JUMPDEST PUSH2 0x14A JUMP JUMPDEST STOP JUMPDEST PUSH2 0xAB PUSH1 0x4 DUP1 CALLDATASIZE SUB DUP2 ADD SWAP1 PUSH2 0xA6 SWAP2 SWAP1 PUSH2 0x581 JUMP JUMPDEST PUSH2 0x19B JUMP JUMPDEST PUSH1 0x40 MLOAD PUSH2 0xB9 SWAP3 SWAP2 SWAP1 PUSH2 0x637 JUMP JUMPDEST PUSH1 0x40 MLOAD DUP1 SWAP2 SUB SWAP1 RETURN JUMPDEST PUSH2 0xCA PUSH2 0x25B JUMP JUMPDEST PUSH1 0x40 MLOAD PUSH2 0xD7 SWAP2 SWAP1 PUSH2 0x6F6 JUMP JUMPDEST PUSH1 0x40 MLOAD DUP1 SWAP2 SUB SWAP1 RETURN JUMPDEST PUSH2 0xFA PUSH1 0x4 DUP1 CALLDATASIZE SUB DUP2 ADD SWAP1 PUSH2 0xF5 SWAP2 SWAP1 PUSH2 0x716 JUMP JUMPDEST PUSH2 0x35B JUMP JUMPDEST PUSH1 0x40 MLOAD PUSH2 0x108 SWAP3 SWAP2 SWAP1 PUSH2 0x637 JUMP JUMPDEST PUSH1 0x40 MLOAD DUP1 SWAP2 SUB SWAP1 RETURN JUMPDEST PUSH0 DUP2 SWAP1 DUP1 PUSH1 0x1 DUP2 SLOAD ADD DUP1 DUP3 SSTORE DUP1 SWAP2 POP POP PUSH1 0x1 SWAP1 SUB SWAP1 PUSH0 MSTORE PUSH1 0x20 PUSH0 KECCAK256 SWAP1 PUSH1 0x2 MUL ADD PUSH0 SWAP1 SWAP2 SWAP1 SWAP2 SWAP1 SWAP2 POP DUP2 DUP2 PUSH2 0x145 SWAP2 SWAP1 PUSH2 0xBA9 JUMP JUMPDEST POP POP POP JUMP JUMPDEST DUP2 PUSH1 0x1 PUSH0 DUP4 PUSH20 0xFFFFFFFFFFFFFFFFFFFFFFFFFFFFFFFFFFFFFFFF AND PUSH20 0xFFFFFFFFFFFFFFFFFFFFFFFFFFFFFFFFFFFFFFFF AND DUP2 MSTORE PUSH1 0x20 ADD SWAP1 DUP2 MSTORE PUSH1 0x20 ADD PUSH0 KECCAK256 DUP2 DUP2 PUSH2 0x194 SWAP2 SWAP1 PUSH2 0xBA9 JUMP JUMPDEST SWAP1 POP POP POP POP JUMP JUMPDEST PUSH0 DUP2 DUP2 SLOAD DUP2 LT PUSH2 0x1A9 JUMPI PUSH0 DUP1 REVERT JUMPDEST SWAP1 PUSH0 MSTORE PUSH1 0x20 PUSH0 KECCAK256 SWAP1 PUSH1 0x2 MUL ADD PUSH0 SWAP2 POP SWAP1 POP DUP1 PUSH0 ADD PUSH0 SWAP1 SLOAD SWAP1 PUSH2 0x100 EXP SWAP1 DIV PUSH1 0xFF AND SWAP1 DUP1 PUSH1 0x1 ADD DUP1 SLOAD PUSH2 0x1DA SWAP1 PUSH2 0x8C1 JUMP JUMPDEST DUP1 PUSH1 0x1F ADD PUSH1 0x20 DUP1 SWAP2 DIV MUL PUSH1 0x20 ADD PUSH1 0x40 MLOAD SWAP1 DUP2 ADD PUSH1 0x40 MSTORE DUP1 SWAP3 SWAP2 SWAP1 DUP2 DUP2 MSTORE PUSH1 0x20 ADD DUP3 DUP1 SLOAD PUSH2 0x206 SWAP1 PUSH2 0x8C1 JUMP JUMPDEST DUP1 ISZERO PUSH2 0x251 JUMPI DUP1 PUSH1 0x1F LT PUSH2 0x228 JUMPI PUSH2 0x100 DUP1 DUP4 SLOAD DIV MUL DUP4 MSTORE SWAP2 PUSH1 0x20 ADD SWAP2 PUSH2 0x251 JUMP JUMPDEST DUP3 ADD SWAP2 SWAP1 PUSH0 MSTORE PUSH1 0x20 PUSH0 KECCAK256 SWAP1 JUMPDEST DUP2 SLOAD DUP2 MSTORE SWAP1 PUSH1 0x1 ADD SWAP1 PUSH1 0x20 ADD DUP1 DUP4 GT PUSH2 0x234 JUMPI DUP3 SWAP1 SUB PUSH1 0x1F AND DUP3 ADD SWAP2 JUMPDEST POP POP POP POP POP SWAP1 POP DUP3 JUMP JUMPDEST PUSH2 0x263 PUSH2 0x40D JUMP JUMPDEST PUSH1 0x1 PUSH0 CALLER PUSH20 0xFFFFFFFFFFFFFFFFFFFFFFFFFFFFFFFFFFFFFFFF AND PUSH20 0xFFFFFFFFFFFFFFFFFFFFFFFFFFFFFFFFFFFFFFFF AND DUP2 MSTORE PUSH1 0x20 ADD SWAP1 DUP2 MSTORE PUSH1 0x20 ADD PUSH0 KECCAK256 PUSH1 0x40 MLOAD DUP1 PUSH1 0x40 ADD PUSH1 0x40 MSTORE SWAP1 DUP2 PUSH0 DUP3 ADD PUSH0 SWAP1 SLOAD SWAP1 PUSH2 0x100 EXP SWAP1 DIV PUSH1 0xFF AND PUSH1 0xFF AND PUSH1 0xFF AND DUP2 MSTORE PUSH1 0x20 ADD PUSH1 0x1 DUP3 ADD DUP1 SLOAD PUSH2 0x2D6 SWAP1 PUSH2 0x8C1 JUMP JUMPDEST DUP1 PUSH1 0x1F ADD PUSH1 0x20 DUP1 SWAP2 DIV MUL PUSH1 0x20 ADD PUSH1 0x40 MLOAD SWAP1 DUP2 ADD PUSH1 0x40 MSTORE DUP1 SWAP3 SWAP2 SWAP1 DUP2 DUP2 MSTORE PUSH1 0x20 ADD DUP3 DUP1 SLOAD PUSH2 0x302 SWAP1 PUSH2 0x8C1 JUMP JUMPDEST DUP1 ISZERO PUSH2 0x34D JUMPI DUP1 PUSH1 0x1F LT PUSH2 0x324 JUMPI PUSH2 0x100 DUP1 DUP4 SLOAD DIV MUL DUP4 MSTORE SWAP2 PUSH1 0x20 ADD SWAP2 PUSH2 0x34D JUMP JUMPDEST DUP3 ADD SWAP2 SWAP1 PUSH0 MSTORE PUSH1 0x20 PUSH0 KECCAK256 SWAP1 JUMPDEST DUP2 SLOAD DUP2 MSTORE SWAP1 PUSH1 0x1 ADD SWAP1 PUSH1 0x20 ADD DUP1 DUP4 GT PUSH2 0x330 JUMPI DUP3 SWAP1 SUB PUSH1 0x1F AND DUP3 ADD SWAP2 JUMPDEST POP POP POP POP POP DUP2 MSTORE POP POP SWAP1 POP SWAP1 JUMP JUMPDEST PUSH1 0x1 PUSH1 0x20 MSTORE DUP1 PUSH0 MSTORE PUSH1 0x40 PUSH0 KECCAK256 PUSH0 SWAP2 POP SWAP1 POP DUP1 PUSH0 ADD PUSH0 SWAP1 SLOAD SWAP1 PUSH2 0x100 EXP SWAP1 DIV PUSH1 0xFF AND SWAP1 DUP1 PUSH1 0x1 ADD DUP1 SLOAD PUSH2 0x38C SWAP1 PUSH2 0x8C1 JUMP JUMPDEST DUP1 PUSH1 0x1F ADD PUSH1 0x20 DUP1 SWAP2 DIV MUL PUSH1 0x20 ADD PUSH1 0x40 MLOAD SWAP1 DUP2 ADD PUSH1 0x40 MSTORE DUP1 SWAP3 SWAP2 SWAP1 DUP2 DUP2 MSTORE PUSH1 0x20 ADD DUP3 DUP1 SLOAD PUSH2 0x3B8 SWAP1 PUSH2 0x8C1 JUMP JUMPDEST DUP1 ISZERO PUSH2 0x403 JUMPI DUP1 PUSH1 0x1F LT PUSH2 0x3DA JUMPI PUSH2 0x100 DUP1 DUP4 SLOAD DIV MUL DUP4 MSTORE SWAP2 PUSH1 0x20 ADD SWAP2 PUSH2 0x403 JUMP JUMPDEST DUP3 ADD SWAP2 SWAP1 PUSH0 MSTORE PUSH1 0x20 PUSH0 KECCAK256 SWAP1 JUMPDEST DUP2 SLOAD DUP2 MSTORE SWAP1 PUSH1 0x1 ADD SWAP1 PUSH1 0x20 ADD DUP1 DUP4 GT PUSH2 0x3E6 JUMPI DUP3 SWAP1 SUB PUSH1 0x1F AND DUP3 ADD SWAP2 JUMPDEST POP POP POP POP POP SWAP1 POP DUP3 JUMP JUMPDEST PUSH1 0x40 MLOAD DUP1 PUSH1 0x40 ADD PUSH1 0x40 MSTORE DUP1 PUSH0 PUSH1 0xFF AND DUP2 MSTORE PUSH1 0x20 ADD PUSH1 0x60 DUP2 MSTORE POP SWAP1 JUMP JUMPDEST PUSH0 PUSH0 REVERT JUMPDEST PUSH0 PUSH0 REVERT JUMPDEST PUSH0 PUSH0 REVERT JUMPDEST PUSH0 PUSH1 0x40 DUP3 DUP5 SUB SLT ISZERO PUSH2 0x44A JUMPI PUSH2 0x449 PUSH2 0x431 JUMP JUMPDEST JUMPDEST DUP2 SWAP1 POP SWAP3 SWAP2 POP POP JUMP JUMPDEST PUSH0 PUSH1 0x20 DUP3 DUP5 SUB SLT ISZERO PUSH2 0x468 JUMPI PUSH2 0x467 PUSH2 0x429 JUMP JUMPDEST JUMPDEST PUSH0 DUP3 ADD CALLDATALOAD PUSH8 0xFFFFFFFFFFFFFFFF DUP2 GT ISZERO PUSH2 0x485 JUMPI PUSH2 0x484 PUSH2 0x42D JUMP JUMPDEST JUMPDEST PUSH2 0x491 DUP5 DUP3 DUP6 ADD PUSH2 0x435 JUMP JUMPDEST SWAP2 POP POP SWAP3 SWAP2 POP POP JUMP JUMPDEST PUSH0 PUSH20 0xFFFFFFFFFFFFFFFFFFFFFFFFFFFFFFFFFFFFFFFF DUP3 AND SWAP1 POP SWAP2 SWAP1 POP JUMP JUMPDEST PUSH0 PUSH2 0x4C3 DUP3 PUSH2 0x49A JUMP JUMPDEST SWAP1 POP SWAP2 SWAP1 POP JUMP JUMPDEST PUSH2 0x4D3 DUP2 PUSH2 0x4B9 JUMP JUMPDEST DUP2 EQ PUSH2 0x4DD JUMPI PUSH0 PUSH0 REVERT JUMPDEST POP JUMP JUMPDEST PUSH0 DUP2 CALLDATALOAD SWAP1 POP PUSH2 0x4EE DUP2 PUSH2 0x4CA JUMP JUMPDEST SWAP3 SWAP2 POP POP JUMP JUMPDEST PUSH0 PUSH0 PUSH1 0x40 DUP4 DUP6 SUB SLT ISZERO PUSH2 0x50A JUMPI PUSH2 0x509 PUSH2 0x429 JUMP JUMPDEST JUMPDEST PUSH0 DUP4 ADD CALLDATALOAD PUSH8 0xFFFFFFFFFFFFFFFF DUP2 GT ISZERO PUSH2 0x527 JUMPI PUSH2 0x526 PUSH2 0x42D JUMP JUMPDEST JUMPDEST PUSH2 0x533 DUP6 DUP3 DUP7 ADD PUSH2 0x435 JUMP JUMPDEST SWAP3 POP POP PUSH1 0x20 PUSH2 0x544 DUP6 DUP3 DUP7 ADD PUSH2 0x4E0 JUMP JUMPDEST SWAP2 POP POP SWAP3 POP SWAP3 SWAP1 POP JUMP JUMPDEST PUSH0 DUP2 SWAP1 POP SWAP2 SWAP1 POP JUMP JUMPDEST PUSH2 0x560 DUP2 PUSH2 0x54E JUMP JUMPDEST DUP2 EQ PUSH2 0x56A JUMPI PUSH0 PUSH0 REVERT JUMPDEST POP JUMP JUMPDEST PUSH0 DUP2 CALLDATALOAD SWAP1 POP PUSH2 0x57B DUP2 PUSH2 0x557 JUMP JUMPDEST SWAP3 SWAP2 POP POP JUMP JUMPDEST PUSH0 PUSH1 0x20 DUP3 DUP5 SUB SLT ISZERO PUSH2 0x596 JUMPI PUSH2 0x595 PUSH2 0x429 JUMP JUMPDEST JUMPDEST PUSH0 PUSH2 0x5A3 DUP5 DUP3 DUP6 ADD PUSH2 0x56D JUMP JUMPDEST SWAP2 POP POP SWAP3 SWAP2 POP POP JUMP JUMPDEST PUSH0 PUSH1 0xFF DUP3 AND SWAP1 POP SWAP2 SWAP1 POP JUMP JUMPDEST PUSH2 0x5C1 DUP2 PUSH2 0x5AC JUMP JUMPDEST DUP3 MSTORE POP POP JUMP JUMPDEST PUSH0 DUP2 MLOAD SWAP1 POP SWAP2 SWAP1 POP JUMP JUMPDEST PUSH0 DUP3 DUP3 MSTORE PUSH1 0x20 DUP3 ADD SWAP1 POP SWAP3 SWAP2 POP POP JUMP JUMPDEST DUP3 DUP2 DUP4 MCOPY PUSH0 DUP4 DUP4 ADD MSTORE POP POP POP JUMP JUMPDEST PUSH0 PUSH1 0x1F NOT PUSH1 0x1F DUP4 ADD AND SWAP1 POP SWAP2 SWAP1 POP JUMP JUMPDEST PUSH0 PUSH2 0x609 DUP3 PUSH2 0x5C7 JUMP JUMPDEST PUSH2 0x613 DUP2 DUP6 PUSH2 0x5D1 JUMP JUMPDEST SWAP4 POP PUSH2 0x623 DUP2 DUP6 PUSH1 0x20 DUP7 ADD PUSH2 0x5E1 JUMP JUMPDEST PUSH2 0x62C DUP2 PUSH2 0x5EF JUMP JUMPDEST DUP5 ADD SWAP2 POP POP SWAP3 SWAP2 POP POP JUMP JUMPDEST PUSH0 PUSH1 0x40 DUP3 ADD SWAP1 POP PUSH2 0x64A PUSH0 DUP4 ADD DUP6 PUSH2 0x5B8 JUMP JUMPDEST DUP2 DUP2 SUB PUSH1 0x20 DUP4 ADD MSTORE PUSH2 0x65C DUP2 DUP5 PUSH2 0x5FF JUMP JUMPDEST SWAP1 POP SWAP4 SWAP3 POP POP POP JUMP JUMPDEST PUSH2 0x66E DUP2 PUSH2 0x5AC JUMP JUMPDEST DUP3 MSTORE POP POP JUMP JUMPDEST PUSH0 DUP3 DUP3 MSTORE PUSH1 0x20 DUP3 ADD SWAP1 POP SWAP3 SWAP2 POP POP JUMP JUMPDEST PUSH0 PUSH2 0x68E DUP3 PUSH2 0x5C7 JUMP JUMPDEST PUSH2 0x698 DUP2 DUP6 PUSH2 0x674 JUMP JUMPDEST SWAP4 POP PUSH2 0x6A8 DUP2 DUP6 PUSH1 0x20 DUP7 ADD PUSH2 0x5E1 JUMP JUMPDEST PUSH2 0x6B1 DUP2 PUSH2 0x5EF JUMP JUMPDEST DUP5 ADD SWAP2 POP POP SWAP3 SWAP2 POP POP JUMP JUMPDEST PUSH0 PUSH1 0x40 DUP4 ADD PUSH0 DUP4 ADD MLOAD PUSH2 0x6D1 PUSH0 DUP7 ADD DUP3 PUSH2 0x665 JUMP JUMPDEST POP PUSH1 0x20 DUP4 ADD MLOAD DUP5 DUP3 SUB PUSH1 0x20 DUP7 ADD MSTORE PUSH2 0x6E9 DUP3 DUP3 PUSH2 0x684 JUMP JUMPDEST SWAP2 POP POP DUP1 SWAP2 POP POP SWAP3 SWAP2 POP POP JUMP JUMPDEST PUSH0 PUSH1 0x20 DUP3 ADD SWAP1 POP DUP2 DUP2 SUB PUSH0 DUP4 ADD MSTORE PUSH2 0x70E DUP2 DUP5 PUSH2 0x6BC JUMP JUMPDEST SWAP1 POP SWAP3 SWAP2 POP POP JUMP JUMPDEST PUSH0 PUSH1 0x20 DUP3 DUP5 SUB SLT ISZERO PUSH2 0x72B JUMPI PUSH2 0x72A PUSH2 0x429 JUMP JUMPDEST JUMPDEST PUSH0 PUSH2 0x738 DUP5 DUP3 DUP6 ADD PUSH2 0x4E0 JUMP JUMPDEST SWAP2 POP POP SWAP3 SWAP2 POP POP JUMP JUMPDEST PUSH2 0x74A DUP2 PUSH2 0x5AC JUMP JUMPDEST DUP2 EQ PUSH2 0x754 JUMPI PUSH0 PUSH0 REVERT JUMPDEST POP JUMP JUMPDEST PUSH0 DUP2 CALLDATALOAD PUSH2 0x763 DUP2 PUSH2 0x741 JUMP JUMPDEST DUP1 SWAP2 POP POP SWAP2 SWAP1 POP JUMP JUMPDEST PUSH0 DUP2 PUSH0 SHL SWAP1 POP SWAP2 SWAP1 POP JUMP JUMPDEST PUSH0 PUSH1 0xFF PUSH2 0x783 DUP5 PUSH2 0x76C JUMP JUMPDEST SWAP4 POP DUP1 NOT DUP4 AND SWAP3 POP DUP1 DUP5 AND DUP4 OR SWAP2 POP POP SWAP3 SWAP2 POP POP JUMP JUMPDEST PUSH0 DUP2 SWAP1 POP SWAP2 SWAP1 POP JUMP JUMPDEST PUSH0 PUSH2 0x7BC PUSH2 0x7B7 PUSH2 0x7B2 DUP5 PUSH2 0x5AC JUMP JUMPDEST PUSH2 0x799 JUMP JUMPDEST PUSH2 0x5AC JUMP JUMPDEST SWAP1 POP SWAP2 SWAP1 POP JUMP JUMPDEST PUSH0 DUP2 SWAP1 POP SWAP2 SWAP1 POP JUMP JUMPDEST PUSH2 0x7D5 DUP3 PUSH2 0x7A2 JUMP JUMPDEST PUSH2 0x7E8 PUSH2 0x7E1 DUP3 PUSH2 0x7C3 JUMP JUMPDEST DUP4 SLOAD PUSH2 0x777 JUMP JUMPDEST DUP3 SSTORE POP POP POP JUMP JUMPDEST PUSH0 PUSH0 REVERT JUMPDEST PUSH0 PUSH0 REVERT JUMPDEST PUSH0 PUSH0 REVERT JUMPDEST PUSH0 PUSH0 DUP4 CALLDATALOAD PUSH1 0x1 PUSH1 0x20 SUB DUP5 CALLDATASIZE SUB SUB DUP2 SLT PUSH2 0x817 JUMPI PUSH2 0x816 PUSH2 0x7EF JUMP JUMPDEST JUMPDEST DUP1 DUP5 ADD SWAP3 POP DUP3 CALLDATALOAD SWAP2 POP PUSH8 0xFFFFFFFFFFFFFFFF DUP3 GT ISZERO PUSH2 0x839 JUMPI PUSH2 0x838 PUSH2 0x7F3 JUMP JUMPDEST JUMPDEST PUSH1 0x20 DUP4 ADD SWAP3 POP PUSH1 0x1 DUP3 MUL CALLDATASIZE SUB DUP4 SGT ISZERO PUSH2 0x855 JUMPI PUSH2 0x854 PUSH2 0x7F7 JUMP JUMPDEST JUMPDEST POP SWAP3 POP SWAP3 SWAP1 POP JUMP JUMPDEST PUSH0 DUP3 SWAP1 POP SWAP3 SWAP2 POP POP JUMP JUMPDEST PUSH32 0x4E487B7100000000000000000000000000000000000000000000000000000000 PUSH0 MSTORE PUSH1 0x41 PUSH1 0x4 MSTORE PUSH1 0x24 PUSH0 REVERT JUMPDEST PUSH32 0x4E487B7100000000000000000000000000000000000000000000000000000000 PUSH0 MSTORE PUSH1 0x22 PUSH1 0x4 MSTORE PUSH1 0x24 PUSH0 REVERT JUMPDEST PUSH0 PUSH1 0x2 DUP3 DIV SWAP1 POP PUSH1 0x1 DUP3 AND DUP1 PUSH2 0x8D8 JUMPI PUSH1 0x7F DUP3 AND SWAP2 POP JUMPDEST PUSH1 0x20 DUP3 LT DUP2 SUB PUSH2 0x8EB JUMPI PUSH2 0x8EA PUSH2 0x894 JUMP JUMPDEST JUMPDEST POP SWAP2 SWAP1 POP JUMP JUMPDEST PUSH0 DUP2 SWAP1 POP DUP2 PUSH0 MSTORE PUSH1 0x20 PUSH0 KECCAK256 SWAP1 POP SWAP2 SWAP1 POP JUMP JUMPDEST PUSH0 PUSH1 0x20 PUSH1 0x1F DUP4 ADD DIV SWAP1 POP SWAP2 SWAP1 POP JUMP JUMPDEST PUSH0 DUP3 DUP3 SHL SWAP1 POP SWAP3 SWAP2 POP POP JUMP JUMPDEST PUSH0 PUSH1 0x8 DUP4 MUL PUSH2 0x94D PUSH32 0xFFFFFFFFFFFFFFFFFFFFFFFFFFFFFFFFFFFFFFFFFFFFFFFFFFFFFFFFFFFFFFFF DUP3 PUSH2 0x912 JUMP JUMPDEST PUSH2 0x957 DUP7 DUP4 PUSH2 0x912 JUMP JUMPDEST SWAP6 POP DUP1 NOT DUP5 AND SWAP4 POP DUP1 DUP7 AND DUP5 OR SWAP3 POP POP POP SWAP4 SWAP3 POP POP POP JUMP JUMPDEST PUSH0 PUSH2 0x989 PUSH2 0x984 PUSH2 0x97F DUP5 PUSH2 0x54E JUMP JUMPDEST PUSH2 0x799 JUMP JUMPDEST PUSH2 0x54E JUMP JUMPDEST SWAP1 POP SWAP2 SWAP1 POP JUMP JUMPDEST PUSH0 DUP2 SWAP1 POP SWAP2 SWAP1 POP JUMP JUMPDEST PUSH2 0x9A2 DUP4 PUSH2 0x96F JUMP JUMPDEST PUSH2 0x9B6 PUSH2 0x9AE DUP3 PUSH2 0x990 JUMP JUMPDEST DUP5 DUP5 SLOAD PUSH2 0x91E JUMP JUMPDEST DUP3 SSTORE POP POP POP POP JUMP JUMPDEST PUSH0 PUSH0 SWAP1 POP SWAP1 JUMP JUMPDEST PUSH2 0x9CD PUSH2 0x9BE JUMP JUMPDEST PUSH2 0x9D8 DUP2 DUP5 DUP5 PUSH2 0x999 JUMP JUMPDEST POP POP POP JUMP JUMPDEST JUMPDEST DUP2 DUP2 LT ISZERO PUSH2 0x9FB JUMPI PUSH2 0x9F0 PUSH0 DUP3 PUSH2 0x9C5 JUMP JUMPDEST PUSH1 0x1 DUP2 ADD SWAP1 POP PUSH2 0x9DE JUMP JUMPDEST POP POP JUMP JUMPDEST PUSH1 0x1F DUP3 GT ISZERO PUSH2 0xA40 JUMPI PUSH2 0xA11 DUP2 PUSH2 0x8F1 JUMP JUMPDEST PUSH2 0xA1A DUP5 PUSH2 0x903 JUMP JUMPDEST DUP2 ADD PUSH1 0x20 DUP6 LT ISZERO PUSH2 0xA29 JUMPI DUP2 SWAP1 POP JUMPDEST PUSH2 0xA3D PUSH2 0xA35 DUP6 PUSH2 0x903 JUMP JUMPDEST DUP4 ADD DUP3 PUSH2 0x9DD JUMP JUMPDEST POP POP JUMPDEST POP POP POP JUMP JUMPDEST PUSH0 DUP3 DUP3 SHR SWAP1 POP SWAP3 SWAP2 POP POP JUMP JUMPDEST PUSH0 PUSH2 0xA60 PUSH0 NOT DUP5 PUSH1 0x8 MUL PUSH2 0xA45 JUMP JUMPDEST NOT DUP1 DUP4 AND SWAP2 POP POP SWAP3 SWAP2 POP POP JUMP JUMPDEST PUSH0 PUSH2 0xA78 DUP4 DUP4 PUSH2 0xA51 JUMP JUMPDEST SWAP2 POP DUP3 PUSH1 0x2 MUL DUP3 OR SWAP1 POP SWAP3 SWAP2 POP POP JUMP JUMPDEST PUSH2 0xA92 DUP4 DUP4 PUSH2 0x85D JUMP JUMPDEST PUSH8 0xFFFFFFFFFFFFFFFF DUP2 GT ISZERO PUSH2 0xAAB JUMPI PUSH2 0xAAA PUSH2 0x867 JUMP JUMPDEST JUMPDEST PUSH2 0xAB5 DUP3 SLOAD PUSH2 0x8C1 JUMP JUMPDEST PUSH2 0xAC0 DUP3 DUP3 DUP6 PUSH2 0x9FF JUMP JUMPDEST PUSH0 PUSH1 0x1F DUP4 GT PUSH1 0x1 DUP2 EQ PUSH2 0xAED JUMPI PUSH0 DUP5 ISZERO PUSH2 0xADB JUMPI DUP3 DUP8 ADD CALLDATALOAD SWAP1 POP JUMPDEST PUSH2 0xAE5 DUP6 DUP3 PUSH2 0xA6D JUMP JUMPDEST DUP7 SSTORE POP PUSH2 0xB4C JUMP JUMPDEST PUSH1 0x1F NOT DUP5 AND PUSH2 0xAFB DUP7 PUSH2 0x8F1 JUMP JUMPDEST PUSH0 JUMPDEST DUP3 DUP2 LT ISZERO PUSH2 0xB22 JUMPI DUP5 DUP10 ADD CALLDATALOAD DUP3 SSTORE PUSH1 0x1 DUP3 ADD SWAP2 POP PUSH1 0x20 DUP6 ADD SWAP5 POP PUSH1 0x20 DUP2 ADD SWAP1 POP PUSH2 0xAFD JUMP JUMPDEST DUP7 DUP4 LT ISZERO PUSH2 0xB3F JUMPI DUP5 DUP10 ADD CALLDATALOAD PUSH2 0xB3B PUSH1 0x1F DUP10 AND DUP3 PUSH2 0xA51 JUMP JUMPDEST DUP4 SSTORE POP JUMPDEST PUSH1 0x1 PUSH1 0x2 DUP9 MUL ADD DUP9 SSTORE POP POP POP JUMPDEST POP POP POP POP POP POP POP JUMP JUMPDEST PUSH2 0xB60 DUP4 DUP4 DUP4 PUSH2 0xA88 JUMP JUMPDEST POP POP POP JUMP JUMPDEST PUSH0 DUP2 ADD PUSH0 DUP4 ADD DUP1 PUSH2 0xB75 DUP2 PUSH2 0x757 JUMP JUMPDEST SWAP1 POP PUSH2 0xB81 DUP2 DUP5 PUSH2 0x7CC JUMP JUMPDEST POP POP POP PUSH1 0x1 DUP2 ADD PUSH1 0x20 DUP4 ADD PUSH2 0xB96 DUP2 DUP6 PUSH2 0x7FB JUMP JUMPDEST PUSH2 0xBA1 DUP2 DUP4 DUP7 PUSH2 0xB55 JUMP JUMPDEST POP POP POP POP POP POP JUMP JUMPDEST PUSH2 0xBB3 DUP3 DUP3 PUSH2 0xB65 JUMP JUMPDEST POP POP JUMP INVALID LOG2 PUSH5 0x6970667358 0x22 SLT KECCAK256 MULMOD 0x26 0xED 0xC6 0xBD RETURNDATASIZE BLOBHASH 0xA5 0x2C CALLCODE EXTCODEHASH EXTCODESIZE 0x28 PUSH16 0xB03C89BB085311D24147EC8F83B43A2F SWAP8 0x25 PUSH5 0x736F6C6343 STOP ADDMOD 0x1E STOP CALLER "
				},
				"gasEstimates": {
					"creation": {
						"codeDepositCost": "610600",
						"executionCost": "643",
						"totalCost": "611243"
					},
					"external": {
						"addPerson((uint8,string))": "infinite",
						"getMapping()": "infinite",
						"personMap(address)": "infinite",
						"persons(uint256)": "infinite",
						"serPerson((uint8,string),address)": "infinite"
					}
				},
				"methodIdentifiers": {
					"addPerson((uint8,string))": "391475f4",
					"getMapping()": "d5e350e3",
					"personMap(address)": "ed3ac0de",
					"persons(uint256)": "a2f9eac6",
					"serPerson((uint8,string),address)": "570b85a7"
				}
			},
			"storageLayout": {
				"storage": [
					{
						"astId": 15,
						"contract": "StructExample.sol:StructExample",
						"label": "persons",
						"offset": 0,
						"slot": "0",
						"type": "t_array(t_struct(Person)6_storage)dyn_storage"
					},
					{
						"astId": 20,
						"contract": "StructExample.sol:StructExample",
						"label": "personMap",
						"offset": 0,
						"slot": "1",
						"type": "t_mapping(t_address,t_struct(Person)6_storage)"
					}
				],
				"types": {
					"t_address": {
						"encoding": "inplace",
						"label": "address",
						"numberOfBytes": "20"
					},
					"t_array(t_struct(Person)6_storage)dyn_storage": {
						"base": "t_struct(Person)6_storage",
						"encoding": "dynamic_array",
						"label": "struct StructExample.Person[]",
						"numberOfBytes": "32"
					},
					"t_mapping(t_address,t_struct(Person)6_storage)": {
						"encoding": "mapping",
						"key": "t_address",
						"label": "mapping(address => struct StructExample.Person)",
						"numberOfBytes": "32",
						"value": "t_struct(Person)6_storage"
					},
					"t_string_storage": {
						"encoding": "bytes",
						"label": "string",
						"numberOfBytes": "32"
					},
					"t_struct(Person)6_storage": {
						"encoding": "inplace",
						"label": "struct StructExample.Person",
						"members": [
							{
								"astId": 3,
								"contract": "StructExample.sol:StructExample",
								"label": "age",
								"offset": 0,
								"slot": "0",
								"type": "t_uint8"
							},
							{
								"astId": 5,
								"contract": "StructExample.sol:StructExample",
								"label": "name",
								"offset": 0,
								"slot": "1",
								"type": "t_string_storage"
							}
						],
						"numberOfBytes": "64"
					},
					"t_uint8": {
						"encoding": "inplace",
						"label": "uint8",
						"numberOfBytes": "1"
					}
				}
			},
			"userdoc": {
				"kind": "user",
				"methods": {},
				"version": 1
			}
		}
	}
}