{
	"array.sol": {
		"ArrayContract": {
			"abi": [
				{
					"inputs": [],
					"name": "a",
					"outputs": [
						{
							"internalType": "uint256",
							"name": "",
							"type": "uint256"
						}
					],
					"stateMutability": "view",
					"type": "function"
				},
				{
					"inputs": [
						{
							"internalType": "uint256",
							"name": "",
							"type": "uint256"
						}
					],
					"name": "arr",
					"outputs": [
						{
							"internalType": "uint256",
							"name": "",
							"type": "uint256"
						}
					],
					"stateMutability": "view",
					"type": "function"
				},
				{
					"inputs": [
						{
							"internalType": "uint256",
							"name": "",
							"type": "uint256"
						}
					],
					"name": "arr2",
					"outputs": [
						{
							"internalType": "uint256",
							"name": "",
							"type": "uint256"
						}
					],
					"stateMutability": "view",
					"type": "function"
				},
				{
					"inputs": [
						{
							"internalType": "uint256",
							"name": "",
							"type": "uint256"
						}
					],
					"name": "arr3",
					"outputs": [
						{
							"internalType": "uint256",
							"name": "",
							"type": "uint256"
						}
					],
					"stateMutability": "view",
					"type": "function"
				},
				{
					"inputs": [],
					"name": "readArr",
					"outputs": [
						{
							"internalType": "uint256[]",
							"name": "data",
							"type": "uint256[]"
						},
						{
							"internalType": "uint256",
							"name": "length",
							"type": "uint256"
						}
					],
					"stateMutability": "view",
					"type": "function"
				},
				{
					"inputs": [],
					"name": "readArr2",
					"outputs": [
						{
							"internalType": "uint256[]",
							"name": "data",
							"type": "uint256[]"
						},
						{
							"internalType": "uint256",
							"name": "length",
							"type": "uint256"
						}
					],
					"stateMutability": "view",
					"type": "function"
				},
				{
					"inputs": [],
					"name": "readArr3",
					"outputs": [
						{
							"internalType": "uint256[]",
							"name": "data",
							"type": "uint256[]"
						},
						{
							"internalType": "uint256",
							"name": "length",
							"type": "uint256"
						}
					],
					"stateMutability": "view",
					"type": "function"
				},
				{
					"inputs": [],
					"name": "readStaticArr",
					"outputs": [
						{
							"internalType": "uint256[3]",
							"name": "data",
							"type": "uint256[3]"
						},
						{
							"internalType": "uint256",
							"name": "length",
							"type": "uint256"
						}
					],
					"stateMutability": "view",
					"type": "function"
				},
				{
					"inputs": [],
					"name": "readStaticArr1",
					"outputs": [
						{
							"internalType": "uint256[3]",
							"name": "data",
							"type": "uint256[3]"
						},
						{
							"internalType": "uint256",
							"name": "length",
							"type": "uint256"
						}
					],
					"stateMutability": "view",
					"type": "function"
				},
				{
					"inputs": [
						{
							"internalType": "uint256",
							"name": "",
							"type": "uint256"
						}
					],
					"name": "staticArr",
					"outputs": [
						{
							"internalType": "uint256",
							"name": "",
							"type": "uint256"
						}
					],
					"stateMutability": "view",
					"type": "function"
				},
				{
					"inputs": [
						{
							"internalType": "uint256",
							"name": "",
							"type": "uint256"
						}
					],
					"name": "staticArr1",
					"outputs": [
						{
							"internalType": "uint256",
							"name": "",
							"type": "uint256"
						}
					],
					"stateMutability": "view",
					"type": "function"
				}
			],
			"devdoc": {
				"kind": "dev",
				"methods": {},
				"version": 1
			},
			"evm": {
				"assembly": "    /* \"array.sol\":57:1207  contract ArrayContract {... */\n  mstore(0x40, 0x80)\n    /* \"array.sol\":105:107  10 */\n  0x0a\n    /* \"array.sol\":86:107  uint256 public a = 10 */\n  0x00\n  sstore\n    /* \"array.sol\":141:174  uint256[] public arr2 = [1, 2, 3] */\n  mload(0x40)\n  dup1\n  0x60\n  add\n  0x40\n  mstore\n  dup1\n    /* \"array.sol\":166:167  1 */\n  0x01\n    /* \"array.sol\":141:174  uint256[] public arr2 = [1, 2, 3] */\n  0xff\n  and\n  dup2\n  mstore\n  0x20\n  add\n    /* \"array.sol\":169:170  2 */\n  0x02\n    /* \"array.sol\":141:174  uint256[] public arr2 = [1, 2, 3] */\n  0xff\n  and\n  dup2\n  mstore\n  0x20\n  add\n    /* \"array.sol\":172:173  3 */\n  0x03\n    /* \"array.sol\":141:174  uint256[] public arr2 = [1, 2, 3] */\n  0xff\n  and\n  dup2\n  mstore\n  pop\n  0x02\n  swap1\n  0x03\n  tag_1\n  swap3\n  swap2\n  swap1\n  tag_2\n  jump\t// in\ntag_1:\n  pop\n    /* \"array.sol\":219:220  5 */\n  0x05\n    /* \"array.sol\":205:221  new uint256[](5) */\n  0xffffffffffffffff\n  dup2\n  gt\n  iszero\n  tag_3\n  jumpi\n  tag_4\n  tag_5\n  jump\t// in\ntag_4:\ntag_3:\n  mload(0x40)\n  swap1\n  dup1\n  dup3\n  mstore\n  dup1\n  0x20\n  mul\n  0x20\n  add\n  dup3\n  add\n  0x40\n  mstore\n  dup1\n  iszero\n  tag_6\n  jumpi\n  dup2\n  0x20\n  add\n  0x20\n  dup3\n  mul\n  dup1\n  calldatasize\n  dup4\n  calldatacopy\n  dup1\n  dup3\n  add\n  swap2\n  pop\n  pop\n  swap1\n  pop\ntag_6:\n  pop\n    /* \"array.sol\":181:221  uint256[] public arr3 = new uint256[](5) */\n  0x03\n  swap1\n  dup1\n  mload\n  swap1\n  0x20\n  add\n  swap1\n  tag_7\n  swap3\n  swap2\n  swap1\n  tag_8\n  jump\t// in\ntag_7:\n  pop\n    /* \"array.sol\":262:302  uint256[3] public staticArr1 = [1, 2, 3] */\n  mload(0x40)\n  dup1\n  0x60\n  add\n  0x40\n  mstore\n  dup1\n    /* \"array.sol\":294:295  1 */\n  0x01\n    /* \"array.sol\":262:302  uint256[3] public staticArr1 = [1, 2, 3] */\n  0xff\n  and\n  dup2\n  mstore\n  0x20\n  add\n    /* \"array.sol\":297:298  2 */\n  0x02\n    /* \"array.sol\":262:302  uint256[3] public staticArr1 = [1, 2, 3] */\n  0xff\n  and\n  dup2\n  mstore\n  0x20\n  add\n    /* \"array.sol\":300:301  3 */\n  0x03\n    /* \"array.sol\":262:302  uint256[3] public staticArr1 = [1, 2, 3] */\n  0xff\n  and\n  dup2\n  mstore\n  pop\n  0x07\n  swap1\n  0x03\n  tag_9\n  swap3\n  swap2\n  swap1\n  tag_10\n  jump\t// in\ntag_9:\n  pop\n    /* \"array.sol\":57:1207  contract ArrayContract {... */\n  callvalue\n  dup1\n  iszero\n  tag_11\n  jumpi\n  revert(0x00, 0x00)\ntag_11:\n  pop\n  jump(tag_12)\ntag_2:\n  dup3\n  dup1\n  sload\n  dup3\n  dup3\n  sstore\n  swap1\n  0x00\n  mstore\n  keccak256(0x00, 0x20)\n  swap1\n  dup2\n  add\n  swap3\n  dup3\n  iszero\n  tag_13\n  jumpi\n  swap2\n  0x20\n  mul\n  dup3\n  add\ntag_14:\n  dup3\n  dup2\n  gt\n  iszero\n  tag_15\n  jumpi\n  dup3\n  mload\n  dup3\n  swap1\n  0xff\n  and\n  swap1\n  sstore\n  swap2\n  0x20\n  add\n  swap2\n  swap1\n  0x01\n  add\n  swap1\n  jump(tag_14)\ntag_15:\ntag_13:\n  pop\n  swap1\n  pop\n  tag_16\n  swap2\n  swap1\n  tag_17\n  jump\t// in\ntag_16:\n  pop\n  swap1\n  jump\t// out\ntag_8:\n  dup3\n  dup1\n  sload\n  dup3\n  dup3\n  sstore\n  swap1\n  0x00\n  mstore\n  keccak256(0x00, 0x20)\n  swap1\n  dup2\n  add\n  swap3\n  dup3\n  iszero\n  tag_18\n  jumpi\n  swap2\n  0x20\n  mul\n  dup3\n  add\ntag_19:\n  dup3\n  dup2\n  gt\n  iszero\n  tag_20\n  jumpi\n  dup3\n  mload\n  dup3\n  sstore\n  swap2\n  0x20\n  add\n  swap2\n  swap1\n  0x01\n  add\n  swap1\n  jump(tag_19)\ntag_20:\ntag_18:\n  pop\n  swap1\n  pop\n  tag_21\n  swap2\n  swap1\n  tag_17\n  jump\t// in\ntag_21:\n  pop\n  swap1\n  jump\t// out\ntag_10:\n  dup3\n  0x03\n  dup2\n  add\n  swap3\n  dup3\n  iszero\n  tag_22\n  jumpi\n  swap2\n  0x20\n  mul\n  dup3\n  add\ntag_23:\n  dup3\n  dup2\n  gt\n  iszero\n  tag_24\n  jumpi\n  dup3\n  mload\n  dup3\n  swap1\n  0xff\n  and\n  swap1\n  sstore\n  swap2\n  0x20\n  add\n  swap2\n  swap1\n  0x01\n  add\n  swap1\n  jump(tag_23)\ntag_24:\ntag_22:\n  pop\n  swap1\n  pop\n  tag_25\n  swap2\n  swap1\n  tag_17\n  jump\t// in\ntag_25:\n  pop\n  swap1\n  jump\t// out\ntag_17:\ntag_26:\n  dup1\n  dup3\n  gt\n  iszero\n  tag_27\n  jumpi\n  0x00\n  dup2\n  0x00\n  swap1\n  sstore\n  pop\n  0x01\n  add\n  jump(tag_26)\ntag_27:\n  pop\n  swap1\n  jump\t// out\n    /* \"#utility.yul\":7:187   */\ntag_5:\n    /* \"#utility.yul\":55:132   */\n  0x4e487b7100000000000000000000000000000000000000000000000000000000\n    /* \"#utility.yul\":52:53   */\n  0x00\n    /* \"#utility.yul\":45:133   */\n  mstore\n    /* \"#utility.yul\":152:156   */\n  0x41\n    /* \"#utility.yul\":149:150   */\n  0x04\n    /* \"#utility.yul\":142:157   */\n  mstore\n    /* \"#utility.yul\":176:180   */\n  0x24\n    /* \"#utility.yul\":173:174   */\n  0x00\n    /* \"#utility.yul\":166:181   */\n  revert\n    /* \"array.sol\":57:1207  contract ArrayContract {... */\ntag_12:\n  dataSize(sub_0)\n  dup1\n  dataOffset(sub_0)\n  0x00\n  codecopy\n  0x00\n  return\nstop\n\nsub_0: assembly {\n        /* \"array.sol\":57:1207  contract ArrayContract {... */\n      mstore(0x40, 0x80)\n      callvalue\n      dup1\n      iszero\n      tag_1\n      jumpi\n      revert(0x00, 0x00)\n    tag_1:\n      pop\n      jumpi(tag_2, lt(calldatasize, 0x04))\n      shr(0xe0, calldataload(0x00))\n      dup1\n      0x7b554892\n      gt\n      tag_14\n      jumpi\n      dup1\n      0x7b554892\n      eq\n      tag_8\n      jumpi\n      dup1\n      0x8732ded8\n      eq\n      tag_9\n      jumpi\n      dup1\n      0xa542a833\n      eq\n      tag_10\n      jumpi\n      dup1\n      0xedf0099b\n      eq\n      tag_11\n      jumpi\n      dup1\n      0xf0640cef\n      eq\n      tag_12\n      jumpi\n      dup1\n      0xf9437098\n      eq\n      tag_13\n      jumpi\n      jump(tag_2)\n    tag_14:\n      dup1\n      0x0dbe671f\n      eq\n      tag_3\n      jumpi\n      dup1\n      0x41232fc9\n      eq\n      tag_4\n      jumpi\n      dup1\n      0x603bb1c8\n      eq\n      tag_5\n      jumpi\n      dup1\n      0x71e5ee5f\n      eq\n      tag_6\n      jumpi\n      dup1\n      0x7521ace0\n      eq\n      tag_7\n      jumpi\n    tag_2:\n      revert(0x00, 0x00)\n        /* \"array.sol\":86:107  uint256 public a = 10 */\n    tag_3:\n      tag_15\n      tag_16\n      jump\t// in\n    tag_15:\n      mload(0x40)\n      tag_17\n      swap2\n      swap1\n      tag_18\n      jump\t// in\n    tag_17:\n      mload(0x40)\n      dup1\n      swap2\n      sub\n      swap1\n      return\n        /* \"array.sol\":228:255  uint256[3] public staticArr */\n    tag_4:\n      tag_19\n      0x04\n      dup1\n      calldatasize\n      sub\n      dup2\n      add\n      swap1\n      tag_20\n      swap2\n      swap1\n      tag_21\n      jump\t// in\n    tag_20:\n      tag_22\n      jump\t// in\n    tag_19:\n      mload(0x40)\n      tag_23\n      swap2\n      swap1\n      tag_18\n      jump\t// in\n    tag_23:\n      mload(0x40)\n      dup1\n      swap2\n      sub\n      swap1\n      return\n        /* \"array.sol\":499:686  function readStaticArr1()... */\n    tag_5:\n      tag_24\n      tag_25\n      jump\t// in\n    tag_24:\n      mload(0x40)\n      tag_26\n      swap3\n      swap2\n      swap1\n      tag_27\n      jump\t// in\n    tag_26:\n      mload(0x40)\n      dup1\n      swap2\n      sub\n      swap1\n      return\n        /* \"array.sol\":114:134  uint256[] public arr */\n    tag_6:\n      tag_28\n      0x04\n      dup1\n      calldatasize\n      sub\n      dup2\n      add\n      swap1\n      tag_29\n      swap2\n      swap1\n      tag_21\n      jump\t// in\n    tag_29:\n      tag_30\n      jump\t// in\n    tag_28:\n      mload(0x40)\n      tag_31\n      swap2\n      swap1\n      tag_18\n      jump\t// in\n    tag_31:\n      mload(0x40)\n      dup1\n      swap2\n      sub\n      swap1\n      return\n        /* \"array.sol\":692:857  function readArr()... */\n    tag_7:\n      tag_32\n      tag_33\n      jump\t// in\n    tag_32:\n      mload(0x40)\n      tag_34\n      swap3\n      swap2\n      swap1\n      tag_35\n      jump\t// in\n    tag_34:\n      mload(0x40)\n      dup1\n      swap2\n      sub\n      swap1\n      return\n        /* \"array.sol\":1037:1205  function readArr3()... */\n    tag_8:\n      tag_36\n      tag_37\n      jump\t// in\n    tag_36:\n      mload(0x40)\n      tag_38\n      swap3\n      swap2\n      swap1\n      tag_35\n      jump\t// in\n    tag_38:\n      mload(0x40)\n      dup1\n      swap2\n      sub\n      swap1\n      return\n        /* \"array.sol\":181:221  uint256[] public arr3 = new uint256[](5) */\n    tag_9:\n      tag_39\n      0x04\n      dup1\n      calldatasize\n      sub\n      dup2\n      add\n      swap1\n      tag_40\n      swap2\n      swap1\n      tag_21\n      jump\t// in\n    tag_40:\n      tag_41\n      jump\t// in\n    tag_39:\n      mload(0x40)\n      tag_42\n      swap2\n      swap1\n      tag_18\n      jump\t// in\n    tag_42:\n      mload(0x40)\n      dup1\n      swap2\n      sub\n      swap1\n      return\n        /* \"array.sol\":309:493  function readStaticArr()... */\n    tag_10:\n      tag_43\n      tag_44\n      jump\t// in\n    tag_43:\n      mload(0x40)\n      tag_45\n      swap3\n      swap2\n      swap1\n      tag_27\n      jump\t// in\n    tag_45:\n      mload(0x40)\n      dup1\n      swap2\n      sub\n      swap1\n      return\n        /* \"array.sol\":141:174  uint256[] public arr2 = [1, 2, 3] */\n    tag_11:\n      tag_46\n      0x04\n      dup1\n      calldatasize\n      sub\n      dup2\n      add\n      swap1\n      tag_47\n      swap2\n      swap1\n      tag_21\n      jump\t// in\n    tag_47:\n      tag_48\n      jump\t// in\n    tag_46:\n      mload(0x40)\n      tag_49\n      swap2\n      swap1\n      tag_18\n      jump\t// in\n    tag_49:\n      mload(0x40)\n      dup1\n      swap2\n      sub\n      swap1\n      return\n        /* \"array.sol\":262:302  uint256[3] public staticArr1 = [1, 2, 3] */\n    tag_12:\n      tag_50\n      0x04\n      dup1\n      calldatasize\n      sub\n      dup2\n      add\n      swap1\n      tag_51\n      swap2\n      swap1\n      tag_21\n      jump\t// in\n    tag_51:\n      tag_52\n      jump\t// in\n    tag_50:\n      mload(0x40)\n      tag_53\n      swap2\n      swap1\n      tag_18\n      jump\t// in\n    tag_53:\n      mload(0x40)\n      dup1\n      swap2\n      sub\n      swap1\n      return\n        /* \"array.sol\":863:1031  function readArr2()... */\n    tag_13:\n      tag_54\n      tag_55\n      jump\t// in\n    tag_54:\n      mload(0x40)\n      tag_56\n      swap3\n      swap2\n      swap1\n      tag_35\n      jump\t// in\n    tag_56:\n      mload(0x40)\n      dup1\n      swap2\n      sub\n      swap1\n      return\n        /* \"array.sol\":86:107  uint256 public a = 10 */\n    tag_16:\n      sload(0x00)\n      dup2\n      jump\t// out\n        /* \"array.sol\":228:255  uint256[3] public staticArr */\n    tag_22:\n      0x04\n      dup2\n      0x03\n      dup2\n      lt\n      tag_57\n      jumpi\n      0x00\n      dup1\n      revert\n    tag_57:\n      add\n      0x00\n      swap2\n      pop\n      swap1\n      pop\n      sload\n      dup2\n      jump\t// out\n        /* \"array.sol\":499:686  function readStaticArr1()... */\n    tag_25:\n        /* \"array.sol\":572:594  uint256[3] memory data */\n      tag_59\n      tag_60\n      jump\t// in\n    tag_59:\n        /* \"array.sol\":596:610  uint256 length */\n      0x00\n        /* \"array.sol\":633:643  staticArr1 */\n      0x07\n        /* \"array.sol\":626:643  data = staticArr1 */\n      0x03\n      dup1\n      0x20\n      mul\n      mload(0x40)\n      swap1\n      dup2\n      add\n      0x40\n      mstore\n      dup1\n      swap3\n      swap2\n      swap1\n      dup3\n      0x03\n      dup1\n      iszero\n      tag_62\n      jumpi\n      0x20\n      mul\n      dup3\n      add\n      swap2\n    tag_63:\n      dup2\n      sload\n      dup2\n      mstore\n      0x20\n      add\n      swap1\n      0x01\n      add\n      swap1\n      dup1\n      dup4\n      gt\n      tag_63\n      jumpi\n    tag_62:\n      pop\n      pop\n      pop\n      pop\n      pop\n      swap2\n      pop\n        /* \"array.sol\":662:679  staticArr1.length */\n      0x03\n        /* \"array.sol\":653:679  length = staticArr1.length */\n      swap1\n      pop\n        /* \"array.sol\":499:686  function readStaticArr1()... */\n      swap1\n      swap2\n      jump\t// out\n        /* \"array.sol\":114:134  uint256[] public arr */\n    tag_30:\n      0x01\n      dup2\n      dup2\n      sload\n      dup2\n      lt\n      tag_64\n      jumpi\n      0x00\n      dup1\n      revert\n    tag_64:\n      swap1\n      0x00\n      mstore\n      keccak256(0x00, 0x20)\n      add\n      0x00\n      swap2\n      pop\n      swap1\n      pop\n      sload\n      dup2\n      jump\t// out\n        /* \"array.sol\":692:857  function readArr()... */\n    tag_33:\n        /* \"array.sol\":758:779  uint256[] memory data */\n      0x60\n        /* \"array.sol\":781:795  uint256 length */\n      0x00\n        /* \"array.sol\":818:821  arr */\n      0x01\n        /* \"array.sol\":811:821  data = arr */\n      dup1\n      sload\n      dup1\n      0x20\n      mul\n      0x20\n      add\n      mload(0x40)\n      swap1\n      dup2\n      add\n      0x40\n      mstore\n      dup1\n      swap3\n      swap2\n      swap1\n      dup2\n      dup2\n      mstore\n      0x20\n      add\n      dup3\n      dup1\n      sload\n      dup1\n      iszero\n      tag_67\n      jumpi\n      0x20\n      mul\n      dup3\n      add\n      swap2\n      swap1\n      0x00\n      mstore\n      keccak256(0x00, 0x20)\n      swap1\n    tag_68:\n      dup2\n      sload\n      dup2\n      mstore\n      0x20\n      add\n      swap1\n      0x01\n      add\n      swap1\n      dup1\n      dup4\n      gt\n      tag_68\n      jumpi\n    tag_67:\n      pop\n      pop\n      pop\n      pop\n      pop\n      swap2\n      pop\n        /* \"array.sol\":840:843  arr */\n      0x01\n        /* \"array.sol\":840:850  arr.length */\n      dup1\n      sload\n      swap1\n      pop\n        /* \"array.sol\":831:850  length = arr.length */\n      swap1\n      pop\n        /* \"array.sol\":692:857  function readArr()... */\n      swap1\n      swap2\n      jump\t// out\n        /* \"array.sol\":1037:1205  function readArr3()... */\n    tag_37:\n        /* \"array.sol\":1104:1125  uint256[] memory data */\n      0x60\n        /* \"array.sol\":1127:1141  uint256 length */\n      0x00\n        /* \"array.sol\":1164:1168  arr3 */\n      0x03\n        /* \"array.sol\":1157:1168  data = arr3 */\n      dup1\n      sload\n      dup1\n      0x20\n      mul\n      0x20\n      add\n      mload(0x40)\n      swap1\n      dup2\n      add\n      0x40\n      mstore\n      dup1\n      swap3\n      swap2\n      swap1\n      dup2\n      dup2\n      mstore\n      0x20\n      add\n      dup3\n      dup1\n      sload\n      dup1\n      iszero\n      tag_70\n      jumpi\n      0x20\n      mul\n      dup3\n      add\n      swap2\n      swap1\n      0x00\n      mstore\n      keccak256(0x00, 0x20)\n      swap1\n    tag_71:\n      dup2\n      sload\n      dup2\n      mstore\n      0x20\n      add\n      swap1\n      0x01\n      add\n      swap1\n      dup1\n      dup4\n      gt\n      tag_71\n      jumpi\n    tag_70:\n      pop\n      pop\n      pop\n      pop\n      pop\n      swap2\n      pop\n        /* \"array.sol\":1187:1191  arr3 */\n      0x03\n        /* \"array.sol\":1187:1198  arr3.length */\n      dup1\n      sload\n      swap1\n      pop\n        /* \"array.sol\":1178:1198  length = arr3.length */\n      swap1\n      pop\n        /* \"array.sol\":1037:1205  function readArr3()... */\n      swap1\n      swap2\n      jump\t// out\n        /* \"array.sol\":181:221  uint256[] public arr3 = new uint256[](5) */\n    tag_41:\n      0x03\n      dup2\n      dup2\n      sload\n      dup2\n      lt\n      tag_72\n      jumpi\n      0x00\n      dup1\n      revert\n    tag_72:\n      swap1\n      0x00\n      mstore\n      keccak256(0x00, 0x20)\n      add\n      0x00\n      swap2\n      pop\n      swap1\n      pop\n      sload\n      dup2\n      jump\t// out\n        /* \"array.sol\":309:493  function readStaticArr()... */\n    tag_44:\n        /* \"array.sol\":381:403  uint256[3] memory data */\n      tag_74\n      tag_60\n      jump\t// in\n    tag_74:\n        /* \"array.sol\":405:419  uint256 length */\n      0x00\n        /* \"array.sol\":442:451  staticArr */\n      0x04\n        /* \"array.sol\":435:451  data = staticArr */\n      0x03\n      dup1\n      0x20\n      mul\n      mload(0x40)\n      swap1\n      dup2\n      add\n      0x40\n      mstore\n      dup1\n      swap3\n      swap2\n      swap1\n      dup3\n      0x03\n      dup1\n      iszero\n      tag_76\n      jumpi\n      0x20\n      mul\n      dup3\n      add\n      swap2\n    tag_77:\n      dup2\n      sload\n      dup2\n      mstore\n      0x20\n      add\n      swap1\n      0x01\n      add\n      swap1\n      dup1\n      dup4\n      gt\n      tag_77\n      jumpi\n    tag_76:\n      pop\n      pop\n      pop\n      pop\n      pop\n      swap2\n      pop\n        /* \"array.sol\":470:486  staticArr.length */\n      0x03\n        /* \"array.sol\":461:486  length = staticArr.length */\n      swap1\n      pop\n        /* \"array.sol\":309:493  function readStaticArr()... */\n      swap1\n      swap2\n      jump\t// out\n        /* \"array.sol\":141:174  uint256[] public arr2 = [1, 2, 3] */\n    tag_48:\n      0x02\n      dup2\n      dup2\n      sload\n      dup2\n      lt\n      tag_78\n      jumpi\n      0x00\n      dup1\n      revert\n    tag_78:\n      swap1\n      0x00\n      mstore\n      keccak256(0x00, 0x20)\n      add\n      0x00\n      swap2\n      pop\n      swap1\n      pop\n      sload\n      dup2\n      jump\t// out\n        /* \"array.sol\":262:302  uint256[3] public staticArr1 = [1, 2, 3] */\n    tag_52:\n      0x07\n      dup2\n      0x03\n      dup2\n      lt\n      tag_80\n      jumpi\n      0x00\n      dup1\n      revert\n    tag_80:\n      add\n      0x00\n      swap2\n      pop\n      swap1\n      pop\n      sload\n      dup2\n      jump\t// out\n        /* \"array.sol\":863:1031  function readArr2()... */\n    tag_55:\n        /* \"array.sol\":930:951  uint256[] memory data */\n      0x60\n        /* \"array.sol\":953:967  uint256 length */\n      0x00\n        /* \"array.sol\":990:994  arr2 */\n      0x02\n        /* \"array.sol\":983:994  data = arr2 */\n      dup1\n      sload\n      dup1\n      0x20\n      mul\n      0x20\n      add\n      mload(0x40)\n      swap1\n      dup2\n      add\n      0x40\n      mstore\n      dup1\n      swap3\n      swap2\n      swap1\n      dup2\n      dup2\n      mstore\n      0x20\n      add\n      dup3\n      dup1\n      sload\n      dup1\n      iszero\n      tag_83\n      jumpi\n      0x20\n      mul\n      dup3\n      add\n      swap2\n      swap1\n      0x00\n      mstore\n      keccak256(0x00, 0x20)\n      swap1\n    tag_84:\n      dup2\n      sload\n      dup2\n      mstore\n      0x20\n      add\n      swap1\n      0x01\n      add\n      swap1\n      dup1\n      dup4\n      gt\n      tag_84\n      jumpi\n    tag_83:\n      pop\n      pop\n      pop\n      pop\n      pop\n      swap2\n      pop\n        /* \"array.sol\":1013:1017  arr2 */\n      0x02\n        /* \"array.sol\":1013:1024  arr2.length */\n      dup1\n      sload\n      swap1\n      pop\n        /* \"array.sol\":1004:1024  length = arr2.length */\n      swap1\n      pop\n        /* \"array.sol\":863:1031  function readArr2()... */\n      swap1\n      swap2\n      jump\t// out\n    tag_60:\n      mload(0x40)\n      dup1\n      0x60\n      add\n      0x40\n      mstore\n      dup1\n      0x03\n      swap1\n      0x20\n      dup3\n      mul\n      dup1\n      calldatasize\n      dup4\n      calldatacopy\n      dup1\n      dup3\n      add\n      swap2\n      pop\n      pop\n      swap1\n      pop\n      pop\n      swap1\n      jump\t// out\n        /* \"#utility.yul\":7:84   */\n    tag_85:\n        /* \"#utility.yul\":44:51   */\n      0x00\n        /* \"#utility.yul\":73:78   */\n      dup2\n        /* \"#utility.yul\":62:78   */\n      swap1\n      pop\n        /* \"#utility.yul\":7:84   */\n      swap2\n      swap1\n      pop\n      jump\t// out\n        /* \"#utility.yul\":90:208   */\n    tag_86:\n        /* \"#utility.yul\":177:201   */\n      tag_107\n        /* \"#utility.yul\":195:200   */\n      dup2\n        /* \"#utility.yul\":177:201   */\n      tag_85\n      jump\t// in\n    tag_107:\n        /* \"#utility.yul\":172:175   */\n      dup3\n        /* \"#utility.yul\":165:202   */\n      mstore\n        /* \"#utility.yul\":90:208   */\n      pop\n      pop\n      jump\t// out\n        /* \"#utility.yul\":214:436   */\n    tag_18:\n        /* \"#utility.yul\":307:311   */\n      0x00\n        /* \"#utility.yul\":345:347   */\n      0x20\n        /* \"#utility.yul\":334:343   */\n      dup3\n        /* \"#utility.yul\":330:348   */\n      add\n        /* \"#utility.yul\":322:348   */\n      swap1\n      pop\n        /* \"#utility.yul\":358:429   */\n      tag_109\n        /* \"#utility.yul\":426:427   */\n      0x00\n        /* \"#utility.yul\":415:424   */\n      dup4\n        /* \"#utility.yul\":411:428   */\n      add\n        /* \"#utility.yul\":402:408   */\n      dup5\n        /* \"#utility.yul\":358:429   */\n      tag_86\n      jump\t// in\n    tag_109:\n        /* \"#utility.yul\":214:436   */\n      swap3\n      swap2\n      pop\n      pop\n      jump\t// out\n        /* \"#utility.yul\":523:640   */\n    tag_88:\n        /* \"#utility.yul\":632:633   */\n      0x00\n        /* \"#utility.yul\":629:630   */\n      0x00\n        /* \"#utility.yul\":622:634   */\n      revert\n        /* \"#utility.yul\":769:891   */\n    tag_90:\n        /* \"#utility.yul\":842:866   */\n      tag_114\n        /* \"#utility.yul\":860:865   */\n      dup2\n        /* \"#utility.yul\":842:866   */\n      tag_85\n      jump\t// in\n    tag_114:\n        /* \"#utility.yul\":835:840   */\n      dup2\n        /* \"#utility.yul\":832:867   */\n      eq\n        /* \"#utility.yul\":822:885   */\n      tag_115\n      jumpi\n        /* \"#utility.yul\":881:882   */\n      0x00\n        /* \"#utility.yul\":878:879   */\n      0x00\n        /* \"#utility.yul\":871:883   */\n      revert\n        /* \"#utility.yul\":822:885   */\n    tag_115:\n        /* \"#utility.yul\":769:891   */\n      pop\n      jump\t// out\n        /* \"#utility.yul\":897:1036   */\n    tag_91:\n        /* \"#utility.yul\":943:948   */\n      0x00\n        /* \"#utility.yul\":981:987   */\n      dup2\n        /* \"#utility.yul\":968:988   */\n      calldataload\n        /* \"#utility.yul\":959:988   */\n      swap1\n      pop\n        /* \"#utility.yul\":997:1030   */\n      tag_117\n        /* \"#utility.yul\":1024:1029   */\n      dup2\n        /* \"#utility.yul\":997:1030   */\n      tag_90\n      jump\t// in\n    tag_117:\n        /* \"#utility.yul\":897:1036   */\n      swap3\n      swap2\n      pop\n      pop\n      jump\t// out\n        /* \"#utility.yul\":1042:1371   */\n    tag_21:\n        /* \"#utility.yul\":1101:1107   */\n      0x00\n        /* \"#utility.yul\":1150:1152   */\n      0x20\n        /* \"#utility.yul\":1138:1147   */\n      dup3\n        /* \"#utility.yul\":1129:1136   */\n      dup5\n        /* \"#utility.yul\":1125:1148   */\n      sub\n        /* \"#utility.yul\":1121:1153   */\n      slt\n        /* \"#utility.yul\":1118:1237   */\n      iszero\n      tag_119\n      jumpi\n        /* \"#utility.yul\":1156:1235   */\n      tag_120\n      tag_88\n      jump\t// in\n    tag_120:\n        /* \"#utility.yul\":1118:1237   */\n    tag_119:\n        /* \"#utility.yul\":1276:1277   */\n      0x00\n        /* \"#utility.yul\":1301:1354   */\n      tag_121\n        /* \"#utility.yul\":1346:1353   */\n      dup5\n        /* \"#utility.yul\":1337:1343   */\n      dup3\n        /* \"#utility.yul\":1326:1335   */\n      dup6\n        /* \"#utility.yul\":1322:1344   */\n      add\n        /* \"#utility.yul\":1301:1354   */\n      tag_91\n      jump\t// in\n    tag_121:\n        /* \"#utility.yul\":1291:1354   */\n      swap2\n      pop\n        /* \"#utility.yul\":1247:1364   */\n      pop\n        /* \"#utility.yul\":1042:1371   */\n      swap3\n      swap2\n      pop\n      pop\n      jump\t// out\n        /* \"#utility.yul\":1377:1481   */\n    tag_92:\n        /* \"#utility.yul\":1442:1448   */\n      0x00\n        /* \"#utility.yul\":1470:1474   */\n      0x03\n        /* \"#utility.yul\":1460:1474   */\n      swap1\n      pop\n        /* \"#utility.yul\":1377:1481   */\n      swap2\n      swap1\n      pop\n      jump\t// out\n        /* \"#utility.yul\":1487:1630   */\n    tag_93:\n        /* \"#utility.yul\":1584:1595   */\n      0x00\n        /* \"#utility.yul\":1621:1624   */\n      dup2\n        /* \"#utility.yul\":1606:1624   */\n      swap1\n      pop\n        /* \"#utility.yul\":1487:1630   */\n      swap3\n      swap2\n      pop\n      pop\n      jump\t// out\n        /* \"#utility.yul\":1636:1734   */\n    tag_94:\n        /* \"#utility.yul\":1701:1705   */\n      0x00\n        /* \"#utility.yul\":1724:1727   */\n      dup2\n        /* \"#utility.yul\":1716:1727   */\n      swap1\n      pop\n        /* \"#utility.yul\":1636:1734   */\n      swap2\n      swap1\n      pop\n      jump\t// out\n        /* \"#utility.yul\":1740:1848   */\n    tag_95:\n        /* \"#utility.yul\":1817:1841   */\n      tag_126\n        /* \"#utility.yul\":1835:1840   */\n      dup2\n        /* \"#utility.yul\":1817:1841   */\n      tag_85\n      jump\t// in\n    tag_126:\n        /* \"#utility.yul\":1812:1815   */\n      dup3\n        /* \"#utility.yul\":1805:1842   */\n      mstore\n        /* \"#utility.yul\":1740:1848   */\n      pop\n      pop\n      jump\t// out\n        /* \"#utility.yul\":1854:2033   */\n    tag_96:\n        /* \"#utility.yul\":1923:1933   */\n      0x00\n        /* \"#utility.yul\":1944:1990   */\n      tag_128\n        /* \"#utility.yul\":1986:1989   */\n      dup4\n        /* \"#utility.yul\":1978:1984   */\n      dup4\n        /* \"#utility.yul\":1944:1990   */\n      tag_95\n      jump\t// in\n    tag_128:\n        /* \"#utility.yul\":2022:2026   */\n      0x20\n        /* \"#utility.yul\":2017:2020   */\n      dup4\n        /* \"#utility.yul\":2013:2027   */\n      add\n        /* \"#utility.yul\":1999:2027   */\n      swap1\n      pop\n        /* \"#utility.yul\":1854:2033   */\n      swap3\n      swap2\n      pop\n      pop\n      jump\t// out\n        /* \"#utility.yul\":2039:2150   */\n    tag_97:\n        /* \"#utility.yul\":2107:2111   */\n      0x00\n        /* \"#utility.yul\":2139:2143   */\n      0x20\n        /* \"#utility.yul\":2134:2137   */\n      dup3\n        /* \"#utility.yul\":2130:2144   */\n      add\n        /* \"#utility.yul\":2122:2144   */\n      swap1\n      pop\n        /* \"#utility.yul\":2039:2150   */\n      swap2\n      swap1\n      pop\n      jump\t// out\n        /* \"#utility.yul\":2188:2882   */\n    tag_98:\n        /* \"#utility.yul\":2324:2376   */\n      tag_131\n        /* \"#utility.yul\":2370:2375   */\n      dup2\n        /* \"#utility.yul\":2324:2376   */\n      tag_92\n      jump\t// in\n    tag_131:\n        /* \"#utility.yul\":2392:2476   */\n      tag_132\n        /* \"#utility.yul\":2469:2475   */\n      dup2\n        /* \"#utility.yul\":2464:2467   */\n      dup5\n        /* \"#utility.yul\":2392:2476   */\n      tag_93\n      jump\t// in\n    tag_132:\n        /* \"#utility.yul\":2385:2476   */\n      swap3\n      pop\n        /* \"#utility.yul\":2500:2554   */\n      tag_133\n        /* \"#utility.yul\":2548:2553   */\n      dup3\n        /* \"#utility.yul\":2500:2554   */\n      tag_94\n      jump\t// in\n    tag_133:\n        /* \"#utility.yul\":2577:2584   */\n      dup1\n        /* \"#utility.yul\":2608:2609   */\n      0x00\n        /* \"#utility.yul\":2593:2875   */\n    tag_134:\n        /* \"#utility.yul\":2618:2624   */\n      dup4\n        /* \"#utility.yul\":2615:2616   */\n      dup2\n        /* \"#utility.yul\":2612:2625   */\n      lt\n        /* \"#utility.yul\":2593:2875   */\n      iszero\n      tag_136\n      jumpi\n        /* \"#utility.yul\":2694:2700   */\n      dup2\n        /* \"#utility.yul\":2688:2701   */\n      mload\n        /* \"#utility.yul\":2721:2784   */\n      tag_137\n        /* \"#utility.yul\":2780:2783   */\n      dup8\n        /* \"#utility.yul\":2765:2778   */\n      dup3\n        /* \"#utility.yul\":2721:2784   */\n      tag_96\n      jump\t// in\n    tag_137:\n        /* \"#utility.yul\":2714:2784   */\n      swap7\n      pop\n        /* \"#utility.yul\":2807:2865   */\n      tag_138\n        /* \"#utility.yul\":2858:2864   */\n      dup4\n        /* \"#utility.yul\":2807:2865   */\n      tag_97\n      jump\t// in\n    tag_138:\n        /* \"#utility.yul\":2797:2865   */\n      swap3\n      pop\n        /* \"#utility.yul\":2653:2875   */\n      pop\n        /* \"#utility.yul\":2640:2641   */\n      0x01\n        /* \"#utility.yul\":2637:2638   */\n      dup2\n        /* \"#utility.yul\":2633:2642   */\n      add\n        /* \"#utility.yul\":2628:2642   */\n      swap1\n      pop\n        /* \"#utility.yul\":2593:2875   */\n      jump(tag_134)\n    tag_136:\n        /* \"#utility.yul\":2597:2611   */\n      pop\n        /* \"#utility.yul\":2300:2882   */\n      pop\n      pop\n      pop\n        /* \"#utility.yul\":2188:2882   */\n      pop\n      pop\n      jump\t// out\n        /* \"#utility.yul\":2888:3313   */\n    tag_27:\n        /* \"#utility.yul\":3055:3059   */\n      0x00\n        /* \"#utility.yul\":3093:3096   */\n      0x80\n        /* \"#utility.yul\":3082:3091   */\n      dup3\n        /* \"#utility.yul\":3078:3097   */\n      add\n        /* \"#utility.yul\":3070:3097   */\n      swap1\n      pop\n        /* \"#utility.yul\":3107:3224   */\n      tag_140\n        /* \"#utility.yul\":3221:3222   */\n      0x00\n        /* \"#utility.yul\":3210:3219   */\n      dup4\n        /* \"#utility.yul\":3206:3223   */\n      add\n        /* \"#utility.yul\":3197:3203   */\n      dup6\n        /* \"#utility.yul\":3107:3224   */\n      tag_98\n      jump\t// in\n    tag_140:\n        /* \"#utility.yul\":3234:3306   */\n      tag_141\n        /* \"#utility.yul\":3302:3304   */\n      0x60\n        /* \"#utility.yul\":3291:3300   */\n      dup4\n        /* \"#utility.yul\":3287:3305   */\n      add\n        /* \"#utility.yul\":3278:3284   */\n      dup5\n        /* \"#utility.yul\":3234:3306   */\n      tag_86\n      jump\t// in\n    tag_141:\n        /* \"#utility.yul\":2888:3313   */\n      swap4\n      swap3\n      pop\n      pop\n      pop\n      jump\t// out\n        /* \"#utility.yul\":3319:3433   */\n    tag_99:\n        /* \"#utility.yul\":3386:3392   */\n      0x00\n        /* \"#utility.yul\":3420:3425   */\n      dup2\n        /* \"#utility.yul\":3414:3426   */\n      mload\n        /* \"#utility.yul\":3404:3426   */\n      swap1\n      pop\n        /* \"#utility.yul\":3319:3433   */\n      swap2\n      swap1\n      pop\n      jump\t// out\n        /* \"#utility.yul\":3439:3623   */\n    tag_100:\n        /* \"#utility.yul\":3538:3549   */\n      0x00\n        /* \"#utility.yul\":3572:3578   */\n      dup3\n        /* \"#utility.yul\":3567:3570   */\n      dup3\n        /* \"#utility.yul\":3560:3579   */\n      mstore\n        /* \"#utility.yul\":3612:3616   */\n      0x20\n        /* \"#utility.yul\":3607:3610   */\n      dup3\n        /* \"#utility.yul\":3603:3617   */\n      add\n        /* \"#utility.yul\":3588:3617   */\n      swap1\n      pop\n        /* \"#utility.yul\":3439:3623   */\n      swap3\n      swap2\n      pop\n      pop\n      jump\t// out\n        /* \"#utility.yul\":3629:3761   */\n    tag_101:\n        /* \"#utility.yul\":3696:3700   */\n      0x00\n        /* \"#utility.yul\":3719:3722   */\n      dup2\n        /* \"#utility.yul\":3711:3722   */\n      swap1\n      pop\n        /* \"#utility.yul\":3749:3753   */\n      0x20\n        /* \"#utility.yul\":3744:3747   */\n      dup3\n        /* \"#utility.yul\":3740:3754   */\n      add\n        /* \"#utility.yul\":3732:3754   */\n      swap1\n      pop\n        /* \"#utility.yul\":3629:3761   */\n      swap2\n      swap1\n      pop\n      jump\t// out\n        /* \"#utility.yul\":3767:3880   */\n    tag_102:\n        /* \"#utility.yul\":3837:3841   */\n      0x00\n        /* \"#utility.yul\":3869:3873   */\n      0x20\n        /* \"#utility.yul\":3864:3867   */\n      dup3\n        /* \"#utility.yul\":3860:3874   */\n      add\n        /* \"#utility.yul\":3852:3874   */\n      swap1\n      pop\n        /* \"#utility.yul\":3767:3880   */\n      swap2\n      swap1\n      pop\n      jump\t// out\n        /* \"#utility.yul\":3916:4648   */\n    tag_103:\n        /* \"#utility.yul\":4035:4038   */\n      0x00\n        /* \"#utility.yul\":4064:4118   */\n      tag_147\n        /* \"#utility.yul\":4112:4117   */\n      dup3\n        /* \"#utility.yul\":4064:4118   */\n      tag_99\n      jump\t// in\n    tag_147:\n        /* \"#utility.yul\":4134:4220   */\n      tag_148\n        /* \"#utility.yul\":4213:4219   */\n      dup2\n        /* \"#utility.yul\":4208:4211   */\n      dup6\n        /* \"#utility.yul\":4134:4220   */\n      tag_100\n      jump\t// in\n    tag_148:\n        /* \"#utility.yul\":4127:4220   */\n      swap4\n      pop\n        /* \"#utility.yul\":4244:4300   */\n      tag_149\n        /* \"#utility.yul\":4294:4299   */\n      dup4\n        /* \"#utility.yul\":4244:4300   */\n      tag_101\n      jump\t// in\n    tag_149:\n        /* \"#utility.yul\":4323:4330   */\n      dup1\n        /* \"#utility.yul\":4354:4355   */\n      0x00\n        /* \"#utility.yul\":4339:4623   */\n    tag_150:\n        /* \"#utility.yul\":4364:4370   */\n      dup4\n        /* \"#utility.yul\":4361:4362   */\n      dup2\n        /* \"#utility.yul\":4358:4371   */\n      lt\n        /* \"#utility.yul\":4339:4623   */\n      iszero\n      tag_152\n      jumpi\n        /* \"#utility.yul\":4440:4446   */\n      dup2\n        /* \"#utility.yul\":4434:4447   */\n      mload\n        /* \"#utility.yul\":4467:4530   */\n      tag_153\n        /* \"#utility.yul\":4526:4529   */\n      dup9\n        /* \"#utility.yul\":4511:4524   */\n      dup3\n        /* \"#utility.yul\":4467:4530   */\n      tag_96\n      jump\t// in\n    tag_153:\n        /* \"#utility.yul\":4460:4530   */\n      swap8\n      pop\n        /* \"#utility.yul\":4553:4613   */\n      tag_154\n        /* \"#utility.yul\":4606:4612   */\n      dup4\n        /* \"#utility.yul\":4553:4613   */\n      tag_102\n      jump\t// in\n    tag_154:\n        /* \"#utility.yul\":4543:4613   */\n      swap3\n      pop\n        /* \"#utility.yul\":4399:4623   */\n      pop\n        /* \"#utility.yul\":4386:4387   */\n      0x01\n        /* \"#utility.yul\":4383:4384   */\n      dup2\n        /* \"#utility.yul\":4379:4388   */\n      add\n        /* \"#utility.yul\":4374:4388   */\n      swap1\n      pop\n        /* \"#utility.yul\":4339:4623   */\n      jump(tag_150)\n    tag_152:\n        /* \"#utility.yul\":4343:4357   */\n      pop\n        /* \"#utility.yul\":4639:4642   */\n      dup6\n        /* \"#utility.yul\":4632:4642   */\n      swap4\n      pop\n        /* \"#utility.yul\":4040:4648   */\n      pop\n      pop\n      pop\n        /* \"#utility.yul\":3916:4648   */\n      swap3\n      swap2\n      pop\n      pop\n      jump\t// out\n        /* \"#utility.yul\":4654:5137   */\n    tag_35:\n        /* \"#utility.yul\":4825:4829   */\n      0x00\n        /* \"#utility.yul\":4863:4865   */\n      0x40\n        /* \"#utility.yul\":4852:4861   */\n      dup3\n        /* \"#utility.yul\":4848:4866   */\n      add\n        /* \"#utility.yul\":4840:4866   */\n      swap1\n      pop\n        /* \"#utility.yul\":4912:4921   */\n      dup2\n        /* \"#utility.yul\":4906:4910   */\n      dup2\n        /* \"#utility.yul\":4902:4922   */\n      sub\n        /* \"#utility.yul\":4898:4899   */\n      0x00\n        /* \"#utility.yul\":4887:4896   */\n      dup4\n        /* \"#utility.yul\":4883:4900   */\n      add\n        /* \"#utility.yul\":4876:4923   */\n      mstore\n        /* \"#utility.yul\":4940:5048   */\n      tag_156\n        /* \"#utility.yul\":5043:5047   */\n      dup2\n        /* \"#utility.yul\":5034:5040   */\n      dup6\n        /* \"#utility.yul\":4940:5048   */\n      tag_103\n      jump\t// in\n    tag_156:\n        /* \"#utility.yul\":4932:5048   */\n      swap1\n      pop\n        /* \"#utility.yul\":5058:5130   */\n      tag_157\n        /* \"#utility.yul\":5126:5128   */\n      0x20\n        /* \"#utility.yul\":5115:5124   */\n      dup4\n        /* \"#utility.yul\":5111:5129   */\n      add\n        /* \"#utility.yul\":5102:5108   */\n      dup5\n        /* \"#utility.yul\":5058:5130   */\n      tag_86\n      jump\t// in\n    tag_157:\n        /* \"#utility.yul\":4654:5137   */\n      swap4\n      swap3\n      pop\n      pop\n      pop\n      jump\t// out\n\n    auxdata: 0xa26469706673582212200a299732892882bb18f7a9f19e9aaed5fe2ca20fea26e173f57cb3e0c687de5e64736f6c634300081e0033\n}\n",
				"bytecode": {
					"linkReferences": {},
					"object": "6080604052600a5f556040518060600160405280600160ff168152602001600260ff168152602001600360ff16815250600290600361003f9291906100e9565b50600567ffffffffffffffff81111561005b5761005a6101e4565b5b6040519080825280602002602001820160405280156100895781602001602082028036833780820191505090505b506003908051906020019061009f929190610139565b506040518060600160405280600160ff168152602001600260ff168152602001600360ff1681525060079060036100d7929190610184565b503480156100e3575f5ffd5b50610211565b828054828255905f5260205f20908101928215610128579160200282015b82811115610127578251829060ff16905591602001919060010190610107565b5b50905061013591906101c9565b5090565b828054828255905f5260205f20908101928215610173579160200282015b82811115610172578251825591602001919060010190610157565b5b50905061018091906101c9565b5090565b82600381019282156101b8579160200282015b828111156101b7578251829060ff16905591602001919060010190610197565b5b5090506101c591906101c9565b5090565b5b808211156101e0575f815f9055506001016101ca565b5090565b7f4e487b71000000000000000000000000000000000000000000000000000000005f52604160045260245ffd5b61071a8061021e5f395ff3fe608060405234801561000f575f5ffd5b50600436106100a7575f3560e01c80637b5548921161006f5780637b554892146101675780638732ded814610186578063a542a833146101b6578063edf0099b146101d5578063f0640cef14610205578063f943709814610235576100a7565b80630dbe671f146100ab57806341232fc9146100c9578063603bb1c8146100f957806371e5ee5f146101185780637521ace014610148575b5f5ffd5b6100b3610254565b6040516100c091906104e7565b60405180910390f35b6100e360048036038101906100de919061052e565b610259565b6040516100f091906104e7565b60405180910390f35b610101610272565b60405161010f9291906105fe565b60405180910390f35b610132600480360381019061012d919061052e565b6102c3565b60405161013f91906104e7565b60405180910390f35b6101506102e3565b60405161015e9291906106b6565b60405180910390f35b61016f610343565b60405161017d9291906106b6565b60405180910390f35b6101a0600480360381019061019b919061052e565b6103a3565b6040516101ad91906104e7565b60405180910390f35b6101be6103c3565b6040516101cc9291906105fe565b60405180910390f35b6101ef60048036038101906101ea919061052e565b610414565b6040516101fc91906104e7565b60405180910390f35b61021f600480360381019061021a919061052e565b610434565b60405161022c91906104e7565b60405180910390f35b61023d61044d565b60405161024b9291906106b6565b60405180910390f35b5f5481565b60048160038110610268575f80fd5b015f915090505481565b61027a6104ad565b5f60076003806020026040519081016040528092919082600380156102b4576020028201915b8154815260200190600101908083116102a0575b50505050509150600390509091565b600181815481106102d2575f80fd5b905f5260205f20015f915090505481565b60605f600180548060200260200160405190810160405280929190818152602001828054801561033057602002820191905f5260205f20905b81548152602001906001019080831161031c575b5050505050915060018054905090509091565b60605f600380548060200260200160405190810160405280929190818152602001828054801561039057602002820191905f5260205f20905b81548152602001906001019080831161037c575b5050505050915060038054905090509091565b600381815481106103b2575f80fd5b905f5260205f20015f915090505481565b6103cb6104ad565b5f6004600380602002604051908101604052809291908260038015610405576020028201915b8154815260200190600101908083116103f1575b50505050509150600390509091565b60028181548110610423575f80fd5b905f5260205f20015f915090505481565b60078160038110610443575f80fd5b015f915090505481565b60605f600280548060200260200160405190810160405280929190818152602001828054801561049a57602002820191905f5260205f20905b815481526020019060010190808311610486575b5050505050915060028054905090509091565b6040518060600160405280600390602082028036833780820191505090505090565b5f819050919050565b6104e1816104cf565b82525050565b5f6020820190506104fa5f8301846104d8565b92915050565b5f5ffd5b61050d816104cf565b8114610517575f5ffd5b50565b5f8135905061052881610504565b92915050565b5f6020828403121561054357610542610500565b5b5f6105508482850161051a565b91505092915050565b5f60039050919050565b5f81905092915050565b5f819050919050565b61057f816104cf565b82525050565b5f6105908383610576565b60208301905092915050565b5f602082019050919050565b6105b181610559565b6105bb8184610563565b92506105c68261056d565b805f5b838110156105f65781516105dd8782610585565b96506105e88361059c565b9250506001810190506105c9565b505050505050565b5f6080820190506106115f8301856105a8565b61061e60608301846104d8565b9392505050565b5f81519050919050565b5f82825260208201905092915050565b5f819050602082019050919050565b5f602082019050919050565b5f61066482610625565b61066e818561062f565b93506106798361063f565b805f5b838110156106a95781516106908882610585565b975061069b8361064e565b92505060018101905061067c565b5085935050505092915050565b5f6040820190508181035f8301526106ce818561065a565b90506106dd60208301846104d8565b939250505056fea26469706673582212200a299732892882bb18f7a9f19e9aaed5fe2ca20fea26e173f57cb3e0c687de5e64736f6c634300081e0033",
					"opcodes": "PUSH1 0x80 PUSH1 0x40 MSTORE PUSH1 0xA PUSH0 SSTORE PUSH1 0x40 MLOAD DUP1 PUSH1 0x60 ADD PUSH1 0x40 MSTORE DUP1 PUSH1 0x1 PUSH1 0xFF AND DUP2 MSTORE PUSH1 0x20 ADD PUSH1 0x2 PUSH1 0xFF AND DUP2 MSTORE PUSH1 0x20 ADD PUSH1 0x3 PUSH1 0xFF AND DUP2 MSTORE POP PUSH1 0x2 SWAP1 PUSH1 0x3 PUSH2 0x3F SWAP3 SWAP2 SWAP1 PUSH2 0xE9 JUMP JUMPDEST POP PUSH1 0x5 PUSH8 0xFFFFFFFFFFFFFFFF DUP2 GT ISZERO PUSH2 0x5B JUMPI PUSH2 0x5A PUSH2 0x1E4 JUMP JUMPDEST JUMPDEST PUSH1 0x40 MLOAD SWAP1 DUP1 DUP3 MSTORE DUP1 PUSH1 0x20 MUL PUSH1 0x20 ADD DUP3 ADD PUSH1 0x40 MSTORE DUP1 ISZERO PUSH2 0x89 JUMPI DUP2 PUSH1 0x20 ADD PUSH1 0x20 DUP3 MUL DUP1 CALLDATASIZE DUP4 CALLDATACOPY DUP1 DUP3 ADD SWAP2 POP POP SWAP1 POP JUMPDEST POP PUSH1 0x3 SWAP1 DUP1 MLOAD SWAP1 PUSH1 0x20 ADD SWAP1 PUSH2 0x9F SWAP3 SWAP2 SWAP1 PUSH2 0x139 JUMP JUMPDEST POP PUSH1 0x40 MLOAD DUP1 PUSH1 0x60 ADD PUSH1 0x40 MSTORE DUP1 PUSH1 0x1 PUSH1 0xFF AND DUP2 MSTORE PUSH1 0x20 ADD PUSH1 0x2 PUSH1 0xFF AND DUP2 MSTORE PUSH1 0x20 ADD PUSH1 0x3 PUSH1 0xFF AND DUP2 MSTORE POP PUSH1 0x7 SWAP1 PUSH1 0x3 PUSH2 0xD7 SWAP3 SWAP2 SWAP1 PUSH2 0x184 JUMP JUMPDEST POP CALLVALUE DUP1 ISZERO PUSH2 0xE3 JUMPI PUSH0 PUSH0 REVERT JUMPDEST POP PUSH2 0x211 JUMP JUMPDEST DUP3 DUP1 SLOAD DUP3 DUP3 SSTORE SWAP1 PUSH0 MSTORE PUSH1 0x20 PUSH0 KECCAK256 SWAP1 DUP2 ADD SWAP3 DUP3 ISZERO PUSH2 0x128 JUMPI SWAP2 PUSH1 0x20 MUL DUP3 ADD JUMPDEST DUP3 DUP2 GT ISZERO PUSH2 0x127 JUMPI DUP3 MLOAD DUP3 SWAP1 PUSH1 0xFF AND SWAP1 SSTORE SWAP2 PUSH1 0x20 ADD SWAP2 SWAP1 PUSH1 0x1 ADD SWAP1 PUSH2 0x107 JUMP JUMPDEST JUMPDEST POP SWAP1 POP PUSH2 0x135 SWAP2 SWAP1 PUSH2 0x1C9 JUMP JUMPDEST POP SWAP1 JUMP JUMPDEST DUP3 DUP1 SLOAD DUP3 DUP3 SSTORE SWAP1 PUSH0 MSTORE PUSH1 0x20 PUSH0 KECCAK256 SWAP1 DUP2 ADD SWAP3 DUP3 ISZERO PUSH2 0x173 JUMPI SWAP2 PUSH1 0x20 MUL DUP3 ADD JUMPDEST DUP3 DUP2 GT ISZERO PUSH2 0x172 JUMPI DUP3 MLOAD DUP3 SSTORE SWAP2 PUSH1 0x20 ADD SWAP2 SWAP1 PUSH1 0x1 ADD SWAP1 PUSH2 0x157 JUMP JUMPDEST JUMPDEST POP SWAP1 POP PUSH2 0x180 SWAP2 SWAP1 PUSH2 0x1C9 JUMP JUMPDEST POP SWAP1 JUMP JUMPDEST DUP3 PUSH1 0x3 DUP2 ADD SWAP3 DUP3 ISZERO PUSH2 0x1B8 JUMPI SWAP2 PUSH1 0x20 MUL DUP3 ADD JUMPDEST DUP3 DUP2 GT ISZERO PUSH2 0x1B7 JUMPI DUP3 MLOAD DUP3 SWAP1 PUSH1 0xFF AND SWAP1 SSTORE SWAP2 PUSH1 0x20 ADD SWAP2 SWAP1 PUSH1 0x1 ADD SWAP1 PUSH2 0x197 JUMP JUMPDEST JUMPDEST POP SWAP1 POP PUSH2 0x1C5 SWAP2 SWAP1 PUSH2 0x1C9 JUMP JUMPDEST POP SWAP1 JUMP JUMPDEST JUMPDEST DUP1 DUP3 GT ISZERO PUSH2 0x1E0 JUMPI PUSH0 DUP2 PUSH0 SWAP1 SSTORE POP PUSH1 0x1 ADD PUSH2 0x1CA JUMP JUMPDEST POP SWAP1 JUMP JUMPDEST PUSH32 0x4E487B7100000000000000000000000000000000000000000000000000000000 PUSH0 MSTORE PUSH1 0x41 PUSH1 0x4 MSTORE PUSH1 0x24 PUSH0 REVERT JUMPDEST PUSH2 0x71A DUP1 PUSH2 0x21E PUSH0 CODECOPY PUSH0 RETURN INVALID PUSH1 0x80 PUSH1 0x40 MSTORE CALLVALUE DUP1 ISZERO PUSH2 0xF JUMPI PUSH0 PUSH0 REVERT JUMPDEST POP PUSH1 0x4 CALLDATASIZE LT PUSH2 0xA7 JUMPI PUSH0 CALLDATALOAD PUSH1 0xE0 SHR DUP1 PUSH4 0x7B554892 GT PUSH2 0x6F JUMPI DUP1 PUSH4 0x7B554892 EQ PUSH2 0x167 JUMPI DUP1 PUSH4 0x8732DED8 EQ PUSH2 0x186 JUMPI DUP1 PUSH4 0xA542A833 EQ PUSH2 0x1B6 JUMPI DUP1 PUSH4 0xEDF0099B EQ PUSH2 0x1D5 JUMPI DUP1 PUSH4 0xF0640CEF EQ PUSH2 0x205 JUMPI DUP1 PUSH4 0xF9437098 EQ PUSH2 0x235 JUMPI PUSH2 0xA7 JUMP JUMPDEST DUP1 PUSH4 0xDBE671F EQ PUSH2 0xAB JUMPI DUP1 PUSH4 0x41232FC9 EQ PUSH2 0xC9 JUMPI DUP1 PUSH4 0x603BB1C8 EQ PUSH2 0xF9 JUMPI DUP1 PUSH4 0x71E5EE5F EQ PUSH2 0x118 JUMPI DUP1 PUSH4 0x7521ACE0 EQ PUSH2 0x148 JUMPI JUMPDEST PUSH0 PUSH0 REVERT JUMPDEST PUSH2 0xB3 PUSH2 0x254 JUMP JUMPDEST PUSH1 0x40 MLOAD PUSH2 0xC0 SWAP2 SWAP1 PUSH2 0x4E7 JUMP JUMPDEST PUSH1 0x40 MLOAD DUP1 SWAP2 SUB SWAP1 RETURN JUMPDEST PUSH2 0xE3 PUSH1 0x4 DUP1 CALLDATASIZE SUB DUP2 ADD SWAP1 PUSH2 0xDE SWAP2 SWAP1 PUSH2 0x52E JUMP JUMPDEST PUSH2 0x259 JUMP JUMPDEST PUSH1 0x40 MLOAD PUSH2 0xF0 SWAP2 SWAP1 PUSH2 0x4E7 JUMP JUMPDEST PUSH1 0x40 MLOAD DUP1 SWAP2 SUB SWAP1 RETURN JUMPDEST PUSH2 0x101 PUSH2 0x272 JUMP JUMPDEST PUSH1 0x40 MLOAD PUSH2 0x10F SWAP3 SWAP2 SWAP1 PUSH2 0x5FE JUMP JUMPDEST PUSH1 0x40 MLOAD DUP1 SWAP2 SUB SWAP1 RETURN JUMPDEST PUSH2 0x132 PUSH1 0x4 DUP1 CALLDATASIZE SUB DUP2 ADD SWAP1 PUSH2 0x12D SWAP2 SWAP1 PUSH2 0x52E JUMP JUMPDEST PUSH2 0x2C3 JUMP JUMPDEST PUSH1 0x40 MLOAD PUSH2 0x13F SWAP2 SWAP1 PUSH2 0x4E7 JUMP JUMPDEST PUSH1 0x40 MLOAD DUP1 SWAP2 SUB SWAP1 RETURN JUMPDEST PUSH2 0x150 PUSH2 0x2E3 JUMP JUMPDEST PUSH1 0x40 MLOAD PUSH2 0x15E SWAP3 SWAP2 SWAP1 PUSH2 0x6B6 JUMP JUMPDEST PUSH1 0x40 MLOAD DUP1 SWAP2 SUB SWAP1 RETURN JUMPDEST PUSH2 0x16F PUSH2 0x343 JUMP JUMPDEST PUSH1 0x40 MLOAD PUSH2 0x17D SWAP3 SWAP2 SWAP1 PUSH2 0x6B6 JUMP JUMPDEST PUSH1 0x40 MLOAD DUP1 SWAP2 SUB SWAP1 RETURN JUMPDEST PUSH2 0x1A0 PUSH1 0x4 DUP1 CALLDATASIZE SUB DUP2 ADD SWAP1 PUSH2 0x19B SWAP2 SWAP1 PUSH2 0x52E JUMP JUMPDEST PUSH2 0x3A3 JUMP JUMPDEST PUSH1 0x40 MLOAD PUSH2 0x1AD SWAP2 SWAP1 PUSH2 0x4E7 JUMP JUMPDEST PUSH1 0x40 MLOAD DUP1 SWAP2 SUB SWAP1 RETURN JUMPDEST PUSH2 0x1BE PUSH2 0x3C3 JUMP JUMPDEST PUSH1 0x40 MLOAD PUSH2 0x1CC SWAP3 SWAP2 SWAP1 PUSH2 0x5FE JUMP JUMPDEST PUSH1 0x40 MLOAD DUP1 SWAP2 SUB SWAP1 RETURN JUMPDEST PUSH2 0x1EF PUSH1 0x4 DUP1 CALLDATASIZE SUB DUP2 ADD SWAP1 PUSH2 0x1EA SWAP2 SWAP1 PUSH2 0x52E JUMP JUMPDEST PUSH2 0x414 JUMP JUMPDEST PUSH1 0x40 MLOAD PUSH2 0x1FC SWAP2 SWAP1 PUSH2 0x4E7 JUMP JUMPDEST PUSH1 0x40 MLOAD DUP1 SWAP2 SUB SWAP1 RETURN JUMPDEST PUSH2 0x21F PUSH1 0x4 DUP1 CALLDATASIZE SUB DUP2 ADD SWAP1 PUSH2 0x21A SWAP2 SWAP1 PUSH2 0x52E JUMP JUMPDEST PUSH2 0x434 JUMP JUMPDEST PUSH1 0x40 MLOAD PUSH2 0x22C SWAP2 SWAP1 PUSH2 0x4E7 JUMP JUMPDEST PUSH1 0x40 MLOAD DUP1 SWAP2 SUB SWAP1 RETURN JUMPDEST PUSH2 0x23D PUSH2 0x44D JUMP JUMPDEST PUSH1 0x40 MLOAD PUSH2 0x24B SWAP3 SWAP2 SWAP1 PUSH2 0x6B6 JUMP JUMPDEST PUSH1 0x40 MLOAD DUP1 SWAP2 SUB SWAP1 RETURN JUMPDEST PUSH0 SLOAD DUP2 JUMP JUMPDEST PUSH1 0x4 DUP2 PUSH1 0x3 DUP2 LT PUSH2 0x268 JUMPI PUSH0 DUP1 REVERT JUMPDEST ADD PUSH0 SWAP2 POP SWAP1 POP SLOAD DUP2 JUMP JUMPDEST PUSH2 0x27A PUSH2 0x4AD JUMP JUMPDEST PUSH0 PUSH1 0x7 PUSH1 0x3 DUP1 PUSH1 0x20 MUL PUSH1 0x40 MLOAD SWAP1 DUP2 ADD PUSH1 0x40 MSTORE DUP1 SWAP3 SWAP2 SWAP1 DUP3 PUSH1 0x3 DUP1 ISZERO PUSH2 0x2B4 JUMPI PUSH1 0x20 MUL DUP3 ADD SWAP2 JUMPDEST DUP2 SLOAD DUP2 MSTORE PUSH1 0x20 ADD SWAP1 PUSH1 0x1 ADD SWAP1 DUP1 DUP4 GT PUSH2 0x2A0 JUMPI JUMPDEST POP POP POP POP POP SWAP2 POP PUSH1 0x3 SWAP1 POP SWAP1 SWAP2 JUMP JUMPDEST PUSH1 0x1 DUP2 DUP2 SLOAD DUP2 LT PUSH2 0x2D2 JUMPI PUSH0 DUP1 REVERT JUMPDEST SWAP1 PUSH0 MSTORE PUSH1 0x20 PUSH0 KECCAK256 ADD PUSH0 SWAP2 POP SWAP1 POP SLOAD DUP2 JUMP JUMPDEST PUSH1 0x60 PUSH0 PUSH1 0x1 DUP1 SLOAD DUP1 PUSH1 0x20 MUL PUSH1 0x20 ADD PUSH1 0x40 MLOAD SWAP1 DUP2 ADD PUSH1 0x40 MSTORE DUP1 SWAP3 SWAP2 SWAP1 DUP2 DUP2 MSTORE PUSH1 0x20 ADD DUP3 DUP1 SLOAD DUP1 ISZERO PUSH2 0x330 JUMPI PUSH1 0x20 MUL DUP3 ADD SWAP2 SWAP1 PUSH0 MSTORE PUSH1 0x20 PUSH0 KECCAK256 SWAP1 JUMPDEST DUP2 SLOAD DUP2 MSTORE PUSH1 0x20 ADD SWAP1 PUSH1 0x1 ADD SWAP1 DUP1 DUP4 GT PUSH2 0x31C JUMPI JUMPDEST POP POP POP POP POP SWAP2 POP PUSH1 0x1 DUP1 SLOAD SWAP1 POP SWAP1 POP SWAP1 SWAP2 JUMP JUMPDEST PUSH1 0x60 PUSH0 PUSH1 0x3 DUP1 SLOAD DUP1 PUSH1 0x20 MUL PUSH1 0x20 ADD PUSH1 0x40 MLOAD SWAP1 DUP2 ADD PUSH1 0x40 MSTORE DUP1 SWAP3 SWAP2 SWAP1 DUP2 DUP2 MSTORE PUSH1 0x20 ADD DUP3 DUP1 SLOAD DUP1 ISZERO PUSH2 0x390 JUMPI PUSH1 0x20 MUL DUP3 ADD SWAP2 SWAP1 PUSH0 MSTORE PUSH1 0x20 PUSH0 KECCAK256 SWAP1 JUMPDEST DUP2 SLOAD DUP2 MSTORE PUSH1 0x20 ADD SWAP1 PUSH1 0x1 ADD SWAP1 DUP1 DUP4 GT PUSH2 0x37C JUMPI JUMPDEST POP POP POP POP POP SWAP2 POP PUSH1 0x3 DUP1 SLOAD SWAP1 POP SWAP1 POP SWAP1 SWAP2 JUMP JUMPDEST PUSH1 0x3 DUP2 DUP2 SLOAD DUP2 LT PUSH2 0x3B2 JUMPI PUSH0 DUP1 REVERT JUMPDEST SWAP1 PUSH0 MSTORE PUSH1 0x20 PUSH0 KECCAK256 ADD PUSH0 SWAP2 POP SWAP1 POP SLOAD DUP2 JUMP JUMPDEST PUSH2 0x3CB PUSH2 0x4AD JUMP JUMPDEST PUSH0 PUSH1 0x4 PUSH1 0x3 DUP1 PUSH1 0x20 MUL PUSH1 0x40 MLOAD SWAP1 DUP2 ADD PUSH1 0x40 MSTORE DUP1 SWAP3 SWAP2 SWAP1 DUP3 PUSH1 0x3 DUP1 ISZERO PUSH2 0x405 JUMPI PUSH1 0x20 MUL DUP3 ADD SWAP2 JUMPDEST DUP2 SLOAD DUP2 MSTORE PUSH1 0x20 ADD SWAP1 PUSH1 0x1 ADD SWAP1 DUP1 DUP4 GT PUSH2 0x3F1 JUMPI JUMPDEST POP POP POP POP POP SWAP2 POP PUSH1 0x3 SWAP1 POP SWAP1 SWAP2 JUMP JUMPDEST PUSH1 0x2 DUP2 DUP2 SLOAD DUP2 LT PUSH2 0x423 JUMPI PUSH0 DUP1 REVERT JUMPDEST SWAP1 PUSH0 MSTORE PUSH1 0x20 PUSH0 KECCAK256 ADD PUSH0 SWAP2 POP SWAP1 POP SLOAD DUP2 JUMP JUMPDEST PUSH1 0x7 DUP2 PUSH1 0x3 DUP2 LT PUSH2 0x443 JUMPI PUSH0 DUP1 REVERT JUMPDEST ADD PUSH0 SWAP2 POP SWAP1 POP SLOAD DUP2 JUMP JUMPDEST PUSH1 0x60 PUSH0 PUSH1 0x2 DUP1 SLOAD DUP1 PUSH1 0x20 MUL PUSH1 0x20 ADD PUSH1 0x40 MLOAD SWAP1 DUP2 ADD PUSH1 0x40 MSTORE DUP1 SWAP3 SWAP2 SWAP1 DUP2 DUP2 MSTORE PUSH1 0x20 ADD DUP3 DUP1 SLOAD DUP1 ISZERO PUSH2 0x49A JUMPI PUSH1 0x20 MUL DUP3 ADD SWAP2 SWAP1 PUSH0 MSTORE PUSH1 0x20 PUSH0 KECCAK256 SWAP1 JUMPDEST DUP2 SLOAD DUP2 MSTORE PUSH1 0x20 ADD SWAP1 PUSH1 0x1 ADD SWAP1 DUP1 DUP4 GT PUSH2 0x486 JUMPI JUMPDEST POP POP POP POP POP SWAP2 POP PUSH1 0x2 DUP1 SLOAD SWAP1 POP SWAP1 POP SWAP1 SWAP2 JUMP JUMPDEST PUSH1 0x40 MLOAD DUP1 PUSH1 0x60 ADD PUSH1 0x40 MSTORE DUP1 PUSH1 0x3 SWAP1 PUSH1 0x20 DUP3 MUL DUP1 CALLDATASIZE DUP4 CALLDATACOPY DUP1 DUP3 ADD SWAP2 POP POP SWAP1 POP POP SWAP1 JUMP JUMPDEST PUSH0 DUP2 SWAP1 POP SWAP2 SWAP1 POP JUMP JUMPDEST PUSH2 0x4E1 DUP2 PUSH2 0x4CF JUMP JUMPDEST DUP3 MSTORE POP POP JUMP JUMPDEST PUSH0 PUSH1 0x20 DUP3 ADD SWAP1 POP PUSH2 0x4FA PUSH0 DUP4 ADD DUP5 PUSH2 0x4D8 JUMP JUMPDEST SWAP3 SWAP2 POP POP JUMP JUMPDEST PUSH0 PUSH0 REVERT JUMPDEST PUSH2 0x50D DUP2 PUSH2 0x4CF JUMP JUMPDEST DUP2 EQ PUSH2 0x517 JUMPI PUSH0 PUSH0 REVERT JUMPDEST POP JUMP JUMPDEST PUSH0 DUP2 CALLDATALOAD SWAP1 POP PUSH2 0x528 DUP2 PUSH2 0x504 JUMP JUMPDEST SWAP3 SWAP2 POP POP JUMP JUMPDEST PUSH0 PUSH1 0x20 DUP3 DUP5 SUB SLT ISZERO PUSH2 0x543 JUMPI PUSH2 0x542 PUSH2 0x500 JUMP JUMPDEST JUMPDEST PUSH0 PUSH2 0x550 DUP5 DUP3 DUP6 ADD PUSH2 0x51A JUMP JUMPDEST SWAP2 POP POP SWAP3 SWAP2 POP POP JUMP JUMPDEST PUSH0 PUSH1 0x3 SWAP1 POP SWAP2 SWAP1 POP JUMP JUMPDEST PUSH0 DUP2 SWAP1 POP SWAP3 SWAP2 POP POP JUMP JUMPDEST PUSH0 DUP2 SWAP1 POP SWAP2 SWAP1 POP JUMP JUMPDEST PUSH2 0x57F DUP2 PUSH2 0x4CF JUMP JUMPDEST DUP3 MSTORE POP POP JUMP JUMPDEST PUSH0 PUSH2 0x590 DUP4 DUP4 PUSH2 0x576 JUMP JUMPDEST PUSH1 0x20 DUP4 ADD SWAP1 POP SWAP3 SWAP2 POP POP JUMP JUMPDEST PUSH0 PUSH1 0x20 DUP3 ADD SWAP1 POP SWAP2 SWAP1 POP JUMP JUMPDEST PUSH2 0x5B1 DUP2 PUSH2 0x559 JUMP JUMPDEST PUSH2 0x5BB DUP2 DUP5 PUSH2 0x563 JUMP JUMPDEST SWAP3 POP PUSH2 0x5C6 DUP3 PUSH2 0x56D JUMP JUMPDEST DUP1 PUSH0 JUMPDEST DUP4 DUP2 LT ISZERO PUSH2 0x5F6 JUMPI DUP2 MLOAD PUSH2 0x5DD DUP8 DUP3 PUSH2 0x585 JUMP JUMPDEST SWAP7 POP PUSH2 0x5E8 DUP4 PUSH2 0x59C JUMP JUMPDEST SWAP3 POP POP PUSH1 0x1 DUP2 ADD SWAP1 POP PUSH2 0x5C9 JUMP JUMPDEST POP POP POP POP POP POP JUMP JUMPDEST PUSH0 PUSH1 0x80 DUP3 ADD SWAP1 POP PUSH2 0x611 PUSH0 DUP4 ADD DUP6 PUSH2 0x5A8 JUMP JUMPDEST PUSH2 0x61E PUSH1 0x60 DUP4 ADD DUP5 PUSH2 0x4D8 JUMP JUMPDEST SWAP4 SWAP3 POP POP POP JUMP JUMPDEST PUSH0 DUP2 MLOAD SWAP1 POP SWAP2 SWAP1 POP JUMP JUMPDEST PUSH0 DUP3 DUP3 MSTORE PUSH1 0x20 DUP3 ADD SWAP1 POP SWAP3 SWAP2 POP POP JUMP JUMPDEST PUSH0 DUP2 SWAP1 POP PUSH1 0x20 DUP3 ADD SWAP1 POP SWAP2 SWAP1 POP JUMP JUMPDEST PUSH0 PUSH1 0x20 DUP3 ADD SWAP1 POP SWAP2 SWAP1 POP JUMP JUMPDEST PUSH0 PUSH2 0x664 DUP3 PUSH2 0x625 JUMP JUMPDEST PUSH2 0x66E DUP2 DUP6 PUSH2 0x62F JUMP JUMPDEST SWAP4 POP PUSH2 0x679 DUP4 PUSH2 0x63F JUMP JUMPDEST DUP1 PUSH0 JUMPDEST DUP4 DUP2 LT ISZERO PUSH2 0x6A9 JUMPI DUP2 MLOAD PUSH2 0x690 DUP9 DUP3 PUSH2 0x585 JUMP JUMPDEST SWAP8 POP PUSH2 0x69B DUP4 PUSH2 0x64E JUMP JUMPDEST SWAP3 POP POP PUSH1 0x1 DUP2 ADD SWAP1 POP PUSH2 0x67C JUMP JUMPDEST POP DUP6 SWAP4 POP POP POP POP SWAP3 SWAP2 POP POP JUMP JUMPDEST PUSH0 PUSH1 0x40 DUP3 ADD SWAP1 POP DUP2 DUP2 SUB PUSH0 DUP4 ADD MSTORE PUSH2 0x6CE DUP2 DUP6 PUSH2 0x65A JUMP JUMPDEST SWAP1 POP PUSH2 0x6DD PUSH1 0x20 DUP4 ADD DUP5 PUSH2 0x4D8 JUMP JUMPDEST SWAP4 SWAP3 POP POP POP JUMP INVALID LOG2 PUSH5 0x6970667358 0x22 SLT KECCAK256 EXP 0x29 SWAP8 ORIGIN DUP10 0x28 DUP3 0xBB XOR 0xF7 0xA9 CALL SWAP15 SWAP11 0xAE 0xD5 INVALID 0x2C LOG2 0xF 0xEA 0x26 RJUMPI 0x73F5 PUSH29 0xB3E0C687DE5E64736F6C634300081E0033000000000000000000000000 "
				},
				"gasEstimates": {
					"creation": {
						"codeDepositCost": "363600",
						"executionCost": "infinite",
						"totalCost": "infinite"
					},
					"external": {
						"a()": "2425",
						"arr(uint256)": "infinite",
						"arr2(uint256)": "infinite",
						"arr3(uint256)": "infinite",
						"readArr()": "infinite",
						"readArr2()": "infinite",
						"readArr3()": "infinite",
						"readStaticArr()": "infinite",
						"readStaticArr1()": "infinite",
						"staticArr(uint256)": "infinite",
						"staticArr1(uint256)": "infinite"
					}
				},
				"methodIdentifiers": {
					"a()": "0dbe671f",
					"arr(uint256)": "71e5ee5f",
					"arr2(uint256)": "edf0099b",
					"arr3(uint256)": "8732ded8",
					"readArr()": "7521ace0",
					"readArr2()": "f9437098",
					"readArr3()": "7b554892",
					"readStaticArr()": "a542a833",
					"readStaticArr1()": "603bb1c8",
					"staticArr(uint256)": "41232fc9",
					"staticArr1(uint256)": "f0640cef"
				}
			},
			"storageLayout": {
				"storage": [
					{
						"astId": 4,
						"contract": "array.sol:ArrayContract",
						"label": "a",
						"offset": 0,
						"slot": "0",
						"type": "t_uint256"
					},
					{
						"astId": 7,
						"contract": "array.sol:ArrayContract",
						"label": "arr",
						"offset": 0,
						"slot": "1",
						"type": "t_array(t_uint256)dyn_storage"
					},
					{
						"astId": 14,
						"contract": "array.sol:ArrayContract",
						"label": "arr2",
						"offset": 0,
						"slot": "2",
						"type": "t_array(t_uint256)dyn_storage"
					},
					{
						"astId": 22,
						"contract": "array.sol:ArrayContract",
						"label": "arr3",
						"offset": 0,
						"slot": "3",
						"type": "t_array(t_uint256)dyn_storage"
					},
					{
						"astId": 26,
						"contract": "array.sol:ArrayContract",
						"label": "staticArr",
						"offset": 0,
						"slot": "4",
						"type": "t_array(t_uint256)3_storage"
					},
					{
						"astId": 34,
						"contract": "array.sol:ArrayContract",
						"label": "staticArr1",
						"offset": 0,
						"slot": "7",
						"type": "t_array(t_uint256)3_storage"
					}
				],
				"types": {
					"t_array(t_uint256)3_storage": {
						"base": "t_uint256",
						"encoding": "inplace",
						"label": "uint256[3]",
						"numberOfBytes": "96"
					},
					"t_array(t_uint256)dyn_storage": {
						"base": "t_uint256",
						"encoding": "dynamic_array",
						"label": "uint256[]",
						"numberOfBytes": "32"
					},
					"t_uint256": {
						"encoding": "inplace",
						"label": "uint256",
						"numberOfBytes": "32"
					}
				}
			},
			"userdoc": {
				"kind": "user",
				"methods": {},
				"version": 1
			}
		}
	}
}