{
	"1.sol": {
		"ExampleContract": {
			"abi": [
				{
					"inputs": [],
					"stateMutability": "nonpayable",
					"type": "constructor"
				},
				{
					"inputs": [],
					"name": "CONSTANT_VAR",
					"outputs": [
						{
							"internalType": "uint256",
							"name": "",
							"type": "uint256"
						}
					],
					"stateMutability": "view",
					"type": "function"
				},
				{
					"inputs": [],
					"name": "IMMUTABLE_VAR",
					"outputs": [
						{
							"internalType": "uint256",
							"name": "",
							"type": "uint256"
						}
					],
					"stateMutability": "view",
					"type": "function"
				},
				{
					"inputs": [
						{
							"internalType": "address",
							"name": "",
							"type": "address"
						}
					],
					"name": "balances",
					"outputs": [
						{
							"internalType": "uint256",
							"name": "",
							"type": "uint256"
						}
					],
					"stateMutability": "view",
					"type": "function"
				},
				{
					"inputs": [
						{
							"components": [
								{
									"internalType": "uint256",
									"name": "value",
									"type": "uint256"
								},
								{
									"internalType": "string",
									"name": "name",
									"type": "string"
								}
							],
							"internalType": "struct ExampleContract.TempStruct",
							"name": "ts",
							"type": "tuple"
						}
					],
					"name": "calldataTempStruct",
					"outputs": [
						{
							"components": [
								{
									"internalType": "uint256",
									"name": "value",
									"type": "uint256"
								},
								{
									"internalType": "string",
									"name": "name",
									"type": "string"
								}
							],
							"internalType": "struct ExampleContract.TempStruct",
							"name": "",
							"type": "tuple"
						}
					],
					"stateMutability": "view",
					"type": "function"
				},
				{
					"inputs": [],
					"name": "clainVar",
					"outputs": [
						{
							"internalType": "uint256",
							"name": "",
							"type": "uint256"
						}
					],
					"stateMutability": "view",
					"type": "function"
				},
				{
					"inputs": [
						{
							"internalType": "string",
							"name": "name1",
							"type": "string"
						},
						{
							"internalType": "uint256",
							"name": "val",
							"type": "uint256"
						}
					],
					"name": "memoryTempStruct",
					"outputs": [
						{
							"components": [
								{
									"internalType": "uint256",
									"name": "value",
									"type": "uint256"
								},
								{
									"internalType": "string",
									"name": "name",
									"type": "string"
								}
							],
							"internalType": "struct ExampleContract.TempStruct",
							"name": "",
							"type": "tuple"
						}
					],
					"stateMutability": "view",
					"type": "function"
				},
				{
					"inputs": [
						{
							"internalType": "uint256",
							"name": "x",
							"type": "uint256"
						}
					],
					"name": "pureFunction",
					"outputs": [
						{
							"internalType": "uint256",
							"name": "",
							"type": "uint256"
						}
					],
					"stateMutability": "pure",
					"type": "function"
				},
				{
					"inputs": [
						{
							"internalType": "uint256[]",
							"name": "inputArray",
							"type": "uint256[]"
						}
					],
					"name": "referenceExample",
					"outputs": [],
					"stateMutability": "nonpayable",
					"type": "function"
				},
				{
					"inputs": [],
					"name": "stateVar",
					"outputs": [
						{
							"internalType": "uint256",
							"name": "",
							"type": "uint256"
						}
					],
					"stateMutability": "view",
					"type": "function"
				},
				{
					"inputs": [],
					"name": "viewFunction",
					"outputs": [
						{
							"internalType": "uint256",
							"name": "",
							"type": "uint256"
						}
					],
					"stateMutability": "view",
					"type": "function"
				}
			],
			"devdoc": {
				"kind": "dev",
				"methods": {},
				"version": 1
			},
			"evm": {
				"assembly": "    /* \"1.sol\":57:1466  contract ExampleContract {... */\n  mstore(0x40, 0xa0)\n    /* \"1.sol\":114:117  100 */\n  0x64\n    /* \"1.sol\":88:117  uint256 public stateVar = 100 */\n  0x00\n  sstore\n    /* \"1.sol\":352:402  constructor() {... */\n  callvalue\n  dup1\n  iszero\n  tag_1\n  jumpi\n  revert(0x00, 0x00)\ntag_1:\n  pop\n    /* \"1.sol\":392:395  500 */\n  0x01f4\n    /* \"1.sol\":376:395  IMMUTABLE_VAR = 500 */\n  0x80\n  dup2\n  dup2\n  mstore\n  pop\n  pop\n    /* \"1.sol\":57:1466  contract ExampleContract {... */\n  mload(0x80)\n  codecopy(0x00, dataOffset(sub_0), dataSize(sub_0))\n  0x00\n  assignImmutable(\"0x277ab82e5a4641341820a4a2933a62c1de997e42e92548657ae21b3728d580fe\")\n  return(0x00, dataSize(sub_0))\nstop\n\nsub_0: assembly {\n        /* \"1.sol\":57:1466  contract ExampleContract {... */\n      mstore(0x40, 0x80)\n      callvalue\n      dup1\n      iszero\n      tag_1\n      jumpi\n      revert(0x00, 0x00)\n    tag_1:\n      pop\n      jumpi(tag_2, lt(calldatasize, 0x04))\n      shr(0xe0, calldataload(0x00))\n      dup1\n      0x91644803\n      gt\n      tag_13\n      jumpi\n      dup1\n      0x91644803\n      eq\n      tag_8\n      jumpi\n      dup1\n      0x9570264f\n      eq\n      tag_9\n      jumpi\n      dup1\n      0x9b05bf81\n      eq\n      tag_10\n      jumpi\n      dup1\n      0xb9c03b9a\n      eq\n      tag_11\n      jumpi\n      dup1\n      0xed36b3d8\n      eq\n      tag_12\n      jumpi\n      jump(tag_2)\n    tag_13:\n      dup1\n      0x27e235e3\n      eq\n      tag_3\n      jumpi\n      dup1\n      0x507aab7f\n      eq\n      tag_4\n      jumpi\n      dup1\n      0x793816ec\n      eq\n      tag_5\n      jumpi\n      dup1\n      0x9080b79b\n      eq\n      tag_6\n      jumpi\n      dup1\n      0x90ca396a\n      eq\n      tag_7\n      jumpi\n    tag_2:\n      revert(0x00, 0x00)\n        /* \"1.sol\":123:166  mapping(address => uint256) public balances */\n    tag_3:\n      tag_14\n      0x04\n      dup1\n      calldatasize\n      sub\n      dup2\n      add\n      swap1\n      tag_15\n      swap2\n      swap1\n      tag_16\n      jump\t// in\n    tag_15:\n      tag_17\n      jump\t// in\n    tag_14:\n      mload(0x40)\n      tag_18\n      swap2\n      swap1\n      tag_19\n      jump\t// in\n    tag_18:\n      mload(0x40)\n      dup1\n      swap2\n      sub\n      swap1\n      return\n        /* \"1.sol\":257:300  uint256 public constant CONSTANT_VAR = 1000 */\n    tag_4:\n      tag_20\n      tag_21\n      jump\t// in\n    tag_20:\n      mload(0x40)\n      tag_22\n      swap2\n      swap1\n      tag_19\n      jump\t// in\n    tag_22:\n      mload(0x40)\n      dup1\n      swap2\n      sub\n      swap1\n      return\n        /* \"1.sol\":88:117  uint256 public stateVar = 100 */\n    tag_5:\n      tag_23\n      tag_24\n      jump\t// in\n    tag_23:\n      mload(0x40)\n      tag_25\n      swap2\n      swap1\n      tag_19\n      jump\t// in\n    tag_25:\n      mload(0x40)\n      dup1\n      swap2\n      sub\n      swap1\n      return\n        /* \"1.sol\":754:909  function referenceExample(uint256[] memory inputArray) public {... */\n    tag_6:\n      tag_26\n      0x04\n      dup1\n      calldatasize\n      sub\n      dup2\n      add\n      swap1\n      tag_27\n      swap2\n      swap1\n      tag_28\n      jump\t// in\n    tag_27:\n      tag_29\n      jump\t// in\n    tag_26:\n      stop\n        /* \"1.sol\":915:1132  function memoryTempStruct(... */\n    tag_7:\n      tag_30\n      0x04\n      dup1\n      calldatasize\n      sub\n      dup2\n      add\n      swap1\n      tag_31\n      swap2\n      swap1\n      tag_32\n      jump\t// in\n    tag_31:\n      tag_33\n      jump\t// in\n    tag_30:\n      mload(0x40)\n      tag_34\n      swap2\n      swap1\n      tag_35\n      jump\t// in\n    tag_34:\n      mload(0x40)\n      dup1\n      swap2\n      sub\n      swap1\n      return\n        /* \"1.sol\":1138:1338  function calldataTempStruct(... */\n    tag_8:\n      tag_36\n      0x04\n      dup1\n      calldatasize\n      sub\n      dup2\n      add\n      swap1\n      tag_37\n      swap2\n      swap1\n      tag_38\n      jump\t// in\n    tag_37:\n      tag_39\n      jump\t// in\n    tag_36:\n      mload(0x40)\n      tag_40\n      swap2\n      swap1\n      tag_35\n      jump\t// in\n    tag_40:\n      mload(0x40)\n      dup1\n      swap2\n      sub\n      swap1\n      return\n        /* \"1.sol\":483:535  function clainVar() public view returns (uint256) {} */\n    tag_9:\n      tag_41\n      tag_42\n      jump\t// in\n    tag_41:\n      mload(0x40)\n      tag_43\n      swap2\n      swap1\n      tag_19\n      jump\t// in\n    tag_43:\n      mload(0x40)\n      dup1\n      swap2\n      sub\n      swap1\n      return\n        /* \"1.sol\":307:345  uint256 public immutable IMMUTABLE_VAR */\n    tag_10:\n      tag_44\n      tag_45\n      jump\t// in\n    tag_44:\n      mload(0x40)\n      tag_46\n      swap2\n      swap1\n      tag_19\n      jump\t// in\n    tag_46:\n      mload(0x40)\n      dup1\n      swap2\n      sub\n      swap1\n      return\n        /* \"1.sol\":541:656  function pureFunction(uint256 x) public pure returns (uint256) {... */\n    tag_11:\n      tag_47\n      0x04\n      dup1\n      calldatasize\n      sub\n      dup2\n      add\n      swap1\n      tag_48\n      swap2\n      swap1\n      tag_49\n      jump\t// in\n    tag_48:\n      tag_50\n      jump\t// in\n    tag_47:\n      mload(0x40)\n      tag_51\n      swap2\n      swap1\n      tag_19\n      jump\t// in\n    tag_51:\n      mload(0x40)\n      dup1\n      swap2\n      sub\n      swap1\n      return\n        /* \"1.sol\":662:748  function viewFunction() public view returns (uint256) {... */\n    tag_12:\n      tag_52\n      tag_53\n      jump\t// in\n    tag_52:\n      mload(0x40)\n      tag_54\n      swap2\n      swap1\n      tag_19\n      jump\t// in\n    tag_54:\n      mload(0x40)\n      dup1\n      swap2\n      sub\n      swap1\n      return\n        /* \"1.sol\":123:166  mapping(address => uint256) public balances */\n    tag_17:\n      mstore(0x20, 0x01)\n      dup1\n      0x00\n      mstore\n      keccak256(0x00, 0x40)\n      0x00\n      swap2\n      pop\n      swap1\n      pop\n      sload\n      dup2\n      jump\t// out\n        /* \"1.sol\":257:300  uint256 public constant CONSTANT_VAR = 1000 */\n    tag_21:\n        /* \"1.sol\":296:300  1000 */\n      0x03e8\n        /* \"1.sol\":257:300  uint256 public constant CONSTANT_VAR = 1000 */\n      dup2\n      jump\t// out\n        /* \"1.sol\":88:117  uint256 public stateVar = 100 */\n    tag_24:\n      sload(0x00)\n      dup2\n      jump\t// out\n        /* \"1.sol\":754:909  function referenceExample(uint256[] memory inputArray) public {... */\n    tag_29:\n        /* \"1.sol\":826:853  uint256[] memory localArray */\n      0x00\n        /* \"1.sol\":856:866  inputArray */\n      dup2\n        /* \"1.sol\":826:866  uint256[] memory localArray = inputArray */\n      swap1\n      pop\n        /* \"1.sol\":876:892  someStorageArray */\n      0x02\n        /* \"1.sol\":898:901  100 */\n      0x64\n        /* \"1.sol\":876:902  someStorageArray.push(100) */\n      swap1\n      dup1\n      0x01\n      dup2\n      sload\n      add\n      dup1\n      dup3\n      sstore\n      dup1\n      swap2\n      pop\n      pop\n      0x01\n      swap1\n      sub\n      swap1\n      0x00\n      mstore\n      keccak256(0x00, 0x20)\n      add\n      0x00\n      swap1\n      swap2\n      swap1\n      swap2\n      swap1\n      swap2\n      pop\n      sstore\n        /* \"1.sol\":816:909  {... */\n      pop\n        /* \"1.sol\":754:909  function referenceExample(uint256[] memory inputArray) public {... */\n      pop\n      jump\t// out\n        /* \"1.sol\":915:1132  function memoryTempStruct(... */\n    tag_33:\n        /* \"1.sol\":1017:1034  TempStruct memory */\n      tag_57\n      tag_58\n      jump\t// in\n    tag_57:\n        /* \"1.sol\":1046:1066  TempStruct memory ts */\n      0x00\n        /* \"1.sol\":1069:1106  TempStruct({name: name1, value: val}) */\n      mload(0x40)\n      dup1\n      0x40\n      add\n      0x40\n      mstore\n      dup1\n        /* \"1.sol\":1101:1104  val */\n      dup5\n        /* \"1.sol\":1069:1106  TempStruct({name: name1, value: val}) */\n      dup2\n      mstore\n      0x20\n      add\n        /* \"1.sol\":1087:1092  name1 */\n      dup7\n      dup7\n        /* \"1.sol\":1069:1106  TempStruct({name: name1, value: val}) */\n      dup1\n      dup1\n      0x1f\n      add\n      0x20\n      dup1\n      swap2\n      div\n      mul\n      0x20\n      add\n      mload(0x40)\n      swap1\n      dup2\n      add\n      0x40\n      mstore\n      dup1\n      swap4\n      swap3\n      swap2\n      swap1\n      dup2\n      dup2\n      mstore\n      0x20\n      add\n      dup4\n      dup4\n      dup1\n      dup3\n      dup5\n      calldatacopy\n      0x00\n      dup2\n      dup5\n      add\n      mstore\n      not(0x1f)\n      0x1f\n      dup3\n      add\n      and\n      swap1\n      pop\n      dup1\n      dup4\n      add\n      swap3\n      pop\n      pop\n      pop\n      pop\n      pop\n      pop\n      pop\n      dup2\n      mstore\n      pop\n        /* \"1.sol\":1046:1106  TempStruct memory ts = TempStruct({name: name1, value: val}) */\n      swap1\n      pop\n        /* \"1.sol\":1123:1125  ts */\n      dup1\n        /* \"1.sol\":1116:1125  return ts */\n      swap2\n      pop\n      pop\n        /* \"1.sol\":915:1132  function memoryTempStruct(... */\n      swap4\n      swap3\n      pop\n      pop\n      pop\n      jump\t// out\n        /* \"1.sol\":1138:1338  function calldataTempStruct(... */\n    tag_39:\n        /* \"1.sol\":1227:1244  TempStruct memory */\n      tag_60\n      tag_58\n      jump\t// in\n    tag_60:\n        /* \"1.sol\":1256:1277  TempStruct memory ts2 */\n      0x00\n        /* \"1.sol\":1280:1282  ts */\n      dup3\n        /* \"1.sol\":1256:1282  TempStruct memory ts2 = ts */\n      tag_62\n      swap1\n      tag_63\n      jump\t// in\n    tag_62:\n      swap1\n      pop\n        /* \"1.sol\":1322:1331  _call(ts) */\n      tag_64\n        /* \"1.sol\":1328:1330  ts */\n      dup4\n        /* \"1.sol\":1322:1327  _call */\n      tag_65\n        /* \"1.sol\":1322:1331  _call(ts) */\n      jump\t// in\n    tag_64:\n        /* \"1.sol\":1315:1331  return _call(ts) */\n      swap2\n      pop\n      pop\n        /* \"1.sol\":1138:1338  function calldataTempStruct(... */\n      swap2\n      swap1\n      pop\n      jump\t// out\n        /* \"1.sol\":483:535  function clainVar() public view returns (uint256) {} */\n    tag_42:\n        /* \"1.sol\":524:531  uint256 */\n      0x00\n        /* \"1.sol\":483:535  function clainVar() public view returns (uint256) {} */\n      swap1\n      jump\t// out\n        /* \"1.sol\":307:345  uint256 public immutable IMMUTABLE_VAR */\n    tag_45:\n      immutable(\"0x277ab82e5a4641341820a4a2933a62c1de997e42e92548657ae21b3728d580fe\")\n      dup2\n      jump\t// out\n        /* \"1.sol\":541:656  function pureFunction(uint256 x) public pure returns (uint256) {... */\n    tag_50:\n        /* \"1.sol\":595:602  uint256 */\n      0x00\n        /* \"1.sol\":614:623  uint256 y */\n      0x00\n        /* \"1.sol\":630:631  2 */\n      0x02\n        /* \"1.sol\":626:627  x */\n      dup4\n        /* \"1.sol\":626:631  x * 2 */\n      tag_68\n      swap2\n      swap1\n      tag_69\n      jump\t// in\n    tag_68:\n        /* \"1.sol\":614:631  uint256 y = x * 2 */\n      swap1\n      pop\n        /* \"1.sol\":648:649  y */\n      dup1\n        /* \"1.sol\":641:649  return y */\n      swap2\n      pop\n      pop\n        /* \"1.sol\":541:656  function pureFunction(uint256 x) public pure returns (uint256) {... */\n      swap2\n      swap1\n      pop\n      jump\t// out\n        /* \"1.sol\":662:748  function viewFunction() public view returns (uint256) {... */\n    tag_53:\n        /* \"1.sol\":707:714  uint256 */\n      0x00\n        /* \"1.sol\":733:741  stateVar */\n      sload(0x00)\n        /* \"1.sol\":726:741  return stateVar */\n      swap1\n      pop\n        /* \"1.sol\":662:748  function viewFunction() public view returns (uint256) {... */\n      swap1\n      jump\t// out\n        /* \"1.sol\":1344:1464  function _call(... */\n    tag_65:\n        /* \"1.sol\":1419:1436  TempStruct memory */\n      tag_71\n      tag_58\n      jump\t// in\n    tag_71:\n        /* \"1.sol\":1455:1457  ts */\n      dup2\n        /* \"1.sol\":1448:1457  return ts */\n      tag_73\n      swap1\n      tag_63\n      jump\t// in\n    tag_73:\n      swap1\n      pop\n        /* \"1.sol\":1344:1464  function _call(... */\n      swap2\n      swap1\n      pop\n      jump\t// out\n    tag_58:\n      mload(0x40)\n      dup1\n      0x40\n      add\n      0x40\n      mstore\n      dup1\n      0x00\n      dup2\n      mstore\n      0x20\n      add\n      0x60\n      dup2\n      mstore\n      pop\n      swap1\n      jump\t// out\n        /* \"#utility.yul\":7:82   */\n    tag_74:\n        /* \"#utility.yul\":40:46   */\n      0x00\n        /* \"#utility.yul\":73:75   */\n      0x40\n        /* \"#utility.yul\":67:76   */\n      mload\n        /* \"#utility.yul\":57:76   */\n      swap1\n      pop\n        /* \"#utility.yul\":7:82   */\n      swap1\n      jump\t// out\n        /* \"#utility.yul\":88:205   */\n    tag_75:\n        /* \"#utility.yul\":197:198   */\n      0x00\n        /* \"#utility.yul\":194:195   */\n      0x00\n        /* \"#utility.yul\":187:199   */\n      revert\n        /* \"#utility.yul\":211:328   */\n    tag_76:\n        /* \"#utility.yul\":320:321   */\n      0x00\n        /* \"#utility.yul\":317:318   */\n      0x00\n        /* \"#utility.yul\":310:322   */\n      revert\n        /* \"#utility.yul\":334:460   */\n    tag_77:\n        /* \"#utility.yul\":371:378   */\n      0x00\n        /* \"#utility.yul\":411:453   */\n      0xffffffffffffffffffffffffffffffffffffffff\n        /* \"#utility.yul\":404:409   */\n      dup3\n        /* \"#utility.yul\":400:454   */\n      and\n        /* \"#utility.yul\":389:454   */\n      swap1\n      pop\n        /* \"#utility.yul\":334:460   */\n      swap2\n      swap1\n      pop\n      jump\t// out\n        /* \"#utility.yul\":466:562   */\n    tag_78:\n        /* \"#utility.yul\":503:510   */\n      0x00\n        /* \"#utility.yul\":532:556   */\n      tag_119\n        /* \"#utility.yul\":550:555   */\n      dup3\n        /* \"#utility.yul\":532:556   */\n      tag_77\n      jump\t// in\n    tag_119:\n        /* \"#utility.yul\":521:556   */\n      swap1\n      pop\n        /* \"#utility.yul\":466:562   */\n      swap2\n      swap1\n      pop\n      jump\t// out\n        /* \"#utility.yul\":568:690   */\n    tag_79:\n        /* \"#utility.yul\":641:665   */\n      tag_121\n        /* \"#utility.yul\":659:664   */\n      dup2\n        /* \"#utility.yul\":641:665   */\n      tag_78\n      jump\t// in\n    tag_121:\n        /* \"#utility.yul\":634:639   */\n      dup2\n        /* \"#utility.yul\":631:666   */\n      eq\n        /* \"#utility.yul\":621:684   */\n      tag_122\n      jumpi\n        /* \"#utility.yul\":680:681   */\n      0x00\n        /* \"#utility.yul\":677:678   */\n      0x00\n        /* \"#utility.yul\":670:682   */\n      revert\n        /* \"#utility.yul\":621:684   */\n    tag_122:\n        /* \"#utility.yul\":568:690   */\n      pop\n      jump\t// out\n        /* \"#utility.yul\":696:835   */\n    tag_80:\n        /* \"#utility.yul\":742:747   */\n      0x00\n        /* \"#utility.yul\":780:786   */\n      dup2\n        /* \"#utility.yul\":767:787   */\n      calldataload\n        /* \"#utility.yul\":758:787   */\n      swap1\n      pop\n        /* \"#utility.yul\":796:829   */\n      tag_124\n        /* \"#utility.yul\":823:828   */\n      dup2\n        /* \"#utility.yul\":796:829   */\n      tag_79\n      jump\t// in\n    tag_124:\n        /* \"#utility.yul\":696:835   */\n      swap3\n      swap2\n      pop\n      pop\n      jump\t// out\n        /* \"#utility.yul\":841:1170   */\n    tag_16:\n        /* \"#utility.yul\":900:906   */\n      0x00\n        /* \"#utility.yul\":949:951   */\n      0x20\n        /* \"#utility.yul\":937:946   */\n      dup3\n        /* \"#utility.yul\":928:935   */\n      dup5\n        /* \"#utility.yul\":924:947   */\n      sub\n        /* \"#utility.yul\":920:952   */\n      slt\n        /* \"#utility.yul\":917:1036   */\n      iszero\n      tag_126\n      jumpi\n        /* \"#utility.yul\":955:1034   */\n      tag_127\n      tag_75\n      jump\t// in\n    tag_127:\n        /* \"#utility.yul\":917:1036   */\n    tag_126:\n        /* \"#utility.yul\":1075:1076   */\n      0x00\n        /* \"#utility.yul\":1100:1153   */\n      tag_128\n        /* \"#utility.yul\":1145:1152   */\n      dup5\n        /* \"#utility.yul\":1136:1142   */\n      dup3\n        /* \"#utility.yul\":1125:1134   */\n      dup6\n        /* \"#utility.yul\":1121:1143   */\n      add\n        /* \"#utility.yul\":1100:1153   */\n      tag_80\n      jump\t// in\n    tag_128:\n        /* \"#utility.yul\":1090:1153   */\n      swap2\n      pop\n        /* \"#utility.yul\":1046:1163   */\n      pop\n        /* \"#utility.yul\":841:1170   */\n      swap3\n      swap2\n      pop\n      pop\n      jump\t// out\n        /* \"#utility.yul\":1176:1253   */\n    tag_81:\n        /* \"#utility.yul\":1213:1220   */\n      0x00\n        /* \"#utility.yul\":1242:1247   */\n      dup2\n        /* \"#utility.yul\":1231:1247   */\n      swap1\n      pop\n        /* \"#utility.yul\":1176:1253   */\n      swap2\n      swap1\n      pop\n      jump\t// out\n        /* \"#utility.yul\":1259:1377   */\n    tag_82:\n        /* \"#utility.yul\":1346:1370   */\n      tag_131\n        /* \"#utility.yul\":1364:1369   */\n      dup2\n        /* \"#utility.yul\":1346:1370   */\n      tag_81\n      jump\t// in\n    tag_131:\n        /* \"#utility.yul\":1341:1344   */\n      dup3\n        /* \"#utility.yul\":1334:1371   */\n      mstore\n        /* \"#utility.yul\":1259:1377   */\n      pop\n      pop\n      jump\t// out\n        /* \"#utility.yul\":1383:1605   */\n    tag_19:\n        /* \"#utility.yul\":1476:1480   */\n      0x00\n        /* \"#utility.yul\":1514:1516   */\n      0x20\n        /* \"#utility.yul\":1503:1512   */\n      dup3\n        /* \"#utility.yul\":1499:1517   */\n      add\n        /* \"#utility.yul\":1491:1517   */\n      swap1\n      pop\n        /* \"#utility.yul\":1527:1598   */\n      tag_133\n        /* \"#utility.yul\":1595:1596   */\n      0x00\n        /* \"#utility.yul\":1584:1593   */\n      dup4\n        /* \"#utility.yul\":1580:1597   */\n      add\n        /* \"#utility.yul\":1571:1577   */\n      dup5\n        /* \"#utility.yul\":1527:1598   */\n      tag_82\n      jump\t// in\n    tag_133:\n        /* \"#utility.yul\":1383:1605   */\n      swap3\n      swap2\n      pop\n      pop\n      jump\t// out\n        /* \"#utility.yul\":1611:1728   */\n    tag_83:\n        /* \"#utility.yul\":1720:1721   */\n      0x00\n        /* \"#utility.yul\":1717:1718   */\n      0x00\n        /* \"#utility.yul\":1710:1722   */\n      revert\n        /* \"#utility.yul\":1734:1836   */\n    tag_84:\n        /* \"#utility.yul\":1775:1781   */\n      0x00\n        /* \"#utility.yul\":1826:1828   */\n      0x1f\n        /* \"#utility.yul\":1822:1829   */\n      not\n        /* \"#utility.yul\":1817:1819   */\n      0x1f\n        /* \"#utility.yul\":1810:1815   */\n      dup4\n        /* \"#utility.yul\":1806:1820   */\n      add\n        /* \"#utility.yul\":1802:1830   */\n      and\n        /* \"#utility.yul\":1792:1830   */\n      swap1\n      pop\n        /* \"#utility.yul\":1734:1836   */\n      swap2\n      swap1\n      pop\n      jump\t// out\n        /* \"#utility.yul\":1842:2022   */\n    tag_85:\n        /* \"#utility.yul\":1890:1967   */\n      0x4e487b7100000000000000000000000000000000000000000000000000000000\n        /* \"#utility.yul\":1887:1888   */\n      0x00\n        /* \"#utility.yul\":1880:1968   */\n      mstore\n        /* \"#utility.yul\":1987:1991   */\n      0x41\n        /* \"#utility.yul\":1984:1985   */\n      0x04\n        /* \"#utility.yul\":1977:1992   */\n      mstore\n        /* \"#utility.yul\":2011:2015   */\n      0x24\n        /* \"#utility.yul\":2008:2009   */\n      0x00\n        /* \"#utility.yul\":2001:2016   */\n      revert\n        /* \"#utility.yul\":2028:2309   */\n    tag_86:\n        /* \"#utility.yul\":2111:2138   */\n      tag_138\n        /* \"#utility.yul\":2133:2137   */\n      dup3\n        /* \"#utility.yul\":2111:2138   */\n      tag_84\n      jump\t// in\n    tag_138:\n        /* \"#utility.yul\":2103:2109   */\n      dup2\n        /* \"#utility.yul\":2099:2139   */\n      add\n        /* \"#utility.yul\":2241:2247   */\n      dup2\n        /* \"#utility.yul\":2229:2239   */\n      dup2\n        /* \"#utility.yul\":2226:2248   */\n      lt\n        /* \"#utility.yul\":2205:2223   */\n      0xffffffffffffffff\n        /* \"#utility.yul\":2193:2203   */\n      dup3\n        /* \"#utility.yul\":2190:2224   */\n      gt\n        /* \"#utility.yul\":2187:2249   */\n      or\n        /* \"#utility.yul\":2184:2272   */\n      iszero\n      tag_139\n      jumpi\n        /* \"#utility.yul\":2252:2270   */\n      tag_140\n      tag_85\n      jump\t// in\n    tag_140:\n        /* \"#utility.yul\":2184:2272   */\n    tag_139:\n        /* \"#utility.yul\":2292:2302   */\n      dup1\n        /* \"#utility.yul\":2288:2290   */\n      0x40\n        /* \"#utility.yul\":2281:2303   */\n      mstore\n        /* \"#utility.yul\":2071:2309   */\n      pop\n        /* \"#utility.yul\":2028:2309   */\n      pop\n      pop\n      jump\t// out\n        /* \"#utility.yul\":2315:2444   */\n    tag_87:\n        /* \"#utility.yul\":2349:2355   */\n      0x00\n        /* \"#utility.yul\":2376:2396   */\n      tag_142\n      tag_74\n      jump\t// in\n    tag_142:\n        /* \"#utility.yul\":2366:2396   */\n      swap1\n      pop\n        /* \"#utility.yul\":2405:2438   */\n      tag_143\n        /* \"#utility.yul\":2433:2437   */\n      dup3\n        /* \"#utility.yul\":2425:2431   */\n      dup3\n        /* \"#utility.yul\":2405:2438   */\n      tag_86\n      jump\t// in\n    tag_143:\n        /* \"#utility.yul\":2315:2444   */\n      swap2\n      swap1\n      pop\n      jump\t// out\n        /* \"#utility.yul\":2450:2761   */\n    tag_88:\n        /* \"#utility.yul\":2527:2531   */\n      0x00\n        /* \"#utility.yul\":2617:2635   */\n      0xffffffffffffffff\n        /* \"#utility.yul\":2609:2615   */\n      dup3\n        /* \"#utility.yul\":2606:2636   */\n      gt\n        /* \"#utility.yul\":2603:2659   */\n      iszero\n      tag_145\n      jumpi\n        /* \"#utility.yul\":2639:2657   */\n      tag_146\n      tag_85\n      jump\t// in\n    tag_146:\n        /* \"#utility.yul\":2603:2659   */\n    tag_145:\n        /* \"#utility.yul\":2689:2693   */\n      0x20\n        /* \"#utility.yul\":2681:2687   */\n      dup3\n        /* \"#utility.yul\":2677:2694   */\n      mul\n        /* \"#utility.yul\":2669:2694   */\n      swap1\n      pop\n        /* \"#utility.yul\":2749:2753   */\n      0x20\n        /* \"#utility.yul\":2743:2747   */\n      dup2\n        /* \"#utility.yul\":2739:2754   */\n      add\n        /* \"#utility.yul\":2731:2754   */\n      swap1\n      pop\n        /* \"#utility.yul\":2450:2761   */\n      swap2\n      swap1\n      pop\n      jump\t// out\n        /* \"#utility.yul\":2767:2884   */\n    tag_89:\n        /* \"#utility.yul\":2876:2877   */\n      0x00\n        /* \"#utility.yul\":2873:2874   */\n      0x00\n        /* \"#utility.yul\":2866:2878   */\n      revert\n        /* \"#utility.yul\":2890:3012   */\n    tag_90:\n        /* \"#utility.yul\":2963:2987   */\n      tag_149\n        /* \"#utility.yul\":2981:2986   */\n      dup2\n        /* \"#utility.yul\":2963:2987   */\n      tag_81\n      jump\t// in\n    tag_149:\n        /* \"#utility.yul\":2956:2961   */\n      dup2\n        /* \"#utility.yul\":2953:2988   */\n      eq\n        /* \"#utility.yul\":2943:3006   */\n      tag_150\n      jumpi\n        /* \"#utility.yul\":3002:3003   */\n      0x00\n        /* \"#utility.yul\":2999:3000   */\n      0x00\n        /* \"#utility.yul\":2992:3004   */\n      revert\n        /* \"#utility.yul\":2943:3006   */\n    tag_150:\n        /* \"#utility.yul\":2890:3012   */\n      pop\n      jump\t// out\n        /* \"#utility.yul\":3018:3157   */\n    tag_91:\n        /* \"#utility.yul\":3064:3069   */\n      0x00\n        /* \"#utility.yul\":3102:3108   */\n      dup2\n        /* \"#utility.yul\":3089:3109   */\n      calldataload\n        /* \"#utility.yul\":3080:3109   */\n      swap1\n      pop\n        /* \"#utility.yul\":3118:3151   */\n      tag_152\n        /* \"#utility.yul\":3145:3150   */\n      dup2\n        /* \"#utility.yul\":3118:3151   */\n      tag_90\n      jump\t// in\n    tag_152:\n        /* \"#utility.yul\":3018:3157   */\n      swap3\n      swap2\n      pop\n      pop\n      jump\t// out\n        /* \"#utility.yul\":3180:3890   */\n    tag_92:\n        /* \"#utility.yul\":3276:3281   */\n      0x00\n        /* \"#utility.yul\":3301:3382   */\n      tag_154\n        /* \"#utility.yul\":3317:3381   */\n      tag_155\n        /* \"#utility.yul\":3374:3380   */\n      dup5\n        /* \"#utility.yul\":3317:3381   */\n      tag_88\n      jump\t// in\n    tag_155:\n        /* \"#utility.yul\":3301:3382   */\n      tag_87\n      jump\t// in\n    tag_154:\n        /* \"#utility.yul\":3292:3382   */\n      swap1\n      pop\n        /* \"#utility.yul\":3402:3407   */\n      dup1\n        /* \"#utility.yul\":3431:3437   */\n      dup4\n        /* \"#utility.yul\":3424:3429   */\n      dup3\n        /* \"#utility.yul\":3417:3438   */\n      mstore\n        /* \"#utility.yul\":3465:3469   */\n      0x20\n        /* \"#utility.yul\":3458:3463   */\n      dup3\n        /* \"#utility.yul\":3454:3470   */\n      add\n        /* \"#utility.yul\":3447:3470   */\n      swap1\n      pop\n        /* \"#utility.yul\":3518:3522   */\n      0x20\n        /* \"#utility.yul\":3510:3516   */\n      dup5\n        /* \"#utility.yul\":3506:3523   */\n      mul\n        /* \"#utility.yul\":3498:3504   */\n      dup4\n        /* \"#utility.yul\":3494:3524   */\n      add\n        /* \"#utility.yul\":3547:3550   */\n      dup6\n        /* \"#utility.yul\":3539:3545   */\n      dup2\n        /* \"#utility.yul\":3536:3551   */\n      gt\n        /* \"#utility.yul\":3533:3655   */\n      iszero\n      tag_156\n      jumpi\n        /* \"#utility.yul\":3566:3645   */\n      tag_157\n      tag_89\n      jump\t// in\n    tag_157:\n        /* \"#utility.yul\":3533:3655   */\n    tag_156:\n        /* \"#utility.yul\":3681:3687   */\n      dup4\n        /* \"#utility.yul\":3664:3884   */\n    tag_158:\n        /* \"#utility.yul\":3698:3704   */\n      dup2\n        /* \"#utility.yul\":3693:3696   */\n      dup2\n        /* \"#utility.yul\":3690:3705   */\n      lt\n        /* \"#utility.yul\":3664:3884   */\n      iszero\n      tag_160\n      jumpi\n        /* \"#utility.yul\":3773:3776   */\n      dup1\n        /* \"#utility.yul\":3802:3839   */\n      tag_161\n        /* \"#utility.yul\":3835:3838   */\n      dup9\n        /* \"#utility.yul\":3823:3833   */\n      dup3\n        /* \"#utility.yul\":3802:3839   */\n      tag_91\n      jump\t// in\n    tag_161:\n        /* \"#utility.yul\":3797:3800   */\n      dup5\n        /* \"#utility.yul\":3790:3840   */\n      mstore\n        /* \"#utility.yul\":3869:3873   */\n      0x20\n        /* \"#utility.yul\":3864:3867   */\n      dup5\n        /* \"#utility.yul\":3860:3874   */\n      add\n        /* \"#utility.yul\":3853:3874   */\n      swap4\n      pop\n        /* \"#utility.yul\":3740:3884   */\n      pop\n        /* \"#utility.yul\":3724:3728   */\n      0x20\n        /* \"#utility.yul\":3719:3722   */\n      dup2\n        /* \"#utility.yul\":3715:3729   */\n      add\n        /* \"#utility.yul\":3708:3729   */\n      swap1\n      pop\n        /* \"#utility.yul\":3664:3884   */\n      jump(tag_158)\n    tag_160:\n        /* \"#utility.yul\":3668:3689   */\n      pop\n        /* \"#utility.yul\":3282:3890   */\n      pop\n      pop\n        /* \"#utility.yul\":3180:3890   */\n      swap4\n      swap3\n      pop\n      pop\n      pop\n      jump\t// out\n        /* \"#utility.yul\":3913:4283   */\n    tag_93:\n        /* \"#utility.yul\":3984:3989   */\n      0x00\n        /* \"#utility.yul\":4033:4036   */\n      dup3\n        /* \"#utility.yul\":4026:4030   */\n      0x1f\n        /* \"#utility.yul\":4018:4024   */\n      dup4\n        /* \"#utility.yul\":4014:4031   */\n      add\n        /* \"#utility.yul\":4010:4037   */\n      slt\n        /* \"#utility.yul\":4000:4122   */\n      tag_163\n      jumpi\n        /* \"#utility.yul\":4041:4120   */\n      tag_164\n      tag_83\n      jump\t// in\n    tag_164:\n        /* \"#utility.yul\":4000:4122   */\n    tag_163:\n        /* \"#utility.yul\":4158:4164   */\n      dup2\n        /* \"#utility.yul\":4145:4165   */\n      calldataload\n        /* \"#utility.yul\":4183:4277   */\n      tag_165\n        /* \"#utility.yul\":4273:4276   */\n      dup5\n        /* \"#utility.yul\":4265:4271   */\n      dup3\n        /* \"#utility.yul\":4258:4262   */\n      0x20\n        /* \"#utility.yul\":4250:4256   */\n      dup7\n        /* \"#utility.yul\":4246:4263   */\n      add\n        /* \"#utility.yul\":4183:4277   */\n      tag_92\n      jump\t// in\n    tag_165:\n        /* \"#utility.yul\":4174:4277   */\n      swap2\n      pop\n        /* \"#utility.yul\":3990:4283   */\n      pop\n        /* \"#utility.yul\":3913:4283   */\n      swap3\n      swap2\n      pop\n      pop\n      jump\t// out\n        /* \"#utility.yul\":4289:4828   */\n    tag_28:\n        /* \"#utility.yul\":4373:4379   */\n      0x00\n        /* \"#utility.yul\":4422:4424   */\n      0x20\n        /* \"#utility.yul\":4410:4419   */\n      dup3\n        /* \"#utility.yul\":4401:4408   */\n      dup5\n        /* \"#utility.yul\":4397:4420   */\n      sub\n        /* \"#utility.yul\":4393:4425   */\n      slt\n        /* \"#utility.yul\":4390:4509   */\n      iszero\n      tag_167\n      jumpi\n        /* \"#utility.yul\":4428:4507   */\n      tag_168\n      tag_75\n      jump\t// in\n    tag_168:\n        /* \"#utility.yul\":4390:4509   */\n    tag_167:\n        /* \"#utility.yul\":4576:4577   */\n      0x00\n        /* \"#utility.yul\":4565:4574   */\n      dup3\n        /* \"#utility.yul\":4561:4578   */\n      add\n        /* \"#utility.yul\":4548:4579   */\n      calldataload\n        /* \"#utility.yul\":4606:4624   */\n      0xffffffffffffffff\n        /* \"#utility.yul\":4598:4604   */\n      dup2\n        /* \"#utility.yul\":4595:4625   */\n      gt\n        /* \"#utility.yul\":4592:4709   */\n      iszero\n      tag_169\n      jumpi\n        /* \"#utility.yul\":4628:4707   */\n      tag_170\n      tag_76\n      jump\t// in\n    tag_170:\n        /* \"#utility.yul\":4592:4709   */\n    tag_169:\n        /* \"#utility.yul\":4733:4811   */\n      tag_171\n        /* \"#utility.yul\":4803:4810   */\n      dup5\n        /* \"#utility.yul\":4794:4800   */\n      dup3\n        /* \"#utility.yul\":4783:4792   */\n      dup6\n        /* \"#utility.yul\":4779:4801   */\n      add\n        /* \"#utility.yul\":4733:4811   */\n      tag_93\n      jump\t// in\n    tag_171:\n        /* \"#utility.yul\":4723:4811   */\n      swap2\n      pop\n        /* \"#utility.yul\":4519:4821   */\n      pop\n        /* \"#utility.yul\":4289:4828   */\n      swap3\n      swap2\n      pop\n      pop\n      jump\t// out\n        /* \"#utility.yul\":4834:4951   */\n    tag_94:\n        /* \"#utility.yul\":4943:4944   */\n      0x00\n        /* \"#utility.yul\":4940:4941   */\n      0x00\n        /* \"#utility.yul\":4933:4945   */\n      revert\n        /* \"#utility.yul\":4971:5524   */\n    tag_95:\n        /* \"#utility.yul\":5029:5037   */\n      0x00\n        /* \"#utility.yul\":5039:5045   */\n      0x00\n        /* \"#utility.yul\":5089:5092   */\n      dup4\n        /* \"#utility.yul\":5082:5086   */\n      0x1f\n        /* \"#utility.yul\":5074:5080   */\n      dup5\n        /* \"#utility.yul\":5070:5087   */\n      add\n        /* \"#utility.yul\":5066:5093   */\n      slt\n        /* \"#utility.yul\":5056:5178   */\n      tag_174\n      jumpi\n        /* \"#utility.yul\":5097:5176   */\n      tag_175\n      tag_83\n      jump\t// in\n    tag_175:\n        /* \"#utility.yul\":5056:5178   */\n    tag_174:\n        /* \"#utility.yul\":5210:5216   */\n      dup3\n        /* \"#utility.yul\":5197:5217   */\n      calldataload\n        /* \"#utility.yul\":5187:5217   */\n      swap1\n      pop\n        /* \"#utility.yul\":5240:5258   */\n      0xffffffffffffffff\n        /* \"#utility.yul\":5232:5238   */\n      dup2\n        /* \"#utility.yul\":5229:5259   */\n      gt\n        /* \"#utility.yul\":5226:5343   */\n      iszero\n      tag_176\n      jumpi\n        /* \"#utility.yul\":5262:5341   */\n      tag_177\n      tag_94\n      jump\t// in\n    tag_177:\n        /* \"#utility.yul\":5226:5343   */\n    tag_176:\n        /* \"#utility.yul\":5376:5380   */\n      0x20\n        /* \"#utility.yul\":5368:5374   */\n      dup4\n        /* \"#utility.yul\":5364:5381   */\n      add\n        /* \"#utility.yul\":5352:5381   */\n      swap2\n      pop\n        /* \"#utility.yul\":5430:5433   */\n      dup4\n        /* \"#utility.yul\":5422:5426   */\n      0x01\n        /* \"#utility.yul\":5414:5420   */\n      dup3\n        /* \"#utility.yul\":5410:5427   */\n      mul\n        /* \"#utility.yul\":5400:5408   */\n      dup4\n        /* \"#utility.yul\":5396:5428   */\n      add\n        /* \"#utility.yul\":5393:5434   */\n      gt\n        /* \"#utility.yul\":5390:5518   */\n      iszero\n      tag_178\n      jumpi\n        /* \"#utility.yul\":5437:5516   */\n      tag_179\n      tag_89\n      jump\t// in\n    tag_179:\n        /* \"#utility.yul\":5390:5518   */\n    tag_178:\n        /* \"#utility.yul\":4971:5524   */\n      swap3\n      pop\n      swap3\n      swap1\n      pop\n      jump\t// out\n        /* \"#utility.yul\":5530:6204   */\n    tag_32:\n        /* \"#utility.yul\":5610:5616   */\n      0x00\n        /* \"#utility.yul\":5618:5624   */\n      0x00\n        /* \"#utility.yul\":5626:5632   */\n      0x00\n        /* \"#utility.yul\":5675:5677   */\n      0x40\n        /* \"#utility.yul\":5663:5672   */\n      dup5\n        /* \"#utility.yul\":5654:5661   */\n      dup7\n        /* \"#utility.yul\":5650:5673   */\n      sub\n        /* \"#utility.yul\":5646:5678   */\n      slt\n        /* \"#utility.yul\":5643:5762   */\n      iszero\n      tag_181\n      jumpi\n        /* \"#utility.yul\":5681:5760   */\n      tag_182\n      tag_75\n      jump\t// in\n    tag_182:\n        /* \"#utility.yul\":5643:5762   */\n    tag_181:\n        /* \"#utility.yul\":5829:5830   */\n      0x00\n        /* \"#utility.yul\":5818:5827   */\n      dup5\n        /* \"#utility.yul\":5814:5831   */\n      add\n        /* \"#utility.yul\":5801:5832   */\n      calldataload\n        /* \"#utility.yul\":5859:5877   */\n      0xffffffffffffffff\n        /* \"#utility.yul\":5851:5857   */\n      dup2\n        /* \"#utility.yul\":5848:5878   */\n      gt\n        /* \"#utility.yul\":5845:5962   */\n      iszero\n      tag_183\n      jumpi\n        /* \"#utility.yul\":5881:5960   */\n      tag_184\n      tag_76\n      jump\t// in\n    tag_184:\n        /* \"#utility.yul\":5845:5962   */\n    tag_183:\n        /* \"#utility.yul\":5994:6059   */\n      tag_185\n        /* \"#utility.yul\":6051:6058   */\n      dup7\n        /* \"#utility.yul\":6042:6048   */\n      dup3\n        /* \"#utility.yul\":6031:6040   */\n      dup8\n        /* \"#utility.yul\":6027:6049   */\n      add\n        /* \"#utility.yul\":5994:6059   */\n      tag_95\n      jump\t// in\n    tag_185:\n        /* \"#utility.yul\":5976:6059   */\n      swap4\n      pop\n      swap4\n      pop\n        /* \"#utility.yul\":5772:6069   */\n      pop\n        /* \"#utility.yul\":6108:6110   */\n      0x20\n        /* \"#utility.yul\":6134:6187   */\n      tag_186\n        /* \"#utility.yul\":6179:6186   */\n      dup7\n        /* \"#utility.yul\":6170:6176   */\n      dup3\n        /* \"#utility.yul\":6159:6168   */\n      dup8\n        /* \"#utility.yul\":6155:6177   */\n      add\n        /* \"#utility.yul\":6134:6187   */\n      tag_91\n      jump\t// in\n    tag_186:\n        /* \"#utility.yul\":6124:6187   */\n      swap2\n      pop\n        /* \"#utility.yul\":6079:6197   */\n      pop\n        /* \"#utility.yul\":5530:6204   */\n      swap3\n      pop\n      swap3\n      pop\n      swap3\n      jump\t// out\n        /* \"#utility.yul\":6210:6318   */\n    tag_96:\n        /* \"#utility.yul\":6287:6311   */\n      tag_188\n        /* \"#utility.yul\":6305:6310   */\n      dup2\n        /* \"#utility.yul\":6287:6311   */\n      tag_81\n      jump\t// in\n    tag_188:\n        /* \"#utility.yul\":6282:6285   */\n      dup3\n        /* \"#utility.yul\":6275:6312   */\n      mstore\n        /* \"#utility.yul\":6210:6318   */\n      pop\n      pop\n      jump\t// out\n        /* \"#utility.yul\":6324:6423   */\n    tag_97:\n        /* \"#utility.yul\":6376:6382   */\n      0x00\n        /* \"#utility.yul\":6410:6415   */\n      dup2\n        /* \"#utility.yul\":6404:6416   */\n      mload\n        /* \"#utility.yul\":6394:6416   */\n      swap1\n      pop\n        /* \"#utility.yul\":6324:6423   */\n      swap2\n      swap1\n      pop\n      jump\t// out\n        /* \"#utility.yul\":6429:6588   */\n    tag_98:\n        /* \"#utility.yul\":6503:6514   */\n      0x00\n        /* \"#utility.yul\":6537:6543   */\n      dup3\n        /* \"#utility.yul\":6532:6535   */\n      dup3\n        /* \"#utility.yul\":6525:6544   */\n      mstore\n        /* \"#utility.yul\":6577:6581   */\n      0x20\n        /* \"#utility.yul\":6572:6575   */\n      dup3\n        /* \"#utility.yul\":6568:6582   */\n      add\n        /* \"#utility.yul\":6553:6582   */\n      swap1\n      pop\n        /* \"#utility.yul\":6429:6588   */\n      swap3\n      swap2\n      pop\n      pop\n      jump\t// out\n        /* \"#utility.yul\":6594:6733   */\n    tag_99:\n        /* \"#utility.yul\":6683:6689   */\n      dup3\n        /* \"#utility.yul\":6678:6681   */\n      dup2\n        /* \"#utility.yul\":6673:6676   */\n      dup4\n        /* \"#utility.yul\":6667:6690   */\n      mcopy\n        /* \"#utility.yul\":6724:6725   */\n      0x00\n        /* \"#utility.yul\":6715:6721   */\n      dup4\n        /* \"#utility.yul\":6710:6713   */\n      dup4\n        /* \"#utility.yul\":6706:6722   */\n      add\n        /* \"#utility.yul\":6699:6726   */\n      mstore\n        /* \"#utility.yul\":6594:6733   */\n      pop\n      pop\n      pop\n      jump\t// out\n        /* \"#utility.yul\":6739:7096   */\n    tag_100:\n        /* \"#utility.yul\":6817:6820   */\n      0x00\n        /* \"#utility.yul\":6845:6884   */\n      tag_193\n        /* \"#utility.yul\":6878:6883   */\n      dup3\n        /* \"#utility.yul\":6845:6884   */\n      tag_97\n      jump\t// in\n    tag_193:\n        /* \"#utility.yul\":6900:6961   */\n      tag_194\n        /* \"#utility.yul\":6954:6960   */\n      dup2\n        /* \"#utility.yul\":6949:6952   */\n      dup6\n        /* \"#utility.yul\":6900:6961   */\n      tag_98\n      jump\t// in\n    tag_194:\n        /* \"#utility.yul\":6893:6961   */\n      swap4\n      pop\n        /* \"#utility.yul\":6970:7035   */\n      tag_195\n        /* \"#utility.yul\":7028:7034   */\n      dup2\n        /* \"#utility.yul\":7023:7026   */\n      dup6\n        /* \"#utility.yul\":7016:7020   */\n      0x20\n        /* \"#utility.yul\":7009:7014   */\n      dup7\n        /* \"#utility.yul\":7005:7021   */\n      add\n        /* \"#utility.yul\":6970:7035   */\n      tag_99\n      jump\t// in\n    tag_195:\n        /* \"#utility.yul\":7060:7089   */\n      tag_196\n        /* \"#utility.yul\":7082:7088   */\n      dup2\n        /* \"#utility.yul\":7060:7089   */\n      tag_84\n      jump\t// in\n    tag_196:\n        /* \"#utility.yul\":7055:7058   */\n      dup5\n        /* \"#utility.yul\":7051:7090   */\n      add\n        /* \"#utility.yul\":7044:7090   */\n      swap2\n      pop\n        /* \"#utility.yul\":6821:7096   */\n      pop\n        /* \"#utility.yul\":6739:7096   */\n      swap3\n      swap2\n      pop\n      pop\n      jump\t// out\n        /* \"#utility.yul\":7180:7789   */\n    tag_101:\n        /* \"#utility.yul\":7301:7304   */\n      0x00\n        /* \"#utility.yul\":7337:7341   */\n      0x40\n        /* \"#utility.yul\":7332:7335   */\n      dup4\n        /* \"#utility.yul\":7328:7342   */\n      add\n        /* \"#utility.yul\":7425:7429   */\n      0x00\n        /* \"#utility.yul\":7418:7423   */\n      dup4\n        /* \"#utility.yul\":7414:7430   */\n      add\n        /* \"#utility.yul\":7408:7431   */\n      mload\n        /* \"#utility.yul\":7444:7507   */\n      tag_198\n        /* \"#utility.yul\":7501:7505   */\n      0x00\n        /* \"#utility.yul\":7496:7499   */\n      dup7\n        /* \"#utility.yul\":7492:7506   */\n      add\n        /* \"#utility.yul\":7478:7490   */\n      dup3\n        /* \"#utility.yul\":7444:7507   */\n      tag_96\n      jump\t// in\n    tag_198:\n        /* \"#utility.yul\":7352:7517   */\n      pop\n        /* \"#utility.yul\":7599:7603   */\n      0x20\n        /* \"#utility.yul\":7592:7597   */\n      dup4\n        /* \"#utility.yul\":7588:7604   */\n      add\n        /* \"#utility.yul\":7582:7605   */\n      mload\n        /* \"#utility.yul\":7652:7655   */\n      dup5\n        /* \"#utility.yul\":7646:7650   */\n      dup3\n        /* \"#utility.yul\":7642:7656   */\n      sub\n        /* \"#utility.yul\":7635:7639   */\n      0x20\n        /* \"#utility.yul\":7630:7633   */\n      dup7\n        /* \"#utility.yul\":7626:7640   */\n      add\n        /* \"#utility.yul\":7619:7657   */\n      mstore\n        /* \"#utility.yul\":7678:7751   */\n      tag_199\n        /* \"#utility.yul\":7746:7750   */\n      dup3\n        /* \"#utility.yul\":7732:7744   */\n      dup3\n        /* \"#utility.yul\":7678:7751   */\n      tag_100\n      jump\t// in\n    tag_199:\n        /* \"#utility.yul\":7670:7751   */\n      swap2\n      pop\n        /* \"#utility.yul\":7527:7762   */\n      pop\n        /* \"#utility.yul\":7779:7783   */\n      dup1\n        /* \"#utility.yul\":7772:7783   */\n      swap2\n      pop\n        /* \"#utility.yul\":7306:7789   */\n      pop\n        /* \"#utility.yul\":7180:7789   */\n      swap3\n      swap2\n      pop\n      pop\n      jump\t// out\n        /* \"#utility.yul\":7795:8172   */\n    tag_35:\n        /* \"#utility.yul\":7940:7944   */\n      0x00\n        /* \"#utility.yul\":7978:7980   */\n      0x20\n        /* \"#utility.yul\":7967:7976   */\n      dup3\n        /* \"#utility.yul\":7963:7981   */\n      add\n        /* \"#utility.yul\":7955:7981   */\n      swap1\n      pop\n        /* \"#utility.yul\":8027:8036   */\n      dup2\n        /* \"#utility.yul\":8021:8025   */\n      dup2\n        /* \"#utility.yul\":8017:8037   */\n      sub\n        /* \"#utility.yul\":8013:8014   */\n      0x00\n        /* \"#utility.yul\":8002:8011   */\n      dup4\n        /* \"#utility.yul\":7998:8015   */\n      add\n        /* \"#utility.yul\":7991:8038   */\n      mstore\n        /* \"#utility.yul\":8055:8165   */\n      tag_201\n        /* \"#utility.yul\":8160:8164   */\n      dup2\n        /* \"#utility.yul\":8151:8157   */\n      dup5\n        /* \"#utility.yul\":8055:8165   */\n      tag_101\n      jump\t// in\n    tag_201:\n        /* \"#utility.yul\":8047:8165   */\n      swap1\n      pop\n        /* \"#utility.yul\":7795:8172   */\n      swap3\n      swap2\n      pop\n      pop\n      jump\t// out\n        /* \"#utility.yul\":8178:8295   */\n    tag_102:\n        /* \"#utility.yul\":8287:8288   */\n      0x00\n        /* \"#utility.yul\":8284:8285   */\n      0x00\n        /* \"#utility.yul\":8277:8289   */\n      revert\n        /* \"#utility.yul\":8342:8574   */\n    tag_103:\n        /* \"#utility.yul\":8416:8421   */\n      0x00\n        /* \"#utility.yul\":8457:8459   */\n      0x40\n        /* \"#utility.yul\":8448:8454   */\n      dup3\n        /* \"#utility.yul\":8443:8446   */\n      dup5\n        /* \"#utility.yul\":8439:8455   */\n      sub\n        /* \"#utility.yul\":8435:8460   */\n      slt\n        /* \"#utility.yul\":8432:8544   */\n      iszero\n      tag_204\n      jumpi\n        /* \"#utility.yul\":8463:8542   */\n      tag_205\n      tag_102\n      jump\t// in\n    tag_205:\n        /* \"#utility.yul\":8432:8544   */\n    tag_204:\n        /* \"#utility.yul\":8562:8568   */\n      dup2\n        /* \"#utility.yul\":8553:8568   */\n      swap1\n      pop\n        /* \"#utility.yul\":8342:8574   */\n      swap3\n      swap2\n      pop\n      pop\n      jump\t// out\n        /* \"#utility.yul\":8580:9125   */\n    tag_38:\n        /* \"#utility.yul\":8667:8673   */\n      0x00\n        /* \"#utility.yul\":8716:8718   */\n      0x20\n        /* \"#utility.yul\":8704:8713   */\n      dup3\n        /* \"#utility.yul\":8695:8702   */\n      dup5\n        /* \"#utility.yul\":8691:8714   */\n      sub\n        /* \"#utility.yul\":8687:8719   */\n      slt\n        /* \"#utility.yul\":8684:8803   */\n      iszero\n      tag_207\n      jumpi\n        /* \"#utility.yul\":8722:8801   */\n      tag_208\n      tag_75\n      jump\t// in\n    tag_208:\n        /* \"#utility.yul\":8684:8803   */\n    tag_207:\n        /* \"#utility.yul\":8870:8871   */\n      0x00\n        /* \"#utility.yul\":8859:8868   */\n      dup3\n        /* \"#utility.yul\":8855:8872   */\n      add\n        /* \"#utility.yul\":8842:8873   */\n      calldataload\n        /* \"#utility.yul\":8900:8918   */\n      0xffffffffffffffff\n        /* \"#utility.yul\":8892:8898   */\n      dup2\n        /* \"#utility.yul\":8889:8919   */\n      gt\n        /* \"#utility.yul\":8886:9003   */\n      iszero\n      tag_209\n      jumpi\n        /* \"#utility.yul\":8922:9001   */\n      tag_210\n      tag_76\n      jump\t// in\n    tag_210:\n        /* \"#utility.yul\":8886:9003   */\n    tag_209:\n        /* \"#utility.yul\":9027:9108   */\n      tag_211\n        /* \"#utility.yul\":9100:9107   */\n      dup5\n        /* \"#utility.yul\":9091:9097   */\n      dup3\n        /* \"#utility.yul\":9080:9089   */\n      dup6\n        /* \"#utility.yul\":9076:9098   */\n      add\n        /* \"#utility.yul\":9027:9108   */\n      tag_103\n      jump\t// in\n    tag_211:\n        /* \"#utility.yul\":9017:9108   */\n      swap2\n      pop\n        /* \"#utility.yul\":8813:9118   */\n      pop\n        /* \"#utility.yul\":8580:9125   */\n      swap3\n      swap2\n      pop\n      pop\n      jump\t// out\n        /* \"#utility.yul\":9131:9460   */\n    tag_49:\n        /* \"#utility.yul\":9190:9196   */\n      0x00\n        /* \"#utility.yul\":9239:9241   */\n      0x20\n        /* \"#utility.yul\":9227:9236   */\n      dup3\n        /* \"#utility.yul\":9218:9225   */\n      dup5\n        /* \"#utility.yul\":9214:9237   */\n      sub\n        /* \"#utility.yul\":9210:9242   */\n      slt\n        /* \"#utility.yul\":9207:9326   */\n      iszero\n      tag_213\n      jumpi\n        /* \"#utility.yul\":9245:9324   */\n      tag_214\n      tag_75\n      jump\t// in\n    tag_214:\n        /* \"#utility.yul\":9207:9326   */\n    tag_213:\n        /* \"#utility.yul\":9365:9366   */\n      0x00\n        /* \"#utility.yul\":9390:9443   */\n      tag_215\n        /* \"#utility.yul\":9435:9442   */\n      dup5\n        /* \"#utility.yul\":9426:9432   */\n      dup3\n        /* \"#utility.yul\":9415:9424   */\n      dup6\n        /* \"#utility.yul\":9411:9433   */\n      add\n        /* \"#utility.yul\":9390:9443   */\n      tag_91\n      jump\t// in\n    tag_215:\n        /* \"#utility.yul\":9380:9443   */\n      swap2\n      pop\n        /* \"#utility.yul\":9336:9453   */\n      pop\n        /* \"#utility.yul\":9131:9460   */\n      swap3\n      swap2\n      pop\n      pop\n      jump\t// out\n        /* \"#utility.yul\":9466:9583   */\n    tag_104:\n        /* \"#utility.yul\":9575:9576   */\n      0x00\n        /* \"#utility.yul\":9572:9573   */\n      0x00\n        /* \"#utility.yul\":9565:9577   */\n      revert\n        /* \"#utility.yul\":9589:9706   */\n    tag_105:\n        /* \"#utility.yul\":9698:9699   */\n      0x00\n        /* \"#utility.yul\":9695:9696   */\n      0x00\n        /* \"#utility.yul\":9688:9700   */\n      revert\n        /* \"#utility.yul\":9712:9829   */\n    tag_106:\n        /* \"#utility.yul\":9821:9822   */\n      0x00\n        /* \"#utility.yul\":9818:9819   */\n      0x00\n        /* \"#utility.yul\":9811:9823   */\n      revert\n        /* \"#utility.yul\":9835:10143   */\n    tag_107:\n        /* \"#utility.yul\":9897:9901   */\n      0x00\n        /* \"#utility.yul\":9987:10005   */\n      0xffffffffffffffff\n        /* \"#utility.yul\":9979:9985   */\n      dup3\n        /* \"#utility.yul\":9976:10006   */\n      gt\n        /* \"#utility.yul\":9973:10029   */\n      iszero\n      tag_220\n      jumpi\n        /* \"#utility.yul\":10009:10027   */\n      tag_221\n      tag_85\n      jump\t// in\n    tag_221:\n        /* \"#utility.yul\":9973:10029   */\n    tag_220:\n        /* \"#utility.yul\":10047:10076   */\n      tag_222\n        /* \"#utility.yul\":10069:10075   */\n      dup3\n        /* \"#utility.yul\":10047:10076   */\n      tag_84\n      jump\t// in\n    tag_222:\n        /* \"#utility.yul\":10039:10076   */\n      swap1\n      pop\n        /* \"#utility.yul\":10131:10135   */\n      0x20\n        /* \"#utility.yul\":10125:10129   */\n      dup2\n        /* \"#utility.yul\":10121:10136   */\n      add\n        /* \"#utility.yul\":10113:10136   */\n      swap1\n      pop\n        /* \"#utility.yul\":9835:10143   */\n      swap2\n      swap1\n      pop\n      jump\t// out\n        /* \"#utility.yul\":10149:10297   */\n    tag_108:\n        /* \"#utility.yul\":10247:10253   */\n      dup3\n        /* \"#utility.yul\":10242:10245   */\n      dup2\n        /* \"#utility.yul\":10237:10240   */\n      dup4\n        /* \"#utility.yul\":10224:10254   */\n      calldatacopy\n        /* \"#utility.yul\":10288:10289   */\n      0x00\n        /* \"#utility.yul\":10279:10285   */\n      dup4\n        /* \"#utility.yul\":10274:10277   */\n      dup4\n        /* \"#utility.yul\":10270:10286   */\n      add\n        /* \"#utility.yul\":10263:10290   */\n      mstore\n        /* \"#utility.yul\":10149:10297   */\n      pop\n      pop\n      pop\n      jump\t// out\n        /* \"#utility.yul\":10303:10728   */\n    tag_109:\n        /* \"#utility.yul\":10381:10386   */\n      0x00\n        /* \"#utility.yul\":10406:10472   */\n      tag_225\n        /* \"#utility.yul\":10422:10471   */\n      tag_226\n        /* \"#utility.yul\":10464:10470   */\n      dup5\n        /* \"#utility.yul\":10422:10471   */\n      tag_107\n      jump\t// in\n    tag_226:\n        /* \"#utility.yul\":10406:10472   */\n      tag_87\n      jump\t// in\n    tag_225:\n        /* \"#utility.yul\":10397:10472   */\n      swap1\n      pop\n        /* \"#utility.yul\":10495:10501   */\n      dup3\n        /* \"#utility.yul\":10488:10493   */\n      dup2\n        /* \"#utility.yul\":10481:10502   */\n      mstore\n        /* \"#utility.yul\":10533:10537   */\n      0x20\n        /* \"#utility.yul\":10526:10531   */\n      dup2\n        /* \"#utility.yul\":10522:10538   */\n      add\n        /* \"#utility.yul\":10571:10574   */\n      dup5\n        /* \"#utility.yul\":10562:10568   */\n      dup5\n        /* \"#utility.yul\":10557:10560   */\n      dup5\n        /* \"#utility.yul\":10553:10569   */\n      add\n        /* \"#utility.yul\":10550:10575   */\n      gt\n        /* \"#utility.yul\":10547:10659   */\n      iszero\n      tag_227\n      jumpi\n        /* \"#utility.yul\":10578:10657   */\n      tag_228\n      tag_106\n      jump\t// in\n    tag_228:\n        /* \"#utility.yul\":10547:10659   */\n    tag_227:\n        /* \"#utility.yul\":10668:10722   */\n      tag_229\n        /* \"#utility.yul\":10715:10721   */\n      dup5\n        /* \"#utility.yul\":10710:10713   */\n      dup3\n        /* \"#utility.yul\":10705:10708   */\n      dup6\n        /* \"#utility.yul\":10668:10722   */\n      tag_108\n      jump\t// in\n    tag_229:\n        /* \"#utility.yul\":10387:10728   */\n      pop\n        /* \"#utility.yul\":10303:10728   */\n      swap4\n      swap3\n      pop\n      pop\n      pop\n      jump\t// out\n        /* \"#utility.yul\":10748:11088   */\n    tag_110:\n        /* \"#utility.yul\":10804:10809   */\n      0x00\n        /* \"#utility.yul\":10853:10856   */\n      dup3\n        /* \"#utility.yul\":10846:10850   */\n      0x1f\n        /* \"#utility.yul\":10838:10844   */\n      dup4\n        /* \"#utility.yul\":10834:10851   */\n      add\n        /* \"#utility.yul\":10830:10857   */\n      slt\n        /* \"#utility.yul\":10820:10942   */\n      tag_231\n      jumpi\n        /* \"#utility.yul\":10861:10940   */\n      tag_232\n      tag_83\n      jump\t// in\n    tag_232:\n        /* \"#utility.yul\":10820:10942   */\n    tag_231:\n        /* \"#utility.yul\":10978:10984   */\n      dup2\n        /* \"#utility.yul\":10965:10985   */\n      calldataload\n        /* \"#utility.yul\":11003:11082   */\n      tag_233\n        /* \"#utility.yul\":11078:11081   */\n      dup5\n        /* \"#utility.yul\":11070:11076   */\n      dup3\n        /* \"#utility.yul\":11063:11067   */\n      0x20\n        /* \"#utility.yul\":11055:11061   */\n      dup7\n        /* \"#utility.yul\":11051:11068   */\n      add\n        /* \"#utility.yul\":11003:11082   */\n      tag_109\n      jump\t// in\n    tag_233:\n        /* \"#utility.yul\":10994:11082   */\n      swap2\n      pop\n        /* \"#utility.yul\":10810:11088   */\n      pop\n        /* \"#utility.yul\":10748:11088   */\n      swap3\n      swap2\n      pop\n      pop\n      jump\t// out\n        /* \"#utility.yul\":11135:11881   */\n    tag_111:\n        /* \"#utility.yul\":11210:11215   */\n      0x00\n        /* \"#utility.yul\":11254:11258   */\n      0x40\n        /* \"#utility.yul\":11242:11251   */\n      dup3\n        /* \"#utility.yul\":11237:11240   */\n      dup5\n        /* \"#utility.yul\":11233:11252   */\n      sub\n        /* \"#utility.yul\":11229:11259   */\n      slt\n        /* \"#utility.yul\":11226:11343   */\n      iszero\n      tag_235\n      jumpi\n        /* \"#utility.yul\":11262:11341   */\n      tag_236\n      tag_104\n      jump\t// in\n    tag_236:\n        /* \"#utility.yul\":11226:11343   */\n    tag_235:\n        /* \"#utility.yul\":11361:11382   */\n      tag_237\n        /* \"#utility.yul\":11377:11381   */\n      0x40\n        /* \"#utility.yul\":11361:11382   */\n      tag_87\n      jump\t// in\n    tag_237:\n        /* \"#utility.yul\":11352:11382   */\n      swap1\n      pop\n        /* \"#utility.yul\":11442:11443   */\n      0x00\n        /* \"#utility.yul\":11482:11531   */\n      tag_238\n        /* \"#utility.yul\":11527:11530   */\n      dup5\n        /* \"#utility.yul\":11518:11524   */\n      dup3\n        /* \"#utility.yul\":11507:11516   */\n      dup6\n        /* \"#utility.yul\":11503:11525   */\n      add\n        /* \"#utility.yul\":11482:11531   */\n      tag_91\n      jump\t// in\n    tag_238:\n        /* \"#utility.yul\":11475:11479   */\n      0x00\n        /* \"#utility.yul\":11468:11473   */\n      dup4\n        /* \"#utility.yul\":11464:11480   */\n      add\n        /* \"#utility.yul\":11457:11532   */\n      mstore\n        /* \"#utility.yul\":11392:11543   */\n      pop\n        /* \"#utility.yul\":11630:11632   */\n      0x20\n        /* \"#utility.yul\":11619:11628   */\n      dup3\n        /* \"#utility.yul\":11615:11633   */\n      add\n        /* \"#utility.yul\":11602:11634   */\n      calldataload\n        /* \"#utility.yul\":11661:11679   */\n      0xffffffffffffffff\n        /* \"#utility.yul\":11653:11659   */\n      dup2\n        /* \"#utility.yul\":11650:11680   */\n      gt\n        /* \"#utility.yul\":11647:11764   */\n      iszero\n      tag_239\n      jumpi\n        /* \"#utility.yul\":11683:11762   */\n      tag_240\n      tag_105\n      jump\t// in\n    tag_240:\n        /* \"#utility.yul\":11647:11764   */\n    tag_239:\n        /* \"#utility.yul\":11803:11862   */\n      tag_241\n        /* \"#utility.yul\":11858:11861   */\n      dup5\n        /* \"#utility.yul\":11849:11855   */\n      dup3\n        /* \"#utility.yul\":11838:11847   */\n      dup6\n        /* \"#utility.yul\":11834:11856   */\n      add\n        /* \"#utility.yul\":11803:11862   */\n      tag_110\n      jump\t// in\n    tag_241:\n        /* \"#utility.yul\":11796:11800   */\n      0x20\n        /* \"#utility.yul\":11789:11794   */\n      dup4\n        /* \"#utility.yul\":11785:11801   */\n      add\n        /* \"#utility.yul\":11778:11863   */\n      mstore\n        /* \"#utility.yul\":11553:11874   */\n      pop\n        /* \"#utility.yul\":11135:11881   */\n      swap3\n      swap2\n      pop\n      pop\n      jump\t// out\n        /* \"#utility.yul\":11887:12101   */\n    tag_63:\n        /* \"#utility.yul\":11991:12000   */\n      0x00\n        /* \"#utility.yul\":12025:12094   */\n      tag_243\n        /* \"#utility.yul\":12079:12093   */\n      calldatasize\n        /* \"#utility.yul\":12072:12077   */\n      dup4\n        /* \"#utility.yul\":12025:12094   */\n      tag_111\n      jump\t// in\n    tag_243:\n        /* \"#utility.yul\":12012:12094   */\n      swap1\n      pop\n        /* \"#utility.yul\":11887:12101   */\n      swap2\n      swap1\n      pop\n      jump\t// out\n        /* \"#utility.yul\":12107:12287   */\n    tag_112:\n        /* \"#utility.yul\":12155:12232   */\n      0x4e487b7100000000000000000000000000000000000000000000000000000000\n        /* \"#utility.yul\":12152:12153   */\n      0x00\n        /* \"#utility.yul\":12145:12233   */\n      mstore\n        /* \"#utility.yul\":12252:12256   */\n      0x11\n        /* \"#utility.yul\":12249:12250   */\n      0x04\n        /* \"#utility.yul\":12242:12257   */\n      mstore\n        /* \"#utility.yul\":12276:12280   */\n      0x24\n        /* \"#utility.yul\":12273:12274   */\n      0x00\n        /* \"#utility.yul\":12266:12281   */\n      revert\n        /* \"#utility.yul\":12293:12703   */\n    tag_69:\n        /* \"#utility.yul\":12333:12340   */\n      0x00\n        /* \"#utility.yul\":12356:12376   */\n      tag_246\n        /* \"#utility.yul\":12374:12375   */\n      dup3\n        /* \"#utility.yul\":12356:12376   */\n      tag_81\n      jump\t// in\n    tag_246:\n        /* \"#utility.yul\":12351:12376   */\n      swap2\n      pop\n        /* \"#utility.yul\":12390:12410   */\n      tag_247\n        /* \"#utility.yul\":12408:12409   */\n      dup4\n        /* \"#utility.yul\":12390:12410   */\n      tag_81\n      jump\t// in\n    tag_247:\n        /* \"#utility.yul\":12385:12410   */\n      swap3\n      pop\n        /* \"#utility.yul\":12445:12446   */\n      dup3\n        /* \"#utility.yul\":12442:12443   */\n      dup3\n        /* \"#utility.yul\":12438:12447   */\n      mul\n        /* \"#utility.yul\":12467:12497   */\n      tag_248\n        /* \"#utility.yul\":12485:12496   */\n      dup2\n        /* \"#utility.yul\":12467:12497   */\n      tag_81\n      jump\t// in\n    tag_248:\n        /* \"#utility.yul\":12456:12497   */\n      swap2\n      pop\n        /* \"#utility.yul\":12646:12647   */\n      dup3\n        /* \"#utility.yul\":12637:12644   */\n      dup3\n        /* \"#utility.yul\":12633:12648   */\n      div\n        /* \"#utility.yul\":12630:12631   */\n      dup5\n        /* \"#utility.yul\":12627:12649   */\n      eq\n        /* \"#utility.yul\":12607:12608   */\n      dup4\n        /* \"#utility.yul\":12600:12609   */\n      iszero\n        /* \"#utility.yul\":12580:12663   */\n      or\n        /* \"#utility.yul\":12557:12696   */\n      tag_249\n      jumpi\n        /* \"#utility.yul\":12676:12694   */\n      tag_250\n      tag_112\n      jump\t// in\n    tag_250:\n        /* \"#utility.yul\":12557:12696   */\n    tag_249:\n        /* \"#utility.yul\":12341:12703   */\n      pop\n        /* \"#utility.yul\":12293:12703   */\n      swap3\n      swap2\n      pop\n      pop\n      jump\t// out\n\n    auxdata: 0xa264697066735822122047bbbb27274b9058eac7b1c7bcaf8ae39edf303fb810361d92ae4cb86876703b64736f6c634300081e0033\n}\n",
				"bytecode": {
					"linkReferences": {},
					"object": "60a060405260645f553480156012575f5ffd5b506101f4608081815250506080516109e36100355f395f6102fb01526109e35ff3fe608060405234801561000f575f5ffd5b506004361061009c575f3560e01c8063916448031161006457806391644803146101585780639570264f146101885780639b05bf81146101a6578063b9c03b9a146101c4578063ed36b3d8146101f45761009c565b806327e235e3146100a0578063507aab7f146100d0578063793816ec146100ee5780639080b79b1461010c57806390ca396a14610128575b5f5ffd5b6100ba60048036038101906100b591906103dc565b610212565b6040516100c7919061041f565b60405180910390f35b6100d8610227565b6040516100e5919061041f565b60405180910390f35b6100f661022d565b604051610103919061041f565b60405180910390f35b610126600480360381019061012191906105b2565b610232565b005b610142600480360381019061013d9190610652565b610261565b60405161014f9190610758565b60405180910390f35b610172600480360381019061016d919061079a565b6102cf565b60405161017f9190610758565b60405180910390f35b6101906102f5565b60405161019d919061041f565b60405180910390f35b6101ae6102f9565b6040516101bb919061041f565b60405180910390f35b6101de60048036038101906101d991906107e1565b61031d565b6040516101eb919061041f565b60405180910390f35b6101fc610337565b604051610209919061041f565b60405180910390f35b6001602052805f5260405f205f915090505481565b6103e881565b5f5481565b5f81905060026064908060018154018082558091505060019003905f5260205f20015f90919091909150555050565b610269610358565b5f604051806040016040528084815260200186868080601f0160208091040260200160405190810160405280939291908181526020018383808284375f81840152601f19601f820116905080830192505050505050508152509050809150509392505050565b6102d7610358565b5f826102e29061092d565b90506102ed8361033f565b915050919050565b5f90565b7f000000000000000000000000000000000000000000000000000000000000000081565b5f5f60028361032c919061096c565b905080915050919050565b5f5f54905090565b610347610358565b816103519061092d565b9050919050565b60405180604001604052805f8152602001606081525090565b5f604051905090565b5f5ffd5b5f5ffd5b5f73ffffffffffffffffffffffffffffffffffffffff82169050919050565b5f6103ab82610382565b9050919050565b6103bb816103a1565b81146103c5575f5ffd5b50565b5f813590506103d6816103b2565b92915050565b5f602082840312156103f1576103f061037a565b5b5f6103fe848285016103c8565b91505092915050565b5f819050919050565b61041981610407565b82525050565b5f6020820190506104325f830184610410565b92915050565b5f5ffd5b5f601f19601f8301169050919050565b7f4e487b71000000000000000000000000000000000000000000000000000000005f52604160045260245ffd5b6104828261043c565b810181811067ffffffffffffffff821117156104a1576104a061044c565b5b80604052505050565b5f6104b3610371565b90506104bf8282610479565b919050565b5f67ffffffffffffffff8211156104de576104dd61044c565b5b602082029050602081019050919050565b5f5ffd5b6104fc81610407565b8114610506575f5ffd5b50565b5f81359050610517816104f3565b92915050565b5f61052f61052a846104c4565b6104aa565b90508083825260208201905060208402830185811115610552576105516104ef565b5b835b8181101561057b57806105678882610509565b845260208401935050602081019050610554565b5050509392505050565b5f82601f83011261059957610598610438565b5b81356105a984826020860161051d565b91505092915050565b5f602082840312156105c7576105c661037a565b5b5f82013567ffffffffffffffff8111156105e4576105e361037e565b5b6105f084828501610585565b91505092915050565b5f5ffd5b5f5f83601f84011261061257610611610438565b5b8235905067ffffffffffffffff81111561062f5761062e6105f9565b5b60208301915083600182028301111561064b5761064a6104ef565b5b9250929050565b5f5f5f604084860312156106695761066861037a565b5b5f84013567ffffffffffffffff8111156106865761068561037e565b5b610692868287016105fd565b935093505060206106a586828701610509565b9150509250925092565b6106b881610407565b82525050565b5f81519050919050565b5f82825260208201905092915050565b8281835e5f83830152505050565b5f6106f0826106be565b6106fa81856106c8565b935061070a8185602086016106d8565b6107138161043c565b840191505092915050565b5f604083015f8301516107335f8601826106af565b506020830151848203602086015261074b82826106e6565b9150508091505092915050565b5f6020820190508181035f830152610770818461071e565b905092915050565b5f5ffd5b5f6040828403121561079157610790610778565b5b81905092915050565b5f602082840312156107af576107ae61037a565b5b5f82013567ffffffffffffffff8111156107cc576107cb61037e565b5b6107d88482850161077c565b91505092915050565b5f602082840312156107f6576107f561037a565b5b5f61080384828501610509565b91505092915050565b5f5ffd5b5f5ffd5b5f5ffd5b5f67ffffffffffffffff8211156108325761083161044c565b5b61083b8261043c565b9050602081019050919050565b828183375f83830152505050565b5f61086861086384610818565b6104aa565b90508281526020810184848401111561088457610883610814565b5b61088f848285610848565b509392505050565b5f82601f8301126108ab576108aa610438565b5b81356108bb848260208601610856565b91505092915050565b5f604082840312156108d9576108d861080c565b5b6108e360406104aa565b90505f6108f284828501610509565b5f83015250602082013567ffffffffffffffff81111561091557610914610810565b5b61092184828501610897565b60208301525092915050565b5f61093836836108c4565b9050919050565b7f4e487b71000000000000000000000000000000000000000000000000000000005f52601160045260245ffd5b5f61097682610407565b915061098183610407565b925082820261098f81610407565b915082820484148315176109a6576109a561093f565b5b509291505056fea264697066735822122047bbbb27274b9058eac7b1c7bcaf8ae39edf303fb810361d92ae4cb86876703b64736f6c634300081e0033",
					"opcodes": "PUSH1 0xA0 PUSH1 0x40 MSTORE PUSH1 0x64 PUSH0 SSTORE CALLVALUE DUP1 ISZERO PUSH1 0x12 JUMPI PUSH0 PUSH0 REVERT JUMPDEST POP PUSH2 0x1F4 PUSH1 0x80 DUP2 DUP2 MSTORE POP POP PUSH1 0x80 MLOAD PUSH2 0x9E3 PUSH2 0x35 PUSH0 CODECOPY PUSH0 PUSH2 0x2FB ADD MSTORE PUSH2 0x9E3 PUSH0 RETURN INVALID PUSH1 0x80 PUSH1 0x40 MSTORE CALLVALUE DUP1 ISZERO PUSH2 0xF JUMPI PUSH0 PUSH0 REVERT JUMPDEST POP PUSH1 0x4 CALLDATASIZE LT PUSH2 0x9C JUMPI PUSH0 CALLDATALOAD PUSH1 0xE0 SHR DUP1 PUSH4 0x91644803 GT PUSH2 0x64 JUMPI DUP1 PUSH4 0x91644803 EQ PUSH2 0x158 JUMPI DUP1 PUSH4 0x9570264F EQ PUSH2 0x188 JUMPI DUP1 PUSH4 0x9B05BF81 EQ PUSH2 0x1A6 JUMPI DUP1 PUSH4 0xB9C03B9A EQ PUSH2 0x1C4 JUMPI DUP1 PUSH4 0xED36B3D8 EQ PUSH2 0x1F4 JUMPI PUSH2 0x9C JUMP JUMPDEST DUP1 PUSH4 0x27E235E3 EQ PUSH2 0xA0 JUMPI DUP1 PUSH4 0x507AAB7F EQ PUSH2 0xD0 JUMPI DUP1 PUSH4 0x793816EC EQ PUSH2 0xEE JUMPI DUP1 PUSH4 0x9080B79B EQ PUSH2 0x10C JUMPI DUP1 PUSH4 0x90CA396A EQ PUSH2 0x128 JUMPI JUMPDEST PUSH0 PUSH0 REVERT JUMPDEST PUSH2 0xBA PUSH1 0x4 DUP1 CALLDATASIZE SUB DUP2 ADD SWAP1 PUSH2 0xB5 SWAP2 SWAP1 PUSH2 0x3DC JUMP JUMPDEST PUSH2 0x212 JUMP JUMPDEST PUSH1 0x40 MLOAD PUSH2 0xC7 SWAP2 SWAP1 PUSH2 0x41F JUMP JUMPDEST PUSH1 0x40 MLOAD DUP1 SWAP2 SUB SWAP1 RETURN JUMPDEST PUSH2 0xD8 PUSH2 0x227 JUMP JUMPDEST PUSH1 0x40 MLOAD PUSH2 0xE5 SWAP2 SWAP1 PUSH2 0x41F JUMP JUMPDEST PUSH1 0x40 MLOAD DUP1 SWAP2 SUB SWAP1 RETURN JUMPDEST PUSH2 0xF6 PUSH2 0x22D JUMP JUMPDEST PUSH1 0x40 MLOAD PUSH2 0x103 SWAP2 SWAP1 PUSH2 0x41F JUMP JUMPDEST PUSH1 0x40 MLOAD DUP1 SWAP2 SUB SWAP1 RETURN JUMPDEST PUSH2 0x126 PUSH1 0x4 DUP1 CALLDATASIZE SUB DUP2 ADD SWAP1 PUSH2 0x121 SWAP2 SWAP1 PUSH2 0x5B2 JUMP JUMPDEST PUSH2 0x232 JUMP JUMPDEST STOP JUMPDEST PUSH2 0x142 PUSH1 0x4 DUP1 CALLDATASIZE SUB DUP2 ADD SWAP1 PUSH2 0x13D SWAP2 SWAP1 PUSH2 0x652 JUMP JUMPDEST PUSH2 0x261 JUMP JUMPDEST PUSH1 0x40 MLOAD PUSH2 0x14F SWAP2 SWAP1 PUSH2 0x758 JUMP JUMPDEST PUSH1 0x40 MLOAD DUP1 SWAP2 SUB SWAP1 RETURN JUMPDEST PUSH2 0x172 PUSH1 0x4 DUP1 CALLDATASIZE SUB DUP2 ADD SWAP1 PUSH2 0x16D SWAP2 SWAP1 PUSH2 0x79A JUMP JUMPDEST PUSH2 0x2CF JUMP JUMPDEST PUSH1 0x40 MLOAD PUSH2 0x17F SWAP2 SWAP1 PUSH2 0x758 JUMP JUMPDEST PUSH1 0x40 MLOAD DUP1 SWAP2 SUB SWAP1 RETURN JUMPDEST PUSH2 0x190 PUSH2 0x2F5 JUMP JUMPDEST PUSH1 0x40 MLOAD PUSH2 0x19D SWAP2 SWAP1 PUSH2 0x41F JUMP JUMPDEST PUSH1 0x40 MLOAD DUP1 SWAP2 SUB SWAP1 RETURN JUMPDEST PUSH2 0x1AE PUSH2 0x2F9 JUMP JUMPDEST PUSH1 0x40 MLOAD PUSH2 0x1BB SWAP2 SWAP1 PUSH2 0x41F JUMP JUMPDEST PUSH1 0x40 MLOAD DUP1 SWAP2 SUB SWAP1 RETURN JUMPDEST PUSH2 0x1DE PUSH1 0x4 DUP1 CALLDATASIZE SUB DUP2 ADD SWAP1 PUSH2 0x1D9 SWAP2 SWAP1 PUSH2 0x7E1 JUMP JUMPDEST PUSH2 0x31D JUMP JUMPDEST PUSH1 0x40 MLOAD PUSH2 0x1EB SWAP2 SWAP1 PUSH2 0x41F JUMP JUMPDEST PUSH1 0x40 MLOAD DUP1 SWAP2 SUB SWAP1 RETURN JUMPDEST PUSH2 0x1FC PUSH2 0x337 JUMP JUMPDEST PUSH1 0x40 MLOAD PUSH2 0x209 SWAP2 SWAP1 PUSH2 0x41F JUMP JUMPDEST PUSH1 0x40 MLOAD DUP1 SWAP2 SUB SWAP1 RETURN JUMPDEST PUSH1 0x1 PUSH1 0x20 MSTORE DUP1 PUSH0 MSTORE PUSH1 0x40 PUSH0 KECCAK256 PUSH0 SWAP2 POP SWAP1 POP SLOAD DUP2 JUMP JUMPDEST PUSH2 0x3E8 DUP2 JUMP JUMPDEST PUSH0 SLOAD DUP2 JUMP JUMPDEST PUSH0 DUP2 SWAP1 POP PUSH1 0x2 PUSH1 0x64 SWAP1 DUP1 PUSH1 0x1 DUP2 SLOAD ADD DUP1 DUP3 SSTORE DUP1 SWAP2 POP POP PUSH1 0x1 SWAP1 SUB SWAP1 PUSH0 MSTORE PUSH1 0x20 PUSH0 KECCAK256 ADD PUSH0 SWAP1 SWAP2 SWAP1 SWAP2 SWAP1 SWAP2 POP SSTORE POP POP JUMP JUMPDEST PUSH2 0x269 PUSH2 0x358 JUMP JUMPDEST PUSH0 PUSH1 0x40 MLOAD DUP1 PUSH1 0x40 ADD PUSH1 0x40 MSTORE DUP1 DUP5 DUP2 MSTORE PUSH1 0x20 ADD DUP7 DUP7 DUP1 DUP1 PUSH1 0x1F ADD PUSH1 0x20 DUP1 SWAP2 DIV MUL PUSH1 0x20 ADD PUSH1 0x40 MLOAD SWAP1 DUP2 ADD PUSH1 0x40 MSTORE DUP1 SWAP4 SWAP3 SWAP2 SWAP1 DUP2 DUP2 MSTORE PUSH1 0x20 ADD DUP4 DUP4 DUP1 DUP3 DUP5 CALLDATACOPY PUSH0 DUP2 DUP5 ADD MSTORE PUSH1 0x1F NOT PUSH1 0x1F DUP3 ADD AND SWAP1 POP DUP1 DUP4 ADD SWAP3 POP POP POP POP POP POP POP DUP2 MSTORE POP SWAP1 POP DUP1 SWAP2 POP POP SWAP4 SWAP3 POP POP POP JUMP JUMPDEST PUSH2 0x2D7 PUSH2 0x358 JUMP JUMPDEST PUSH0 DUP3 PUSH2 0x2E2 SWAP1 PUSH2 0x92D JUMP JUMPDEST SWAP1 POP PUSH2 0x2ED DUP4 PUSH2 0x33F JUMP JUMPDEST SWAP2 POP POP SWAP2 SWAP1 POP JUMP JUMPDEST PUSH0 SWAP1 JUMP JUMPDEST PUSH32 0x0 DUP2 JUMP JUMPDEST PUSH0 PUSH0 PUSH1 0x2 DUP4 PUSH2 0x32C SWAP2 SWAP1 PUSH2 0x96C JUMP JUMPDEST SWAP1 POP DUP1 SWAP2 POP POP SWAP2 SWAP1 POP JUMP JUMPDEST PUSH0 PUSH0 SLOAD SWAP1 POP SWAP1 JUMP JUMPDEST PUSH2 0x347 PUSH2 0x358 JUMP JUMPDEST DUP2 PUSH2 0x351 SWAP1 PUSH2 0x92D JUMP JUMPDEST SWAP1 POP SWAP2 SWAP1 POP JUMP JUMPDEST PUSH1 0x40 MLOAD DUP1 PUSH1 0x40 ADD PUSH1 0x40 MSTORE DUP1 PUSH0 DUP2 MSTORE PUSH1 0x20 ADD PUSH1 0x60 DUP2 MSTORE POP SWAP1 JUMP JUMPDEST PUSH0 PUSH1 0x40 MLOAD SWAP1 POP SWAP1 JUMP JUMPDEST PUSH0 PUSH0 REVERT JUMPDEST PUSH0 PUSH0 REVERT JUMPDEST PUSH0 PUSH20 0xFFFFFFFFFFFFFFFFFFFFFFFFFFFFFFFFFFFFFFFF DUP3 AND SWAP1 POP SWAP2 SWAP1 POP JUMP JUMPDEST PUSH0 PUSH2 0x3AB DUP3 PUSH2 0x382 JUMP JUMPDEST SWAP1 POP SWAP2 SWAP1 POP JUMP JUMPDEST PUSH2 0x3BB DUP2 PUSH2 0x3A1 JUMP JUMPDEST DUP2 EQ PUSH2 0x3C5 JUMPI PUSH0 PUSH0 REVERT JUMPDEST POP JUMP JUMPDEST PUSH0 DUP2 CALLDATALOAD SWAP1 POP PUSH2 0x3D6 DUP2 PUSH2 0x3B2 JUMP JUMPDEST SWAP3 SWAP2 POP POP JUMP JUMPDEST PUSH0 PUSH1 0x20 DUP3 DUP5 SUB SLT ISZERO PUSH2 0x3F1 JUMPI PUSH2 0x3F0 PUSH2 0x37A JUMP JUMPDEST JUMPDEST PUSH0 PUSH2 0x3FE DUP5 DUP3 DUP6 ADD PUSH2 0x3C8 JUMP JUMPDEST SWAP2 POP POP SWAP3 SWAP2 POP POP JUMP JUMPDEST PUSH0 DUP2 SWAP1 POP SWAP2 SWAP1 POP JUMP JUMPDEST PUSH2 0x419 DUP2 PUSH2 0x407 JUMP JUMPDEST DUP3 MSTORE POP POP JUMP JUMPDEST PUSH0 PUSH1 0x20 DUP3 ADD SWAP1 POP PUSH2 0x432 PUSH0 DUP4 ADD DUP5 PUSH2 0x410 JUMP JUMPDEST SWAP3 SWAP2 POP POP JUMP JUMPDEST PUSH0 PUSH0 REVERT JUMPDEST PUSH0 PUSH1 0x1F NOT PUSH1 0x1F DUP4 ADD AND SWAP1 POP SWAP2 SWAP1 POP JUMP JUMPDEST PUSH32 0x4E487B7100000000000000000000000000000000000000000000000000000000 PUSH0 MSTORE PUSH1 0x41 PUSH1 0x4 MSTORE PUSH1 0x24 PUSH0 REVERT JUMPDEST PUSH2 0x482 DUP3 PUSH2 0x43C JUMP JUMPDEST DUP2 ADD DUP2 DUP2 LT PUSH8 0xFFFFFFFFFFFFFFFF DUP3 GT OR ISZERO PUSH2 0x4A1 JUMPI PUSH2 0x4A0 PUSH2 0x44C JUMP JUMPDEST JUMPDEST DUP1 PUSH1 0x40 MSTORE POP POP POP JUMP JUMPDEST PUSH0 PUSH2 0x4B3 PUSH2 0x371 JUMP JUMPDEST SWAP1 POP PUSH2 0x4BF DUP3 DUP3 PUSH2 0x479 JUMP JUMPDEST SWAP2 SWAP1 POP JUMP JUMPDEST PUSH0 PUSH8 0xFFFFFFFFFFFFFFFF DUP3 GT ISZERO PUSH2 0x4DE JUMPI PUSH2 0x4DD PUSH2 0x44C JUMP JUMPDEST JUMPDEST PUSH1 0x20 DUP3 MUL SWAP1 POP PUSH1 0x20 DUP2 ADD SWAP1 POP SWAP2 SWAP1 POP JUMP JUMPDEST PUSH0 PUSH0 REVERT JUMPDEST PUSH2 0x4FC DUP2 PUSH2 0x407 JUMP JUMPDEST DUP2 EQ PUSH2 0x506 JUMPI PUSH0 PUSH0 REVERT JUMPDEST POP JUMP JUMPDEST PUSH0 DUP2 CALLDATALOAD SWAP1 POP PUSH2 0x517 DUP2 PUSH2 0x4F3 JUMP JUMPDEST SWAP3 SWAP2 POP POP JUMP JUMPDEST PUSH0 PUSH2 0x52F PUSH2 0x52A DUP5 PUSH2 0x4C4 JUMP JUMPDEST PUSH2 0x4AA JUMP JUMPDEST SWAP1 POP DUP1 DUP4 DUP3 MSTORE PUSH1 0x20 DUP3 ADD SWAP1 POP PUSH1 0x20 DUP5 MUL DUP4 ADD DUP6 DUP2 GT ISZERO PUSH2 0x552 JUMPI PUSH2 0x551 PUSH2 0x4EF JUMP JUMPDEST JUMPDEST DUP4 JUMPDEST DUP2 DUP2 LT ISZERO PUSH2 0x57B JUMPI DUP1 PUSH2 0x567 DUP9 DUP3 PUSH2 0x509 JUMP JUMPDEST DUP5 MSTORE PUSH1 0x20 DUP5 ADD SWAP4 POP POP PUSH1 0x20 DUP2 ADD SWAP1 POP PUSH2 0x554 JUMP JUMPDEST POP POP POP SWAP4 SWAP3 POP POP POP JUMP JUMPDEST PUSH0 DUP3 PUSH1 0x1F DUP4 ADD SLT PUSH2 0x599 JUMPI PUSH2 0x598 PUSH2 0x438 JUMP JUMPDEST JUMPDEST DUP2 CALLDATALOAD PUSH2 0x5A9 DUP5 DUP3 PUSH1 0x20 DUP7 ADD PUSH2 0x51D JUMP JUMPDEST SWAP2 POP POP SWAP3 SWAP2 POP POP JUMP JUMPDEST PUSH0 PUSH1 0x20 DUP3 DUP5 SUB SLT ISZERO PUSH2 0x5C7 JUMPI PUSH2 0x5C6 PUSH2 0x37A JUMP JUMPDEST JUMPDEST PUSH0 DUP3 ADD CALLDATALOAD PUSH8 0xFFFFFFFFFFFFFFFF DUP2 GT ISZERO PUSH2 0x5E4 JUMPI PUSH2 0x5E3 PUSH2 0x37E JUMP JUMPDEST JUMPDEST PUSH2 0x5F0 DUP5 DUP3 DUP6 ADD PUSH2 0x585 JUMP JUMPDEST SWAP2 POP POP SWAP3 SWAP2 POP POP JUMP JUMPDEST PUSH0 PUSH0 REVERT JUMPDEST PUSH0 PUSH0 DUP4 PUSH1 0x1F DUP5 ADD SLT PUSH2 0x612 JUMPI PUSH2 0x611 PUSH2 0x438 JUMP JUMPDEST JUMPDEST DUP3 CALLDATALOAD SWAP1 POP PUSH8 0xFFFFFFFFFFFFFFFF DUP2 GT ISZERO PUSH2 0x62F JUMPI PUSH2 0x62E PUSH2 0x5F9 JUMP JUMPDEST JUMPDEST PUSH1 0x20 DUP4 ADD SWAP2 POP DUP4 PUSH1 0x1 DUP3 MUL DUP4 ADD GT ISZERO PUSH2 0x64B JUMPI PUSH2 0x64A PUSH2 0x4EF JUMP JUMPDEST JUMPDEST SWAP3 POP SWAP3 SWAP1 POP JUMP JUMPDEST PUSH0 PUSH0 PUSH0 PUSH1 0x40 DUP5 DUP7 SUB SLT ISZERO PUSH2 0x669 JUMPI PUSH2 0x668 PUSH2 0x37A JUMP JUMPDEST JUMPDEST PUSH0 DUP5 ADD CALLDATALOAD PUSH8 0xFFFFFFFFFFFFFFFF DUP2 GT ISZERO PUSH2 0x686 JUMPI PUSH2 0x685 PUSH2 0x37E JUMP JUMPDEST JUMPDEST PUSH2 0x692 DUP7 DUP3 DUP8 ADD PUSH2 0x5FD JUMP JUMPDEST SWAP4 POP SWAP4 POP POP PUSH1 0x20 PUSH2 0x6A5 DUP7 DUP3 DUP8 ADD PUSH2 0x509 JUMP JUMPDEST SWAP2 POP POP SWAP3 POP SWAP3 POP SWAP3 JUMP JUMPDEST PUSH2 0x6B8 DUP2 PUSH2 0x407 JUMP JUMPDEST DUP3 MSTORE POP POP JUMP JUMPDEST PUSH0 DUP2 MLOAD SWAP1 POP SWAP2 SWAP1 POP JUMP JUMPDEST PUSH0 DUP3 DUP3 MSTORE PUSH1 0x20 DUP3 ADD SWAP1 POP SWAP3 SWAP2 POP POP JUMP JUMPDEST DUP3 DUP2 DUP4 MCOPY PUSH0 DUP4 DUP4 ADD MSTORE POP POP POP JUMP JUMPDEST PUSH0 PUSH2 0x6F0 DUP3 PUSH2 0x6BE JUMP JUMPDEST PUSH2 0x6FA DUP2 DUP6 PUSH2 0x6C8 JUMP JUMPDEST SWAP4 POP PUSH2 0x70A DUP2 DUP6 PUSH1 0x20 DUP7 ADD PUSH2 0x6D8 JUMP JUMPDEST PUSH2 0x713 DUP2 PUSH2 0x43C JUMP JUMPDEST DUP5 ADD SWAP2 POP POP SWAP3 SWAP2 POP POP JUMP JUMPDEST PUSH0 PUSH1 0x40 DUP4 ADD PUSH0 DUP4 ADD MLOAD PUSH2 0x733 PUSH0 DUP7 ADD DUP3 PUSH2 0x6AF JUMP JUMPDEST POP PUSH1 0x20 DUP4 ADD MLOAD DUP5 DUP3 SUB PUSH1 0x20 DUP7 ADD MSTORE PUSH2 0x74B DUP3 DUP3 PUSH2 0x6E6 JUMP JUMPDEST SWAP2 POP POP DUP1 SWAP2 POP POP SWAP3 SWAP2 POP POP JUMP JUMPDEST PUSH0 PUSH1 0x20 DUP3 ADD SWAP1 POP DUP2 DUP2 SUB PUSH0 DUP4 ADD MSTORE PUSH2 0x770 DUP2 DUP5 PUSH2 0x71E JUMP JUMPDEST SWAP1 POP SWAP3 SWAP2 POP POP JUMP JUMPDEST PUSH0 PUSH0 REVERT JUMPDEST PUSH0 PUSH1 0x40 DUP3 DUP5 SUB SLT ISZERO PUSH2 0x791 JUMPI PUSH2 0x790 PUSH2 0x778 JUMP JUMPDEST JUMPDEST DUP2 SWAP1 POP SWAP3 SWAP2 POP POP JUMP JUMPDEST PUSH0 PUSH1 0x20 DUP3 DUP5 SUB SLT ISZERO PUSH2 0x7AF JUMPI PUSH2 0x7AE PUSH2 0x37A JUMP JUMPDEST JUMPDEST PUSH0 DUP3 ADD CALLDATALOAD PUSH8 0xFFFFFFFFFFFFFFFF DUP2 GT ISZERO PUSH2 0x7CC JUMPI PUSH2 0x7CB PUSH2 0x37E JUMP JUMPDEST JUMPDEST PUSH2 0x7D8 DUP5 DUP3 DUP6 ADD PUSH2 0x77C JUMP JUMPDEST SWAP2 POP POP SWAP3 SWAP2 POP POP JUMP JUMPDEST PUSH0 PUSH1 0x20 DUP3 DUP5 SUB SLT ISZERO PUSH2 0x7F6 JUMPI PUSH2 0x7F5 PUSH2 0x37A JUMP JUMPDEST JUMPDEST PUSH0 PUSH2 0x803 DUP5 DUP3 DUP6 ADD PUSH2 0x509 JUMP JUMPDEST SWAP2 POP POP SWAP3 SWAP2 POP POP JUMP JUMPDEST PUSH0 PUSH0 REVERT JUMPDEST PUSH0 PUSH0 REVERT JUMPDEST PUSH0 PUSH0 REVERT JUMPDEST PUSH0 PUSH8 0xFFFFFFFFFFFFFFFF DUP3 GT ISZERO PUSH2 0x832 JUMPI PUSH2 0x831 PUSH2 0x44C JUMP JUMPDEST JUMPDEST PUSH2 0x83B DUP3 PUSH2 0x43C JUMP JUMPDEST SWAP1 POP PUSH1 0x20 DUP2 ADD SWAP1 POP SWAP2 SWAP1 POP JUMP JUMPDEST DUP3 DUP2 DUP4 CALLDATACOPY PUSH0 DUP4 DUP4 ADD MSTORE POP POP POP JUMP JUMPDEST PUSH0 PUSH2 0x868 PUSH2 0x863 DUP5 PUSH2 0x818 JUMP JUMPDEST PUSH2 0x4AA JUMP JUMPDEST SWAP1 POP DUP3 DUP2 MSTORE PUSH1 0x20 DUP2 ADD DUP5 DUP5 DUP5 ADD GT ISZERO PUSH2 0x884 JUMPI PUSH2 0x883 PUSH2 0x814 JUMP JUMPDEST JUMPDEST PUSH2 0x88F DUP5 DUP3 DUP6 PUSH2 0x848 JUMP JUMPDEST POP SWAP4 SWAP3 POP POP POP JUMP JUMPDEST PUSH0 DUP3 PUSH1 0x1F DUP4 ADD SLT PUSH2 0x8AB JUMPI PUSH2 0x8AA PUSH2 0x438 JUMP JUMPDEST JUMPDEST DUP2 CALLDATALOAD PUSH2 0x8BB DUP5 DUP3 PUSH1 0x20 DUP7 ADD PUSH2 0x856 JUMP JUMPDEST SWAP2 POP POP SWAP3 SWAP2 POP POP JUMP JUMPDEST PUSH0 PUSH1 0x40 DUP3 DUP5 SUB SLT ISZERO PUSH2 0x8D9 JUMPI PUSH2 0x8D8 PUSH2 0x80C JUMP JUMPDEST JUMPDEST PUSH2 0x8E3 PUSH1 0x40 PUSH2 0x4AA JUMP JUMPDEST SWAP1 POP PUSH0 PUSH2 0x8F2 DUP5 DUP3 DUP6 ADD PUSH2 0x509 JUMP JUMPDEST PUSH0 DUP4 ADD MSTORE POP PUSH1 0x20 DUP3 ADD CALLDATALOAD PUSH8 0xFFFFFFFFFFFFFFFF DUP2 GT ISZERO PUSH2 0x915 JUMPI PUSH2 0x914 PUSH2 0x810 JUMP JUMPDEST JUMPDEST PUSH2 0x921 DUP5 DUP3 DUP6 ADD PUSH2 0x897 JUMP JUMPDEST PUSH1 0x20 DUP4 ADD MSTORE POP SWAP3 SWAP2 POP POP JUMP JUMPDEST PUSH0 PUSH2 0x938 CALLDATASIZE DUP4 PUSH2 0x8C4 JUMP JUMPDEST SWAP1 POP SWAP2 SWAP1 POP JUMP JUMPDEST PUSH32 0x4E487B7100000000000000000000000000000000000000000000000000000000 PUSH0 MSTORE PUSH1 0x11 PUSH1 0x4 MSTORE PUSH1 0x24 PUSH0 REVERT JUMPDEST PUSH0 PUSH2 0x976 DUP3 PUSH2 0x407 JUMP JUMPDEST SWAP2 POP PUSH2 0x981 DUP4 PUSH2 0x407 JUMP JUMPDEST SWAP3 POP DUP3 DUP3 MUL PUSH2 0x98F DUP2 PUSH2 0x407 JUMP JUMPDEST SWAP2 POP DUP3 DUP3 DIV DUP5 EQ DUP4 ISZERO OR PUSH2 0x9A6 JUMPI PUSH2 0x9A5 PUSH2 0x93F JUMP JUMPDEST JUMPDEST POP SWAP3 SWAP2 POP POP JUMP INVALID LOG2 PUSH5 0x6970667358 0x22 SLT KECCAK256 SELFBALANCE 0xBB 0xBB 0x27 0x27 0x4B SWAP1 PC 0xEA 0xC7 0xB1 0xC7 0xBC 0xAF DUP11 CALLF 0x9EDF ADDRESS EXTCODEHASH 0xB8 LT CALLDATASIZE SAR SWAP3 0xAE 0x4C 0xB8 PUSH9 0x76703B64736F6C6343 STOP ADDMOD 0x1E STOP CALLER "
				},
				"gasEstimates": {
					"creation": {
						"codeDepositCost": "506200",
						"executionCost": "infinite",
						"totalCost": "infinite"
					},
					"external": {
						"CONSTANT_VAR()": "348",
						"IMMUTABLE_VAR()": "infinite",
						"balances(address)": "2803",
						"calldataTempStruct((uint256,string))": "infinite",
						"clainVar()": "346",
						"memoryTempStruct(string,uint256)": "infinite",
						"pureFunction(uint256)": "infinite",
						"referenceExample(uint256[])": "infinite",
						"stateVar()": "2469",
						"viewFunction()": "2519"
					},
					"internal": {
						"_call(struct ExampleContract.TempStruct calldata)": "infinite"
					}
				},
				"methodIdentifiers": {
					"CONSTANT_VAR()": "507aab7f",
					"IMMUTABLE_VAR()": "9b05bf81",
					"balances(address)": "27e235e3",
					"calldataTempStruct((uint256,string))": "91644803",
					"clainVar()": "9570264f",
					"memoryTempStruct(string,uint256)": "90ca396a",
					"pureFunction(uint256)": "b9c03b9a",
					"referenceExample(uint256[])": "9080b79b",
					"stateVar()": "793816ec",
					"viewFunction()": "ed36b3d8"
				}
			},
			"storageLayout": {
				"storage": [
					{
						"astId": 4,
						"contract": "1.sol:ExampleContract",
						"label": "stateVar",
						"offset": 0,
						"slot": "0",
						"type": "t_uint256"
					},
					{
						"astId": 8,
						"contract": "1.sol:ExampleContract",
						"label": "balances",
						"offset": 0,
						"slot": "1",
						"type": "t_mapping(t_address,t_uint256)"
					},
					{
						"astId": 11,
						"contract": "1.sol:ExampleContract",
						"label": "someStorageArray",
						"offset": 0,
						"slot": "2",
						"type": "t_array(t_uint256)dyn_storage"
					}
				],
				"types": {
					"t_address": {
						"encoding": "inplace",
						"label": "address",
						"numberOfBytes": "20"
					},
					"t_array(t_uint256)dyn_storage": {
						"base": "t_uint256",
						"encoding": "dynamic_array",
						"label": "uint256[]",
						"numberOfBytes": "32"
					},
					"t_mapping(t_address,t_uint256)": {
						"encoding": "mapping",
						"key": "t_address",
						"label": "mapping(address => uint256)",
						"numberOfBytes": "32",
						"value": "t_uint256"
					},
					"t_uint256": {
						"encoding": "inplace",
						"label": "uint256",
						"numberOfBytes": "32"
					}
				}
			},
			"userdoc": {
				"kind": "user",
				"methods": {},
				"version": 1
			}
		}
	}
}