{
	"task/task01/5.MergeSortedArray.sol": {
		"MergeSortedArray": {
			"abi": [
				{
					"inputs": [
						{
							"internalType": "uint256",
							"name": "",
							"type": "uint256"
						}
					],
					"name": "arr",
					"outputs": [
						{
							"internalType": "uint256",
							"name": "",
							"type": "uint256"
						}
					],
					"stateMutability": "view",
					"type": "function"
				},
				{
					"inputs": [],
					"name": "getArr",
					"outputs": [
						{
							"internalType": "uint256[]",
							"name": "",
							"type": "uint256[]"
						}
					],
					"stateMutability": "view",
					"type": "function"
				},
				{
					"inputs": [
						{
							"internalType": "uint256[]",
							"name": "arr1",
							"type": "uint256[]"
						}
					],
					"name": "insertSort",
					"outputs": [
						{
							"internalType": "uint256[]",
							"name": "",
							"type": "uint256[]"
						}
					],
					"stateMutability": "pure",
					"type": "function"
				},
				{
					"inputs": [
						{
							"internalType": "uint256[]",
							"name": "a",
							"type": "uint256[]"
						},
						{
							"internalType": "uint256[]",
							"name": "b",
							"type": "uint256[]"
						}
					],
					"name": "merge",
					"outputs": [
						{
							"internalType": "uint256[]",
							"name": "",
							"type": "uint256[]"
						}
					],
					"stateMutability": "nonpayable",
					"type": "function"
				}
			],
			"devdoc": {
				"kind": "dev",
				"methods": {},
				"version": 1
			},
			"evm": {
				"assembly": "    /* \"task/task01/5.MergeSortedArray.sol\":55:1107  contract MergeSortedArray {... */\n  mstore(0x40, 0x80)\n  callvalue\n  dup1\n  iszero\n  tag_1\n  jumpi\n  revert(0x00, 0x00)\ntag_1:\n  pop\n  dataSize(sub_0)\n  dup1\n  dataOffset(sub_0)\n  0x00\n  codecopy\n  0x00\n  return\nstop\n\nsub_0: assembly {\n        /* \"task/task01/5.MergeSortedArray.sol\":55:1107  contract MergeSortedArray {... */\n      mstore(0x40, 0x80)\n      callvalue\n      dup1\n      iszero\n      tag_1\n      jumpi\n      revert(0x00, 0x00)\n    tag_1:\n      pop\n      jumpi(tag_2, lt(calldatasize, 0x04))\n      shr(0xe0, calldataload(0x00))\n      dup1\n      0x088b9bf6\n      eq\n      tag_3\n      jumpi\n      dup1\n      0x71e5ee5f\n      eq\n      tag_4\n      jumpi\n      dup1\n      0xb23d97f2\n      eq\n      tag_5\n      jumpi\n      dup1\n      0xfb8cbced\n      eq\n      tag_6\n      jumpi\n    tag_2:\n      revert(0x00, 0x00)\n        /* \"task/task01/5.MergeSortedArray.sol\":114:453  function merge(... */\n    tag_3:\n      tag_7\n      0x04\n      dup1\n      calldatasize\n      sub\n      dup2\n      add\n      swap1\n      tag_8\n      swap2\n      swap1\n      tag_9\n      jump\t// in\n    tag_8:\n      tag_10\n      jump\t// in\n    tag_7:\n      mload(0x40)\n      tag_11\n      swap2\n      swap1\n      tag_12\n      jump\t// in\n    tag_11:\n      mload(0x40)\n      dup1\n      swap2\n      sub\n      swap1\n      return\n        /* \"task/task01/5.MergeSortedArray.sol\":87:107  uint256[] public arr */\n    tag_4:\n      tag_13\n      0x04\n      dup1\n      calldatasize\n      sub\n      dup2\n      add\n      swap1\n      tag_14\n      swap2\n      swap1\n      tag_15\n      jump\t// in\n    tag_14:\n      tag_16\n      jump\t// in\n    tag_13:\n      mload(0x40)\n      tag_17\n      swap2\n      swap1\n      tag_18\n      jump\t// in\n    tag_17:\n      mload(0x40)\n      dup1\n      swap2\n      sub\n      swap1\n      return\n        /* \"task/task01/5.MergeSortedArray.sol\":459:1015  function insertSort(... */\n    tag_5:\n      tag_19\n      0x04\n      dup1\n      calldatasize\n      sub\n      dup2\n      add\n      swap1\n      tag_20\n      swap2\n      swap1\n      tag_21\n      jump\t// in\n    tag_20:\n      tag_22\n      jump\t// in\n    tag_19:\n      mload(0x40)\n      tag_23\n      swap2\n      swap1\n      tag_12\n      jump\t// in\n    tag_23:\n      mload(0x40)\n      dup1\n      swap2\n      sub\n      swap1\n      return\n        /* \"task/task01/5.MergeSortedArray.sol\":1021:1105  function getArr() public view returns (uint256[] memory) {... */\n    tag_6:\n      tag_24\n      tag_25\n      jump\t// in\n    tag_24:\n      mload(0x40)\n      tag_26\n      swap2\n      swap1\n      tag_12\n      jump\t// in\n    tag_26:\n      mload(0x40)\n      dup1\n      swap2\n      sub\n      swap1\n      return\n        /* \"task/task01/5.MergeSortedArray.sol\":114:453  function merge(... */\n    tag_10:\n        /* \"task/task01/5.MergeSortedArray.sol\":207:223  uint256[] memory */\n      0x60\n        /* \"task/task01/5.MergeSortedArray.sol\":240:246  uint i */\n      0x00\n        /* \"task/task01/5.MergeSortedArray.sol\":249:250  0 */\n      0x00\n        /* \"task/task01/5.MergeSortedArray.sol\":240:250  uint i = 0 */\n      swap1\n      pop\n        /* \"task/task01/5.MergeSortedArray.sol\":235:310  for (uint i = 0; i < a.length; i++) {... */\n    tag_28:\n        /* \"task/task01/5.MergeSortedArray.sol\":256:257  a */\n      dup4\n        /* \"task/task01/5.MergeSortedArray.sol\":256:264  a.length */\n      mload\n        /* \"task/task01/5.MergeSortedArray.sol\":252:253  i */\n      dup2\n        /* \"task/task01/5.MergeSortedArray.sol\":252:264  i < a.length */\n      lt\n        /* \"task/task01/5.MergeSortedArray.sol\":235:310  for (uint i = 0; i < a.length; i++) {... */\n      iszero\n      tag_29\n      jumpi\n        /* \"task/task01/5.MergeSortedArray.sol\":285:288  arr */\n      0x00\n        /* \"task/task01/5.MergeSortedArray.sol\":294:295  a */\n      dup5\n        /* \"task/task01/5.MergeSortedArray.sol\":296:297  i */\n      dup3\n        /* \"task/task01/5.MergeSortedArray.sol\":294:298  a[i] */\n      dup2\n      mload\n      dup2\n      lt\n      tag_31\n      jumpi\n      tag_32\n      tag_33\n      jump\t// in\n    tag_32:\n    tag_31:\n      0x20\n      mul\n      0x20\n      add\n      add\n      mload\n        /* \"task/task01/5.MergeSortedArray.sol\":285:299  arr.push(a[i]) */\n      swap1\n      dup1\n      0x01\n      dup2\n      sload\n      add\n      dup1\n      dup3\n      sstore\n      dup1\n      swap2\n      pop\n      pop\n      0x01\n      swap1\n      sub\n      swap1\n      0x00\n      mstore\n      keccak256(0x00, 0x20)\n      add\n      0x00\n      swap1\n      swap2\n      swap1\n      swap2\n      swap1\n      swap2\n      pop\n      sstore\n        /* \"task/task01/5.MergeSortedArray.sol\":266:269  i++ */\n      dup1\n      dup1\n      0x01\n      add\n      swap2\n      pop\n      pop\n        /* \"task/task01/5.MergeSortedArray.sol\":235:310  for (uint i = 0; i < a.length; i++) {... */\n      jump(tag_28)\n    tag_29:\n      pop\n        /* \"task/task01/5.MergeSortedArray.sol\":325:331  uint i */\n      0x00\n        /* \"task/task01/5.MergeSortedArray.sol\":334:335  0 */\n      0x00\n        /* \"task/task01/5.MergeSortedArray.sol\":325:335  uint i = 0 */\n      swap1\n      pop\n        /* \"task/task01/5.MergeSortedArray.sol\":320:395  for (uint i = 0; i < b.length; i++) {... */\n    tag_35:\n        /* \"task/task01/5.MergeSortedArray.sol\":341:342  b */\n      dup3\n        /* \"task/task01/5.MergeSortedArray.sol\":341:349  b.length */\n      mload\n        /* \"task/task01/5.MergeSortedArray.sol\":337:338  i */\n      dup2\n        /* \"task/task01/5.MergeSortedArray.sol\":337:349  i < b.length */\n      lt\n        /* \"task/task01/5.MergeSortedArray.sol\":320:395  for (uint i = 0; i < b.length; i++) {... */\n      iszero\n      tag_36\n      jumpi\n        /* \"task/task01/5.MergeSortedArray.sol\":370:373  arr */\n      0x00\n        /* \"task/task01/5.MergeSortedArray.sol\":379:380  b */\n      dup4\n        /* \"task/task01/5.MergeSortedArray.sol\":381:382  i */\n      dup3\n        /* \"task/task01/5.MergeSortedArray.sol\":379:383  b[i] */\n      dup2\n      mload\n      dup2\n      lt\n      tag_38\n      jumpi\n      tag_39\n      tag_33\n      jump\t// in\n    tag_39:\n    tag_38:\n      0x20\n      mul\n      0x20\n      add\n      add\n      mload\n        /* \"task/task01/5.MergeSortedArray.sol\":370:384  arr.push(b[i]) */\n      swap1\n      dup1\n      0x01\n      dup2\n      sload\n      add\n      dup1\n      dup3\n      sstore\n      dup1\n      swap2\n      pop\n      pop\n      0x01\n      swap1\n      sub\n      swap1\n      0x00\n      mstore\n      keccak256(0x00, 0x20)\n      add\n      0x00\n      swap1\n      swap2\n      swap1\n      swap2\n      swap1\n      swap2\n      pop\n      sstore\n        /* \"task/task01/5.MergeSortedArray.sol\":351:354  i++ */\n      dup1\n      dup1\n      0x01\n      add\n      swap2\n      pop\n      pop\n        /* \"task/task01/5.MergeSortedArray.sol\":320:395  for (uint i = 0; i < b.length; i++) {... */\n      jump(tag_35)\n    tag_36:\n      pop\n        /* \"task/task01/5.MergeSortedArray.sol\":411:426  insertSort(arr) */\n      tag_41\n        /* \"task/task01/5.MergeSortedArray.sol\":422:425  arr */\n      0x00\n        /* \"task/task01/5.MergeSortedArray.sol\":411:426  insertSort(arr) */\n      dup1\n      sload\n      dup1\n      0x20\n      mul\n      0x20\n      add\n      mload(0x40)\n      swap1\n      dup2\n      add\n      0x40\n      mstore\n      dup1\n      swap3\n      swap2\n      swap1\n      dup2\n      dup2\n      mstore\n      0x20\n      add\n      dup3\n      dup1\n      sload\n      dup1\n      iszero\n      tag_42\n      jumpi\n      0x20\n      mul\n      dup3\n      add\n      swap2\n      swap1\n      0x00\n      mstore\n      keccak256(0x00, 0x20)\n      swap1\n    tag_43:\n      dup2\n      sload\n      dup2\n      mstore\n      0x20\n      add\n      swap1\n      0x01\n      add\n      swap1\n      dup1\n      dup4\n      gt\n      tag_43\n      jumpi\n    tag_42:\n      pop\n      pop\n      pop\n      pop\n      pop\n        /* \"task/task01/5.MergeSortedArray.sol\":411:421  insertSort */\n      tag_22\n        /* \"task/task01/5.MergeSortedArray.sol\":411:426  insertSort(arr) */\n      jump\t// in\n    tag_41:\n        /* \"task/task01/5.MergeSortedArray.sol\":405:408  arr */\n      0x00\n        /* \"task/task01/5.MergeSortedArray.sol\":405:426  arr = insertSort(arr) */\n      swap1\n      dup1\n      mload\n      swap1\n      0x20\n      add\n      swap1\n      tag_44\n      swap3\n      swap2\n      swap1\n      tag_45\n      jump\t// in\n    tag_44:\n      pop\n        /* \"task/task01/5.MergeSortedArray.sol\":443:446  arr */\n      0x00\n        /* \"task/task01/5.MergeSortedArray.sol\":436:446  return arr */\n      dup1\n      sload\n      dup1\n      0x20\n      mul\n      0x20\n      add\n      mload(0x40)\n      swap1\n      dup2\n      add\n      0x40\n      mstore\n      dup1\n      swap3\n      swap2\n      swap1\n      dup2\n      dup2\n      mstore\n      0x20\n      add\n      dup3\n      dup1\n      sload\n      dup1\n      iszero\n      tag_46\n      jumpi\n      0x20\n      mul\n      dup3\n      add\n      swap2\n      swap1\n      0x00\n      mstore\n      keccak256(0x00, 0x20)\n      swap1\n    tag_47:\n      dup2\n      sload\n      dup2\n      mstore\n      0x20\n      add\n      swap1\n      0x01\n      add\n      swap1\n      dup1\n      dup4\n      gt\n      tag_47\n      jumpi\n    tag_46:\n      pop\n      pop\n      pop\n      pop\n      pop\n      swap1\n      pop\n        /* \"task/task01/5.MergeSortedArray.sol\":114:453  function merge(... */\n      swap3\n      swap2\n      pop\n      pop\n      jump\t// out\n        /* \"task/task01/5.MergeSortedArray.sol\":87:107  uint256[] public arr */\n    tag_16:\n      0x00\n      dup2\n      dup2\n      sload\n      dup2\n      lt\n      tag_48\n      jumpi\n      0x00\n      dup1\n      revert\n    tag_48:\n      swap1\n      0x00\n      mstore\n      keccak256(0x00, 0x20)\n      add\n      0x00\n      swap2\n      pop\n      swap1\n      pop\n      sload\n      dup2\n      jump\t// out\n        /* \"task/task01/5.MergeSortedArray.sol\":459:1015  function insertSort(... */\n    tag_22:\n        /* \"task/task01/5.MergeSortedArray.sol\":537:553  uint256[] memory */\n      0x60\n        /* \"task/task01/5.MergeSortedArray.sol\":565:589  uint256[] memory tempArr */\n      0x00\n        /* \"task/task01/5.MergeSortedArray.sol\":592:596  arr1 */\n      dup3\n        /* \"task/task01/5.MergeSortedArray.sol\":565:596  uint256[] memory tempArr = arr1 */\n      swap1\n      pop\n        /* \"task/task01/5.MergeSortedArray.sol\":606:618  uint256 temp */\n      0x00\n        /* \"task/task01/5.MergeSortedArray.sol\":628:639  uint256 len */\n      0x00\n        /* \"task/task01/5.MergeSortedArray.sol\":642:649  tempArr */\n      dup3\n        /* \"task/task01/5.MergeSortedArray.sol\":642:656  tempArr.length */\n      mload\n        /* \"task/task01/5.MergeSortedArray.sol\":628:656  uint256 len = tempArr.length */\n      swap1\n      pop\n        /* \"task/task01/5.MergeSortedArray.sol\":666:680  uint256 pIndex */\n      0x00\n        /* \"task/task01/5.MergeSortedArray.sol\":695:704  uint256 i */\n      0x00\n        /* \"task/task01/5.MergeSortedArray.sol\":707:708  1 */\n      0x01\n        /* \"task/task01/5.MergeSortedArray.sol\":695:708  uint256 i = 1 */\n      swap1\n      pop\n        /* \"task/task01/5.MergeSortedArray.sol\":690:985  for (uint256 i = 1; i < len; ++i) {... */\n    tag_51:\n        /* \"task/task01/5.MergeSortedArray.sol\":714:717  len */\n      dup3\n        /* \"task/task01/5.MergeSortedArray.sol\":710:711  i */\n      dup2\n        /* \"task/task01/5.MergeSortedArray.sol\":710:717  i < len */\n      lt\n        /* \"task/task01/5.MergeSortedArray.sol\":690:985  for (uint256 i = 1; i < len; ++i) {... */\n      iszero\n      tag_52\n      jumpi\n        /* \"task/task01/5.MergeSortedArray.sol\":745:752  tempArr */\n      dup5\n        /* \"task/task01/5.MergeSortedArray.sol\":753:754  i */\n      dup2\n        /* \"task/task01/5.MergeSortedArray.sol\":745:755  tempArr[i] */\n      dup2\n      mload\n      dup2\n      lt\n      tag_54\n      jumpi\n      tag_55\n      tag_33\n      jump\t// in\n    tag_55:\n    tag_54:\n      0x20\n      mul\n      0x20\n      add\n      add\n      mload\n        /* \"task/task01/5.MergeSortedArray.sol\":738:755  temp = tempArr[i] */\n      swap4\n      pop\n        /* \"task/task01/5.MergeSortedArray.sol\":778:779  i */\n      dup1\n        /* \"task/task01/5.MergeSortedArray.sol\":769:779  pIndex = i */\n      swap2\n      pop\n        /* \"task/task01/5.MergeSortedArray.sol\":793:939  while (pIndex >= 1 && temp < tempArr[pIndex - 1]) {... */\n    tag_56:\n        /* \"task/task01/5.MergeSortedArray.sol\":810:811  1 */\n      0x01\n        /* \"task/task01/5.MergeSortedArray.sol\":800:806  pIndex */\n      dup3\n        /* \"task/task01/5.MergeSortedArray.sol\":800:811  pIndex >= 1 */\n      lt\n      iszero\n        /* \"task/task01/5.MergeSortedArray.sol\":800:841  pIndex >= 1 && temp < tempArr[pIndex - 1] */\n      dup1\n      iszero\n      tag_58\n      jumpi\n      pop\n        /* \"task/task01/5.MergeSortedArray.sol\":822:829  tempArr */\n      dup5\n        /* \"task/task01/5.MergeSortedArray.sol\":839:840  1 */\n      0x01\n        /* \"task/task01/5.MergeSortedArray.sol\":830:836  pIndex */\n      dup4\n        /* \"task/task01/5.MergeSortedArray.sol\":830:840  pIndex - 1 */\n      tag_59\n      swap2\n      swap1\n      tag_60\n      jump\t// in\n    tag_59:\n        /* \"task/task01/5.MergeSortedArray.sol\":822:841  tempArr[pIndex - 1] */\n      dup2\n      mload\n      dup2\n      lt\n      tag_61\n      jumpi\n      tag_62\n      tag_33\n      jump\t// in\n    tag_62:\n    tag_61:\n      0x20\n      mul\n      0x20\n      add\n      add\n      mload\n        /* \"task/task01/5.MergeSortedArray.sol\":815:819  temp */\n      dup5\n        /* \"task/task01/5.MergeSortedArray.sol\":815:841  temp < tempArr[pIndex - 1] */\n      lt\n        /* \"task/task01/5.MergeSortedArray.sol\":800:841  pIndex >= 1 && temp < tempArr[pIndex - 1] */\n    tag_58:\n        /* \"task/task01/5.MergeSortedArray.sol\":793:939  while (pIndex >= 1 && temp < tempArr[pIndex - 1]) {... */\n      iszero\n      tag_57\n      jumpi\n        /* \"task/task01/5.MergeSortedArray.sol\":879:886  tempArr */\n      dup5\n        /* \"task/task01/5.MergeSortedArray.sol\":896:897  1 */\n      0x01\n        /* \"task/task01/5.MergeSortedArray.sol\":887:893  pIndex */\n      dup4\n        /* \"task/task01/5.MergeSortedArray.sol\":887:897  pIndex - 1 */\n      tag_63\n      swap2\n      swap1\n      tag_60\n      jump\t// in\n    tag_63:\n        /* \"task/task01/5.MergeSortedArray.sol\":879:898  tempArr[pIndex - 1] */\n      dup2\n      mload\n      dup2\n      lt\n      tag_64\n      jumpi\n      tag_65\n      tag_33\n      jump\t// in\n    tag_65:\n    tag_64:\n      0x20\n      mul\n      0x20\n      add\n      add\n      mload\n        /* \"task/task01/5.MergeSortedArray.sol\":861:868  tempArr */\n      dup6\n        /* \"task/task01/5.MergeSortedArray.sol\":869:875  pIndex */\n      dup4\n        /* \"task/task01/5.MergeSortedArray.sol\":861:876  tempArr[pIndex] */\n      dup2\n      mload\n      dup2\n      lt\n      tag_66\n      jumpi\n      tag_67\n      tag_33\n      jump\t// in\n    tag_67:\n    tag_66:\n      0x20\n      mul\n      0x20\n      add\n      add\n        /* \"task/task01/5.MergeSortedArray.sol\":861:898  tempArr[pIndex] = tempArr[pIndex - 1] */\n      dup2\n      dup2\n      mstore\n      pop\n      pop\n        /* \"task/task01/5.MergeSortedArray.sol\":916:924  --pIndex */\n      dup2\n      tag_68\n      swap1\n      tag_69\n      jump\t// in\n    tag_68:\n      swap2\n      pop\n        /* \"task/task01/5.MergeSortedArray.sol\":793:939  while (pIndex >= 1 && temp < tempArr[pIndex - 1]) {... */\n      jump(tag_56)\n    tag_57:\n        /* \"task/task01/5.MergeSortedArray.sol\":970:974  temp */\n      dup4\n        /* \"task/task01/5.MergeSortedArray.sol\":952:959  tempArr */\n      dup6\n        /* \"task/task01/5.MergeSortedArray.sol\":960:966  pIndex */\n      dup4\n        /* \"task/task01/5.MergeSortedArray.sol\":952:967  tempArr[pIndex] */\n      dup2\n      mload\n      dup2\n      lt\n      tag_70\n      jumpi\n      tag_71\n      tag_33\n      jump\t// in\n    tag_71:\n    tag_70:\n      0x20\n      mul\n      0x20\n      add\n      add\n        /* \"task/task01/5.MergeSortedArray.sol\":952:974  tempArr[pIndex] = temp */\n      dup2\n      dup2\n      mstore\n      pop\n      pop\n        /* \"task/task01/5.MergeSortedArray.sol\":719:722  ++i */\n      dup1\n      0x01\n      add\n      swap1\n      pop\n        /* \"task/task01/5.MergeSortedArray.sol\":690:985  for (uint256 i = 1; i < len; ++i) {... */\n      jump(tag_51)\n    tag_52:\n      pop\n        /* \"task/task01/5.MergeSortedArray.sol\":1001:1008  tempArr */\n      dup4\n        /* \"task/task01/5.MergeSortedArray.sol\":994:1008  return tempArr */\n      swap5\n      pop\n      pop\n      pop\n      pop\n      pop\n        /* \"task/task01/5.MergeSortedArray.sol\":459:1015  function insertSort(... */\n      swap2\n      swap1\n      pop\n      jump\t// out\n        /* \"task/task01/5.MergeSortedArray.sol\":1021:1105  function getArr() public view returns (uint256[] memory) {... */\n    tag_25:\n        /* \"task/task01/5.MergeSortedArray.sol\":1060:1076  uint256[] memory */\n      0x60\n        /* \"task/task01/5.MergeSortedArray.sol\":1095:1098  arr */\n      0x00\n        /* \"task/task01/5.MergeSortedArray.sol\":1088:1098  return arr */\n      dup1\n      sload\n      dup1\n      0x20\n      mul\n      0x20\n      add\n      mload(0x40)\n      swap1\n      dup2\n      add\n      0x40\n      mstore\n      dup1\n      swap3\n      swap2\n      swap1\n      dup2\n      dup2\n      mstore\n      0x20\n      add\n      dup3\n      dup1\n      sload\n      dup1\n      iszero\n      tag_73\n      jumpi\n      0x20\n      mul\n      dup3\n      add\n      swap2\n      swap1\n      0x00\n      mstore\n      keccak256(0x00, 0x20)\n      swap1\n    tag_74:\n      dup2\n      sload\n      dup2\n      mstore\n      0x20\n      add\n      swap1\n      0x01\n      add\n      swap1\n      dup1\n      dup4\n      gt\n      tag_74\n      jumpi\n    tag_73:\n      pop\n      pop\n      pop\n      pop\n      pop\n      swap1\n      pop\n        /* \"task/task01/5.MergeSortedArray.sol\":1021:1105  function getArr() public view returns (uint256[] memory) {... */\n      swap1\n      jump\t// out\n    tag_45:\n      dup3\n      dup1\n      sload\n      dup3\n      dup3\n      sstore\n      swap1\n      0x00\n      mstore\n      keccak256(0x00, 0x20)\n      swap1\n      dup2\n      add\n      swap3\n      dup3\n      iszero\n      tag_75\n      jumpi\n      swap2\n      0x20\n      mul\n      dup3\n      add\n    tag_76:\n      dup3\n      dup2\n      gt\n      iszero\n      tag_77\n      jumpi\n      dup3\n      mload\n      dup3\n      sstore\n      swap2\n      0x20\n      add\n      swap2\n      swap1\n      0x01\n      add\n      swap1\n      jump(tag_76)\n    tag_77:\n    tag_75:\n      pop\n      swap1\n      pop\n      tag_78\n      swap2\n      swap1\n      tag_79\n      jump\t// in\n    tag_78:\n      pop\n      swap1\n      jump\t// out\n    tag_79:\n    tag_80:\n      dup1\n      dup3\n      gt\n      iszero\n      tag_81\n      jumpi\n      0x00\n      dup2\n      0x00\n      swap1\n      sstore\n      pop\n      0x01\n      add\n      jump(tag_80)\n    tag_81:\n      pop\n      swap1\n      jump\t// out\n        /* \"#utility.yul\":7:82   */\n    tag_82:\n        /* \"#utility.yul\":40:46   */\n      0x00\n        /* \"#utility.yul\":73:75   */\n      0x40\n        /* \"#utility.yul\":67:76   */\n      mload\n        /* \"#utility.yul\":57:76   */\n      swap1\n      pop\n        /* \"#utility.yul\":7:82   */\n      swap1\n      jump\t// out\n        /* \"#utility.yul\":88:205   */\n    tag_83:\n        /* \"#utility.yul\":197:198   */\n      0x00\n        /* \"#utility.yul\":194:195   */\n      0x00\n        /* \"#utility.yul\":187:199   */\n      revert\n        /* \"#utility.yul\":211:328   */\n    tag_84:\n        /* \"#utility.yul\":320:321   */\n      0x00\n        /* \"#utility.yul\":317:318   */\n      0x00\n        /* \"#utility.yul\":310:322   */\n      revert\n        /* \"#utility.yul\":334:451   */\n    tag_85:\n        /* \"#utility.yul\":443:444   */\n      0x00\n        /* \"#utility.yul\":440:441   */\n      0x00\n        /* \"#utility.yul\":433:445   */\n      revert\n        /* \"#utility.yul\":457:559   */\n    tag_86:\n        /* \"#utility.yul\":498:504   */\n      0x00\n        /* \"#utility.yul\":549:551   */\n      0x1f\n        /* \"#utility.yul\":545:552   */\n      not\n        /* \"#utility.yul\":540:542   */\n      0x1f\n        /* \"#utility.yul\":533:538   */\n      dup4\n        /* \"#utility.yul\":529:543   */\n      add\n        /* \"#utility.yul\":525:553   */\n      and\n        /* \"#utility.yul\":515:553   */\n      swap1\n      pop\n        /* \"#utility.yul\":457:559   */\n      swap2\n      swap1\n      pop\n      jump\t// out\n        /* \"#utility.yul\":565:745   */\n    tag_87:\n        /* \"#utility.yul\":613:690   */\n      0x4e487b7100000000000000000000000000000000000000000000000000000000\n        /* \"#utility.yul\":610:611   */\n      0x00\n        /* \"#utility.yul\":603:691   */\n      mstore\n        /* \"#utility.yul\":710:714   */\n      0x41\n        /* \"#utility.yul\":707:708   */\n      0x04\n        /* \"#utility.yul\":700:715   */\n      mstore\n        /* \"#utility.yul\":734:738   */\n      0x24\n        /* \"#utility.yul\":731:732   */\n      0x00\n        /* \"#utility.yul\":724:739   */\n      revert\n        /* \"#utility.yul\":751:1032   */\n    tag_88:\n        /* \"#utility.yul\":834:861   */\n      tag_114\n        /* \"#utility.yul\":856:860   */\n      dup3\n        /* \"#utility.yul\":834:861   */\n      tag_86\n      jump\t// in\n    tag_114:\n        /* \"#utility.yul\":826:832   */\n      dup2\n        /* \"#utility.yul\":822:862   */\n      add\n        /* \"#utility.yul\":964:970   */\n      dup2\n        /* \"#utility.yul\":952:962   */\n      dup2\n        /* \"#utility.yul\":949:971   */\n      lt\n        /* \"#utility.yul\":928:946   */\n      0xffffffffffffffff\n        /* \"#utility.yul\":916:926   */\n      dup3\n        /* \"#utility.yul\":913:947   */\n      gt\n        /* \"#utility.yul\":910:972   */\n      or\n        /* \"#utility.yul\":907:995   */\n      iszero\n      tag_115\n      jumpi\n        /* \"#utility.yul\":975:993   */\n      tag_116\n      tag_87\n      jump\t// in\n    tag_116:\n        /* \"#utility.yul\":907:995   */\n    tag_115:\n        /* \"#utility.yul\":1015:1025   */\n      dup1\n        /* \"#utility.yul\":1011:1013   */\n      0x40\n        /* \"#utility.yul\":1004:1026   */\n      mstore\n        /* \"#utility.yul\":794:1032   */\n      pop\n        /* \"#utility.yul\":751:1032   */\n      pop\n      pop\n      jump\t// out\n        /* \"#utility.yul\":1038:1167   */\n    tag_89:\n        /* \"#utility.yul\":1072:1078   */\n      0x00\n        /* \"#utility.yul\":1099:1119   */\n      tag_118\n      tag_82\n      jump\t// in\n    tag_118:\n        /* \"#utility.yul\":1089:1119   */\n      swap1\n      pop\n        /* \"#utility.yul\":1128:1161   */\n      tag_119\n        /* \"#utility.yul\":1156:1160   */\n      dup3\n        /* \"#utility.yul\":1148:1154   */\n      dup3\n        /* \"#utility.yul\":1128:1161   */\n      tag_88\n      jump\t// in\n    tag_119:\n        /* \"#utility.yul\":1038:1167   */\n      swap2\n      swap1\n      pop\n      jump\t// out\n        /* \"#utility.yul\":1173:1484   */\n    tag_90:\n        /* \"#utility.yul\":1250:1254   */\n      0x00\n        /* \"#utility.yul\":1340:1358   */\n      0xffffffffffffffff\n        /* \"#utility.yul\":1332:1338   */\n      dup3\n        /* \"#utility.yul\":1329:1359   */\n      gt\n        /* \"#utility.yul\":1326:1382   */\n      iszero\n      tag_121\n      jumpi\n        /* \"#utility.yul\":1362:1380   */\n      tag_122\n      tag_87\n      jump\t// in\n    tag_122:\n        /* \"#utility.yul\":1326:1382   */\n    tag_121:\n        /* \"#utility.yul\":1412:1416   */\n      0x20\n        /* \"#utility.yul\":1404:1410   */\n      dup3\n        /* \"#utility.yul\":1400:1417   */\n      mul\n        /* \"#utility.yul\":1392:1417   */\n      swap1\n      pop\n        /* \"#utility.yul\":1472:1476   */\n      0x20\n        /* \"#utility.yul\":1466:1470   */\n      dup2\n        /* \"#utility.yul\":1462:1477   */\n      add\n        /* \"#utility.yul\":1454:1477   */\n      swap1\n      pop\n        /* \"#utility.yul\":1173:1484   */\n      swap2\n      swap1\n      pop\n      jump\t// out\n        /* \"#utility.yul\":1490:1607   */\n    tag_91:\n        /* \"#utility.yul\":1599:1600   */\n      0x00\n        /* \"#utility.yul\":1596:1597   */\n      0x00\n        /* \"#utility.yul\":1589:1601   */\n      revert\n        /* \"#utility.yul\":1613:1690   */\n    tag_92:\n        /* \"#utility.yul\":1650:1657   */\n      0x00\n        /* \"#utility.yul\":1679:1684   */\n      dup2\n        /* \"#utility.yul\":1668:1684   */\n      swap1\n      pop\n        /* \"#utility.yul\":1613:1690   */\n      swap2\n      swap1\n      pop\n      jump\t// out\n        /* \"#utility.yul\":1696:1818   */\n    tag_93:\n        /* \"#utility.yul\":1769:1793   */\n      tag_126\n        /* \"#utility.yul\":1787:1792   */\n      dup2\n        /* \"#utility.yul\":1769:1793   */\n      tag_92\n      jump\t// in\n    tag_126:\n        /* \"#utility.yul\":1762:1767   */\n      dup2\n        /* \"#utility.yul\":1759:1794   */\n      eq\n        /* \"#utility.yul\":1749:1812   */\n      tag_127\n      jumpi\n        /* \"#utility.yul\":1808:1809   */\n      0x00\n        /* \"#utility.yul\":1805:1806   */\n      0x00\n        /* \"#utility.yul\":1798:1810   */\n      revert\n        /* \"#utility.yul\":1749:1812   */\n    tag_127:\n        /* \"#utility.yul\":1696:1818   */\n      pop\n      jump\t// out\n        /* \"#utility.yul\":1824:1963   */\n    tag_94:\n        /* \"#utility.yul\":1870:1875   */\n      0x00\n        /* \"#utility.yul\":1908:1914   */\n      dup2\n        /* \"#utility.yul\":1895:1915   */\n      calldataload\n        /* \"#utility.yul\":1886:1915   */\n      swap1\n      pop\n        /* \"#utility.yul\":1924:1957   */\n      tag_129\n        /* \"#utility.yul\":1951:1956   */\n      dup2\n        /* \"#utility.yul\":1924:1957   */\n      tag_93\n      jump\t// in\n    tag_129:\n        /* \"#utility.yul\":1824:1963   */\n      swap3\n      swap2\n      pop\n      pop\n      jump\t// out\n        /* \"#utility.yul\":1986:2696   */\n    tag_95:\n        /* \"#utility.yul\":2082:2087   */\n      0x00\n        /* \"#utility.yul\":2107:2188   */\n      tag_131\n        /* \"#utility.yul\":2123:2187   */\n      tag_132\n        /* \"#utility.yul\":2180:2186   */\n      dup5\n        /* \"#utility.yul\":2123:2187   */\n      tag_90\n      jump\t// in\n    tag_132:\n        /* \"#utility.yul\":2107:2188   */\n      tag_89\n      jump\t// in\n    tag_131:\n        /* \"#utility.yul\":2098:2188   */\n      swap1\n      pop\n        /* \"#utility.yul\":2208:2213   */\n      dup1\n        /* \"#utility.yul\":2237:2243   */\n      dup4\n        /* \"#utility.yul\":2230:2235   */\n      dup3\n        /* \"#utility.yul\":2223:2244   */\n      mstore\n        /* \"#utility.yul\":2271:2275   */\n      0x20\n        /* \"#utility.yul\":2264:2269   */\n      dup3\n        /* \"#utility.yul\":2260:2276   */\n      add\n        /* \"#utility.yul\":2253:2276   */\n      swap1\n      pop\n        /* \"#utility.yul\":2324:2328   */\n      0x20\n        /* \"#utility.yul\":2316:2322   */\n      dup5\n        /* \"#utility.yul\":2312:2329   */\n      mul\n        /* \"#utility.yul\":2304:2310   */\n      dup4\n        /* \"#utility.yul\":2300:2330   */\n      add\n        /* \"#utility.yul\":2353:2356   */\n      dup6\n        /* \"#utility.yul\":2345:2351   */\n      dup2\n        /* \"#utility.yul\":2342:2357   */\n      gt\n        /* \"#utility.yul\":2339:2461   */\n      iszero\n      tag_133\n      jumpi\n        /* \"#utility.yul\":2372:2451   */\n      tag_134\n      tag_91\n      jump\t// in\n    tag_134:\n        /* \"#utility.yul\":2339:2461   */\n    tag_133:\n        /* \"#utility.yul\":2487:2493   */\n      dup4\n        /* \"#utility.yul\":2470:2690   */\n    tag_135:\n        /* \"#utility.yul\":2504:2510   */\n      dup2\n        /* \"#utility.yul\":2499:2502   */\n      dup2\n        /* \"#utility.yul\":2496:2511   */\n      lt\n        /* \"#utility.yul\":2470:2690   */\n      iszero\n      tag_137\n      jumpi\n        /* \"#utility.yul\":2579:2582   */\n      dup1\n        /* \"#utility.yul\":2608:2645   */\n      tag_138\n        /* \"#utility.yul\":2641:2644   */\n      dup9\n        /* \"#utility.yul\":2629:2639   */\n      dup3\n        /* \"#utility.yul\":2608:2645   */\n      tag_94\n      jump\t// in\n    tag_138:\n        /* \"#utility.yul\":2603:2606   */\n      dup5\n        /* \"#utility.yul\":2596:2646   */\n      mstore\n        /* \"#utility.yul\":2675:2679   */\n      0x20\n        /* \"#utility.yul\":2670:2673   */\n      dup5\n        /* \"#utility.yul\":2666:2680   */\n      add\n        /* \"#utility.yul\":2659:2680   */\n      swap4\n      pop\n        /* \"#utility.yul\":2546:2690   */\n      pop\n        /* \"#utility.yul\":2530:2534   */\n      0x20\n        /* \"#utility.yul\":2525:2528   */\n      dup2\n        /* \"#utility.yul\":2521:2535   */\n      add\n        /* \"#utility.yul\":2514:2535   */\n      swap1\n      pop\n        /* \"#utility.yul\":2470:2690   */\n      jump(tag_135)\n    tag_137:\n        /* \"#utility.yul\":2474:2495   */\n      pop\n        /* \"#utility.yul\":2088:2696   */\n      pop\n      pop\n        /* \"#utility.yul\":1986:2696   */\n      swap4\n      swap3\n      pop\n      pop\n      pop\n      jump\t// out\n        /* \"#utility.yul\":2719:3089   */\n    tag_96:\n        /* \"#utility.yul\":2790:2795   */\n      0x00\n        /* \"#utility.yul\":2839:2842   */\n      dup3\n        /* \"#utility.yul\":2832:2836   */\n      0x1f\n        /* \"#utility.yul\":2824:2830   */\n      dup4\n        /* \"#utility.yul\":2820:2837   */\n      add\n        /* \"#utility.yul\":2816:2843   */\n      slt\n        /* \"#utility.yul\":2806:2928   */\n      tag_140\n      jumpi\n        /* \"#utility.yul\":2847:2926   */\n      tag_141\n      tag_85\n      jump\t// in\n    tag_141:\n        /* \"#utility.yul\":2806:2928   */\n    tag_140:\n        /* \"#utility.yul\":2964:2970   */\n      dup2\n        /* \"#utility.yul\":2951:2971   */\n      calldataload\n        /* \"#utility.yul\":2989:3083   */\n      tag_142\n        /* \"#utility.yul\":3079:3082   */\n      dup5\n        /* \"#utility.yul\":3071:3077   */\n      dup3\n        /* \"#utility.yul\":3064:3068   */\n      0x20\n        /* \"#utility.yul\":3056:3062   */\n      dup7\n        /* \"#utility.yul\":3052:3069   */\n      add\n        /* \"#utility.yul\":2989:3083   */\n      tag_95\n      jump\t// in\n    tag_142:\n        /* \"#utility.yul\":2980:3083   */\n      swap2\n      pop\n        /* \"#utility.yul\":2796:3089   */\n      pop\n        /* \"#utility.yul\":2719:3089   */\n      swap3\n      swap2\n      pop\n      pop\n      jump\t// out\n        /* \"#utility.yul\":3095:3989   */\n    tag_9:\n        /* \"#utility.yul\":3213:3219   */\n      0x00\n        /* \"#utility.yul\":3221:3227   */\n      0x00\n        /* \"#utility.yul\":3270:3272   */\n      0x40\n        /* \"#utility.yul\":3258:3267   */\n      dup4\n        /* \"#utility.yul\":3249:3256   */\n      dup6\n        /* \"#utility.yul\":3245:3268   */\n      sub\n        /* \"#utility.yul\":3241:3273   */\n      slt\n        /* \"#utility.yul\":3238:3357   */\n      iszero\n      tag_144\n      jumpi\n        /* \"#utility.yul\":3276:3355   */\n      tag_145\n      tag_83\n      jump\t// in\n    tag_145:\n        /* \"#utility.yul\":3238:3357   */\n    tag_144:\n        /* \"#utility.yul\":3424:3425   */\n      0x00\n        /* \"#utility.yul\":3413:3422   */\n      dup4\n        /* \"#utility.yul\":3409:3426   */\n      add\n        /* \"#utility.yul\":3396:3427   */\n      calldataload\n        /* \"#utility.yul\":3454:3472   */\n      0xffffffffffffffff\n        /* \"#utility.yul\":3446:3452   */\n      dup2\n        /* \"#utility.yul\":3443:3473   */\n      gt\n        /* \"#utility.yul\":3440:3557   */\n      iszero\n      tag_146\n      jumpi\n        /* \"#utility.yul\":3476:3555   */\n      tag_147\n      tag_84\n      jump\t// in\n    tag_147:\n        /* \"#utility.yul\":3440:3557   */\n    tag_146:\n        /* \"#utility.yul\":3581:3659   */\n      tag_148\n        /* \"#utility.yul\":3651:3658   */\n      dup6\n        /* \"#utility.yul\":3642:3648   */\n      dup3\n        /* \"#utility.yul\":3631:3640   */\n      dup7\n        /* \"#utility.yul\":3627:3649   */\n      add\n        /* \"#utility.yul\":3581:3659   */\n      tag_96\n      jump\t// in\n    tag_148:\n        /* \"#utility.yul\":3571:3659   */\n      swap3\n      pop\n        /* \"#utility.yul\":3367:3669   */\n      pop\n        /* \"#utility.yul\":3736:3738   */\n      0x20\n        /* \"#utility.yul\":3725:3734   */\n      dup4\n        /* \"#utility.yul\":3721:3739   */\n      add\n        /* \"#utility.yul\":3708:3740   */\n      calldataload\n        /* \"#utility.yul\":3767:3785   */\n      0xffffffffffffffff\n        /* \"#utility.yul\":3759:3765   */\n      dup2\n        /* \"#utility.yul\":3756:3786   */\n      gt\n        /* \"#utility.yul\":3753:3870   */\n      iszero\n      tag_149\n      jumpi\n        /* \"#utility.yul\":3789:3868   */\n      tag_150\n      tag_84\n      jump\t// in\n    tag_150:\n        /* \"#utility.yul\":3753:3870   */\n    tag_149:\n        /* \"#utility.yul\":3894:3972   */\n      tag_151\n        /* \"#utility.yul\":3964:3971   */\n      dup6\n        /* \"#utility.yul\":3955:3961   */\n      dup3\n        /* \"#utility.yul\":3944:3953   */\n      dup7\n        /* \"#utility.yul\":3940:3962   */\n      add\n        /* \"#utility.yul\":3894:3972   */\n      tag_96\n      jump\t// in\n    tag_151:\n        /* \"#utility.yul\":3884:3972   */\n      swap2\n      pop\n        /* \"#utility.yul\":3679:3982   */\n      pop\n        /* \"#utility.yul\":3095:3989   */\n      swap3\n      pop\n      swap3\n      swap1\n      pop\n      jump\t// out\n        /* \"#utility.yul\":3995:4109   */\n    tag_97:\n        /* \"#utility.yul\":4062:4068   */\n      0x00\n        /* \"#utility.yul\":4096:4101   */\n      dup2\n        /* \"#utility.yul\":4090:4102   */\n      mload\n        /* \"#utility.yul\":4080:4102   */\n      swap1\n      pop\n        /* \"#utility.yul\":3995:4109   */\n      swap2\n      swap1\n      pop\n      jump\t// out\n        /* \"#utility.yul\":4115:4299   */\n    tag_98:\n        /* \"#utility.yul\":4214:4225   */\n      0x00\n        /* \"#utility.yul\":4248:4254   */\n      dup3\n        /* \"#utility.yul\":4243:4246   */\n      dup3\n        /* \"#utility.yul\":4236:4255   */\n      mstore\n        /* \"#utility.yul\":4288:4292   */\n      0x20\n        /* \"#utility.yul\":4283:4286   */\n      dup3\n        /* \"#utility.yul\":4279:4293   */\n      add\n        /* \"#utility.yul\":4264:4293   */\n      swap1\n      pop\n        /* \"#utility.yul\":4115:4299   */\n      swap3\n      swap2\n      pop\n      pop\n      jump\t// out\n        /* \"#utility.yul\":4305:4437   */\n    tag_99:\n        /* \"#utility.yul\":4372:4376   */\n      0x00\n        /* \"#utility.yul\":4395:4398   */\n      dup2\n        /* \"#utility.yul\":4387:4398   */\n      swap1\n      pop\n        /* \"#utility.yul\":4425:4429   */\n      0x20\n        /* \"#utility.yul\":4420:4423   */\n      dup3\n        /* \"#utility.yul\":4416:4430   */\n      add\n        /* \"#utility.yul\":4408:4430   */\n      swap1\n      pop\n        /* \"#utility.yul\":4305:4437   */\n      swap2\n      swap1\n      pop\n      jump\t// out\n        /* \"#utility.yul\":4443:4551   */\n    tag_100:\n        /* \"#utility.yul\":4520:4544   */\n      tag_156\n        /* \"#utility.yul\":4538:4543   */\n      dup2\n        /* \"#utility.yul\":4520:4544   */\n      tag_92\n      jump\t// in\n    tag_156:\n        /* \"#utility.yul\":4515:4518   */\n      dup3\n        /* \"#utility.yul\":4508:4545   */\n      mstore\n        /* \"#utility.yul\":4443:4551   */\n      pop\n      pop\n      jump\t// out\n        /* \"#utility.yul\":4557:4736   */\n    tag_101:\n        /* \"#utility.yul\":4626:4636   */\n      0x00\n        /* \"#utility.yul\":4647:4693   */\n      tag_158\n        /* \"#utility.yul\":4689:4692   */\n      dup4\n        /* \"#utility.yul\":4681:4687   */\n      dup4\n        /* \"#utility.yul\":4647:4693   */\n      tag_100\n      jump\t// in\n    tag_158:\n        /* \"#utility.yul\":4725:4729   */\n      0x20\n        /* \"#utility.yul\":4720:4723   */\n      dup4\n        /* \"#utility.yul\":4716:4730   */\n      add\n        /* \"#utility.yul\":4702:4730   */\n      swap1\n      pop\n        /* \"#utility.yul\":4557:4736   */\n      swap3\n      swap2\n      pop\n      pop\n      jump\t// out\n        /* \"#utility.yul\":4742:4855   */\n    tag_102:\n        /* \"#utility.yul\":4812:4816   */\n      0x00\n        /* \"#utility.yul\":4844:4848   */\n      0x20\n        /* \"#utility.yul\":4839:4842   */\n      dup3\n        /* \"#utility.yul\":4835:4849   */\n      add\n        /* \"#utility.yul\":4827:4849   */\n      swap1\n      pop\n        /* \"#utility.yul\":4742:4855   */\n      swap2\n      swap1\n      pop\n      jump\t// out\n        /* \"#utility.yul\":4891:5623   */\n    tag_103:\n        /* \"#utility.yul\":5010:5013   */\n      0x00\n        /* \"#utility.yul\":5039:5093   */\n      tag_161\n        /* \"#utility.yul\":5087:5092   */\n      dup3\n        /* \"#utility.yul\":5039:5093   */\n      tag_97\n      jump\t// in\n    tag_161:\n        /* \"#utility.yul\":5109:5195   */\n      tag_162\n        /* \"#utility.yul\":5188:5194   */\n      dup2\n        /* \"#utility.yul\":5183:5186   */\n      dup6\n        /* \"#utility.yul\":5109:5195   */\n      tag_98\n      jump\t// in\n    tag_162:\n        /* \"#utility.yul\":5102:5195   */\n      swap4\n      pop\n        /* \"#utility.yul\":5219:5275   */\n      tag_163\n        /* \"#utility.yul\":5269:5274   */\n      dup4\n        /* \"#utility.yul\":5219:5275   */\n      tag_99\n      jump\t// in\n    tag_163:\n        /* \"#utility.yul\":5298:5305   */\n      dup1\n        /* \"#utility.yul\":5329:5330   */\n      0x00\n        /* \"#utility.yul\":5314:5598   */\n    tag_164:\n        /* \"#utility.yul\":5339:5345   */\n      dup4\n        /* \"#utility.yul\":5336:5337   */\n      dup2\n        /* \"#utility.yul\":5333:5346   */\n      lt\n        /* \"#utility.yul\":5314:5598   */\n      iszero\n      tag_166\n      jumpi\n        /* \"#utility.yul\":5415:5421   */\n      dup2\n        /* \"#utility.yul\":5409:5422   */\n      mload\n        /* \"#utility.yul\":5442:5505   */\n      tag_167\n        /* \"#utility.yul\":5501:5504   */\n      dup9\n        /* \"#utility.yul\":5486:5499   */\n      dup3\n        /* \"#utility.yul\":5442:5505   */\n      tag_101\n      jump\t// in\n    tag_167:\n        /* \"#utility.yul\":5435:5505   */\n      swap8\n      pop\n        /* \"#utility.yul\":5528:5588   */\n      tag_168\n        /* \"#utility.yul\":5581:5587   */\n      dup4\n        /* \"#utility.yul\":5528:5588   */\n      tag_102\n      jump\t// in\n    tag_168:\n        /* \"#utility.yul\":5518:5588   */\n      swap3\n      pop\n        /* \"#utility.yul\":5374:5598   */\n      pop\n        /* \"#utility.yul\":5361:5362   */\n      0x01\n        /* \"#utility.yul\":5358:5359   */\n      dup2\n        /* \"#utility.yul\":5354:5363   */\n      add\n        /* \"#utility.yul\":5349:5363   */\n      swap1\n      pop\n        /* \"#utility.yul\":5314:5598   */\n      jump(tag_164)\n    tag_166:\n        /* \"#utility.yul\":5318:5332   */\n      pop\n        /* \"#utility.yul\":5614:5617   */\n      dup6\n        /* \"#utility.yul\":5607:5617   */\n      swap4\n      pop\n        /* \"#utility.yul\":5015:5623   */\n      pop\n      pop\n      pop\n        /* \"#utility.yul\":4891:5623   */\n      swap3\n      swap2\n      pop\n      pop\n      jump\t// out\n        /* \"#utility.yul\":5629:6002   */\n    tag_12:\n        /* \"#utility.yul\":5772:5776   */\n      0x00\n        /* \"#utility.yul\":5810:5812   */\n      0x20\n        /* \"#utility.yul\":5799:5808   */\n      dup3\n        /* \"#utility.yul\":5795:5813   */\n      add\n        /* \"#utility.yul\":5787:5813   */\n      swap1\n      pop\n        /* \"#utility.yul\":5859:5868   */\n      dup2\n        /* \"#utility.yul\":5853:5857   */\n      dup2\n        /* \"#utility.yul\":5849:5869   */\n      sub\n        /* \"#utility.yul\":5845:5846   */\n      0x00\n        /* \"#utility.yul\":5834:5843   */\n      dup4\n        /* \"#utility.yul\":5830:5847   */\n      add\n        /* \"#utility.yul\":5823:5870   */\n      mstore\n        /* \"#utility.yul\":5887:5995   */\n      tag_170\n        /* \"#utility.yul\":5990:5994   */\n      dup2\n        /* \"#utility.yul\":5981:5987   */\n      dup5\n        /* \"#utility.yul\":5887:5995   */\n      tag_103\n      jump\t// in\n    tag_170:\n        /* \"#utility.yul\":5879:5995   */\n      swap1\n      pop\n        /* \"#utility.yul\":5629:6002   */\n      swap3\n      swap2\n      pop\n      pop\n      jump\t// out\n        /* \"#utility.yul\":6008:6337   */\n    tag_15:\n        /* \"#utility.yul\":6067:6073   */\n      0x00\n        /* \"#utility.yul\":6116:6118   */\n      0x20\n        /* \"#utility.yul\":6104:6113   */\n      dup3\n        /* \"#utility.yul\":6095:6102   */\n      dup5\n        /* \"#utility.yul\":6091:6114   */\n      sub\n        /* \"#utility.yul\":6087:6119   */\n      slt\n        /* \"#utility.yul\":6084:6203   */\n      iszero\n      tag_172\n      jumpi\n        /* \"#utility.yul\":6122:6201   */\n      tag_173\n      tag_83\n      jump\t// in\n    tag_173:\n        /* \"#utility.yul\":6084:6203   */\n    tag_172:\n        /* \"#utility.yul\":6242:6243   */\n      0x00\n        /* \"#utility.yul\":6267:6320   */\n      tag_174\n        /* \"#utility.yul\":6312:6319   */\n      dup5\n        /* \"#utility.yul\":6303:6309   */\n      dup3\n        /* \"#utility.yul\":6292:6301   */\n      dup6\n        /* \"#utility.yul\":6288:6310   */\n      add\n        /* \"#utility.yul\":6267:6320   */\n      tag_94\n      jump\t// in\n    tag_174:\n        /* \"#utility.yul\":6257:6320   */\n      swap2\n      pop\n        /* \"#utility.yul\":6213:6330   */\n      pop\n        /* \"#utility.yul\":6008:6337   */\n      swap3\n      swap2\n      pop\n      pop\n      jump\t// out\n        /* \"#utility.yul\":6343:6461   */\n    tag_104:\n        /* \"#utility.yul\":6430:6454   */\n      tag_176\n        /* \"#utility.yul\":6448:6453   */\n      dup2\n        /* \"#utility.yul\":6430:6454   */\n      tag_92\n      jump\t// in\n    tag_176:\n        /* \"#utility.yul\":6425:6428   */\n      dup3\n        /* \"#utility.yul\":6418:6455   */\n      mstore\n        /* \"#utility.yul\":6343:6461   */\n      pop\n      pop\n      jump\t// out\n        /* \"#utility.yul\":6467:6689   */\n    tag_18:\n        /* \"#utility.yul\":6560:6564   */\n      0x00\n        /* \"#utility.yul\":6598:6600   */\n      0x20\n        /* \"#utility.yul\":6587:6596   */\n      dup3\n        /* \"#utility.yul\":6583:6601   */\n      add\n        /* \"#utility.yul\":6575:6601   */\n      swap1\n      pop\n        /* \"#utility.yul\":6611:6682   */\n      tag_178\n        /* \"#utility.yul\":6679:6680   */\n      0x00\n        /* \"#utility.yul\":6668:6677   */\n      dup4\n        /* \"#utility.yul\":6664:6681   */\n      add\n        /* \"#utility.yul\":6655:6661   */\n      dup5\n        /* \"#utility.yul\":6611:6682   */\n      tag_104\n      jump\t// in\n    tag_178:\n        /* \"#utility.yul\":6467:6689   */\n      swap3\n      swap2\n      pop\n      pop\n      jump\t// out\n        /* \"#utility.yul\":6695:7234   */\n    tag_21:\n        /* \"#utility.yul\":6779:6785   */\n      0x00\n        /* \"#utility.yul\":6828:6830   */\n      0x20\n        /* \"#utility.yul\":6816:6825   */\n      dup3\n        /* \"#utility.yul\":6807:6814   */\n      dup5\n        /* \"#utility.yul\":6803:6826   */\n      sub\n        /* \"#utility.yul\":6799:6831   */\n      slt\n        /* \"#utility.yul\":6796:6915   */\n      iszero\n      tag_180\n      jumpi\n        /* \"#utility.yul\":6834:6913   */\n      tag_181\n      tag_83\n      jump\t// in\n    tag_181:\n        /* \"#utility.yul\":6796:6915   */\n    tag_180:\n        /* \"#utility.yul\":6982:6983   */\n      0x00\n        /* \"#utility.yul\":6971:6980   */\n      dup3\n        /* \"#utility.yul\":6967:6984   */\n      add\n        /* \"#utility.yul\":6954:6985   */\n      calldataload\n        /* \"#utility.yul\":7012:7030   */\n      0xffffffffffffffff\n        /* \"#utility.yul\":7004:7010   */\n      dup2\n        /* \"#utility.yul\":7001:7031   */\n      gt\n        /* \"#utility.yul\":6998:7115   */\n      iszero\n      tag_182\n      jumpi\n        /* \"#utility.yul\":7034:7113   */\n      tag_183\n      tag_84\n      jump\t// in\n    tag_183:\n        /* \"#utility.yul\":6998:7115   */\n    tag_182:\n        /* \"#utility.yul\":7139:7217   */\n      tag_184\n        /* \"#utility.yul\":7209:7216   */\n      dup5\n        /* \"#utility.yul\":7200:7206   */\n      dup3\n        /* \"#utility.yul\":7189:7198   */\n      dup6\n        /* \"#utility.yul\":7185:7207   */\n      add\n        /* \"#utility.yul\":7139:7217   */\n      tag_96\n      jump\t// in\n    tag_184:\n        /* \"#utility.yul\":7129:7217   */\n      swap2\n      pop\n        /* \"#utility.yul\":6925:7227   */\n      pop\n        /* \"#utility.yul\":6695:7234   */\n      swap3\n      swap2\n      pop\n      pop\n      jump\t// out\n        /* \"#utility.yul\":7240:7420   */\n    tag_33:\n        /* \"#utility.yul\":7288:7365   */\n      0x4e487b7100000000000000000000000000000000000000000000000000000000\n        /* \"#utility.yul\":7285:7286   */\n      0x00\n        /* \"#utility.yul\":7278:7366   */\n      mstore\n        /* \"#utility.yul\":7385:7389   */\n      0x32\n        /* \"#utility.yul\":7382:7383   */\n      0x04\n        /* \"#utility.yul\":7375:7390   */\n      mstore\n        /* \"#utility.yul\":7409:7413   */\n      0x24\n        /* \"#utility.yul\":7406:7407   */\n      0x00\n        /* \"#utility.yul\":7399:7414   */\n      revert\n        /* \"#utility.yul\":7426:7606   */\n    tag_105:\n        /* \"#utility.yul\":7474:7551   */\n      0x4e487b7100000000000000000000000000000000000000000000000000000000\n        /* \"#utility.yul\":7471:7472   */\n      0x00\n        /* \"#utility.yul\":7464:7552   */\n      mstore\n        /* \"#utility.yul\":7571:7575   */\n      0x11\n        /* \"#utility.yul\":7568:7569   */\n      0x04\n        /* \"#utility.yul\":7561:7576   */\n      mstore\n        /* \"#utility.yul\":7595:7599   */\n      0x24\n        /* \"#utility.yul\":7592:7593   */\n      0x00\n        /* \"#utility.yul\":7585:7600   */\n      revert\n        /* \"#utility.yul\":7612:7806   */\n    tag_60:\n        /* \"#utility.yul\":7652:7656   */\n      0x00\n        /* \"#utility.yul\":7672:7692   */\n      tag_188\n        /* \"#utility.yul\":7690:7691   */\n      dup3\n        /* \"#utility.yul\":7672:7692   */\n      tag_92\n      jump\t// in\n    tag_188:\n        /* \"#utility.yul\":7667:7692   */\n      swap2\n      pop\n        /* \"#utility.yul\":7706:7726   */\n      tag_189\n        /* \"#utility.yul\":7724:7725   */\n      dup4\n        /* \"#utility.yul\":7706:7726   */\n      tag_92\n      jump\t// in\n    tag_189:\n        /* \"#utility.yul\":7701:7726   */\n      swap3\n      pop\n        /* \"#utility.yul\":7750:7751   */\n      dup3\n        /* \"#utility.yul\":7747:7748   */\n      dup3\n        /* \"#utility.yul\":7743:7752   */\n      sub\n        /* \"#utility.yul\":7735:7752   */\n      swap1\n      pop\n        /* \"#utility.yul\":7774:7775   */\n      dup2\n        /* \"#utility.yul\":7768:7772   */\n      dup2\n        /* \"#utility.yul\":7765:7776   */\n      gt\n        /* \"#utility.yul\":7762:7799   */\n      iszero\n      tag_190\n      jumpi\n        /* \"#utility.yul\":7779:7797   */\n      tag_191\n      tag_105\n      jump\t// in\n    tag_191:\n        /* \"#utility.yul\":7762:7799   */\n    tag_190:\n        /* \"#utility.yul\":7612:7806   */\n      swap3\n      swap2\n      pop\n      pop\n      jump\t// out\n        /* \"#utility.yul\":7812:7983   */\n    tag_69:\n        /* \"#utility.yul\":7851:7854   */\n      0x00\n        /* \"#utility.yul\":7874:7898   */\n      tag_193\n        /* \"#utility.yul\":7892:7897   */\n      dup3\n        /* \"#utility.yul\":7874:7898   */\n      tag_92\n      jump\t// in\n    tag_193:\n        /* \"#utility.yul\":7865:7898   */\n      swap2\n      pop\n        /* \"#utility.yul\":7920:7924   */\n      0x00\n        /* \"#utility.yul\":7913:7918   */\n      dup3\n        /* \"#utility.yul\":7910:7925   */\n      sub\n        /* \"#utility.yul\":7907:7948   */\n      tag_194\n      jumpi\n        /* \"#utility.yul\":7928:7946   */\n      tag_195\n      tag_105\n      jump\t// in\n    tag_195:\n        /* \"#utility.yul\":7907:7948   */\n    tag_194:\n        /* \"#utility.yul\":7975:7976   */\n      0x01\n        /* \"#utility.yul\":7968:7973   */\n      dup3\n        /* \"#utility.yul\":7964:7977   */\n      sub\n        /* \"#utility.yul\":7957:7977   */\n      swap1\n      pop\n        /* \"#utility.yul\":7812:7983   */\n      swap2\n      swap1\n      pop\n      jump\t// out\n\n    auxdata: 0xa26469706673582212203e6a6089f115409e7eb666cc347170d75c80a722fd8e0e0a980857850f8b24b064736f6c634300081e0033\n}\n",
				"bytecode": {
					"linkReferences": {},
					"object": "6080604052348015600e575f5ffd5b506108ba8061001c5f395ff3fe608060405234801561000f575f5ffd5b506004361061004a575f3560e01c8063088b9bf61461004e57806371e5ee5f1461007e578063b23d97f2146100ae578063fb8cbced146100de575b5f5ffd5b610068600480360381019061006391906105e9565b6100fc565b6040516100759190610716565b60405180910390f35b61009860048036038101906100939190610736565b610275565b6040516100a59190610770565b60405180910390f35b6100c860048036038101906100c39190610789565b610294565b6040516100d59190610716565b60405180910390f35b6100e661039a565b6040516100f39190610716565b60405180910390f35b60605f5f90505b8351811015610158575f8482815181106101205761011f6107d0565b5b6020026020010151908060018154018082558091505060019003905f5260205f20015f90919091909150558080600101915050610103565b505f5f90505b82518110156101b3575f83828151811061017b5761017a6107d0565b5b6020026020010151908060018154018082558091505060019003905f5260205f20015f9091909190915055808060010191505061015e565b5061020a5f80548060200260200160405190810160405280929190818152602001828054801561020057602002820191905f5260205f20905b8154815260200190600101908083116101ec575b5050505050610294565b5f908051906020019061021e9291906103ef565b505f80548060200260200160405190810160405280929190818152602001828054801561026857602002820191905f5260205f20905b815481526020019060010190808311610254575b5050505050905092915050565b5f8181548110610283575f80fd5b905f5260205f20015f915090505481565b60605f8290505f5f825190505f5f600190505b8281101561038d578481815181106102c2576102c16107d0565b5b602002602001015193508091505b600182101580156103065750846001836102ea919061082a565b815181106102fb576102fa6107d0565b5b602002602001015184105b156103625784600183610319919061082a565b8151811061032a576103296107d0565b5b6020026020010151858381518110610345576103446107d0565b5b6020026020010181815250508161035b9061085d565b91506102d0565b83858381518110610376576103756107d0565b5b6020026020010181815250508060010190506102a7565b5083945050505050919050565b60605f8054806020026020016040519081016040528092919081815260200182805480156103e557602002820191905f5260205f20905b8154815260200190600101908083116103d1575b5050505050905090565b828054828255905f5260205f20908101928215610429579160200282015b8281111561042857825182559160200191906001019061040d565b5b509050610436919061043a565b5090565b5b80821115610451575f815f90555060010161043b565b5090565b5f604051905090565b5f5ffd5b5f5ffd5b5f5ffd5b5f601f19601f8301169050919050565b7f4e487b71000000000000000000000000000000000000000000000000000000005f52604160045260245ffd5b6104b08261046a565b810181811067ffffffffffffffff821117156104cf576104ce61047a565b5b80604052505050565b5f6104e1610455565b90506104ed82826104a7565b919050565b5f67ffffffffffffffff82111561050c5761050b61047a565b5b602082029050602081019050919050565b5f5ffd5b5f819050919050565b61053381610521565b811461053d575f5ffd5b50565b5f8135905061054e8161052a565b92915050565b5f610566610561846104f2565b6104d8565b905080838252602082019050602084028301858111156105895761058861051d565b5b835b818110156105b2578061059e8882610540565b84526020840193505060208101905061058b565b5050509392505050565b5f82601f8301126105d0576105cf610466565b5b81356105e0848260208601610554565b91505092915050565b5f5f604083850312156105ff576105fe61045e565b5b5f83013567ffffffffffffffff81111561061c5761061b610462565b5b610628858286016105bc565b925050602083013567ffffffffffffffff81111561064957610648610462565b5b610655858286016105bc565b9150509250929050565b5f81519050919050565b5f82825260208201905092915050565b5f819050602082019050919050565b61069181610521565b82525050565b5f6106a28383610688565b60208301905092915050565b5f602082019050919050565b5f6106c48261065f565b6106ce8185610669565b93506106d983610679565b805f5b838110156107095781516106f08882610697565b97506106fb836106ae565b9250506001810190506106dc565b5085935050505092915050565b5f6020820190508181035f83015261072e81846106ba565b905092915050565b5f6020828403121561074b5761074a61045e565b5b5f61075884828501610540565b91505092915050565b61076a81610521565b82525050565b5f6020820190506107835f830184610761565b92915050565b5f6020828403121561079e5761079d61045e565b5b5f82013567ffffffffffffffff8111156107bb576107ba610462565b5b6107c7848285016105bc565b91505092915050565b7f4e487b71000000000000000000000000000000000000000000000000000000005f52603260045260245ffd5b7f4e487b71000000000000000000000000000000000000000000000000000000005f52601160045260245ffd5b5f61083482610521565b915061083f83610521565b9250828203905081811115610857576108566107fd565b5b92915050565b5f61086782610521565b91505f8203610879576108786107fd565b5b60018203905091905056fea26469706673582212203e6a6089f115409e7eb666cc347170d75c80a722fd8e0e0a980857850f8b24b064736f6c634300081e0033",
					"opcodes": "PUSH1 0x80 PUSH1 0x40 MSTORE CALLVALUE DUP1 ISZERO PUSH1 0xE JUMPI PUSH0 PUSH0 REVERT JUMPDEST POP PUSH2 0x8BA DUP1 PUSH2 0x1C PUSH0 CODECOPY PUSH0 RETURN INVALID PUSH1 0x80 PUSH1 0x40 MSTORE CALLVALUE DUP1 ISZERO PUSH2 0xF JUMPI PUSH0 PUSH0 REVERT JUMPDEST POP PUSH1 0x4 CALLDATASIZE LT PUSH2 0x4A JUMPI PUSH0 CALLDATALOAD PUSH1 0xE0 SHR DUP1 PUSH4 0x88B9BF6 EQ PUSH2 0x4E JUMPI DUP1 PUSH4 0x71E5EE5F EQ PUSH2 0x7E JUMPI DUP1 PUSH4 0xB23D97F2 EQ PUSH2 0xAE JUMPI DUP1 PUSH4 0xFB8CBCED EQ PUSH2 0xDE JUMPI JUMPDEST PUSH0 PUSH0 REVERT JUMPDEST PUSH2 0x68 PUSH1 0x4 DUP1 CALLDATASIZE SUB DUP2 ADD SWAP1 PUSH2 0x63 SWAP2 SWAP1 PUSH2 0x5E9 JUMP JUMPDEST PUSH2 0xFC JUMP JUMPDEST PUSH1 0x40 MLOAD PUSH2 0x75 SWAP2 SWAP1 PUSH2 0x716 JUMP JUMPDEST PUSH1 0x40 MLOAD DUP1 SWAP2 SUB SWAP1 RETURN JUMPDEST PUSH2 0x98 PUSH1 0x4 DUP1 CALLDATASIZE SUB DUP2 ADD SWAP1 PUSH2 0x93 SWAP2 SWAP1 PUSH2 0x736 JUMP JUMPDEST PUSH2 0x275 JUMP JUMPDEST PUSH1 0x40 MLOAD PUSH2 0xA5 SWAP2 SWAP1 PUSH2 0x770 JUMP JUMPDEST PUSH1 0x40 MLOAD DUP1 SWAP2 SUB SWAP1 RETURN JUMPDEST PUSH2 0xC8 PUSH1 0x4 DUP1 CALLDATASIZE SUB DUP2 ADD SWAP1 PUSH2 0xC3 SWAP2 SWAP1 PUSH2 0x789 JUMP JUMPDEST PUSH2 0x294 JUMP JUMPDEST PUSH1 0x40 MLOAD PUSH2 0xD5 SWAP2 SWAP1 PUSH2 0x716 JUMP JUMPDEST PUSH1 0x40 MLOAD DUP1 SWAP2 SUB SWAP1 RETURN JUMPDEST PUSH2 0xE6 PUSH2 0x39A JUMP JUMPDEST PUSH1 0x40 MLOAD PUSH2 0xF3 SWAP2 SWAP1 PUSH2 0x716 JUMP JUMPDEST PUSH1 0x40 MLOAD DUP1 SWAP2 SUB SWAP1 RETURN JUMPDEST PUSH1 0x60 PUSH0 PUSH0 SWAP1 POP JUMPDEST DUP4 MLOAD DUP2 LT ISZERO PUSH2 0x158 JUMPI PUSH0 DUP5 DUP3 DUP2 MLOAD DUP2 LT PUSH2 0x120 JUMPI PUSH2 0x11F PUSH2 0x7D0 JUMP JUMPDEST JUMPDEST PUSH1 0x20 MUL PUSH1 0x20 ADD ADD MLOAD SWAP1 DUP1 PUSH1 0x1 DUP2 SLOAD ADD DUP1 DUP3 SSTORE DUP1 SWAP2 POP POP PUSH1 0x1 SWAP1 SUB SWAP1 PUSH0 MSTORE PUSH1 0x20 PUSH0 KECCAK256 ADD PUSH0 SWAP1 SWAP2 SWAP1 SWAP2 SWAP1 SWAP2 POP SSTORE DUP1 DUP1 PUSH1 0x1 ADD SWAP2 POP POP PUSH2 0x103 JUMP JUMPDEST POP PUSH0 PUSH0 SWAP1 POP JUMPDEST DUP3 MLOAD DUP2 LT ISZERO PUSH2 0x1B3 JUMPI PUSH0 DUP4 DUP3 DUP2 MLOAD DUP2 LT PUSH2 0x17B JUMPI PUSH2 0x17A PUSH2 0x7D0 JUMP JUMPDEST JUMPDEST PUSH1 0x20 MUL PUSH1 0x20 ADD ADD MLOAD SWAP1 DUP1 PUSH1 0x1 DUP2 SLOAD ADD DUP1 DUP3 SSTORE DUP1 SWAP2 POP POP PUSH1 0x1 SWAP1 SUB SWAP1 PUSH0 MSTORE PUSH1 0x20 PUSH0 KECCAK256 ADD PUSH0 SWAP1 SWAP2 SWAP1 SWAP2 SWAP1 SWAP2 POP SSTORE DUP1 DUP1 PUSH1 0x1 ADD SWAP2 POP POP PUSH2 0x15E JUMP JUMPDEST POP PUSH2 0x20A PUSH0 DUP1 SLOAD DUP1 PUSH1 0x20 MUL PUSH1 0x20 ADD PUSH1 0x40 MLOAD SWAP1 DUP2 ADD PUSH1 0x40 MSTORE DUP1 SWAP3 SWAP2 SWAP1 DUP2 DUP2 MSTORE PUSH1 0x20 ADD DUP3 DUP1 SLOAD DUP1 ISZERO PUSH2 0x200 JUMPI PUSH1 0x20 MUL DUP3 ADD SWAP2 SWAP1 PUSH0 MSTORE PUSH1 0x20 PUSH0 KECCAK256 SWAP1 JUMPDEST DUP2 SLOAD DUP2 MSTORE PUSH1 0x20 ADD SWAP1 PUSH1 0x1 ADD SWAP1 DUP1 DUP4 GT PUSH2 0x1EC JUMPI JUMPDEST POP POP POP POP POP PUSH2 0x294 JUMP JUMPDEST PUSH0 SWAP1 DUP1 MLOAD SWAP1 PUSH1 0x20 ADD SWAP1 PUSH2 0x21E SWAP3 SWAP2 SWAP1 PUSH2 0x3EF JUMP JUMPDEST POP PUSH0 DUP1 SLOAD DUP1 PUSH1 0x20 MUL PUSH1 0x20 ADD PUSH1 0x40 MLOAD SWAP1 DUP2 ADD PUSH1 0x40 MSTORE DUP1 SWAP3 SWAP2 SWAP1 DUP2 DUP2 MSTORE PUSH1 0x20 ADD DUP3 DUP1 SLOAD DUP1 ISZERO PUSH2 0x268 JUMPI PUSH1 0x20 MUL DUP3 ADD SWAP2 SWAP1 PUSH0 MSTORE PUSH1 0x20 PUSH0 KECCAK256 SWAP1 JUMPDEST DUP2 SLOAD DUP2 MSTORE PUSH1 0x20 ADD SWAP1 PUSH1 0x1 ADD SWAP1 DUP1 DUP4 GT PUSH2 0x254 JUMPI JUMPDEST POP POP POP POP POP SWAP1 POP SWAP3 SWAP2 POP POP JUMP JUMPDEST PUSH0 DUP2 DUP2 SLOAD DUP2 LT PUSH2 0x283 JUMPI PUSH0 DUP1 REVERT JUMPDEST SWAP1 PUSH0 MSTORE PUSH1 0x20 PUSH0 KECCAK256 ADD PUSH0 SWAP2 POP SWAP1 POP SLOAD DUP2 JUMP JUMPDEST PUSH1 0x60 PUSH0 DUP3 SWAP1 POP PUSH0 PUSH0 DUP3 MLOAD SWAP1 POP PUSH0 PUSH0 PUSH1 0x1 SWAP1 POP JUMPDEST DUP3 DUP2 LT ISZERO PUSH2 0x38D JUMPI DUP5 DUP2 DUP2 MLOAD DUP2 LT PUSH2 0x2C2 JUMPI PUSH2 0x2C1 PUSH2 0x7D0 JUMP JUMPDEST JUMPDEST PUSH1 0x20 MUL PUSH1 0x20 ADD ADD MLOAD SWAP4 POP DUP1 SWAP2 POP JUMPDEST PUSH1 0x1 DUP3 LT ISZERO DUP1 ISZERO PUSH2 0x306 JUMPI POP DUP5 PUSH1 0x1 DUP4 PUSH2 0x2EA SWAP2 SWAP1 PUSH2 0x82A JUMP JUMPDEST DUP2 MLOAD DUP2 LT PUSH2 0x2FB JUMPI PUSH2 0x2FA PUSH2 0x7D0 JUMP JUMPDEST JUMPDEST PUSH1 0x20 MUL PUSH1 0x20 ADD ADD MLOAD DUP5 LT JUMPDEST ISZERO PUSH2 0x362 JUMPI DUP5 PUSH1 0x1 DUP4 PUSH2 0x319 SWAP2 SWAP1 PUSH2 0x82A JUMP JUMPDEST DUP2 MLOAD DUP2 LT PUSH2 0x32A JUMPI PUSH2 0x329 PUSH2 0x7D0 JUMP JUMPDEST JUMPDEST PUSH1 0x20 MUL PUSH1 0x20 ADD ADD MLOAD DUP6 DUP4 DUP2 MLOAD DUP2 LT PUSH2 0x345 JUMPI PUSH2 0x344 PUSH2 0x7D0 JUMP JUMPDEST JUMPDEST PUSH1 0x20 MUL PUSH1 0x20 ADD ADD DUP2 DUP2 MSTORE POP POP DUP2 PUSH2 0x35B SWAP1 PUSH2 0x85D JUMP JUMPDEST SWAP2 POP PUSH2 0x2D0 JUMP JUMPDEST DUP4 DUP6 DUP4 DUP2 MLOAD DUP2 LT PUSH2 0x376 JUMPI PUSH2 0x375 PUSH2 0x7D0 JUMP JUMPDEST JUMPDEST PUSH1 0x20 MUL PUSH1 0x20 ADD ADD DUP2 DUP2 MSTORE POP POP DUP1 PUSH1 0x1 ADD SWAP1 POP PUSH2 0x2A7 JUMP JUMPDEST POP DUP4 SWAP5 POP POP POP POP POP SWAP2 SWAP1 POP JUMP JUMPDEST PUSH1 0x60 PUSH0 DUP1 SLOAD DUP1 PUSH1 0x20 MUL PUSH1 0x20 ADD PUSH1 0x40 MLOAD SWAP1 DUP2 ADD PUSH1 0x40 MSTORE DUP1 SWAP3 SWAP2 SWAP1 DUP2 DUP2 MSTORE PUSH1 0x20 ADD DUP3 DUP1 SLOAD DUP1 ISZERO PUSH2 0x3E5 JUMPI PUSH1 0x20 MUL DUP3 ADD SWAP2 SWAP1 PUSH0 MSTORE PUSH1 0x20 PUSH0 KECCAK256 SWAP1 JUMPDEST DUP2 SLOAD DUP2 MSTORE PUSH1 0x20 ADD SWAP1 PUSH1 0x1 ADD SWAP1 DUP1 DUP4 GT PUSH2 0x3D1 JUMPI JUMPDEST POP POP POP POP POP SWAP1 POP SWAP1 JUMP JUMPDEST DUP3 DUP1 SLOAD DUP3 DUP3 SSTORE SWAP1 PUSH0 MSTORE PUSH1 0x20 PUSH0 KECCAK256 SWAP1 DUP2 ADD SWAP3 DUP3 ISZERO PUSH2 0x429 JUMPI SWAP2 PUSH1 0x20 MUL DUP3 ADD JUMPDEST DUP3 DUP2 GT ISZERO PUSH2 0x428 JUMPI DUP3 MLOAD DUP3 SSTORE SWAP2 PUSH1 0x20 ADD SWAP2 SWAP1 PUSH1 0x1 ADD SWAP1 PUSH2 0x40D JUMP JUMPDEST JUMPDEST POP SWAP1 POP PUSH2 0x436 SWAP2 SWAP1 PUSH2 0x43A JUMP JUMPDEST POP SWAP1 JUMP JUMPDEST JUMPDEST DUP1 DUP3 GT ISZERO PUSH2 0x451 JUMPI PUSH0 DUP2 PUSH0 SWAP1 SSTORE POP PUSH1 0x1 ADD PUSH2 0x43B JUMP JUMPDEST POP SWAP1 JUMP JUMPDEST PUSH0 PUSH1 0x40 MLOAD SWAP1 POP SWAP1 JUMP JUMPDEST PUSH0 PUSH0 REVERT JUMPDEST PUSH0 PUSH0 REVERT JUMPDEST PUSH0 PUSH0 REVERT JUMPDEST PUSH0 PUSH1 0x1F NOT PUSH1 0x1F DUP4 ADD AND SWAP1 POP SWAP2 SWAP1 POP JUMP JUMPDEST PUSH32 0x4E487B7100000000000000000000000000000000000000000000000000000000 PUSH0 MSTORE PUSH1 0x41 PUSH1 0x4 MSTORE PUSH1 0x24 PUSH0 REVERT JUMPDEST PUSH2 0x4B0 DUP3 PUSH2 0x46A JUMP JUMPDEST DUP2 ADD DUP2 DUP2 LT PUSH8 0xFFFFFFFFFFFFFFFF DUP3 GT OR ISZERO PUSH2 0x4CF JUMPI PUSH2 0x4CE PUSH2 0x47A JUMP JUMPDEST JUMPDEST DUP1 PUSH1 0x40 MSTORE POP POP POP JUMP JUMPDEST PUSH0 PUSH2 0x4E1 PUSH2 0x455 JUMP JUMPDEST SWAP1 POP PUSH2 0x4ED DUP3 DUP3 PUSH2 0x4A7 JUMP JUMPDEST SWAP2 SWAP1 POP JUMP JUMPDEST PUSH0 PUSH8 0xFFFFFFFFFFFFFFFF DUP3 GT ISZERO PUSH2 0x50C JUMPI PUSH2 0x50B PUSH2 0x47A JUMP JUMPDEST JUMPDEST PUSH1 0x20 DUP3 MUL SWAP1 POP PUSH1 0x20 DUP2 ADD SWAP1 POP SWAP2 SWAP1 POP JUMP JUMPDEST PUSH0 PUSH0 REVERT JUMPDEST PUSH0 DUP2 SWAP1 POP SWAP2 SWAP1 POP JUMP JUMPDEST PUSH2 0x533 DUP2 PUSH2 0x521 JUMP JUMPDEST DUP2 EQ PUSH2 0x53D JUMPI PUSH0 PUSH0 REVERT JUMPDEST POP JUMP JUMPDEST PUSH0 DUP2 CALLDATALOAD SWAP1 POP PUSH2 0x54E DUP2 PUSH2 0x52A JUMP JUMPDEST SWAP3 SWAP2 POP POP JUMP JUMPDEST PUSH0 PUSH2 0x566 PUSH2 0x561 DUP5 PUSH2 0x4F2 JUMP JUMPDEST PUSH2 0x4D8 JUMP JUMPDEST SWAP1 POP DUP1 DUP4 DUP3 MSTORE PUSH1 0x20 DUP3 ADD SWAP1 POP PUSH1 0x20 DUP5 MUL DUP4 ADD DUP6 DUP2 GT ISZERO PUSH2 0x589 JUMPI PUSH2 0x588 PUSH2 0x51D JUMP JUMPDEST JUMPDEST DUP4 JUMPDEST DUP2 DUP2 LT ISZERO PUSH2 0x5B2 JUMPI DUP1 PUSH2 0x59E DUP9 DUP3 PUSH2 0x540 JUMP JUMPDEST DUP5 MSTORE PUSH1 0x20 DUP5 ADD SWAP4 POP POP PUSH1 0x20 DUP2 ADD SWAP1 POP PUSH2 0x58B JUMP JUMPDEST POP POP POP SWAP4 SWAP3 POP POP POP JUMP JUMPDEST PUSH0 DUP3 PUSH1 0x1F DUP4 ADD SLT PUSH2 0x5D0 JUMPI PUSH2 0x5CF PUSH2 0x466 JUMP JUMPDEST JUMPDEST DUP2 CALLDATALOAD PUSH2 0x5E0 DUP5 DUP3 PUSH1 0x20 DUP7 ADD PUSH2 0x554 JUMP JUMPDEST SWAP2 POP POP SWAP3 SWAP2 POP POP JUMP JUMPDEST PUSH0 PUSH0 PUSH1 0x40 DUP4 DUP6 SUB SLT ISZERO PUSH2 0x5FF JUMPI PUSH2 0x5FE PUSH2 0x45E JUMP JUMPDEST JUMPDEST PUSH0 DUP4 ADD CALLDATALOAD PUSH8 0xFFFFFFFFFFFFFFFF DUP2 GT ISZERO PUSH2 0x61C JUMPI PUSH2 0x61B PUSH2 0x462 JUMP JUMPDEST JUMPDEST PUSH2 0x628 DUP6 DUP3 DUP7 ADD PUSH2 0x5BC JUMP JUMPDEST SWAP3 POP POP PUSH1 0x20 DUP4 ADD CALLDATALOAD PUSH8 0xFFFFFFFFFFFFFFFF DUP2 GT ISZERO PUSH2 0x649 JUMPI PUSH2 0x648 PUSH2 0x462 JUMP JUMPDEST JUMPDEST PUSH2 0x655 DUP6 DUP3 DUP7 ADD PUSH2 0x5BC JUMP JUMPDEST SWAP2 POP POP SWAP3 POP SWAP3 SWAP1 POP JUMP JUMPDEST PUSH0 DUP2 MLOAD SWAP1 POP SWAP2 SWAP1 POP JUMP JUMPDEST PUSH0 DUP3 DUP3 MSTORE PUSH1 0x20 DUP3 ADD SWAP1 POP SWAP3 SWAP2 POP POP JUMP JUMPDEST PUSH0 DUP2 SWAP1 POP PUSH1 0x20 DUP3 ADD SWAP1 POP SWAP2 SWAP1 POP JUMP JUMPDEST PUSH2 0x691 DUP2 PUSH2 0x521 JUMP JUMPDEST DUP3 MSTORE POP POP JUMP JUMPDEST PUSH0 PUSH2 0x6A2 DUP4 DUP4 PUSH2 0x688 JUMP JUMPDEST PUSH1 0x20 DUP4 ADD SWAP1 POP SWAP3 SWAP2 POP POP JUMP JUMPDEST PUSH0 PUSH1 0x20 DUP3 ADD SWAP1 POP SWAP2 SWAP1 POP JUMP JUMPDEST PUSH0 PUSH2 0x6C4 DUP3 PUSH2 0x65F JUMP JUMPDEST PUSH2 0x6CE DUP2 DUP6 PUSH2 0x669 JUMP JUMPDEST SWAP4 POP PUSH2 0x6D9 DUP4 PUSH2 0x679 JUMP JUMPDEST DUP1 PUSH0 JUMPDEST DUP4 DUP2 LT ISZERO PUSH2 0x709 JUMPI DUP2 MLOAD PUSH2 0x6F0 DUP9 DUP3 PUSH2 0x697 JUMP JUMPDEST SWAP8 POP PUSH2 0x6FB DUP4 PUSH2 0x6AE JUMP JUMPDEST SWAP3 POP POP PUSH1 0x1 DUP2 ADD SWAP1 POP PUSH2 0x6DC JUMP JUMPDEST POP DUP6 SWAP4 POP POP POP POP SWAP3 SWAP2 POP POP JUMP JUMPDEST PUSH0 PUSH1 0x20 DUP3 ADD SWAP1 POP DUP2 DUP2 SUB PUSH0 DUP4 ADD MSTORE PUSH2 0x72E DUP2 DUP5 PUSH2 0x6BA JUMP JUMPDEST SWAP1 POP SWAP3 SWAP2 POP POP JUMP JUMPDEST PUSH0 PUSH1 0x20 DUP3 DUP5 SUB SLT ISZERO PUSH2 0x74B JUMPI PUSH2 0x74A PUSH2 0x45E JUMP JUMPDEST JUMPDEST PUSH0 PUSH2 0x758 DUP5 DUP3 DUP6 ADD PUSH2 0x540 JUMP JUMPDEST SWAP2 POP POP SWAP3 SWAP2 POP POP JUMP JUMPDEST PUSH2 0x76A DUP2 PUSH2 0x521 JUMP JUMPDEST DUP3 MSTORE POP POP JUMP JUMPDEST PUSH0 PUSH1 0x20 DUP3 ADD SWAP1 POP PUSH2 0x783 PUSH0 DUP4 ADD DUP5 PUSH2 0x761 JUMP JUMPDEST SWAP3 SWAP2 POP POP JUMP JUMPDEST PUSH0 PUSH1 0x20 DUP3 DUP5 SUB SLT ISZERO PUSH2 0x79E JUMPI PUSH2 0x79D PUSH2 0x45E JUMP JUMPDEST JUMPDEST PUSH0 DUP3 ADD CALLDATALOAD PUSH8 0xFFFFFFFFFFFFFFFF DUP2 GT ISZERO PUSH2 0x7BB JUMPI PUSH2 0x7BA PUSH2 0x462 JUMP JUMPDEST JUMPDEST PUSH2 0x7C7 DUP5 DUP3 DUP6 ADD PUSH2 0x5BC JUMP JUMPDEST SWAP2 POP POP SWAP3 SWAP2 POP POP JUMP JUMPDEST PUSH32 0x4E487B7100000000000000000000000000000000000000000000000000000000 PUSH0 MSTORE PUSH1 0x32 PUSH1 0x4 MSTORE PUSH1 0x24 PUSH0 REVERT JUMPDEST PUSH32 0x4E487B7100000000000000000000000000000000000000000000000000000000 PUSH0 MSTORE PUSH1 0x11 PUSH1 0x4 MSTORE PUSH1 0x24 PUSH0 REVERT JUMPDEST PUSH0 PUSH2 0x834 DUP3 PUSH2 0x521 JUMP JUMPDEST SWAP2 POP PUSH2 0x83F DUP4 PUSH2 0x521 JUMP JUMPDEST SWAP3 POP DUP3 DUP3 SUB SWAP1 POP DUP2 DUP2 GT ISZERO PUSH2 0x857 JUMPI PUSH2 0x856 PUSH2 0x7FD JUMP JUMPDEST JUMPDEST SWAP3 SWAP2 POP POP JUMP JUMPDEST PUSH0 PUSH2 0x867 DUP3 PUSH2 0x521 JUMP JUMPDEST SWAP2 POP PUSH0 DUP3 SUB PUSH2 0x879 JUMPI PUSH2 0x878 PUSH2 0x7FD JUMP JUMPDEST JUMPDEST PUSH1 0x1 DUP3 SUB SWAP1 POP SWAP2 SWAP1 POP JUMP INVALID LOG2 PUSH5 0x6970667358 0x22 SLT KECCAK256 RETURNDATACOPY PUSH11 0x6089F115409E7EB666CC34 PUSH18 0x70D75C80A722FD8E0E0A980857850F8B24B0 PUSH5 0x736F6C6343 STOP ADDMOD 0x1E STOP CALLER "
				},
				"gasEstimates": {
					"creation": {
						"codeDepositCost": "446800",
						"executionCost": "478",
						"totalCost": "447278"
					},
					"external": {
						"arr(uint256)": "infinite",
						"getArr()": "infinite",
						"insertSort(uint256[])": "infinite",
						"merge(uint256[],uint256[])": "infinite"
					}
				},
				"methodIdentifiers": {
					"arr(uint256)": "71e5ee5f",
					"getArr()": "fb8cbced",
					"insertSort(uint256[])": "b23d97f2",
					"merge(uint256[],uint256[])": "088b9bf6"
				}
			},
			"storageLayout": {
				"storage": [
					{
						"astId": 4,
						"contract": "task/task01/5.MergeSortedArray.sol:MergeSortedArray",
						"label": "arr",
						"offset": 0,
						"slot": "0",
						"type": "t_array(t_uint256)dyn_storage"
					}
				],
				"types": {
					"t_array(t_uint256)dyn_storage": {
						"base": "t_uint256",
						"encoding": "dynamic_array",
						"label": "uint256[]",
						"numberOfBytes": "32"
					},
					"t_uint256": {
						"encoding": "inplace",
						"label": "uint256",
						"numberOfBytes": "32"
					}
				}
			},
			"userdoc": {
				"kind": "user",
				"methods": {},
				"version": 1
			}
		}
	}
}