{
	"ABI.sol": {
		"ABI": {
			"abi": [
				{
					"inputs": [
						{
							"internalType": "bytes",
							"name": "encodedData",
							"type": "bytes"
						}
					],
					"name": "decodeData",
					"outputs": [
						{
							"internalType": "string",
							"name": "text",
							"type": "string"
						},
						{
							"internalType": "uint256",
							"name": "number",
							"type": "uint256"
						}
					],
					"stateMutability": "pure",
					"type": "function"
				},
				{
					"inputs": [
						{
							"internalType": "string",
							"name": "text",
							"type": "string"
						},
						{
							"internalType": "uint256",
							"name": "number",
							"type": "uint256"
						}
					],
					"name": "encodeData",
					"outputs": [
						{
							"internalType": "bytes",
							"name": "",
							"type": "bytes"
						},
						{
							"internalType": "bytes",
							"name": "",
							"type": "bytes"
						}
					],
					"stateMutability": "pure",
					"type": "function"
				},
				{
					"inputs": [],
					"name": "getSelector",
					"outputs": [
						{
							"internalType": "bytes4",
							"name": "",
							"type": "bytes4"
						}
					],
					"stateMutability": "pure",
					"type": "function"
				}
			],
			"devdoc": {
				"kind": "dev",
				"methods": {},
				"version": 1
			},
			"evm": {
				"assembly": "    /* \"ABI.sol\":86:651  contract ABI {... */\n  mstore(0x40, 0x80)\n  callvalue\n  dup1\n  iszero\n  tag_1\n  jumpi\n  revert(0x00, 0x00)\ntag_1:\n  pop\n  dataSize(sub_0)\n  dup1\n  dataOffset(sub_0)\n  0x00\n  codecopy\n  0x00\n  return\nstop\n\nsub_0: assembly {\n        /* \"ABI.sol\":86:651  contract ABI {... */\n      mstore(0x40, 0x80)\n      callvalue\n      dup1\n      iszero\n      tag_1\n      jumpi\n      revert(0x00, 0x00)\n    tag_1:\n      pop\n      jumpi(tag_2, lt(calldatasize, 0x04))\n      shr(0xe0, calldataload(0x00))\n      dup1\n      0x034899bc\n      eq\n      tag_3\n      jumpi\n      dup1\n      0x447a06f5\n      eq\n      tag_4\n      jumpi\n      dup1\n      0x47da7f8e\n      eq\n      tag_5\n      jumpi\n    tag_2:\n      revert(0x00, 0x00)\n        /* \"ABI.sol\":566:649  function getSelector() public pure returns (bytes4) {... */\n    tag_3:\n      tag_6\n      tag_7\n      jump\t// in\n    tag_6:\n      mload(0x40)\n      tag_8\n      swap2\n      swap1\n      tag_9\n      jump\t// in\n    tag_8:\n      mload(0x40)\n      dup1\n      swap2\n      sub\n      swap1\n      return\n        /* \"ABI.sol\":346:529  function decodeData(... */\n    tag_4:\n      tag_10\n      0x04\n      dup1\n      calldatasize\n      sub\n      dup2\n      add\n      swap1\n      tag_11\n      swap2\n      swap1\n      tag_12\n      jump\t// in\n    tag_11:\n      tag_13\n      jump\t// in\n    tag_10:\n      mload(0x40)\n      tag_14\n      swap3\n      swap2\n      swap1\n      tag_15\n      jump\t// in\n    tag_14:\n      mload(0x40)\n      dup1\n      swap2\n      sub\n      swap1\n      return\n        /* \"ABI.sol\":118:327  function encodeData(... */\n    tag_5:\n      tag_16\n      0x04\n      dup1\n      calldatasize\n      sub\n      dup2\n      add\n      swap1\n      tag_17\n      swap2\n      swap1\n      tag_18\n      jump\t// in\n    tag_17:\n      tag_19\n      jump\t// in\n    tag_16:\n      mload(0x40)\n      tag_20\n      swap3\n      swap2\n      swap1\n      tag_21\n      jump\t// in\n    tag_20:\n      mload(0x40)\n      dup1\n      swap2\n      sub\n      swap1\n      return\n        /* \"ABI.sol\":566:649  function getSelector() public pure returns (bytes4) {... */\n    tag_7:\n        /* \"ABI.sol\":610:616  bytes4 */\n      0x00\n        /* \"ABI.sol\":635:642  msg.sig */\n      and(0xffffffff00000000000000000000000000000000000000000000000000000000, calldataload(0x00))\n        /* \"ABI.sol\":628:642  return msg.sig */\n      swap1\n      pop\n        /* \"ABI.sol\":566:649  function getSelector() public pure returns (bytes4) {... */\n      swap1\n      jump\t// out\n        /* \"ABI.sol\":346:529  function decodeData(... */\n    tag_13:\n        /* \"ABI.sol\":427:445  string memory text */\n      0x60\n        /* \"ABI.sol\":447:461  uint256 number */\n      0x00\n        /* \"ABI.sol\":491:502  encodedData */\n      dup3\n        /* \"ABI.sol\":480:522  abi.decode(encodedData, (string, uint256)) */\n      dup1\n      0x20\n      add\n      swap1\n      mload\n      dup2\n      add\n      swap1\n      tag_24\n      swap2\n      swap1\n      tag_25\n      jump\t// in\n    tag_24:\n        /* \"ABI.sol\":473:522  return abi.decode(encodedData, (string, uint256)) */\n      swap2\n      pop\n      swap2\n      pop\n        /* \"ABI.sol\":346:529  function decodeData(... */\n      swap2\n      pop\n      swap2\n      jump\t// out\n        /* \"ABI.sol\":118:327  function encodeData(... */\n    tag_19:\n        /* \"ABI.sol\":217:229  bytes memory */\n      0x60\n        /* \"ABI.sol\":231:243  bytes memory */\n      dup1\n        /* \"ABI.sol\":274:278  text */\n      dup4\n        /* \"ABI.sol\":280:286  number */\n      dup4\n        /* \"ABI.sol\":263:287  abi.encode(text, number) */\n      add(0x20, mload(0x40))\n      tag_27\n      swap3\n      swap2\n      swap1\n      tag_15\n      jump\t// in\n    tag_27:\n      mload(0x40)\n      0x20\n      dup2\n      dup4\n      sub\n      sub\n      dup2\n      mstore\n      swap1\n      0x40\n      mstore\n        /* \"ABI.sol\":306:310  text */\n      dup5\n        /* \"ABI.sol\":312:318  number */\n      dup5\n        /* \"ABI.sol\":289:319  abi.encodePacked(text, number) */\n      add(0x20, mload(0x40))\n      tag_28\n      swap3\n      swap2\n      swap1\n      tag_29\n      jump\t// in\n    tag_28:\n      mload(0x40)\n      0x20\n      dup2\n      dup4\n      sub\n      sub\n      dup2\n      mstore\n      swap1\n      0x40\n      mstore\n        /* \"ABI.sol\":255:320  return (abi.encode(text, number), abi.encodePacked(text, number)) */\n      swap2\n      pop\n      swap2\n      pop\n        /* \"ABI.sol\":118:327  function encodeData(... */\n      swap3\n      pop\n      swap3\n      swap1\n      pop\n      jump\t// out\n        /* \"#utility.yul\":7:156   */\n    tag_30:\n        /* \"#utility.yul\":43:50   */\n      0x00\n        /* \"#utility.yul\":83:149   */\n      0xffffffff00000000000000000000000000000000000000000000000000000000\n        /* \"#utility.yul\":76:81   */\n      dup3\n        /* \"#utility.yul\":72:150   */\n      and\n        /* \"#utility.yul\":61:150   */\n      swap1\n      pop\n        /* \"#utility.yul\":7:156   */\n      swap2\n      swap1\n      pop\n      jump\t// out\n        /* \"#utility.yul\":162:277   */\n    tag_31:\n        /* \"#utility.yul\":247:270   */\n      tag_69\n        /* \"#utility.yul\":264:269   */\n      dup2\n        /* \"#utility.yul\":247:270   */\n      tag_30\n      jump\t// in\n    tag_69:\n        /* \"#utility.yul\":242:245   */\n      dup3\n        /* \"#utility.yul\":235:271   */\n      mstore\n        /* \"#utility.yul\":162:277   */\n      pop\n      pop\n      jump\t// out\n        /* \"#utility.yul\":283:501   */\n    tag_9:\n        /* \"#utility.yul\":374:378   */\n      0x00\n        /* \"#utility.yul\":412:414   */\n      0x20\n        /* \"#utility.yul\":401:410   */\n      dup3\n        /* \"#utility.yul\":397:415   */\n      add\n        /* \"#utility.yul\":389:415   */\n      swap1\n      pop\n        /* \"#utility.yul\":425:494   */\n      tag_71\n        /* \"#utility.yul\":491:492   */\n      0x00\n        /* \"#utility.yul\":480:489   */\n      dup4\n        /* \"#utility.yul\":476:493   */\n      add\n        /* \"#utility.yul\":467:473   */\n      dup5\n        /* \"#utility.yul\":425:494   */\n      tag_31\n      jump\t// in\n    tag_71:\n        /* \"#utility.yul\":283:501   */\n      swap3\n      swap2\n      pop\n      pop\n      jump\t// out\n        /* \"#utility.yul\":507:582   */\n    tag_32:\n        /* \"#utility.yul\":540:546   */\n      0x00\n        /* \"#utility.yul\":573:575   */\n      0x40\n        /* \"#utility.yul\":567:576   */\n      mload\n        /* \"#utility.yul\":557:576   */\n      swap1\n      pop\n        /* \"#utility.yul\":507:582   */\n      swap1\n      jump\t// out\n        /* \"#utility.yul\":588:705   */\n    tag_33:\n        /* \"#utility.yul\":697:698   */\n      0x00\n        /* \"#utility.yul\":694:695   */\n      0x00\n        /* \"#utility.yul\":687:699   */\n      revert\n        /* \"#utility.yul\":711:828   */\n    tag_34:\n        /* \"#utility.yul\":820:821   */\n      0x00\n        /* \"#utility.yul\":817:818   */\n      0x00\n        /* \"#utility.yul\":810:822   */\n      revert\n        /* \"#utility.yul\":834:951   */\n    tag_35:\n        /* \"#utility.yul\":943:944   */\n      0x00\n        /* \"#utility.yul\":940:941   */\n      0x00\n        /* \"#utility.yul\":933:945   */\n      revert\n        /* \"#utility.yul\":957:1074   */\n    tag_36:\n        /* \"#utility.yul\":1066:1067   */\n      0x00\n        /* \"#utility.yul\":1063:1064   */\n      0x00\n        /* \"#utility.yul\":1056:1068   */\n      revert\n        /* \"#utility.yul\":1080:1182   */\n    tag_37:\n        /* \"#utility.yul\":1121:1127   */\n      0x00\n        /* \"#utility.yul\":1172:1174   */\n      0x1f\n        /* \"#utility.yul\":1168:1175   */\n      not\n        /* \"#utility.yul\":1163:1165   */\n      0x1f\n        /* \"#utility.yul\":1156:1161   */\n      dup4\n        /* \"#utility.yul\":1152:1166   */\n      add\n        /* \"#utility.yul\":1148:1176   */\n      and\n        /* \"#utility.yul\":1138:1176   */\n      swap1\n      pop\n        /* \"#utility.yul\":1080:1182   */\n      swap2\n      swap1\n      pop\n      jump\t// out\n        /* \"#utility.yul\":1188:1368   */\n    tag_38:\n        /* \"#utility.yul\":1236:1313   */\n      0x4e487b7100000000000000000000000000000000000000000000000000000000\n        /* \"#utility.yul\":1233:1234   */\n      0x00\n        /* \"#utility.yul\":1226:1314   */\n      mstore\n        /* \"#utility.yul\":1333:1337   */\n      0x41\n        /* \"#utility.yul\":1330:1331   */\n      0x04\n        /* \"#utility.yul\":1323:1338   */\n      mstore\n        /* \"#utility.yul\":1357:1361   */\n      0x24\n        /* \"#utility.yul\":1354:1355   */\n      0x00\n        /* \"#utility.yul\":1347:1362   */\n      revert\n        /* \"#utility.yul\":1374:1655   */\n    tag_39:\n        /* \"#utility.yul\":1457:1484   */\n      tag_80\n        /* \"#utility.yul\":1479:1483   */\n      dup3\n        /* \"#utility.yul\":1457:1484   */\n      tag_37\n      jump\t// in\n    tag_80:\n        /* \"#utility.yul\":1449:1455   */\n      dup2\n        /* \"#utility.yul\":1445:1485   */\n      add\n        /* \"#utility.yul\":1587:1593   */\n      dup2\n        /* \"#utility.yul\":1575:1585   */\n      dup2\n        /* \"#utility.yul\":1572:1594   */\n      lt\n        /* \"#utility.yul\":1551:1569   */\n      0xffffffffffffffff\n        /* \"#utility.yul\":1539:1549   */\n      dup3\n        /* \"#utility.yul\":1536:1570   */\n      gt\n        /* \"#utility.yul\":1533:1595   */\n      or\n        /* \"#utility.yul\":1530:1618   */\n      iszero\n      tag_81\n      jumpi\n        /* \"#utility.yul\":1598:1616   */\n      tag_82\n      tag_38\n      jump\t// in\n    tag_82:\n        /* \"#utility.yul\":1530:1618   */\n    tag_81:\n        /* \"#utility.yul\":1638:1648   */\n      dup1\n        /* \"#utility.yul\":1634:1636   */\n      0x40\n        /* \"#utility.yul\":1627:1649   */\n      mstore\n        /* \"#utility.yul\":1417:1655   */\n      pop\n        /* \"#utility.yul\":1374:1655   */\n      pop\n      pop\n      jump\t// out\n        /* \"#utility.yul\":1661:1790   */\n    tag_40:\n        /* \"#utility.yul\":1695:1701   */\n      0x00\n        /* \"#utility.yul\":1722:1742   */\n      tag_84\n      tag_32\n      jump\t// in\n    tag_84:\n        /* \"#utility.yul\":1712:1742   */\n      swap1\n      pop\n        /* \"#utility.yul\":1751:1784   */\n      tag_85\n        /* \"#utility.yul\":1779:1783   */\n      dup3\n        /* \"#utility.yul\":1771:1777   */\n      dup3\n        /* \"#utility.yul\":1751:1784   */\n      tag_39\n      jump\t// in\n    tag_85:\n        /* \"#utility.yul\":1661:1790   */\n      swap2\n      swap1\n      pop\n      jump\t// out\n        /* \"#utility.yul\":1796:2103   */\n    tag_41:\n        /* \"#utility.yul\":1857:1861   */\n      0x00\n        /* \"#utility.yul\":1947:1965   */\n      0xffffffffffffffff\n        /* \"#utility.yul\":1939:1945   */\n      dup3\n        /* \"#utility.yul\":1936:1966   */\n      gt\n        /* \"#utility.yul\":1933:1989   */\n      iszero\n      tag_87\n      jumpi\n        /* \"#utility.yul\":1969:1987   */\n      tag_88\n      tag_38\n      jump\t// in\n    tag_88:\n        /* \"#utility.yul\":1933:1989   */\n    tag_87:\n        /* \"#utility.yul\":2007:2036   */\n      tag_89\n        /* \"#utility.yul\":2029:2035   */\n      dup3\n        /* \"#utility.yul\":2007:2036   */\n      tag_37\n      jump\t// in\n    tag_89:\n        /* \"#utility.yul\":1999:2036   */\n      swap1\n      pop\n        /* \"#utility.yul\":2091:2095   */\n      0x20\n        /* \"#utility.yul\":2085:2089   */\n      dup2\n        /* \"#utility.yul\":2081:2096   */\n      add\n        /* \"#utility.yul\":2073:2096   */\n      swap1\n      pop\n        /* \"#utility.yul\":1796:2103   */\n      swap2\n      swap1\n      pop\n      jump\t// out\n        /* \"#utility.yul\":2109:2257   */\n    tag_42:\n        /* \"#utility.yul\":2207:2213   */\n      dup3\n        /* \"#utility.yul\":2202:2205   */\n      dup2\n        /* \"#utility.yul\":2197:2200   */\n      dup4\n        /* \"#utility.yul\":2184:2214   */\n      calldatacopy\n        /* \"#utility.yul\":2248:2249   */\n      0x00\n        /* \"#utility.yul\":2239:2245   */\n      dup4\n        /* \"#utility.yul\":2234:2237   */\n      dup4\n        /* \"#utility.yul\":2230:2246   */\n      add\n        /* \"#utility.yul\":2223:2250   */\n      mstore\n        /* \"#utility.yul\":2109:2257   */\n      pop\n      pop\n      pop\n      jump\t// out\n        /* \"#utility.yul\":2263:2686   */\n    tag_43:\n        /* \"#utility.yul\":2340:2345   */\n      0x00\n        /* \"#utility.yul\":2365:2430   */\n      tag_92\n        /* \"#utility.yul\":2381:2429   */\n      tag_93\n        /* \"#utility.yul\":2422:2428   */\n      dup5\n        /* \"#utility.yul\":2381:2429   */\n      tag_41\n      jump\t// in\n    tag_93:\n        /* \"#utility.yul\":2365:2430   */\n      tag_40\n      jump\t// in\n    tag_92:\n        /* \"#utility.yul\":2356:2430   */\n      swap1\n      pop\n        /* \"#utility.yul\":2453:2459   */\n      dup3\n        /* \"#utility.yul\":2446:2451   */\n      dup2\n        /* \"#utility.yul\":2439:2460   */\n      mstore\n        /* \"#utility.yul\":2491:2495   */\n      0x20\n        /* \"#utility.yul\":2484:2489   */\n      dup2\n        /* \"#utility.yul\":2480:2496   */\n      add\n        /* \"#utility.yul\":2529:2532   */\n      dup5\n        /* \"#utility.yul\":2520:2526   */\n      dup5\n        /* \"#utility.yul\":2515:2518   */\n      dup5\n        /* \"#utility.yul\":2511:2527   */\n      add\n        /* \"#utility.yul\":2508:2533   */\n      gt\n        /* \"#utility.yul\":2505:2617   */\n      iszero\n      tag_94\n      jumpi\n        /* \"#utility.yul\":2536:2615   */\n      tag_95\n      tag_36\n      jump\t// in\n    tag_95:\n        /* \"#utility.yul\":2505:2617   */\n    tag_94:\n        /* \"#utility.yul\":2626:2680   */\n      tag_96\n        /* \"#utility.yul\":2673:2679   */\n      dup5\n        /* \"#utility.yul\":2668:2671   */\n      dup3\n        /* \"#utility.yul\":2663:2666   */\n      dup6\n        /* \"#utility.yul\":2626:2680   */\n      tag_42\n      jump\t// in\n    tag_96:\n        /* \"#utility.yul\":2346:2686   */\n      pop\n        /* \"#utility.yul\":2263:2686   */\n      swap4\n      swap3\n      pop\n      pop\n      pop\n      jump\t// out\n        /* \"#utility.yul\":2705:3043   */\n    tag_44:\n        /* \"#utility.yul\":2760:2765   */\n      0x00\n        /* \"#utility.yul\":2809:2812   */\n      dup3\n        /* \"#utility.yul\":2802:2806   */\n      0x1f\n        /* \"#utility.yul\":2794:2800   */\n      dup4\n        /* \"#utility.yul\":2790:2807   */\n      add\n        /* \"#utility.yul\":2786:2813   */\n      slt\n        /* \"#utility.yul\":2776:2898   */\n      tag_98\n      jumpi\n        /* \"#utility.yul\":2817:2896   */\n      tag_99\n      tag_35\n      jump\t// in\n    tag_99:\n        /* \"#utility.yul\":2776:2898   */\n    tag_98:\n        /* \"#utility.yul\":2934:2940   */\n      dup2\n        /* \"#utility.yul\":2921:2941   */\n      calldataload\n        /* \"#utility.yul\":2959:3037   */\n      tag_100\n        /* \"#utility.yul\":3033:3036   */\n      dup5\n        /* \"#utility.yul\":3025:3031   */\n      dup3\n        /* \"#utility.yul\":3018:3022   */\n      0x20\n        /* \"#utility.yul\":3010:3016   */\n      dup7\n        /* \"#utility.yul\":3006:3023   */\n      add\n        /* \"#utility.yul\":2959:3037   */\n      tag_43\n      jump\t// in\n    tag_100:\n        /* \"#utility.yul\":2950:3037   */\n      swap2\n      pop\n        /* \"#utility.yul\":2766:3043   */\n      pop\n        /* \"#utility.yul\":2705:3043   */\n      swap3\n      swap2\n      pop\n      pop\n      jump\t// out\n        /* \"#utility.yul\":3049:3556   */\n    tag_12:\n        /* \"#utility.yul\":3117:3123   */\n      0x00\n        /* \"#utility.yul\":3166:3168   */\n      0x20\n        /* \"#utility.yul\":3154:3163   */\n      dup3\n        /* \"#utility.yul\":3145:3152   */\n      dup5\n        /* \"#utility.yul\":3141:3164   */\n      sub\n        /* \"#utility.yul\":3137:3169   */\n      slt\n        /* \"#utility.yul\":3134:3253   */\n      iszero\n      tag_102\n      jumpi\n        /* \"#utility.yul\":3172:3251   */\n      tag_103\n      tag_33\n      jump\t// in\n    tag_103:\n        /* \"#utility.yul\":3134:3253   */\n    tag_102:\n        /* \"#utility.yul\":3320:3321   */\n      0x00\n        /* \"#utility.yul\":3309:3318   */\n      dup3\n        /* \"#utility.yul\":3305:3322   */\n      add\n        /* \"#utility.yul\":3292:3323   */\n      calldataload\n        /* \"#utility.yul\":3350:3368   */\n      0xffffffffffffffff\n        /* \"#utility.yul\":3342:3348   */\n      dup2\n        /* \"#utility.yul\":3339:3369   */\n      gt\n        /* \"#utility.yul\":3336:3453   */\n      iszero\n      tag_104\n      jumpi\n        /* \"#utility.yul\":3372:3451   */\n      tag_105\n      tag_34\n      jump\t// in\n    tag_105:\n        /* \"#utility.yul\":3336:3453   */\n    tag_104:\n        /* \"#utility.yul\":3477:3539   */\n      tag_106\n        /* \"#utility.yul\":3531:3538   */\n      dup5\n        /* \"#utility.yul\":3522:3528   */\n      dup3\n        /* \"#utility.yul\":3511:3520   */\n      dup6\n        /* \"#utility.yul\":3507:3529   */\n      add\n        /* \"#utility.yul\":3477:3539   */\n      tag_44\n      jump\t// in\n    tag_106:\n        /* \"#utility.yul\":3467:3539   */\n      swap2\n      pop\n        /* \"#utility.yul\":3263:3549   */\n      pop\n        /* \"#utility.yul\":3049:3556   */\n      swap3\n      swap2\n      pop\n      pop\n      jump\t// out\n        /* \"#utility.yul\":3562:3661   */\n    tag_45:\n        /* \"#utility.yul\":3614:3620   */\n      0x00\n        /* \"#utility.yul\":3648:3653   */\n      dup2\n        /* \"#utility.yul\":3642:3654   */\n      mload\n        /* \"#utility.yul\":3632:3654   */\n      swap1\n      pop\n        /* \"#utility.yul\":3562:3661   */\n      swap2\n      swap1\n      pop\n      jump\t// out\n        /* \"#utility.yul\":3667:3836   */\n    tag_46:\n        /* \"#utility.yul\":3751:3762   */\n      0x00\n        /* \"#utility.yul\":3785:3791   */\n      dup3\n        /* \"#utility.yul\":3780:3783   */\n      dup3\n        /* \"#utility.yul\":3773:3792   */\n      mstore\n        /* \"#utility.yul\":3825:3829   */\n      0x20\n        /* \"#utility.yul\":3820:3823   */\n      dup3\n        /* \"#utility.yul\":3816:3830   */\n      add\n        /* \"#utility.yul\":3801:3830   */\n      swap1\n      pop\n        /* \"#utility.yul\":3667:3836   */\n      swap3\n      swap2\n      pop\n      pop\n      jump\t// out\n        /* \"#utility.yul\":3842:3981   */\n    tag_47:\n        /* \"#utility.yul\":3931:3937   */\n      dup3\n        /* \"#utility.yul\":3926:3929   */\n      dup2\n        /* \"#utility.yul\":3921:3924   */\n      dup4\n        /* \"#utility.yul\":3915:3938   */\n      mcopy\n        /* \"#utility.yul\":3972:3973   */\n      0x00\n        /* \"#utility.yul\":3963:3969   */\n      dup4\n        /* \"#utility.yul\":3958:3961   */\n      dup4\n        /* \"#utility.yul\":3954:3970   */\n      add\n        /* \"#utility.yul\":3947:3974   */\n      mstore\n        /* \"#utility.yul\":3842:3981   */\n      pop\n      pop\n      pop\n      jump\t// out\n        /* \"#utility.yul\":3987:4364   */\n    tag_48:\n        /* \"#utility.yul\":4075:4078   */\n      0x00\n        /* \"#utility.yul\":4103:4142   */\n      tag_111\n        /* \"#utility.yul\":4136:4141   */\n      dup3\n        /* \"#utility.yul\":4103:4142   */\n      tag_45\n      jump\t// in\n    tag_111:\n        /* \"#utility.yul\":4158:4229   */\n      tag_112\n        /* \"#utility.yul\":4222:4228   */\n      dup2\n        /* \"#utility.yul\":4217:4220   */\n      dup6\n        /* \"#utility.yul\":4158:4229   */\n      tag_46\n      jump\t// in\n    tag_112:\n        /* \"#utility.yul\":4151:4229   */\n      swap4\n      pop\n        /* \"#utility.yul\":4238:4303   */\n      tag_113\n        /* \"#utility.yul\":4296:4302   */\n      dup2\n        /* \"#utility.yul\":4291:4294   */\n      dup6\n        /* \"#utility.yul\":4284:4288   */\n      0x20\n        /* \"#utility.yul\":4277:4282   */\n      dup7\n        /* \"#utility.yul\":4273:4289   */\n      add\n        /* \"#utility.yul\":4238:4303   */\n      tag_47\n      jump\t// in\n    tag_113:\n        /* \"#utility.yul\":4328:4357   */\n      tag_114\n        /* \"#utility.yul\":4350:4356   */\n      dup2\n        /* \"#utility.yul\":4328:4357   */\n      tag_37\n      jump\t// in\n    tag_114:\n        /* \"#utility.yul\":4323:4326   */\n      dup5\n        /* \"#utility.yul\":4319:4358   */\n      add\n        /* \"#utility.yul\":4312:4358   */\n      swap2\n      pop\n        /* \"#utility.yul\":4079:4364   */\n      pop\n        /* \"#utility.yul\":3987:4364   */\n      swap3\n      swap2\n      pop\n      pop\n      jump\t// out\n        /* \"#utility.yul\":4370:4447   */\n    tag_49:\n        /* \"#utility.yul\":4407:4414   */\n      0x00\n        /* \"#utility.yul\":4436:4441   */\n      dup2\n        /* \"#utility.yul\":4425:4441   */\n      swap1\n      pop\n        /* \"#utility.yul\":4370:4447   */\n      swap2\n      swap1\n      pop\n      jump\t// out\n        /* \"#utility.yul\":4453:4571   */\n    tag_50:\n        /* \"#utility.yul\":4540:4564   */\n      tag_117\n        /* \"#utility.yul\":4558:4563   */\n      dup2\n        /* \"#utility.yul\":4540:4564   */\n      tag_49\n      jump\t// in\n    tag_117:\n        /* \"#utility.yul\":4535:4538   */\n      dup3\n        /* \"#utility.yul\":4528:4565   */\n      mstore\n        /* \"#utility.yul\":4453:4571   */\n      pop\n      pop\n      jump\t// out\n        /* \"#utility.yul\":4577:5000   */\n    tag_15:\n        /* \"#utility.yul\":4718:4722   */\n      0x00\n        /* \"#utility.yul\":4756:4758   */\n      0x40\n        /* \"#utility.yul\":4745:4754   */\n      dup3\n        /* \"#utility.yul\":4741:4759   */\n      add\n        /* \"#utility.yul\":4733:4759   */\n      swap1\n      pop\n        /* \"#utility.yul\":4805:4814   */\n      dup2\n        /* \"#utility.yul\":4799:4803   */\n      dup2\n        /* \"#utility.yul\":4795:4815   */\n      sub\n        /* \"#utility.yul\":4791:4792   */\n      0x00\n        /* \"#utility.yul\":4780:4789   */\n      dup4\n        /* \"#utility.yul\":4776:4793   */\n      add\n        /* \"#utility.yul\":4769:4816   */\n      mstore\n        /* \"#utility.yul\":4833:4911   */\n      tag_119\n        /* \"#utility.yul\":4906:4910   */\n      dup2\n        /* \"#utility.yul\":4897:4903   */\n      dup6\n        /* \"#utility.yul\":4833:4911   */\n      tag_48\n      jump\t// in\n    tag_119:\n        /* \"#utility.yul\":4825:4911   */\n      swap1\n      pop\n        /* \"#utility.yul\":4921:4993   */\n      tag_120\n        /* \"#utility.yul\":4989:4991   */\n      0x20\n        /* \"#utility.yul\":4978:4987   */\n      dup4\n        /* \"#utility.yul\":4974:4992   */\n      add\n        /* \"#utility.yul\":4965:4971   */\n      dup5\n        /* \"#utility.yul\":4921:4993   */\n      tag_50\n      jump\t// in\n    tag_120:\n        /* \"#utility.yul\":4577:5000   */\n      swap4\n      swap3\n      pop\n      pop\n      pop\n      jump\t// out\n        /* \"#utility.yul\":5006:5314   */\n    tag_51:\n        /* \"#utility.yul\":5068:5072   */\n      0x00\n        /* \"#utility.yul\":5158:5176   */\n      0xffffffffffffffff\n        /* \"#utility.yul\":5150:5156   */\n      dup3\n        /* \"#utility.yul\":5147:5177   */\n      gt\n        /* \"#utility.yul\":5144:5200   */\n      iszero\n      tag_122\n      jumpi\n        /* \"#utility.yul\":5180:5198   */\n      tag_123\n      tag_38\n      jump\t// in\n    tag_123:\n        /* \"#utility.yul\":5144:5200   */\n    tag_122:\n        /* \"#utility.yul\":5218:5247   */\n      tag_124\n        /* \"#utility.yul\":5240:5246   */\n      dup3\n        /* \"#utility.yul\":5218:5247   */\n      tag_37\n      jump\t// in\n    tag_124:\n        /* \"#utility.yul\":5210:5247   */\n      swap1\n      pop\n        /* \"#utility.yul\":5302:5306   */\n      0x20\n        /* \"#utility.yul\":5296:5300   */\n      dup2\n        /* \"#utility.yul\":5292:5307   */\n      add\n        /* \"#utility.yul\":5284:5307   */\n      swap1\n      pop\n        /* \"#utility.yul\":5006:5314   */\n      swap2\n      swap1\n      pop\n      jump\t// out\n        /* \"#utility.yul\":5320:5745   */\n    tag_52:\n        /* \"#utility.yul\":5398:5403   */\n      0x00\n        /* \"#utility.yul\":5423:5489   */\n      tag_126\n        /* \"#utility.yul\":5439:5488   */\n      tag_127\n        /* \"#utility.yul\":5481:5487   */\n      dup5\n        /* \"#utility.yul\":5439:5488   */\n      tag_51\n      jump\t// in\n    tag_127:\n        /* \"#utility.yul\":5423:5489   */\n      tag_40\n      jump\t// in\n    tag_126:\n        /* \"#utility.yul\":5414:5489   */\n      swap1\n      pop\n        /* \"#utility.yul\":5512:5518   */\n      dup3\n        /* \"#utility.yul\":5505:5510   */\n      dup2\n        /* \"#utility.yul\":5498:5519   */\n      mstore\n        /* \"#utility.yul\":5550:5554   */\n      0x20\n        /* \"#utility.yul\":5543:5548   */\n      dup2\n        /* \"#utility.yul\":5539:5555   */\n      add\n        /* \"#utility.yul\":5588:5591   */\n      dup5\n        /* \"#utility.yul\":5579:5585   */\n      dup5\n        /* \"#utility.yul\":5574:5577   */\n      dup5\n        /* \"#utility.yul\":5570:5586   */\n      add\n        /* \"#utility.yul\":5567:5592   */\n      gt\n        /* \"#utility.yul\":5564:5676   */\n      iszero\n      tag_128\n      jumpi\n        /* \"#utility.yul\":5595:5674   */\n      tag_129\n      tag_36\n      jump\t// in\n    tag_129:\n        /* \"#utility.yul\":5564:5676   */\n    tag_128:\n        /* \"#utility.yul\":5685:5739   */\n      tag_130\n        /* \"#utility.yul\":5732:5738   */\n      dup5\n        /* \"#utility.yul\":5727:5730   */\n      dup3\n        /* \"#utility.yul\":5722:5725   */\n      dup6\n        /* \"#utility.yul\":5685:5739   */\n      tag_42\n      jump\t// in\n    tag_130:\n        /* \"#utility.yul\":5404:5745   */\n      pop\n        /* \"#utility.yul\":5320:5745   */\n      swap4\n      swap3\n      pop\n      pop\n      pop\n      jump\t// out\n        /* \"#utility.yul\":5765:6105   */\n    tag_53:\n        /* \"#utility.yul\":5821:5826   */\n      0x00\n        /* \"#utility.yul\":5870:5873   */\n      dup3\n        /* \"#utility.yul\":5863:5867   */\n      0x1f\n        /* \"#utility.yul\":5855:5861   */\n      dup4\n        /* \"#utility.yul\":5851:5868   */\n      add\n        /* \"#utility.yul\":5847:5874   */\n      slt\n        /* \"#utility.yul\":5837:5959   */\n      tag_132\n      jumpi\n        /* \"#utility.yul\":5878:5957   */\n      tag_133\n      tag_35\n      jump\t// in\n    tag_133:\n        /* \"#utility.yul\":5837:5959   */\n    tag_132:\n        /* \"#utility.yul\":5995:6001   */\n      dup2\n        /* \"#utility.yul\":5982:6002   */\n      calldataload\n        /* \"#utility.yul\":6020:6099   */\n      tag_134\n        /* \"#utility.yul\":6095:6098   */\n      dup5\n        /* \"#utility.yul\":6087:6093   */\n      dup3\n        /* \"#utility.yul\":6080:6084   */\n      0x20\n        /* \"#utility.yul\":6072:6078   */\n      dup7\n        /* \"#utility.yul\":6068:6085   */\n      add\n        /* \"#utility.yul\":6020:6099   */\n      tag_52\n      jump\t// in\n    tag_134:\n        /* \"#utility.yul\":6011:6099   */\n      swap2\n      pop\n        /* \"#utility.yul\":5827:6105   */\n      pop\n        /* \"#utility.yul\":5765:6105   */\n      swap3\n      swap2\n      pop\n      pop\n      jump\t// out\n        /* \"#utility.yul\":6111:6233   */\n    tag_54:\n        /* \"#utility.yul\":6184:6208   */\n      tag_136\n        /* \"#utility.yul\":6202:6207   */\n      dup2\n        /* \"#utility.yul\":6184:6208   */\n      tag_49\n      jump\t// in\n    tag_136:\n        /* \"#utility.yul\":6177:6182   */\n      dup2\n        /* \"#utility.yul\":6174:6209   */\n      eq\n        /* \"#utility.yul\":6164:6227   */\n      tag_137\n      jumpi\n        /* \"#utility.yul\":6223:6224   */\n      0x00\n        /* \"#utility.yul\":6220:6221   */\n      0x00\n        /* \"#utility.yul\":6213:6225   */\n      revert\n        /* \"#utility.yul\":6164:6227   */\n    tag_137:\n        /* \"#utility.yul\":6111:6233   */\n      pop\n      jump\t// out\n        /* \"#utility.yul\":6239:6378   */\n    tag_55:\n        /* \"#utility.yul\":6285:6290   */\n      0x00\n        /* \"#utility.yul\":6323:6329   */\n      dup2\n        /* \"#utility.yul\":6310:6330   */\n      calldataload\n        /* \"#utility.yul\":6301:6330   */\n      swap1\n      pop\n        /* \"#utility.yul\":6339:6372   */\n      tag_139\n        /* \"#utility.yul\":6366:6371   */\n      dup2\n        /* \"#utility.yul\":6339:6372   */\n      tag_54\n      jump\t// in\n    tag_139:\n        /* \"#utility.yul\":6239:6378   */\n      swap3\n      swap2\n      pop\n      pop\n      jump\t// out\n        /* \"#utility.yul\":6384:7038   */\n    tag_18:\n        /* \"#utility.yul\":6462:6468   */\n      0x00\n        /* \"#utility.yul\":6470:6476   */\n      0x00\n        /* \"#utility.yul\":6519:6521   */\n      0x40\n        /* \"#utility.yul\":6507:6516   */\n      dup4\n        /* \"#utility.yul\":6498:6505   */\n      dup6\n        /* \"#utility.yul\":6494:6517   */\n      sub\n        /* \"#utility.yul\":6490:6522   */\n      slt\n        /* \"#utility.yul\":6487:6606   */\n      iszero\n      tag_141\n      jumpi\n        /* \"#utility.yul\":6525:6604   */\n      tag_142\n      tag_33\n      jump\t// in\n    tag_142:\n        /* \"#utility.yul\":6487:6606   */\n    tag_141:\n        /* \"#utility.yul\":6673:6674   */\n      0x00\n        /* \"#utility.yul\":6662:6671   */\n      dup4\n        /* \"#utility.yul\":6658:6675   */\n      add\n        /* \"#utility.yul\":6645:6676   */\n      calldataload\n        /* \"#utility.yul\":6703:6721   */\n      0xffffffffffffffff\n        /* \"#utility.yul\":6695:6701   */\n      dup2\n        /* \"#utility.yul\":6692:6722   */\n      gt\n        /* \"#utility.yul\":6689:6806   */\n      iszero\n      tag_143\n      jumpi\n        /* \"#utility.yul\":6725:6804   */\n      tag_144\n      tag_34\n      jump\t// in\n    tag_144:\n        /* \"#utility.yul\":6689:6806   */\n    tag_143:\n        /* \"#utility.yul\":6830:6893   */\n      tag_145\n        /* \"#utility.yul\":6885:6892   */\n      dup6\n        /* \"#utility.yul\":6876:6882   */\n      dup3\n        /* \"#utility.yul\":6865:6874   */\n      dup7\n        /* \"#utility.yul\":6861:6883   */\n      add\n        /* \"#utility.yul\":6830:6893   */\n      tag_53\n      jump\t// in\n    tag_145:\n        /* \"#utility.yul\":6820:6893   */\n      swap3\n      pop\n        /* \"#utility.yul\":6616:6903   */\n      pop\n        /* \"#utility.yul\":6942:6944   */\n      0x20\n        /* \"#utility.yul\":6968:7021   */\n      tag_146\n        /* \"#utility.yul\":7013:7020   */\n      dup6\n        /* \"#utility.yul\":7004:7010   */\n      dup3\n        /* \"#utility.yul\":6993:7002   */\n      dup7\n        /* \"#utility.yul\":6989:7011   */\n      add\n        /* \"#utility.yul\":6968:7021   */\n      tag_55\n      jump\t// in\n    tag_146:\n        /* \"#utility.yul\":6958:7021   */\n      swap2\n      pop\n        /* \"#utility.yul\":6913:7031   */\n      pop\n        /* \"#utility.yul\":6384:7038   */\n      swap3\n      pop\n      swap3\n      swap1\n      pop\n      jump\t// out\n        /* \"#utility.yul\":7044:7142   */\n    tag_56:\n        /* \"#utility.yul\":7095:7101   */\n      0x00\n        /* \"#utility.yul\":7129:7134   */\n      dup2\n        /* \"#utility.yul\":7123:7135   */\n      mload\n        /* \"#utility.yul\":7113:7135   */\n      swap1\n      pop\n        /* \"#utility.yul\":7044:7142   */\n      swap2\n      swap1\n      pop\n      jump\t// out\n        /* \"#utility.yul\":7148:7316   */\n    tag_57:\n        /* \"#utility.yul\":7231:7242   */\n      0x00\n        /* \"#utility.yul\":7265:7271   */\n      dup3\n        /* \"#utility.yul\":7260:7263   */\n      dup3\n        /* \"#utility.yul\":7253:7272   */\n      mstore\n        /* \"#utility.yul\":7305:7309   */\n      0x20\n        /* \"#utility.yul\":7300:7303   */\n      dup3\n        /* \"#utility.yul\":7296:7310   */\n      add\n        /* \"#utility.yul\":7281:7310   */\n      swap1\n      pop\n        /* \"#utility.yul\":7148:7316   */\n      swap3\n      swap2\n      pop\n      pop\n      jump\t// out\n        /* \"#utility.yul\":7322:7695   */\n    tag_58:\n        /* \"#utility.yul\":7408:7411   */\n      0x00\n        /* \"#utility.yul\":7436:7474   */\n      tag_150\n        /* \"#utility.yul\":7468:7473   */\n      dup3\n        /* \"#utility.yul\":7436:7474   */\n      tag_56\n      jump\t// in\n    tag_150:\n        /* \"#utility.yul\":7490:7560   */\n      tag_151\n        /* \"#utility.yul\":7553:7559   */\n      dup2\n        /* \"#utility.yul\":7548:7551   */\n      dup6\n        /* \"#utility.yul\":7490:7560   */\n      tag_57\n      jump\t// in\n    tag_151:\n        /* \"#utility.yul\":7483:7560   */\n      swap4\n      pop\n        /* \"#utility.yul\":7569:7634   */\n      tag_152\n        /* \"#utility.yul\":7627:7633   */\n      dup2\n        /* \"#utility.yul\":7622:7625   */\n      dup6\n        /* \"#utility.yul\":7615:7619   */\n      0x20\n        /* \"#utility.yul\":7608:7613   */\n      dup7\n        /* \"#utility.yul\":7604:7620   */\n      add\n        /* \"#utility.yul\":7569:7634   */\n      tag_47\n      jump\t// in\n    tag_152:\n        /* \"#utility.yul\":7659:7688   */\n      tag_153\n        /* \"#utility.yul\":7681:7687   */\n      dup2\n        /* \"#utility.yul\":7659:7688   */\n      tag_37\n      jump\t// in\n    tag_153:\n        /* \"#utility.yul\":7654:7657   */\n      dup5\n        /* \"#utility.yul\":7650:7689   */\n      add\n        /* \"#utility.yul\":7643:7689   */\n      swap2\n      pop\n        /* \"#utility.yul\":7412:7695   */\n      pop\n        /* \"#utility.yul\":7322:7695   */\n      swap3\n      swap2\n      pop\n      pop\n      jump\t// out\n        /* \"#utility.yul\":7701:8207   */\n    tag_21:\n        /* \"#utility.yul\":7858:7862   */\n      0x00\n        /* \"#utility.yul\":7896:7898   */\n      0x40\n        /* \"#utility.yul\":7885:7894   */\n      dup3\n        /* \"#utility.yul\":7881:7899   */\n      add\n        /* \"#utility.yul\":7873:7899   */\n      swap1\n      pop\n        /* \"#utility.yul\":7945:7954   */\n      dup2\n        /* \"#utility.yul\":7939:7943   */\n      dup2\n        /* \"#utility.yul\":7935:7955   */\n      sub\n        /* \"#utility.yul\":7931:7932   */\n      0x00\n        /* \"#utility.yul\":7920:7929   */\n      dup4\n        /* \"#utility.yul\":7916:7933   */\n      add\n        /* \"#utility.yul\":7909:7956   */\n      mstore\n        /* \"#utility.yul\":7973:8049   */\n      tag_155\n        /* \"#utility.yul\":8044:8048   */\n      dup2\n        /* \"#utility.yul\":8035:8041   */\n      dup6\n        /* \"#utility.yul\":7973:8049   */\n      tag_58\n      jump\t// in\n    tag_155:\n        /* \"#utility.yul\":7965:8049   */\n      swap1\n      pop\n        /* \"#utility.yul\":8096:8105   */\n      dup2\n        /* \"#utility.yul\":8090:8094   */\n      dup2\n        /* \"#utility.yul\":8086:8106   */\n      sub\n        /* \"#utility.yul\":8081:8083   */\n      0x20\n        /* \"#utility.yul\":8070:8079   */\n      dup4\n        /* \"#utility.yul\":8066:8084   */\n      add\n        /* \"#utility.yul\":8059:8107   */\n      mstore\n        /* \"#utility.yul\":8124:8200   */\n      tag_156\n        /* \"#utility.yul\":8195:8199   */\n      dup2\n        /* \"#utility.yul\":8186:8192   */\n      dup5\n        /* \"#utility.yul\":8124:8200   */\n      tag_58\n      jump\t// in\n    tag_156:\n        /* \"#utility.yul\":8116:8200   */\n      swap1\n      pop\n        /* \"#utility.yul\":7701:8207   */\n      swap4\n      swap3\n      pop\n      pop\n      pop\n      jump\t// out\n        /* \"#utility.yul\":8213:8647   */\n    tag_59:\n        /* \"#utility.yul\":8302:8307   */\n      0x00\n        /* \"#utility.yul\":8327:8393   */\n      tag_158\n        /* \"#utility.yul\":8343:8392   */\n      tag_159\n        /* \"#utility.yul\":8385:8391   */\n      dup5\n        /* \"#utility.yul\":8343:8392   */\n      tag_51\n      jump\t// in\n    tag_159:\n        /* \"#utility.yul\":8327:8393   */\n      tag_40\n      jump\t// in\n    tag_158:\n        /* \"#utility.yul\":8318:8393   */\n      swap1\n      pop\n        /* \"#utility.yul\":8416:8422   */\n      dup3\n        /* \"#utility.yul\":8409:8414   */\n      dup2\n        /* \"#utility.yul\":8402:8423   */\n      mstore\n        /* \"#utility.yul\":8454:8458   */\n      0x20\n        /* \"#utility.yul\":8447:8452   */\n      dup2\n        /* \"#utility.yul\":8443:8459   */\n      add\n        /* \"#utility.yul\":8492:8495   */\n      dup5\n        /* \"#utility.yul\":8483:8489   */\n      dup5\n        /* \"#utility.yul\":8478:8481   */\n      dup5\n        /* \"#utility.yul\":8474:8490   */\n      add\n        /* \"#utility.yul\":8471:8496   */\n      gt\n        /* \"#utility.yul\":8468:8580   */\n      iszero\n      tag_160\n      jumpi\n        /* \"#utility.yul\":8499:8578   */\n      tag_161\n      tag_36\n      jump\t// in\n    tag_161:\n        /* \"#utility.yul\":8468:8580   */\n    tag_160:\n        /* \"#utility.yul\":8589:8641   */\n      tag_162\n        /* \"#utility.yul\":8634:8640   */\n      dup5\n        /* \"#utility.yul\":8629:8632   */\n      dup3\n        /* \"#utility.yul\":8624:8627   */\n      dup6\n        /* \"#utility.yul\":8589:8641   */\n      tag_47\n      jump\t// in\n    tag_162:\n        /* \"#utility.yul\":8308:8647   */\n      pop\n        /* \"#utility.yul\":8213:8647   */\n      swap4\n      swap3\n      pop\n      pop\n      pop\n      jump\t// out\n        /* \"#utility.yul\":8667:9022   */\n    tag_60:\n        /* \"#utility.yul\":8734:8739   */\n      0x00\n        /* \"#utility.yul\":8783:8786   */\n      dup3\n        /* \"#utility.yul\":8776:8780   */\n      0x1f\n        /* \"#utility.yul\":8768:8774   */\n      dup4\n        /* \"#utility.yul\":8764:8781   */\n      add\n        /* \"#utility.yul\":8760:8787   */\n      slt\n        /* \"#utility.yul\":8750:8872   */\n      tag_164\n      jumpi\n        /* \"#utility.yul\":8791:8870   */\n      tag_165\n      tag_35\n      jump\t// in\n    tag_165:\n        /* \"#utility.yul\":8750:8872   */\n    tag_164:\n        /* \"#utility.yul\":8901:8907   */\n      dup2\n        /* \"#utility.yul\":8895:8908   */\n      mload\n        /* \"#utility.yul\":8926:9016   */\n      tag_166\n        /* \"#utility.yul\":9012:9015   */\n      dup5\n        /* \"#utility.yul\":9004:9010   */\n      dup3\n        /* \"#utility.yul\":8997:9001   */\n      0x20\n        /* \"#utility.yul\":8989:8995   */\n      dup7\n        /* \"#utility.yul\":8985:9002   */\n      add\n        /* \"#utility.yul\":8926:9016   */\n      tag_59\n      jump\t// in\n    tag_166:\n        /* \"#utility.yul\":8917:9016   */\n      swap2\n      pop\n        /* \"#utility.yul\":8740:9022   */\n      pop\n        /* \"#utility.yul\":8667:9022   */\n      swap3\n      swap2\n      pop\n      pop\n      jump\t// out\n        /* \"#utility.yul\":9028:9171   */\n    tag_61:\n        /* \"#utility.yul\":9085:9090   */\n      0x00\n        /* \"#utility.yul\":9116:9122   */\n      dup2\n        /* \"#utility.yul\":9110:9123   */\n      mload\n        /* \"#utility.yul\":9101:9123   */\n      swap1\n      pop\n        /* \"#utility.yul\":9132:9165   */\n      tag_168\n        /* \"#utility.yul\":9159:9164   */\n      dup2\n        /* \"#utility.yul\":9132:9165   */\n      tag_54\n      jump\t// in\n    tag_168:\n        /* \"#utility.yul\":9028:9171   */\n      swap3\n      swap2\n      pop\n      pop\n      jump\t// out\n        /* \"#utility.yul\":9177:9857   */\n    tag_25:\n        /* \"#utility.yul\":9266:9272   */\n      0x00\n        /* \"#utility.yul\":9274:9280   */\n      0x00\n        /* \"#utility.yul\":9323:9325   */\n      0x40\n        /* \"#utility.yul\":9311:9320   */\n      dup4\n        /* \"#utility.yul\":9302:9309   */\n      dup6\n        /* \"#utility.yul\":9298:9321   */\n      sub\n        /* \"#utility.yul\":9294:9326   */\n      slt\n        /* \"#utility.yul\":9291:9410   */\n      iszero\n      tag_170\n      jumpi\n        /* \"#utility.yul\":9329:9408   */\n      tag_171\n      tag_33\n      jump\t// in\n    tag_171:\n        /* \"#utility.yul\":9291:9410   */\n    tag_170:\n        /* \"#utility.yul\":9470:9471   */\n      0x00\n        /* \"#utility.yul\":9459:9468   */\n      dup4\n        /* \"#utility.yul\":9455:9472   */\n      add\n        /* \"#utility.yul\":9449:9473   */\n      mload\n        /* \"#utility.yul\":9500:9518   */\n      0xffffffffffffffff\n        /* \"#utility.yul\":9492:9498   */\n      dup2\n        /* \"#utility.yul\":9489:9519   */\n      gt\n        /* \"#utility.yul\":9486:9603   */\n      iszero\n      tag_172\n      jumpi\n        /* \"#utility.yul\":9522:9601   */\n      tag_173\n      tag_34\n      jump\t// in\n    tag_173:\n        /* \"#utility.yul\":9486:9603   */\n    tag_172:\n        /* \"#utility.yul\":9627:9701   */\n      tag_174\n        /* \"#utility.yul\":9693:9700   */\n      dup6\n        /* \"#utility.yul\":9684:9690   */\n      dup3\n        /* \"#utility.yul\":9673:9682   */\n      dup7\n        /* \"#utility.yul\":9669:9691   */\n      add\n        /* \"#utility.yul\":9627:9701   */\n      tag_60\n      jump\t// in\n    tag_174:\n        /* \"#utility.yul\":9617:9701   */\n      swap3\n      pop\n        /* \"#utility.yul\":9420:9711   */\n      pop\n        /* \"#utility.yul\":9750:9752   */\n      0x20\n        /* \"#utility.yul\":9776:9840   */\n      tag_175\n        /* \"#utility.yul\":9832:9839   */\n      dup6\n        /* \"#utility.yul\":9823:9829   */\n      dup3\n        /* \"#utility.yul\":9812:9821   */\n      dup7\n        /* \"#utility.yul\":9808:9830   */\n      add\n        /* \"#utility.yul\":9776:9840   */\n      tag_61\n      jump\t// in\n    tag_175:\n        /* \"#utility.yul\":9766:9840   */\n      swap2\n      pop\n        /* \"#utility.yul\":9721:9850   */\n      pop\n        /* \"#utility.yul\":9177:9857   */\n      swap3\n      pop\n      swap3\n      swap1\n      pop\n      jump\t// out\n        /* \"#utility.yul\":9863:10011   */\n    tag_62:\n        /* \"#utility.yul\":9965:9976   */\n      0x00\n        /* \"#utility.yul\":10002:10005   */\n      dup2\n        /* \"#utility.yul\":9987:10005   */\n      swap1\n      pop\n        /* \"#utility.yul\":9863:10011   */\n      swap3\n      swap2\n      pop\n      pop\n      jump\t// out\n        /* \"#utility.yul\":10017:10407   */\n    tag_63:\n        /* \"#utility.yul\":10123:10126   */\n      0x00\n        /* \"#utility.yul\":10151:10190   */\n      tag_178\n        /* \"#utility.yul\":10184:10189   */\n      dup3\n        /* \"#utility.yul\":10151:10190   */\n      tag_45\n      jump\t// in\n    tag_178:\n        /* \"#utility.yul\":10206:10295   */\n      tag_179\n        /* \"#utility.yul\":10288:10294   */\n      dup2\n        /* \"#utility.yul\":10283:10286   */\n      dup6\n        /* \"#utility.yul\":10206:10295   */\n      tag_62\n      jump\t// in\n    tag_179:\n        /* \"#utility.yul\":10199:10295   */\n      swap4\n      pop\n        /* \"#utility.yul\":10304:10369   */\n      tag_180\n        /* \"#utility.yul\":10362:10368   */\n      dup2\n        /* \"#utility.yul\":10357:10360   */\n      dup6\n        /* \"#utility.yul\":10350:10354   */\n      0x20\n        /* \"#utility.yul\":10343:10348   */\n      dup7\n        /* \"#utility.yul\":10339:10355   */\n      add\n        /* \"#utility.yul\":10304:10369   */\n      tag_47\n      jump\t// in\n    tag_180:\n        /* \"#utility.yul\":10394:10400   */\n      dup1\n        /* \"#utility.yul\":10389:10392   */\n      dup5\n        /* \"#utility.yul\":10385:10401   */\n      add\n        /* \"#utility.yul\":10378:10401   */\n      swap2\n      pop\n        /* \"#utility.yul\":10127:10407   */\n      pop\n        /* \"#utility.yul\":10017:10407   */\n      swap3\n      swap2\n      pop\n      pop\n      jump\t// out\n        /* \"#utility.yul\":10413:10492   */\n    tag_64:\n        /* \"#utility.yul\":10452:10459   */\n      0x00\n        /* \"#utility.yul\":10481:10486   */\n      dup2\n        /* \"#utility.yul\":10470:10486   */\n      swap1\n      pop\n        /* \"#utility.yul\":10413:10492   */\n      swap2\n      swap1\n      pop\n      jump\t// out\n        /* \"#utility.yul\":10498:10655   */\n    tag_65:\n        /* \"#utility.yul\":10603:10648   */\n      tag_183\n        /* \"#utility.yul\":10623:10647   */\n      tag_184\n        /* \"#utility.yul\":10641:10646   */\n      dup3\n        /* \"#utility.yul\":10623:10647   */\n      tag_49\n      jump\t// in\n    tag_184:\n        /* \"#utility.yul\":10603:10648   */\n      tag_64\n      jump\t// in\n    tag_183:\n        /* \"#utility.yul\":10598:10601   */\n      dup3\n        /* \"#utility.yul\":10591:10649   */\n      mstore\n        /* \"#utility.yul\":10498:10655   */\n      pop\n      pop\n      jump\t// out\n        /* \"#utility.yul\":10661:11077   */\n    tag_29:\n        /* \"#utility.yul\":10821:10824   */\n      0x00\n        /* \"#utility.yul\":10843:10938   */\n      tag_186\n        /* \"#utility.yul\":10934:10937   */\n      dup3\n        /* \"#utility.yul\":10925:10931   */\n      dup6\n        /* \"#utility.yul\":10843:10938   */\n      tag_63\n      jump\t// in\n    tag_186:\n        /* \"#utility.yul\":10836:10938   */\n      swap2\n      pop\n        /* \"#utility.yul\":10948:11023   */\n      tag_187\n        /* \"#utility.yul\":11019:11022   */\n      dup3\n        /* \"#utility.yul\":11010:11016   */\n      dup5\n        /* \"#utility.yul\":10948:11023   */\n      tag_65\n      jump\t// in\n    tag_187:\n        /* \"#utility.yul\":11048:11050   */\n      0x20\n        /* \"#utility.yul\":11043:11046   */\n      dup3\n        /* \"#utility.yul\":11039:11051   */\n      add\n        /* \"#utility.yul\":11032:11051   */\n      swap2\n      pop\n        /* \"#utility.yul\":11068:11071   */\n      dup2\n        /* \"#utility.yul\":11061:11071   */\n      swap1\n      pop\n        /* \"#utility.yul\":10661:11077   */\n      swap4\n      swap3\n      pop\n      pop\n      pop\n      jump\t// out\n\n    auxdata: 0xa2646970667358221220f0845f7c08673b333b2df6bf57c927956cb838c84b6304f12ba51911062225af64736f6c634300081e0033\n}\n",
				"bytecode": {
					"linkReferences": {},
					"object": "6080604052348015600e575f5ffd5b506107288061001c5f395ff3fe608060405234801561000f575f5ffd5b506004361061003f575f3560e01c8063034899bc14610043578063447a06f51461006157806347da7f8e14610092575b5f5ffd5b61004b6100c3565b6040516100589190610199565b60405180910390f35b61007b600480360381019061007691906102ff565b6100ed565b6040516100899291906103be565b60405180910390f35b6100ac60048036038101906100a791906104b4565b61010d565b6040516100ba929190610560565b60405180910390f35b5f5f357fffffffff0000000000000000000000000000000000000000000000000000000016905090565b60605f828060200190518101906101049190610617565b91509150915091565b60608083836040516020016101239291906103be565b60405160208183030381529060405284846040516020016101459291906106cb565b604051602081830303815290604052915091509250929050565b5f7fffffffff0000000000000000000000000000000000000000000000000000000082169050919050565b6101938161015f565b82525050565b5f6020820190506101ac5f83018461018a565b92915050565b5f604051905090565b5f5ffd5b5f5ffd5b5f5ffd5b5f5ffd5b5f601f19601f8301169050919050565b7f4e487b71000000000000000000000000000000000000000000000000000000005f52604160045260245ffd5b610211826101cb565b810181811067ffffffffffffffff821117156102305761022f6101db565b5b80604052505050565b5f6102426101b2565b905061024e8282610208565b919050565b5f67ffffffffffffffff82111561026d5761026c6101db565b5b610276826101cb565b9050602081019050919050565b828183375f83830152505050565b5f6102a361029e84610253565b610239565b9050828152602081018484840111156102bf576102be6101c7565b5b6102ca848285610283565b509392505050565b5f82601f8301126102e6576102e56101c3565b5b81356102f6848260208601610291565b91505092915050565b5f60208284031215610314576103136101bb565b5b5f82013567ffffffffffffffff811115610331576103306101bf565b5b61033d848285016102d2565b91505092915050565b5f81519050919050565b5f82825260208201905092915050565b8281835e5f83830152505050565b5f61037882610346565b6103828185610350565b9350610392818560208601610360565b61039b816101cb565b840191505092915050565b5f819050919050565b6103b8816103a6565b82525050565b5f6040820190508181035f8301526103d6818561036e565b90506103e560208301846103af565b9392505050565b5f67ffffffffffffffff821115610406576104056101db565b5b61040f826101cb565b9050602081019050919050565b5f61042e610429846103ec565b610239565b90508281526020810184848401111561044a576104496101c7565b5b610455848285610283565b509392505050565b5f82601f830112610471576104706101c3565b5b813561048184826020860161041c565b91505092915050565b610493816103a6565b811461049d575f5ffd5b50565b5f813590506104ae8161048a565b92915050565b5f5f604083850312156104ca576104c96101bb565b5b5f83013567ffffffffffffffff8111156104e7576104e66101bf565b5b6104f38582860161045d565b9250506020610504858286016104a0565b9150509250929050565b5f81519050919050565b5f82825260208201905092915050565b5f6105328261050e565b61053c8185610518565b935061054c818560208601610360565b610555816101cb565b840191505092915050565b5f6040820190508181035f8301526105788185610528565b9050818103602083015261058c8184610528565b90509392505050565b5f6105a76105a2846103ec565b610239565b9050828152602081018484840111156105c3576105c26101c7565b5b6105ce848285610360565b509392505050565b5f82601f8301126105ea576105e96101c3565b5b81516105fa848260208601610595565b91505092915050565b5f815190506106118161048a565b92915050565b5f5f6040838503121561062d5761062c6101bb565b5b5f83015167ffffffffffffffff81111561064a576106496101bf565b5b610656858286016105d6565b925050602061066785828601610603565b9150509250929050565b5f81905092915050565b5f61068582610346565b61068f8185610671565b935061069f818560208601610360565b80840191505092915050565b5f819050919050565b6106c56106c0826103a6565b6106ab565b82525050565b5f6106d6828561067b565b91506106e282846106b4565b602082019150819050939250505056fea2646970667358221220f0845f7c08673b333b2df6bf57c927956cb838c84b6304f12ba51911062225af64736f6c634300081e0033",
					"opcodes": "PUSH1 0x80 PUSH1 0x40 MSTORE CALLVALUE DUP1 ISZERO PUSH1 0xE JUMPI PUSH0 PUSH0 REVERT JUMPDEST POP PUSH2 0x728 DUP1 PUSH2 0x1C PUSH0 CODECOPY PUSH0 RETURN INVALID PUSH1 0x80 PUSH1 0x40 MSTORE CALLVALUE DUP1 ISZERO PUSH2 0xF JUMPI PUSH0 PUSH0 REVERT JUMPDEST POP PUSH1 0x4 CALLDATASIZE LT PUSH2 0x3F JUMPI PUSH0 CALLDATALOAD PUSH1 0xE0 SHR DUP1 PUSH4 0x34899BC EQ PUSH2 0x43 JUMPI DUP1 PUSH4 0x447A06F5 EQ PUSH2 0x61 JUMPI DUP1 PUSH4 0x47DA7F8E EQ PUSH2 0x92 JUMPI JUMPDEST PUSH0 PUSH0 REVERT JUMPDEST PUSH2 0x4B PUSH2 0xC3 JUMP JUMPDEST PUSH1 0x40 MLOAD PUSH2 0x58 SWAP2 SWAP1 PUSH2 0x199 JUMP JUMPDEST PUSH1 0x40 MLOAD DUP1 SWAP2 SUB SWAP1 RETURN JUMPDEST PUSH2 0x7B PUSH1 0x4 DUP1 CALLDATASIZE SUB DUP2 ADD SWAP1 PUSH2 0x76 SWAP2 SWAP1 PUSH2 0x2FF JUMP JUMPDEST PUSH2 0xED JUMP JUMPDEST PUSH1 0x40 MLOAD PUSH2 0x89 SWAP3 SWAP2 SWAP1 PUSH2 0x3BE JUMP JUMPDEST PUSH1 0x40 MLOAD DUP1 SWAP2 SUB SWAP1 RETURN JUMPDEST PUSH2 0xAC PUSH1 0x4 DUP1 CALLDATASIZE SUB DUP2 ADD SWAP1 PUSH2 0xA7 SWAP2 SWAP1 PUSH2 0x4B4 JUMP JUMPDEST PUSH2 0x10D JUMP JUMPDEST PUSH1 0x40 MLOAD PUSH2 0xBA SWAP3 SWAP2 SWAP1 PUSH2 0x560 JUMP JUMPDEST PUSH1 0x40 MLOAD DUP1 SWAP2 SUB SWAP1 RETURN JUMPDEST PUSH0 PUSH0 CALLDATALOAD PUSH32 0xFFFFFFFF00000000000000000000000000000000000000000000000000000000 AND SWAP1 POP SWAP1 JUMP JUMPDEST PUSH1 0x60 PUSH0 DUP3 DUP1 PUSH1 0x20 ADD SWAP1 MLOAD DUP2 ADD SWAP1 PUSH2 0x104 SWAP2 SWAP1 PUSH2 0x617 JUMP JUMPDEST SWAP2 POP SWAP2 POP SWAP2 POP SWAP2 JUMP JUMPDEST PUSH1 0x60 DUP1 DUP4 DUP4 PUSH1 0x40 MLOAD PUSH1 0x20 ADD PUSH2 0x123 SWAP3 SWAP2 SWAP1 PUSH2 0x3BE JUMP JUMPDEST PUSH1 0x40 MLOAD PUSH1 0x20 DUP2 DUP4 SUB SUB DUP2 MSTORE SWAP1 PUSH1 0x40 MSTORE DUP5 DUP5 PUSH1 0x40 MLOAD PUSH1 0x20 ADD PUSH2 0x145 SWAP3 SWAP2 SWAP1 PUSH2 0x6CB JUMP JUMPDEST PUSH1 0x40 MLOAD PUSH1 0x20 DUP2 DUP4 SUB SUB DUP2 MSTORE SWAP1 PUSH1 0x40 MSTORE SWAP2 POP SWAP2 POP SWAP3 POP SWAP3 SWAP1 POP JUMP JUMPDEST PUSH0 PUSH32 0xFFFFFFFF00000000000000000000000000000000000000000000000000000000 DUP3 AND SWAP1 POP SWAP2 SWAP1 POP JUMP JUMPDEST PUSH2 0x193 DUP2 PUSH2 0x15F JUMP JUMPDEST DUP3 MSTORE POP POP JUMP JUMPDEST PUSH0 PUSH1 0x20 DUP3 ADD SWAP1 POP PUSH2 0x1AC PUSH0 DUP4 ADD DUP5 PUSH2 0x18A JUMP JUMPDEST SWAP3 SWAP2 POP POP JUMP JUMPDEST PUSH0 PUSH1 0x40 MLOAD SWAP1 POP SWAP1 JUMP JUMPDEST PUSH0 PUSH0 REVERT JUMPDEST PUSH0 PUSH0 REVERT JUMPDEST PUSH0 PUSH0 REVERT JUMPDEST PUSH0 PUSH0 REVERT JUMPDEST PUSH0 PUSH1 0x1F NOT PUSH1 0x1F DUP4 ADD AND SWAP1 POP SWAP2 SWAP1 POP JUMP JUMPDEST PUSH32 0x4E487B7100000000000000000000000000000000000000000000000000000000 PUSH0 MSTORE PUSH1 0x41 PUSH1 0x4 MSTORE PUSH1 0x24 PUSH0 REVERT JUMPDEST PUSH2 0x211 DUP3 PUSH2 0x1CB JUMP JUMPDEST DUP2 ADD DUP2 DUP2 LT PUSH8 0xFFFFFFFFFFFFFFFF DUP3 GT OR ISZERO PUSH2 0x230 JUMPI PUSH2 0x22F PUSH2 0x1DB JUMP JUMPDEST JUMPDEST DUP1 PUSH1 0x40 MSTORE POP POP POP JUMP JUMPDEST PUSH0 PUSH2 0x242 PUSH2 0x1B2 JUMP JUMPDEST SWAP1 POP PUSH2 0x24E DUP3 DUP3 PUSH2 0x208 JUMP JUMPDEST SWAP2 SWAP1 POP JUMP JUMPDEST PUSH0 PUSH8 0xFFFFFFFFFFFFFFFF DUP3 GT ISZERO PUSH2 0x26D JUMPI PUSH2 0x26C PUSH2 0x1DB JUMP JUMPDEST JUMPDEST PUSH2 0x276 DUP3 PUSH2 0x1CB JUMP JUMPDEST SWAP1 POP PUSH1 0x20 DUP2 ADD SWAP1 POP SWAP2 SWAP1 POP JUMP JUMPDEST DUP3 DUP2 DUP4 CALLDATACOPY PUSH0 DUP4 DUP4 ADD MSTORE POP POP POP JUMP JUMPDEST PUSH0 PUSH2 0x2A3 PUSH2 0x29E DUP5 PUSH2 0x253 JUMP JUMPDEST PUSH2 0x239 JUMP JUMPDEST SWAP1 POP DUP3 DUP2 MSTORE PUSH1 0x20 DUP2 ADD DUP5 DUP5 DUP5 ADD GT ISZERO PUSH2 0x2BF JUMPI PUSH2 0x2BE PUSH2 0x1C7 JUMP JUMPDEST JUMPDEST PUSH2 0x2CA DUP5 DUP3 DUP6 PUSH2 0x283 JUMP JUMPDEST POP SWAP4 SWAP3 POP POP POP JUMP JUMPDEST PUSH0 DUP3 PUSH1 0x1F DUP4 ADD SLT PUSH2 0x2E6 JUMPI PUSH2 0x2E5 PUSH2 0x1C3 JUMP JUMPDEST JUMPDEST DUP2 CALLDATALOAD PUSH2 0x2F6 DUP5 DUP3 PUSH1 0x20 DUP7 ADD PUSH2 0x291 JUMP JUMPDEST SWAP2 POP POP SWAP3 SWAP2 POP POP JUMP JUMPDEST PUSH0 PUSH1 0x20 DUP3 DUP5 SUB SLT ISZERO PUSH2 0x314 JUMPI PUSH2 0x313 PUSH2 0x1BB JUMP JUMPDEST JUMPDEST PUSH0 DUP3 ADD CALLDATALOAD PUSH8 0xFFFFFFFFFFFFFFFF DUP2 GT ISZERO PUSH2 0x331 JUMPI PUSH2 0x330 PUSH2 0x1BF JUMP JUMPDEST JUMPDEST PUSH2 0x33D DUP5 DUP3 DUP6 ADD PUSH2 0x2D2 JUMP JUMPDEST SWAP2 POP POP SWAP3 SWAP2 POP POP JUMP JUMPDEST PUSH0 DUP2 MLOAD SWAP1 POP SWAP2 SWAP1 POP JUMP JUMPDEST PUSH0 DUP3 DUP3 MSTORE PUSH1 0x20 DUP3 ADD SWAP1 POP SWAP3 SWAP2 POP POP JUMP JUMPDEST DUP3 DUP2 DUP4 MCOPY PUSH0 DUP4 DUP4 ADD MSTORE POP POP POP JUMP JUMPDEST PUSH0 PUSH2 0x378 DUP3 PUSH2 0x346 JUMP JUMPDEST PUSH2 0x382 DUP2 DUP6 PUSH2 0x350 JUMP JUMPDEST SWAP4 POP PUSH2 0x392 DUP2 DUP6 PUSH1 0x20 DUP7 ADD PUSH2 0x360 JUMP JUMPDEST PUSH2 0x39B DUP2 PUSH2 0x1CB JUMP JUMPDEST DUP5 ADD SWAP2 POP POP SWAP3 SWAP2 POP POP JUMP JUMPDEST PUSH0 DUP2 SWAP1 POP SWAP2 SWAP1 POP JUMP JUMPDEST PUSH2 0x3B8 DUP2 PUSH2 0x3A6 JUMP JUMPDEST DUP3 MSTORE POP POP JUMP JUMPDEST PUSH0 PUSH1 0x40 DUP3 ADD SWAP1 POP DUP2 DUP2 SUB PUSH0 DUP4 ADD MSTORE PUSH2 0x3D6 DUP2 DUP6 PUSH2 0x36E JUMP JUMPDEST SWAP1 POP PUSH2 0x3E5 PUSH1 0x20 DUP4 ADD DUP5 PUSH2 0x3AF JUMP JUMPDEST SWAP4 SWAP3 POP POP POP JUMP JUMPDEST PUSH0 PUSH8 0xFFFFFFFFFFFFFFFF DUP3 GT ISZERO PUSH2 0x406 JUMPI PUSH2 0x405 PUSH2 0x1DB JUMP JUMPDEST JUMPDEST PUSH2 0x40F DUP3 PUSH2 0x1CB JUMP JUMPDEST SWAP1 POP PUSH1 0x20 DUP2 ADD SWAP1 POP SWAP2 SWAP1 POP JUMP JUMPDEST PUSH0 PUSH2 0x42E PUSH2 0x429 DUP5 PUSH2 0x3EC JUMP JUMPDEST PUSH2 0x239 JUMP JUMPDEST SWAP1 POP DUP3 DUP2 MSTORE PUSH1 0x20 DUP2 ADD DUP5 DUP5 DUP5 ADD GT ISZERO PUSH2 0x44A JUMPI PUSH2 0x449 PUSH2 0x1C7 JUMP JUMPDEST JUMPDEST PUSH2 0x455 DUP5 DUP3 DUP6 PUSH2 0x283 JUMP JUMPDEST POP SWAP4 SWAP3 POP POP POP JUMP JUMPDEST PUSH0 DUP3 PUSH1 0x1F DUP4 ADD SLT PUSH2 0x471 JUMPI PUSH2 0x470 PUSH2 0x1C3 JUMP JUMPDEST JUMPDEST DUP2 CALLDATALOAD PUSH2 0x481 DUP5 DUP3 PUSH1 0x20 DUP7 ADD PUSH2 0x41C JUMP JUMPDEST SWAP2 POP POP SWAP3 SWAP2 POP POP JUMP JUMPDEST PUSH2 0x493 DUP2 PUSH2 0x3A6 JUMP JUMPDEST DUP2 EQ PUSH2 0x49D JUMPI PUSH0 PUSH0 REVERT JUMPDEST POP JUMP JUMPDEST PUSH0 DUP2 CALLDATALOAD SWAP1 POP PUSH2 0x4AE DUP2 PUSH2 0x48A JUMP JUMPDEST SWAP3 SWAP2 POP POP JUMP JUMPDEST PUSH0 PUSH0 PUSH1 0x40 DUP4 DUP6 SUB SLT ISZERO PUSH2 0x4CA JUMPI PUSH2 0x4C9 PUSH2 0x1BB JUMP JUMPDEST JUMPDEST PUSH0 DUP4 ADD CALLDATALOAD PUSH8 0xFFFFFFFFFFFFFFFF DUP2 GT ISZERO PUSH2 0x4E7 JUMPI PUSH2 0x4E6 PUSH2 0x1BF JUMP JUMPDEST JUMPDEST PUSH2 0x4F3 DUP6 DUP3 DUP7 ADD PUSH2 0x45D JUMP JUMPDEST SWAP3 POP POP PUSH1 0x20 PUSH2 0x504 DUP6 DUP3 DUP7 ADD PUSH2 0x4A0 JUMP JUMPDEST SWAP2 POP POP SWAP3 POP SWAP3 SWAP1 POP JUMP JUMPDEST PUSH0 DUP2 MLOAD SWAP1 POP SWAP2 SWAP1 POP JUMP JUMPDEST PUSH0 DUP3 DUP3 MSTORE PUSH1 0x20 DUP3 ADD SWAP1 POP SWAP3 SWAP2 POP POP JUMP JUMPDEST PUSH0 PUSH2 0x532 DUP3 PUSH2 0x50E JUMP JUMPDEST PUSH2 0x53C DUP2 DUP6 PUSH2 0x518 JUMP JUMPDEST SWAP4 POP PUSH2 0x54C DUP2 DUP6 PUSH1 0x20 DUP7 ADD PUSH2 0x360 JUMP JUMPDEST PUSH2 0x555 DUP2 PUSH2 0x1CB JUMP JUMPDEST DUP5 ADD SWAP2 POP POP SWAP3 SWAP2 POP POP JUMP JUMPDEST PUSH0 PUSH1 0x40 DUP3 ADD SWAP1 POP DUP2 DUP2 SUB PUSH0 DUP4 ADD MSTORE PUSH2 0x578 DUP2 DUP6 PUSH2 0x528 JUMP JUMPDEST SWAP1 POP DUP2 DUP2 SUB PUSH1 0x20 DUP4 ADD MSTORE PUSH2 0x58C DUP2 DUP5 PUSH2 0x528 JUMP JUMPDEST SWAP1 POP SWAP4 SWAP3 POP POP POP JUMP JUMPDEST PUSH0 PUSH2 0x5A7 PUSH2 0x5A2 DUP5 PUSH2 0x3EC JUMP JUMPDEST PUSH2 0x239 JUMP JUMPDEST SWAP1 POP DUP3 DUP2 MSTORE PUSH1 0x20 DUP2 ADD DUP5 DUP5 DUP5 ADD GT ISZERO PUSH2 0x5C3 JUMPI PUSH2 0x5C2 PUSH2 0x1C7 JUMP JUMPDEST JUMPDEST PUSH2 0x5CE DUP5 DUP3 DUP6 PUSH2 0x360 JUMP JUMPDEST POP SWAP4 SWAP3 POP POP POP JUMP JUMPDEST PUSH0 DUP3 PUSH1 0x1F DUP4 ADD SLT PUSH2 0x5EA JUMPI PUSH2 0x5E9 PUSH2 0x1C3 JUMP JUMPDEST JUMPDEST DUP2 MLOAD PUSH2 0x5FA DUP5 DUP3 PUSH1 0x20 DUP7 ADD PUSH2 0x595 JUMP JUMPDEST SWAP2 POP POP SWAP3 SWAP2 POP POP JUMP JUMPDEST PUSH0 DUP2 MLOAD SWAP1 POP PUSH2 0x611 DUP2 PUSH2 0x48A JUMP JUMPDEST SWAP3 SWAP2 POP POP JUMP JUMPDEST PUSH0 PUSH0 PUSH1 0x40 DUP4 DUP6 SUB SLT ISZERO PUSH2 0x62D JUMPI PUSH2 0x62C PUSH2 0x1BB JUMP JUMPDEST JUMPDEST PUSH0 DUP4 ADD MLOAD PUSH8 0xFFFFFFFFFFFFFFFF DUP2 GT ISZERO PUSH2 0x64A JUMPI PUSH2 0x649 PUSH2 0x1BF JUMP JUMPDEST JUMPDEST PUSH2 0x656 DUP6 DUP3 DUP7 ADD PUSH2 0x5D6 JUMP JUMPDEST SWAP3 POP POP PUSH1 0x20 PUSH2 0x667 DUP6 DUP3 DUP7 ADD PUSH2 0x603 JUMP JUMPDEST SWAP2 POP POP SWAP3 POP SWAP3 SWAP1 POP JUMP JUMPDEST PUSH0 DUP2 SWAP1 POP SWAP3 SWAP2 POP POP JUMP JUMPDEST PUSH0 PUSH2 0x685 DUP3 PUSH2 0x346 JUMP JUMPDEST PUSH2 0x68F DUP2 DUP6 PUSH2 0x671 JUMP JUMPDEST SWAP4 POP PUSH2 0x69F DUP2 DUP6 PUSH1 0x20 DUP7 ADD PUSH2 0x360 JUMP JUMPDEST DUP1 DUP5 ADD SWAP2 POP POP SWAP3 SWAP2 POP POP JUMP JUMPDEST PUSH0 DUP2 SWAP1 POP SWAP2 SWAP1 POP JUMP JUMPDEST PUSH2 0x6C5 PUSH2 0x6C0 DUP3 PUSH2 0x3A6 JUMP JUMPDEST PUSH2 0x6AB JUMP JUMPDEST DUP3 MSTORE POP POP JUMP JUMPDEST PUSH0 PUSH2 0x6D6 DUP3 DUP6 PUSH2 0x67B JUMP JUMPDEST SWAP2 POP PUSH2 0x6E2 DUP3 DUP5 PUSH2 0x6B4 JUMP JUMPDEST PUSH1 0x20 DUP3 ADD SWAP2 POP DUP2 SWAP1 POP SWAP4 SWAP3 POP POP POP JUMP INVALID LOG2 PUSH5 0x6970667358 0x22 SLT KECCAK256 CREATE DUP5 PUSH0 PUSH29 0x8673B333B2DF6BF57C927956CB838C84B6304F12BA51911062225AF64 PUSH20 0x6F6C634300081E00330000000000000000000000 "
				},
				"gasEstimates": {
					"creation": {
						"codeDepositCost": "366400",
						"executionCost": "403",
						"totalCost": "366803"
					},
					"external": {
						"decodeData(bytes)": "infinite",
						"encodeData(string,uint256)": "infinite",
						"getSelector()": "324"
					}
				},
				"methodIdentifiers": {
					"decodeData(bytes)": "447a06f5",
					"encodeData(string,uint256)": "47da7f8e",
					"getSelector()": "034899bc"
				}
			},
			"storageLayout": {
				"storage": [],
				"types": null
			},
			"userdoc": {
				"kind": "user",
				"methods": {},
				"version": 1
			}
		}
	}
}