{
	"task/task01/1.voting.sol": {
		"Voting": {
			"abi": [
				{
					"inputs": [
						{
							"internalType": "address",
							"name": "candidate",
							"type": "address"
						}
					],
					"name": "getVotes",
					"outputs": [
						{
							"internalType": "uint256",
							"name": "",
							"type": "uint256"
						}
					],
					"stateMutability": "view",
					"type": "function"
				},
				{
					"inputs": [],
					"name": "resetVotes",
					"outputs": [],
					"stateMutability": "nonpayable",
					"type": "function"
				},
				{
					"inputs": [
						{
							"internalType": "address",
							"name": "candidate",
							"type": "address"
						}
					],
					"name": "vote",
					"outputs": [],
					"stateMutability": "nonpayable",
					"type": "function"
				}
			],
			"devdoc": {
				"kind": "dev",
				"methods": {},
				"version": 1
			},
			"evm": {
				"assembly": "    /* \"task/task01/1.voting.sol\":55:892  contract Voting {... */\n  mstore(0x40, 0x80)\n  callvalue\n  dup1\n  iszero\n  tag_1\n  jumpi\n  revert(0x00, 0x00)\ntag_1:\n  pop\n  dataSize(sub_0)\n  dup1\n  dataOffset(sub_0)\n  0x00\n  codecopy\n  0x00\n  return\nstop\n\nsub_0: assembly {\n        /* \"task/task01/1.voting.sol\":55:892  contract Voting {... */\n      mstore(0x40, 0x80)\n      callvalue\n      dup1\n      iszero\n      tag_1\n      jumpi\n      revert(0x00, 0x00)\n    tag_1:\n      pop\n      jumpi(tag_2, lt(calldatasize, 0x04))\n      shr(0xe0, calldataload(0x00))\n      dup1\n      0x6dd7d8ea\n      eq\n      tag_3\n      jumpi\n      dup1\n      0x9ab24eb0\n      eq\n      tag_4\n      jumpi\n      dup1\n      0xb9830ff1\n      eq\n      tag_5\n      jumpi\n    tag_2:\n      revert(0x00, 0x00)\n        /* \"task/task01/1.voting.sol\":145:370  function vote(address candidate) public {... */\n    tag_3:\n      tag_6\n      0x04\n      dup1\n      calldatasize\n      sub\n      dup2\n      add\n      swap1\n      tag_7\n      swap2\n      swap1\n      tag_8\n      jump\t// in\n    tag_7:\n      tag_9\n      jump\t// in\n    tag_6:\n      stop\n        /* \"task/task01/1.voting.sol\":376:486  function getVotes(address candidate) public view returns (uint256) {... */\n    tag_4:\n      tag_10\n      0x04\n      dup1\n      calldatasize\n      sub\n      dup2\n      add\n      swap1\n      tag_11\n      swap2\n      swap1\n      tag_8\n      jump\t// in\n    tag_11:\n      tag_12\n      jump\t// in\n    tag_10:\n      mload(0x40)\n      tag_13\n      swap2\n      swap1\n      tag_14\n      jump\t// in\n    tag_13:\n      mload(0x40)\n      dup1\n      swap2\n      sub\n      swap1\n      return\n        /* \"task/task01/1.voting.sol\":492:635  function resetVotes() public {... */\n    tag_5:\n      tag_15\n      tag_16\n      jump\t// in\n    tag_15:\n      stop\n        /* \"task/task01/1.voting.sol\":145:370  function vote(address candidate) public {... */\n    tag_9:\n        /* \"task/task01/1.voting.sol\":195:206  uint256 num */\n      0x00\n        /* \"task/task01/1.voting.sol\":209:217  voteData */\n      0x00\n        /* \"task/task01/1.voting.sol\":209:228  voteData[candidate] */\n      0x00\n        /* \"task/task01/1.voting.sol\":218:227  candidate */\n      dup4\n        /* \"task/task01/1.voting.sol\":209:228  voteData[candidate] */\n      0xffffffffffffffffffffffffffffffffffffffff\n      and\n      0xffffffffffffffffffffffffffffffffffffffff\n      and\n      dup2\n      mstore\n      0x20\n      add\n      swap1\n      dup2\n      mstore\n      0x20\n      add\n      0x00\n      keccak256\n      sload\n        /* \"task/task01/1.voting.sol\":195:228  uint256 num = voteData[candidate] */\n      swap1\n      pop\n        /* \"task/task01/1.voting.sol\":238:243  num++ */\n      dup1\n      dup1\n      tag_18\n      swap1\n      tag_19\n      jump\t// in\n    tag_18:\n      swap2\n      pop\n      pop\n        /* \"task/task01/1.voting.sol\":275:278  num */\n      dup1\n        /* \"task/task01/1.voting.sol\":253:261  voteData */\n      0x00\n        /* \"task/task01/1.voting.sol\":253:272  voteData[candidate] */\n      0x00\n        /* \"task/task01/1.voting.sol\":262:271  candidate */\n      dup5\n        /* \"task/task01/1.voting.sol\":253:272  voteData[candidate] */\n      0xffffffffffffffffffffffffffffffffffffffff\n      and\n      0xffffffffffffffffffffffffffffffffffffffff\n      and\n      dup2\n      mstore\n      0x20\n      add\n      swap1\n      dup2\n      mstore\n      0x20\n      add\n      0x00\n      keccak256\n        /* \"task/task01/1.voting.sol\":253:278  voteData[candidate] = num */\n      dup2\n      swap1\n      sstore\n      pop\n        /* \"task/task01/1.voting.sol\":293:312  contains(candidate) */\n      tag_20\n        /* \"task/task01/1.voting.sol\":302:311  candidate */\n      dup3\n        /* \"task/task01/1.voting.sol\":293:301  contains */\n      tag_21\n        /* \"task/task01/1.voting.sol\":293:312  contains(candidate) */\n      jump\t// in\n    tag_20:\n        /* \"task/task01/1.voting.sol\":288:364  if (!contains(candidate)) {... */\n      tag_22\n      jumpi\n        /* \"task/task01/1.voting.sol\":328:337  addresses */\n      0x01\n        /* \"task/task01/1.voting.sol\":343:352  candidate */\n      dup3\n        /* \"task/task01/1.voting.sol\":328:353  addresses.push(candidate) */\n      swap1\n      dup1\n      0x01\n      dup2\n      sload\n      add\n      dup1\n      dup3\n      sstore\n      dup1\n      swap2\n      pop\n      pop\n      0x01\n      swap1\n      sub\n      swap1\n      0x00\n      mstore\n      keccak256(0x00, 0x20)\n      add\n      0x00\n      swap1\n      swap2\n      swap1\n      swap2\n      swap1\n      swap2\n      0x0100\n      exp\n      dup2\n      sload\n      dup2\n      0xffffffffffffffffffffffffffffffffffffffff\n      mul\n      not\n      and\n      swap1\n      dup4\n      0xffffffffffffffffffffffffffffffffffffffff\n      and\n      mul\n      or\n      swap1\n      sstore\n      pop\n        /* \"task/task01/1.voting.sol\":288:364  if (!contains(candidate)) {... */\n    tag_22:\n        /* \"task/task01/1.voting.sol\":185:370  {... */\n      pop\n        /* \"task/task01/1.voting.sol\":145:370  function vote(address candidate) public {... */\n      pop\n      jump\t// out\n        /* \"task/task01/1.voting.sol\":376:486  function getVotes(address candidate) public view returns (uint256) {... */\n    tag_12:\n        /* \"task/task01/1.voting.sol\":434:441  uint256 */\n      0x00\n        /* \"task/task01/1.voting.sol\":460:468  voteData */\n      0x00\n        /* \"task/task01/1.voting.sol\":460:479  voteData[candidate] */\n      0x00\n        /* \"task/task01/1.voting.sol\":469:478  candidate */\n      dup4\n        /* \"task/task01/1.voting.sol\":460:479  voteData[candidate] */\n      0xffffffffffffffffffffffffffffffffffffffff\n      and\n      0xffffffffffffffffffffffffffffffffffffffff\n      and\n      dup2\n      mstore\n      0x20\n      add\n      swap1\n      dup2\n      mstore\n      0x20\n      add\n      0x00\n      keccak256\n      sload\n        /* \"task/task01/1.voting.sol\":453:479  return voteData[candidate] */\n      swap1\n      pop\n        /* \"task/task01/1.voting.sol\":376:486  function getVotes(address candidate) public view returns (uint256) {... */\n      swap2\n      swap1\n      pop\n      jump\t// out\n        /* \"task/task01/1.voting.sol\":492:635  function resetVotes() public {... */\n    tag_16:\n        /* \"task/task01/1.voting.sol\":536:545  uint256 i */\n      0x00\n        /* \"task/task01/1.voting.sol\":548:549  0 */\n      0x00\n        /* \"task/task01/1.voting.sol\":536:549  uint256 i = 0 */\n      swap1\n      pop\n        /* \"task/task01/1.voting.sol\":531:629  for (uint256 i = 0; i < addresses.length;i++ ) {... */\n    tag_26:\n        /* \"task/task01/1.voting.sol\":555:564  addresses */\n      0x01\n        /* \"task/task01/1.voting.sol\":555:571  addresses.length */\n      dup1\n      sload\n      swap1\n      pop\n        /* \"task/task01/1.voting.sol\":551:552  i */\n      dup2\n        /* \"task/task01/1.voting.sol\":551:571  i < addresses.length */\n      lt\n        /* \"task/task01/1.voting.sol\":531:629  for (uint256 i = 0; i < addresses.length;i++ ) {... */\n      iszero\n      tag_27\n      jumpi\n        /* \"task/task01/1.voting.sol\":617:618  0 */\n      0x00\n        /* \"task/task01/1.voting.sol\":592:600  voteData */\n      0x00\n        /* \"task/task01/1.voting.sol\":592:614  voteData[addresses[i]] */\n      0x00\n        /* \"task/task01/1.voting.sol\":601:610  addresses */\n      0x01\n        /* \"task/task01/1.voting.sol\":611:612  i */\n      dup5\n        /* \"task/task01/1.voting.sol\":601:613  addresses[i] */\n      dup2\n      sload\n      dup2\n      lt\n      tag_29\n      jumpi\n      tag_30\n      tag_31\n      jump\t// in\n    tag_30:\n    tag_29:\n      swap1\n      0x00\n      mstore\n      keccak256(0x00, 0x20)\n      add\n      0x00\n      swap1\n      sload\n      swap1\n      0x0100\n      exp\n      swap1\n      div\n      0xffffffffffffffffffffffffffffffffffffffff\n      and\n        /* \"task/task01/1.voting.sol\":592:614  voteData[addresses[i]] */\n      0xffffffffffffffffffffffffffffffffffffffff\n      and\n      0xffffffffffffffffffffffffffffffffffffffff\n      and\n      dup2\n      mstore\n      0x20\n      add\n      swap1\n      dup2\n      mstore\n      0x20\n      add\n      0x00\n      keccak256\n        /* \"task/task01/1.voting.sol\":592:618  voteData[addresses[i]] = 0 */\n      dup2\n      swap1\n      sstore\n      pop\n        /* \"task/task01/1.voting.sol\":572:575  i++ */\n      dup1\n      dup1\n      0x01\n      add\n      swap2\n      pop\n      pop\n        /* \"task/task01/1.voting.sol\":531:629  for (uint256 i = 0; i < addresses.length;i++ ) {... */\n      jump(tag_26)\n    tag_27:\n      pop\n        /* \"task/task01/1.voting.sol\":492:635  function resetVotes() public {... */\n      jump\t// out\n        /* \"task/task01/1.voting.sol\":641:890  function contains(address candidate) private view returns (bool) {... */\n    tag_21:\n        /* \"task/task01/1.voting.sol\":700:704  bool */\n      0x00\n        /* \"task/task01/1.voting.sol\":721:730  uint256 i */\n      0x00\n        /* \"task/task01/1.voting.sol\":733:734  0 */\n      0x00\n        /* \"task/task01/1.voting.sol\":721:734  uint256 i = 0 */\n      swap1\n      pop\n        /* \"task/task01/1.voting.sol\":716:862  for (uint256 i = 0; i < addresses.length; i++) {... */\n    tag_34:\n        /* \"task/task01/1.voting.sol\":740:749  addresses */\n      0x01\n        /* \"task/task01/1.voting.sol\":740:756  addresses.length */\n      dup1\n      sload\n      swap1\n      pop\n        /* \"task/task01/1.voting.sol\":736:737  i */\n      dup2\n        /* \"task/task01/1.voting.sol\":736:756  i < addresses.length */\n      lt\n        /* \"task/task01/1.voting.sol\":716:862  for (uint256 i = 0; i < addresses.length; i++) {... */\n      iszero\n      tag_35\n      jumpi\n        /* \"task/task01/1.voting.sol\":797:806  candidate */\n      dup3\n        /* \"task/task01/1.voting.sol\":781:806  addresses[i] == candidate */\n      0xffffffffffffffffffffffffffffffffffffffff\n      and\n        /* \"task/task01/1.voting.sol\":781:790  addresses */\n      0x01\n        /* \"task/task01/1.voting.sol\":791:792  i */\n      dup3\n        /* \"task/task01/1.voting.sol\":781:793  addresses[i] */\n      dup2\n      sload\n      dup2\n      lt\n      tag_37\n      jumpi\n      tag_38\n      tag_31\n      jump\t// in\n    tag_38:\n    tag_37:\n      swap1\n      0x00\n      mstore\n      keccak256(0x00, 0x20)\n      add\n      0x00\n      swap1\n      sload\n      swap1\n      0x0100\n      exp\n      swap1\n      div\n      0xffffffffffffffffffffffffffffffffffffffff\n      and\n        /* \"task/task01/1.voting.sol\":781:806  addresses[i] == candidate */\n      0xffffffffffffffffffffffffffffffffffffffff\n      and\n      sub\n        /* \"task/task01/1.voting.sol\":777:852  if (addresses[i] == candidate) {... */\n      tag_40\n      jumpi\n        /* \"task/task01/1.voting.sol\":833:837  true */\n      0x01\n        /* \"task/task01/1.voting.sol\":826:837  return true */\n      swap2\n      pop\n      pop\n      jump(tag_33)\n        /* \"task/task01/1.voting.sol\":777:852  if (addresses[i] == candidate) {... */\n    tag_40:\n        /* \"task/task01/1.voting.sol\":758:761  i++ */\n      dup1\n      dup1\n      0x01\n      add\n      swap2\n      pop\n      pop\n        /* \"task/task01/1.voting.sol\":716:862  for (uint256 i = 0; i < addresses.length; i++) {... */\n      jump(tag_34)\n    tag_35:\n      pop\n        /* \"task/task01/1.voting.sol\":878:883  false */\n      0x00\n        /* \"task/task01/1.voting.sol\":871:883  return false */\n      swap1\n      pop\n        /* \"task/task01/1.voting.sol\":641:890  function contains(address candidate) private view returns (bool) {... */\n    tag_33:\n      swap2\n      swap1\n      pop\n      jump\t// out\n        /* \"#utility.yul\":88:205   */\n    tag_42:\n        /* \"#utility.yul\":197:198   */\n      0x00\n        /* \"#utility.yul\":194:195   */\n      0x00\n        /* \"#utility.yul\":187:199   */\n      revert\n        /* \"#utility.yul\":334:460   */\n    tag_44:\n        /* \"#utility.yul\":371:378   */\n      0x00\n        /* \"#utility.yul\":411:453   */\n      0xffffffffffffffffffffffffffffffffffffffff\n        /* \"#utility.yul\":404:409   */\n      dup3\n        /* \"#utility.yul\":400:454   */\n      and\n        /* \"#utility.yul\":389:454   */\n      swap1\n      pop\n        /* \"#utility.yul\":334:460   */\n      swap2\n      swap1\n      pop\n      jump\t// out\n        /* \"#utility.yul\":466:562   */\n    tag_45:\n        /* \"#utility.yul\":503:510   */\n      0x00\n        /* \"#utility.yul\":532:556   */\n      tag_57\n        /* \"#utility.yul\":550:555   */\n      dup3\n        /* \"#utility.yul\":532:556   */\n      tag_44\n      jump\t// in\n    tag_57:\n        /* \"#utility.yul\":521:556   */\n      swap1\n      pop\n        /* \"#utility.yul\":466:562   */\n      swap2\n      swap1\n      pop\n      jump\t// out\n        /* \"#utility.yul\":568:690   */\n    tag_46:\n        /* \"#utility.yul\":641:665   */\n      tag_59\n        /* \"#utility.yul\":659:664   */\n      dup2\n        /* \"#utility.yul\":641:665   */\n      tag_45\n      jump\t// in\n    tag_59:\n        /* \"#utility.yul\":634:639   */\n      dup2\n        /* \"#utility.yul\":631:666   */\n      eq\n        /* \"#utility.yul\":621:684   */\n      tag_60\n      jumpi\n        /* \"#utility.yul\":680:681   */\n      0x00\n        /* \"#utility.yul\":677:678   */\n      0x00\n        /* \"#utility.yul\":670:682   */\n      revert\n        /* \"#utility.yul\":621:684   */\n    tag_60:\n        /* \"#utility.yul\":568:690   */\n      pop\n      jump\t// out\n        /* \"#utility.yul\":696:835   */\n    tag_47:\n        /* \"#utility.yul\":742:747   */\n      0x00\n        /* \"#utility.yul\":780:786   */\n      dup2\n        /* \"#utility.yul\":767:787   */\n      calldataload\n        /* \"#utility.yul\":758:787   */\n      swap1\n      pop\n        /* \"#utility.yul\":796:829   */\n      tag_62\n        /* \"#utility.yul\":823:828   */\n      dup2\n        /* \"#utility.yul\":796:829   */\n      tag_46\n      jump\t// in\n    tag_62:\n        /* \"#utility.yul\":696:835   */\n      swap3\n      swap2\n      pop\n      pop\n      jump\t// out\n        /* \"#utility.yul\":841:1170   */\n    tag_8:\n        /* \"#utility.yul\":900:906   */\n      0x00\n        /* \"#utility.yul\":949:951   */\n      0x20\n        /* \"#utility.yul\":937:946   */\n      dup3\n        /* \"#utility.yul\":928:935   */\n      dup5\n        /* \"#utility.yul\":924:947   */\n      sub\n        /* \"#utility.yul\":920:952   */\n      slt\n        /* \"#utility.yul\":917:1036   */\n      iszero\n      tag_64\n      jumpi\n        /* \"#utility.yul\":955:1034   */\n      tag_65\n      tag_42\n      jump\t// in\n    tag_65:\n        /* \"#utility.yul\":917:1036   */\n    tag_64:\n        /* \"#utility.yul\":1075:1076   */\n      0x00\n        /* \"#utility.yul\":1100:1153   */\n      tag_66\n        /* \"#utility.yul\":1145:1152   */\n      dup5\n        /* \"#utility.yul\":1136:1142   */\n      dup3\n        /* \"#utility.yul\":1125:1134   */\n      dup6\n        /* \"#utility.yul\":1121:1143   */\n      add\n        /* \"#utility.yul\":1100:1153   */\n      tag_47\n      jump\t// in\n    tag_66:\n        /* \"#utility.yul\":1090:1153   */\n      swap2\n      pop\n        /* \"#utility.yul\":1046:1163   */\n      pop\n        /* \"#utility.yul\":841:1170   */\n      swap3\n      swap2\n      pop\n      pop\n      jump\t// out\n        /* \"#utility.yul\":1176:1253   */\n    tag_48:\n        /* \"#utility.yul\":1213:1220   */\n      0x00\n        /* \"#utility.yul\":1242:1247   */\n      dup2\n        /* \"#utility.yul\":1231:1247   */\n      swap1\n      pop\n        /* \"#utility.yul\":1176:1253   */\n      swap2\n      swap1\n      pop\n      jump\t// out\n        /* \"#utility.yul\":1259:1377   */\n    tag_49:\n        /* \"#utility.yul\":1346:1370   */\n      tag_69\n        /* \"#utility.yul\":1364:1369   */\n      dup2\n        /* \"#utility.yul\":1346:1370   */\n      tag_48\n      jump\t// in\n    tag_69:\n        /* \"#utility.yul\":1341:1344   */\n      dup3\n        /* \"#utility.yul\":1334:1371   */\n      mstore\n        /* \"#utility.yul\":1259:1377   */\n      pop\n      pop\n      jump\t// out\n        /* \"#utility.yul\":1383:1605   */\n    tag_14:\n        /* \"#utility.yul\":1476:1480   */\n      0x00\n        /* \"#utility.yul\":1514:1516   */\n      0x20\n        /* \"#utility.yul\":1503:1512   */\n      dup3\n        /* \"#utility.yul\":1499:1517   */\n      add\n        /* \"#utility.yul\":1491:1517   */\n      swap1\n      pop\n        /* \"#utility.yul\":1527:1598   */\n      tag_71\n        /* \"#utility.yul\":1595:1596   */\n      0x00\n        /* \"#utility.yul\":1584:1593   */\n      dup4\n        /* \"#utility.yul\":1580:1597   */\n      add\n        /* \"#utility.yul\":1571:1577   */\n      dup5\n        /* \"#utility.yul\":1527:1598   */\n      tag_49\n      jump\t// in\n    tag_71:\n        /* \"#utility.yul\":1383:1605   */\n      swap3\n      swap2\n      pop\n      pop\n      jump\t// out\n        /* \"#utility.yul\":1611:1791   */\n    tag_50:\n        /* \"#utility.yul\":1659:1736   */\n      0x4e487b7100000000000000000000000000000000000000000000000000000000\n        /* \"#utility.yul\":1656:1657   */\n      0x00\n        /* \"#utility.yul\":1649:1737   */\n      mstore\n        /* \"#utility.yul\":1756:1760   */\n      0x11\n        /* \"#utility.yul\":1753:1754   */\n      0x04\n        /* \"#utility.yul\":1746:1761   */\n      mstore\n        /* \"#utility.yul\":1780:1784   */\n      0x24\n        /* \"#utility.yul\":1777:1778   */\n      0x00\n        /* \"#utility.yul\":1770:1785   */\n      revert\n        /* \"#utility.yul\":1797:2030   */\n    tag_19:\n        /* \"#utility.yul\":1836:1839   */\n      0x00\n        /* \"#utility.yul\":1859:1883   */\n      tag_74\n        /* \"#utility.yul\":1877:1882   */\n      dup3\n        /* \"#utility.yul\":1859:1883   */\n      tag_48\n      jump\t// in\n    tag_74:\n        /* \"#utility.yul\":1850:1883   */\n      swap2\n      pop\n        /* \"#utility.yul\":1905:1971   */\n      0xffffffffffffffffffffffffffffffffffffffffffffffffffffffffffffffff\n        /* \"#utility.yul\":1898:1903   */\n      dup3\n        /* \"#utility.yul\":1895:1972   */\n      sub\n        /* \"#utility.yul\":1892:1995   */\n      tag_75\n      jumpi\n        /* \"#utility.yul\":1975:1993   */\n      tag_76\n      tag_50\n      jump\t// in\n    tag_76:\n        /* \"#utility.yul\":1892:1995   */\n    tag_75:\n        /* \"#utility.yul\":2022:2023   */\n      0x01\n        /* \"#utility.yul\":2015:2020   */\n      dup3\n        /* \"#utility.yul\":2011:2024   */\n      add\n        /* \"#utility.yul\":2004:2024   */\n      swap1\n      pop\n        /* \"#utility.yul\":1797:2030   */\n      swap2\n      swap1\n      pop\n      jump\t// out\n        /* \"#utility.yul\":2036:2216   */\n    tag_31:\n        /* \"#utility.yul\":2084:2161   */\n      0x4e487b7100000000000000000000000000000000000000000000000000000000\n        /* \"#utility.yul\":2081:2082   */\n      0x00\n        /* \"#utility.yul\":2074:2162   */\n      mstore\n        /* \"#utility.yul\":2181:2185   */\n      0x32\n        /* \"#utility.yul\":2178:2179   */\n      0x04\n        /* \"#utility.yul\":2171:2186   */\n      mstore\n        /* \"#utility.yul\":2205:2209   */\n      0x24\n        /* \"#utility.yul\":2202:2203   */\n      0x00\n        /* \"#utility.yul\":2195:2210   */\n      revert\n\n    auxdata: 0xa26469706673582212206b73f58e7819b42912849437f21c876f99042134a8e00d7386141b3db916de5464736f6c634300081e0033\n}\n",
				"bytecode": {
					"linkReferences": {},
					"object": "6080604052348015600e575f5ffd5b506104b08061001c5f395ff3fe608060405234801561000f575f5ffd5b506004361061003f575f3560e01c80636dd7d8ea146100435780639ab24eb01461005f578063b9830ff11461008f575b5f5ffd5b61005d6004803603810190610058919061037d565b610099565b005b6100796004803603810190610074919061037d565b61019a565b60405161008691906103c0565b60405180910390f35b6100976101df565b005b5f5f5f8373ffffffffffffffffffffffffffffffffffffffff1673ffffffffffffffffffffffffffffffffffffffff1681526020019081526020015f2054905080806100e490610406565b915050805f5f8473ffffffffffffffffffffffffffffffffffffffff1673ffffffffffffffffffffffffffffffffffffffff1681526020019081526020015f20819055506101318261027d565b61019657600182908060018154018082558091505060019003905f5260205f20015f9091909190916101000a81548173ffffffffffffffffffffffffffffffffffffffff021916908373ffffffffffffffffffffffffffffffffffffffff1602179055505b5050565b5f5f5f8373ffffffffffffffffffffffffffffffffffffffff1673ffffffffffffffffffffffffffffffffffffffff1681526020019081526020015f20549050919050565b5f5f90505b60018054905081101561027a575f5f5f600184815481106102085761020761044d565b5b905f5260205f20015f9054906101000a900473ffffffffffffffffffffffffffffffffffffffff1673ffffffffffffffffffffffffffffffffffffffff1673ffffffffffffffffffffffffffffffffffffffff1681526020019081526020015f208190555080806001019150506101e4565b50565b5f5f5f90505b600180549050811015610315578273ffffffffffffffffffffffffffffffffffffffff16600182815481106102bb576102ba61044d565b5b905f5260205f20015f9054906101000a900473ffffffffffffffffffffffffffffffffffffffff1673ffffffffffffffffffffffffffffffffffffffff160361030857600191505061031a565b8080600101915050610283565b505f90505b919050565b5f5ffd5b5f73ffffffffffffffffffffffffffffffffffffffff82169050919050565b5f61034c82610323565b9050919050565b61035c81610342565b8114610366575f5ffd5b50565b5f8135905061037781610353565b92915050565b5f602082840312156103925761039161031f565b5b5f61039f84828501610369565b91505092915050565b5f819050919050565b6103ba816103a8565b82525050565b5f6020820190506103d35f8301846103b1565b92915050565b7f4e487b71000000000000000000000000000000000000000000000000000000005f52601160045260245ffd5b5f610410826103a8565b91507fffffffffffffffffffffffffffffffffffffffffffffffffffffffffffffffff8203610442576104416103d9565b5b600182019050919050565b7f4e487b71000000000000000000000000000000000000000000000000000000005f52603260045260245ffdfea26469706673582212206b73f58e7819b42912849437f21c876f99042134a8e00d7386141b3db916de5464736f6c634300081e0033",
					"opcodes": "PUSH1 0x80 PUSH1 0x40 MSTORE CALLVALUE DUP1 ISZERO PUSH1 0xE JUMPI PUSH0 PUSH0 REVERT JUMPDEST POP PUSH2 0x4B0 DUP1 PUSH2 0x1C PUSH0 CODECOPY PUSH0 RETURN INVALID PUSH1 0x80 PUSH1 0x40 MSTORE CALLVALUE DUP1 ISZERO PUSH2 0xF JUMPI PUSH0 PUSH0 REVERT JUMPDEST POP PUSH1 0x4 CALLDATASIZE LT PUSH2 0x3F JUMPI PUSH0 CALLDATALOAD PUSH1 0xE0 SHR DUP1 PUSH4 0x6DD7D8EA EQ PUSH2 0x43 JUMPI DUP1 PUSH4 0x9AB24EB0 EQ PUSH2 0x5F JUMPI DUP1 PUSH4 0xB9830FF1 EQ PUSH2 0x8F JUMPI JUMPDEST PUSH0 PUSH0 REVERT JUMPDEST PUSH2 0x5D PUSH1 0x4 DUP1 CALLDATASIZE SUB DUP2 ADD SWAP1 PUSH2 0x58 SWAP2 SWAP1 PUSH2 0x37D JUMP JUMPDEST PUSH2 0x99 JUMP JUMPDEST STOP JUMPDEST PUSH2 0x79 PUSH1 0x4 DUP1 CALLDATASIZE SUB DUP2 ADD SWAP1 PUSH2 0x74 SWAP2 SWAP1 PUSH2 0x37D JUMP JUMPDEST PUSH2 0x19A JUMP JUMPDEST PUSH1 0x40 MLOAD PUSH2 0x86 SWAP2 SWAP1 PUSH2 0x3C0 JUMP JUMPDEST PUSH1 0x40 MLOAD DUP1 SWAP2 SUB SWAP1 RETURN JUMPDEST PUSH2 0x97 PUSH2 0x1DF JUMP JUMPDEST STOP JUMPDEST PUSH0 PUSH0 PUSH0 DUP4 PUSH20 0xFFFFFFFFFFFFFFFFFFFFFFFFFFFFFFFFFFFFFFFF AND PUSH20 0xFFFFFFFFFFFFFFFFFFFFFFFFFFFFFFFFFFFFFFFF AND DUP2 MSTORE PUSH1 0x20 ADD SWAP1 DUP2 MSTORE PUSH1 0x20 ADD PUSH0 KECCAK256 SLOAD SWAP1 POP DUP1 DUP1 PUSH2 0xE4 SWAP1 PUSH2 0x406 JUMP JUMPDEST SWAP2 POP POP DUP1 PUSH0 PUSH0 DUP5 PUSH20 0xFFFFFFFFFFFFFFFFFFFFFFFFFFFFFFFFFFFFFFFF AND PUSH20 0xFFFFFFFFFFFFFFFFFFFFFFFFFFFFFFFFFFFFFFFF AND DUP2 MSTORE PUSH1 0x20 ADD SWAP1 DUP2 MSTORE PUSH1 0x20 ADD PUSH0 KECCAK256 DUP2 SWAP1 SSTORE POP PUSH2 0x131 DUP3 PUSH2 0x27D JUMP JUMPDEST PUSH2 0x196 JUMPI PUSH1 0x1 DUP3 SWAP1 DUP1 PUSH1 0x1 DUP2 SLOAD ADD DUP1 DUP3 SSTORE DUP1 SWAP2 POP POP PUSH1 0x1 SWAP1 SUB SWAP1 PUSH0 MSTORE PUSH1 0x20 PUSH0 KECCAK256 ADD PUSH0 SWAP1 SWAP2 SWAP1 SWAP2 SWAP1 SWAP2 PUSH2 0x100 EXP DUP2 SLOAD DUP2 PUSH20 0xFFFFFFFFFFFFFFFFFFFFFFFFFFFFFFFFFFFFFFFF MUL NOT AND SWAP1 DUP4 PUSH20 0xFFFFFFFFFFFFFFFFFFFFFFFFFFFFFFFFFFFFFFFF AND MUL OR SWAP1 SSTORE POP JUMPDEST POP POP JUMP JUMPDEST PUSH0 PUSH0 PUSH0 DUP4 PUSH20 0xFFFFFFFFFFFFFFFFFFFFFFFFFFFFFFFFFFFFFFFF AND PUSH20 0xFFFFFFFFFFFFFFFFFFFFFFFFFFFFFFFFFFFFFFFF AND DUP2 MSTORE PUSH1 0x20 ADD SWAP1 DUP2 MSTORE PUSH1 0x20 ADD PUSH0 KECCAK256 SLOAD SWAP1 POP SWAP2 SWAP1 POP JUMP JUMPDEST PUSH0 PUSH0 SWAP1 POP JUMPDEST PUSH1 0x1 DUP1 SLOAD SWAP1 POP DUP2 LT ISZERO PUSH2 0x27A JUMPI PUSH0 PUSH0 PUSH0 PUSH1 0x1 DUP5 DUP2 SLOAD DUP2 LT PUSH2 0x208 JUMPI PUSH2 0x207 PUSH2 0x44D JUMP JUMPDEST JUMPDEST SWAP1 PUSH0 MSTORE PUSH1 0x20 PUSH0 KECCAK256 ADD PUSH0 SWAP1 SLOAD SWAP1 PUSH2 0x100 EXP SWAP1 DIV PUSH20 0xFFFFFFFFFFFFFFFFFFFFFFFFFFFFFFFFFFFFFFFF AND PUSH20 0xFFFFFFFFFFFFFFFFFFFFFFFFFFFFFFFFFFFFFFFF AND PUSH20 0xFFFFFFFFFFFFFFFFFFFFFFFFFFFFFFFFFFFFFFFF AND DUP2 MSTORE PUSH1 0x20 ADD SWAP1 DUP2 MSTORE PUSH1 0x20 ADD PUSH0 KECCAK256 DUP2 SWAP1 SSTORE POP DUP1 DUP1 PUSH1 0x1 ADD SWAP2 POP POP PUSH2 0x1E4 JUMP JUMPDEST POP JUMP JUMPDEST PUSH0 PUSH0 PUSH0 SWAP1 POP JUMPDEST PUSH1 0x1 DUP1 SLOAD SWAP1 POP DUP2 LT ISZERO PUSH2 0x315 JUMPI DUP3 PUSH20 0xFFFFFFFFFFFFFFFFFFFFFFFFFFFFFFFFFFFFFFFF AND PUSH1 0x1 DUP3 DUP2 SLOAD DUP2 LT PUSH2 0x2BB JUMPI PUSH2 0x2BA PUSH2 0x44D JUMP JUMPDEST JUMPDEST SWAP1 PUSH0 MSTORE PUSH1 0x20 PUSH0 KECCAK256 ADD PUSH0 SWAP1 SLOAD SWAP1 PUSH2 0x100 EXP SWAP1 DIV PUSH20 0xFFFFFFFFFFFFFFFFFFFFFFFFFFFFFFFFFFFFFFFF AND PUSH20 0xFFFFFFFFFFFFFFFFFFFFFFFFFFFFFFFFFFFFFFFF AND SUB PUSH2 0x308 JUMPI PUSH1 0x1 SWAP2 POP POP PUSH2 0x31A JUMP JUMPDEST DUP1 DUP1 PUSH1 0x1 ADD SWAP2 POP POP PUSH2 0x283 JUMP JUMPDEST POP PUSH0 SWAP1 POP JUMPDEST SWAP2 SWAP1 POP JUMP JUMPDEST PUSH0 PUSH0 REVERT JUMPDEST PUSH0 PUSH20 0xFFFFFFFFFFFFFFFFFFFFFFFFFFFFFFFFFFFFFFFF DUP3 AND SWAP1 POP SWAP2 SWAP1 POP JUMP JUMPDEST PUSH0 PUSH2 0x34C DUP3 PUSH2 0x323 JUMP JUMPDEST SWAP1 POP SWAP2 SWAP1 POP JUMP JUMPDEST PUSH2 0x35C DUP2 PUSH2 0x342 JUMP JUMPDEST DUP2 EQ PUSH2 0x366 JUMPI PUSH0 PUSH0 REVERT JUMPDEST POP JUMP JUMPDEST PUSH0 DUP2 CALLDATALOAD SWAP1 POP PUSH2 0x377 DUP2 PUSH2 0x353 JUMP JUMPDEST SWAP3 SWAP2 POP POP JUMP JUMPDEST PUSH0 PUSH1 0x20 DUP3 DUP5 SUB SLT ISZERO PUSH2 0x392 JUMPI PUSH2 0x391 PUSH2 0x31F JUMP JUMPDEST JUMPDEST PUSH0 PUSH2 0x39F DUP5 DUP3 DUP6 ADD PUSH2 0x369 JUMP JUMPDEST SWAP2 POP POP SWAP3 SWAP2 POP POP JUMP JUMPDEST PUSH0 DUP2 SWAP1 POP SWAP2 SWAP1 POP JUMP JUMPDEST PUSH2 0x3BA DUP2 PUSH2 0x3A8 JUMP JUMPDEST DUP3 MSTORE POP POP JUMP JUMPDEST PUSH0 PUSH1 0x20 DUP3 ADD SWAP1 POP PUSH2 0x3D3 PUSH0 DUP4 ADD DUP5 PUSH2 0x3B1 JUMP JUMPDEST SWAP3 SWAP2 POP POP JUMP JUMPDEST PUSH32 0x4E487B7100000000000000000000000000000000000000000000000000000000 PUSH0 MSTORE PUSH1 0x11 PUSH1 0x4 MSTORE PUSH1 0x24 PUSH0 REVERT JUMPDEST PUSH0 PUSH2 0x410 DUP3 PUSH2 0x3A8 JUMP JUMPDEST SWAP2 POP PUSH32 0xFFFFFFFFFFFFFFFFFFFFFFFFFFFFFFFFFFFFFFFFFFFFFFFFFFFFFFFFFFFFFFFF DUP3 SUB PUSH2 0x442 JUMPI PUSH2 0x441 PUSH2 0x3D9 JUMP JUMPDEST JUMPDEST PUSH1 0x1 DUP3 ADD SWAP1 POP SWAP2 SWAP1 POP JUMP JUMPDEST PUSH32 0x4E487B7100000000000000000000000000000000000000000000000000000000 PUSH0 MSTORE PUSH1 0x32 PUSH1 0x4 MSTORE PUSH1 0x24 PUSH0 REVERT INVALID LOG2 PUSH5 0x6970667358 0x22 SLT KECCAK256 PUSH12 0x73F58E7819B42912849437F2 SHR DUP8 PUSH16 0x99042134A8E00D7386141B3DB916DE54 PUSH5 0x736F6C6343 STOP ADDMOD 0x1E STOP CALLER "
				},
				"gasEstimates": {
					"creation": {
						"codeDepositCost": "240000",
						"executionCost": "279",
						"totalCost": "240279"
					},
					"external": {
						"getVotes(address)": "2828",
						"resetVotes()": "infinite",
						"vote(address)": "infinite"
					},
					"internal": {
						"contains(address)": "infinite"
					}
				},
				"methodIdentifiers": {
					"getVotes(address)": "9ab24eb0",
					"resetVotes()": "b9830ff1",
					"vote(address)": "6dd7d8ea"
				}
			},
			"storageLayout": {
				"storage": [
					{
						"astId": 5,
						"contract": "task/task01/1.voting.sol:Voting",
						"label": "voteData",
						"offset": 0,
						"slot": "0",
						"type": "t_mapping(t_address,t_uint256)"
					},
					{
						"astId": 8,
						"contract": "task/task01/1.voting.sol:Voting",
						"label": "addresses",
						"offset": 0,
						"slot": "1",
						"type": "t_array(t_address)dyn_storage"
					}
				],
				"types": {
					"t_address": {
						"encoding": "inplace",
						"label": "address",
						"numberOfBytes": "20"
					},
					"t_array(t_address)dyn_storage": {
						"base": "t_address",
						"encoding": "dynamic_array",
						"label": "address[]",
						"numberOfBytes": "32"
					},
					"t_mapping(t_address,t_uint256)": {
						"encoding": "mapping",
						"key": "t_address",
						"label": "mapping(address => uint256)",
						"numberOfBytes": "32",
						"value": "t_uint256"
					},
					"t_uint256": {
						"encoding": "inplace",
						"label": "uint256",
						"numberOfBytes": "32"
					}
				}
			},
			"userdoc": {
				"kind": "user",
				"methods": {},
				"version": 1
			}
		}
	}
}