{
	"task/task01/RomanToInt.sol": {
		"RomanToInt": {
			"abi": [
				{
					"inputs": [],
					"name": "roman1",
					"outputs": [
						{
							"internalType": "string",
							"name": "",
							"type": "string"
						}
					],
					"stateMutability": "view",
					"type": "function"
				},
				{
					"inputs": [
						{
							"internalType": "string",
							"name": "",
							"type": "string"
						}
					],
					"name": "romanData",
					"outputs": [
						{
							"internalType": "uint256",
							"name": "",
							"type": "uint256"
						}
					],
					"stateMutability": "view",
					"type": "function"
				},
				{
					"inputs": [
						{
							"internalType": "string",
							"name": "roman",
							"type": "string"
						}
					],
					"name": "romanToInt",
					"outputs": [
						{
							"internalType": "uint256",
							"name": "",
							"type": "uint256"
						}
					],
					"stateMutability": "nonpayable",
					"type": "function"
				}
			],
			"devdoc": {
				"kind": "dev",
				"methods": {},
				"version": 1
			},
			"evm": {
				"assembly": "    /* \"task/task01/RomanToInt.sol\":55:1025  contract RomanToInt {... */\n  mstore(0x40, 0x80)\n  callvalue\n  dup1\n  iszero\n  tag_1\n  jumpi\n  revert(0x00, 0x00)\ntag_1:\n  pop\n  dataSize(sub_0)\n  dup1\n  dataOffset(sub_0)\n  0x00\n  codecopy\n  0x00\n  return\nstop\n\nsub_0: assembly {\n        /* \"task/task01/RomanToInt.sol\":55:1025  contract RomanToInt {... */\n      mstore(0x40, 0x80)\n      callvalue\n      dup1\n      iszero\n      tag_1\n      jumpi\n      revert(0x00, 0x00)\n    tag_1:\n      pop\n      jumpi(tag_2, lt(calldatasize, 0x04))\n      shr(0xe0, calldataload(0x00))\n      dup1\n      0x424e7038\n      eq\n      tag_3\n      jumpi\n      dup1\n      0xa6c41eb0\n      eq\n      tag_4\n      jumpi\n      dup1\n      0xcb159dfe\n      eq\n      tag_5\n      jumpi\n    tag_2:\n      revert(0x00, 0x00)\n        /* \"task/task01/RomanToInt.sol\":81:124  mapping(string => uint256) public romanData */\n    tag_3:\n      tag_6\n      0x04\n      dup1\n      calldatasize\n      sub\n      dup2\n      add\n      swap1\n      tag_7\n      swap2\n      swap1\n      tag_8\n      jump\t// in\n    tag_7:\n      tag_9\n      jump\t// in\n    tag_6:\n      mload(0x40)\n      tag_10\n      swap2\n      swap1\n      tag_11\n      jump\t// in\n    tag_10:\n      mload(0x40)\n      dup1\n      swap2\n      sub\n      swap1\n      return\n        /* \"task/task01/RomanToInt.sol\":131:151  string public roman1 */\n    tag_4:\n      tag_12\n      tag_13\n      jump\t// in\n    tag_12:\n      mload(0x40)\n      tag_14\n      swap2\n      swap1\n      tag_15\n      jump\t// in\n    tag_14:\n      mload(0x40)\n      dup1\n      swap2\n      sub\n      swap1\n      return\n        /* \"task/task01/RomanToInt.sol\":158:1023  function romanToInt(string memory roman) public returns (uint256) {... */\n    tag_5:\n      tag_16\n      0x04\n      dup1\n      calldatasize\n      sub\n      dup2\n      add\n      swap1\n      tag_17\n      swap2\n      swap1\n      tag_8\n      jump\t// in\n    tag_17:\n      tag_18\n      jump\t// in\n    tag_16:\n      mload(0x40)\n      tag_19\n      swap2\n      swap1\n      tag_11\n      jump\t// in\n    tag_19:\n      mload(0x40)\n      dup1\n      swap2\n      sub\n      swap1\n      return\n        /* \"task/task01/RomanToInt.sol\":81:124  mapping(string => uint256) public romanData */\n    tag_9:\n      0x00\n      dup2\n      dup1\n      mload\n      0x20\n      dup2\n      add\n      dup3\n      add\n      dup1\n      mload\n      dup5\n      dup3\n      mstore\n      0x20\n      dup4\n      add\n      0x20\n      dup6\n      add\n      keccak256\n      dup2\n      dup4\n      mstore\n      dup1\n      swap6\n      pop\n      pop\n      pop\n      pop\n      pop\n      pop\n      0x00\n      swap2\n      pop\n      swap1\n      pop\n      sload\n      dup2\n      jump\t// out\n        /* \"task/task01/RomanToInt.sol\":131:151  string public roman1 */\n    tag_13:\n      0x01\n      dup1\n      sload\n      tag_20\n      swap1\n      tag_21\n      jump\t// in\n    tag_20:\n      dup1\n      0x1f\n      add\n      0x20\n      dup1\n      swap2\n      div\n      mul\n      0x20\n      add\n      mload(0x40)\n      swap1\n      dup2\n      add\n      0x40\n      mstore\n      dup1\n      swap3\n      swap2\n      swap1\n      dup2\n      dup2\n      mstore\n      0x20\n      add\n      dup3\n      dup1\n      sload\n      tag_22\n      swap1\n      tag_21\n      jump\t// in\n    tag_22:\n      dup1\n      iszero\n      tag_23\n      jumpi\n      dup1\n      0x1f\n      lt\n      tag_24\n      jumpi\n      0x0100\n      dup1\n      dup4\n      sload\n      div\n      mul\n      dup4\n      mstore\n      swap2\n      0x20\n      add\n      swap2\n      jump(tag_23)\n    tag_24:\n      dup3\n      add\n      swap2\n      swap1\n      0x00\n      mstore\n      keccak256(0x00, 0x20)\n      swap1\n    tag_25:\n      dup2\n      sload\n      dup2\n      mstore\n      swap1\n      0x01\n      add\n      swap1\n      0x20\n      add\n      dup1\n      dup4\n      gt\n      tag_25\n      jumpi\n      dup3\n      swap1\n      sub\n      0x1f\n      and\n      dup3\n      add\n      swap2\n    tag_23:\n      pop\n      pop\n      pop\n      pop\n      pop\n      dup2\n      jump\t// out\n        /* \"task/task01/RomanToInt.sol\":158:1023  function romanToInt(string memory roman) public returns (uint256) {... */\n    tag_18:\n        /* \"task/task01/RomanToInt.sol\":215:222  uint256 */\n      0x00\n        /* \"task/task01/RomanToInt.sol\":243:248  roman */\n      dup2\n        /* \"task/task01/RomanToInt.sol\":234:240  roman1 */\n      0x01\n        /* \"task/task01/RomanToInt.sol\":234:248  roman1 = roman */\n      swap1\n      dup2\n      tag_27\n      swap2\n      swap1\n      tag_28\n      jump\t// in\n    tag_27:\n      pop\n        /* \"task/task01/RomanToInt.sol\":276:277  1 */\n      0x01\n        /* \"task/task01/RomanToInt.sol\":259:268  romanData */\n      0x00\n        /* \"task/task01/RomanToInt.sol\":259:273  romanData[\"I\"] */\n      mload(0x40)\n      tag_29\n      swap1\n      tag_30\n      jump\t// in\n    tag_29:\n      swap1\n      dup2\n      mstore\n      0x20\n      add\n      mload(0x40)\n      dup1\n      swap2\n      sub\n      swap1\n      keccak256\n        /* \"task/task01/RomanToInt.sol\":259:277  romanData[\"I\"] = 1 */\n      dup2\n      swap1\n      sstore\n      pop\n        /* \"task/task01/RomanToInt.sol\":304:305  5 */\n      0x05\n        /* \"task/task01/RomanToInt.sol\":287:296  romanData */\n      0x00\n        /* \"task/task01/RomanToInt.sol\":287:301  romanData[\"V\"] */\n      mload(0x40)\n      tag_31\n      swap1\n      tag_32\n      jump\t// in\n    tag_31:\n      swap1\n      dup2\n      mstore\n      0x20\n      add\n      mload(0x40)\n      dup1\n      swap2\n      sub\n      swap1\n      keccak256\n        /* \"task/task01/RomanToInt.sol\":287:305  romanData[\"V\"] = 5 */\n      dup2\n      swap1\n      sstore\n      pop\n        /* \"task/task01/RomanToInt.sol\":332:334  10 */\n      0x0a\n        /* \"task/task01/RomanToInt.sol\":315:324  romanData */\n      0x00\n        /* \"task/task01/RomanToInt.sol\":315:329  romanData[\"X\"] */\n      mload(0x40)\n      tag_33\n      swap1\n      tag_34\n      jump\t// in\n    tag_33:\n      swap1\n      dup2\n      mstore\n      0x20\n      add\n      mload(0x40)\n      dup1\n      swap2\n      sub\n      swap1\n      keccak256\n        /* \"task/task01/RomanToInt.sol\":315:334  romanData[\"X\"] = 10 */\n      dup2\n      swap1\n      sstore\n      pop\n        /* \"task/task01/RomanToInt.sol\":361:363  50 */\n      0x32\n        /* \"task/task01/RomanToInt.sol\":344:353  romanData */\n      0x00\n        /* \"task/task01/RomanToInt.sol\":344:358  romanData[\"L\"] */\n      mload(0x40)\n      tag_35\n      swap1\n      tag_36\n      jump\t// in\n    tag_35:\n      swap1\n      dup2\n      mstore\n      0x20\n      add\n      mload(0x40)\n      dup1\n      swap2\n      sub\n      swap1\n      keccak256\n        /* \"task/task01/RomanToInt.sol\":344:363  romanData[\"L\"] = 50 */\n      dup2\n      swap1\n      sstore\n      pop\n        /* \"task/task01/RomanToInt.sol\":390:393  100 */\n      0x64\n        /* \"task/task01/RomanToInt.sol\":373:382  romanData */\n      0x00\n        /* \"task/task01/RomanToInt.sol\":373:387  romanData[\"C\"] */\n      mload(0x40)\n      tag_37\n      swap1\n      tag_38\n      jump\t// in\n    tag_37:\n      swap1\n      dup2\n      mstore\n      0x20\n      add\n      mload(0x40)\n      dup1\n      swap2\n      sub\n      swap1\n      keccak256\n        /* \"task/task01/RomanToInt.sol\":373:393  romanData[\"C\"] = 100 */\n      dup2\n      swap1\n      sstore\n      pop\n        /* \"task/task01/RomanToInt.sol\":420:423  500 */\n      0x01f4\n        /* \"task/task01/RomanToInt.sol\":403:412  romanData */\n      0x00\n        /* \"task/task01/RomanToInt.sol\":403:417  romanData[\"D\"] */\n      mload(0x40)\n      tag_39\n      swap1\n      tag_40\n      jump\t// in\n    tag_39:\n      swap1\n      dup2\n      mstore\n      0x20\n      add\n      mload(0x40)\n      dup1\n      swap2\n      sub\n      swap1\n      keccak256\n        /* \"task/task01/RomanToInt.sol\":403:423  romanData[\"D\"] = 500 */\n      dup2\n      swap1\n      sstore\n      pop\n        /* \"task/task01/RomanToInt.sol\":450:454  1000 */\n      0x03e8\n        /* \"task/task01/RomanToInt.sol\":433:442  romanData */\n      0x00\n        /* \"task/task01/RomanToInt.sol\":433:447  romanData[\"M\"] */\n      mload(0x40)\n      tag_41\n      swap1\n      tag_42\n      jump\t// in\n    tag_41:\n      swap1\n      dup2\n      mstore\n      0x20\n      add\n      mload(0x40)\n      dup1\n      swap2\n      sub\n      swap1\n      keccak256\n        /* \"task/task01/RomanToInt.sol\":433:454  romanData[\"M\"] = 1000 */\n      dup2\n      swap1\n      sstore\n      pop\n        /* \"task/task01/RomanToInt.sol\":465:479  uint256 result */\n      0x00\n        /* \"task/task01/RomanToInt.sol\":482:483  0 */\n      0x00\n        /* \"task/task01/RomanToInt.sol\":465:483  uint256 result = 0 */\n      swap1\n      pop\n        /* \"task/task01/RomanToInt.sol\":493:510  uint256 prevValue */\n      0x00\n        /* \"task/task01/RomanToInt.sol\":513:514  0 */\n      0x00\n        /* \"task/task01/RomanToInt.sol\":493:514  uint256 prevValue = 0 */\n      swap1\n      pop\n        /* \"task/task01/RomanToInt.sol\":524:540  bytes memory arr */\n      0x00\n        /* \"task/task01/RomanToInt.sol\":549:554  roman */\n      dup5\n        /* \"task/task01/RomanToInt.sol\":524:555  bytes memory arr = bytes(roman) */\n      swap1\n      pop\n        /* \"task/task01/RomanToInt.sol\":570:579  uint256 i */\n      0x00\n        /* \"task/task01/RomanToInt.sol\":582:585  arr */\n      dup2\n        /* \"task/task01/RomanToInt.sol\":582:592  arr.length */\n      mload\n        /* \"task/task01/RomanToInt.sol\":570:592  uint256 i = arr.length */\n      swap1\n      pop\n        /* \"task/task01/RomanToInt.sol\":565:985  for (uint256 i = arr.length; i >= 0; i--) {... */\n    tag_43:\n        /* \"task/task01/RomanToInt.sol\":599:600  0 */\n      0x00\n        /* \"task/task01/RomanToInt.sol\":594:595  i */\n      dup2\n        /* \"task/task01/RomanToInt.sol\":594:600  i >= 0 */\n      lt\n        /* \"task/task01/RomanToInt.sol\":565:985  for (uint256 i = arr.length; i >= 0; i--) {... */\n      tag_44\n      jumpi\n        /* \"task/task01/RomanToInt.sol\":621:637  bytes memory val */\n      0x00\n        /* \"task/task01/RomanToInt.sol\":650:651  1 */\n      0x01\n        /* \"task/task01/RomanToInt.sol\":640:652  new bytes(1) */\n      0xffffffffffffffff\n      dup2\n      gt\n      iszero\n      tag_46\n      jumpi\n      tag_47\n      tag_48\n      jump\t// in\n    tag_47:\n    tag_46:\n      mload(0x40)\n      swap1\n      dup1\n      dup3\n      mstore\n      dup1\n      0x1f\n      add\n      not(0x1f)\n      and\n      0x20\n      add\n      dup3\n      add\n      0x40\n      mstore\n      dup1\n      iszero\n      tag_49\n      jumpi\n      dup2\n      0x20\n      add\n      0x01\n      dup3\n      mul\n      dup1\n      calldatasize\n      dup4\n      calldatacopy\n      dup1\n      dup3\n      add\n      swap2\n      pop\n      pop\n      swap1\n      pop\n    tag_49:\n      pop\n        /* \"task/task01/RomanToInt.sol\":621:652  bytes memory val = new bytes(1) */\n      swap1\n      pop\n        /* \"task/task01/RomanToInt.sol\":675:678  arr */\n      dup3\n        /* \"task/task01/RomanToInt.sol\":679:680  i */\n      dup3\n        /* \"task/task01/RomanToInt.sol\":675:681  arr[i] */\n      dup2\n      mload\n      dup2\n      lt\n      tag_50\n      jumpi\n      tag_51\n      tag_52\n      jump\t// in\n    tag_51:\n    tag_50:\n      0x20\n      add\n      add\n      mload\n      0xf8\n      shr\n      0xf8\n      shl\n        /* \"task/task01/RomanToInt.sol\":666:669  val */\n      dup2\n        /* \"task/task01/RomanToInt.sol\":670:671  0 */\n      0x00\n        /* \"task/task01/RomanToInt.sol\":666:672  val[0] */\n      dup2\n      mload\n      dup2\n      lt\n      tag_53\n      jumpi\n      tag_54\n      tag_52\n      jump\t// in\n    tag_54:\n    tag_53:\n      0x20\n      add\n      add\n        /* \"task/task01/RomanToInt.sol\":666:681  val[0] = arr[i] */\n      swap1\n      not(0xffffffffffffffffffffffffffffffffffffffffffffffffffffffffffffff)\n      and\n      swap1\n      dup2\n      0x00\n      byte\n      swap1\n      mstore8\n      pop\n        /* \"task/task01/RomanToInt.sol\":695:712  string memory str */\n      0x00\n        /* \"task/task01/RomanToInt.sol\":722:725  val */\n      dup2\n        /* \"task/task01/RomanToInt.sol\":695:726  string memory str = string(val) */\n      swap1\n      pop\n        /* \"task/task01/RomanToInt.sol\":741:758  uint currentValue */\n      0x00\n        /* \"task/task01/RomanToInt.sol\":761:770  romanData */\n      0x00\n        /* \"task/task01/RomanToInt.sol\":771:774  str */\n      dup3\n        /* \"task/task01/RomanToInt.sol\":761:775  romanData[str] */\n      mload(0x40)\n      tag_55\n      swap2\n      swap1\n      tag_56\n      jump\t// in\n    tag_55:\n      swap1\n      dup2\n      mstore\n      0x20\n      add\n      mload(0x40)\n      dup1\n      swap2\n      sub\n      swap1\n      keccak256\n      sload\n        /* \"task/task01/RomanToInt.sol\":741:775  uint currentValue = romanData[str] */\n      swap1\n      pop\n        /* \"task/task01/RomanToInt.sol\":809:818  prevValue */\n      dup6\n        /* \"task/task01/RomanToInt.sol\":793:805  currentValue */\n      dup2\n        /* \"task/task01/RomanToInt.sol\":793:818  currentValue >= prevValue */\n      lt\n        /* \"task/task01/RomanToInt.sol\":789:936  if (currentValue >= prevValue) {... */\n      tag_57\n      jumpi\n        /* \"task/task01/RomanToInt.sol\":848:860  currentValue */\n      dup1\n        /* \"task/task01/RomanToInt.sol\":838:860  result += currentValue */\n      dup8\n      tag_58\n      swap2\n      swap1\n      tag_59\n      jump\t// in\n    tag_58:\n      swap7\n      pop\n        /* \"task/task01/RomanToInt.sol\":789:936  if (currentValue >= prevValue) {... */\n      jump(tag_60)\n    tag_57:\n        /* \"task/task01/RomanToInt.sol\":909:921  currentValue */\n      dup1\n        /* \"task/task01/RomanToInt.sol\":899:921  result -= currentValue */\n      dup8\n      tag_61\n      swap2\n      swap1\n      tag_62\n      jump\t// in\n    tag_61:\n      swap7\n      pop\n        /* \"task/task01/RomanToInt.sol\":789:936  if (currentValue >= prevValue) {... */\n    tag_60:\n        /* \"task/task01/RomanToInt.sol\":962:974  currentValue */\n      dup1\n        /* \"task/task01/RomanToInt.sol\":950:974  prevValue = currentValue */\n      swap6\n      pop\n        /* \"task/task01/RomanToInt.sol\":607:985  {... */\n      pop\n      pop\n      pop\n        /* \"task/task01/RomanToInt.sol\":602:605  i-- */\n      dup1\n      dup1\n      tag_63\n      swap1\n      tag_64\n      jump\t// in\n    tag_63:\n      swap2\n      pop\n      pop\n        /* \"task/task01/RomanToInt.sol\":565:985  for (uint256 i = arr.length; i >= 0; i--) {... */\n      jump(tag_43)\n    tag_44:\n      pop\n        /* \"task/task01/RomanToInt.sol\":1002:1011  romanData */\n      0x00\n        /* \"task/task01/RomanToInt.sol\":1002:1016  romanData[\"I\"] */\n      mload(0x40)\n      tag_65\n      swap1\n      tag_30\n      jump\t// in\n    tag_65:\n      swap1\n      dup2\n      mstore\n      0x20\n      add\n      mload(0x40)\n      dup1\n      swap2\n      sub\n      swap1\n      keccak256\n      sload\n        /* \"task/task01/RomanToInt.sol\":995:1016  return romanData[\"I\"] */\n      swap4\n      pop\n      pop\n      pop\n      pop\n        /* \"task/task01/RomanToInt.sol\":158:1023  function romanToInt(string memory roman) public returns (uint256) {... */\n      swap2\n      swap1\n      pop\n      jump\t// out\n        /* \"#utility.yul\":7:82   */\n    tag_66:\n        /* \"#utility.yul\":40:46   */\n      0x00\n        /* \"#utility.yul\":73:75   */\n      0x40\n        /* \"#utility.yul\":67:76   */\n      mload\n        /* \"#utility.yul\":57:76   */\n      swap1\n      pop\n        /* \"#utility.yul\":7:82   */\n      swap1\n      jump\t// out\n        /* \"#utility.yul\":88:205   */\n    tag_67:\n        /* \"#utility.yul\":197:198   */\n      0x00\n        /* \"#utility.yul\":194:195   */\n      0x00\n        /* \"#utility.yul\":187:199   */\n      revert\n        /* \"#utility.yul\":211:328   */\n    tag_68:\n        /* \"#utility.yul\":320:321   */\n      0x00\n        /* \"#utility.yul\":317:318   */\n      0x00\n        /* \"#utility.yul\":310:322   */\n      revert\n        /* \"#utility.yul\":334:451   */\n    tag_69:\n        /* \"#utility.yul\":443:444   */\n      0x00\n        /* \"#utility.yul\":440:441   */\n      0x00\n        /* \"#utility.yul\":433:445   */\n      revert\n        /* \"#utility.yul\":457:574   */\n    tag_70:\n        /* \"#utility.yul\":566:567   */\n      0x00\n        /* \"#utility.yul\":563:564   */\n      0x00\n        /* \"#utility.yul\":556:568   */\n      revert\n        /* \"#utility.yul\":580:682   */\n    tag_71:\n        /* \"#utility.yul\":621:627   */\n      0x00\n        /* \"#utility.yul\":672:674   */\n      0x1f\n        /* \"#utility.yul\":668:675   */\n      not\n        /* \"#utility.yul\":663:665   */\n      0x1f\n        /* \"#utility.yul\":656:661   */\n      dup4\n        /* \"#utility.yul\":652:666   */\n      add\n        /* \"#utility.yul\":648:676   */\n      and\n        /* \"#utility.yul\":638:676   */\n      swap1\n      pop\n        /* \"#utility.yul\":580:682   */\n      swap2\n      swap1\n      pop\n      jump\t// out\n        /* \"#utility.yul\":688:868   */\n    tag_48:\n        /* \"#utility.yul\":736:813   */\n      0x4e487b7100000000000000000000000000000000000000000000000000000000\n        /* \"#utility.yul\":733:734   */\n      0x00\n        /* \"#utility.yul\":726:814   */\n      mstore\n        /* \"#utility.yul\":833:837   */\n      0x41\n        /* \"#utility.yul\":830:831   */\n      0x04\n        /* \"#utility.yul\":823:838   */\n      mstore\n        /* \"#utility.yul\":857:861   */\n      0x24\n        /* \"#utility.yul\":854:855   */\n      0x00\n        /* \"#utility.yul\":847:862   */\n      revert\n        /* \"#utility.yul\":874:1155   */\n    tag_72:\n        /* \"#utility.yul\":957:984   */\n      tag_126\n        /* \"#utility.yul\":979:983   */\n      dup3\n        /* \"#utility.yul\":957:984   */\n      tag_71\n      jump\t// in\n    tag_126:\n        /* \"#utility.yul\":949:955   */\n      dup2\n        /* \"#utility.yul\":945:985   */\n      add\n        /* \"#utility.yul\":1087:1093   */\n      dup2\n        /* \"#utility.yul\":1075:1085   */\n      dup2\n        /* \"#utility.yul\":1072:1094   */\n      lt\n        /* \"#utility.yul\":1051:1069   */\n      0xffffffffffffffff\n        /* \"#utility.yul\":1039:1049   */\n      dup3\n        /* \"#utility.yul\":1036:1070   */\n      gt\n        /* \"#utility.yul\":1033:1095   */\n      or\n        /* \"#utility.yul\":1030:1118   */\n      iszero\n      tag_127\n      jumpi\n        /* \"#utility.yul\":1098:1116   */\n      tag_128\n      tag_48\n      jump\t// in\n    tag_128:\n        /* \"#utility.yul\":1030:1118   */\n    tag_127:\n        /* \"#utility.yul\":1138:1148   */\n      dup1\n        /* \"#utility.yul\":1134:1136   */\n      0x40\n        /* \"#utility.yul\":1127:1149   */\n      mstore\n        /* \"#utility.yul\":917:1155   */\n      pop\n        /* \"#utility.yul\":874:1155   */\n      pop\n      pop\n      jump\t// out\n        /* \"#utility.yul\":1161:1290   */\n    tag_73:\n        /* \"#utility.yul\":1195:1201   */\n      0x00\n        /* \"#utility.yul\":1222:1242   */\n      tag_130\n      tag_66\n      jump\t// in\n    tag_130:\n        /* \"#utility.yul\":1212:1242   */\n      swap1\n      pop\n        /* \"#utility.yul\":1251:1284   */\n      tag_131\n        /* \"#utility.yul\":1279:1283   */\n      dup3\n        /* \"#utility.yul\":1271:1277   */\n      dup3\n        /* \"#utility.yul\":1251:1284   */\n      tag_72\n      jump\t// in\n    tag_131:\n        /* \"#utility.yul\":1161:1290   */\n      swap2\n      swap1\n      pop\n      jump\t// out\n        /* \"#utility.yul\":1296:1604   */\n    tag_74:\n        /* \"#utility.yul\":1358:1362   */\n      0x00\n        /* \"#utility.yul\":1448:1466   */\n      0xffffffffffffffff\n        /* \"#utility.yul\":1440:1446   */\n      dup3\n        /* \"#utility.yul\":1437:1467   */\n      gt\n        /* \"#utility.yul\":1434:1490   */\n      iszero\n      tag_133\n      jumpi\n        /* \"#utility.yul\":1470:1488   */\n      tag_134\n      tag_48\n      jump\t// in\n    tag_134:\n        /* \"#utility.yul\":1434:1490   */\n    tag_133:\n        /* \"#utility.yul\":1508:1537   */\n      tag_135\n        /* \"#utility.yul\":1530:1536   */\n      dup3\n        /* \"#utility.yul\":1508:1537   */\n      tag_71\n      jump\t// in\n    tag_135:\n        /* \"#utility.yul\":1500:1537   */\n      swap1\n      pop\n        /* \"#utility.yul\":1592:1596   */\n      0x20\n        /* \"#utility.yul\":1586:1590   */\n      dup2\n        /* \"#utility.yul\":1582:1597   */\n      add\n        /* \"#utility.yul\":1574:1597   */\n      swap1\n      pop\n        /* \"#utility.yul\":1296:1604   */\n      swap2\n      swap1\n      pop\n      jump\t// out\n        /* \"#utility.yul\":1610:1758   */\n    tag_75:\n        /* \"#utility.yul\":1708:1714   */\n      dup3\n        /* \"#utility.yul\":1703:1706   */\n      dup2\n        /* \"#utility.yul\":1698:1701   */\n      dup4\n        /* \"#utility.yul\":1685:1715   */\n      calldatacopy\n        /* \"#utility.yul\":1749:1750   */\n      0x00\n        /* \"#utility.yul\":1740:1746   */\n      dup4\n        /* \"#utility.yul\":1735:1738   */\n      dup4\n        /* \"#utility.yul\":1731:1747   */\n      add\n        /* \"#utility.yul\":1724:1751   */\n      mstore\n        /* \"#utility.yul\":1610:1758   */\n      pop\n      pop\n      pop\n      jump\t// out\n        /* \"#utility.yul\":1764:2189   */\n    tag_76:\n        /* \"#utility.yul\":1842:1847   */\n      0x00\n        /* \"#utility.yul\":1867:1933   */\n      tag_138\n        /* \"#utility.yul\":1883:1932   */\n      tag_139\n        /* \"#utility.yul\":1925:1931   */\n      dup5\n        /* \"#utility.yul\":1883:1932   */\n      tag_74\n      jump\t// in\n    tag_139:\n        /* \"#utility.yul\":1867:1933   */\n      tag_73\n      jump\t// in\n    tag_138:\n        /* \"#utility.yul\":1858:1933   */\n      swap1\n      pop\n        /* \"#utility.yul\":1956:1962   */\n      dup3\n        /* \"#utility.yul\":1949:1954   */\n      dup2\n        /* \"#utility.yul\":1942:1963   */\n      mstore\n        /* \"#utility.yul\":1994:1998   */\n      0x20\n        /* \"#utility.yul\":1987:1992   */\n      dup2\n        /* \"#utility.yul\":1983:1999   */\n      add\n        /* \"#utility.yul\":2032:2035   */\n      dup5\n        /* \"#utility.yul\":2023:2029   */\n      dup5\n        /* \"#utility.yul\":2018:2021   */\n      dup5\n        /* \"#utility.yul\":2014:2030   */\n      add\n        /* \"#utility.yul\":2011:2036   */\n      gt\n        /* \"#utility.yul\":2008:2120   */\n      iszero\n      tag_140\n      jumpi\n        /* \"#utility.yul\":2039:2118   */\n      tag_141\n      tag_70\n      jump\t// in\n    tag_141:\n        /* \"#utility.yul\":2008:2120   */\n    tag_140:\n        /* \"#utility.yul\":2129:2183   */\n      tag_142\n        /* \"#utility.yul\":2176:2182   */\n      dup5\n        /* \"#utility.yul\":2171:2174   */\n      dup3\n        /* \"#utility.yul\":2166:2169   */\n      dup6\n        /* \"#utility.yul\":2129:2183   */\n      tag_75\n      jump\t// in\n    tag_142:\n        /* \"#utility.yul\":1848:2189   */\n      pop\n        /* \"#utility.yul\":1764:2189   */\n      swap4\n      swap3\n      pop\n      pop\n      pop\n      jump\t// out\n        /* \"#utility.yul\":2209:2549   */\n    tag_77:\n        /* \"#utility.yul\":2265:2270   */\n      0x00\n        /* \"#utility.yul\":2314:2317   */\n      dup3\n        /* \"#utility.yul\":2307:2311   */\n      0x1f\n        /* \"#utility.yul\":2299:2305   */\n      dup4\n        /* \"#utility.yul\":2295:2312   */\n      add\n        /* \"#utility.yul\":2291:2318   */\n      slt\n        /* \"#utility.yul\":2281:2403   */\n      tag_144\n      jumpi\n        /* \"#utility.yul\":2322:2401   */\n      tag_145\n      tag_69\n      jump\t// in\n    tag_145:\n        /* \"#utility.yul\":2281:2403   */\n    tag_144:\n        /* \"#utility.yul\":2439:2445   */\n      dup2\n        /* \"#utility.yul\":2426:2446   */\n      calldataload\n        /* \"#utility.yul\":2464:2543   */\n      tag_146\n        /* \"#utility.yul\":2539:2542   */\n      dup5\n        /* \"#utility.yul\":2531:2537   */\n      dup3\n        /* \"#utility.yul\":2524:2528   */\n      0x20\n        /* \"#utility.yul\":2516:2522   */\n      dup7\n        /* \"#utility.yul\":2512:2529   */\n      add\n        /* \"#utility.yul\":2464:2543   */\n      tag_76\n      jump\t// in\n    tag_146:\n        /* \"#utility.yul\":2455:2543   */\n      swap2\n      pop\n        /* \"#utility.yul\":2271:2549   */\n      pop\n        /* \"#utility.yul\":2209:2549   */\n      swap3\n      swap2\n      pop\n      pop\n      jump\t// out\n        /* \"#utility.yul\":2555:3064   */\n    tag_8:\n        /* \"#utility.yul\":2624:2630   */\n      0x00\n        /* \"#utility.yul\":2673:2675   */\n      0x20\n        /* \"#utility.yul\":2661:2670   */\n      dup3\n        /* \"#utility.yul\":2652:2659   */\n      dup5\n        /* \"#utility.yul\":2648:2671   */\n      sub\n        /* \"#utility.yul\":2644:2676   */\n      slt\n        /* \"#utility.yul\":2641:2760   */\n      iszero\n      tag_148\n      jumpi\n        /* \"#utility.yul\":2679:2758   */\n      tag_149\n      tag_67\n      jump\t// in\n    tag_149:\n        /* \"#utility.yul\":2641:2760   */\n    tag_148:\n        /* \"#utility.yul\":2827:2828   */\n      0x00\n        /* \"#utility.yul\":2816:2825   */\n      dup3\n        /* \"#utility.yul\":2812:2829   */\n      add\n        /* \"#utility.yul\":2799:2830   */\n      calldataload\n        /* \"#utility.yul\":2857:2875   */\n      0xffffffffffffffff\n        /* \"#utility.yul\":2849:2855   */\n      dup2\n        /* \"#utility.yul\":2846:2876   */\n      gt\n        /* \"#utility.yul\":2843:2960   */\n      iszero\n      tag_150\n      jumpi\n        /* \"#utility.yul\":2879:2958   */\n      tag_151\n      tag_68\n      jump\t// in\n    tag_151:\n        /* \"#utility.yul\":2843:2960   */\n    tag_150:\n        /* \"#utility.yul\":2984:3047   */\n      tag_152\n        /* \"#utility.yul\":3039:3046   */\n      dup5\n        /* \"#utility.yul\":3030:3036   */\n      dup3\n        /* \"#utility.yul\":3019:3028   */\n      dup6\n        /* \"#utility.yul\":3015:3037   */\n      add\n        /* \"#utility.yul\":2984:3047   */\n      tag_77\n      jump\t// in\n    tag_152:\n        /* \"#utility.yul\":2974:3047   */\n      swap2\n      pop\n        /* \"#utility.yul\":2770:3057   */\n      pop\n        /* \"#utility.yul\":2555:3064   */\n      swap3\n      swap2\n      pop\n      pop\n      jump\t// out\n        /* \"#utility.yul\":3070:3147   */\n    tag_78:\n        /* \"#utility.yul\":3107:3114   */\n      0x00\n        /* \"#utility.yul\":3136:3141   */\n      dup2\n        /* \"#utility.yul\":3125:3141   */\n      swap1\n      pop\n        /* \"#utility.yul\":3070:3147   */\n      swap2\n      swap1\n      pop\n      jump\t// out\n        /* \"#utility.yul\":3153:3271   */\n    tag_79:\n        /* \"#utility.yul\":3240:3264   */\n      tag_155\n        /* \"#utility.yul\":3258:3263   */\n      dup2\n        /* \"#utility.yul\":3240:3264   */\n      tag_78\n      jump\t// in\n    tag_155:\n        /* \"#utility.yul\":3235:3238   */\n      dup3\n        /* \"#utility.yul\":3228:3265   */\n      mstore\n        /* \"#utility.yul\":3153:3271   */\n      pop\n      pop\n      jump\t// out\n        /* \"#utility.yul\":3277:3499   */\n    tag_11:\n        /* \"#utility.yul\":3370:3374   */\n      0x00\n        /* \"#utility.yul\":3408:3410   */\n      0x20\n        /* \"#utility.yul\":3397:3406   */\n      dup3\n        /* \"#utility.yul\":3393:3411   */\n      add\n        /* \"#utility.yul\":3385:3411   */\n      swap1\n      pop\n        /* \"#utility.yul\":3421:3492   */\n      tag_157\n        /* \"#utility.yul\":3489:3490   */\n      0x00\n        /* \"#utility.yul\":3478:3487   */\n      dup4\n        /* \"#utility.yul\":3474:3491   */\n      add\n        /* \"#utility.yul\":3465:3471   */\n      dup5\n        /* \"#utility.yul\":3421:3492   */\n      tag_79\n      jump\t// in\n    tag_157:\n        /* \"#utility.yul\":3277:3499   */\n      swap3\n      swap2\n      pop\n      pop\n      jump\t// out\n        /* \"#utility.yul\":3505:3604   */\n    tag_80:\n        /* \"#utility.yul\":3557:3563   */\n      0x00\n        /* \"#utility.yul\":3591:3596   */\n      dup2\n        /* \"#utility.yul\":3585:3597   */\n      mload\n        /* \"#utility.yul\":3575:3597   */\n      swap1\n      pop\n        /* \"#utility.yul\":3505:3604   */\n      swap2\n      swap1\n      pop\n      jump\t// out\n        /* \"#utility.yul\":3610:3779   */\n    tag_81:\n        /* \"#utility.yul\":3694:3705   */\n      0x00\n        /* \"#utility.yul\":3728:3734   */\n      dup3\n        /* \"#utility.yul\":3723:3726   */\n      dup3\n        /* \"#utility.yul\":3716:3735   */\n      mstore\n        /* \"#utility.yul\":3768:3772   */\n      0x20\n        /* \"#utility.yul\":3763:3766   */\n      dup3\n        /* \"#utility.yul\":3759:3773   */\n      add\n        /* \"#utility.yul\":3744:3773   */\n      swap1\n      pop\n        /* \"#utility.yul\":3610:3779   */\n      swap3\n      swap2\n      pop\n      pop\n      jump\t// out\n        /* \"#utility.yul\":3785:3924   */\n    tag_82:\n        /* \"#utility.yul\":3874:3880   */\n      dup3\n        /* \"#utility.yul\":3869:3872   */\n      dup2\n        /* \"#utility.yul\":3864:3867   */\n      dup4\n        /* \"#utility.yul\":3858:3881   */\n      mcopy\n        /* \"#utility.yul\":3915:3916   */\n      0x00\n        /* \"#utility.yul\":3906:3912   */\n      dup4\n        /* \"#utility.yul\":3901:3904   */\n      dup4\n        /* \"#utility.yul\":3897:3913   */\n      add\n        /* \"#utility.yul\":3890:3917   */\n      mstore\n        /* \"#utility.yul\":3785:3924   */\n      pop\n      pop\n      pop\n      jump\t// out\n        /* \"#utility.yul\":3930:4307   */\n    tag_83:\n        /* \"#utility.yul\":4018:4021   */\n      0x00\n        /* \"#utility.yul\":4046:4085   */\n      tag_162\n        /* \"#utility.yul\":4079:4084   */\n      dup3\n        /* \"#utility.yul\":4046:4085   */\n      tag_80\n      jump\t// in\n    tag_162:\n        /* \"#utility.yul\":4101:4172   */\n      tag_163\n        /* \"#utility.yul\":4165:4171   */\n      dup2\n        /* \"#utility.yul\":4160:4163   */\n      dup6\n        /* \"#utility.yul\":4101:4172   */\n      tag_81\n      jump\t// in\n    tag_163:\n        /* \"#utility.yul\":4094:4172   */\n      swap4\n      pop\n        /* \"#utility.yul\":4181:4246   */\n      tag_164\n        /* \"#utility.yul\":4239:4245   */\n      dup2\n        /* \"#utility.yul\":4234:4237   */\n      dup6\n        /* \"#utility.yul\":4227:4231   */\n      0x20\n        /* \"#utility.yul\":4220:4225   */\n      dup7\n        /* \"#utility.yul\":4216:4232   */\n      add\n        /* \"#utility.yul\":4181:4246   */\n      tag_82\n      jump\t// in\n    tag_164:\n        /* \"#utility.yul\":4271:4300   */\n      tag_165\n        /* \"#utility.yul\":4293:4299   */\n      dup2\n        /* \"#utility.yul\":4271:4300   */\n      tag_71\n      jump\t// in\n    tag_165:\n        /* \"#utility.yul\":4266:4269   */\n      dup5\n        /* \"#utility.yul\":4262:4301   */\n      add\n        /* \"#utility.yul\":4255:4301   */\n      swap2\n      pop\n        /* \"#utility.yul\":4022:4307   */\n      pop\n        /* \"#utility.yul\":3930:4307   */\n      swap3\n      swap2\n      pop\n      pop\n      jump\t// out\n        /* \"#utility.yul\":4313:4626   */\n    tag_15:\n        /* \"#utility.yul\":4426:4430   */\n      0x00\n        /* \"#utility.yul\":4464:4466   */\n      0x20\n        /* \"#utility.yul\":4453:4462   */\n      dup3\n        /* \"#utility.yul\":4449:4467   */\n      add\n        /* \"#utility.yul\":4441:4467   */\n      swap1\n      pop\n        /* \"#utility.yul\":4513:4522   */\n      dup2\n        /* \"#utility.yul\":4507:4511   */\n      dup2\n        /* \"#utility.yul\":4503:4523   */\n      sub\n        /* \"#utility.yul\":4499:4500   */\n      0x00\n        /* \"#utility.yul\":4488:4497   */\n      dup4\n        /* \"#utility.yul\":4484:4501   */\n      add\n        /* \"#utility.yul\":4477:4524   */\n      mstore\n        /* \"#utility.yul\":4541:4619   */\n      tag_167\n        /* \"#utility.yul\":4614:4618   */\n      dup2\n        /* \"#utility.yul\":4605:4611   */\n      dup5\n        /* \"#utility.yul\":4541:4619   */\n      tag_83\n      jump\t// in\n    tag_167:\n        /* \"#utility.yul\":4533:4619   */\n      swap1\n      pop\n        /* \"#utility.yul\":4313:4626   */\n      swap3\n      swap2\n      pop\n      pop\n      jump\t// out\n        /* \"#utility.yul\":4632:4812   */\n    tag_84:\n        /* \"#utility.yul\":4680:4757   */\n      0x4e487b7100000000000000000000000000000000000000000000000000000000\n        /* \"#utility.yul\":4677:4678   */\n      0x00\n        /* \"#utility.yul\":4670:4758   */\n      mstore\n        /* \"#utility.yul\":4777:4781   */\n      0x22\n        /* \"#utility.yul\":4774:4775   */\n      0x04\n        /* \"#utility.yul\":4767:4782   */\n      mstore\n        /* \"#utility.yul\":4801:4805   */\n      0x24\n        /* \"#utility.yul\":4798:4799   */\n      0x00\n        /* \"#utility.yul\":4791:4806   */\n      revert\n        /* \"#utility.yul\":4818:5138   */\n    tag_21:\n        /* \"#utility.yul\":4862:4868   */\n      0x00\n        /* \"#utility.yul\":4899:4900   */\n      0x02\n        /* \"#utility.yul\":4893:4897   */\n      dup3\n        /* \"#utility.yul\":4889:4901   */\n      div\n        /* \"#utility.yul\":4879:4901   */\n      swap1\n      pop\n        /* \"#utility.yul\":4946:4947   */\n      0x01\n        /* \"#utility.yul\":4940:4944   */\n      dup3\n        /* \"#utility.yul\":4936:4948   */\n      and\n        /* \"#utility.yul\":4967:4985   */\n      dup1\n        /* \"#utility.yul\":4957:5038   */\n      tag_170\n      jumpi\n        /* \"#utility.yul\":5023:5027   */\n      0x7f\n        /* \"#utility.yul\":5015:5021   */\n      dup3\n        /* \"#utility.yul\":5011:5028   */\n      and\n        /* \"#utility.yul\":5001:5028   */\n      swap2\n      pop\n        /* \"#utility.yul\":4957:5038   */\n    tag_170:\n        /* \"#utility.yul\":5085:5087   */\n      0x20\n        /* \"#utility.yul\":5077:5083   */\n      dup3\n        /* \"#utility.yul\":5074:5088   */\n      lt\n        /* \"#utility.yul\":5054:5072   */\n      dup2\n        /* \"#utility.yul\":5051:5089   */\n      sub\n        /* \"#utility.yul\":5048:5132   */\n      tag_171\n      jumpi\n        /* \"#utility.yul\":5104:5122   */\n      tag_172\n      tag_84\n      jump\t// in\n    tag_172:\n        /* \"#utility.yul\":5048:5132   */\n    tag_171:\n        /* \"#utility.yul\":4869:5138   */\n      pop\n        /* \"#utility.yul\":4818:5138   */\n      swap2\n      swap1\n      pop\n      jump\t// out\n        /* \"#utility.yul\":5144:5285   */\n    tag_85:\n        /* \"#utility.yul\":5193:5197   */\n      0x00\n        /* \"#utility.yul\":5216:5219   */\n      dup2\n        /* \"#utility.yul\":5208:5219   */\n      swap1\n      pop\n        /* \"#utility.yul\":5239:5242   */\n      dup2\n        /* \"#utility.yul\":5236:5237   */\n      0x00\n        /* \"#utility.yul\":5229:5243   */\n      mstore\n        /* \"#utility.yul\":5273:5277   */\n      0x20\n        /* \"#utility.yul\":5270:5271   */\n      0x00\n        /* \"#utility.yul\":5260:5278   */\n      keccak256\n        /* \"#utility.yul\":5252:5278   */\n      swap1\n      pop\n        /* \"#utility.yul\":5144:5285   */\n      swap2\n      swap1\n      pop\n      jump\t// out\n        /* \"#utility.yul\":5291:5384   */\n    tag_86:\n        /* \"#utility.yul\":5328:5334   */\n      0x00\n        /* \"#utility.yul\":5375:5377   */\n      0x20\n        /* \"#utility.yul\":5370:5372   */\n      0x1f\n        /* \"#utility.yul\":5363:5368   */\n      dup4\n        /* \"#utility.yul\":5359:5373   */\n      add\n        /* \"#utility.yul\":5355:5378   */\n      div\n        /* \"#utility.yul\":5345:5378   */\n      swap1\n      pop\n        /* \"#utility.yul\":5291:5384   */\n      swap2\n      swap1\n      pop\n      jump\t// out\n        /* \"#utility.yul\":5390:5497   */\n    tag_87:\n        /* \"#utility.yul\":5434:5442   */\n      0x00\n        /* \"#utility.yul\":5484:5489   */\n      dup3\n        /* \"#utility.yul\":5478:5482   */\n      dup3\n        /* \"#utility.yul\":5474:5490   */\n      shl\n        /* \"#utility.yul\":5453:5490   */\n      swap1\n      pop\n        /* \"#utility.yul\":5390:5497   */\n      swap3\n      swap2\n      pop\n      pop\n      jump\t// out\n        /* \"#utility.yul\":5503:5896   */\n    tag_88:\n        /* \"#utility.yul\":5572:5578   */\n      0x00\n        /* \"#utility.yul\":5622:5623   */\n      0x08\n        /* \"#utility.yul\":5610:5620   */\n      dup4\n        /* \"#utility.yul\":5606:5624   */\n      mul\n        /* \"#utility.yul\":5645:5742   */\n      tag_177\n        /* \"#utility.yul\":5675:5741   */\n      0xffffffffffffffffffffffffffffffffffffffffffffffffffffffffffffffff\n        /* \"#utility.yul\":5664:5673   */\n      dup3\n        /* \"#utility.yul\":5645:5742   */\n      tag_87\n      jump\t// in\n    tag_177:\n        /* \"#utility.yul\":5763:5802   */\n      tag_178\n        /* \"#utility.yul\":5793:5801   */\n      dup7\n        /* \"#utility.yul\":5782:5791   */\n      dup4\n        /* \"#utility.yul\":5763:5802   */\n      tag_87\n      jump\t// in\n    tag_178:\n        /* \"#utility.yul\":5751:5802   */\n      swap6\n      pop\n        /* \"#utility.yul\":5835:5839   */\n      dup1\n        /* \"#utility.yul\":5831:5840   */\n      not\n        /* \"#utility.yul\":5824:5829   */\n      dup5\n        /* \"#utility.yul\":5820:5841   */\n      and\n        /* \"#utility.yul\":5811:5841   */\n      swap4\n      pop\n        /* \"#utility.yul\":5884:5888   */\n      dup1\n        /* \"#utility.yul\":5874:5882   */\n      dup7\n        /* \"#utility.yul\":5870:5889   */\n      and\n        /* \"#utility.yul\":5863:5868   */\n      dup5\n        /* \"#utility.yul\":5860:5890   */\n      or\n        /* \"#utility.yul\":5850:5890   */\n      swap3\n      pop\n        /* \"#utility.yul\":5579:5896   */\n      pop\n      pop\n        /* \"#utility.yul\":5503:5896   */\n      swap4\n      swap3\n      pop\n      pop\n      pop\n      jump\t// out\n        /* \"#utility.yul\":5902:5962   */\n    tag_89:\n        /* \"#utility.yul\":5930:5933   */\n      0x00\n        /* \"#utility.yul\":5951:5956   */\n      dup2\n        /* \"#utility.yul\":5944:5956   */\n      swap1\n      pop\n        /* \"#utility.yul\":5902:5962   */\n      swap2\n      swap1\n      pop\n      jump\t// out\n        /* \"#utility.yul\":5968:6110   */\n    tag_90:\n        /* \"#utility.yul\":6018:6027   */\n      0x00\n        /* \"#utility.yul\":6051:6104   */\n      tag_181\n        /* \"#utility.yul\":6069:6103   */\n      tag_182\n        /* \"#utility.yul\":6078:6102   */\n      tag_183\n        /* \"#utility.yul\":6096:6101   */\n      dup5\n        /* \"#utility.yul\":6078:6102   */\n      tag_78\n      jump\t// in\n    tag_183:\n        /* \"#utility.yul\":6069:6103   */\n      tag_89\n      jump\t// in\n    tag_182:\n        /* \"#utility.yul\":6051:6104   */\n      tag_78\n      jump\t// in\n    tag_181:\n        /* \"#utility.yul\":6038:6104   */\n      swap1\n      pop\n        /* \"#utility.yul\":5968:6110   */\n      swap2\n      swap1\n      pop\n      jump\t// out\n        /* \"#utility.yul\":6116:6191   */\n    tag_91:\n        /* \"#utility.yul\":6159:6162   */\n      0x00\n        /* \"#utility.yul\":6180:6185   */\n      dup2\n        /* \"#utility.yul\":6173:6185   */\n      swap1\n      pop\n        /* \"#utility.yul\":6116:6191   */\n      swap2\n      swap1\n      pop\n      jump\t// out\n        /* \"#utility.yul\":6197:6466   */\n    tag_92:\n        /* \"#utility.yul\":6307:6346   */\n      tag_186\n        /* \"#utility.yul\":6338:6345   */\n      dup4\n        /* \"#utility.yul\":6307:6346   */\n      tag_90\n      jump\t// in\n    tag_186:\n        /* \"#utility.yul\":6368:6459   */\n      tag_187\n        /* \"#utility.yul\":6417:6458   */\n      tag_188\n        /* \"#utility.yul\":6441:6457   */\n      dup3\n        /* \"#utility.yul\":6417:6458   */\n      tag_91\n      jump\t// in\n    tag_188:\n        /* \"#utility.yul\":6409:6415   */\n      dup5\n        /* \"#utility.yul\":6402:6406   */\n      dup5\n        /* \"#utility.yul\":6396:6407   */\n      sload\n        /* \"#utility.yul\":6368:6459   */\n      tag_88\n      jump\t// in\n    tag_187:\n        /* \"#utility.yul\":6362:6366   */\n      dup3\n        /* \"#utility.yul\":6355:6460   */\n      sstore\n        /* \"#utility.yul\":6273:6466   */\n      pop\n        /* \"#utility.yul\":6197:6466   */\n      pop\n      pop\n      pop\n      jump\t// out\n        /* \"#utility.yul\":6472:6545   */\n    tag_93:\n        /* \"#utility.yul\":6517:6520   */\n      0x00\n        /* \"#utility.yul\":6538:6539   */\n      0x00\n        /* \"#utility.yul\":6531:6539   */\n      swap1\n      pop\n        /* \"#utility.yul\":6472:6545   */\n      swap1\n      jump\t// out\n        /* \"#utility.yul\":6551:6740   */\n    tag_94:\n        /* \"#utility.yul\":6628:6660   */\n      tag_191\n      tag_93\n      jump\t// in\n    tag_191:\n        /* \"#utility.yul\":6669:6734   */\n      tag_192\n        /* \"#utility.yul\":6727:6733   */\n      dup2\n        /* \"#utility.yul\":6719:6725   */\n      dup5\n        /* \"#utility.yul\":6713:6717   */\n      dup5\n        /* \"#utility.yul\":6669:6734   */\n      tag_92\n      jump\t// in\n    tag_192:\n        /* \"#utility.yul\":6604:6740   */\n      pop\n        /* \"#utility.yul\":6551:6740   */\n      pop\n      pop\n      jump\t// out\n        /* \"#utility.yul\":6746:6932   */\n    tag_95:\n        /* \"#utility.yul\":6806:6926   */\n    tag_194:\n        /* \"#utility.yul\":6823:6826   */\n      dup2\n        /* \"#utility.yul\":6816:6821   */\n      dup2\n        /* \"#utility.yul\":6813:6827   */\n      lt\n        /* \"#utility.yul\":6806:6926   */\n      iszero\n      tag_196\n      jumpi\n        /* \"#utility.yul\":6877:6916   */\n      tag_197\n        /* \"#utility.yul\":6914:6915   */\n      0x00\n        /* \"#utility.yul\":6907:6912   */\n      dup3\n        /* \"#utility.yul\":6877:6916   */\n      tag_94\n      jump\t// in\n    tag_197:\n        /* \"#utility.yul\":6850:6851   */\n      0x01\n        /* \"#utility.yul\":6843:6848   */\n      dup2\n        /* \"#utility.yul\":6839:6852   */\n      add\n        /* \"#utility.yul\":6830:6852   */\n      swap1\n      pop\n        /* \"#utility.yul\":6806:6926   */\n      jump(tag_194)\n    tag_196:\n        /* \"#utility.yul\":6746:6932   */\n      pop\n      pop\n      jump\t// out\n        /* \"#utility.yul\":6938:7481   */\n    tag_96:\n        /* \"#utility.yul\":7039:7041   */\n      0x1f\n        /* \"#utility.yul\":7034:7037   */\n      dup3\n        /* \"#utility.yul\":7031:7042   */\n      gt\n        /* \"#utility.yul\":7028:7474   */\n      iszero\n      tag_199\n      jumpi\n        /* \"#utility.yul\":7073:7111   */\n      tag_200\n        /* \"#utility.yul\":7105:7110   */\n      dup2\n        /* \"#utility.yul\":7073:7111   */\n      tag_85\n      jump\t// in\n    tag_200:\n        /* \"#utility.yul\":7157:7186   */\n      tag_201\n        /* \"#utility.yul\":7175:7185   */\n      dup5\n        /* \"#utility.yul\":7157:7186   */\n      tag_86\n      jump\t// in\n    tag_201:\n        /* \"#utility.yul\":7147:7155   */\n      dup2\n        /* \"#utility.yul\":7143:7187   */\n      add\n        /* \"#utility.yul\":7340:7342   */\n      0x20\n        /* \"#utility.yul\":7328:7338   */\n      dup6\n        /* \"#utility.yul\":7325:7343   */\n      lt\n        /* \"#utility.yul\":7322:7371   */\n      iszero\n      tag_202\n      jumpi\n        /* \"#utility.yul\":7361:7369   */\n      dup2\n        /* \"#utility.yul\":7346:7369   */\n      swap1\n      pop\n        /* \"#utility.yul\":7322:7371   */\n    tag_202:\n        /* \"#utility.yul\":7384:7464   */\n      tag_203\n        /* \"#utility.yul\":7440:7462   */\n      tag_204\n        /* \"#utility.yul\":7458:7461   */\n      dup6\n        /* \"#utility.yul\":7440:7462   */\n      tag_86\n      jump\t// in\n    tag_204:\n        /* \"#utility.yul\":7430:7438   */\n      dup4\n        /* \"#utility.yul\":7426:7463   */\n      add\n        /* \"#utility.yul\":7413:7424   */\n      dup3\n        /* \"#utility.yul\":7384:7464   */\n      tag_95\n      jump\t// in\n    tag_203:\n        /* \"#utility.yul\":7043:7474   */\n      pop\n      pop\n        /* \"#utility.yul\":7028:7474   */\n    tag_199:\n        /* \"#utility.yul\":6938:7481   */\n      pop\n      pop\n      pop\n      jump\t// out\n        /* \"#utility.yul\":7487:7604   */\n    tag_97:\n        /* \"#utility.yul\":7541:7549   */\n      0x00\n        /* \"#utility.yul\":7591:7596   */\n      dup3\n        /* \"#utility.yul\":7585:7589   */\n      dup3\n        /* \"#utility.yul\":7581:7597   */\n      shr\n        /* \"#utility.yul\":7560:7597   */\n      swap1\n      pop\n        /* \"#utility.yul\":7487:7604   */\n      swap3\n      swap2\n      pop\n      pop\n      jump\t// out\n        /* \"#utility.yul\":7610:7779   */\n    tag_98:\n        /* \"#utility.yul\":7654:7660   */\n      0x00\n        /* \"#utility.yul\":7687:7738   */\n      tag_207\n        /* \"#utility.yul\":7735:7736   */\n      0x00\n        /* \"#utility.yul\":7731:7737   */\n      not\n        /* \"#utility.yul\":7723:7728   */\n      dup5\n        /* \"#utility.yul\":7720:7721   */\n      0x08\n        /* \"#utility.yul\":7716:7729   */\n      mul\n        /* \"#utility.yul\":7687:7738   */\n      tag_97\n      jump\t// in\n    tag_207:\n        /* \"#utility.yul\":7683:7739   */\n      not\n        /* \"#utility.yul\":7768:7772   */\n      dup1\n        /* \"#utility.yul\":7762:7766   */\n      dup4\n        /* \"#utility.yul\":7758:7773   */\n      and\n        /* \"#utility.yul\":7748:7773   */\n      swap2\n      pop\n        /* \"#utility.yul\":7661:7779   */\n      pop\n        /* \"#utility.yul\":7610:7779   */\n      swap3\n      swap2\n      pop\n      pop\n      jump\t// out\n        /* \"#utility.yul\":7784:8079   */\n    tag_99:\n        /* \"#utility.yul\":7860:7864   */\n      0x00\n        /* \"#utility.yul\":8006:8035   */\n      tag_209\n        /* \"#utility.yul\":8031:8034   */\n      dup4\n        /* \"#utility.yul\":8025:8029   */\n      dup4\n        /* \"#utility.yul\":8006:8035   */\n      tag_98\n      jump\t// in\n    tag_209:\n        /* \"#utility.yul\":7998:8035   */\n      swap2\n      pop\n        /* \"#utility.yul\":8068:8071   */\n      dup3\n        /* \"#utility.yul\":8065:8066   */\n      0x02\n        /* \"#utility.yul\":8061:8072   */\n      mul\n        /* \"#utility.yul\":8055:8059   */\n      dup3\n        /* \"#utility.yul\":8052:8073   */\n      or\n        /* \"#utility.yul\":8044:8073   */\n      swap1\n      pop\n        /* \"#utility.yul\":7784:8079   */\n      swap3\n      swap2\n      pop\n      pop\n      jump\t// out\n        /* \"#utility.yul\":8084:9479   */\n    tag_28:\n        /* \"#utility.yul\":8201:8238   */\n      tag_211\n        /* \"#utility.yul\":8234:8237   */\n      dup3\n        /* \"#utility.yul\":8201:8238   */\n      tag_80\n      jump\t// in\n    tag_211:\n        /* \"#utility.yul\":8303:8321   */\n      0xffffffffffffffff\n        /* \"#utility.yul\":8295:8301   */\n      dup2\n        /* \"#utility.yul\":8292:8322   */\n      gt\n        /* \"#utility.yul\":8289:8345   */\n      iszero\n      tag_212\n      jumpi\n        /* \"#utility.yul\":8325:8343   */\n      tag_213\n      tag_48\n      jump\t// in\n    tag_213:\n        /* \"#utility.yul\":8289:8345   */\n    tag_212:\n        /* \"#utility.yul\":8369:8407   */\n      tag_214\n        /* \"#utility.yul\":8401:8405   */\n      dup3\n        /* \"#utility.yul\":8395:8406   */\n      sload\n        /* \"#utility.yul\":8369:8407   */\n      tag_21\n      jump\t// in\n    tag_214:\n        /* \"#utility.yul\":8454:8521   */\n      tag_215\n        /* \"#utility.yul\":8514:8520   */\n      dup3\n        /* \"#utility.yul\":8506:8512   */\n      dup3\n        /* \"#utility.yul\":8500:8504   */\n      dup6\n        /* \"#utility.yul\":8454:8521   */\n      tag_96\n      jump\t// in\n    tag_215:\n        /* \"#utility.yul\":8548:8549   */\n      0x00\n        /* \"#utility.yul\":8572:8576   */\n      0x20\n        /* \"#utility.yul\":8559:8576   */\n      swap1\n      pop\n        /* \"#utility.yul\":8604:8606   */\n      0x1f\n        /* \"#utility.yul\":8596:8602   */\n      dup4\n        /* \"#utility.yul\":8593:8607   */\n      gt\n        /* \"#utility.yul\":8621:8622   */\n      0x01\n        /* \"#utility.yul\":8616:9234   */\n      dup2\n      eq\n      tag_217\n      jumpi\n        /* \"#utility.yul\":9278:9279   */\n      0x00\n        /* \"#utility.yul\":9295:9301   */\n      dup5\n        /* \"#utility.yul\":9292:9369   */\n      iszero\n      tag_218\n      jumpi\n        /* \"#utility.yul\":9344:9353   */\n      dup3\n        /* \"#utility.yul\":9339:9342   */\n      dup8\n        /* \"#utility.yul\":9335:9354   */\n      add\n        /* \"#utility.yul\":9329:9355   */\n      mload\n        /* \"#utility.yul\":9320:9355   */\n      swap1\n      pop\n        /* \"#utility.yul\":9292:9369   */\n    tag_218:\n        /* \"#utility.yul\":9395:9462   */\n      tag_219\n        /* \"#utility.yul\":9455:9461   */\n      dup6\n        /* \"#utility.yul\":9448:9453   */\n      dup3\n        /* \"#utility.yul\":9395:9462   */\n      tag_99\n      jump\t// in\n    tag_219:\n        /* \"#utility.yul\":9389:9393   */\n      dup7\n        /* \"#utility.yul\":9382:9463   */\n      sstore\n        /* \"#utility.yul\":9251:9473   */\n      pop\n        /* \"#utility.yul\":8586:9473   */\n      jump(tag_216)\n        /* \"#utility.yul\":8616:9234   */\n    tag_217:\n        /* \"#utility.yul\":8668:8672   */\n      0x1f\n        /* \"#utility.yul\":8664:8673   */\n      not\n        /* \"#utility.yul\":8656:8662   */\n      dup5\n        /* \"#utility.yul\":8652:8674   */\n      and\n        /* \"#utility.yul\":8702:8739   */\n      tag_220\n        /* \"#utility.yul\":8734:8738   */\n      dup7\n        /* \"#utility.yul\":8702:8739   */\n      tag_85\n      jump\t// in\n    tag_220:\n        /* \"#utility.yul\":8761:8762   */\n      0x00\n        /* \"#utility.yul\":8775:8983   */\n    tag_221:\n        /* \"#utility.yul\":8789:8796   */\n      dup3\n        /* \"#utility.yul\":8786:8787   */\n      dup2\n        /* \"#utility.yul\":8783:8797   */\n      lt\n        /* \"#utility.yul\":8775:8983   */\n      iszero\n      tag_223\n      jumpi\n        /* \"#utility.yul\":8868:8877   */\n      dup5\n        /* \"#utility.yul\":8863:8866   */\n      dup10\n        /* \"#utility.yul\":8859:8878   */\n      add\n        /* \"#utility.yul\":8853:8879   */\n      mload\n        /* \"#utility.yul\":8845:8851   */\n      dup3\n        /* \"#utility.yul\":8838:8880   */\n      sstore\n        /* \"#utility.yul\":8919:8920   */\n      0x01\n        /* \"#utility.yul\":8911:8917   */\n      dup3\n        /* \"#utility.yul\":8907:8921   */\n      add\n        /* \"#utility.yul\":8897:8921   */\n      swap2\n      pop\n        /* \"#utility.yul\":8966:8968   */\n      0x20\n        /* \"#utility.yul\":8955:8964   */\n      dup6\n        /* \"#utility.yul\":8951:8969   */\n      add\n        /* \"#utility.yul\":8938:8969   */\n      swap5\n      pop\n        /* \"#utility.yul\":8812:8816   */\n      0x20\n        /* \"#utility.yul\":8809:8810   */\n      dup2\n        /* \"#utility.yul\":8805:8817   */\n      add\n        /* \"#utility.yul\":8800:8817   */\n      swap1\n      pop\n        /* \"#utility.yul\":8775:8983   */\n      jump(tag_221)\n    tag_223:\n        /* \"#utility.yul\":9011:9017   */\n      dup7\n        /* \"#utility.yul\":9002:9009   */\n      dup4\n        /* \"#utility.yul\":8999:9018   */\n      lt\n        /* \"#utility.yul\":8996:9175   */\n      iszero\n      tag_224\n      jumpi\n        /* \"#utility.yul\":9069:9078   */\n      dup5\n        /* \"#utility.yul\":9064:9067   */\n      dup10\n        /* \"#utility.yul\":9060:9079   */\n      add\n        /* \"#utility.yul\":9054:9080   */\n      mload\n        /* \"#utility.yul\":9112:9160   */\n      tag_225\n        /* \"#utility.yul\":9154:9158   */\n      0x1f\n        /* \"#utility.yul\":9146:9152   */\n      dup10\n        /* \"#utility.yul\":9142:9159   */\n      and\n        /* \"#utility.yul\":9131:9140   */\n      dup3\n        /* \"#utility.yul\":9112:9160   */\n      tag_98\n      jump\t// in\n    tag_225:\n        /* \"#utility.yul\":9104:9110   */\n      dup4\n        /* \"#utility.yul\":9097:9161   */\n      sstore\n        /* \"#utility.yul\":9019:9175   */\n      pop\n        /* \"#utility.yul\":8996:9175   */\n    tag_224:\n        /* \"#utility.yul\":9221:9222   */\n      0x01\n        /* \"#utility.yul\":9217:9218   */\n      0x02\n        /* \"#utility.yul\":9209:9215   */\n      dup9\n        /* \"#utility.yul\":9205:9219   */\n      mul\n        /* \"#utility.yul\":9201:9223   */\n      add\n        /* \"#utility.yul\":9195:9199   */\n      dup9\n        /* \"#utility.yul\":9188:9224   */\n      sstore\n        /* \"#utility.yul\":8623:9234   */\n      pop\n      pop\n      pop\n        /* \"#utility.yul\":8586:9473   */\n    tag_216:\n      pop\n        /* \"#utility.yul\":8176:9479   */\n      pop\n      pop\n      pop\n        /* \"#utility.yul\":8084:9479   */\n      pop\n      pop\n      jump\t// out\n        /* \"#utility.yul\":9485:9633   */\n    tag_100:\n        /* \"#utility.yul\":9587:9598   */\n      0x00\n        /* \"#utility.yul\":9624:9627   */\n      dup2\n        /* \"#utility.yul\":9609:9627   */\n      swap1\n      pop\n        /* \"#utility.yul\":9485:9633   */\n      swap3\n      swap2\n      pop\n      pop\n      jump\t// out\n        /* \"#utility.yul\":9639:9790   */\n    tag_101:\n        /* \"#utility.yul\":9779:9782   */\n      0x4900000000000000000000000000000000000000000000000000000000000000\n        /* \"#utility.yul\":9775:9776   */\n      0x00\n        /* \"#utility.yul\":9767:9773   */\n      dup3\n        /* \"#utility.yul\":9763:9777   */\n      add\n        /* \"#utility.yul\":9756:9783   */\n      mstore\n        /* \"#utility.yul\":9639:9790   */\n      pop\n      jump\t// out\n        /* \"#utility.yul\":9796:10196   */\n    tag_102:\n        /* \"#utility.yul\":9956:9959   */\n      0x00\n        /* \"#utility.yul\":9977:10061   */\n      tag_229\n        /* \"#utility.yul\":10059:10060   */\n      0x01\n        /* \"#utility.yul\":10054:10057   */\n      dup4\n        /* \"#utility.yul\":9977:10061   */\n      tag_100\n      jump\t// in\n    tag_229:\n        /* \"#utility.yul\":9970:10061   */\n      swap2\n      pop\n        /* \"#utility.yul\":10070:10163   */\n      tag_230\n        /* \"#utility.yul\":10159:10162   */\n      dup3\n        /* \"#utility.yul\":10070:10163   */\n      tag_101\n      jump\t// in\n    tag_230:\n        /* \"#utility.yul\":10188:10189   */\n      0x01\n        /* \"#utility.yul\":10183:10186   */\n      dup3\n        /* \"#utility.yul\":10179:10190   */\n      add\n        /* \"#utility.yul\":10172:10190   */\n      swap1\n      pop\n        /* \"#utility.yul\":9796:10196   */\n      swap2\n      swap1\n      pop\n      jump\t// out\n        /* \"#utility.yul\":10202:10583   */\n    tag_30:\n        /* \"#utility.yul\":10387:10390   */\n      0x00\n        /* \"#utility.yul\":10409:10557   */\n      tag_232\n        /* \"#utility.yul\":10553:10556   */\n      dup3\n        /* \"#utility.yul\":10409:10557   */\n      tag_102\n      jump\t// in\n    tag_232:\n        /* \"#utility.yul\":10402:10557   */\n      swap2\n      pop\n        /* \"#utility.yul\":10574:10577   */\n      dup2\n        /* \"#utility.yul\":10567:10577   */\n      swap1\n      pop\n        /* \"#utility.yul\":10202:10583   */\n      swap2\n      swap1\n      pop\n      jump\t// out\n        /* \"#utility.yul\":10589:10740   */\n    tag_103:\n        /* \"#utility.yul\":10729:10732   */\n      0x5600000000000000000000000000000000000000000000000000000000000000\n        /* \"#utility.yul\":10725:10726   */\n      0x00\n        /* \"#utility.yul\":10717:10723   */\n      dup3\n        /* \"#utility.yul\":10713:10727   */\n      add\n        /* \"#utility.yul\":10706:10733   */\n      mstore\n        /* \"#utility.yul\":10589:10740   */\n      pop\n      jump\t// out\n        /* \"#utility.yul\":10746:11146   */\n    tag_104:\n        /* \"#utility.yul\":10906:10909   */\n      0x00\n        /* \"#utility.yul\":10927:11011   */\n      tag_235\n        /* \"#utility.yul\":11009:11010   */\n      0x01\n        /* \"#utility.yul\":11004:11007   */\n      dup4\n        /* \"#utility.yul\":10927:11011   */\n      tag_100\n      jump\t// in\n    tag_235:\n        /* \"#utility.yul\":10920:11011   */\n      swap2\n      pop\n        /* \"#utility.yul\":11020:11113   */\n      tag_236\n        /* \"#utility.yul\":11109:11112   */\n      dup3\n        /* \"#utility.yul\":11020:11113   */\n      tag_103\n      jump\t// in\n    tag_236:\n        /* \"#utility.yul\":11138:11139   */\n      0x01\n        /* \"#utility.yul\":11133:11136   */\n      dup3\n        /* \"#utility.yul\":11129:11140   */\n      add\n        /* \"#utility.yul\":11122:11140   */\n      swap1\n      pop\n        /* \"#utility.yul\":10746:11146   */\n      swap2\n      swap1\n      pop\n      jump\t// out\n        /* \"#utility.yul\":11152:11533   */\n    tag_32:\n        /* \"#utility.yul\":11337:11340   */\n      0x00\n        /* \"#utility.yul\":11359:11507   */\n      tag_238\n        /* \"#utility.yul\":11503:11506   */\n      dup3\n        /* \"#utility.yul\":11359:11507   */\n      tag_104\n      jump\t// in\n    tag_238:\n        /* \"#utility.yul\":11352:11507   */\n      swap2\n      pop\n        /* \"#utility.yul\":11524:11527   */\n      dup2\n        /* \"#utility.yul\":11517:11527   */\n      swap1\n      pop\n        /* \"#utility.yul\":11152:11533   */\n      swap2\n      swap1\n      pop\n      jump\t// out\n        /* \"#utility.yul\":11539:11690   */\n    tag_105:\n        /* \"#utility.yul\":11679:11682   */\n      0x5800000000000000000000000000000000000000000000000000000000000000\n        /* \"#utility.yul\":11675:11676   */\n      0x00\n        /* \"#utility.yul\":11667:11673   */\n      dup3\n        /* \"#utility.yul\":11663:11677   */\n      add\n        /* \"#utility.yul\":11656:11683   */\n      mstore\n        /* \"#utility.yul\":11539:11690   */\n      pop\n      jump\t// out\n        /* \"#utility.yul\":11696:12096   */\n    tag_106:\n        /* \"#utility.yul\":11856:11859   */\n      0x00\n        /* \"#utility.yul\":11877:11961   */\n      tag_241\n        /* \"#utility.yul\":11959:11960   */\n      0x01\n        /* \"#utility.yul\":11954:11957   */\n      dup4\n        /* \"#utility.yul\":11877:11961   */\n      tag_100\n      jump\t// in\n    tag_241:\n        /* \"#utility.yul\":11870:11961   */\n      swap2\n      pop\n        /* \"#utility.yul\":11970:12063   */\n      tag_242\n        /* \"#utility.yul\":12059:12062   */\n      dup3\n        /* \"#utility.yul\":11970:12063   */\n      tag_105\n      jump\t// in\n    tag_242:\n        /* \"#utility.yul\":12088:12089   */\n      0x01\n        /* \"#utility.yul\":12083:12086   */\n      dup3\n        /* \"#utility.yul\":12079:12090   */\n      add\n        /* \"#utility.yul\":12072:12090   */\n      swap1\n      pop\n        /* \"#utility.yul\":11696:12096   */\n      swap2\n      swap1\n      pop\n      jump\t// out\n        /* \"#utility.yul\":12102:12483   */\n    tag_34:\n        /* \"#utility.yul\":12287:12290   */\n      0x00\n        /* \"#utility.yul\":12309:12457   */\n      tag_244\n        /* \"#utility.yul\":12453:12456   */\n      dup3\n        /* \"#utility.yul\":12309:12457   */\n      tag_106\n      jump\t// in\n    tag_244:\n        /* \"#utility.yul\":12302:12457   */\n      swap2\n      pop\n        /* \"#utility.yul\":12474:12477   */\n      dup2\n        /* \"#utility.yul\":12467:12477   */\n      swap1\n      pop\n        /* \"#utility.yul\":12102:12483   */\n      swap2\n      swap1\n      pop\n      jump\t// out\n        /* \"#utility.yul\":12489:12640   */\n    tag_107:\n        /* \"#utility.yul\":12629:12632   */\n      0x4c00000000000000000000000000000000000000000000000000000000000000\n        /* \"#utility.yul\":12625:12626   */\n      0x00\n        /* \"#utility.yul\":12617:12623   */\n      dup3\n        /* \"#utility.yul\":12613:12627   */\n      add\n        /* \"#utility.yul\":12606:12633   */\n      mstore\n        /* \"#utility.yul\":12489:12640   */\n      pop\n      jump\t// out\n        /* \"#utility.yul\":12646:13046   */\n    tag_108:\n        /* \"#utility.yul\":12806:12809   */\n      0x00\n        /* \"#utility.yul\":12827:12911   */\n      tag_247\n        /* \"#utility.yul\":12909:12910   */\n      0x01\n        /* \"#utility.yul\":12904:12907   */\n      dup4\n        /* \"#utility.yul\":12827:12911   */\n      tag_100\n      jump\t// in\n    tag_247:\n        /* \"#utility.yul\":12820:12911   */\n      swap2\n      pop\n        /* \"#utility.yul\":12920:13013   */\n      tag_248\n        /* \"#utility.yul\":13009:13012   */\n      dup3\n        /* \"#utility.yul\":12920:13013   */\n      tag_107\n      jump\t// in\n    tag_248:\n        /* \"#utility.yul\":13038:13039   */\n      0x01\n        /* \"#utility.yul\":13033:13036   */\n      dup3\n        /* \"#utility.yul\":13029:13040   */\n      add\n        /* \"#utility.yul\":13022:13040   */\n      swap1\n      pop\n        /* \"#utility.yul\":12646:13046   */\n      swap2\n      swap1\n      pop\n      jump\t// out\n        /* \"#utility.yul\":13052:13433   */\n    tag_36:\n        /* \"#utility.yul\":13237:13240   */\n      0x00\n        /* \"#utility.yul\":13259:13407   */\n      tag_250\n        /* \"#utility.yul\":13403:13406   */\n      dup3\n        /* \"#utility.yul\":13259:13407   */\n      tag_108\n      jump\t// in\n    tag_250:\n        /* \"#utility.yul\":13252:13407   */\n      swap2\n      pop\n        /* \"#utility.yul\":13424:13427   */\n      dup2\n        /* \"#utility.yul\":13417:13427   */\n      swap1\n      pop\n        /* \"#utility.yul\":13052:13433   */\n      swap2\n      swap1\n      pop\n      jump\t// out\n        /* \"#utility.yul\":13439:13590   */\n    tag_109:\n        /* \"#utility.yul\":13579:13582   */\n      0x4300000000000000000000000000000000000000000000000000000000000000\n        /* \"#utility.yul\":13575:13576   */\n      0x00\n        /* \"#utility.yul\":13567:13573   */\n      dup3\n        /* \"#utility.yul\":13563:13577   */\n      add\n        /* \"#utility.yul\":13556:13583   */\n      mstore\n        /* \"#utility.yul\":13439:13590   */\n      pop\n      jump\t// out\n        /* \"#utility.yul\":13596:13996   */\n    tag_110:\n        /* \"#utility.yul\":13756:13759   */\n      0x00\n        /* \"#utility.yul\":13777:13861   */\n      tag_253\n        /* \"#utility.yul\":13859:13860   */\n      0x01\n        /* \"#utility.yul\":13854:13857   */\n      dup4\n        /* \"#utility.yul\":13777:13861   */\n      tag_100\n      jump\t// in\n    tag_253:\n        /* \"#utility.yul\":13770:13861   */\n      swap2\n      pop\n        /* \"#utility.yul\":13870:13963   */\n      tag_254\n        /* \"#utility.yul\":13959:13962   */\n      dup3\n        /* \"#utility.yul\":13870:13963   */\n      tag_109\n      jump\t// in\n    tag_254:\n        /* \"#utility.yul\":13988:13989   */\n      0x01\n        /* \"#utility.yul\":13983:13986   */\n      dup3\n        /* \"#utility.yul\":13979:13990   */\n      add\n        /* \"#utility.yul\":13972:13990   */\n      swap1\n      pop\n        /* \"#utility.yul\":13596:13996   */\n      swap2\n      swap1\n      pop\n      jump\t// out\n        /* \"#utility.yul\":14002:14383   */\n    tag_38:\n        /* \"#utility.yul\":14187:14190   */\n      0x00\n        /* \"#utility.yul\":14209:14357   */\n      tag_256\n        /* \"#utility.yul\":14353:14356   */\n      dup3\n        /* \"#utility.yul\":14209:14357   */\n      tag_110\n      jump\t// in\n    tag_256:\n        /* \"#utility.yul\":14202:14357   */\n      swap2\n      pop\n        /* \"#utility.yul\":14374:14377   */\n      dup2\n        /* \"#utility.yul\":14367:14377   */\n      swap1\n      pop\n        /* \"#utility.yul\":14002:14383   */\n      swap2\n      swap1\n      pop\n      jump\t// out\n        /* \"#utility.yul\":14389:14540   */\n    tag_111:\n        /* \"#utility.yul\":14529:14532   */\n      0x4400000000000000000000000000000000000000000000000000000000000000\n        /* \"#utility.yul\":14525:14526   */\n      0x00\n        /* \"#utility.yul\":14517:14523   */\n      dup3\n        /* \"#utility.yul\":14513:14527   */\n      add\n        /* \"#utility.yul\":14506:14533   */\n      mstore\n        /* \"#utility.yul\":14389:14540   */\n      pop\n      jump\t// out\n        /* \"#utility.yul\":14546:14946   */\n    tag_112:\n        /* \"#utility.yul\":14706:14709   */\n      0x00\n        /* \"#utility.yul\":14727:14811   */\n      tag_259\n        /* \"#utility.yul\":14809:14810   */\n      0x01\n        /* \"#utility.yul\":14804:14807   */\n      dup4\n        /* \"#utility.yul\":14727:14811   */\n      tag_100\n      jump\t// in\n    tag_259:\n        /* \"#utility.yul\":14720:14811   */\n      swap2\n      pop\n        /* \"#utility.yul\":14820:14913   */\n      tag_260\n        /* \"#utility.yul\":14909:14912   */\n      dup3\n        /* \"#utility.yul\":14820:14913   */\n      tag_111\n      jump\t// in\n    tag_260:\n        /* \"#utility.yul\":14938:14939   */\n      0x01\n        /* \"#utility.yul\":14933:14936   */\n      dup3\n        /* \"#utility.yul\":14929:14940   */\n      add\n        /* \"#utility.yul\":14922:14940   */\n      swap1\n      pop\n        /* \"#utility.yul\":14546:14946   */\n      swap2\n      swap1\n      pop\n      jump\t// out\n        /* \"#utility.yul\":14952:15333   */\n    tag_40:\n        /* \"#utility.yul\":15137:15140   */\n      0x00\n        /* \"#utility.yul\":15159:15307   */\n      tag_262\n        /* \"#utility.yul\":15303:15306   */\n      dup3\n        /* \"#utility.yul\":15159:15307   */\n      tag_112\n      jump\t// in\n    tag_262:\n        /* \"#utility.yul\":15152:15307   */\n      swap2\n      pop\n        /* \"#utility.yul\":15324:15327   */\n      dup2\n        /* \"#utility.yul\":15317:15327   */\n      swap1\n      pop\n        /* \"#utility.yul\":14952:15333   */\n      swap2\n      swap1\n      pop\n      jump\t// out\n        /* \"#utility.yul\":15339:15490   */\n    tag_113:\n        /* \"#utility.yul\":15479:15482   */\n      0x4d00000000000000000000000000000000000000000000000000000000000000\n        /* \"#utility.yul\":15475:15476   */\n      0x00\n        /* \"#utility.yul\":15467:15473   */\n      dup3\n        /* \"#utility.yul\":15463:15477   */\n      add\n        /* \"#utility.yul\":15456:15483   */\n      mstore\n        /* \"#utility.yul\":15339:15490   */\n      pop\n      jump\t// out\n        /* \"#utility.yul\":15496:15896   */\n    tag_114:\n        /* \"#utility.yul\":15656:15659   */\n      0x00\n        /* \"#utility.yul\":15677:15761   */\n      tag_265\n        /* \"#utility.yul\":15759:15760   */\n      0x01\n        /* \"#utility.yul\":15754:15757   */\n      dup4\n        /* \"#utility.yul\":15677:15761   */\n      tag_100\n      jump\t// in\n    tag_265:\n        /* \"#utility.yul\":15670:15761   */\n      swap2\n      pop\n        /* \"#utility.yul\":15770:15863   */\n      tag_266\n        /* \"#utility.yul\":15859:15862   */\n      dup3\n        /* \"#utility.yul\":15770:15863   */\n      tag_113\n      jump\t// in\n    tag_266:\n        /* \"#utility.yul\":15888:15889   */\n      0x01\n        /* \"#utility.yul\":15883:15886   */\n      dup3\n        /* \"#utility.yul\":15879:15890   */\n      add\n        /* \"#utility.yul\":15872:15890   */\n      swap1\n      pop\n        /* \"#utility.yul\":15496:15896   */\n      swap2\n      swap1\n      pop\n      jump\t// out\n        /* \"#utility.yul\":15902:16283   */\n    tag_42:\n        /* \"#utility.yul\":16087:16090   */\n      0x00\n        /* \"#utility.yul\":16109:16257   */\n      tag_268\n        /* \"#utility.yul\":16253:16256   */\n      dup3\n        /* \"#utility.yul\":16109:16257   */\n      tag_114\n      jump\t// in\n    tag_268:\n        /* \"#utility.yul\":16102:16257   */\n      swap2\n      pop\n        /* \"#utility.yul\":16274:16277   */\n      dup2\n        /* \"#utility.yul\":16267:16277   */\n      swap1\n      pop\n        /* \"#utility.yul\":15902:16283   */\n      swap2\n      swap1\n      pop\n      jump\t// out\n        /* \"#utility.yul\":16289:16469   */\n    tag_52:\n        /* \"#utility.yul\":16337:16414   */\n      0x4e487b7100000000000000000000000000000000000000000000000000000000\n        /* \"#utility.yul\":16334:16335   */\n      0x00\n        /* \"#utility.yul\":16327:16415   */\n      mstore\n        /* \"#utility.yul\":16434:16438   */\n      0x32\n        /* \"#utility.yul\":16431:16432   */\n      0x04\n        /* \"#utility.yul\":16424:16439   */\n      mstore\n        /* \"#utility.yul\":16458:16462   */\n      0x24\n        /* \"#utility.yul\":16455:16456   */\n      0x00\n        /* \"#utility.yul\":16448:16463   */\n      revert\n        /* \"#utility.yul\":16475:16865   */\n    tag_115:\n        /* \"#utility.yul\":16581:16584   */\n      0x00\n        /* \"#utility.yul\":16609:16648   */\n      tag_271\n        /* \"#utility.yul\":16642:16647   */\n      dup3\n        /* \"#utility.yul\":16609:16648   */\n      tag_80\n      jump\t// in\n    tag_271:\n        /* \"#utility.yul\":16664:16753   */\n      tag_272\n        /* \"#utility.yul\":16746:16752   */\n      dup2\n        /* \"#utility.yul\":16741:16744   */\n      dup6\n        /* \"#utility.yul\":16664:16753   */\n      tag_100\n      jump\t// in\n    tag_272:\n        /* \"#utility.yul\":16657:16753   */\n      swap4\n      pop\n        /* \"#utility.yul\":16762:16827   */\n      tag_273\n        /* \"#utility.yul\":16820:16826   */\n      dup2\n        /* \"#utility.yul\":16815:16818   */\n      dup6\n        /* \"#utility.yul\":16808:16812   */\n      0x20\n        /* \"#utility.yul\":16801:16806   */\n      dup7\n        /* \"#utility.yul\":16797:16813   */\n      add\n        /* \"#utility.yul\":16762:16827   */\n      tag_82\n      jump\t// in\n    tag_273:\n        /* \"#utility.yul\":16852:16858   */\n      dup1\n        /* \"#utility.yul\":16847:16850   */\n      dup5\n        /* \"#utility.yul\":16843:16859   */\n      add\n        /* \"#utility.yul\":16836:16859   */\n      swap2\n      pop\n        /* \"#utility.yul\":16585:16865   */\n      pop\n        /* \"#utility.yul\":16475:16865   */\n      swap3\n      swap2\n      pop\n      pop\n      jump\t// out\n        /* \"#utility.yul\":16871:17146   */\n    tag_56:\n        /* \"#utility.yul\":17003:17006   */\n      0x00\n        /* \"#utility.yul\":17025:17120   */\n      tag_275\n        /* \"#utility.yul\":17116:17119   */\n      dup3\n        /* \"#utility.yul\":17107:17113   */\n      dup5\n        /* \"#utility.yul\":17025:17120   */\n      tag_115\n      jump\t// in\n    tag_275:\n        /* \"#utility.yul\":17018:17120   */\n      swap2\n      pop\n        /* \"#utility.yul\":17137:17140   */\n      dup2\n        /* \"#utility.yul\":17130:17140   */\n      swap1\n      pop\n        /* \"#utility.yul\":16871:17146   */\n      swap3\n      swap2\n      pop\n      pop\n      jump\t// out\n        /* \"#utility.yul\":17152:17332   */\n    tag_116:\n        /* \"#utility.yul\":17200:17277   */\n      0x4e487b7100000000000000000000000000000000000000000000000000000000\n        /* \"#utility.yul\":17197:17198   */\n      0x00\n        /* \"#utility.yul\":17190:17278   */\n      mstore\n        /* \"#utility.yul\":17297:17301   */\n      0x11\n        /* \"#utility.yul\":17294:17295   */\n      0x04\n        /* \"#utility.yul\":17287:17302   */\n      mstore\n        /* \"#utility.yul\":17321:17325   */\n      0x24\n        /* \"#utility.yul\":17318:17319   */\n      0x00\n        /* \"#utility.yul\":17311:17326   */\n      revert\n        /* \"#utility.yul\":17338:17529   */\n    tag_59:\n        /* \"#utility.yul\":17378:17381   */\n      0x00\n        /* \"#utility.yul\":17397:17417   */\n      tag_278\n        /* \"#utility.yul\":17415:17416   */\n      dup3\n        /* \"#utility.yul\":17397:17417   */\n      tag_78\n      jump\t// in\n    tag_278:\n        /* \"#utility.yul\":17392:17417   */\n      swap2\n      pop\n        /* \"#utility.yul\":17431:17451   */\n      tag_279\n        /* \"#utility.yul\":17449:17450   */\n      dup4\n        /* \"#utility.yul\":17431:17451   */\n      tag_78\n      jump\t// in\n    tag_279:\n        /* \"#utility.yul\":17426:17451   */\n      swap3\n      pop\n        /* \"#utility.yul\":17474:17475   */\n      dup3\n        /* \"#utility.yul\":17471:17472   */\n      dup3\n        /* \"#utility.yul\":17467:17476   */\n      add\n        /* \"#utility.yul\":17460:17476   */\n      swap1\n      pop\n        /* \"#utility.yul\":17495:17498   */\n      dup1\n        /* \"#utility.yul\":17492:17493   */\n      dup3\n        /* \"#utility.yul\":17489:17499   */\n      gt\n        /* \"#utility.yul\":17486:17522   */\n      iszero\n      tag_280\n      jumpi\n        /* \"#utility.yul\":17502:17520   */\n      tag_281\n      tag_116\n      jump\t// in\n    tag_281:\n        /* \"#utility.yul\":17486:17522   */\n    tag_280:\n        /* \"#utility.yul\":17338:17529   */\n      swap3\n      swap2\n      pop\n      pop\n      jump\t// out\n        /* \"#utility.yul\":17535:17729   */\n    tag_62:\n        /* \"#utility.yul\":17575:17579   */\n      0x00\n        /* \"#utility.yul\":17595:17615   */\n      tag_283\n        /* \"#utility.yul\":17613:17614   */\n      dup3\n        /* \"#utility.yul\":17595:17615   */\n      tag_78\n      jump\t// in\n    tag_283:\n        /* \"#utility.yul\":17590:17615   */\n      swap2\n      pop\n        /* \"#utility.yul\":17629:17649   */\n      tag_284\n        /* \"#utility.yul\":17647:17648   */\n      dup4\n        /* \"#utility.yul\":17629:17649   */\n      tag_78\n      jump\t// in\n    tag_284:\n        /* \"#utility.yul\":17624:17649   */\n      swap3\n      pop\n        /* \"#utility.yul\":17673:17674   */\n      dup3\n        /* \"#utility.yul\":17670:17671   */\n      dup3\n        /* \"#utility.yul\":17666:17675   */\n      sub\n        /* \"#utility.yul\":17658:17675   */\n      swap1\n      pop\n        /* \"#utility.yul\":17697:17698   */\n      dup2\n        /* \"#utility.yul\":17691:17695   */\n      dup2\n        /* \"#utility.yul\":17688:17699   */\n      gt\n        /* \"#utility.yul\":17685:17722   */\n      iszero\n      tag_285\n      jumpi\n        /* \"#utility.yul\":17702:17720   */\n      tag_286\n      tag_116\n      jump\t// in\n    tag_286:\n        /* \"#utility.yul\":17685:17722   */\n    tag_285:\n        /* \"#utility.yul\":17535:17729   */\n      swap3\n      swap2\n      pop\n      pop\n      jump\t// out\n        /* \"#utility.yul\":17735:17906   */\n    tag_64:\n        /* \"#utility.yul\":17774:17777   */\n      0x00\n        /* \"#utility.yul\":17797:17821   */\n      tag_288\n        /* \"#utility.yul\":17815:17820   */\n      dup3\n        /* \"#utility.yul\":17797:17821   */\n      tag_78\n      jump\t// in\n    tag_288:\n        /* \"#utility.yul\":17788:17821   */\n      swap2\n      pop\n        /* \"#utility.yul\":17843:17847   */\n      0x00\n        /* \"#utility.yul\":17836:17841   */\n      dup3\n        /* \"#utility.yul\":17833:17848   */\n      sub\n        /* \"#utility.yul\":17830:17871   */\n      tag_289\n      jumpi\n        /* \"#utility.yul\":17851:17869   */\n      tag_290\n      tag_116\n      jump\t// in\n    tag_290:\n        /* \"#utility.yul\":17830:17871   */\n    tag_289:\n        /* \"#utility.yul\":17898:17899   */\n      0x01\n        /* \"#utility.yul\":17891:17896   */\n      dup3\n        /* \"#utility.yul\":17887:17900   */\n      sub\n        /* \"#utility.yul\":17880:17900   */\n      swap1\n      pop\n        /* \"#utility.yul\":17735:17906   */\n      swap2\n      swap1\n      pop\n      jump\t// out\n\n    auxdata: 0xa264697066735822122087daa8e22a3facaec74fe84c8f4926e424e350c5a481c319bb4aa18af391d5a064736f6c634300081e0033\n}\n",
				"bytecode": {
					"linkReferences": {},
					"object": "6080604052348015600e575f5ffd5b50610cda8061001c5f395ff3fe608060405234801561000f575f5ffd5b506004361061003f575f3560e01c8063424e703814610043578063a6c41eb014610073578063cb159dfe14610091575b5f5ffd5b61005d60048036038101906100589190610517565b6100c1565b60405161006a9190610576565b60405180910390f35b61007b6100ed565b60405161008891906105ef565b60405180910390f35b6100ab60048036038101906100a69190610517565b610179565b6040516100b89190610576565b60405180910390f35b5f818051602081018201805184825260208301602085012081835280955050505050505f915090505481565b600180546100fa9061063c565b80601f01602080910402602001604051908101604052809291908181526020018280546101269061063c565b80156101715780601f1061014857610100808354040283529160200191610171565b820191905f5260205f20905b81548152906001019060200180831161015457829003601f168201915b505050505081565b5f8160019081610189919061080c565b5060015f6040516101999061092f565b90815260200160405180910390208190555060055f6040516101ba9061098d565b908152602001604051809103902081905550600a5f6040516101db906109eb565b90815260200160405180910390208190555060325f6040516101fc90610a49565b90815260200160405180910390208190555060645f60405161021d90610aa7565b9081526020016040518091039020819055506101f45f60405161023f90610b05565b9081526020016040518091039020819055506103e85f60405161026190610b63565b9081526020016040518091039020819055505f5f90505f5f90505f8490505f815190505b5f81106103a3575f600167ffffffffffffffff8111156102a8576102a76103f3565b5b6040519080825280601f01601f1916602001820160405280156102da5781602001600182028036833780820191505090505b5090508282815181106102f0576102ef610b77565b5b602001015160f81c60f81b815f8151811061030e5761030d610b77565b5b60200101907effffffffffffffffffffffffffffffffffffffffffffffffffffffffffffff191690815f1a9053505f8190505f5f826040516103509190610bd4565b908152602001604051809103902054905085811061037b5780876103749190610c17565b965061038a565b80876103879190610c4a565b96505b809550505050808061039b90610c7d565b915050610285565b505f6040516103b19061092f565b9081526020016040518091039020549350505050919050565b5f604051905090565b5f5ffd5b5f5ffd5b5f5ffd5b5f5ffd5b5f601f19601f8301169050919050565b7f4e487b71000000000000000000000000000000000000000000000000000000005f52604160045260245ffd5b610429826103e3565b810181811067ffffffffffffffff82111715610448576104476103f3565b5b80604052505050565b5f61045a6103ca565b90506104668282610420565b919050565b5f67ffffffffffffffff821115610485576104846103f3565b5b61048e826103e3565b9050602081019050919050565b828183375f83830152505050565b5f6104bb6104b68461046b565b610451565b9050828152602081018484840111156104d7576104d66103df565b5b6104e284828561049b565b509392505050565b5f82601f8301126104fe576104fd6103db565b5b813561050e8482602086016104a9565b91505092915050565b5f6020828403121561052c5761052b6103d3565b5b5f82013567ffffffffffffffff811115610549576105486103d7565b5b610555848285016104ea565b91505092915050565b5f819050919050565b6105708161055e565b82525050565b5f6020820190506105895f830184610567565b92915050565b5f81519050919050565b5f82825260208201905092915050565b8281835e5f83830152505050565b5f6105c18261058f565b6105cb8185610599565b93506105db8185602086016105a9565b6105e4816103e3565b840191505092915050565b5f6020820190508181035f83015261060781846105b7565b905092915050565b7f4e487b71000000000000000000000000000000000000000000000000000000005f52602260045260245ffd5b5f600282049050600182168061065357607f821691505b6020821081036106665761066561060f565b5b50919050565b5f819050815f5260205f209050919050565b5f6020601f8301049050919050565b5f82821b905092915050565b5f600883026106c87fffffffffffffffffffffffffffffffffffffffffffffffffffffffffffffffff8261068d565b6106d2868361068d565b95508019841693508086168417925050509392505050565b5f819050919050565b5f61070d6107086107038461055e565b6106ea565b61055e565b9050919050565b5f819050919050565b610726836106f3565b61073a61073282610714565b848454610699565b825550505050565b5f5f905090565b610751610742565b61075c81848461071d565b505050565b5b8181101561077f576107745f82610749565b600181019050610762565b5050565b601f8211156107c4576107958161066c565b61079e8461067e565b810160208510156107ad578190505b6107c16107b98561067e565b830182610761565b50505b505050565b5f82821c905092915050565b5f6107e45f19846008026107c9565b1980831691505092915050565b5f6107fc83836107d5565b9150826002028217905092915050565b6108158261058f565b67ffffffffffffffff81111561082e5761082d6103f3565b5b610838825461063c565b610843828285610783565b5f60209050601f831160018114610874575f8415610862578287015190505b61086c85826107f1565b8655506108d3565b601f1984166108828661066c565b5f5b828110156108a957848901518255600182019150602085019450602081019050610884565b868310156108c657848901516108c2601f8916826107d5565b8355505b6001600288020188555050505b505050505050565b5f81905092915050565b7f49000000000000000000000000000000000000000000000000000000000000005f82015250565b5f6109196001836108db565b9150610924826108e5565b600182019050919050565b5f6109398261090d565b9150819050919050565b7f56000000000000000000000000000000000000000000000000000000000000005f82015250565b5f6109776001836108db565b915061098282610943565b600182019050919050565b5f6109978261096b565b9150819050919050565b7f58000000000000000000000000000000000000000000000000000000000000005f82015250565b5f6109d56001836108db565b91506109e0826109a1565b600182019050919050565b5f6109f5826109c9565b9150819050919050565b7f4c000000000000000000000000000000000000000000000000000000000000005f82015250565b5f610a336001836108db565b9150610a3e826109ff565b600182019050919050565b5f610a5382610a27565b9150819050919050565b7f43000000000000000000000000000000000000000000000000000000000000005f82015250565b5f610a916001836108db565b9150610a9c82610a5d565b600182019050919050565b5f610ab182610a85565b9150819050919050565b7f44000000000000000000000000000000000000000000000000000000000000005f82015250565b5f610aef6001836108db565b9150610afa82610abb565b600182019050919050565b5f610b0f82610ae3565b9150819050919050565b7f4d000000000000000000000000000000000000000000000000000000000000005f82015250565b5f610b4d6001836108db565b9150610b5882610b19565b600182019050919050565b5f610b6d82610b41565b9150819050919050565b7f4e487b71000000000000000000000000000000000000000000000000000000005f52603260045260245ffd5b5f610bae8261058f565b610bb881856108db565b9350610bc88185602086016105a9565b80840191505092915050565b5f610bdf8284610ba4565b915081905092915050565b7f4e487b71000000000000000000000000000000000000000000000000000000005f52601160045260245ffd5b5f610c218261055e565b9150610c2c8361055e565b9250828201905080821115610c4457610c43610bea565b5b92915050565b5f610c548261055e565b9150610c5f8361055e565b9250828203905081811115610c7757610c76610bea565b5b92915050565b5f610c878261055e565b91505f8203610c9957610c98610bea565b5b60018203905091905056fea264697066735822122087daa8e22a3facaec74fe84c8f4926e424e350c5a481c319bb4aa18af391d5a064736f6c634300081e0033",
					"opcodes": "PUSH1 0x80 PUSH1 0x40 MSTORE CALLVALUE DUP1 ISZERO PUSH1 0xE JUMPI PUSH0 PUSH0 REVERT JUMPDEST POP PUSH2 0xCDA DUP1 PUSH2 0x1C PUSH0 CODECOPY PUSH0 RETURN INVALID PUSH1 0x80 PUSH1 0x40 MSTORE CALLVALUE DUP1 ISZERO PUSH2 0xF JUMPI PUSH0 PUSH0 REVERT JUMPDEST POP PUSH1 0x4 CALLDATASIZE LT PUSH2 0x3F JUMPI PUSH0 CALLDATALOAD PUSH1 0xE0 SHR DUP1 PUSH4 0x424E7038 EQ PUSH2 0x43 JUMPI DUP1 PUSH4 0xA6C41EB0 EQ PUSH2 0x73 JUMPI DUP1 PUSH4 0xCB159DFE EQ PUSH2 0x91 JUMPI JUMPDEST PUSH0 PUSH0 REVERT JUMPDEST PUSH2 0x5D PUSH1 0x4 DUP1 CALLDATASIZE SUB DUP2 ADD SWAP1 PUSH2 0x58 SWAP2 SWAP1 PUSH2 0x517 JUMP JUMPDEST PUSH2 0xC1 JUMP JUMPDEST PUSH1 0x40 MLOAD PUSH2 0x6A SWAP2 SWAP1 PUSH2 0x576 JUMP JUMPDEST PUSH1 0x40 MLOAD DUP1 SWAP2 SUB SWAP1 RETURN JUMPDEST PUSH2 0x7B PUSH2 0xED JUMP JUMPDEST PUSH1 0x40 MLOAD PUSH2 0x88 SWAP2 SWAP1 PUSH2 0x5EF JUMP JUMPDEST PUSH1 0x40 MLOAD DUP1 SWAP2 SUB SWAP1 RETURN JUMPDEST PUSH2 0xAB PUSH1 0x4 DUP1 CALLDATASIZE SUB DUP2 ADD SWAP1 PUSH2 0xA6 SWAP2 SWAP1 PUSH2 0x517 JUMP JUMPDEST PUSH2 0x179 JUMP JUMPDEST PUSH1 0x40 MLOAD PUSH2 0xB8 SWAP2 SWAP1 PUSH2 0x576 JUMP JUMPDEST PUSH1 0x40 MLOAD DUP1 SWAP2 SUB SWAP1 RETURN JUMPDEST PUSH0 DUP2 DUP1 MLOAD PUSH1 0x20 DUP2 ADD DUP3 ADD DUP1 MLOAD DUP5 DUP3 MSTORE PUSH1 0x20 DUP4 ADD PUSH1 0x20 DUP6 ADD KECCAK256 DUP2 DUP4 MSTORE DUP1 SWAP6 POP POP POP POP POP POP PUSH0 SWAP2 POP SWAP1 POP SLOAD DUP2 JUMP JUMPDEST PUSH1 0x1 DUP1 SLOAD PUSH2 0xFA SWAP1 PUSH2 0x63C JUMP JUMPDEST DUP1 PUSH1 0x1F ADD PUSH1 0x20 DUP1 SWAP2 DIV MUL PUSH1 0x20 ADD PUSH1 0x40 MLOAD SWAP1 DUP2 ADD PUSH1 0x40 MSTORE DUP1 SWAP3 SWAP2 SWAP1 DUP2 DUP2 MSTORE PUSH1 0x20 ADD DUP3 DUP1 SLOAD PUSH2 0x126 SWAP1 PUSH2 0x63C JUMP JUMPDEST DUP1 ISZERO PUSH2 0x171 JUMPI DUP1 PUSH1 0x1F LT PUSH2 0x148 JUMPI PUSH2 0x100 DUP1 DUP4 SLOAD DIV MUL DUP4 MSTORE SWAP2 PUSH1 0x20 ADD SWAP2 PUSH2 0x171 JUMP JUMPDEST DUP3 ADD SWAP2 SWAP1 PUSH0 MSTORE PUSH1 0x20 PUSH0 KECCAK256 SWAP1 JUMPDEST DUP2 SLOAD DUP2 MSTORE SWAP1 PUSH1 0x1 ADD SWAP1 PUSH1 0x20 ADD DUP1 DUP4 GT PUSH2 0x154 JUMPI DUP3 SWAP1 SUB PUSH1 0x1F AND DUP3 ADD SWAP2 JUMPDEST POP POP POP POP POP DUP2 JUMP JUMPDEST PUSH0 DUP2 PUSH1 0x1 SWAP1 DUP2 PUSH2 0x189 SWAP2 SWAP1 PUSH2 0x80C JUMP JUMPDEST POP PUSH1 0x1 PUSH0 PUSH1 0x40 MLOAD PUSH2 0x199 SWAP1 PUSH2 0x92F JUMP JUMPDEST SWAP1 DUP2 MSTORE PUSH1 0x20 ADD PUSH1 0x40 MLOAD DUP1 SWAP2 SUB SWAP1 KECCAK256 DUP2 SWAP1 SSTORE POP PUSH1 0x5 PUSH0 PUSH1 0x40 MLOAD PUSH2 0x1BA SWAP1 PUSH2 0x98D JUMP JUMPDEST SWAP1 DUP2 MSTORE PUSH1 0x20 ADD PUSH1 0x40 MLOAD DUP1 SWAP2 SUB SWAP1 KECCAK256 DUP2 SWAP1 SSTORE POP PUSH1 0xA PUSH0 PUSH1 0x40 MLOAD PUSH2 0x1DB SWAP1 PUSH2 0x9EB JUMP JUMPDEST SWAP1 DUP2 MSTORE PUSH1 0x20 ADD PUSH1 0x40 MLOAD DUP1 SWAP2 SUB SWAP1 KECCAK256 DUP2 SWAP1 SSTORE POP PUSH1 0x32 PUSH0 PUSH1 0x40 MLOAD PUSH2 0x1FC SWAP1 PUSH2 0xA49 JUMP JUMPDEST SWAP1 DUP2 MSTORE PUSH1 0x20 ADD PUSH1 0x40 MLOAD DUP1 SWAP2 SUB SWAP1 KECCAK256 DUP2 SWAP1 SSTORE POP PUSH1 0x64 PUSH0 PUSH1 0x40 MLOAD PUSH2 0x21D SWAP1 PUSH2 0xAA7 JUMP JUMPDEST SWAP1 DUP2 MSTORE PUSH1 0x20 ADD PUSH1 0x40 MLOAD DUP1 SWAP2 SUB SWAP1 KECCAK256 DUP2 SWAP1 SSTORE POP PUSH2 0x1F4 PUSH0 PUSH1 0x40 MLOAD PUSH2 0x23F SWAP1 PUSH2 0xB05 JUMP JUMPDEST SWAP1 DUP2 MSTORE PUSH1 0x20 ADD PUSH1 0x40 MLOAD DUP1 SWAP2 SUB SWAP1 KECCAK256 DUP2 SWAP1 SSTORE POP PUSH2 0x3E8 PUSH0 PUSH1 0x40 MLOAD PUSH2 0x261 SWAP1 PUSH2 0xB63 JUMP JUMPDEST SWAP1 DUP2 MSTORE PUSH1 0x20 ADD PUSH1 0x40 MLOAD DUP1 SWAP2 SUB SWAP1 KECCAK256 DUP2 SWAP1 SSTORE POP PUSH0 PUSH0 SWAP1 POP PUSH0 PUSH0 SWAP1 POP PUSH0 DUP5 SWAP1 POP PUSH0 DUP2 MLOAD SWAP1 POP JUMPDEST PUSH0 DUP2 LT PUSH2 0x3A3 JUMPI PUSH0 PUSH1 0x1 PUSH8 0xFFFFFFFFFFFFFFFF DUP2 GT ISZERO PUSH2 0x2A8 JUMPI PUSH2 0x2A7 PUSH2 0x3F3 JUMP JUMPDEST JUMPDEST PUSH1 0x40 MLOAD SWAP1 DUP1 DUP3 MSTORE DUP1 PUSH1 0x1F ADD PUSH1 0x1F NOT AND PUSH1 0x20 ADD DUP3 ADD PUSH1 0x40 MSTORE DUP1 ISZERO PUSH2 0x2DA JUMPI DUP2 PUSH1 0x20 ADD PUSH1 0x1 DUP3 MUL DUP1 CALLDATASIZE DUP4 CALLDATACOPY DUP1 DUP3 ADD SWAP2 POP POP SWAP1 POP JUMPDEST POP SWAP1 POP DUP3 DUP3 DUP2 MLOAD DUP2 LT PUSH2 0x2F0 JUMPI PUSH2 0x2EF PUSH2 0xB77 JUMP JUMPDEST JUMPDEST PUSH1 0x20 ADD ADD MLOAD PUSH1 0xF8 SHR PUSH1 0xF8 SHL DUP2 PUSH0 DUP2 MLOAD DUP2 LT PUSH2 0x30E JUMPI PUSH2 0x30D PUSH2 0xB77 JUMP JUMPDEST JUMPDEST PUSH1 0x20 ADD ADD SWAP1 PUSH31 0xFFFFFFFFFFFFFFFFFFFFFFFFFFFFFFFFFFFFFFFFFFFFFFFFFFFFFFFFFFFFFF NOT AND SWAP1 DUP2 PUSH0 BYTE SWAP1 MSTORE8 POP PUSH0 DUP2 SWAP1 POP PUSH0 PUSH0 DUP3 PUSH1 0x40 MLOAD PUSH2 0x350 SWAP2 SWAP1 PUSH2 0xBD4 JUMP JUMPDEST SWAP1 DUP2 MSTORE PUSH1 0x20 ADD PUSH1 0x40 MLOAD DUP1 SWAP2 SUB SWAP1 KECCAK256 SLOAD SWAP1 POP DUP6 DUP2 LT PUSH2 0x37B JUMPI DUP1 DUP8 PUSH2 0x374 SWAP2 SWAP1 PUSH2 0xC17 JUMP JUMPDEST SWAP7 POP PUSH2 0x38A JUMP JUMPDEST DUP1 DUP8 PUSH2 0x387 SWAP2 SWAP1 PUSH2 0xC4A JUMP JUMPDEST SWAP7 POP JUMPDEST DUP1 SWAP6 POP POP POP POP DUP1 DUP1 PUSH2 0x39B SWAP1 PUSH2 0xC7D JUMP JUMPDEST SWAP2 POP POP PUSH2 0x285 JUMP JUMPDEST POP PUSH0 PUSH1 0x40 MLOAD PUSH2 0x3B1 SWAP1 PUSH2 0x92F JUMP JUMPDEST SWAP1 DUP2 MSTORE PUSH1 0x20 ADD PUSH1 0x40 MLOAD DUP1 SWAP2 SUB SWAP1 KECCAK256 SLOAD SWAP4 POP POP POP POP SWAP2 SWAP1 POP JUMP JUMPDEST PUSH0 PUSH1 0x40 MLOAD SWAP1 POP SWAP1 JUMP JUMPDEST PUSH0 PUSH0 REVERT JUMPDEST PUSH0 PUSH0 REVERT JUMPDEST PUSH0 PUSH0 REVERT JUMPDEST PUSH0 PUSH0 REVERT JUMPDEST PUSH0 PUSH1 0x1F NOT PUSH1 0x1F DUP4 ADD AND SWAP1 POP SWAP2 SWAP1 POP JUMP JUMPDEST PUSH32 0x4E487B7100000000000000000000000000000000000000000000000000000000 PUSH0 MSTORE PUSH1 0x41 PUSH1 0x4 MSTORE PUSH1 0x24 PUSH0 REVERT JUMPDEST PUSH2 0x429 DUP3 PUSH2 0x3E3 JUMP JUMPDEST DUP2 ADD DUP2 DUP2 LT PUSH8 0xFFFFFFFFFFFFFFFF DUP3 GT OR ISZERO PUSH2 0x448 JUMPI PUSH2 0x447 PUSH2 0x3F3 JUMP JUMPDEST JUMPDEST DUP1 PUSH1 0x40 MSTORE POP POP POP JUMP JUMPDEST PUSH0 PUSH2 0x45A PUSH2 0x3CA JUMP JUMPDEST SWAP1 POP PUSH2 0x466 DUP3 DUP3 PUSH2 0x420 JUMP JUMPDEST SWAP2 SWAP1 POP JUMP JUMPDEST PUSH0 PUSH8 0xFFFFFFFFFFFFFFFF DUP3 GT ISZERO PUSH2 0x485 JUMPI PUSH2 0x484 PUSH2 0x3F3 JUMP JUMPDEST JUMPDEST PUSH2 0x48E DUP3 PUSH2 0x3E3 JUMP JUMPDEST SWAP1 POP PUSH1 0x20 DUP2 ADD SWAP1 POP SWAP2 SWAP1 POP JUMP JUMPDEST DUP3 DUP2 DUP4 CALLDATACOPY PUSH0 DUP4 DUP4 ADD MSTORE POP POP POP JUMP JUMPDEST PUSH0 PUSH2 0x4BB PUSH2 0x4B6 DUP5 PUSH2 0x46B JUMP JUMPDEST PUSH2 0x451 JUMP JUMPDEST SWAP1 POP DUP3 DUP2 MSTORE PUSH1 0x20 DUP2 ADD DUP5 DUP5 DUP5 ADD GT ISZERO PUSH2 0x4D7 JUMPI PUSH2 0x4D6 PUSH2 0x3DF JUMP JUMPDEST JUMPDEST PUSH2 0x4E2 DUP5 DUP3 DUP6 PUSH2 0x49B JUMP JUMPDEST POP SWAP4 SWAP3 POP POP POP JUMP JUMPDEST PUSH0 DUP3 PUSH1 0x1F DUP4 ADD SLT PUSH2 0x4FE JUMPI PUSH2 0x4FD PUSH2 0x3DB JUMP JUMPDEST JUMPDEST DUP2 CALLDATALOAD PUSH2 0x50E DUP5 DUP3 PUSH1 0x20 DUP7 ADD PUSH2 0x4A9 JUMP JUMPDEST SWAP2 POP POP SWAP3 SWAP2 POP POP JUMP JUMPDEST PUSH0 PUSH1 0x20 DUP3 DUP5 SUB SLT ISZERO PUSH2 0x52C JUMPI PUSH2 0x52B PUSH2 0x3D3 JUMP JUMPDEST JUMPDEST PUSH0 DUP3 ADD CALLDATALOAD PUSH8 0xFFFFFFFFFFFFFFFF DUP2 GT ISZERO PUSH2 0x549 JUMPI PUSH2 0x548 PUSH2 0x3D7 JUMP JUMPDEST JUMPDEST PUSH2 0x555 DUP5 DUP3 DUP6 ADD PUSH2 0x4EA JUMP JUMPDEST SWAP2 POP POP SWAP3 SWAP2 POP POP JUMP JUMPDEST PUSH0 DUP2 SWAP1 POP SWAP2 SWAP1 POP JUMP JUMPDEST PUSH2 0x570 DUP2 PUSH2 0x55E JUMP JUMPDEST DUP3 MSTORE POP POP JUMP JUMPDEST PUSH0 PUSH1 0x20 DUP3 ADD SWAP1 POP PUSH2 0x589 PUSH0 DUP4 ADD DUP5 PUSH2 0x567 JUMP JUMPDEST SWAP3 SWAP2 POP POP JUMP JUMPDEST PUSH0 DUP2 MLOAD SWAP1 POP SWAP2 SWAP1 POP JUMP JUMPDEST PUSH0 DUP3 DUP3 MSTORE PUSH1 0x20 DUP3 ADD SWAP1 POP SWAP3 SWAP2 POP POP JUMP JUMPDEST DUP3 DUP2 DUP4 MCOPY PUSH0 DUP4 DUP4 ADD MSTORE POP POP POP JUMP JUMPDEST PUSH0 PUSH2 0x5C1 DUP3 PUSH2 0x58F JUMP JUMPDEST PUSH2 0x5CB DUP2 DUP6 PUSH2 0x599 JUMP JUMPDEST SWAP4 POP PUSH2 0x5DB DUP2 DUP6 PUSH1 0x20 DUP7 ADD PUSH2 0x5A9 JUMP JUMPDEST PUSH2 0x5E4 DUP2 PUSH2 0x3E3 JUMP JUMPDEST DUP5 ADD SWAP2 POP POP SWAP3 SWAP2 POP POP JUMP JUMPDEST PUSH0 PUSH1 0x20 DUP3 ADD SWAP1 POP DUP2 DUP2 SUB PUSH0 DUP4 ADD MSTORE PUSH2 0x607 DUP2 DUP5 PUSH2 0x5B7 JUMP JUMPDEST SWAP1 POP SWAP3 SWAP2 POP POP JUMP JUMPDEST PUSH32 0x4E487B7100000000000000000000000000000000000000000000000000000000 PUSH0 MSTORE PUSH1 0x22 PUSH1 0x4 MSTORE PUSH1 0x24 PUSH0 REVERT JUMPDEST PUSH0 PUSH1 0x2 DUP3 DIV SWAP1 POP PUSH1 0x1 DUP3 AND DUP1 PUSH2 0x653 JUMPI PUSH1 0x7F DUP3 AND SWAP2 POP JUMPDEST PUSH1 0x20 DUP3 LT DUP2 SUB PUSH2 0x666 JUMPI PUSH2 0x665 PUSH2 0x60F JUMP JUMPDEST JUMPDEST POP SWAP2 SWAP1 POP JUMP JUMPDEST PUSH0 DUP2 SWAP1 POP DUP2 PUSH0 MSTORE PUSH1 0x20 PUSH0 KECCAK256 SWAP1 POP SWAP2 SWAP1 POP JUMP JUMPDEST PUSH0 PUSH1 0x20 PUSH1 0x1F DUP4 ADD DIV SWAP1 POP SWAP2 SWAP1 POP JUMP JUMPDEST PUSH0 DUP3 DUP3 SHL SWAP1 POP SWAP3 SWAP2 POP POP JUMP JUMPDEST PUSH0 PUSH1 0x8 DUP4 MUL PUSH2 0x6C8 PUSH32 0xFFFFFFFFFFFFFFFFFFFFFFFFFFFFFFFFFFFFFFFFFFFFFFFFFFFFFFFFFFFFFFFF DUP3 PUSH2 0x68D JUMP JUMPDEST PUSH2 0x6D2 DUP7 DUP4 PUSH2 0x68D JUMP JUMPDEST SWAP6 POP DUP1 NOT DUP5 AND SWAP4 POP DUP1 DUP7 AND DUP5 OR SWAP3 POP POP POP SWAP4 SWAP3 POP POP POP JUMP JUMPDEST PUSH0 DUP2 SWAP1 POP SWAP2 SWAP1 POP JUMP JUMPDEST PUSH0 PUSH2 0x70D PUSH2 0x708 PUSH2 0x703 DUP5 PUSH2 0x55E JUMP JUMPDEST PUSH2 0x6EA JUMP JUMPDEST PUSH2 0x55E JUMP JUMPDEST SWAP1 POP SWAP2 SWAP1 POP JUMP JUMPDEST PUSH0 DUP2 SWAP1 POP SWAP2 SWAP1 POP JUMP JUMPDEST PUSH2 0x726 DUP4 PUSH2 0x6F3 JUMP JUMPDEST PUSH2 0x73A PUSH2 0x732 DUP3 PUSH2 0x714 JUMP JUMPDEST DUP5 DUP5 SLOAD PUSH2 0x699 JUMP JUMPDEST DUP3 SSTORE POP POP POP POP JUMP JUMPDEST PUSH0 PUSH0 SWAP1 POP SWAP1 JUMP JUMPDEST PUSH2 0x751 PUSH2 0x742 JUMP JUMPDEST PUSH2 0x75C DUP2 DUP5 DUP5 PUSH2 0x71D JUMP JUMPDEST POP POP POP JUMP JUMPDEST JUMPDEST DUP2 DUP2 LT ISZERO PUSH2 0x77F JUMPI PUSH2 0x774 PUSH0 DUP3 PUSH2 0x749 JUMP JUMPDEST PUSH1 0x1 DUP2 ADD SWAP1 POP PUSH2 0x762 JUMP JUMPDEST POP POP JUMP JUMPDEST PUSH1 0x1F DUP3 GT ISZERO PUSH2 0x7C4 JUMPI PUSH2 0x795 DUP2 PUSH2 0x66C JUMP JUMPDEST PUSH2 0x79E DUP5 PUSH2 0x67E JUMP JUMPDEST DUP2 ADD PUSH1 0x20 DUP6 LT ISZERO PUSH2 0x7AD JUMPI DUP2 SWAP1 POP JUMPDEST PUSH2 0x7C1 PUSH2 0x7B9 DUP6 PUSH2 0x67E JUMP JUMPDEST DUP4 ADD DUP3 PUSH2 0x761 JUMP JUMPDEST POP POP JUMPDEST POP POP POP JUMP JUMPDEST PUSH0 DUP3 DUP3 SHR SWAP1 POP SWAP3 SWAP2 POP POP JUMP JUMPDEST PUSH0 PUSH2 0x7E4 PUSH0 NOT DUP5 PUSH1 0x8 MUL PUSH2 0x7C9 JUMP JUMPDEST NOT DUP1 DUP4 AND SWAP2 POP POP SWAP3 SWAP2 POP POP JUMP JUMPDEST PUSH0 PUSH2 0x7FC DUP4 DUP4 PUSH2 0x7D5 JUMP JUMPDEST SWAP2 POP DUP3 PUSH1 0x2 MUL DUP3 OR SWAP1 POP SWAP3 SWAP2 POP POP JUMP JUMPDEST PUSH2 0x815 DUP3 PUSH2 0x58F JUMP JUMPDEST PUSH8 0xFFFFFFFFFFFFFFFF DUP2 GT ISZERO PUSH2 0x82E JUMPI PUSH2 0x82D PUSH2 0x3F3 JUMP JUMPDEST JUMPDEST PUSH2 0x838 DUP3 SLOAD PUSH2 0x63C JUMP JUMPDEST PUSH2 0x843 DUP3 DUP3 DUP6 PUSH2 0x783 JUMP JUMPDEST PUSH0 PUSH1 0x20 SWAP1 POP PUSH1 0x1F DUP4 GT PUSH1 0x1 DUP2 EQ PUSH2 0x874 JUMPI PUSH0 DUP5 ISZERO PUSH2 0x862 JUMPI DUP3 DUP8 ADD MLOAD SWAP1 POP JUMPDEST PUSH2 0x86C DUP6 DUP3 PUSH2 0x7F1 JUMP JUMPDEST DUP7 SSTORE POP PUSH2 0x8D3 JUMP JUMPDEST PUSH1 0x1F NOT DUP5 AND PUSH2 0x882 DUP7 PUSH2 0x66C JUMP JUMPDEST PUSH0 JUMPDEST DUP3 DUP2 LT ISZERO PUSH2 0x8A9 JUMPI DUP5 DUP10 ADD MLOAD DUP3 SSTORE PUSH1 0x1 DUP3 ADD SWAP2 POP PUSH1 0x20 DUP6 ADD SWAP5 POP PUSH1 0x20 DUP2 ADD SWAP1 POP PUSH2 0x884 JUMP JUMPDEST DUP7 DUP4 LT ISZERO PUSH2 0x8C6 JUMPI DUP5 DUP10 ADD MLOAD PUSH2 0x8C2 PUSH1 0x1F DUP10 AND DUP3 PUSH2 0x7D5 JUMP JUMPDEST DUP4 SSTORE POP JUMPDEST PUSH1 0x1 PUSH1 0x2 DUP9 MUL ADD DUP9 SSTORE POP POP POP JUMPDEST POP POP POP POP POP POP JUMP JUMPDEST PUSH0 DUP2 SWAP1 POP SWAP3 SWAP2 POP POP JUMP JUMPDEST PUSH32 0x4900000000000000000000000000000000000000000000000000000000000000 PUSH0 DUP3 ADD MSTORE POP JUMP JUMPDEST PUSH0 PUSH2 0x919 PUSH1 0x1 DUP4 PUSH2 0x8DB JUMP JUMPDEST SWAP2 POP PUSH2 0x924 DUP3 PUSH2 0x8E5 JUMP JUMPDEST PUSH1 0x1 DUP3 ADD SWAP1 POP SWAP2 SWAP1 POP JUMP JUMPDEST PUSH0 PUSH2 0x939 DUP3 PUSH2 0x90D JUMP JUMPDEST SWAP2 POP DUP2 SWAP1 POP SWAP2 SWAP1 POP JUMP JUMPDEST PUSH32 0x5600000000000000000000000000000000000000000000000000000000000000 PUSH0 DUP3 ADD MSTORE POP JUMP JUMPDEST PUSH0 PUSH2 0x977 PUSH1 0x1 DUP4 PUSH2 0x8DB JUMP JUMPDEST SWAP2 POP PUSH2 0x982 DUP3 PUSH2 0x943 JUMP JUMPDEST PUSH1 0x1 DUP3 ADD SWAP1 POP SWAP2 SWAP1 POP JUMP JUMPDEST PUSH0 PUSH2 0x997 DUP3 PUSH2 0x96B JUMP JUMPDEST SWAP2 POP DUP2 SWAP1 POP SWAP2 SWAP1 POP JUMP JUMPDEST PUSH32 0x5800000000000000000000000000000000000000000000000000000000000000 PUSH0 DUP3 ADD MSTORE POP JUMP JUMPDEST PUSH0 PUSH2 0x9D5 PUSH1 0x1 DUP4 PUSH2 0x8DB JUMP JUMPDEST SWAP2 POP PUSH2 0x9E0 DUP3 PUSH2 0x9A1 JUMP JUMPDEST PUSH1 0x1 DUP3 ADD SWAP1 POP SWAP2 SWAP1 POP JUMP JUMPDEST PUSH0 PUSH2 0x9F5 DUP3 PUSH2 0x9C9 JUMP JUMPDEST SWAP2 POP DUP2 SWAP1 POP SWAP2 SWAP1 POP JUMP JUMPDEST PUSH32 0x4C00000000000000000000000000000000000000000000000000000000000000 PUSH0 DUP3 ADD MSTORE POP JUMP JUMPDEST PUSH0 PUSH2 0xA33 PUSH1 0x1 DUP4 PUSH2 0x8DB JUMP JUMPDEST SWAP2 POP PUSH2 0xA3E DUP3 PUSH2 0x9FF JUMP JUMPDEST PUSH1 0x1 DUP3 ADD SWAP1 POP SWAP2 SWAP1 POP JUMP JUMPDEST PUSH0 PUSH2 0xA53 DUP3 PUSH2 0xA27 JUMP JUMPDEST SWAP2 POP DUP2 SWAP1 POP SWAP2 SWAP1 POP JUMP JUMPDEST PUSH32 0x4300000000000000000000000000000000000000000000000000000000000000 PUSH0 DUP3 ADD MSTORE POP JUMP JUMPDEST PUSH0 PUSH2 0xA91 PUSH1 0x1 DUP4 PUSH2 0x8DB JUMP JUMPDEST SWAP2 POP PUSH2 0xA9C DUP3 PUSH2 0xA5D JUMP JUMPDEST PUSH1 0x1 DUP3 ADD SWAP1 POP SWAP2 SWAP1 POP JUMP JUMPDEST PUSH0 PUSH2 0xAB1 DUP3 PUSH2 0xA85 JUMP JUMPDEST SWAP2 POP DUP2 SWAP1 POP SWAP2 SWAP1 POP JUMP JUMPDEST PUSH32 0x4400000000000000000000000000000000000000000000000000000000000000 PUSH0 DUP3 ADD MSTORE POP JUMP JUMPDEST PUSH0 PUSH2 0xAEF PUSH1 0x1 DUP4 PUSH2 0x8DB JUMP JUMPDEST SWAP2 POP PUSH2 0xAFA DUP3 PUSH2 0xABB JUMP JUMPDEST PUSH1 0x1 DUP3 ADD SWAP1 POP SWAP2 SWAP1 POP JUMP JUMPDEST PUSH0 PUSH2 0xB0F DUP3 PUSH2 0xAE3 JUMP JUMPDEST SWAP2 POP DUP2 SWAP1 POP SWAP2 SWAP1 POP JUMP JUMPDEST PUSH32 0x4D00000000000000000000000000000000000000000000000000000000000000 PUSH0 DUP3 ADD MSTORE POP JUMP JUMPDEST PUSH0 PUSH2 0xB4D PUSH1 0x1 DUP4 PUSH2 0x8DB JUMP JUMPDEST SWAP2 POP PUSH2 0xB58 DUP3 PUSH2 0xB19 JUMP JUMPDEST PUSH1 0x1 DUP3 ADD SWAP1 POP SWAP2 SWAP1 POP JUMP JUMPDEST PUSH0 PUSH2 0xB6D DUP3 PUSH2 0xB41 JUMP JUMPDEST SWAP2 POP DUP2 SWAP1 POP SWAP2 SWAP1 POP JUMP JUMPDEST PUSH32 0x4E487B7100000000000000000000000000000000000000000000000000000000 PUSH0 MSTORE PUSH1 0x32 PUSH1 0x4 MSTORE PUSH1 0x24 PUSH0 REVERT JUMPDEST PUSH0 PUSH2 0xBAE DUP3 PUSH2 0x58F JUMP JUMPDEST PUSH2 0xBB8 DUP2 DUP6 PUSH2 0x8DB JUMP JUMPDEST SWAP4 POP PUSH2 0xBC8 DUP2 DUP6 PUSH1 0x20 DUP7 ADD PUSH2 0x5A9 JUMP JUMPDEST DUP1 DUP5 ADD SWAP2 POP POP SWAP3 SWAP2 POP POP JUMP JUMPDEST PUSH0 PUSH2 0xBDF DUP3 DUP5 PUSH2 0xBA4 JUMP JUMPDEST SWAP2 POP DUP2 SWAP1 POP SWAP3 SWAP2 POP POP JUMP JUMPDEST PUSH32 0x4E487B7100000000000000000000000000000000000000000000000000000000 PUSH0 MSTORE PUSH1 0x11 PUSH1 0x4 MSTORE PUSH1 0x24 PUSH0 REVERT JUMPDEST PUSH0 PUSH2 0xC21 DUP3 PUSH2 0x55E JUMP JUMPDEST SWAP2 POP PUSH2 0xC2C DUP4 PUSH2 0x55E JUMP JUMPDEST SWAP3 POP DUP3 DUP3 ADD SWAP1 POP DUP1 DUP3 GT ISZERO PUSH2 0xC44 JUMPI PUSH2 0xC43 PUSH2 0xBEA JUMP JUMPDEST JUMPDEST SWAP3 SWAP2 POP POP JUMP JUMPDEST PUSH0 PUSH2 0xC54 DUP3 PUSH2 0x55E JUMP JUMPDEST SWAP2 POP PUSH2 0xC5F DUP4 PUSH2 0x55E JUMP JUMPDEST SWAP3 POP DUP3 DUP3 SUB SWAP1 POP DUP2 DUP2 GT ISZERO PUSH2 0xC77 JUMPI PUSH2 0xC76 PUSH2 0xBEA JUMP JUMPDEST JUMPDEST SWAP3 SWAP2 POP POP JUMP JUMPDEST PUSH0 PUSH2 0xC87 DUP3 PUSH2 0x55E JUMP JUMPDEST SWAP2 POP PUSH0 DUP3 SUB PUSH2 0xC99 JUMPI PUSH2 0xC98 PUSH2 0xBEA JUMP JUMPDEST JUMPDEST PUSH1 0x1 DUP3 SUB SWAP1 POP SWAP2 SWAP1 POP JUMP INVALID LOG2 PUSH5 0x6970667358 0x22 SLT KECCAK256 DUP8 0xDA 0xA8 0xE2 0x2A EXTCODEHASH 0xAC 0xAE 0xC7 0x4F 0xE8 0x4C DUP16 BLOBHASH 0x26 RETF 0x24 CALLF 0x50C5 LOG4 DUP2 0xC3 NOT 0xBB BLOBBASEFEE LOG1 DUP11 RETURN SWAP2 0xD5 LOG0 PUSH5 0x736F6C6343 STOP ADDMOD 0x1E STOP CALLER "
				},
				"gasEstimates": {
					"creation": {
						"codeDepositCost": "658000",
						"executionCost": "687",
						"totalCost": "658687"
					},
					"external": {
						"roman1()": "infinite",
						"romanData(string)": "infinite",
						"romanToInt(string)": "infinite"
					}
				},
				"methodIdentifiers": {
					"roman1()": "a6c41eb0",
					"romanData(string)": "424e7038",
					"romanToInt(string)": "cb159dfe"
				}
			},
			"storageLayout": {
				"storage": [
					{
						"astId": 5,
						"contract": "task/task01/RomanToInt.sol:RomanToInt",
						"label": "romanData",
						"offset": 0,
						"slot": "0",
						"type": "t_mapping(t_string_memory_ptr,t_uint256)"
					},
					{
						"astId": 7,
						"contract": "task/task01/RomanToInt.sol:RomanToInt",
						"label": "roman1",
						"offset": 0,
						"slot": "1",
						"type": "t_string_storage"
					}
				],
				"types": {
					"t_mapping(t_string_memory_ptr,t_uint256)": {
						"encoding": "mapping",
						"key": "t_string_memory_ptr",
						"label": "mapping(string => uint256)",
						"numberOfBytes": "32",
						"value": "t_uint256"
					},
					"t_string_memory_ptr": {
						"encoding": "bytes",
						"label": "string",
						"numberOfBytes": "32"
					},
					"t_string_storage": {
						"encoding": "bytes",
						"label": "string",
						"numberOfBytes": "32"
					},
					"t_uint256": {
						"encoding": "inplace",
						"label": "uint256",
						"numberOfBytes": "32"
					}
				}
			},
			"userdoc": {
				"kind": "user",
				"methods": {},
				"version": 1
			}
		}
	}
}