{
	"data": {
		"bytecode": {
			"linkReferences": {},
			"object": "6080604052348015600e575f5ffd5b50610f2b8061001c5f395ff3fe608060405234801561000f575f5ffd5b5060043610610091575f3560e01c80638428cf83116100645780638428cf8314610145578063a7e94b6614610175578063a9059cbb146101a6578063b2b34f77146101d6578063f435898b1461020857610091565b8063034899bc14610095578063447a06f5146100b357806347da7f8e146100e457806368bc2ad114610115575b5f5ffd5b61009d610226565b6040516100aa9190610560565b60405180910390f35b6100cd60048036038101906100c891906106c6565b610250565b6040516100db929190610785565b60405180910390f35b6100fe60048036038101906100f9919061087b565b610270565b60405161010c929190610927565b60405180910390f35b61012f600480360381019061012a919061095c565b6102c2565b60405161013c9190610560565b60405180910390f35b61015f600480360381019061015a9190610a0c565b6102d2565b60405161016c9190610aaf565b60405180910390f35b61018f600480360381019061018a9190610ac8565b610329565b60405161019d929190610b18565b60405180910390f35b6101c060048036038101906101bb9190610b69565b61035b565b6040516101cd9190610ba7565b60405180910390f35b6101f060048036038101906101eb919061095c565b6103a9565b6040516101ff93929190610bd6565b60405180910390f35b61021061047a565b60405161021d9190610ba7565b60405180910390f35b5f5f357fffffffff0000000000000000000000000000000000000000000000000000000016905090565b60605f828060200190518101906102679190610c8d565b91509150915091565b6060808383604051602001610286929190610785565b60405160208183030381529060405284846040516020016102a8929190610d41565b604051602081830303815290604052915091509250929050565b5f81805190602001209050919050565b5f6001858585856040515f81526020016040526040516102f59493929190610d77565b6020604051602081039080840390855afa158015610315573d5f5f3e3d5ffd5b505050602060405103519050949350505050565b5f5f828061033a57610339610dba565b5b848608838061034c5761034b610dba565b5b85870991509150935093915050565b60605f368080601f0160208091040260200160405190810160405280939291908181526020018383808284375f81840152601f19601f82011690508083019250505050505050905092915050565b5f5f5f5f846040516020016103be9190610de7565b604051602081830303815290604052905080805190602001206002826040516103e79190610e37565b602060405180830381855afa158015610402573d5f5f3e3d5ffd5b5050506040513d601f19601f820116820180604052508101906104259190610e61565b6003836040516104359190610e37565b602060405180830381855afa158015610450573d5f5f3e3d5ffd5b5050506040515160601b806bffffffffffffffffffffffff19169050935093509350509193909250565b6060735b38da6a701c568545dcfcb03fcb875f56beddc460646040516024016104a4929190610ece565b6040516020818303038152906040527fa9059cbb000000000000000000000000000000000000000000000000000000007bffffffffffffffffffffffffffffffffffffffffffffffffffffffff19166020820180517bffffffffffffffffffffffffffffffffffffffffffffffffffffffff8381831617835250505050905090565b5f7fffffffff0000000000000000000000000000000000000000000000000000000082169050919050565b61055a81610526565b82525050565b5f6020820190506105735f830184610551565b92915050565b5f604051905090565b5f5ffd5b5f5ffd5b5f5ffd5b5f5ffd5b5f601f19601f8301169050919050565b7f4e487b71000000000000000000000000000000000000000000000000000000005f52604160045260245ffd5b6105d882610592565b810181811067ffffffffffffffff821117156105f7576105f66105a2565b5b80604052505050565b5f610609610579565b905061061582826105cf565b919050565b5f67ffffffffffffffff821115610634576106336105a2565b5b61063d82610592565b9050602081019050919050565b828183375f83830152505050565b5f61066a6106658461061a565b610600565b9050828152602081018484840111156106865761068561058e565b5b61069184828561064a565b509392505050565b5f82601f8301126106ad576106ac61058a565b5b81356106bd848260208601610658565b91505092915050565b5f602082840312156106db576106da610582565b5b5f82013567ffffffffffffffff8111156106f8576106f7610586565b5b61070484828501610699565b91505092915050565b5f81519050919050565b5f82825260208201905092915050565b8281835e5f83830152505050565b5f61073f8261070d565b6107498185610717565b9350610759818560208601610727565b61076281610592565b840191505092915050565b5f819050919050565b61077f8161076d565b82525050565b5f6040820190508181035f83015261079d8185610735565b90506107ac6020830184610776565b9392505050565b5f67ffffffffffffffff8211156107cd576107cc6105a2565b5b6107d682610592565b9050602081019050919050565b5f6107f56107f0846107b3565b610600565b9050828152602081018484840111156108115761081061058e565b5b61081c84828561064a565b509392505050565b5f82601f8301126108385761083761058a565b5b81356108488482602086016107e3565b91505092915050565b61085a8161076d565b8114610864575f5ffd5b50565b5f8135905061087581610851565b92915050565b5f5f6040838503121561089157610890610582565b5b5f83013567ffffffffffffffff8111156108ae576108ad610586565b5b6108ba85828601610824565b92505060206108cb85828601610867565b9150509250929050565b5f81519050919050565b5f82825260208201905092915050565b5f6108f9826108d5565b61090381856108df565b9350610913818560208601610727565b61091c81610592565b840191505092915050565b5f6040820190508181035f83015261093f81856108ef565b9050818103602083015261095381846108ef565b90509392505050565b5f6020828403121561097157610970610582565b5b5f82013567ffffffffffffffff81111561098e5761098d610586565b5b61099a84828501610824565b91505092915050565b5f819050919050565b6109b5816109a3565b81146109bf575f5ffd5b50565b5f813590506109d0816109ac565b92915050565b5f60ff82169050919050565b6109eb816109d6565b81146109f5575f5ffd5b50565b5f81359050610a06816109e2565b92915050565b5f5f5f5f60808587031215610a2457610a23610582565b5b5f610a31878288016109c2565b9450506020610a42878288016109f8565b9350506040610a53878288016109c2565b9250506060610a64878288016109c2565b91505092959194509250565b5f73ffffffffffffffffffffffffffffffffffffffff82169050919050565b5f610a9982610a70565b9050919050565b610aa981610a8f565b82525050565b5f602082019050610ac25f830184610aa0565b92915050565b5f5f5f60608486031215610adf57610ade610582565b5b5f610aec86828701610867565b9350506020610afd86828701610867565b9250506040610b0e86828701610867565b9150509250925092565b5f604082019050610b2b5f830185610776565b610b386020830184610776565b9392505050565b610b4881610a8f565b8114610b52575f5ffd5b50565b5f81359050610b6381610b3f565b92915050565b5f5f60408385031215610b7f57610b7e610582565b5b5f610b8c85828601610b55565b9250506020610b9d85828601610867565b9150509250929050565b5f6020820190508181035f830152610bbf81846108ef565b905092915050565b610bd0816109a3565b82525050565b5f606082019050610be95f830186610bc7565b610bf66020830185610bc7565b610c036040830184610bc7565b949350505050565b5f610c1d610c18846107b3565b610600565b905082815260208101848484011115610c3957610c3861058e565b5b610c44848285610727565b509392505050565b5f82601f830112610c6057610c5f61058a565b5b8151610c70848260208601610c0b565b91505092915050565b5f81519050610c8781610851565b92915050565b5f5f60408385031215610ca357610ca2610582565b5b5f83015167ffffffffffffffff811115610cc057610cbf610586565b5b610ccc85828601610c4c565b9250506020610cdd85828601610c79565b9150509250929050565b5f81905092915050565b5f610cfb8261070d565b610d058185610ce7565b9350610d15818560208601610727565b80840191505092915050565b5f819050919050565b610d3b610d368261076d565b610d21565b82525050565b5f610d4c8285610cf1565b9150610d588284610d2a565b6020820191508190509392505050565b610d71816109d6565b82525050565b5f608082019050610d8a5f830187610bc7565b610d976020830186610d68565b610da46040830185610bc7565b610db16060830184610bc7565b95945050505050565b7f4e487b71000000000000000000000000000000000000000000000000000000005f52601260045260245ffd5b5f610df28284610cf1565b915081905092915050565b5f81905092915050565b5f610e11826108d5565b610e1b8185610dfd565b9350610e2b818560208601610727565b80840191505092915050565b5f610e428284610e07565b915081905092915050565b5f81519050610e5b816109ac565b92915050565b5f60208284031215610e7657610e75610582565b5b5f610e8384828501610e4d565b91505092915050565b5f819050919050565b5f819050919050565b5f610eb8610eb3610eae84610e8c565b610e95565b6109d6565b9050919050565b610ec881610e9e565b82525050565b5f604082019050610ee15f830185610aa0565b610eee6020830184610ebf565b939250505056fea2646970667358221220a6cc776f5bf5956a0bdb018735037046148ef4eda99bc66da81f8e718133629964736f6c634300081e0033",
			"opcodes": "PUSH1 0x80 PUSH1 0x40 MSTORE CALLVALUE DUP1 ISZERO PUSH1 0xE JUMPI PUSH0 PUSH0 REVERT JUMPDEST POP PUSH2 0xF2B DUP1 PUSH2 0x1C PUSH0 CODECOPY PUSH0 RETURN INVALID PUSH1 0x80 PUSH1 0x40 MSTORE CALLVALUE DUP1 ISZERO PUSH2 0xF JUMPI PUSH0 PUSH0 REVERT JUMPDEST POP PUSH1 0x4 CALLDATASIZE LT PUSH2 0x91 JUMPI PUSH0 CALLDATALOAD PUSH1 0xE0 SHR DUP1 PUSH4 0x8428CF83 GT PUSH2 0x64 JUMPI DUP1 PUSH4 0x8428CF83 EQ PUSH2 0x145 JUMPI DUP1 PUSH4 0xA7E94B66 EQ PUSH2 0x175 JUMPI DUP1 PUSH4 0xA9059CBB EQ PUSH2 0x1A6 JUMPI DUP1 PUSH4 0xB2B34F77 EQ PUSH2 0x1D6 JUMPI DUP1 PUSH4 0xF435898B EQ PUSH2 0x208 JUMPI PUSH2 0x91 JUMP JUMPDEST DUP1 PUSH4 0x34899BC EQ PUSH2 0x95 JUMPI DUP1 PUSH4 0x447A06F5 EQ PUSH2 0xB3 JUMPI DUP1 PUSH4 0x47DA7F8E EQ PUSH2 0xE4 JUMPI DUP1 PUSH4 0x68BC2AD1 EQ PUSH2 0x115 JUMPI JUMPDEST PUSH0 PUSH0 REVERT JUMPDEST PUSH2 0x9D PUSH2 0x226 JUMP JUMPDEST PUSH1 0x40 MLOAD PUSH2 0xAA SWAP2 SWAP1 PUSH2 0x560 JUMP JUMPDEST PUSH1 0x40 MLOAD DUP1 SWAP2 SUB SWAP1 RETURN JUMPDEST PUSH2 0xCD PUSH1 0x4 DUP1 CALLDATASIZE SUB DUP2 ADD SWAP1 PUSH2 0xC8 SWAP2 SWAP1 PUSH2 0x6C6 JUMP JUMPDEST PUSH2 0x250 JUMP JUMPDEST PUSH1 0x40 MLOAD PUSH2 0xDB SWAP3 SWAP2 SWAP1 PUSH2 0x785 JUMP JUMPDEST PUSH1 0x40 MLOAD DUP1 SWAP2 SUB SWAP1 RETURN JUMPDEST PUSH2 0xFE PUSH1 0x4 DUP1 CALLDATASIZE SUB DUP2 ADD SWAP1 PUSH2 0xF9 SWAP2 SWAP1 PUSH2 0x87B JUMP JUMPDEST PUSH2 0x270 JUMP JUMPDEST PUSH1 0x40 MLOAD PUSH2 0x10C SWAP3 SWAP2 SWAP1 PUSH2 0x927 JUMP JUMPDEST PUSH1 0x40 MLOAD DUP1 SWAP2 SUB SWAP1 RETURN JUMPDEST PUSH2 0x12F PUSH1 0x4 DUP1 CALLDATASIZE SUB DUP2 ADD SWAP1 PUSH2 0x12A SWAP2 SWAP1 PUSH2 0x95C JUMP JUMPDEST PUSH2 0x2C2 JUMP JUMPDEST PUSH1 0x40 MLOAD PUSH2 0x13C SWAP2 SWAP1 PUSH2 0x560 JUMP JUMPDEST PUSH1 0x40 MLOAD DUP1 SWAP2 SUB SWAP1 RETURN JUMPDEST PUSH2 0x15F PUSH1 0x4 DUP1 CALLDATASIZE SUB DUP2 ADD SWAP1 PUSH2 0x15A SWAP2 SWAP1 PUSH2 0xA0C JUMP JUMPDEST PUSH2 0x2D2 JUMP JUMPDEST PUSH1 0x40 MLOAD PUSH2 0x16C SWAP2 SWAP1 PUSH2 0xAAF JUMP JUMPDEST PUSH1 0x40 MLOAD DUP1 SWAP2 SUB SWAP1 RETURN JUMPDEST PUSH2 0x18F PUSH1 0x4 DUP1 CALLDATASIZE SUB DUP2 ADD SWAP1 PUSH2 0x18A SWAP2 SWAP1 PUSH2 0xAC8 JUMP JUMPDEST PUSH2 0x329 JUMP JUMPDEST PUSH1 0x40 MLOAD PUSH2 0x19D SWAP3 SWAP2 SWAP1 PUSH2 0xB18 JUMP JUMPDEST PUSH1 0x40 MLOAD DUP1 SWAP2 SUB SWAP1 RETURN JUMPDEST PUSH2 0x1C0 PUSH1 0x4 DUP1 CALLDATASIZE SUB DUP2 ADD SWAP1 PUSH2 0x1BB SWAP2 SWAP1 PUSH2 0xB69 JUMP JUMPDEST PUSH2 0x35B JUMP JUMPDEST PUSH1 0x40 MLOAD PUSH2 0x1CD SWAP2 SWAP1 PUSH2 0xBA7 JUMP JUMPDEST PUSH1 0x40 MLOAD DUP1 SWAP2 SUB SWAP1 RETURN JUMPDEST PUSH2 0x1F0 PUSH1 0x4 DUP1 CALLDATASIZE SUB DUP2 ADD SWAP1 PUSH2 0x1EB SWAP2 SWAP1 PUSH2 0x95C JUMP JUMPDEST PUSH2 0x3A9 JUMP JUMPDEST PUSH1 0x40 MLOAD PUSH2 0x1FF SWAP4 SWAP3 SWAP2 SWAP1 PUSH2 0xBD6 JUMP JUMPDEST PUSH1 0x40 MLOAD DUP1 SWAP2 SUB SWAP1 RETURN JUMPDEST PUSH2 0x210 PUSH2 0x47A JUMP JUMPDEST PUSH1 0x40 MLOAD PUSH2 0x21D SWAP2 SWAP1 PUSH2 0xBA7 JUMP JUMPDEST PUSH1 0x40 MLOAD DUP1 SWAP2 SUB SWAP1 RETURN JUMPDEST PUSH0 PUSH0 CALLDATALOAD PUSH32 0xFFFFFFFF00000000000000000000000000000000000000000000000000000000 AND SWAP1 POP SWAP1 JUMP JUMPDEST PUSH1 0x60 PUSH0 DUP3 DUP1 PUSH1 0x20 ADD SWAP1 MLOAD DUP2 ADD SWAP1 PUSH2 0x267 SWAP2 SWAP1 PUSH2 0xC8D JUMP JUMPDEST SWAP2 POP SWAP2 POP SWAP2 POP SWAP2 JUMP JUMPDEST PUSH1 0x60 DUP1 DUP4 DUP4 PUSH1 0x40 MLOAD PUSH1 0x20 ADD PUSH2 0x286 SWAP3 SWAP2 SWAP1 PUSH2 0x785 JUMP JUMPDEST PUSH1 0x40 MLOAD PUSH1 0x20 DUP2 DUP4 SUB SUB DUP2 MSTORE SWAP1 PUSH1 0x40 MSTORE DUP5 DUP5 PUSH1 0x40 MLOAD PUSH1 0x20 ADD PUSH2 0x2A8 SWAP3 SWAP2 SWAP1 PUSH2 0xD41 JUMP JUMPDEST PUSH1 0x40 MLOAD PUSH1 0x20 DUP2 DUP4 SUB SUB DUP2 MSTORE SWAP1 PUSH1 0x40 MSTORE SWAP2 POP SWAP2 POP SWAP3 POP SWAP3 SWAP1 POP JUMP JUMPDEST PUSH0 DUP2 DUP1 MLOAD SWAP1 PUSH1 0x20 ADD KECCAK256 SWAP1 POP SWAP2 SWAP1 POP JUMP JUMPDEST PUSH0 PUSH1 0x1 DUP6 DUP6 DUP6 DUP6 PUSH1 0x40 MLOAD PUSH0 DUP2 MSTORE PUSH1 0x20 ADD PUSH1 0x40 MSTORE PUSH1 0x40 MLOAD PUSH2 0x2F5 SWAP5 SWAP4 SWAP3 SWAP2 SWAP1 PUSH2 0xD77 JUMP JUMPDEST PUSH1 0x20 PUSH1 0x40 MLOAD PUSH1 0x20 DUP2 SUB SWAP1 DUP1 DUP5 SUB SWAP1 DUP6 GAS STATICCALL ISZERO DUP1 ISZERO PUSH2 0x315 JUMPI RETURNDATASIZE PUSH0 PUSH0 RETURNDATACOPY RETURNDATASIZE PUSH0 REVERT JUMPDEST POP POP POP PUSH1 0x20 PUSH1 0x40 MLOAD SUB MLOAD SWAP1 POP SWAP5 SWAP4 POP POP POP POP JUMP JUMPDEST PUSH0 PUSH0 DUP3 DUP1 PUSH2 0x33A JUMPI PUSH2 0x339 PUSH2 0xDBA JUMP JUMPDEST JUMPDEST DUP5 DUP7 ADDMOD DUP4 DUP1 PUSH2 0x34C JUMPI PUSH2 0x34B PUSH2 0xDBA JUMP JUMPDEST JUMPDEST DUP6 DUP8 MULMOD SWAP2 POP SWAP2 POP SWAP4 POP SWAP4 SWAP2 POP POP JUMP JUMPDEST PUSH1 0x60 PUSH0 CALLDATASIZE DUP1 DUP1 PUSH1 0x1F ADD PUSH1 0x20 DUP1 SWAP2 DIV MUL PUSH1 0x20 ADD PUSH1 0x40 MLOAD SWAP1 DUP2 ADD PUSH1 0x40 MSTORE DUP1 SWAP4 SWAP3 SWAP2 SWAP1 DUP2 DUP2 MSTORE PUSH1 0x20 ADD DUP4 DUP4 DUP1 DUP3 DUP5 CALLDATACOPY PUSH0 DUP2 DUP5 ADD MSTORE PUSH1 0x1F NOT PUSH1 0x1F DUP3 ADD AND SWAP1 POP DUP1 DUP4 ADD SWAP3 POP POP POP POP POP POP POP SWAP1 POP SWAP3 SWAP2 POP POP JUMP JUMPDEST PUSH0 PUSH0 PUSH0 PUSH0 DUP5 PUSH1 0x40 MLOAD PUSH1 0x20 ADD PUSH2 0x3BE SWAP2 SWAP1 PUSH2 0xDE7 JUMP JUMPDEST PUSH1 0x40 MLOAD PUSH1 0x20 DUP2 DUP4 SUB SUB DUP2 MSTORE SWAP1 PUSH1 0x40 MSTORE SWAP1 POP DUP1 DUP1 MLOAD SWAP1 PUSH1 0x20 ADD KECCAK256 PUSH1 0x2 DUP3 PUSH1 0x40 MLOAD PUSH2 0x3E7 SWAP2 SWAP1 PUSH2 0xE37 JUMP JUMPDEST PUSH1 0x20 PUSH1 0x40 MLOAD DUP1 DUP4 SUB DUP2 DUP6 GAS STATICCALL ISZERO DUP1 ISZERO PUSH2 0x402 JUMPI RETURNDATASIZE PUSH0 PUSH0 RETURNDATACOPY RETURNDATASIZE PUSH0 REVERT JUMPDEST POP POP POP PUSH1 0x40 MLOAD RETURNDATASIZE PUSH1 0x1F NOT PUSH1 0x1F DUP3 ADD AND DUP3 ADD DUP1 PUSH1 0x40 MSTORE POP DUP2 ADD SWAP1 PUSH2 0x425 SWAP2 SWAP1 PUSH2 0xE61 JUMP JUMPDEST PUSH1 0x3 DUP4 PUSH1 0x40 MLOAD PUSH2 0x435 SWAP2 SWAP1 PUSH2 0xE37 JUMP JUMPDEST PUSH1 0x20 PUSH1 0x40 MLOAD DUP1 DUP4 SUB DUP2 DUP6 GAS STATICCALL ISZERO DUP1 ISZERO PUSH2 0x450 JUMPI RETURNDATASIZE PUSH0 PUSH0 RETURNDATACOPY RETURNDATASIZE PUSH0 REVERT JUMPDEST POP POP POP PUSH1 0x40 MLOAD MLOAD PUSH1 0x60 SHL DUP1 PUSH12 0xFFFFFFFFFFFFFFFFFFFFFFFF NOT AND SWAP1 POP SWAP4 POP SWAP4 POP SWAP4 POP POP SWAP2 SWAP4 SWAP1 SWAP3 POP JUMP JUMPDEST PUSH1 0x60 PUSH20 0x5B38DA6A701C568545DCFCB03FCB875F56BEDDC4 PUSH1 0x64 PUSH1 0x40 MLOAD PUSH1 0x24 ADD PUSH2 0x4A4 SWAP3 SWAP2 SWAP1 PUSH2 0xECE JUMP JUMPDEST PUSH1 0x40 MLOAD PUSH1 0x20 DUP2 DUP4 SUB SUB DUP2 MSTORE SWAP1 PUSH1 0x40 MSTORE PUSH32 0xA9059CBB00000000000000000000000000000000000000000000000000000000 PUSH28 0xFFFFFFFFFFFFFFFFFFFFFFFFFFFFFFFFFFFFFFFFFFFFFFFFFFFFFFFF NOT AND PUSH1 0x20 DUP3 ADD DUP1 MLOAD PUSH28 0xFFFFFFFFFFFFFFFFFFFFFFFFFFFFFFFFFFFFFFFFFFFFFFFFFFFFFFFF DUP4 DUP2 DUP4 AND OR DUP4 MSTORE POP POP POP POP SWAP1 POP SWAP1 JUMP JUMPDEST PUSH0 PUSH32 0xFFFFFFFF00000000000000000000000000000000000000000000000000000000 DUP3 AND SWAP1 POP SWAP2 SWAP1 POP JUMP JUMPDEST PUSH2 0x55A DUP2 PUSH2 0x526 JUMP JUMPDEST DUP3 MSTORE POP POP JUMP JUMPDEST PUSH0 PUSH1 0x20 DUP3 ADD SWAP1 POP PUSH2 0x573 PUSH0 DUP4 ADD DUP5 PUSH2 0x551 JUMP JUMPDEST SWAP3 SWAP2 POP POP JUMP JUMPDEST PUSH0 PUSH1 0x40 MLOAD SWAP1 POP SWAP1 JUMP JUMPDEST PUSH0 PUSH0 REVERT JUMPDEST PUSH0 PUSH0 REVERT JUMPDEST PUSH0 PUSH0 REVERT JUMPDEST PUSH0 PUSH0 REVERT JUMPDEST PUSH0 PUSH1 0x1F NOT PUSH1 0x1F DUP4 ADD AND SWAP1 POP SWAP2 SWAP1 POP JUMP JUMPDEST PUSH32 0x4E487B7100000000000000000000000000000000000000000000000000000000 PUSH0 MSTORE PUSH1 0x41 PUSH1 0x4 MSTORE PUSH1 0x24 PUSH0 REVERT JUMPDEST PUSH2 0x5D8 DUP3 PUSH2 0x592 JUMP JUMPDEST DUP2 ADD DUP2 DUP2 LT PUSH8 0xFFFFFFFFFFFFFFFF DUP3 GT OR ISZERO PUSH2 0x5F7 JUMPI PUSH2 0x5F6 PUSH2 0x5A2 JUMP JUMPDEST JUMPDEST DUP1 PUSH1 0x40 MSTORE POP POP POP JUMP JUMPDEST PUSH0 PUSH2 0x609 PUSH2 0x579 JUMP JUMPDEST SWAP1 POP PUSH2 0x615 DUP3 DUP3 PUSH2 0x5CF JUMP JUMPDEST SWAP2 SWAP1 POP JUMP JUMPDEST PUSH0 PUSH8 0xFFFFFFFFFFFFFFFF DUP3 GT ISZERO PUSH2 0x634 JUMPI PUSH2 0x633 PUSH2 0x5A2 JUMP JUMPDEST JUMPDEST PUSH2 0x63D DUP3 PUSH2 0x592 JUMP JUMPDEST SWAP1 POP PUSH1 0x20 DUP2 ADD SWAP1 POP SWAP2 SWAP1 POP JUMP JUMPDEST DUP3 DUP2 DUP4 CALLDATACOPY PUSH0 DUP4 DUP4 ADD MSTORE POP POP POP JUMP JUMPDEST PUSH0 PUSH2 0x66A PUSH2 0x665 DUP5 PUSH2 0x61A JUMP JUMPDEST PUSH2 0x600 JUMP JUMPDEST SWAP1 POP DUP3 DUP2 MSTORE PUSH1 0x20 DUP2 ADD DUP5 DUP5 DUP5 ADD GT ISZERO PUSH2 0x686 JUMPI PUSH2 0x685 PUSH2 0x58E JUMP JUMPDEST JUMPDEST PUSH2 0x691 DUP5 DUP3 DUP6 PUSH2 0x64A JUMP JUMPDEST POP SWAP4 SWAP3 POP POP POP JUMP JUMPDEST PUSH0 DUP3 PUSH1 0x1F DUP4 ADD SLT PUSH2 0x6AD JUMPI PUSH2 0x6AC PUSH2 0x58A JUMP JUMPDEST JUMPDEST DUP2 CALLDATALOAD PUSH2 0x6BD DUP5 DUP3 PUSH1 0x20 DUP7 ADD PUSH2 0x658 JUMP JUMPDEST SWAP2 POP POP SWAP3 SWAP2 POP POP JUMP JUMPDEST PUSH0 PUSH1 0x20 DUP3 DUP5 SUB SLT ISZERO PUSH2 0x6DB JUMPI PUSH2 0x6DA PUSH2 0x582 JUMP JUMPDEST JUMPDEST PUSH0 DUP3 ADD CALLDATALOAD PUSH8 0xFFFFFFFFFFFFFFFF DUP2 GT ISZERO PUSH2 0x6F8 JUMPI PUSH2 0x6F7 PUSH2 0x586 JUMP JUMPDEST JUMPDEST PUSH2 0x704 DUP5 DUP3 DUP6 ADD PUSH2 0x699 JUMP JUMPDEST SWAP2 POP POP SWAP3 SWAP2 POP POP JUMP JUMPDEST PUSH0 DUP2 MLOAD SWAP1 POP SWAP2 SWAP1 POP JUMP JUMPDEST PUSH0 DUP3 DUP3 MSTORE PUSH1 0x20 DUP3 ADD SWAP1 POP SWAP3 SWAP2 POP POP JUMP JUMPDEST DUP3 DUP2 DUP4 MCOPY PUSH0 DUP4 DUP4 ADD MSTORE POP POP POP JUMP JUMPDEST PUSH0 PUSH2 0x73F DUP3 PUSH2 0x70D JUMP JUMPDEST PUSH2 0x749 DUP2 DUP6 PUSH2 0x717 JUMP JUMPDEST SWAP4 POP PUSH2 0x759 DUP2 DUP6 PUSH1 0x20 DUP7 ADD PUSH2 0x727 JUMP JUMPDEST PUSH2 0x762 DUP2 PUSH2 0x592 JUMP JUMPDEST DUP5 ADD SWAP2 POP POP SWAP3 SWAP2 POP POP JUMP JUMPDEST PUSH0 DUP2 SWAP1 POP SWAP2 SWAP1 POP JUMP JUMPDEST PUSH2 0x77F DUP2 PUSH2 0x76D JUMP JUMPDEST DUP3 MSTORE POP POP JUMP JUMPDEST PUSH0 PUSH1 0x40 DUP3 ADD SWAP1 POP DUP2 DUP2 SUB PUSH0 DUP4 ADD MSTORE PUSH2 0x79D DUP2 DUP6 PUSH2 0x735 JUMP JUMPDEST SWAP1 POP PUSH2 0x7AC PUSH1 0x20 DUP4 ADD DUP5 PUSH2 0x776 JUMP JUMPDEST SWAP4 SWAP3 POP POP POP JUMP JUMPDEST PUSH0 PUSH8 0xFFFFFFFFFFFFFFFF DUP3 GT ISZERO PUSH2 0x7CD JUMPI PUSH2 0x7CC PUSH2 0x5A2 JUMP JUMPDEST JUMPDEST PUSH2 0x7D6 DUP3 PUSH2 0x592 JUMP JUMPDEST SWAP1 POP PUSH1 0x20 DUP2 ADD SWAP1 POP SWAP2 SWAP1 POP JUMP JUMPDEST PUSH0 PUSH2 0x7F5 PUSH2 0x7F0 DUP5 PUSH2 0x7B3 JUMP JUMPDEST PUSH2 0x600 JUMP JUMPDEST SWAP1 POP DUP3 DUP2 MSTORE PUSH1 0x20 DUP2 ADD DUP5 DUP5 DUP5 ADD GT ISZERO PUSH2 0x811 JUMPI PUSH2 0x810 PUSH2 0x58E JUMP JUMPDEST JUMPDEST PUSH2 0x81C DUP5 DUP3 DUP6 PUSH2 0x64A JUMP JUMPDEST POP SWAP4 SWAP3 POP POP POP JUMP JUMPDEST PUSH0 DUP3 PUSH1 0x1F DUP4 ADD SLT PUSH2 0x838 JUMPI PUSH2 0x837 PUSH2 0x58A JUMP JUMPDEST JUMPDEST DUP2 CALLDATALOAD PUSH2 0x848 DUP5 DUP3 PUSH1 0x20 DUP7 ADD PUSH2 0x7E3 JUMP JUMPDEST SWAP2 POP POP SWAP3 SWAP2 POP POP JUMP JUMPDEST PUSH2 0x85A DUP2 PUSH2 0x76D JUMP JUMPDEST DUP2 EQ PUSH2 0x864 JUMPI PUSH0 PUSH0 REVERT JUMPDEST POP JUMP JUMPDEST PUSH0 DUP2 CALLDATALOAD SWAP1 POP PUSH2 0x875 DUP2 PUSH2 0x851 JUMP JUMPDEST SWAP3 SWAP2 POP POP JUMP JUMPDEST PUSH0 PUSH0 PUSH1 0x40 DUP4 DUP6 SUB SLT ISZERO PUSH2 0x891 JUMPI PUSH2 0x890 PUSH2 0x582 JUMP JUMPDEST JUMPDEST PUSH0 DUP4 ADD CALLDATALOAD PUSH8 0xFFFFFFFFFFFFFFFF DUP2 GT ISZERO PUSH2 0x8AE JUMPI PUSH2 0x8AD PUSH2 0x586 JUMP JUMPDEST JUMPDEST PUSH2 0x8BA DUP6 DUP3 DUP7 ADD PUSH2 0x824 JUMP JUMPDEST SWAP3 POP POP PUSH1 0x20 PUSH2 0x8CB DUP6 DUP3 DUP7 ADD PUSH2 0x867 JUMP JUMPDEST SWAP2 POP POP SWAP3 POP SWAP3 SWAP1 POP JUMP JUMPDEST PUSH0 DUP2 MLOAD SWAP1 POP SWAP2 SWAP1 POP JUMP JUMPDEST PUSH0 DUP3 DUP3 MSTORE PUSH1 0x20 DUP3 ADD SWAP1 POP SWAP3 SWAP2 POP POP JUMP JUMPDEST PUSH0 PUSH2 0x8F9 DUP3 PUSH2 0x8D5 JUMP JUMPDEST PUSH2 0x903 DUP2 DUP6 PUSH2 0x8DF JUMP JUMPDEST SWAP4 POP PUSH2 0x913 DUP2 DUP6 PUSH1 0x20 DUP7 ADD PUSH2 0x727 JUMP JUMPDEST PUSH2 0x91C DUP2 PUSH2 0x592 JUMP JUMPDEST DUP5 ADD SWAP2 POP POP SWAP3 SWAP2 POP POP JUMP JUMPDEST PUSH0 PUSH1 0x40 DUP3 ADD SWAP1 POP DUP2 DUP2 SUB PUSH0 DUP4 ADD MSTORE PUSH2 0x93F DUP2 DUP6 PUSH2 0x8EF JUMP JUMPDEST SWAP1 POP DUP2 DUP2 SUB PUSH1 0x20 DUP4 ADD MSTORE PUSH2 0x953 DUP2 DUP5 PUSH2 0x8EF JUMP JUMPDEST SWAP1 POP SWAP4 SWAP3 POP POP POP JUMP JUMPDEST PUSH0 PUSH1 0x20 DUP3 DUP5 SUB SLT ISZERO PUSH2 0x971 JUMPI PUSH2 0x970 PUSH2 0x582 JUMP JUMPDEST JUMPDEST PUSH0 DUP3 ADD CALLDATALOAD PUSH8 0xFFFFFFFFFFFFFFFF DUP2 GT ISZERO PUSH2 0x98E JUMPI PUSH2 0x98D PUSH2 0x586 JUMP JUMPDEST JUMPDEST PUSH2 0x99A DUP5 DUP3 DUP6 ADD PUSH2 0x824 JUMP JUMPDEST SWAP2 POP POP SWAP3 SWAP2 POP POP JUMP JUMPDEST PUSH0 DUP2 SWAP1 POP SWAP2 SWAP1 POP JUMP JUMPDEST PUSH2 0x9B5 DUP2 PUSH2 0x9A3 JUMP JUMPDEST DUP2 EQ PUSH2 0x9BF JUMPI PUSH0 PUSH0 REVERT JUMPDEST POP JUMP JUMPDEST PUSH0 DUP2 CALLDATALOAD SWAP1 POP PUSH2 0x9D0 DUP2 PUSH2 0x9AC JUMP JUMPDEST SWAP3 SWAP2 POP POP JUMP JUMPDEST PUSH0 PUSH1 0xFF DUP3 AND SWAP1 POP SWAP2 SWAP1 POP JUMP JUMPDEST PUSH2 0x9EB DUP2 PUSH2 0x9D6 JUMP JUMPDEST DUP2 EQ PUSH2 0x9F5 JUMPI PUSH0 PUSH0 REVERT JUMPDEST POP JUMP JUMPDEST PUSH0 DUP2 CALLDATALOAD SWAP1 POP PUSH2 0xA06 DUP2 PUSH2 0x9E2 JUMP JUMPDEST SWAP3 SWAP2 POP POP JUMP JUMPDEST PUSH0 PUSH0 PUSH0 PUSH0 PUSH1 0x80 DUP6 DUP8 SUB SLT ISZERO PUSH2 0xA24 JUMPI PUSH2 0xA23 PUSH2 0x582 JUMP JUMPDEST JUMPDEST PUSH0 PUSH2 0xA31 DUP8 DUP3 DUP9 ADD PUSH2 0x9C2 JUMP JUMPDEST SWAP5 POP POP PUSH1 0x20 PUSH2 0xA42 DUP8 DUP3 DUP9 ADD PUSH2 0x9F8 JUMP JUMPDEST SWAP4 POP POP PUSH1 0x40 PUSH2 0xA53 DUP8 DUP3 DUP9 ADD PUSH2 0x9C2 JUMP JUMPDEST SWAP3 POP POP PUSH1 0x60 PUSH2 0xA64 DUP8 DUP3 DUP9 ADD PUSH2 0x9C2 JUMP JUMPDEST SWAP2 POP POP SWAP3 SWAP6 SWAP2 SWAP5 POP SWAP3 POP JUMP JUMPDEST PUSH0 PUSH20 0xFFFFFFFFFFFFFFFFFFFFFFFFFFFFFFFFFFFFFFFF DUP3 AND SWAP1 POP SWAP2 SWAP1 POP JUMP JUMPDEST PUSH0 PUSH2 0xA99 DUP3 PUSH2 0xA70 JUMP JUMPDEST SWAP1 POP SWAP2 SWAP1 POP JUMP JUMPDEST PUSH2 0xAA9 DUP2 PUSH2 0xA8F JUMP JUMPDEST DUP3 MSTORE POP POP JUMP JUMPDEST PUSH0 PUSH1 0x20 DUP3 ADD SWAP1 POP PUSH2 0xAC2 PUSH0 DUP4 ADD DUP5 PUSH2 0xAA0 JUMP JUMPDEST SWAP3 SWAP2 POP POP JUMP JUMPDEST PUSH0 PUSH0 PUSH0 PUSH1 0x60 DUP5 DUP7 SUB SLT ISZERO PUSH2 0xADF JUMPI PUSH2 0xADE PUSH2 0x582 JUMP JUMPDEST JUMPDEST PUSH0 PUSH2 0xAEC DUP7 DUP3 DUP8 ADD PUSH2 0x867 JUMP JUMPDEST SWAP4 POP POP PUSH1 0x20 PUSH2 0xAFD DUP7 DUP3 DUP8 ADD PUSH2 0x867 JUMP JUMPDEST SWAP3 POP POP PUSH1 0x40 PUSH2 0xB0E DUP7 DUP3 DUP8 ADD PUSH2 0x867 JUMP JUMPDEST SWAP2 POP POP SWAP3 POP SWAP3 POP SWAP3 JUMP JUMPDEST PUSH0 PUSH1 0x40 DUP3 ADD SWAP1 POP PUSH2 0xB2B PUSH0 DUP4 ADD DUP6 PUSH2 0x776 JUMP JUMPDEST PUSH2 0xB38 PUSH1 0x20 DUP4 ADD DUP5 PUSH2 0x776 JUMP JUMPDEST SWAP4 SWAP3 POP POP POP JUMP JUMPDEST PUSH2 0xB48 DUP2 PUSH2 0xA8F JUMP JUMPDEST DUP2 EQ PUSH2 0xB52 JUMPI PUSH0 PUSH0 REVERT JUMPDEST POP JUMP JUMPDEST PUSH0 DUP2 CALLDATALOAD SWAP1 POP PUSH2 0xB63 DUP2 PUSH2 0xB3F JUMP JUMPDEST SWAP3 SWAP2 POP POP JUMP JUMPDEST PUSH0 PUSH0 PUSH1 0x40 DUP4 DUP6 SUB SLT ISZERO PUSH2 0xB7F JUMPI PUSH2 0xB7E PUSH2 0x582 JUMP JUMPDEST JUMPDEST PUSH0 PUSH2 0xB8C DUP6 DUP3 DUP7 ADD PUSH2 0xB55 JUMP JUMPDEST SWAP3 POP POP PUSH1 0x20 PUSH2 0xB9D DUP6 DUP3 DUP7 ADD PUSH2 0x867 JUMP JUMPDEST SWAP2 POP POP SWAP3 POP SWAP3 SWAP1 POP JUMP JUMPDEST PUSH0 PUSH1 0x20 DUP3 ADD SWAP1 POP DUP2 DUP2 SUB PUSH0 DUP4 ADD MSTORE PUSH2 0xBBF DUP2 DUP5 PUSH2 0x8EF JUMP JUMPDEST SWAP1 POP SWAP3 SWAP2 POP POP JUMP JUMPDEST PUSH2 0xBD0 DUP2 PUSH2 0x9A3 JUMP JUMPDEST DUP3 MSTORE POP POP JUMP JUMPDEST PUSH0 PUSH1 0x60 DUP3 ADD SWAP1 POP PUSH2 0xBE9 PUSH0 DUP4 ADD DUP7 PUSH2 0xBC7 JUMP JUMPDEST PUSH2 0xBF6 PUSH1 0x20 DUP4 ADD DUP6 PUSH2 0xBC7 JUMP JUMPDEST PUSH2 0xC03 PUSH1 0x40 DUP4 ADD DUP5 PUSH2 0xBC7 JUMP JUMPDEST SWAP5 SWAP4 POP POP POP POP JUMP JUMPDEST PUSH0 PUSH2 0xC1D PUSH2 0xC18 DUP5 PUSH2 0x7B3 JUMP JUMPDEST PUSH2 0x600 JUMP JUMPDEST SWAP1 POP DUP3 DUP2 MSTORE PUSH1 0x20 DUP2 ADD DUP5 DUP5 DUP5 ADD GT ISZERO PUSH2 0xC39 JUMPI PUSH2 0xC38 PUSH2 0x58E JUMP JUMPDEST JUMPDEST PUSH2 0xC44 DUP5 DUP3 DUP6 PUSH2 0x727 JUMP JUMPDEST POP SWAP4 SWAP3 POP POP POP JUMP JUMPDEST PUSH0 DUP3 PUSH1 0x1F DUP4 ADD SLT PUSH2 0xC60 JUMPI PUSH2 0xC5F PUSH2 0x58A JUMP JUMPDEST JUMPDEST DUP2 MLOAD PUSH2 0xC70 DUP5 DUP3 PUSH1 0x20 DUP7 ADD PUSH2 0xC0B JUMP JUMPDEST SWAP2 POP POP SWAP3 SWAP2 POP POP JUMP JUMPDEST PUSH0 DUP2 MLOAD SWAP1 POP PUSH2 0xC87 DUP2 PUSH2 0x851 JUMP JUMPDEST SWAP3 SWAP2 POP POP JUMP JUMPDEST PUSH0 PUSH0 PUSH1 0x40 DUP4 DUP6 SUB SLT ISZERO PUSH2 0xCA3 JUMPI PUSH2 0xCA2 PUSH2 0x582 JUMP JUMPDEST JUMPDEST PUSH0 DUP4 ADD MLOAD PUSH8 0xFFFFFFFFFFFFFFFF DUP2 GT ISZERO PUSH2 0xCC0 JUMPI PUSH2 0xCBF PUSH2 0x586 JUMP JUMPDEST JUMPDEST PUSH2 0xCCC DUP6 DUP3 DUP7 ADD PUSH2 0xC4C JUMP JUMPDEST SWAP3 POP POP PUSH1 0x20 PUSH2 0xCDD DUP6 DUP3 DUP7 ADD PUSH2 0xC79 JUMP JUMPDEST SWAP2 POP POP SWAP3 POP SWAP3 SWAP1 POP JUMP JUMPDEST PUSH0 DUP2 SWAP1 POP SWAP3 SWAP2 POP POP JUMP JUMPDEST PUSH0 PUSH2 0xCFB DUP3 PUSH2 0x70D JUMP JUMPDEST PUSH2 0xD05 DUP2 DUP6 PUSH2 0xCE7 JUMP JUMPDEST SWAP4 POP PUSH2 0xD15 DUP2 DUP6 PUSH1 0x20 DUP7 ADD PUSH2 0x727 JUMP JUMPDEST DUP1 DUP5 ADD SWAP2 POP POP SWAP3 SWAP2 POP POP JUMP JUMPDEST PUSH0 DUP2 SWAP1 POP SWAP2 SWAP1 POP JUMP JUMPDEST PUSH2 0xD3B PUSH2 0xD36 DUP3 PUSH2 0x76D JUMP JUMPDEST PUSH2 0xD21 JUMP JUMPDEST DUP3 MSTORE POP POP JUMP JUMPDEST PUSH0 PUSH2 0xD4C DUP3 DUP6 PUSH2 0xCF1 JUMP JUMPDEST SWAP2 POP PUSH2 0xD58 DUP3 DUP5 PUSH2 0xD2A JUMP JUMPDEST PUSH1 0x20 DUP3 ADD SWAP2 POP DUP2 SWAP1 POP SWAP4 SWAP3 POP POP POP JUMP JUMPDEST PUSH2 0xD71 DUP2 PUSH2 0x9D6 JUMP JUMPDEST DUP3 MSTORE POP POP JUMP JUMPDEST PUSH0 PUSH1 0x80 DUP3 ADD SWAP1 POP PUSH2 0xD8A PUSH0 DUP4 ADD DUP8 PUSH2 0xBC7 JUMP JUMPDEST PUSH2 0xD97 PUSH1 0x20 DUP4 ADD DUP7 PUSH2 0xD68 JUMP JUMPDEST PUSH2 0xDA4 PUSH1 0x40 DUP4 ADD DUP6 PUSH2 0xBC7 JUMP JUMPDEST PUSH2 0xDB1 PUSH1 0x60 DUP4 ADD DUP5 PUSH2 0xBC7 JUMP JUMPDEST SWAP6 SWAP5 POP POP POP POP POP JUMP JUMPDEST PUSH32 0x4E487B7100000000000000000000000000000000000000000000000000000000 PUSH0 MSTORE PUSH1 0x12 PUSH1 0x4 MSTORE PUSH1 0x24 PUSH0 REVERT JUMPDEST PUSH0 PUSH2 0xDF2 DUP3 DUP5 PUSH2 0xCF1 JUMP JUMPDEST SWAP2 POP DUP2 SWAP1 POP SWAP3 SWAP2 POP POP JUMP JUMPDEST PUSH0 DUP2 SWAP1 POP SWAP3 SWAP2 POP POP JUMP JUMPDEST PUSH0 PUSH2 0xE11 DUP3 PUSH2 0x8D5 JUMP JUMPDEST PUSH2 0xE1B DUP2 DUP6 PUSH2 0xDFD JUMP JUMPDEST SWAP4 POP PUSH2 0xE2B DUP2 DUP6 PUSH1 0x20 DUP7 ADD PUSH2 0x727 JUMP JUMPDEST DUP1 DUP5 ADD SWAP2 POP POP SWAP3 SWAP2 POP POP JUMP JUMPDEST PUSH0 PUSH2 0xE42 DUP3 DUP5 PUSH2 0xE07 JUMP JUMPDEST SWAP2 POP DUP2 SWAP1 POP SWAP3 SWAP2 POP POP JUMP JUMPDEST PUSH0 DUP2 MLOAD SWAP1 POP PUSH2 0xE5B DUP2 PUSH2 0x9AC JUMP JUMPDEST SWAP3 SWAP2 POP POP JUMP JUMPDEST PUSH0 PUSH1 0x20 DUP3 DUP5 SUB SLT ISZERO PUSH2 0xE76 JUMPI PUSH2 0xE75 PUSH2 0x582 JUMP JUMPDEST JUMPDEST PUSH0 PUSH2 0xE83 DUP5 DUP3 DUP6 ADD PUSH2 0xE4D JUMP JUMPDEST SWAP2 POP POP SWAP3 SWAP2 POP POP JUMP JUMPDEST PUSH0 DUP2 SWAP1 POP SWAP2 SWAP1 POP JUMP JUMPDEST PUSH0 DUP2 SWAP1 POP SWAP2 SWAP1 POP JUMP JUMPDEST PUSH0 PUSH2 0xEB8 PUSH2 0xEB3 PUSH2 0xEAE DUP5 PUSH2 0xE8C JUMP JUMPDEST PUSH2 0xE95 JUMP JUMPDEST PUSH2 0x9D6 JUMP JUMPDEST SWAP1 POP SWAP2 SWAP1 POP JUMP JUMPDEST PUSH2 0xEC8 DUP2 PUSH2 0xE9E JUMP JUMPDEST DUP3 MSTORE POP POP JUMP JUMPDEST PUSH0 PUSH1 0x40 DUP3 ADD SWAP1 POP PUSH2 0xEE1 PUSH0 DUP4 ADD DUP6 PUSH2 0xAA0 JUMP JUMPDEST PUSH2 0xEEE PUSH1 0x20 DUP4 ADD DUP5 PUSH2 0xEBF JUMP JUMPDEST SWAP4 SWAP3 POP POP POP JUMP INVALID LOG2 PUSH5 0x6970667358 0x22 SLT KECCAK256 0xA6 0xCC PUSH24 0x6F5BF5956A0BDB018735037046148EF4EDA99BC66DA81F8E PUSH18 0x8133629964736F6C634300081E0033000000 "
		},
		"gasEstimates": {
			"creation": {
				"codeDepositCost": "776600",
				"executionCost": "810",
				"totalCost": "777410"
			},
			"external": {
				"computeSelector(string)": "infinite",
				"decodeData(bytes)": "infinite",
				"encodeData(string,uint256)": "infinite",
				"encodeFunctionCall()": "infinite",
				"getSelector()": "347",
				"hashFunctions(string)": "infinite",
				"modularMath(uint256,uint256,uint256)": "infinite",
				"recoverAddress(bytes32,uint8,bytes32,bytes32)": "infinite",
				"transfer(address,uint256)": "infinite"
			}
		},
		"methodIdentifiers": {
			"computeSelector(string)": "68bc2ad1",
			"decodeData(bytes)": "447a06f5",
			"encodeData(string,uint256)": "47da7f8e",
			"encodeFunctionCall()": "f435898b",
			"getSelector()": "034899bc",
			"hashFunctions(string)": "b2b34f77",
			"modularMath(uint256,uint256,uint256)": "a7e94b66",
			"recoverAddress(bytes32,uint8,bytes32,bytes32)": "8428cf83",
			"transfer(address,uint256)": "a9059cbb"
		}
	},
	"abi": [
		{
			"inputs": [
				{
					"internalType": "string",
					"name": "func",
					"type": "string"
				}
			],
			"name": "computeSelector",
			"outputs": [
				{
					"internalType": "bytes4",
					"name": "",
					"type": "bytes4"
				}
			],
			"stateMutability": "pure",
			"type": "function"
		},
		{
			"inputs": [
				{
					"internalType": "bytes",
					"name": "encodedData",
					"type": "bytes"
				}
			],
			"name": "decodeData",
			"outputs": [
				{
					"internalType": "string",
					"name": "text",
					"type": "string"
				},
				{
					"internalType": "uint256",
					"name": "number",
					"type": "uint256"
				}
			],
			"stateMutability": "pure",
			"type": "function"
		},
		{
			"inputs": [
				{
					"internalType": "string",
					"name": "text",
					"type": "string"
				},
				{
					"internalType": "uint256",
					"name": "number",
					"type": "uint256"
				}
			],
			"name": "encodeData",
			"outputs": [
				{
					"internalType": "bytes",
					"name": "",
					"type": "bytes"
				},
				{
					"internalType": "bytes",
					"name": "",
					"type": "bytes"
				}
			],
			"stateMutability": "pure",
			"type": "function"
		},
		{
			"inputs": [],
			"name": "encodeFunctionCall",
			"outputs": [
				{
					"internalType": "bytes",
					"name": "",
					"type": "bytes"
				}
			],
			"stateMutability": "pure",
			"type": "function"
		},
		{
			"inputs": [],
			"name": "getSelector",
			"outputs": [
				{
					"internalType": "bytes4",
					"name": "",
					"type": "bytes4"
				}
			],
			"stateMutability": "pure",
			"type": "function"
		},
		{
			"inputs": [
				{
					"internalType": "string",
					"name": "input",
					"type": "string"
				}
			],
			"name": "hashFunctions",
			"outputs": [
				{
					"internalType": "bytes32",
					"name": "",
					"type": "bytes32"
				},
				{
					"internalType": "bytes32",
					"name": "",
					"type": "bytes32"
				},
				{
					"internalType": "bytes32",
					"name": "",
					"type": "bytes32"
				}
			],
			"stateMutability": "pure",
			"type": "function"
		},
		{
			"inputs": [
				{
					"internalType": "uint256",
					"name": "x",
					"type": "uint256"
				},
				{
					"internalType": "uint256",
					"name": "y",
					"type": "uint256"
				},
				{
					"internalType": "uint256",
					"name": "m",
					"type": "uint256"
				}
			],
			"name": "modularMath",
			"outputs": [
				{
					"internalType": "uint256",
					"name": "",
					"type": "uint256"
				},
				{
					"internalType": "uint256",
					"name": "",
					"type": "uint256"
				}
			],
			"stateMutability": "pure",
			"type": "function"
		},
		{
			"inputs": [
				{
					"internalType": "bytes32",
					"name": "hash",
					"type": "bytes32"
				},
				{
					"internalType": "uint8",
					"name": "v",
					"type": "uint8"
				},
				{
					"internalType": "bytes32",
					"name": "r",
					"type": "bytes32"
				},
				{
					"internalType": "bytes32",
					"name": "s",
					"type": "bytes32"
				}
			],
			"name": "recoverAddress",
			"outputs": [
				{
					"internalType": "address",
					"name": "",
					"type": "address"
				}
			],
			"stateMutability": "pure",
			"type": "function"
		},
		{
			"inputs": [
				{
					"internalType": "address",
					"name": "addr",
					"type": "address"
				},
				{
					"internalType": "uint256",
					"name": "amount",
					"type": "uint256"
				}
			],
			"name": "transfer",
			"outputs": [
				{
					"internalType": "bytes",
					"name": "",
					"type": "bytes"
				}
			],
			"stateMutability": "pure",
			"type": "function"
		}
	]
}