{
	"data": {
		"bytecode": {
			"linkReferences": {},
			"object": "60806040523360015f6101000a81548173ffffffffffffffffffffffffffffffffffffffff021916908373ffffffffffffffffffffffffffffffffffffffff160217905550348015604e575f5ffd5b506109048061005c5f395ff3fe60806040526004361061007a575f3560e01c806395e885c01161004d57806395e885c01461013d578063eb8ac92114610179578063f8b2cb4f146101b5578063fc9c8d39146101f15761007a565b8063037106681461007e57806326b85ee1146100bb57806348c981e2146100e5578063593b79fe14610101575b5f5ffd5b348015610089575f5ffd5b506100a4600480360381019061009f919061055a565b61021b565b6040516100b292919061062e565b60405180910390f35b3480156100c6575f5ffd5b506100cf61028d565b6040516100dc919061066b565b60405180910390f35b6100ff60048036038101906100fa9190610684565b6102b1565b005b34801561010c575f5ffd5b5061012760048036038101906101229190610684565b6102f8565b60405161013491906106af565b60405180910390f35b348015610148575f5ffd5b50610163600480360381019061015e91906106cf565b610321565b604051610170919061070d565b60405180910390f35b348015610184575f5ffd5b5061019f600480360381019061019a9190610759565b610359565b6040516101ac91906107a6565b60405180910390f35b3480156101c0575f5ffd5b506101db60048036038101906101d69190610684565b61036e565b6040516101e891906107a6565b60405180910390f35b3480156101fc575f5ffd5b5061020561038e565b604051610212919061066b565b60405180910390f35b5f60608373ffffffffffffffffffffffffffffffffffffffff168360405161024391906107f9565b5f604051808303815f865af19150503d805f811461027c576040519150601f19603f3d011682016040523d82523d5f602084013e610281565b606091505b50915091509250929050565b5f5f9054906101000a900473ffffffffffffffffffffffffffffffffffffffff1681565b8073ffffffffffffffffffffffffffffffffffffffff166108fc3490811502906040515f60405180830381858888f193505050501580156102f4573d5f5f3e3d5ffd5b5050565b60608160405160200161030b9190610854565b6040516020818303038152906040529050919050565b5f8173ffffffffffffffffffffffffffffffffffffffff168373ffffffffffffffffffffffffffffffffffffffff1614905092915050565b5f8183610366919061089b565b905092915050565b5f8173ffffffffffffffffffffffffffffffffffffffff16319050919050565b60015f9054906101000a900473ffffffffffffffffffffffffffffffffffffffff1681565b5f604051905090565b5f5ffd5b5f5ffd5b5f73ffffffffffffffffffffffffffffffffffffffff82169050919050565b5f6103ed826103c4565b9050919050565b6103fd816103e3565b8114610407575f5ffd5b50565b5f81359050610418816103f4565b92915050565b5f5ffd5b5f5ffd5b5f601f19601f8301169050919050565b7f4e487b71000000000000000000000000000000000000000000000000000000005f52604160045260245ffd5b61046c82610426565b810181811067ffffffffffffffff8211171561048b5761048a610436565b5b80604052505050565b5f61049d6103b3565b90506104a98282610463565b919050565b5f67ffffffffffffffff8211156104c8576104c7610436565b5b6104d182610426565b9050602081019050919050565b828183375f83830152505050565b5f6104fe6104f9846104ae565b610494565b90508281526020810184848401111561051a57610519610422565b5b6105258482856104de565b509392505050565b5f82601f8301126105415761054061041e565b5b81356105518482602086016104ec565b91505092915050565b5f5f604083850312156105705761056f6103bc565b5b5f61057d8582860161040a565b925050602083013567ffffffffffffffff81111561059e5761059d6103c0565b5b6105aa8582860161052d565b9150509250929050565b5f8115159050919050565b6105c8816105b4565b82525050565b5f81519050919050565b5f82825260208201905092915050565b8281835e5f83830152505050565b5f610600826105ce565b61060a81856105d8565b935061061a8185602086016105e8565b61062381610426565b840191505092915050565b5f6040820190506106415f8301856105bf565b818103602083015261065381846105f6565b90509392505050565b610665816103e3565b82525050565b5f60208201905061067e5f83018461065c565b92915050565b5f60208284031215610699576106986103bc565b5b5f6106a68482850161040a565b91505092915050565b5f6020820190508181035f8301526106c781846105f6565b905092915050565b5f5f604083850312156106e5576106e46103bc565b5b5f6106f28582860161040a565b92505060206107038582860161040a565b9150509250929050565b5f6020820190506107205f8301846105bf565b92915050565b5f819050919050565b61073881610726565b8114610742575f5ffd5b50565b5f813590506107538161072f565b92915050565b5f5f6040838503121561076f5761076e6103bc565b5b5f61077c85828601610745565b925050602061078d85828601610745565b9150509250929050565b6107a081610726565b82525050565b5f6020820190506107b95f830184610797565b92915050565b5f81905092915050565b5f6107d3826105ce565b6107dd81856107bf565b93506107ed8185602086016105e8565b80840191505092915050565b5f61080482846107c9565b915081905092915050565b5f8160601b9050919050565b5f6108258261080f565b9050919050565b5f6108368261081b565b9050919050565b61084e610849826103e3565b61082c565b82525050565b5f61085f828461083d565b60148201915081905092915050565b7f4e487b71000000000000000000000000000000000000000000000000000000005f52601160045260245ffd5b5f6108a582610726565b91506108b083610726565b92508282019050808211156108c8576108c761086e565b5b9291505056fea2646970667358221220e49eba9d2e8d45ac71716d3735b32110e8773c79aaa8b5a30fdf80bd651bfd5864736f6c634300081e0033",
			"opcodes": "PUSH1 0x80 PUSH1 0x40 MSTORE CALLER PUSH1 0x1 PUSH0 PUSH2 0x100 EXP DUP2 SLOAD DUP2 PUSH20 0xFFFFFFFFFFFFFFFFFFFFFFFFFFFFFFFFFFFFFFFF MUL NOT AND SWAP1 DUP4 PUSH20 0xFFFFFFFFFFFFFFFFFFFFFFFFFFFFFFFFFFFFFFFF AND MUL OR SWAP1 SSTORE POP CALLVALUE DUP1 ISZERO PUSH1 0x4E JUMPI PUSH0 PUSH0 REVERT JUMPDEST POP PUSH2 0x904 DUP1 PUSH2 0x5C PUSH0 CODECOPY PUSH0 RETURN INVALID PUSH1 0x80 PUSH1 0x40 MSTORE PUSH1 0x4 CALLDATASIZE LT PUSH2 0x7A JUMPI PUSH0 CALLDATALOAD PUSH1 0xE0 SHR DUP1 PUSH4 0x95E885C0 GT PUSH2 0x4D JUMPI DUP1 PUSH4 0x95E885C0 EQ PUSH2 0x13D JUMPI DUP1 PUSH4 0xEB8AC921 EQ PUSH2 0x179 JUMPI DUP1 PUSH4 0xF8B2CB4F EQ PUSH2 0x1B5 JUMPI DUP1 PUSH4 0xFC9C8D39 EQ PUSH2 0x1F1 JUMPI PUSH2 0x7A JUMP JUMPDEST DUP1 PUSH4 0x3710668 EQ PUSH2 0x7E JUMPI DUP1 PUSH4 0x26B85EE1 EQ PUSH2 0xBB JUMPI DUP1 PUSH4 0x48C981E2 EQ PUSH2 0xE5 JUMPI DUP1 PUSH4 0x593B79FE EQ PUSH2 0x101 JUMPI JUMPDEST PUSH0 PUSH0 REVERT JUMPDEST CALLVALUE DUP1 ISZERO PUSH2 0x89 JUMPI PUSH0 PUSH0 REVERT JUMPDEST POP PUSH2 0xA4 PUSH1 0x4 DUP1 CALLDATASIZE SUB DUP2 ADD SWAP1 PUSH2 0x9F SWAP2 SWAP1 PUSH2 0x55A JUMP JUMPDEST PUSH2 0x21B JUMP JUMPDEST PUSH1 0x40 MLOAD PUSH2 0xB2 SWAP3 SWAP2 SWAP1 PUSH2 0x62E JUMP JUMPDEST PUSH1 0x40 MLOAD DUP1 SWAP2 SUB SWAP1 RETURN JUMPDEST CALLVALUE DUP1 ISZERO PUSH2 0xC6 JUMPI PUSH0 PUSH0 REVERT JUMPDEST POP PUSH2 0xCF PUSH2 0x28D JUMP JUMPDEST PUSH1 0x40 MLOAD PUSH2 0xDC SWAP2 SWAP1 PUSH2 0x66B JUMP JUMPDEST PUSH1 0x40 MLOAD DUP1 SWAP2 SUB SWAP1 RETURN JUMPDEST PUSH2 0xFF PUSH1 0x4 DUP1 CALLDATASIZE SUB DUP2 ADD SWAP1 PUSH2 0xFA SWAP2 SWAP1 PUSH2 0x684 JUMP JUMPDEST PUSH2 0x2B1 JUMP JUMPDEST STOP JUMPDEST CALLVALUE DUP1 ISZERO PUSH2 0x10C JUMPI PUSH0 PUSH0 REVERT JUMPDEST POP PUSH2 0x127 PUSH1 0x4 DUP1 CALLDATASIZE SUB DUP2 ADD SWAP1 PUSH2 0x122 SWAP2 SWAP1 PUSH2 0x684 JUMP JUMPDEST PUSH2 0x2F8 JUMP JUMPDEST PUSH1 0x40 MLOAD PUSH2 0x134 SWAP2 SWAP1 PUSH2 0x6AF JUMP JUMPDEST PUSH1 0x40 MLOAD DUP1 SWAP2 SUB SWAP1 RETURN JUMPDEST CALLVALUE DUP1 ISZERO PUSH2 0x148 JUMPI PUSH0 PUSH0 REVERT JUMPDEST POP PUSH2 0x163 PUSH1 0x4 DUP1 CALLDATASIZE SUB DUP2 ADD SWAP1 PUSH2 0x15E SWAP2 SWAP1 PUSH2 0x6CF JUMP JUMPDEST PUSH2 0x321 JUMP JUMPDEST PUSH1 0x40 MLOAD PUSH2 0x170 SWAP2 SWAP1 PUSH2 0x70D JUMP JUMPDEST PUSH1 0x40 MLOAD DUP1 SWAP2 SUB SWAP1 RETURN JUMPDEST CALLVALUE DUP1 ISZERO PUSH2 0x184 JUMPI PUSH0 PUSH0 REVERT JUMPDEST POP PUSH2 0x19F PUSH1 0x4 DUP1 CALLDATASIZE SUB DUP2 ADD SWAP1 PUSH2 0x19A SWAP2 SWAP1 PUSH2 0x759 JUMP JUMPDEST PUSH2 0x359 JUMP JUMPDEST PUSH1 0x40 MLOAD PUSH2 0x1AC SWAP2 SWAP1 PUSH2 0x7A6 JUMP JUMPDEST PUSH1 0x40 MLOAD DUP1 SWAP2 SUB SWAP1 RETURN JUMPDEST CALLVALUE DUP1 ISZERO PUSH2 0x1C0 JUMPI PUSH0 PUSH0 REVERT JUMPDEST POP PUSH2 0x1DB PUSH1 0x4 DUP1 CALLDATASIZE SUB DUP2 ADD SWAP1 PUSH2 0x1D6 SWAP2 SWAP1 PUSH2 0x684 JUMP JUMPDEST PUSH2 0x36E JUMP JUMPDEST PUSH1 0x40 MLOAD PUSH2 0x1E8 SWAP2 SWAP1 PUSH2 0x7A6 JUMP JUMPDEST PUSH1 0x40 MLOAD DUP1 SWAP2 SUB SWAP1 RETURN JUMPDEST CALLVALUE DUP1 ISZERO PUSH2 0x1FC JUMPI PUSH0 PUSH0 REVERT JUMPDEST POP PUSH2 0x205 PUSH2 0x38E JUMP JUMPDEST PUSH1 0x40 MLOAD PUSH2 0x212 SWAP2 SWAP1 PUSH2 0x66B JUMP JUMPDEST PUSH1 0x40 MLOAD DUP1 SWAP2 SUB SWAP1 RETURN JUMPDEST PUSH0 PUSH1 0x60 DUP4 PUSH20 0xFFFFFFFFFFFFFFFFFFFFFFFFFFFFFFFFFFFFFFFF AND DUP4 PUSH1 0x40 MLOAD PUSH2 0x243 SWAP2 SWAP1 PUSH2 0x7F9 JUMP JUMPDEST PUSH0 PUSH1 0x40 MLOAD DUP1 DUP4 SUB DUP2 PUSH0 DUP7 GAS CALL SWAP2 POP POP RETURNDATASIZE DUP1 PUSH0 DUP2 EQ PUSH2 0x27C JUMPI PUSH1 0x40 MLOAD SWAP2 POP PUSH1 0x1F NOT PUSH1 0x3F RETURNDATASIZE ADD AND DUP3 ADD PUSH1 0x40 MSTORE RETURNDATASIZE DUP3 MSTORE RETURNDATASIZE PUSH0 PUSH1 0x20 DUP5 ADD RETURNDATACOPY PUSH2 0x281 JUMP JUMPDEST PUSH1 0x60 SWAP2 POP JUMPDEST POP SWAP2 POP SWAP2 POP SWAP3 POP SWAP3 SWAP1 POP JUMP JUMPDEST PUSH0 PUSH0 SWAP1 SLOAD SWAP1 PUSH2 0x100 EXP SWAP1 DIV PUSH20 0xFFFFFFFFFFFFFFFFFFFFFFFFFFFFFFFFFFFFFFFF AND DUP2 JUMP JUMPDEST DUP1 PUSH20 0xFFFFFFFFFFFFFFFFFFFFFFFFFFFFFFFFFFFFFFFF AND PUSH2 0x8FC CALLVALUE SWAP1 DUP2 ISZERO MUL SWAP1 PUSH1 0x40 MLOAD PUSH0 PUSH1 0x40 MLOAD DUP1 DUP4 SUB DUP2 DUP6 DUP9 DUP9 CALL SWAP4 POP POP POP POP ISZERO DUP1 ISZERO PUSH2 0x2F4 JUMPI RETURNDATASIZE PUSH0 PUSH0 RETURNDATACOPY RETURNDATASIZE PUSH0 REVERT JUMPDEST POP POP JUMP JUMPDEST PUSH1 0x60 DUP2 PUSH1 0x40 MLOAD PUSH1 0x20 ADD PUSH2 0x30B SWAP2 SWAP1 PUSH2 0x854 JUMP JUMPDEST PUSH1 0x40 MLOAD PUSH1 0x20 DUP2 DUP4 SUB SUB DUP2 MSTORE SWAP1 PUSH1 0x40 MSTORE SWAP1 POP SWAP2 SWAP1 POP JUMP JUMPDEST PUSH0 DUP2 PUSH20 0xFFFFFFFFFFFFFFFFFFFFFFFFFFFFFFFFFFFFFFFF AND DUP4 PUSH20 0xFFFFFFFFFFFFFFFFFFFFFFFFFFFFFFFFFFFFFFFF AND EQ SWAP1 POP SWAP3 SWAP2 POP POP JUMP JUMPDEST PUSH0 DUP2 DUP4 PUSH2 0x366 SWAP2 SWAP1 PUSH2 0x89B JUMP JUMPDEST SWAP1 POP SWAP3 SWAP2 POP POP JUMP JUMPDEST PUSH0 DUP2 PUSH20 0xFFFFFFFFFFFFFFFFFFFFFFFFFFFFFFFFFFFFFFFF AND BALANCE SWAP1 POP SWAP2 SWAP1 POP JUMP JUMPDEST PUSH1 0x1 PUSH0 SWAP1 SLOAD SWAP1 PUSH2 0x100 EXP SWAP1 DIV PUSH20 0xFFFFFFFFFFFFFFFFFFFFFFFFFFFFFFFFFFFFFFFF AND DUP2 JUMP JUMPDEST PUSH0 PUSH1 0x40 MLOAD SWAP1 POP SWAP1 JUMP JUMPDEST PUSH0 PUSH0 REVERT JUMPDEST PUSH0 PUSH0 REVERT JUMPDEST PUSH0 PUSH20 0xFFFFFFFFFFFFFFFFFFFFFFFFFFFFFFFFFFFFFFFF DUP3 AND SWAP1 POP SWAP2 SWAP1 POP JUMP JUMPDEST PUSH0 PUSH2 0x3ED DUP3 PUSH2 0x3C4 JUMP JUMPDEST SWAP1 POP SWAP2 SWAP1 POP JUMP JUMPDEST PUSH2 0x3FD DUP2 PUSH2 0x3E3 JUMP JUMPDEST DUP2 EQ PUSH2 0x407 JUMPI PUSH0 PUSH0 REVERT JUMPDEST POP JUMP JUMPDEST PUSH0 DUP2 CALLDATALOAD SWAP1 POP PUSH2 0x418 DUP2 PUSH2 0x3F4 JUMP JUMPDEST SWAP3 SWAP2 POP POP JUMP JUMPDEST PUSH0 PUSH0 REVERT JUMPDEST PUSH0 PUSH0 REVERT JUMPDEST PUSH0 PUSH1 0x1F NOT PUSH1 0x1F DUP4 ADD AND SWAP1 POP SWAP2 SWAP1 POP JUMP JUMPDEST PUSH32 0x4E487B7100000000000000000000000000000000000000000000000000000000 PUSH0 MSTORE PUSH1 0x41 PUSH1 0x4 MSTORE PUSH1 0x24 PUSH0 REVERT JUMPDEST PUSH2 0x46C DUP3 PUSH2 0x426 JUMP JUMPDEST DUP2 ADD DUP2 DUP2 LT PUSH8 0xFFFFFFFFFFFFFFFF DUP3 GT OR ISZERO PUSH2 0x48B JUMPI PUSH2 0x48A PUSH2 0x436 JUMP JUMPDEST JUMPDEST DUP1 PUSH1 0x40 MSTORE POP POP POP JUMP JUMPDEST PUSH0 PUSH2 0x49D PUSH2 0x3B3 JUMP JUMPDEST SWAP1 POP PUSH2 0x4A9 DUP3 DUP3 PUSH2 0x463 JUMP JUMPDEST SWAP2 SWAP1 POP JUMP JUMPDEST PUSH0 PUSH8 0xFFFFFFFFFFFFFFFF DUP3 GT ISZERO PUSH2 0x4C8 JUMPI PUSH2 0x4C7 PUSH2 0x436 JUMP JUMPDEST JUMPDEST PUSH2 0x4D1 DUP3 PUSH2 0x426 JUMP JUMPDEST SWAP1 POP PUSH1 0x20 DUP2 ADD SWAP1 POP SWAP2 SWAP1 POP JUMP JUMPDEST DUP3 DUP2 DUP4 CALLDATACOPY PUSH0 DUP4 DUP4 ADD MSTORE POP POP POP JUMP JUMPDEST PUSH0 PUSH2 0x4FE PUSH2 0x4F9 DUP5 PUSH2 0x4AE JUMP JUMPDEST PUSH2 0x494 JUMP JUMPDEST SWAP1 POP DUP3 DUP2 MSTORE PUSH1 0x20 DUP2 ADD DUP5 DUP5 DUP5 ADD GT ISZERO PUSH2 0x51A JUMPI PUSH2 0x519 PUSH2 0x422 JUMP JUMPDEST JUMPDEST PUSH2 0x525 DUP5 DUP3 DUP6 PUSH2 0x4DE JUMP JUMPDEST POP SWAP4 SWAP3 POP POP POP JUMP JUMPDEST PUSH0 DUP3 PUSH1 0x1F DUP4 ADD SLT PUSH2 0x541 JUMPI PUSH2 0x540 PUSH2 0x41E JUMP JUMPDEST JUMPDEST DUP2 CALLDATALOAD PUSH2 0x551 DUP5 DUP3 PUSH1 0x20 DUP7 ADD PUSH2 0x4EC JUMP JUMPDEST SWAP2 POP POP SWAP3 SWAP2 POP POP JUMP JUMPDEST PUSH0 PUSH0 PUSH1 0x40 DUP4 DUP6 SUB SLT ISZERO PUSH2 0x570 JUMPI PUSH2 0x56F PUSH2 0x3BC JUMP JUMPDEST JUMPDEST PUSH0 PUSH2 0x57D DUP6 DUP3 DUP7 ADD PUSH2 0x40A JUMP JUMPDEST SWAP3 POP POP PUSH1 0x20 DUP4 ADD CALLDATALOAD PUSH8 0xFFFFFFFFFFFFFFFF DUP2 GT ISZERO PUSH2 0x59E JUMPI PUSH2 0x59D PUSH2 0x3C0 JUMP JUMPDEST JUMPDEST PUSH2 0x5AA DUP6 DUP3 DUP7 ADD PUSH2 0x52D JUMP JUMPDEST SWAP2 POP POP SWAP3 POP SWAP3 SWAP1 POP JUMP JUMPDEST PUSH0 DUP2 ISZERO ISZERO SWAP1 POP SWAP2 SWAP1 POP JUMP JUMPDEST PUSH2 0x5C8 DUP2 PUSH2 0x5B4 JUMP JUMPDEST DUP3 MSTORE POP POP JUMP JUMPDEST PUSH0 DUP2 MLOAD SWAP1 POP SWAP2 SWAP1 POP JUMP JUMPDEST PUSH0 DUP3 DUP3 MSTORE PUSH1 0x20 DUP3 ADD SWAP1 POP SWAP3 SWAP2 POP POP JUMP JUMPDEST DUP3 DUP2 DUP4 MCOPY PUSH0 DUP4 DUP4 ADD MSTORE POP POP POP JUMP JUMPDEST PUSH0 PUSH2 0x600 DUP3 PUSH2 0x5CE JUMP JUMPDEST PUSH2 0x60A DUP2 DUP6 PUSH2 0x5D8 JUMP JUMPDEST SWAP4 POP PUSH2 0x61A DUP2 DUP6 PUSH1 0x20 DUP7 ADD PUSH2 0x5E8 JUMP JUMPDEST PUSH2 0x623 DUP2 PUSH2 0x426 JUMP JUMPDEST DUP5 ADD SWAP2 POP POP SWAP3 SWAP2 POP POP JUMP JUMPDEST PUSH0 PUSH1 0x40 DUP3 ADD SWAP1 POP PUSH2 0x641 PUSH0 DUP4 ADD DUP6 PUSH2 0x5BF JUMP JUMPDEST DUP2 DUP2 SUB PUSH1 0x20 DUP4 ADD MSTORE PUSH2 0x653 DUP2 DUP5 PUSH2 0x5F6 JUMP JUMPDEST SWAP1 POP SWAP4 SWAP3 POP POP POP JUMP JUMPDEST PUSH2 0x665 DUP2 PUSH2 0x3E3 JUMP JUMPDEST DUP3 MSTORE POP POP JUMP JUMPDEST PUSH0 PUSH1 0x20 DUP3 ADD SWAP1 POP PUSH2 0x67E PUSH0 DUP4 ADD DUP5 PUSH2 0x65C JUMP JUMPDEST SWAP3 SWAP2 POP POP JUMP JUMPDEST PUSH0 PUSH1 0x20 DUP3 DUP5 SUB SLT ISZERO PUSH2 0x699 JUMPI PUSH2 0x698 PUSH2 0x3BC JUMP JUMPDEST JUMPDEST PUSH0 PUSH2 0x6A6 DUP5 DUP3 DUP6 ADD PUSH2 0x40A JUMP JUMPDEST SWAP2 POP POP SWAP3 SWAP2 POP POP JUMP JUMPDEST PUSH0 PUSH1 0x20 DUP3 ADD SWAP1 POP DUP2 DUP2 SUB PUSH0 DUP4 ADD MSTORE PUSH2 0x6C7 DUP2 DUP5 PUSH2 0x5F6 JUMP JUMPDEST SWAP1 POP SWAP3 SWAP2 POP POP JUMP JUMPDEST PUSH0 PUSH0 PUSH1 0x40 DUP4 DUP6 SUB SLT ISZERO PUSH2 0x6E5 JUMPI PUSH2 0x6E4 PUSH2 0x3BC JUMP JUMPDEST JUMPDEST PUSH0 PUSH2 0x6F2 DUP6 DUP3 DUP7 ADD PUSH2 0x40A JUMP JUMPDEST SWAP3 POP POP PUSH1 0x20 PUSH2 0x703 DUP6 DUP3 DUP7 ADD PUSH2 0x40A JUMP JUMPDEST SWAP2 POP POP SWAP3 POP SWAP3 SWAP1 POP JUMP JUMPDEST PUSH0 PUSH1 0x20 DUP3 ADD SWAP1 POP PUSH2 0x720 PUSH0 DUP4 ADD DUP5 PUSH2 0x5BF JUMP JUMPDEST SWAP3 SWAP2 POP POP JUMP JUMPDEST PUSH0 DUP2 SWAP1 POP SWAP2 SWAP1 POP JUMP JUMPDEST PUSH2 0x738 DUP2 PUSH2 0x726 JUMP JUMPDEST DUP2 EQ PUSH2 0x742 JUMPI PUSH0 PUSH0 REVERT JUMPDEST POP JUMP JUMPDEST PUSH0 DUP2 CALLDATALOAD SWAP1 POP PUSH2 0x753 DUP2 PUSH2 0x72F JUMP JUMPDEST SWAP3 SWAP2 POP POP JUMP JUMPDEST PUSH0 PUSH0 PUSH1 0x40 DUP4 DUP6 SUB SLT ISZERO PUSH2 0x76F JUMPI PUSH2 0x76E PUSH2 0x3BC JUMP JUMPDEST JUMPDEST PUSH0 PUSH2 0x77C DUP6 DUP3 DUP7 ADD PUSH2 0x745 JUMP JUMPDEST SWAP3 POP POP PUSH1 0x20 PUSH2 0x78D DUP6 DUP3 DUP7 ADD PUSH2 0x745 JUMP JUMPDEST SWAP2 POP POP SWAP3 POP SWAP3 SWAP1 POP JUMP JUMPDEST PUSH2 0x7A0 DUP2 PUSH2 0x726 JUMP JUMPDEST DUP3 MSTORE POP POP JUMP JUMPDEST PUSH0 PUSH1 0x20 DUP3 ADD SWAP1 POP PUSH2 0x7B9 PUSH0 DUP4 ADD DUP5 PUSH2 0x797 JUMP JUMPDEST SWAP3 SWAP2 POP POP JUMP JUMPDEST PUSH0 DUP2 SWAP1 POP SWAP3 SWAP2 POP POP JUMP JUMPDEST PUSH0 PUSH2 0x7D3 DUP3 PUSH2 0x5CE JUMP JUMPDEST PUSH2 0x7DD DUP2 DUP6 PUSH2 0x7BF JUMP JUMPDEST SWAP4 POP PUSH2 0x7ED DUP2 DUP6 PUSH1 0x20 DUP7 ADD PUSH2 0x5E8 JUMP JUMPDEST DUP1 DUP5 ADD SWAP2 POP POP SWAP3 SWAP2 POP POP JUMP JUMPDEST PUSH0 PUSH2 0x804 DUP3 DUP5 PUSH2 0x7C9 JUMP JUMPDEST SWAP2 POP DUP2 SWAP1 POP SWAP3 SWAP2 POP POP JUMP JUMPDEST PUSH0 DUP2 PUSH1 0x60 SHL SWAP1 POP SWAP2 SWAP1 POP JUMP JUMPDEST PUSH0 PUSH2 0x825 DUP3 PUSH2 0x80F JUMP JUMPDEST SWAP1 POP SWAP2 SWAP1 POP JUMP JUMPDEST PUSH0 PUSH2 0x836 DUP3 PUSH2 0x81B JUMP JUMPDEST SWAP1 POP SWAP2 SWAP1 POP JUMP JUMPDEST PUSH2 0x84E PUSH2 0x849 DUP3 PUSH2 0x3E3 JUMP JUMPDEST PUSH2 0x82C JUMP JUMPDEST DUP3 MSTORE POP POP JUMP JUMPDEST PUSH0 PUSH2 0x85F DUP3 DUP5 PUSH2 0x83D JUMP JUMPDEST PUSH1 0x14 DUP3 ADD SWAP2 POP DUP2 SWAP1 POP SWAP3 SWAP2 POP POP JUMP JUMPDEST PUSH32 0x4E487B7100000000000000000000000000000000000000000000000000000000 PUSH0 MSTORE PUSH1 0x11 PUSH1 0x4 MSTORE PUSH1 0x24 PUSH0 REVERT JUMPDEST PUSH0 PUSH2 0x8A5 DUP3 PUSH2 0x726 JUMP JUMPDEST SWAP2 POP PUSH2 0x8B0 DUP4 PUSH2 0x726 JUMP JUMPDEST SWAP3 POP DUP3 DUP3 ADD SWAP1 POP DUP1 DUP3 GT ISZERO PUSH2 0x8C8 JUMPI PUSH2 0x8C7 PUSH2 0x86E JUMP JUMPDEST JUMPDEST SWAP3 SWAP2 POP POP JUMP INVALID LOG2 PUSH5 0x6970667358 0x22 SLT KECCAK256 RETF SWAP15 0xBA SWAP14 0x2E DUP14 GASLIMIT 0xAC PUSH18 0x716D3735B32110E8773C79AAA8B5A30FDF80 0xBD PUSH6 0x1BFD5864736F PUSH13 0x634300081E0033000000000000 "
		},
		"gasEstimates": {
			"creation": {
				"codeDepositCost": "461600",
				"executionCost": "24762",
				"totalCost": "486362"
			},
			"external": {
				"callContract(address,bytes)": "infinite",
				"caller()": "2574",
				"compareAddress(address,address)": "infinite",
				"getBalance(address)": "3291",
				"myAddress()": "2530",
				"sendEther(address)": "infinite",
				"test(uint256,uint256)": "infinite",
				"toBytes(address)": "infinite"
			}
		},
		"methodIdentifiers": {
			"callContract(address,bytes)": "03710668",
			"caller()": "fc9c8d39",
			"compareAddress(address,address)": "95e885c0",
			"getBalance(address)": "f8b2cb4f",
			"myAddress()": "26b85ee1",
			"sendEther(address)": "48c981e2",
			"test(uint256,uint256)": "eb8ac921",
			"toBytes(address)": "593b79fe"
		}
	},
	"abi": [
		{
			"inputs": [
				{
					"internalType": "address",
					"name": "addr",
					"type": "address"
				},
				{
					"internalType": "bytes",
					"name": "data",
					"type": "bytes"
				}
			],
			"name": "callContract",
			"outputs": [
				{
					"internalType": "bool",
					"name": "",
					"type": "bool"
				},
				{
					"internalType": "bytes",
					"name": "",
					"type": "bytes"
				}
			],
			"stateMutability": "nonpayable",
			"type": "function"
		},
		{
			"inputs": [],
			"name": "caller",
			"outputs": [
				{
					"internalType": "address",
					"name": "",
					"type": "address"
				}
			],
			"stateMutability": "view",
			"type": "function"
		},
		{
			"inputs": [
				{
					"internalType": "address",
					"name": "addr1",
					"type": "address"
				},
				{
					"internalType": "address",
					"name": "addr2",
					"type": "address"
				}
			],
			"name": "compareAddress",
			"outputs": [
				{
					"internalType": "bool",
					"name": "",
					"type": "bool"
				}
			],
			"stateMutability": "pure",
			"type": "function"
		},
		{
			"inputs": [
				{
					"internalType": "address",
					"name": "addr",
					"type": "address"
				}
			],
			"name": "getBalance",
			"outputs": [
				{
					"internalType": "uint256",
					"name": "",
					"type": "uint256"
				}
			],
			"stateMutability": "view",
			"type": "function"
		},
		{
			"inputs": [],
			"name": "myAddress",
			"outputs": [
				{
					"internalType": "address",
					"name": "",
					"type": "address"
				}
			],
			"stateMutability": "view",
			"type": "function"
		},
		{
			"inputs": [
				{
					"internalType": "address",
					"name": "recipient",
					"type": "address"
				}
			],
			"name": "sendEther",
			"outputs": [],
			"stateMutability": "payable",
			"type": "function"
		},
		{
			"inputs": [
				{
					"internalType": "uint256",
					"name": "a",
					"type": "uint256"
				},
				{
					"internalType": "uint256",
					"name": "b",
					"type": "uint256"
				}
			],
			"name": "test",
			"outputs": [
				{
					"internalType": "uint256",
					"name": "",
					"type": "uint256"
				}
			],
			"stateMutability": "pure",
			"type": "function"
		},
		{
			"inputs": [
				{
					"internalType": "address",
					"name": "addr",
					"type": "address"
				}
			],
			"name": "toBytes",
			"outputs": [
				{
					"internalType": "bytes",
					"name": "",
					"type": "bytes"
				}
			],
			"stateMutability": "pure",
			"type": "function"
		}
	]
}