{
	"data": {
		"bytecode": {
			"linkReferences": {},
			"object": "6080604052348015600e575f5ffd5b506108a98061001c5f395ff3fe608060405234801561000f575f5ffd5b5060043610610034575f3560e01c80636ed9cbcc14610038578063cb159dfe14610068575b5f5ffd5b610052600480360381019061004d9190610556565b610098565b60405161005f9190610599565b60405180910390f35b610082600480360381019061007d91906106ee565b6100ac565b60405161008f9190610599565b60405180910390f35b5f602052805f5260405f205f915090505481565b5f60015f5f7f49000000000000000000000000000000000000000000000000000000000000007effffffffffffffffffffffffffffffffffffffffffffffffffffffffffffff19167effffffffffffffffffffffffffffffffffffffffffffffffffffffffffffff191681526020019081526020015f208190555060055f5f7f56000000000000000000000000000000000000000000000000000000000000007effffffffffffffffffffffffffffffffffffffffffffffffffffffffffffff19167effffffffffffffffffffffffffffffffffffffffffffffffffffffffffffff191681526020019081526020015f2081905550600a5f5f7f58000000000000000000000000000000000000000000000000000000000000007effffffffffffffffffffffffffffffffffffffffffffffffffffffffffffff19167effffffffffffffffffffffffffffffffffffffffffffffffffffffffffffff191681526020019081526020015f208190555060325f5f7f4c000000000000000000000000000000000000000000000000000000000000007effffffffffffffffffffffffffffffffffffffffffffffffffffffffffffff19167effffffffffffffffffffffffffffffffffffffffffffffffffffffffffffff191681526020019081526020015f208190555060645f5f7f43000000000000000000000000000000000000000000000000000000000000007effffffffffffffffffffffffffffffffffffffffffffffffffffffffffffff19167effffffffffffffffffffffffffffffffffffffffffffffffffffffffffffff191681526020019081526020015f20819055506101f45f5f7f44000000000000000000000000000000000000000000000000000000000000007effffffffffffffffffffffffffffffffffffffffffffffffffffffffffffff19167effffffffffffffffffffffffffffffffffffffffffffffffffffffffffffff191681526020019081526020015f20819055506103e85f5f7f4d000000000000000000000000000000000000000000000000000000000000007effffffffffffffffffffffffffffffffffffffffffffffffffffffffffffff19167effffffffffffffffffffffffffffffffffffffffffffffffffffffffffffff191681526020019081526020015f20819055505f5f90505f5f90505f8490505f60018251610420919061076b565b90505b5f81106104e4575f82828151811061043e5761043d61079e565b5b602001015160f81c60f81b90505f5f5f837effffffffffffffffffffffffffffffffffffffffffffffffffffffffffffff19167effffffffffffffffffffffffffffffffffffffffffffffffffffffffffffff191681526020019081526020015f205490508481126104bd5780866104b691906107cb565b95506104cc565b80866104c9919061080c565b95505b809450505080806104dc9061084c565b915050610423565b50829350505050919050565b5f604051905090565b5f5ffd5b5f5ffd5b5f7fff0000000000000000000000000000000000000000000000000000000000000082169050919050565b61053581610501565b811461053f575f5ffd5b50565b5f813590506105508161052c565b92915050565b5f6020828403121561056b5761056a6104f9565b5b5f61057884828501610542565b91505092915050565b5f819050919050565b61059381610581565b82525050565b5f6020820190506105ac5f83018461058a565b92915050565b5f5ffd5b5f5ffd5b5f601f19601f8301169050919050565b7f4e487b71000000000000000000000000000000000000000000000000000000005f52604160045260245ffd5b610600826105ba565b810181811067ffffffffffffffff8211171561061f5761061e6105ca565b5b80604052505050565b5f6106316104f0565b905061063d82826105f7565b919050565b5f67ffffffffffffffff82111561065c5761065b6105ca565b5b610665826105ba565b9050602081019050919050565b828183375f83830152505050565b5f61069261068d84610642565b610628565b9050828152602081018484840111156106ae576106ad6105b6565b5b6106b9848285610672565b509392505050565b5f82601f8301126106d5576106d46105b2565b5b81356106e5848260208601610680565b91505092915050565b5f60208284031215610703576107026104f9565b5b5f82013567ffffffffffffffff8111156107205761071f6104fd565b5b61072c848285016106c1565b91505092915050565b5f819050919050565b7f4e487b71000000000000000000000000000000000000000000000000000000005f52601160045260245ffd5b5f61077582610735565b915061078083610735565b92508282039050818111156107985761079761073e565b5b92915050565b7f4e487b71000000000000000000000000000000000000000000000000000000005f52603260045260245ffd5b5f6107d582610581565b91506107e083610581565b92508282019050828112155f8312168382125f8412151617156108065761080561073e565b5b92915050565b5f61081682610581565b915061082183610581565b925082820390508181125f8412168282135f8512151617156108465761084561073e565b5b92915050565b5f61085682610735565b91505f82036108685761086761073e565b5b60018203905091905056fea2646970667358221220ebe39e7e559b49d00be45ea4494d24c6ce3097a1513b117ccf551ea075ecf0ae64736f6c634300081e0033",
			"opcodes": "PUSH1 0x80 PUSH1 0x40 MSTORE CALLVALUE DUP1 ISZERO PUSH1 0xE JUMPI PUSH0 PUSH0 REVERT JUMPDEST POP PUSH2 0x8A9 DUP1 PUSH2 0x1C PUSH0 CODECOPY PUSH0 RETURN INVALID PUSH1 0x80 PUSH1 0x40 MSTORE CALLVALUE DUP1 ISZERO PUSH2 0xF JUMPI PUSH0 PUSH0 REVERT JUMPDEST POP PUSH1 0x4 CALLDATASIZE LT PUSH2 0x34 JUMPI PUSH0 CALLDATALOAD PUSH1 0xE0 SHR DUP1 PUSH4 0x6ED9CBCC EQ PUSH2 0x38 JUMPI DUP1 PUSH4 0xCB159DFE EQ PUSH2 0x68 JUMPI JUMPDEST PUSH0 PUSH0 REVERT JUMPDEST PUSH2 0x52 PUSH1 0x4 DUP1 CALLDATASIZE SUB DUP2 ADD SWAP1 PUSH2 0x4D SWAP2 SWAP1 PUSH2 0x556 JUMP JUMPDEST PUSH2 0x98 JUMP JUMPDEST PUSH1 0x40 MLOAD PUSH2 0x5F SWAP2 SWAP1 PUSH2 0x599 JUMP JUMPDEST PUSH1 0x40 MLOAD DUP1 SWAP2 SUB SWAP1 RETURN JUMPDEST PUSH2 0x82 PUSH1 0x4 DUP1 CALLDATASIZE SUB DUP2 ADD SWAP1 PUSH2 0x7D SWAP2 SWAP1 PUSH2 0x6EE JUMP JUMPDEST PUSH2 0xAC JUMP JUMPDEST PUSH1 0x40 MLOAD PUSH2 0x8F SWAP2 SWAP1 PUSH2 0x599 JUMP JUMPDEST PUSH1 0x40 MLOAD DUP1 SWAP2 SUB SWAP1 RETURN JUMPDEST PUSH0 PUSH1 0x20 MSTORE DUP1 PUSH0 MSTORE PUSH1 0x40 PUSH0 KECCAK256 PUSH0 SWAP2 POP SWAP1 POP SLOAD DUP2 JUMP JUMPDEST PUSH0 PUSH1 0x1 PUSH0 PUSH0 PUSH32 0x4900000000000000000000000000000000000000000000000000000000000000 PUSH31 0xFFFFFFFFFFFFFFFFFFFFFFFFFFFFFFFFFFFFFFFFFFFFFFFFFFFFFFFFFFFFFF NOT AND PUSH31 0xFFFFFFFFFFFFFFFFFFFFFFFFFFFFFFFFFFFFFFFFFFFFFFFFFFFFFFFFFFFFFF NOT AND DUP2 MSTORE PUSH1 0x20 ADD SWAP1 DUP2 MSTORE PUSH1 0x20 ADD PUSH0 KECCAK256 DUP2 SWAP1 SSTORE POP PUSH1 0x5 PUSH0 PUSH0 PUSH32 0x5600000000000000000000000000000000000000000000000000000000000000 PUSH31 0xFFFFFFFFFFFFFFFFFFFFFFFFFFFFFFFFFFFFFFFFFFFFFFFFFFFFFFFFFFFFFF NOT AND PUSH31 0xFFFFFFFFFFFFFFFFFFFFFFFFFFFFFFFFFFFFFFFFFFFFFFFFFFFFFFFFFFFFFF NOT AND DUP2 MSTORE PUSH1 0x20 ADD SWAP1 DUP2 MSTORE PUSH1 0x20 ADD PUSH0 KECCAK256 DUP2 SWAP1 SSTORE POP PUSH1 0xA PUSH0 PUSH0 PUSH32 0x5800000000000000000000000000000000000000000000000000000000000000 PUSH31 0xFFFFFFFFFFFFFFFFFFFFFFFFFFFFFFFFFFFFFFFFFFFFFFFFFFFFFFFFFFFFFF NOT AND PUSH31 0xFFFFFFFFFFFFFFFFFFFFFFFFFFFFFFFFFFFFFFFFFFFFFFFFFFFFFFFFFFFFFF NOT AND DUP2 MSTORE PUSH1 0x20 ADD SWAP1 DUP2 MSTORE PUSH1 0x20 ADD PUSH0 KECCAK256 DUP2 SWAP1 SSTORE POP PUSH1 0x32 PUSH0 PUSH0 PUSH32 0x4C00000000000000000000000000000000000000000000000000000000000000 PUSH31 0xFFFFFFFFFFFFFFFFFFFFFFFFFFFFFFFFFFFFFFFFFFFFFFFFFFFFFFFFFFFFFF NOT AND PUSH31 0xFFFFFFFFFFFFFFFFFFFFFFFFFFFFFFFFFFFFFFFFFFFFFFFFFFFFFFFFFFFFFF NOT AND DUP2 MSTORE PUSH1 0x20 ADD SWAP1 DUP2 MSTORE PUSH1 0x20 ADD PUSH0 KECCAK256 DUP2 SWAP1 SSTORE POP PUSH1 0x64 PUSH0 PUSH0 PUSH32 0x4300000000000000000000000000000000000000000000000000000000000000 PUSH31 0xFFFFFFFFFFFFFFFFFFFFFFFFFFFFFFFFFFFFFFFFFFFFFFFFFFFFFFFFFFFFFF NOT AND PUSH31 0xFFFFFFFFFFFFFFFFFFFFFFFFFFFFFFFFFFFFFFFFFFFFFFFFFFFFFFFFFFFFFF NOT AND DUP2 MSTORE PUSH1 0x20 ADD SWAP1 DUP2 MSTORE PUSH1 0x20 ADD PUSH0 KECCAK256 DUP2 SWAP1 SSTORE POP PUSH2 0x1F4 PUSH0 PUSH0 PUSH32 0x4400000000000000000000000000000000000000000000000000000000000000 PUSH31 0xFFFFFFFFFFFFFFFFFFFFFFFFFFFFFFFFFFFFFFFFFFFFFFFFFFFFFFFFFFFFFF NOT AND PUSH31 0xFFFFFFFFFFFFFFFFFFFFFFFFFFFFFFFFFFFFFFFFFFFFFFFFFFFFFFFFFFFFFF NOT AND DUP2 MSTORE PUSH1 0x20 ADD SWAP1 DUP2 MSTORE PUSH1 0x20 ADD PUSH0 KECCAK256 DUP2 SWAP1 SSTORE POP PUSH2 0x3E8 PUSH0 PUSH0 PUSH32 0x4D00000000000000000000000000000000000000000000000000000000000000 PUSH31 0xFFFFFFFFFFFFFFFFFFFFFFFFFFFFFFFFFFFFFFFFFFFFFFFFFFFFFFFFFFFFFF NOT AND PUSH31 0xFFFFFFFFFFFFFFFFFFFFFFFFFFFFFFFFFFFFFFFFFFFFFFFFFFFFFFFFFFFFFF NOT AND DUP2 MSTORE PUSH1 0x20 ADD SWAP1 DUP2 MSTORE PUSH1 0x20 ADD PUSH0 KECCAK256 DUP2 SWAP1 SSTORE POP PUSH0 PUSH0 SWAP1 POP PUSH0 PUSH0 SWAP1 POP PUSH0 DUP5 SWAP1 POP PUSH0 PUSH1 0x1 DUP3 MLOAD PUSH2 0x420 SWAP2 SWAP1 PUSH2 0x76B JUMP JUMPDEST SWAP1 POP JUMPDEST PUSH0 DUP2 LT PUSH2 0x4E4 JUMPI PUSH0 DUP3 DUP3 DUP2 MLOAD DUP2 LT PUSH2 0x43E JUMPI PUSH2 0x43D PUSH2 0x79E JUMP JUMPDEST JUMPDEST PUSH1 0x20 ADD ADD MLOAD PUSH1 0xF8 SHR PUSH1 0xF8 SHL SWAP1 POP PUSH0 PUSH0 PUSH0 DUP4 PUSH31 0xFFFFFFFFFFFFFFFFFFFFFFFFFFFFFFFFFFFFFFFFFFFFFFFFFFFFFFFFFFFFFF NOT AND PUSH31 0xFFFFFFFFFFFFFFFFFFFFFFFFFFFFFFFFFFFFFFFFFFFFFFFFFFFFFFFFFFFFFF NOT AND DUP2 MSTORE PUSH1 0x20 ADD SWAP1 DUP2 MSTORE PUSH1 0x20 ADD PUSH0 KECCAK256 SLOAD SWAP1 POP DUP5 DUP2 SLT PUSH2 0x4BD JUMPI DUP1 DUP7 PUSH2 0x4B6 SWAP2 SWAP1 PUSH2 0x7CB JUMP JUMPDEST SWAP6 POP PUSH2 0x4CC JUMP JUMPDEST DUP1 DUP7 PUSH2 0x4C9 SWAP2 SWAP1 PUSH2 0x80C JUMP JUMPDEST SWAP6 POP JUMPDEST DUP1 SWAP5 POP POP POP DUP1 DUP1 PUSH2 0x4DC SWAP1 PUSH2 0x84C JUMP JUMPDEST SWAP2 POP POP PUSH2 0x423 JUMP JUMPDEST POP DUP3 SWAP4 POP POP POP POP SWAP2 SWAP1 POP JUMP JUMPDEST PUSH0 PUSH1 0x40 MLOAD SWAP1 POP SWAP1 JUMP JUMPDEST PUSH0 PUSH0 REVERT JUMPDEST PUSH0 PUSH0 REVERT JUMPDEST PUSH0 PUSH32 0xFF00000000000000000000000000000000000000000000000000000000000000 DUP3 AND SWAP1 POP SWAP2 SWAP1 POP JUMP JUMPDEST PUSH2 0x535 DUP2 PUSH2 0x501 JUMP JUMPDEST DUP2 EQ PUSH2 0x53F JUMPI PUSH0 PUSH0 REVERT JUMPDEST POP JUMP JUMPDEST PUSH0 DUP2 CALLDATALOAD SWAP1 POP PUSH2 0x550 DUP2 PUSH2 0x52C JUMP JUMPDEST SWAP3 SWAP2 POP POP JUMP JUMPDEST PUSH0 PUSH1 0x20 DUP3 DUP5 SUB SLT ISZERO PUSH2 0x56B JUMPI PUSH2 0x56A PUSH2 0x4F9 JUMP JUMPDEST JUMPDEST PUSH0 PUSH2 0x578 DUP5 DUP3 DUP6 ADD PUSH2 0x542 JUMP JUMPDEST SWAP2 POP POP SWAP3 SWAP2 POP POP JUMP JUMPDEST PUSH0 DUP2 SWAP1 POP SWAP2 SWAP1 POP JUMP JUMPDEST PUSH2 0x593 DUP2 PUSH2 0x581 JUMP JUMPDEST DUP3 MSTORE POP POP JUMP JUMPDEST PUSH0 PUSH1 0x20 DUP3 ADD SWAP1 POP PUSH2 0x5AC PUSH0 DUP4 ADD DUP5 PUSH2 0x58A JUMP JUMPDEST SWAP3 SWAP2 POP POP JUMP JUMPDEST PUSH0 PUSH0 REVERT JUMPDEST PUSH0 PUSH0 REVERT JUMPDEST PUSH0 PUSH1 0x1F NOT PUSH1 0x1F DUP4 ADD AND SWAP1 POP SWAP2 SWAP1 POP JUMP JUMPDEST PUSH32 0x4E487B7100000000000000000000000000000000000000000000000000000000 PUSH0 MSTORE PUSH1 0x41 PUSH1 0x4 MSTORE PUSH1 0x24 PUSH0 REVERT JUMPDEST PUSH2 0x600 DUP3 PUSH2 0x5BA JUMP JUMPDEST DUP2 ADD DUP2 DUP2 LT PUSH8 0xFFFFFFFFFFFFFFFF DUP3 GT OR ISZERO PUSH2 0x61F JUMPI PUSH2 0x61E PUSH2 0x5CA JUMP JUMPDEST JUMPDEST DUP1 PUSH1 0x40 MSTORE POP POP POP JUMP JUMPDEST PUSH0 PUSH2 0x631 PUSH2 0x4F0 JUMP JUMPDEST SWAP1 POP PUSH2 0x63D DUP3 DUP3 PUSH2 0x5F7 JUMP JUMPDEST SWAP2 SWAP1 POP JUMP JUMPDEST PUSH0 PUSH8 0xFFFFFFFFFFFFFFFF DUP3 GT ISZERO PUSH2 0x65C JUMPI PUSH2 0x65B PUSH2 0x5CA JUMP JUMPDEST JUMPDEST PUSH2 0x665 DUP3 PUSH2 0x5BA JUMP JUMPDEST SWAP1 POP PUSH1 0x20 DUP2 ADD SWAP1 POP SWAP2 SWAP1 POP JUMP JUMPDEST DUP3 DUP2 DUP4 CALLDATACOPY PUSH0 DUP4 DUP4 ADD MSTORE POP POP POP JUMP JUMPDEST PUSH0 PUSH2 0x692 PUSH2 0x68D DUP5 PUSH2 0x642 JUMP JUMPDEST PUSH2 0x628 JUMP JUMPDEST SWAP1 POP DUP3 DUP2 MSTORE PUSH1 0x20 DUP2 ADD DUP5 DUP5 DUP5 ADD GT ISZERO PUSH2 0x6AE JUMPI PUSH2 0x6AD PUSH2 0x5B6 JUMP JUMPDEST JUMPDEST PUSH2 0x6B9 DUP5 DUP3 DUP6 PUSH2 0x672 JUMP JUMPDEST POP SWAP4 SWAP3 POP POP POP JUMP JUMPDEST PUSH0 DUP3 PUSH1 0x1F DUP4 ADD SLT PUSH2 0x6D5 JUMPI PUSH2 0x6D4 PUSH2 0x5B2 JUMP JUMPDEST JUMPDEST DUP2 CALLDATALOAD PUSH2 0x6E5 DUP5 DUP3 PUSH1 0x20 DUP7 ADD PUSH2 0x680 JUMP JUMPDEST SWAP2 POP POP SWAP3 SWAP2 POP POP JUMP JUMPDEST PUSH0 PUSH1 0x20 DUP3 DUP5 SUB SLT ISZERO PUSH2 0x703 JUMPI PUSH2 0x702 PUSH2 0x4F9 JUMP JUMPDEST JUMPDEST PUSH0 DUP3 ADD CALLDATALOAD PUSH8 0xFFFFFFFFFFFFFFFF DUP2 GT ISZERO PUSH2 0x720 JUMPI PUSH2 0x71F PUSH2 0x4FD JUMP JUMPDEST JUMPDEST PUSH2 0x72C DUP5 DUP3 DUP6 ADD PUSH2 0x6C1 JUMP JUMPDEST SWAP2 POP POP SWAP3 SWAP2 POP POP JUMP JUMPDEST PUSH0 DUP2 SWAP1 POP SWAP2 SWAP1 POP JUMP JUMPDEST PUSH32 0x4E487B7100000000000000000000000000000000000000000000000000000000 PUSH0 MSTORE PUSH1 0x11 PUSH1 0x4 MSTORE PUSH1 0x24 PUSH0 REVERT JUMPDEST PUSH0 PUSH2 0x775 DUP3 PUSH2 0x735 JUMP JUMPDEST SWAP2 POP PUSH2 0x780 DUP4 PUSH2 0x735 JUMP JUMPDEST SWAP3 POP DUP3 DUP3 SUB SWAP1 POP DUP2 DUP2 GT ISZERO PUSH2 0x798 JUMPI PUSH2 0x797 PUSH2 0x73E JUMP JUMPDEST JUMPDEST SWAP3 SWAP2 POP POP JUMP JUMPDEST PUSH32 0x4E487B7100000000000000000000000000000000000000000000000000000000 PUSH0 MSTORE PUSH1 0x32 PUSH1 0x4 MSTORE PUSH1 0x24 PUSH0 REVERT JUMPDEST PUSH0 PUSH2 0x7D5 DUP3 PUSH2 0x581 JUMP JUMPDEST SWAP2 POP PUSH2 0x7E0 DUP4 PUSH2 0x581 JUMP JUMPDEST SWAP3 POP DUP3 DUP3 ADD SWAP1 POP DUP3 DUP2 SLT ISZERO PUSH0 DUP4 SLT AND DUP4 DUP3 SLT PUSH0 DUP5 SLT ISZERO AND OR ISZERO PUSH2 0x806 JUMPI PUSH2 0x805 PUSH2 0x73E JUMP JUMPDEST JUMPDEST SWAP3 SWAP2 POP POP JUMP JUMPDEST PUSH0 PUSH2 0x816 DUP3 PUSH2 0x581 JUMP JUMPDEST SWAP2 POP PUSH2 0x821 DUP4 PUSH2 0x581 JUMP JUMPDEST SWAP3 POP DUP3 DUP3 SUB SWAP1 POP DUP2 DUP2 SLT PUSH0 DUP5 SLT AND DUP3 DUP3 SGT PUSH0 DUP6 SLT ISZERO AND OR ISZERO PUSH2 0x846 JUMPI PUSH2 0x845 PUSH2 0x73E JUMP JUMPDEST JUMPDEST SWAP3 SWAP2 POP POP JUMP JUMPDEST PUSH0 PUSH2 0x856 DUP3 PUSH2 0x735 JUMP JUMPDEST SWAP2 POP PUSH0 DUP3 SUB PUSH2 0x868 JUMPI PUSH2 0x867 PUSH2 0x73E JUMP JUMPDEST JUMPDEST PUSH1 0x1 DUP3 SUB SWAP1 POP SWAP2 SWAP1 POP JUMP INVALID LOG2 PUSH5 0x6970667358 0x22 SLT KECCAK256 0xEB CALLF 0x9E7E SSTORE SWAP12 BLOBHASH 0xD0 SIGNEXTEND RETF MCOPY LOG4 BLOBHASH 0x4D 0x24 0xC6 0xCE ADDRESS SWAP8 LOG1 MLOAD EXTCODESIZE GT PUSH29 0xCF551EA075ECF0AE64736F6C634300081E003300000000000000000000 "
		},
		"gasEstimates": {
			"creation": {
				"codeDepositCost": "443400",
				"executionCost": "478",
				"totalCost": "443878"
			},
			"external": {
				"romanData(bytes1)": "2737",
				"romanToInt(string)": "infinite"
			}
		},
		"methodIdentifiers": {
			"romanData(bytes1)": "6ed9cbcc",
			"romanToInt(string)": "cb159dfe"
		}
	},
	"abi": [
		{
			"inputs": [
				{
					"internalType": "bytes1",
					"name": "",
					"type": "bytes1"
				}
			],
			"name": "romanData",
			"outputs": [
				{
					"internalType": "int256",
					"name": "",
					"type": "int256"
				}
			],
			"stateMutability": "view",
			"type": "function"
		},
		{
			"inputs": [
				{
					"internalType": "string",
					"name": "roman",
					"type": "string"
				}
			],
			"name": "romanToInt",
			"outputs": [
				{
					"internalType": "int256",
					"name": "",
					"type": "int256"
				}
			],
			"stateMutability": "nonpayable",
			"type": "function"
		}
	]
}