{
	"data": {
		"bytecode": {
			"linkReferences": {},
			"object": "6080604052348015600e575f5ffd5b506102678061001c5f395ff3fe608060405234801561000f575f5ffd5b5060043610610049575f3560e01c806235921a1461004d5780636c1f222f1461006b57806372a099b714610089578063bb4e3f4d146100a7575b5f5ffd5b6100556100d7565b604051610062919061014b565b60405180910390f35b6100736100ec565b604051610080919061014b565b60405180910390f35b610091610106565b60405161009e919061014b565b60405180910390f35b6100c160048036038101906100bc9190610192565b61011b565b6040516100ce919061014b565b60405180910390f35b5f5f608090505f600282029050809250505090565b5f5f60f090505f601090505f818301905080935050505090565b5f5f600190505f600282039050809250505090565b5f818361012891906101fd565b905092915050565b5f60ff82169050919050565b61014581610130565b82525050565b5f60208201905061015e5f83018461013c565b92915050565b5f5ffd5b61017181610130565b811461017b575f5ffd5b50565b5f8135905061018c81610168565b92915050565b5f5f604083850312156101a8576101a7610164565b5b5f6101b58582860161017e565b92505060206101c68582860161017e565b9150509250929050565b7f4e487b71000000000000000000000000000000000000000000000000000000005f52601160045260245ffd5b5f61020782610130565b915061021283610130565b9250828201905060ff81111561022b5761022a6101d0565b5b9291505056fea2646970667358221220553691f8e46c3c182fd6176c2c65d72c4c416a3df561bae291a05f20bcebfe2564736f6c634300081e0033",
			"opcodes": "PUSH1 0x80 PUSH1 0x40 MSTORE CALLVALUE DUP1 ISZERO PUSH1 0xE JUMPI PUSH0 PUSH0 REVERT JUMPDEST POP PUSH2 0x267 DUP1 PUSH2 0x1C PUSH0 CODECOPY PUSH0 RETURN INVALID PUSH1 0x80 PUSH1 0x40 MSTORE CALLVALUE DUP1 ISZERO PUSH2 0xF JUMPI PUSH0 PUSH0 REVERT JUMPDEST POP PUSH1 0x4 CALLDATASIZE LT PUSH2 0x49 JUMPI PUSH0 CALLDATALOAD PUSH1 0xE0 SHR DUP1 PUSH3 0x35921A EQ PUSH2 0x4D JUMPI DUP1 PUSH4 0x6C1F222F EQ PUSH2 0x6B JUMPI DUP1 PUSH4 0x72A099B7 EQ PUSH2 0x89 JUMPI DUP1 PUSH4 0xBB4E3F4D EQ PUSH2 0xA7 JUMPI JUMPDEST PUSH0 PUSH0 REVERT JUMPDEST PUSH2 0x55 PUSH2 0xD7 JUMP JUMPDEST PUSH1 0x40 MLOAD PUSH2 0x62 SWAP2 SWAP1 PUSH2 0x14B JUMP JUMPDEST PUSH1 0x40 MLOAD DUP1 SWAP2 SUB SWAP1 RETURN JUMPDEST PUSH2 0x73 PUSH2 0xEC JUMP JUMPDEST PUSH1 0x40 MLOAD PUSH2 0x80 SWAP2 SWAP1 PUSH2 0x14B JUMP JUMPDEST PUSH1 0x40 MLOAD DUP1 SWAP2 SUB SWAP1 RETURN JUMPDEST PUSH2 0x91 PUSH2 0x106 JUMP JUMPDEST PUSH1 0x40 MLOAD PUSH2 0x9E SWAP2 SWAP1 PUSH2 0x14B JUMP JUMPDEST PUSH1 0x40 MLOAD DUP1 SWAP2 SUB SWAP1 RETURN JUMPDEST PUSH2 0xC1 PUSH1 0x4 DUP1 CALLDATASIZE SUB DUP2 ADD SWAP1 PUSH2 0xBC SWAP2 SWAP1 PUSH2 0x192 JUMP JUMPDEST PUSH2 0x11B JUMP JUMPDEST PUSH1 0x40 MLOAD PUSH2 0xCE SWAP2 SWAP1 PUSH2 0x14B JUMP JUMPDEST PUSH1 0x40 MLOAD DUP1 SWAP2 SUB SWAP1 RETURN JUMPDEST PUSH0 PUSH0 PUSH1 0x80 SWAP1 POP PUSH0 PUSH1 0x2 DUP3 MUL SWAP1 POP DUP1 SWAP3 POP POP POP SWAP1 JUMP JUMPDEST PUSH0 PUSH0 PUSH1 0xF0 SWAP1 POP PUSH0 PUSH1 0x10 SWAP1 POP PUSH0 DUP2 DUP4 ADD SWAP1 POP DUP1 SWAP4 POP POP POP POP SWAP1 JUMP JUMPDEST PUSH0 PUSH0 PUSH1 0x1 SWAP1 POP PUSH0 PUSH1 0x2 DUP3 SUB SWAP1 POP DUP1 SWAP3 POP POP POP SWAP1 JUMP JUMPDEST PUSH0 DUP2 DUP4 PUSH2 0x128 SWAP2 SWAP1 PUSH2 0x1FD JUMP JUMPDEST SWAP1 POP SWAP3 SWAP2 POP POP JUMP JUMPDEST PUSH0 PUSH1 0xFF DUP3 AND SWAP1 POP SWAP2 SWAP1 POP JUMP JUMPDEST PUSH2 0x145 DUP2 PUSH2 0x130 JUMP JUMPDEST DUP3 MSTORE POP POP JUMP JUMPDEST PUSH0 PUSH1 0x20 DUP3 ADD SWAP1 POP PUSH2 0x15E PUSH0 DUP4 ADD DUP5 PUSH2 0x13C JUMP JUMPDEST SWAP3 SWAP2 POP POP JUMP JUMPDEST PUSH0 PUSH0 REVERT JUMPDEST PUSH2 0x171 DUP2 PUSH2 0x130 JUMP JUMPDEST DUP2 EQ PUSH2 0x17B JUMPI PUSH0 PUSH0 REVERT JUMPDEST POP JUMP JUMPDEST PUSH0 DUP2 CALLDATALOAD SWAP1 POP PUSH2 0x18C DUP2 PUSH2 0x168 JUMP JUMPDEST SWAP3 SWAP2 POP POP JUMP JUMPDEST PUSH0 PUSH0 PUSH1 0x40 DUP4 DUP6 SUB SLT ISZERO PUSH2 0x1A8 JUMPI PUSH2 0x1A7 PUSH2 0x164 JUMP JUMPDEST JUMPDEST PUSH0 PUSH2 0x1B5 DUP6 DUP3 DUP7 ADD PUSH2 0x17E JUMP JUMPDEST SWAP3 POP POP PUSH1 0x20 PUSH2 0x1C6 DUP6 DUP3 DUP7 ADD PUSH2 0x17E JUMP JUMPDEST SWAP2 POP POP SWAP3 POP SWAP3 SWAP1 POP JUMP JUMPDEST PUSH32 0x4E487B7100000000000000000000000000000000000000000000000000000000 PUSH0 MSTORE PUSH1 0x11 PUSH1 0x4 MSTORE PUSH1 0x24 PUSH0 REVERT JUMPDEST PUSH0 PUSH2 0x207 DUP3 PUSH2 0x130 JUMP JUMPDEST SWAP2 POP PUSH2 0x212 DUP4 PUSH2 0x130 JUMP JUMPDEST SWAP3 POP DUP3 DUP3 ADD SWAP1 POP PUSH1 0xFF DUP2 GT ISZERO PUSH2 0x22B JUMPI PUSH2 0x22A PUSH2 0x1D0 JUMP JUMPDEST JUMPDEST SWAP3 SWAP2 POP POP JUMP INVALID LOG2 PUSH5 0x6970667358 0x22 SLT KECCAK256 SSTORE CALLDATASIZE SWAP2 EXTCALL RETF PUSH13 0x3C182FD6176C2C65D72C4C416A RETURNDATASIZE CREATE2 PUSH2 0xBAE2 SWAP2 LOG0 PUSH0 KECCAK256 0xBC 0xEB INVALID 0x25 PUSH5 0x736F6C6343 STOP ADDMOD 0x1E STOP CALLER "
		},
		"gasEstimates": {
			"creation": {
				"codeDepositCost": "123000",
				"executionCost": "169",
				"totalCost": "123169"
			},
			"external": {
				"add(uint8,uint8)": "infinite",
				"add1()": "348",
				"add2()": "380",
				"sub1()": "390"
			}
		},
		"methodIdentifiers": {
			"add(uint8,uint8)": "bb4e3f4d",
			"add1()": "0035921a",
			"add2()": "6c1f222f",
			"sub1()": "72a099b7"
		}
	},
	"abi": [
		{
			"inputs": [
				{
					"internalType": "uint8",
					"name": "x",
					"type": "uint8"
				},
				{
					"internalType": "uint8",
					"name": "y",
					"type": "uint8"
				}
			],
			"name": "add",
			"outputs": [
				{
					"internalType": "uint8",
					"name": "",
					"type": "uint8"
				}
			],
			"stateMutability": "pure",
			"type": "function"
		},
		{
			"inputs": [],
			"name": "add1",
			"outputs": [
				{
					"internalType": "uint8",
					"name": "",
					"type": "uint8"
				}
			],
			"stateMutability": "pure",
			"type": "function"
		},
		{
			"inputs": [],
			"name": "add2",
			"outputs": [
				{
					"internalType": "uint8",
					"name": "",
					"type": "uint8"
				}
			],
			"stateMutability": "pure",
			"type": "function"
		},
		{
			"inputs": [],
			"name": "sub1",
			"outputs": [
				{
					"internalType": "uint8",
					"name": "",
					"type": "uint8"
				}
			],
			"stateMutability": "pure",
			"type": "function"
		}
	]
}